{
  "contractName": "FranklinDecentralizedMarketplace",
  "abi": [
    {
      "constant": true,
      "inputs": [],
      "name": "mediationMarketplace",
      "outputs": [
        {
          "name": "",
          "type": "address"
        }
      ],
      "payable": false,
      "stateMutability": "view",
      "type": "function"
    },
    {
      "constant": true,
      "inputs": [],
      "name": "mediationMarketplaceHasBeenSet",
      "outputs": [
        {
          "name": "",
          "type": "bool"
        }
      ],
      "payable": false,
      "stateMutability": "view",
      "type": "function"
    },
    {
      "constant": true,
      "inputs": [],
      "name": "contractOwner",
      "outputs": [
        {
          "name": "",
          "type": "address"
        }
      ],
      "payable": false,
      "stateMutability": "view",
      "type": "function"
    },
    {
      "inputs": [],
      "payable": false,
      "stateMutability": "nonpayable",
      "type": "constructor"
    },
    {
      "anonymous": false,
      "inputs": [
        {
          "indexed": false,
          "name": "_msgSender",
          "type": "address"
        },
        {
          "indexed": false,
          "name": "_sellerAddress",
          "type": "address"
        },
        {
          "indexed": false,
          "name": "_keyItemIpfsHash",
          "type": "string"
        },
        {
          "indexed": false,
          "name": "_quantity",
          "type": "uint256"
        }
      ],
      "name": "PurchaseItemWithoutMediatorEvent",
      "type": "event"
    },
    {
      "anonymous": false,
      "inputs": [
        {
          "indexed": false,
          "name": "_msgSender",
          "type": "address"
        },
        {
          "indexed": false,
          "name": "_keyItemIpfsHash",
          "type": "string"
        }
      ],
      "name": "AddItemForSaleAndPossiblySeller",
      "type": "event"
    },
    {
      "anonymous": false,
      "inputs": [
        {
          "indexed": false,
          "name": "_msgSender",
          "type": "address"
        },
        {
          "indexed": false,
          "name": "_keyItemIpfsHash",
          "type": "string"
        }
      ],
      "name": "RemoveItemForSaleAndPossibleSeller",
      "type": "event"
    },
    {
      "constant": false,
      "inputs": [
        {
          "name": "franklinDecentralizedMarketplaceMediationAddress",
          "type": "address"
        }
      ],
      "name": "setFranklinDecentralizedMarketplaceMediationContract",
      "outputs": [],
      "payable": false,
      "stateMutability": "nonpayable",
      "type": "function"
    },
    {
      "constant": true,
      "inputs": [
        {
          "name": "_sellerAddress",
          "type": "address"
        }
      ],
      "name": "sellerIsWillingToSellItemsViaMediator",
      "outputs": [
        {
          "name": "",
          "type": "bool"
        }
      ],
      "payable": false,
      "stateMutability": "view",
      "type": "function"
    },
    {
      "constant": false,
      "inputs": [
        {
          "name": "_flag",
          "type": "bool"
        }
      ],
      "name": "setSellerWillingToSellItemsViaMediator",
      "outputs": [],
      "payable": false,
      "stateMutability": "nonpayable",
      "type": "function"
    },
    {
      "constant": false,
      "inputs": [
        {
          "name": "_ipfsHashKeyDescription",
          "type": "string"
        }
      ],
      "name": "addOrUpdateSellerDescription",
      "outputs": [],
      "payable": false,
      "stateMutability": "nonpayable",
      "type": "function"
    },
    {
      "constant": true,
      "inputs": [
        {
          "name": "_sellerAddress",
          "type": "address"
        }
      ],
      "name": "getSellerIpfsHashDescription",
      "outputs": [
        {
          "name": "",
          "type": "string"
        }
      ],
      "payable": false,
      "stateMutability": "view",
      "type": "function"
    },
    {
      "constant": false,
      "inputs": [],
      "name": "removeSeller",
      "outputs": [],
      "payable": false,
      "stateMutability": "nonpayable",
      "type": "function"
    },
    {
      "constant": true,
      "inputs": [
        {
          "name": "_index",
          "type": "uint256"
        }
      ],
      "name": "getSellerAddress",
      "outputs": [
        {
          "name": "",
          "type": "address"
        }
      ],
      "payable": false,
      "stateMutability": "view",
      "type": "function"
    },
    {
      "constant": true,
      "inputs": [
        {
          "name": "_sellerAddress",
          "type": "address"
        }
      ],
      "name": "sellerExists",
      "outputs": [
        {
          "name": "",
          "type": "bool"
        }
      ],
      "payable": false,
      "stateMutability": "view",
      "type": "function"
    },
    {
      "constant": true,
      "inputs": [],
      "name": "getNumberOfSellers",
      "outputs": [
        {
          "name": "",
          "type": "uint256"
        }
      ],
      "payable": false,
      "stateMutability": "view",
      "type": "function"
    },
    {
      "constant": false,
      "inputs": [
        {
          "name": "_keyItemIpfsHash",
          "type": "string"
        },
        {
          "name": "_priceInWei",
          "type": "uint256"
        }
      ],
      "name": "setPriceOfItem",
      "outputs": [],
      "payable": false,
      "stateMutability": "nonpayable",
      "type": "function"
    },
    {
      "constant": true,
      "inputs": [
        {
          "name": "_sellerAddress",
          "type": "address"
        },
        {
          "name": "_keyItemIpfsHash",
          "type": "string"
        }
      ],
      "name": "getPriceOfItem",
      "outputs": [
        {
          "name": "",
          "type": "uint256"
        }
      ],
      "payable": false,
      "stateMutability": "view",
      "type": "function"
    },
    {
      "constant": false,
      "inputs": [
        {
          "name": "_keyItemIpfsHash",
          "type": "string"
        },
        {
          "name": "_quantity",
          "type": "uint256"
        }
      ],
      "name": "setQuantityAvailableForSaleOfAnItem",
      "outputs": [],
      "payable": false,
      "stateMutability": "nonpayable",
      "type": "function"
    },
    {
      "constant": false,
      "inputs": [
        {
          "name": "_sellerAddress",
          "type": "address"
        },
        {
          "name": "_keyItemIpfsHash",
          "type": "string"
        },
        {
          "name": "_quantity",
          "type": "uint256"
        }
      ],
      "name": "setQuantityAvailableForSaleOfAnItem_v2",
      "outputs": [],
      "payable": false,
      "stateMutability": "nonpayable",
      "type": "function"
    },
    {
      "constant": true,
      "inputs": [
        {
          "name": "_sellerAddress",
          "type": "address"
        },
        {
          "name": "_keyItemIpfsHash",
          "type": "string"
        }
      ],
      "name": "getQuantityAvailableForSaleOfAnItemBySeller",
      "outputs": [
        {
          "name": "",
          "type": "uint256"
        }
      ],
      "payable": false,
      "stateMutability": "view",
      "type": "function"
    },
    {
      "constant": false,
      "inputs": [
        {
          "name": "_sellerAddress",
          "type": "address"
        },
        {
          "name": "_keyItemIpfsHash",
          "type": "string"
        },
        {
          "name": "_quantity",
          "type": "uint256"
        }
      ],
      "name": "purchaseItemWithoutMediator",
      "outputs": [],
      "payable": true,
      "stateMutability": "payable",
      "type": "function"
    },
    {
      "constant": false,
      "inputs": [
        {
          "name": "_keyItemIpfsHash",
          "type": "string"
        }
      ],
      "name": "addItemForSale",
      "outputs": [],
      "payable": false,
      "stateMutability": "nonpayable",
      "type": "function"
    },
    {
      "constant": false,
      "inputs": [
        {
          "name": "_keyItemIpfsHash",
          "type": "string"
        }
      ],
      "name": "removeItemForSale",
      "outputs": [],
      "payable": false,
      "stateMutability": "nonpayable",
      "type": "function"
    },
    {
      "constant": true,
      "inputs": [
        {
          "name": "_sellerAddress",
          "type": "address"
        }
      ],
      "name": "getNumberOfDifferentItemsBeingSoldBySeller",
      "outputs": [
        {
          "name": "",
          "type": "uint256"
        }
      ],
      "payable": false,
      "stateMutability": "view",
      "type": "function"
    },
    {
      "constant": true,
      "inputs": [
        {
          "name": "_sellerAddress",
          "type": "address"
        },
        {
          "name": "_keyItemIpfsHash",
          "type": "string"
        }
      ],
      "name": "itemForSaleFromSellerExists",
      "outputs": [
        {
          "name": "",
          "type": "bool"
        }
      ],
      "payable": false,
      "stateMutability": "view",
      "type": "function"
    },
    {
      "constant": true,
      "inputs": [
        {
          "name": "_sellerAddress",
          "type": "address"
        },
        {
          "name": "_itemIndex",
          "type": "uint256"
        }
      ],
      "name": "getItemForSale",
      "outputs": [
        {
          "name": "",
          "type": "string"
        }
      ],
      "payable": false,
      "stateMutability": "view",
      "type": "function"
    }
  ],
  "bytecode": "0x608060405234801561001057600080fd5b5033600b60006101000a81548173ffffffffffffffffffffffffffffffffffffffff021916908373ffffffffffffffffffffffffffffffffffffffff160217905550615654806100616000396000f3fe6080604052600436106101405760003560e01c8063a675364d116100b6578063ce606ee01161006f578063ce606ee014610c2f578063d010564914610c86578063d3fc6d9114610d78578063d9a1e27b14610db5578063f4048e5514610e1a578063fcd2107814610e4557610140565b8063a675364d1461099a578063a869f06014610a15578063b5cc7db114610a66578063be3ecf9d14610a95578063c008b40614610afe578063c0fc79bb14610bc657610140565b80633bc70e3c116101085780633bc70e3c146104cf5780633d2d4de3146105cb5780636c84d465146106cb5780637107bf8714610722578063988fc83e146107f45780639f42ed24146108c857610140565b806318426481146101455780631d1ca2791461020d5780631db03207146102d7578063251ed3b9146102ee578063282e9d79146103d3575b600080fd5b34801561015157600080fd5b5061020b6004803603602081101561016857600080fd5b810190808035906020019064010000000081111561018557600080fd5b82018360208201111561019757600080fd5b803590602001918460018302840111640100000000831117156101b957600080fd5b91908080601f016020809104026020016040519081016040528093929190818152602001838380828437600081840152601f19601f820116905080830192505050505050509192919290505050610f0d565b005b34801561021957600080fd5b5061025c6004803603602081101561023057600080fd5b81019080803573ffffffffffffffffffffffffffffffffffffffff169060200190929190505050611739565b6040518080602001828103825283818151815260200191508051906020019080838360005b8381101561029c578082015181840152602081019050610281565b50505050905090810190601f1680156102c95780820380516001836020036101000a031916815260200191505b509250505060405180910390f35b3480156102e357600080fd5b506102ec61181a565b005b6103d16004803603606081101561030457600080fd5b81019080803573ffffffffffffffffffffffffffffffffffffffff1690602001909291908035906020019064010000000081111561034157600080fd5b82018360208201111561035357600080fd5b8035906020019184600183028401116401000000008311171561037557600080fd5b91908080601f016020809104026020016040519081016040528093929190818152602001838380828437600081840152601f19601f82011690508083019250505050505050919291929080359060200190929190505050611916565b005b3480156103df57600080fd5b506104b9600480360360408110156103f657600080fd5b81019080803573ffffffffffffffffffffffffffffffffffffffff1690602001909291908035906020019064010000000081111561043357600080fd5b82018360208201111561044557600080fd5b8035906020019184600183028401116401000000008311171561046757600080fd5b91908080601f016020809104026020016040519081016040528093929190818152602001838380828437600081840152601f19601f820116905080830192505050505050509192919290505050612177565b6040518082815260200191505060405180910390f35b3480156104db57600080fd5b506105b5600480360360408110156104f257600080fd5b81019080803573ffffffffffffffffffffffffffffffffffffffff1690602001909291908035906020019064010000000081111561052f57600080fd5b82018360208201111561054157600080fd5b8035906020019184600183028401116401000000008311171561056357600080fd5b91908080601f016020809104026020016040519081016040528093929190818152602001838380828437600081840152601f19601f8201169050808301925050505050505091929192905050506122c6565b6040518082815260200191505060405180910390f35b3480156105d757600080fd5b506106b1600480360360408110156105ee57600080fd5b81019080803573ffffffffffffffffffffffffffffffffffffffff1690602001909291908035906020019064010000000081111561062b57600080fd5b82018360208201111561063d57600080fd5b8035906020019184600183028401116401000000008311171561065f57600080fd5b91908080601f016020809104026020016040519081016040528093929190818152602001838380828437600081840152601f19601f820116905080830192505050505050509192919290505050612415565b604051808215151515815260200191505060405180910390f35b3480156106d757600080fd5b506106e06124a5565b604051808273ffffffffffffffffffffffffffffffffffffffff1673ffffffffffffffffffffffffffffffffffffffff16815260200191505060405180910390f35b34801561072e57600080fd5b506107f26004803603604081101561074557600080fd5b810190808035906020019064010000000081111561076257600080fd5b82018360208201111561077457600080fd5b8035906020019184600183028401116401000000008311171561079657600080fd5b91908080601f016020809104026020016040519081016040528093929190818152602001838380828437600081840152601f19601f820116905080830192505050505050509192919290803590602001909291905050506124cb565b005b34801561080057600080fd5b5061084d6004803603604081101561081757600080fd5b81019080803573ffffffffffffffffffffffffffffffffffffffff16906020019092919080359060200190929190505050612687565b6040518080602001828103825283818151815260200191508051906020019080838360005b8381101561088d578082015181840152602081019050610872565b50505050905090810190601f1680156108ba5780820380516001836020036101000a031916815260200191505b509250505060405180910390f35b3480156108d457600080fd5b50610998600480360360408110156108eb57600080fd5b810190808035906020019064010000000081111561090857600080fd5b82018360208201111561091a57600080fd5b8035906020019184600183028401116401000000008311171561093c57600080fd5b91908080601f016020809104026020016040519081016040528093929190818152602001838380828437600081840152601f19601f8201169050808301925050505050505091929192908035906020019092919050505061288a565b005b3480156109a657600080fd5b506109d3600480360360208110156109bd57600080fd5b8101908080359060200190929190505050612a46565b604051808273ffffffffffffffffffffffffffffffffffffffff1673ffffffffffffffffffffffffffffffffffffffff16815260200191505060405180910390f35b348015610a2157600080fd5b50610a6460048036036020811015610a3857600080fd5b81019080803573ffffffffffffffffffffffffffffffffffffffff169060200190929190505050612c09565b005b348015610a7257600080fd5b50610a7b612ea0565b604051808215151515815260200191505060405180910390f35b348015610aa157600080fd5b50610ae460048036036020811015610ab857600080fd5b81019080803573ffffffffffffffffffffffffffffffffffffffff169060200190929190505050612eb3565b604051808215151515815260200191505060405180910390f35b348015610b0a57600080fd5b50610bc460048036036020811015610b2157600080fd5b8101908080359060200190640100000000811115610b3e57600080fd5b820183602082011115610b5057600080fd5b80359060200191846001830284011164010000000083111715610b7257600080fd5b91908080601f016020809104026020016040519081016040528093929190818152602001838380828437600081840152601f19601f820116905080830192505050505050509192919290505050612f09565b005b348015610bd257600080fd5b50610c1560048036036020811015610be957600080fd5b81019080803573ffffffffffffffffffffffffffffffffffffffff169060200190929190505050613067565b604051808215151515815260200191505060405180910390f35b348015610c3b57600080fd5b50610c446130bd565b604051808273ffffffffffffffffffffffffffffffffffffffff1673ffffffffffffffffffffffffffffffffffffffff16815260200191505060405180910390f35b348015610c9257600080fd5b50610d7660048036036060811015610ca957600080fd5b81019080803573ffffffffffffffffffffffffffffffffffffffff16906020019092919080359060200190640100000000811115610ce657600080fd5b820183602082011115610cf857600080fd5b80359060200191846001830284011164010000000083111715610d1a57600080fd5b91908080601f016020809104026020016040519081016040528093929190818152602001838380828437600081840152601f19601f820116905080830192505050505050509192919290803590602001909291905050506130e3565b005b348015610d8457600080fd5b50610db360048036036020811015610d9b57600080fd5b810190808035151590602001909291905050506133ab565b005b348015610dc157600080fd5b50610e0460048036036020811015610dd857600080fd5b81019080803573ffffffffffffffffffffffffffffffffffffffff16906020019092919050505061345c565b6040518082815260200191505060405180910390f35b348015610e2657600080fd5b50610e2f6134a5565b6040518082815260200191505060405180910390f35b348015610e5157600080fd5b50610f0b60048036036020811015610e6857600080fd5b8101908080359060200190640100000000811115610e8557600080fd5b820183602082011115610e9757600080fd5b80359060200191846001830284011164010000000083111715610eb957600080fd5b91908080601f016020809104026020016040519081016040528093929190818152602001838380828437600081840152601f19601f8201169050808301925050505050505091929192905050506134af565b005b6060610f193383613b73565b90506003816040518082805190602001908083835b60208310610f515780518252602082019150602081019050602083039250610f2e565b6001836020036101000a038019825116818451168082178552505050505050905001915050908152602001604051809103902060009054906101000a900460ff16610f9c5750611736565b6000600260003373ffffffffffffffffffffffffffffffffffffffff1673ffffffffffffffffffffffffffffffffffffffff168152602001908152602001600020905080836040518082805190602001908083835b602083106110145780518252602082019150602081019050602083039250610ff1565b6001836020036101000a0380198251168184511680821785525050505050509050019150509081526020016040518091039020600060011515151581526020019081526020016000208182856040518082805190602001908083835b602083106110935780518252602082019150602081019050602083039250611070565b6001836020036101000a038019825116818451168082178552505050505050905001915050908152602001604051809103902060008015151515815260200190815260200160002060405180828054600181600116156101000203166002900480156111365780601f10611114576101008083540402835291820191611136565b820191906000526020600020905b815481529060010190602001808311611122575b5050915050908152602001604051809103902060006001151515158152602001908152602001600020908054600181600116156101000203166002900461117e929190614e5a565b5080836040518082805190602001908083835b602083106111b45780518252602082019150602081019050602083039250611191565b6001836020036101000a03801982511681845116808217855250505050505090500191505090815260200160405180910390206000801515151581526020019081526020016000208182856040518082805190602001908083835b60208310611232578051825260208201915060208101905060208303925061120f565b6001836020036101000a03801982511681845116808217855250505050505090500191505090815260200160405180910390206000600115151515815260200190815260200160002060405180828054600181600116156101000203166002900480156112d65780601f106112b45761010080835404028352918201916112d6565b820191906000526020600020905b8154815290600101906020018083116112c2575b50509150509081526020016040518091039020600080151515158152602001908152602001600020908054600181600116156101000203166002900461131d929190614e5a565b5080836040518082805190602001908083835b602083106113535780518252602082019150602081019050602083039250611330565b6001836020036101000a038019825116818451168082178552505050505050905001915050908152602001604051809103902060008015151515815260200190815260200160002060006113a79190614ee1565b80836040518082805190602001908083835b602083106113dc57805182526020820191506020810190506020830392506113b9565b6001836020036101000a03801982511681845116808217855250505050505090500191505090815260200160405180910390206000600115151515815260200190815260200160002060006114319190614ee1565b61147b600460003373ffffffffffffffffffffffffffffffffffffffff1673ffffffffffffffffffffffffffffffffffffffff168152602001908152602001600020546001613ccb565b600460003373ffffffffffffffffffffffffffffffffffffffff1673ffffffffffffffffffffffffffffffffffffffff168152602001908152602001600020819055506003826040518082805190602001908083835b602083106114f457805182526020820191506020810190506020830392506114d1565b6001836020036101000a038019825116818451168082178552505050505050905001915050908152602001604051809103902060006101000a81549060ff02191690556000826040518082805190602001908083835b6020831061156d578051825260208201915060208101905060208303925061154a565b6001836020036101000a0380198251168184511680821785525050505050509050019150509081526020016040518091039020600090556001826040518082805190602001908083835b602083106115da57805182526020820191506020810190506020830392506115b7565b6001836020036101000a0380198251168184511680821785525050505050509050019150509081526020016040518091039020600090556000600460003373ffffffffffffffffffffffffffffffffffffffff1673ffffffffffffffffffffffffffffffffffffffff1681526020019081526020016000205414156116635761166233613d37565b5b7f6a7e9f2c6a7ac5699ab342e8a3c28cfd3d6524577cb221cf07f63ced1e2f350b3384604051808373ffffffffffffffffffffffffffffffffffffffff1673ffffffffffffffffffffffffffffffffffffffff16815260200180602001828103825283818151815260200191508051906020019080838360005b838110156116f85780820151818401526020810190506116dd565b50505050905090810190601f1680156117255780820380516001836020036101000a031916815260200191505b50935050505060405180910390a150505b50565b6060600860008373ffffffffffffffffffffffffffffffffffffffff1673ffffffffffffffffffffffffffffffffffffffff1681526020019081526020016000208054600181600116156101000203166002900480601f01602080910402602001604051908101604052809291908181526020018280546001816001161561010002031660029004801561180e5780601f106117e35761010080835404028352916020019161180e565b820191906000526020600020905b8154815290600101906020018083116117f157829003601f168201915b50505050509050919050565b6000600460003373ffffffffffffffffffffffffffffffffffffffff1673ffffffffffffffffffffffffffffffffffffffff16815260200190815260200160002054905060608160405190808252806020026020018201604052801561189457816020015b606081526020019060019003908161187f5790505b50905060008090505b828110156118d95760606118b13383612687565b9050808383815181106118c057fe5b602002602001018190525050808060010191505061189d565b5060008090505b82811015611911576119048282815181106118f757fe5b6020026020010151610f0d565b80806001019150506118e0565b505050565b6000811161196f576040517f08c379a0000000000000000000000000000000000000000000000000000000008152600401808060200182810382526041815260200180614fcf6041913960600191505060405180910390fd5b61198882604051806020016040528060008152506142a9565b156119de576040517f08c379a00000000000000000000000000000000000000000000000000000000081526004018080602001828103825260508152602001806154636050913960600191505060405180910390fd5b8273ffffffffffffffffffffffffffffffffffffffff163373ffffffffffffffffffffffffffffffffffffffff161415611a63576040517f08c379a000000000000000000000000000000000000000000000000000000000815260040180806020018281038252603b8152602001806154b3603b913960400191505060405180910390fd5b600660008473ffffffffffffffffffffffffffffffffffffffff1673ffffffffffffffffffffffffffffffffffffffff16815260200190815260200160002060009054906101000a900460ff16611b05576040517f08c379a00000000000000000000000000000000000000000000000000000000081526004018080602001828103825260308152602001806152a46030913960400191505060405180910390fd5b6060611b118484613b73565b90506003816040518082805190602001908083835b60208310611b495780518252602082019150602081019050602083039250611b26565b6001836020036101000a038019825116818451168082178552505050505050905001915050908152602001604051809103902060009054906101000a900460ff16611bdf576040517f08c379a000000000000000000000000000000000000000000000000000000000815260040180806020018281038252604a8152602001806150c7604a913960600191505060405180910390fd5b60006001826040518082805190602001908083835b60208310611c175780518252602082019150602081019050602083039250611bf4565b6001836020036101000a03801982511681845116808217855250505050505090500191505090815260200160405180910390205411611ca1576040517f08c379a000000000000000000000000000000000000000000000000000000000815260040180806020018281038252604f815260200180615255604f913960600191505060405180910390fd5b816001826040518082805190602001908083835b60208310611cd85780518252602082019150602081019050602083039250611cb5565b6001836020036101000a0380198251168184511680821785525050505050509050019150509081526020016040518091039020541015611d63576040517f08c379a00000000000000000000000000000000000000000000000000000000081526004018080602001828103825260938152602001806151676093913960a00191505060405180910390fd5b600080826040518082805190602001908083835b60208310611d9a5780518252602082019150602081019050602083039250611d77565b6001836020036101000a03801982511681845116808217855250505050505090500191505090815260200160405180910390205411611e24576040517f08c379a000000000000000000000000000000000000000000000000000000000815260040180806020018281038252605d815260200180615406605d913960600191505060405180910390fd5b6000611e996000836040518082805190602001908083835b60208310611e5f5780518252602082019150602081019050602083039250611e3c565b6001836020036101000a03801982511681845116808217855250505050505090500191505090815260200160405180910390205484614398565b905080341015611ef4576040517f08c379a00000000000000000000000000000000000000000000000000000000081526004018080602001828103825260478152602001806155256047913960600191505060405180910390fd5b611f676001836040518082805190602001908083835b60208310611f2d5780518252602082019150602081019050602083039250611f0a565b6001836020036101000a03801982511681845116808217855250505050505090500191505090815260200160405180910390205484613ccb565b6001836040518082805190602001908083835b60208310611f9d5780518252602082019150602081019050602083039250611f7a565b6001836020036101000a0380198251168184511680821785525050505050509050019150509081526020016040518091039020819055503373ffffffffffffffffffffffffffffffffffffffff166108fc8234039081150290604051600060405180830381858888f1935050505015801561201c573d6000803e3d6000fd5b508473ffffffffffffffffffffffffffffffffffffffff166108fc829081150290604051600060405180830381858888f19350505050158015612063573d6000803e3d6000fd5b507f536d9b2b978ee004423c80fa0794cfb22b1478c2670e26b879f72e909a7b141d33868686604051808573ffffffffffffffffffffffffffffffffffffffff1673ffffffffffffffffffffffffffffffffffffffff1681526020018473ffffffffffffffffffffffffffffffffffffffff1673ffffffffffffffffffffffffffffffffffffffff16815260200180602001838152602001828103825284818151815260200191508051906020019080838360005b83811015612133578082015181840152602081019050612118565b50505050905090810190601f1680156121605780820380516001836020036101000a031916815260200191505b509550505050505060405180910390a15050505050565b600060606121858484613b73565b90506003816040518082805190602001908083835b602083106121bd578051825260208201915060208101905060208303925061219a565b6001836020036101000a038019825116818451168082178552505050505050905001915050908152602001604051809103902060009054906101000a900460ff16612253576040517f08c379a000000000000000000000000000000000000000000000000000000000815260040180806020018281038252604a8152602001806150c7604a913960600191505060405180910390fd5b6001816040518082805190602001908083835b602083106122895780518252602082019150602081019050602083039250612266565b6001836020036101000a03801982511681845116808217855250505050505090500191505090815260200160405180910390205491505092915050565b600060606122d48484613b73565b90506003816040518082805190602001908083835b6020831061230c57805182526020820191506020810190506020830392506122e9565b6001836020036101000a038019825116818451168082178552505050505050905001915050908152602001604051809103902060009054906101000a900460ff166123a2576040517f08c379a000000000000000000000000000000000000000000000000000000000815260040180806020018281038252604a8152602001806150c7604a913960600191505060405180910390fd5b6000816040518082805190602001908083835b602083106123d857805182526020820191506020810190506020830392506123b5565b6001836020036101000a03801982511681845116808217855250505050505090500191505090815260200160405180910390205491505092915050565b600060606124238484613b73565b90506003816040518082805190602001908083835b6020831061245b5780518252602082019150602081019050602083039250612438565b6001836020036101000a038019825116818451168082178552505050505050905001915050908152602001604051809103902060009054906101000a900460ff1691505092915050565b600a60009054906101000a900473ffffffffffffffffffffffffffffffffffffffff1681565b6124e482604051806020016040528060008152506142a9565b1561253a576040517f08c379a00000000000000000000000000000000000000000000000000000000081526004018080602001828103825260458152602001806150106045913960600191505060405180910390fd5b60606125463384613b73565b90506003816040518082805190602001908083835b6020831061257e578051825260208201915060208101905060208303925061255b565b6001836020036101000a038019825116818451168082178552505050505050905001915050908152602001604051809103902060009054906101000a900460ff16612614576040517f08c379a00000000000000000000000000000000000000000000000000000000081526004018080602001828103825260488152602001806155b66048913960600191505060405180910390fd5b816000826040518082805190602001908083835b6020831061264b5780518252602082019150602081019050602083039250612628565b6001836020036101000a038019825116818451168082178552505050505050905001915050908152602001604051809103902081905550505050565b6060600460008473ffffffffffffffffffffffffffffffffffffffff1673ffffffffffffffffffffffffffffffffffffffff1681526020019081526020016000205482106126e657604051806020016040528060008152509050612884565b6000600260008573ffffffffffffffffffffffffffffffffffffffff1673ffffffffffffffffffffffffffffffffffffffff1681526020019081526020016000209050600080905060606040518060200160405280600081525090505b60011561287d5782816040518082805190602001908083835b6020831061277f578051825260208201915060208101905060208303925061275c565b6001836020036101000a0380198251168184511680821785525050505050509050019150509081526020016040518091039020600060011515151581526020019081526020016000208054600181600116156101000203166002900480601f01602080910402602001604051908101604052809291908181526020018280546001816001161561010002031660029004801561285c5780601f106128315761010080835404028352916020019161285c565b820191906000526020600020905b81548152906001019060200180831161283f57829003601f168201915b50505050509050848214156128705761287d565b8180600101925050612743565b8093505050505b92915050565b6128a382604051806020016040528060008152506142a9565b156128f9576040517f08c379a00000000000000000000000000000000000000000000000000000000081526004018080602001828103825260458152602001806150106045913960600191505060405180910390fd5b60606129053384613b73565b90506003816040518082805190602001908083835b6020831061293d578051825260208201915060208101905060208303925061291a565b6001836020036101000a038019825116818451168082178552505050505050905001915050908152602001604051809103902060009054906101000a900460ff166129d3576040517f08c379a00000000000000000000000000000000000000000000000000000000081526004018080602001828103825260488152602001806155b66048913960600191505060405180910390fd5b816001826040518082805190602001908083835b60208310612a0a57805182526020820191506020810190506020830392506129e7565b6001836020036101000a038019825116818451168082178552505050505050905001915050908152602001604051809103902081905550505050565b60006007548210612aa2576040517f08c379a00000000000000000000000000000000000000000000000000000000081526004018080602001828103825260728152602001806150556072913960800191505060405180910390fd5b600080905060606040518060200160405280600081525090505b600115612bf7576005816040518082805190602001908083835b60208310612af95780518252602082019150602081019050602083039250612ad6565b6001836020036101000a0380198251168184511680821785525050505050509050019150509081526020016040518091039020600060011515151581526020019081526020016000208054600181600116156101000203166002900480601f016020809104026020016040519081016040528092919081815260200182805460018160011615610100020316600290048015612bd65780601f10612bab57610100808354040283529160200191612bd6565b820191906000526020600020905b815481529060010190602001808311612bb957829003601f168201915b5050505050905083821415612bea57612bf7565b8180600101925050612abc565b612c008161448a565b92505050919050565b600b60009054906101000a900473ffffffffffffffffffffffffffffffffffffffff1673ffffffffffffffffffffffffffffffffffffffff163373ffffffffffffffffffffffffffffffffffffffff1614612caf576040517f08c379a00000000000000000000000000000000000000000000000000000000081526004018080602001828103825260378152602001806154ee6037913960400191505060405180910390fd5b600a60149054906101000a900460ff1615612d15576040517f08c379a00000000000000000000000000000000000000000000000000000000081526004018080602001828103825260408152602001806153c66040913960400191505060405180910390fd5b60008190508073ffffffffffffffffffffffffffffffffffffffff1663ce606ee06040518163ffffffff1660e01b815260040160206040518083038186803b158015612d6057600080fd5b505afa158015612d74573d6000803e3d6000fd5b505050506040513d6020811015612d8a57600080fd5b810190808051906020019092919050505073ffffffffffffffffffffffffffffffffffffffff16600b60009054906101000a900473ffffffffffffffffffffffffffffffffffffffff1673ffffffffffffffffffffffffffffffffffffffff1614612e40576040517f08c379a00000000000000000000000000000000000000000000000000000000081526004018080602001828103825260818152602001806153456081913960a00191505060405180910390fd5b80600a60006101000a81548173ffffffffffffffffffffffffffffffffffffffff021916908373ffffffffffffffffffffffffffffffffffffffff1602179055506001600a60146101000a81548160ff0219169083151502179055505050565b600a60149054906101000a900460ff1681565b6000600660008373ffffffffffffffffffffffffffffffffffffffff1673ffffffffffffffffffffffffffffffffffffffff16815260200190815260200160002060009054906101000a900460ff169050919050565b6000600460003373ffffffffffffffffffffffffffffffffffffffff1673ffffffffffffffffffffffffffffffffffffffff1681526020019081526020016000205411612fa1576040517f08c379a00000000000000000000000000000000000000000000000000000000081526004018080602001828103825260568152602001806151116056913960600191505060405180910390fd5b612fba81604051806020016040528060008152506142a9565b15613010576040517f08c379a000000000000000000000000000000000000000000000000000000000815260040180806020018281038252604a81526020018061556c604a913960600191505060405180910390fd5b80600860003373ffffffffffffffffffffffffffffffffffffffff1673ffffffffffffffffffffffffffffffffffffffff1681526020019081526020016000209080519060200190613063929190614f29565b5050565b6000600960008373ffffffffffffffffffffffffffffffffffffffff1673ffffffffffffffffffffffffffffffffffffffff16815260200190815260200160002060009054906101000a900460ff169050919050565b600b60009054906101000a900473ffffffffffffffffffffffffffffffffffffffff1681565b600a60149054906101000a900460ff16613148576040517f08c379a00000000000000000000000000000000000000000000000000000000081526004018080602001828103825260498152602001806152d46049913960600191505060405180910390fd5b61316182604051806020016040528060008152506142a9565b156131b7576040517f08c379a00000000000000000000000000000000000000000000000000000000081526004018080602001828103825260458152602001806150106045913960600191505060405180910390fd5b60606131c38484613b73565b90506003816040518082805190602001908083835b602083106131fb57805182526020820191506020810190506020830392506131d8565b6001836020036101000a038019825116818451168082178552505050505050905001915050908152602001604051809103902060009054906101000a900460ff16613291576040517f08c379a00000000000000000000000000000000000000000000000000000000081526004018080602001828103825260488152602001806155b66048913960600191505060405180910390fd5b600a60009054906101000a900473ffffffffffffffffffffffffffffffffffffffff1673ffffffffffffffffffffffffffffffffffffffff163373ffffffffffffffffffffffffffffffffffffffff1614613337576040517f08c379a000000000000000000000000000000000000000000000000000000000815260040180806020018281038252605b8152602001806151fa605b913960600191505060405180910390fd5b816001826040518082805190602001908083835b6020831061336e578051825260208201915060208101905060208303925061334b565b6001836020036101000a03801982511681845116808217855250505050505090500191505090815260200160405180910390208190555050505050565b600660003373ffffffffffffffffffffffffffffffffffffffff1673ffffffffffffffffffffffffffffffffffffffff16815260200190815260200160002060009054906101000a900460ff1661340157613459565b80600960003373ffffffffffffffffffffffffffffffffffffffff1673ffffffffffffffffffffffffffffffffffffffff16815260200190815260200160002060006101000a81548160ff0219169083151502179055505b50565b6000600460008373ffffffffffffffffffffffffffffffffffffffff1673ffffffffffffffffffffffffffffffffffffffff168152602001908152602001600020549050919050565b6000600754905090565b6134c881604051806020016040528060008152506142a9565b1561351e576040517f08c379a00000000000000000000000000000000000000000000000000000000081526004018080602001828103825260458152602001806150106045913960600191505060405180910390fd5b606061352a3383613b73565b90506003816040518082805190602001908083835b60208310613562578051825260208201915060208101905060208303925061353f565b6001836020036101000a038019825116818451168082178552505050505050905001915050908152602001604051809103902060009054906101000a900460ff16156135ae5750613b70565b6000600260003373ffffffffffffffffffffffffffffffffffffffff1673ffffffffffffffffffffffffffffffffffffffff16815260200190815260200160002090506040518060200160405280600081525081846040518082805190602001908083835b602083106136365780518252602082019150602081019050602083039250613613565b6001836020036101000a03801982511681845116808217855250505050505090500191505090815260200160405180910390206000801515151581526020019081526020016000209080519060200190613691929190614f29565b5080604051806020016040528060008152506040518082805190602001908083835b602083106136d657805182526020820191506020810190506020830392506136b3565b6001836020036101000a03801982511681845116808217855250505050505090500191505090815260200160405180910390206000600115151515815260200190815260200160002081846040518082805190602001908083835b602083106137545780518252602082019150602081019050602083039250613731565b6001836020036101000a03801982511681845116808217855250505050505090500191505090815260200160405180910390206000600115151515815260200190815260200160002090805460018160011615610100020316600290046137bc929190614e5a565b50828182604051806020016040528060008152506040518082805190602001908083835b6020831061380357805182526020820191506020810190506020830392506137e0565b6001836020036101000a03801982511681845116808217855250505050505090500191505090815260200160405180910390206000600115151515815260200190815260200160002060405180828054600181600116156101000203166002900480156138a75780601f106138855761010080835404028352918201916138a7565b820191906000526020600020905b815481529060010190602001808311613893575b5050915050908152602001604051809103902060008015151515815260200190815260200160002090805190602001906138e2929190614f29565b508281604051806020016040528060008152506040518082805190602001908083835b602083106139285780518252602082019150602081019050602083039250613905565b6001836020036101000a0380198251168184511680821785525050505050509050019150509081526020016040518091039020600060011515151581526020019081526020016000209080519060200190613984929190614f29565b506139cf600460003373ffffffffffffffffffffffffffffffffffffffff1673ffffffffffffffffffffffffffffffffffffffff1681526020019081526020016000205460016146e3565b600460003373ffffffffffffffffffffffffffffffffffffffff1673ffffffffffffffffffffffffffffffffffffffff1681526020019081526020016000208190555060016003836040518082805190602001908083835b60208310613a4a5780518252602082019150602081019050602083039250613a27565b6001836020036101000a038019825116818451168082178552505050505050905001915050908152602001604051809103902060006101000a81548160ff021916908315150217905550613a9d3361476b565b7f9fdc89759fddfbbd2a8f4bf794a2030c34d8908c8ce074995f5f04e83efb2f273384604051808373ffffffffffffffffffffffffffffffffffffffff1673ffffffffffffffffffffffffffffffffffffffff16815260200180602001828103825283818151815260200191508051906020019080838360005b83811015613b32578082015181840152602081019050613b17565b50505050905090810190601f168015613b5f5780820380516001836020036101000a031916815260200191505b50935050505060405180910390a150505b50565b6060613b7e83614bd9565b6040518060400160405280600181526020017f5f00000000000000000000000000000000000000000000000000000000000000815250836040516020018084805190602001908083835b60208310613beb5780518252602082019150602081019050602083039250613bc8565b6001836020036101000a03801982511681845116808217855250505050505090500183805190602001908083835b60208310613c3c5780518252602082019150602081019050602083039250613c19565b6001836020036101000a03801982511681845116808217855250505050505090500182805190602001908083835b60208310613c8d5780518252602082019150602081019050602083039250613c6a565b6001836020036101000a0380198251168184511680821785525050505050509050019350505050604051602081830303815290604052905092915050565b600082821115613d26576040517f08c379a000000000000000000000000000000000000000000000000000000000815260040180806020018281038252602881526020018061531d6028913960400191505060405180910390fd5b600082840390508091505092915050565b6060613d4282614bd9565b9050600660008373ffffffffffffffffffffffffffffffffffffffff1673ffffffffffffffffffffffffffffffffffffffff16815260200190815260200160002060009054906101000a900460ff16613d9b57506142a6565b6005816040518082805190602001908083835b60208310613dd15780518252602082019150602081019050602083039250613dae565b6001836020036101000a038019825116818451168082178552505050505050905001915050908152602001604051809103902060006001151515158152602001908152602001600020600580836040518082805190602001908083835b60208310613e515780518252602082019150602081019050602083039250613e2e565b6001836020036101000a03801982511681845116808217855250505050505090500191505090815260200160405180910390206000801515151581526020019081526020016000206040518082805460018160011615610100020316600290048015613ef45780601f10613ed2576101008083540402835291820191613ef4565b820191906000526020600020905b815481529060010190602001808311613ee0575b50509150509081526020016040518091039020600060011515151581526020019081526020016000209080546001816001161561010002031660029004613f3c929190614e5a565b506005816040518082805190602001908083835b60208310613f735780518252602082019150602081019050602083039250613f50565b6001836020036101000a0380198251168184511680821785525050505050509050019150509081526020016040518091039020600080151515158152602001908152602001600020600580836040518082805190602001908083835b60208310613ff25780518252602082019150602081019050602083039250613fcf565b6001836020036101000a03801982511681845116808217855250505050505090500191505090815260200160405180910390206000600115151515815260200190815260200160002060405180828054600181600116156101000203166002900480156140965780601f10614074576101008083540402835291820191614096565b820191906000526020600020905b815481529060010190602001808311614082575b5050915050908152602001604051809103902060008015151515815260200190815260200160002090805460018160011615610100020316600290046140dd929190614e5a565b506005816040518082805190602001908083835b6020831061411457805182526020820191506020810190506020830392506140f1565b6001836020036101000a038019825116818451168082178552505050505050905001915050908152602001604051809103902060008015151515815260200190815260200160002060006141689190614ee1565b6005816040518082805190602001908083835b6020831061419e578051825260208201915060208101905060208303925061417b565b6001836020036101000a03801982511681845116808217855250505050505090500191505090815260200160405180910390206000600115151515815260200190815260200160002060006141f39190614ee1565b6142006007546001613ccb565b600781905550600660008373ffffffffffffffffffffffffffffffffffffffff1673ffffffffffffffffffffffffffffffffffffffff16815260200190815260200160002060006101000a81549060ff0219169055600960008373ffffffffffffffffffffffffffffffffffffffff1673ffffffffffffffffffffffffffffffffffffffff16815260200190815260200160002060006101000a81549060ff0219169055505b50565b6000816040516020018082805190602001908083835b602083106142e257805182526020820191506020810190506020830392506142bf565b6001836020036101000a03801982511681845116808217855250505050505090500191505060405160208183030381529060405280519060200120836040516020018082805190602001908083835b602083106143545780518252602082019150602081019050602083039250614331565b6001836020036101000a0380198251168184511680821785525050505050509050019150506040516020818303038152906040528051906020012014905092915050565b6000808314806143a85750600082145b156143b65760009050614484565b60008284029050828482816143c757fe5b041461441e576040517f08c379a000000000000000000000000000000000000000000000000000000000815260040180806020018281038252602b8152602001806155fe602b913960400191505060405180910390fd5b8383828161442857fe5b041461447f576040517f08c379a000000000000000000000000000000000000000000000000000000000815260040180806020018281038252602b8152602001806155fe602b913960400191505060405180910390fd5b809150505b92915050565b6000606082905060008090506000806000600290505b602a8110156146d657610100840293508481815181106144bc57fe5b602001015160f81c60f81b60f81c60ff1692508460018201815181106144de57fe5b602001015160f81c60f81b60f81c60ff16915060618373ffffffffffffffffffffffffffffffffffffffff161015801561452f575060668373ffffffffffffffffffffffffffffffffffffffff1611155b1561453f576057830392506145d9565b60418373ffffffffffffffffffffffffffffffffffffffff161015801561457d575060468373ffffffffffffffffffffffffffffffffffffffff1611155b1561458d576037830392506145d8565b60308373ffffffffffffffffffffffffffffffffffffffff16101580156145cb575060398373ffffffffffffffffffffffffffffffffffffffff1611155b156145d7576030830392505b5b5b60618273ffffffffffffffffffffffffffffffffffffffff1610158015614617575060668273ffffffffffffffffffffffffffffffffffffffff1611155b15614627576057820391506146c1565b60418273ffffffffffffffffffffffffffffffffffffffff1610158015614665575060468273ffffffffffffffffffffffffffffffffffffffff1611155b15614675576037820391506146c0565b60308273ffffffffffffffffffffffffffffffffffffffff16101580156146b3575060398273ffffffffffffffffffffffffffffffffffffffff1611155b156146bf576030820391505b5b5b816010840201840193506002810190506144a0565b5082945050505050919050565b600080828401905083811015614761576040517f08c379a00000000000000000000000000000000000000000000000000000000081526004018080602001828103825260208152602001807f5f736166654d617468416464203a204164646974696f6e204f766572666c6f7781525060200191505060405180910390fd5b8091505092915050565b606061477682614bd9565b9050600660008373ffffffffffffffffffffffffffffffffffffffff1673ffffffffffffffffffffffffffffffffffffffff16815260200190815260200160002060009054906101000a900460ff16156147d05750614bd6565b604051806020016040528060008152506005826040518082805190602001908083835b6020831061481657805182526020820191506020810190506020830392506147f3565b6001836020036101000a03801982511681845116808217855250505050505090500191505090815260200160405180910390206000801515151581526020019081526020016000209080519060200190614871929190614f29565b506005604051806020016040528060008152506040518082805190602001908083835b602083106148b75780518252602082019150602081019050602083039250614894565b6001836020036101000a0380198251168184511680821785525050505050509050019150509081526020016040518091039020600060011515151581526020019081526020016000206005826040518082805190602001908083835b602083106149365780518252602082019150602081019050602083039250614913565b6001836020036101000a038019825116818451168082178552505050505050905001915050908152602001604051809103902060006001151515158152602001908152602001600020908054600181600116156101000203166002900461499e929190614e5a565b5080600580604051806020016040528060008152506040518082805190602001908083835b602083106149e657805182526020820191506020810190506020830392506149c3565b6001836020036101000a0380198251168184511680821785525050505050509050019150509081526020016040518091039020600060011515151581526020019081526020016000206040518082805460018160011615610100020316600290048015614a8a5780601f10614a68576101008083540402835291820191614a8a565b820191906000526020600020905b815481529060010190602001808311614a76575b505091505090815260200160405180910390206000801515151581526020019081526020016000209080519060200190614ac5929190614f29565b50806005604051806020016040528060008152506040518082805190602001908083835b60208310614b0c5780518252602082019150602081019050602083039250614ae9565b6001836020036101000a0380198251168184511680821785525050505050509050019150509081526020016040518091039020600060011515151581526020019081526020016000209080519060200190614b68929190614f29565b50614b7660075460016146e3565b6007819055506001600660008473ffffffffffffffffffffffffffffffffffffffff1673ffffffffffffffffffffffffffffffffffffffff16815260200190815260200160002060006101000a81548160ff021916908315150217905550505b50565b606060008273ffffffffffffffffffffffffffffffffffffffff1660001b905060606040518060400160405280601081526020017f303132333435363738396162636465660000000000000000000000000000000081525090506060602a6040519080825280601f01601f191660200182016040528015614c695781602001600182028038833980820191505090505b5090507f300000000000000000000000000000000000000000000000000000000000000081600081518110614c9a57fe5b60200101907effffffffffffffffffffffffffffffffffffffffffffffffffffffffffffff1916908160001a9053507f780000000000000000000000000000000000000000000000000000000000000081600181518110614cf757fe5b60200101907effffffffffffffffffffffffffffffffffffffffffffffffffffffffffffff1916908160001a90535060008090505b6014811015614e4e5782600485600c840160208110614d4757fe5b1a60f81b7effffffffffffffffffffffffffffffffffffffffffffffffffffffffffffff1916901c60f81c60ff1681518110614d7f57fe5b602001015160f81c60f81b826002830260020181518110614d9c57fe5b60200101907effffffffffffffffffffffffffffffffffffffffffffffffffffffffffffff1916908160001a90535082600f60f81b85600c840160208110614de057fe5b1a60f81b1660f81c60ff1681518110614df557fe5b602001015160f81c60f81b826002830260030181518110614e1257fe5b60200101907effffffffffffffffffffffffffffffffffffffffffffffffffffffffffffff1916908160001a9053508080600101915050614d2c565b50809350505050919050565b828054600181600116156101000203166002900490600052602060002090601f016020900481019282601f10614e935780548555614ed0565b82800160010185558215614ed057600052602060002091601f016020900482015b82811115614ecf578254825591600101919060010190614eb4565b5b509050614edd9190614fa9565b5090565b50805460018160011615610100020316600290046000825580601f10614f075750614f26565b601f016020900490600052602060002090810190614f259190614fa9565b5b50565b828054600181600116156101000203166002900490600052602060002090601f016020900481019282601f10614f6a57805160ff1916838001178555614f98565b82800160010185558215614f98579182015b82811115614f97578251825591602001919060010190614f7c565b5b509050614fa59190614fa9565b5090565b614fcb91905b80821115614fc7576000816000905550600101614faf565b5090565b9056fe4d757374207075726368617365206174206c656173742031207175616e74697479206f6620746865204974656d20666f722053616c6520746f2068617070656e2143616e6e6f74206861766520616e20656d70747920537472696e6720666f722074686520495046532048617368204b6579206f6620616e204974656d20746f2053656c6c21496e6465782076616c756520676976656e2069732067726561746572207468616e206f7220657175616c20746f20746865204e756d626572206f662053656c6c657273212049742073686f756c64206265206c657373207468616e20746865204e756d626572206f662053656c6c65727321476976656e20495046532048617368206f66204974656d206973206e6f74206c697374656420617320616e204974656d20466f722053616c652066726f6d207468652053656c6c657221596f75206d75737420666972737420616464206174206c65617374204f4e45204974656d20466f722053616c65206265666f726520616464696e672061206465736372697074696f6e206f6620796f757273656c66215175616e7469747920617661696c61626c6520466f722053616c65206f6620746865204974656d2066726f6d207468652053656c6c6572206973206c657373207468616e20746865207175616e746974792072657175657374656420746f20707572636861736521204e6f7420656e6f756768206f6620746865204974656e6d20617661696c61626c6520466f722053616c6554686973206d6574686f64206d6179206f6e6c7920626520657865637574656420627920746865204672616e6b6c696e446563656e7472616c697a65644d61726b6574706c6163654d6564696174696f6e20636f6e74726163742153656c6c657220686173205a65726f207175616e7469747920617661696c61626c6520666f722053616c6520666f7220746865204974656d2072657175657374656420746f20707572636861736521476976656e2053656c6c6572204164647265737320646f6573206e6f7420657869737420617320612053656c6c657221546865206d6564696174696f6e4d61726b6574706c61636520696e7374616e636520686173206e6f74206265656e207365742062792074686520436f6e7472616374204f776e6572215f736166654d6174685375627472616374203a205375627472616374696f6e204f766572666c6f774d7573742062652073616d6520436f6e7472616374204f776e657220696e20626f746820746865204672616e6b6c696e446563656e7472616c697a65644d61726b6574706c61636520616e64204672616e6b6c696e446563656e7472616c697a65644d61726b6574706c6163654d6564696174696f6e20636f6e74726163747321546865206d6564696174696f6e4d61726b65706c61636520636f6e7472616374207265666572656e63652068617320616c7265616479206265656e20736574215468652053656c6c657220686173206e6f742079657420736574206120507269636520666f722053616c6520666f722074686520726571756573746564204974656d212043616e6e6f7420707572636861736520746865204974656d2143616e6e6f74206861766520616e20656d70747920537472696e6720666f722074686520495046532048617368204b6579206f6620616e204974656d20796f75206172652070757263686173696e672154686520427579657220416464726573732063616e6e6f74206265207468652073616d65206173207468652053656c6c657220416464726573732154686973206d6574686f64206d6179206f6e6c792062652065786563757465642062792074686520436f6e7472616374204f776e6572214e6f7420656e6f75676820455448207761732073656e7420746f20707572636861736520746865207175616e7469747920726571756573746564206f6620746865204974656d2143616e6e6f74206861766520616e20656d70747920537472696e6720666f722074686520495046532048617368204b6579204465736372697074696f6e206f6620612053656c6c657221476976656e20495046532048617368206f66204974656d206973206e6f74206c697374656420617320616e204974656d20466f722053616c65206279207468652053656c6c6572215f736166654d6174684d756c7469706c79203a204d756c7469706c69636174696f6e204f766572666c6f77a165627a7a72305820b4604ad448b92403f106336fde6905db6733e91e2cd64490204d558c74ed63300029",
  "source": "pragma solidity >=0.4.22 <0.6.0;\r\n\r\nimport \"./GeneralUtilities.sol\";\r\nimport \"./FranklinDecentralizedMarketplaceMediation.sol\";\r\n\r\ncontract FranklinDecentralizedMarketplace {\r\n    using GeneralUtilities for *;\r\n    \r\n    // This Smart Contract serves as a Decentralized Marketplace of Buyers, Sellers, and Mediators. \r\n\r\n    // The Contract code had to be split in two, because the Etherum Virtual Machine (EVM) would not allow deployment of a Contract\r\n    // that has more than 24576 bytes. So, the decision was made to SPLIT the code into the FranklinDecentralizedMarketplace \r\n    // and FranklinDecentralizedMarketplaceMediation Contracts. \r\n    //\r\n    // So, this FranklinDecentralizedMarketplace Contract handles most of the functionality pertaining to the Franklin Decentralized Marketplace Smart Contract functionality, while MOST of the\r\n    // functionality dealing with Mediated Sales Transactions is done by the FranklinDecentralizedMarketplaceMediation Smart Contract. \r\n    \r\n    // Each Item being sold in this Decentralized Marketplace is identified by it's IPFS (InterPlanetary File System) Hash. Information about each item being sold is in a JSON-formatted\r\n    // string stored in the IPFS (InterPlanetary File System) that may be accessed via the Infura IPFS Gateway URL. So, for example, let's say that an Item being sold by a Seller has an\r\n    // IPFS Hash of QmZ4DZ1spT2eQhUC5mfQGugM4AhLjq8ZvuZvHdQvnvKnHH. Then, the information about this Item may be seen in one of the following URLs:\r\n    // 1) https://ipfs.infura.io/ipfs/QmZ4DZ1spT2eQhUC5mfQGugM4AhLjq8ZvuZvHdQvnvKnHH\r\n    // 2) https://gateway.ipfs.io/ipfs/QmZ4DZ1spT2eQhUC5mfQGugM4AhLjq8ZvuZvHdQvnvKnH\r\n    \r\n    // Each Seller in this Decentralized Marketplace is identified by it's Ethereum Address, but should also have information about himself/herself that is in the \r\n    // IPFS (InterPlanetary File System) Hash. Information about each Seller is in a JSON-formatted\r\n    // string stored in the IPFS (InterPlanetary File System) that may be accessed via the Infura IPFS Gateway URL. So, for example, let's say that Seller has an\r\n    // IPFS Hash of QmZ4DZ1spT2eQhUC5mfQGugM4AhLjq8ZvuZvHdQvnvKnHH describing himself/herself. Then, the information about this Seller may be seen in one of the following URLs:\r\n    // 1) https://ipfs.infura.io/ipfs/QmZ4DZ1spT2eQhUC5mfQGugM4AhLjq8ZvuZvHdQvnvKnHH\r\n    // 2) https://gateway.ipfs.io/ipfs/QmZ4DZ1spT2eQhUC5mfQGugM4AhLjq8ZvuZvHdQvnvKnHH\r\n    \r\n    // Each Mediator in this Decentralized Marketplace is identified by it's Ethereum Address, but should also have information about himself/herself that is accessed  \r\n    // in the IPFS Stoarge Systemn via it's IPFS (InterPlanetary File System) Hash string key.\r\n    // Each Mediator in this Decentralized Marketplace is also identified by it's IPFS (InterPlanetary File System) Hash. Information about each Mediator is in a JSON-formatted\r\n    // string stored in the IPFS (InterPlanetary File System) that may be accessed via the Infura IPFS Gateway URL. So, for example, let's say that the Mediator has an\r\n    // IPFS Hash of QmZ4DZ1spT2eQhUC5mfQGugM4AhLjq8ZvuZvHdQvnvKnHH. Then, the information about this Mediator may be seen in one of the following URLs:\r\n    // 1) https://ipfs.infura.io/ipfs/QmZ4DZ1spT2eQhUC5mfQGugM4AhLjq8ZvuZvHdQvnvKnHH\r\n    // 2) https://gateway.ipfs.io/ipfs/QmZ4DZ1spT2eQhUC5mfQGugM4AhLjq8ZvuZvHdQvnvKnH\r\n    \r\n    // Each Mediated Sales Transaction in this Decentralized Marketplace is identified by it's IPFS (InterPlanetary File System) Hash. Information about each Mediated Sales Transaction \r\n    // is in a JSON-formatted string stored in the IPFS (InterPlanetary File System) that may be accessed via the Infura IPFS Gateway URL. So, for example, let's say that the \r\n    // Mediated Sales Transaction has an IPFS Hash of QmZ4DZ1spT2eQhUC5mfQGugM4AhLjq8ZvuZvHdQvnvKnHH. Then, the information about this Mediated Sales Transaction may be seen in one of \r\n    // the following URLs:\r\n    // 1) https://ipfs.infura.io/ipfs/QmZ4DZ1spT2eQhUC5mfQGugM4AhLjq8ZvuZvHdQvnvKnHH\r\n    // 2) https://gateway.ipfs.io/ipfs/QmZ4DZ1spT2eQhUC5mfQGugM4AhLjq8ZvuZvHdQvnvKnH\r\n    \r\n    // WARNING! Befor a Seller places infomation about himself/herself in this Smart Contract, the Seller must first have at least one Item placed For Sale.\r\n    \r\n    // WARNING!! It is the responsibility of the Users of this Smart Contract to enter valid IPFS Hash String values for each of the Items Sold and of the Seller's Description!\r\n    \r\n    // Constants used for the Double-Linked list and other uses.\r\n    bool constant private PREV = false;\r\n    bool constant private NEXT = true;\r\n    string constant private EMPTY_STRING = \"\";\r\n    string constant private UNDER_SCORE_STRING = \"_\";\r\n    \r\n    // This is the price of all specific Items being sold y Sellers identified by their Ethereum Address in Wei.\r\n    // The price is on a per-Item basis for one Item.\r\n    //\r\n    // Mapping is as follows:\r\n    // 1) Key: Concatenation of Ethereum Address of Seller followed by IPFS Hash of Item being sold with an UNDER_SCORE_STRING in between.\r\n    // 2) Value: Price of item being sold in Wei.\r\n    //\r\n    // Only the Seller may change or set the price of an Item.\r\n    // The Seller is identified by an Ethereum Address.\r\n    mapping(string => uint) private pricesOfItems;\r\n    \r\n    // This is the quantity of each Item that is being sold by a Seller. Thus, for each Item that is being sold their is a certain number of such items available for sale.\r\n    // \r\n    // Mapping is as follows:\r\n    // 1) Key: Concatenation of Ethereum Address of Seller followed by IPFS Hash of Item being sold with an UNDER_SCORE_STRING in between.\r\n    // 2) Value: Quanity available to be sold for the Item.\r\n    //\r\n    // Only the Seller may change or set the quantity of the item that is available for sale..\r\n    // The Seller is identified by an Ethereum Address.\r\n    mapping(string => uint) private quantityAvailableForSaleOfEachItem; \r\n    \r\n    // This is all the Items being sold on a per-seller basis where each seller is identified by it's Ethereum Address. The \"mapping(string => mapping(bool => string))\" is a\r\n    // double-linked list used to maintain such a list of Items for a seller. The reason for using a double-linked list over an array is that it's difficult to delete items of an array\r\n    // and still map back the Item to the Seller; use of arrays to maintain a dynamic list leads to having the array grow forever. Use of below technique solves this problem via use of \"delete\"\r\n    // on a \"mapping\" where such a resource does get deleted. Use of Double-Linked list technique explained and code borrowed from the \r\n    // https://ethereum.stackexchange.com/questions/15337/can-we-get-all-elements-stored-in-a-mapping-in-the-contract web page.\r\n    //\r\n    // For an explanation as to how the \"mapping(string => mapping(bool => string))\" double linked-list works and the code pertaining to it from which was borrowed, please go to the\r\n    // https://ethereum.stackexchange.com/questions/15337/can-we-get-all-elements-stored-in-a-mapping-in-the-contract web page.\r\n    //\r\n    // Mapping is as follows:\r\n    // 1) First Key: Ethereum Address of the Seller\r\n    // 2) First Value: The \"mapping(string => mapping(bool => string))\" double-linked list consisting of the IPFS Hashes of the various Items the Seller is selling. Each \"string\" in this mapping is\r\n    //    either an empty string or the IPFS Hash of an Item being sold by the Seller. The \"bool\" is either the PREV or NEXT boolean value above.\r\n    mapping(address => mapping(string => mapping(bool => string)) ) private itemsBeingSoldBySpecificSeller;\r\n    \r\n    // Used strictly to determine if an Item being sold by a Seller is in it's \"itemsBeingSoldBySpecificSeller\" double-linked list.\r\n    //\r\n    // Mapping is as follows:\r\n    // 1) Key: Concatenation of Ethereum Address of Seller followed by IPFS Hash of Item being sold with an UNDER_SCORE_STRING in between.\r\n    // 2) Value: Boolean value indicating if the Item is in the \"itemsBeingSoldBySpecificSeller\" double-linked list of the Seller.\r\n    mapping(string => bool) private itemsKeysMap;\r\n    \r\n    // Used to determine the number of Items being sold by a Seller. This is NOT the quantity being sold for each Item, but the number of different types of Items.\r\n    // It contains the number of Items in the seller's \"mapping(string => mapping(bool => string))\" double-linked list of the \"itemsBeingSoldBySpecificSeller\" mapping.\r\n    //\r\n    // Mapping is as follows:\r\n    // 1) Key: Ethereum Address of the Seller.\r\n    // 2) Value: Number of different types of Items being sold that is in the Seller's  \"mapping(string => mapping(bool => string))\" double-linked list of the \r\n    //    \"itemsBeingSoldBySpecificSeller\" mapping.\r\n    mapping(address => uint) private numberOfDifferentItemsBeingSoldBySellerMap;\r\n    \r\n    // A double-linked list that lists all the Sellers by their Ethereum Address in string format.\r\n    //\r\n    // For an explanation as to how the \"mapping(string => mapping(bool => string))\" double linked-list works and the code pertaining to it from which was borrowed, please go to the\r\n    // https://ethereum.stackexchange.com/questions/15337/can-we-get-all-elements-stored-in-a-mapping-in-the-contract web page.\r\n    //\r\n    // Each \"string\" below refers to the Ethereum Address of the Seller in string format.\r\n    mapping(string => mapping(bool => string)) private listOfSellers; \r\n    \r\n    // Map that keeps track of whether a Seller exists. The \"address\" key is the Ethereum Address of the Seller.\r\n    mapping(address => bool) private sellerExistsMap;\r\n    \r\n    // Keeps a count on the Number of Sellers selling on this platform.\r\n    uint private numberOfSellers; \r\n    \r\n    // This Mapping contains the Description Information about the Sellers. The Seller is responsible for adding this information.\r\n    // A Seller must first have in it's \"itemsBeingSoldBySpecificSeller\" double-linked list at least one Item to sell BEFORE being able to add Information about\r\n    // about himself/herself. The IPFS Hash string should refer to a JSON-formatted string describing the seller in the IPFS Storage System.\r\n    //\r\n    // Mapping is as follows:\r\n    // 1) Key: Ethereum Address of the Seller\r\n    // 2) Value: IPFS Hash string of the information pertaining to the Seller. This information is stored in the IPFS Storage Network.\r\n    mapping(address => string) private descriptionInfoAboutSellers;\r\n    \r\n    // This Mapping is used to determine if a Seller is willing to sell his/her Items via the use of a Mediator. The Mediator is used to determine that BOTH parties are BOTH satisfied with the \r\n    // Sale of the Item. One iten of contention is that the Buyer actualy got the Item he/she purchased. \r\n    // In these types of Sales involving a Mediator, two out of the three parties - Buyer, Seller, and/or Mediator - must approve the sale transaction BEFORE the ETH is sent to the Seller.\r\n    // In such cases involving a Mediator, the Buyer's ETH is not sent to the Seller, but sent to this Smart Contract. Once two out of the three parties gives the OK for the Sale, then 95% of the\r\n    // Sales Price of the Item goes to the Seller and 5% goes to the Mediator.\r\n    //\r\n    // The \"key\" is the Ethereum Seller Address and the value is a boolen. If the Seller is willing to sell via a Mediator, then this value if boolean true. \r\n    // If the Seller is NOT willing to sell via a Mediator, then this value if boolean false.\r\n    mapping(address => bool) private sellerWillingToSellItemsViaMediator;\r\n    \r\n    // Refers to the instance of the FranklinDecentralizedMarketplaceMediation Contract that was set by the Contract Owner via the \"setFranklinDecentralizedMarketplaceMediationContract\" method.\r\n    //\r\n    // The Contract code had to be split in two, because the Etherum Virtual Machine (EVM) would not allow deployment of a Contract\r\n    // that has more than 24576 bytes. So, the decision was made to SPLIT the code into the FranklinDecentralizedMarketplace \r\n    // and FranklinDecentralizedMarketplaceMediation Contracts where the FranklinDecentralizedMarketplace would deploy the\r\n    // FranklinDecentralizedMarketplaceMediation Contract via it's Constructor. \r\n    //\r\n    // So, this FranklinDecentralizedMarketplace Contract handles most of the functionality pertaining to the Franklin Decentralized Marketplace Smart Contract functionality, while MOST of the\r\n    // functionality dealing with Mediated Sales Transactions is done by the FranklinDecentralizedMarketplaceMediation Smart Contract.\r\n    FranklinDecentralizedMarketplaceMediation public mediationMarketplace;\r\n    bool public mediationMarketplaceHasBeenSet;\r\n    address public contractOwner;\r\n    \r\n    // event SetSellerWillingToSellItemsViaMediatorEvent(address _msgSender, bool _flag);\r\n    // event AddOrUpdateSellerDescriptionEvent(address _msgSender, string _ipfsHashKeyDescription);\r\n    // event RemoveSellerAndItsItems(address _msgSender);\r\n    // event SetPriceOfItemEvent(address _msgSender, string _keyItemIpfsHash, uint _priceInWei);\r\n    // event SetQuantityAvailableForSaleOfAnItem(address _msgSender, string _keyItemIpfsHash, uint _quantity);\r\n    event PurchaseItemWithoutMediatorEvent(address _msgSender, address payable _sellerAddress, string _keyItemIpfsHash, uint _quantity);\r\n    event AddItemForSaleAndPossiblySeller(address _msgSender, string _keyItemIpfsHash);\r\n    event RemoveItemForSaleAndPossibleSeller(address _msgSender, string _keyItemIpfsHash);    \r\n    \r\n    constructor() public {\r\n        contractOwner = msg.sender;\r\n    }\r\n    \r\n    function setFranklinDecentralizedMarketplaceMediationContract(address franklinDecentralizedMarketplaceMediationAddress) public {\r\n        require(msg.sender == contractOwner, \"This method may only be executed by the Contract Owner!\");\r\n        require(!mediationMarketplaceHasBeenSet, \"The mediationMarkeplace contract reference has already been set!\");\r\n        \r\n        FranklinDecentralizedMarketplaceMediation temp = FranklinDecentralizedMarketplaceMediation(franklinDecentralizedMarketplaceMediationAddress);\r\n        require(contractOwner == temp.contractOwner(), \"Must be same Contract Owner in both the FranklinDecentralizedMarketplace and FranklinDecentralizedMarketplaceMediation contracts!\");\r\n        \r\n        mediationMarketplace = temp;\r\n        mediationMarketplaceHasBeenSet = true;\r\n    }\r\n    \r\n    // Determines if a Seller with the given \"_sellerAddress\" is willing to make sales of it's Items via a Mediator. \r\n    // A return of boolean false indicates that the Seller is NOT willing to sell his/her items via a Mediator. \r\n    // A return of boolean true indicates that the Seller IS willing to sell his/her items via a Mediator.\r\n    function sellerIsWillingToSellItemsViaMediator(address _sellerAddress) external view returns (bool) {\r\n        return sellerWillingToSellItemsViaMediator[_sellerAddress];\r\n    }\r\n    \r\n    // This function allows a Seller to set into this Smart Contract whether he/she is willing to sell his/her Items via the use of a Mediator.\r\n    // The Seller in this function is the \"msg.sender\".\r\n    //\r\n    // A \"_flag\" value of boolean true, indicates that the Seller IS willing to make sales via a Mediator.\r\n    // A \"_flag\" value of boolean false, indicates that the Seller is NOT willing to make sales via a Mediator.\r\n    function setSellerWillingToSellItemsViaMediator(bool _flag) external {\r\n        if (!sellerExistsMap[msg.sender]) {\r\n            return;\r\n        }\r\n        \r\n        sellerWillingToSellItemsViaMediator[msg.sender] = _flag;\r\n        // emit SetSellerWillingToSellItemsViaMediatorEvent(msg.sender, _flag);\r\n    }\r\n    \r\n    // This method allows a Seller to add/update a Description about himself/herself feeding in the \"_ipfsHashKeyDescription\" that should point to a JSON-formatted string in the IPFS Storage System.\r\n    // The \"msg.sender\" is the Seller.\r\n    function addOrUpdateSellerDescription(string memory _ipfsHashKeyDescription) public {\r\n        require(numberOfDifferentItemsBeingSoldBySellerMap[msg.sender] > 0, \"You must first add at least ONE Item For Sale before adding a description of yourself!\");\r\n        require(!GeneralUtilities._compareStringsEqual(_ipfsHashKeyDescription, EMPTY_STRING), \"Cannot have an empty String for the IPFS Hash Key Description of a Seller!\");\r\n        \r\n        descriptionInfoAboutSellers[msg.sender] = _ipfsHashKeyDescription;\r\n        // emit AddOrUpdateSellerDescriptionEvent(msg.sender, _ipfsHashKeyDescription);\r\n    }\r\n    \r\n    // Gets the Description of a Seller identified by the given \"_sellerAddress\". The Description will be the IPFS Hash where the JSON-formatted Description of the Seller exists.\r\n    // If no such IPFS Hash Key Description exists, then an EMPTY_STRING will be returned.\r\n    function getSellerIpfsHashDescription(address _sellerAddress) external view returns (string memory) {\r\n        return descriptionInfoAboutSellers[_sellerAddress];\r\n    }\r\n    \r\n    // Adds a Seller - identified by it's Ethereum Address - to the \"listOfSellers\" double-linked list.\r\n    //\r\n    // Source --> https://ethereum.stackexchange.com/questions/15337/can-we-get-all-elements-stored-in-a-mapping-in-the-contract\r\n    function _addSeller(address _sellerAddress) private {\r\n        string memory sellerAddressStringKey = GeneralUtilities._addressToString(_sellerAddress);\r\n        \r\n        // Will not bother to check for valid \"address\", because Ethereum Virtual Machine does that for us automatically and will just throw an Error that caller of this \r\n        // method will have to catch.\r\n        \r\n        if (sellerExistsMap[_sellerAddress]) {\r\n            return;\r\n        }\r\n        \r\n        // Link the new node \r\n        listOfSellers[sellerAddressStringKey][PREV] = EMPTY_STRING;\r\n        listOfSellers[sellerAddressStringKey][NEXT] = listOfSellers[EMPTY_STRING][NEXT];\r\n    \r\n        // Insert the new node\r\n        listOfSellers[listOfSellers[EMPTY_STRING][NEXT]][PREV] = sellerAddressStringKey;\r\n        listOfSellers[EMPTY_STRING][NEXT] = sellerAddressStringKey;\r\n    \r\n        numberOfSellers = GeneralUtilities._safeMathAdd(numberOfSellers, 1);\r\n        sellerExistsMap[_sellerAddress] = true;\r\n    }\r\n    \r\n    // Removes a Seller - identified by it's Ethereum Address - from the \"listOfSellers\" double-linked list.\r\n    //\r\n    // No need to check for empty string on returned Ethereum Address string, because if the \"_sellerAddress\" is an invalid Ethereum Address, then Ethereum Virtual Machine will\r\n    // throw an Error. Caller of this method will have to check if an Error was thrown.\r\n    // \r\n    // Source --> https://ethereum.stackexchange.com/questions/15337/can-we-get-all-elements-stored-in-a-mapping-in-the-contract\r\n    function _removeSeller(address _sellerAddress) private {\r\n        string memory sellerAddressStringKey = GeneralUtilities._addressToString(_sellerAddress);\r\n        \r\n        if (!sellerExistsMap[_sellerAddress]) {\r\n            return;\r\n        }\r\n        \r\n        // Stitch the neighbours together\r\n        listOfSellers[ listOfSellers[sellerAddressStringKey][PREV] ][NEXT] = listOfSellers[sellerAddressStringKey][NEXT];\r\n        listOfSellers[ listOfSellers[sellerAddressStringKey][NEXT] ][PREV] = listOfSellers[sellerAddressStringKey][PREV];\r\n    \r\n        // Delete state storage\r\n        delete listOfSellers[sellerAddressStringKey][PREV];\r\n        delete listOfSellers[sellerAddressStringKey][NEXT];\r\n        \r\n        numberOfSellers = GeneralUtilities._safeMathSubtract(numberOfSellers, 1);\r\n        delete sellerExistsMap[_sellerAddress];\r\n        delete sellerWillingToSellItemsViaMediator[_sellerAddress];\r\n        \r\n        // Decided to NOT delete this information, because a Seller may be involved in a Mediator type of Sale, and we still wish to keep information \r\n        // about the Seller.\r\n        // delete descriptionInfoAboutSellers[_sellerAddress];\r\n    }\r\n    \r\n    // Allows a Seller to remove himself/herself from the \"listOfSellers\". The Seller to be removed is the \"msg.sender\" Ethereum Address that calls this method. \r\n    // Not only will the Seller be removed but also ALL of the Items assovciated with this \"msg.sender\" Seller.\r\n    function removeSeller() external {\r\n        uint numberOfDifferentItemsBeingSoldBySeller = numberOfDifferentItemsBeingSoldBySellerMap[msg.sender];\r\n        \r\n        // We have to first get ALL of the IPFS Key Hashes of the Items for Sale, because the Indexes will change as we delete the Items.\r\n        string[] memory itemsForSale = new string[](numberOfDifferentItemsBeingSoldBySeller);\r\n        for (uint itemIndex = 0; itemIndex < numberOfDifferentItemsBeingSoldBySeller; itemIndex++) {\r\n            string memory itemForSale = getItemForSale(msg.sender, itemIndex);\r\n            itemsForSale[itemIndex] = itemForSale;\r\n        }\r\n        \r\n        // Then we delete step-by-step.\r\n        for (uint i = 0; i < numberOfDifferentItemsBeingSoldBySeller; i++) {\r\n            removeItemForSale(itemsForSale[i]);\r\n        }\r\n        \r\n        // The Seller \"msg.sender\" will be automatically removed from the \"listOfSellers\" when the last Item it has For Sale is removed.\r\n        // emit RemoveSellerAndItsItems(msg.sender);\r\n    }\r\n    \r\n    // Gets the Seller Ethereum Address at the given \"_index\" from the \"listOfSellers\" double-linked list.\r\n    //\r\n    // Input Parameter:\r\n    // _itemIndex : Index number into the \"listOfSellers\" double-linked list of Items Seller is selling.\r\n    //              Index starts at 0.\r\n    //\r\n    // Returns:\r\n    // 1) If the \"_index\" is less than the \"numberOfSellers\", then the Etheruem Address of the Seller at the given \"_index\" into the \"listOfSellers\" double-linked list\r\n    //    is returned.\r\n    // 2) If the \"_index\" is greater than or equal to the \"numberOfSellers\", then an Exception is thrown via the \"require\" below.\r\n    function getSellerAddress(uint _index) external view returns (address) {\r\n        require(_index < numberOfSellers, \"Index value given is greater than or equal to the Number of Sellers! It should be less than the Number of Sellers!\");\r\n        \r\n        // The \"key\" below is the Ethereum Address in string format that is in the \"listOfSellers\" double-linked list.\r\n        \r\n        uint keyCount = 0;\r\n        string memory key = EMPTY_STRING;\r\n        while (true) {\r\n            key = listOfSellers[key][NEXT];\r\n            if (keyCount == _index) {\r\n                break;\r\n            }\r\n        \r\n            keyCount++;\r\n        }\r\n        \r\n        return GeneralUtilities._parseEthereumAddressStringToAddress(key);    \r\n    }\r\n    \r\n    // Returns back a boolean value to determine if the given \"_sellerAddres\" is in the \"listOfSellers\".\r\n    function sellerExists(address _sellerAddress) external view returns (bool) {\r\n        return sellerExistsMap[_sellerAddress];\r\n    }\r\n    \r\n    // Returns back the Number of Sellers in this Decentralized Marketplace.\r\n    function getNumberOfSellers() external view returns (uint) {\r\n        return numberOfSellers;\r\n    }\r\n    \r\n    // Allows a Seller to set the Price of an Item the Seller is selling in Wei. The Seller would be the \"msg.sender\" Ethereum Address that calls this method.\r\n    //\r\n    // Input Parameters:\r\n    // 1) _keyItemIpfsHash : This is the IPFS Hash of the item being sold that points to a JSON-formatted string in the IPFS Storage System.\r\n    // 2) _priceInWei : Price of the Item to be set in Wei \r\n    // 3) msg.sender : Ethereum Address of the Seller\r\n    //\r\n    // If the Seller sets the Price of the Item to Zero (i.e., 0) Wei, then that means that the Item is set to a State where it cannot be purchased.\r\n    //\r\n    // If the Item in questions does not exist as an Item for Sale under the \"msg.sender\" Seller of if the \"msg.sender\" is not a Seller, then no setting of a price \r\n    // gets done.\r\n    function setPriceOfItem(string memory _keyItemIpfsHash, uint _priceInWei) public {\r\n        require(!GeneralUtilities._compareStringsEqual(_keyItemIpfsHash, EMPTY_STRING), \"Cannot have an empty String for the IPFS Hash Key of an Item to Sell!\");\r\n        \r\n        // I was thinking of not allowing the Seller to set the Price of an Itemn to Zero wei, but then I changed my mind. The Seller may have a situation where he/she has \r\n        // the Item in stock, but does not wish to sell the Item yet.\r\n        // require(_priceInWei > 0, \"Cannot set the Price of an Item to Zero Wei!\");\r\n        \r\n        string memory combinedKeyAddressPlusItemIpfsHash = GeneralUtilities._getConcatenationOfEthereumAddressAndIpfsHash(msg.sender, _keyItemIpfsHash);\r\n        require(itemsKeysMap[combinedKeyAddressPlusItemIpfsHash], \"Given IPFS Hash of Item is not listed as an Item For Sale by the Seller!\");\r\n        \r\n        pricesOfItems[combinedKeyAddressPlusItemIpfsHash] = _priceInWei;\r\n        // emit SetPriceOfItemEvent(msg.sender, _keyItemIpfsHash, _priceInWei);\r\n    }\r\n    \r\n    // Gets the Price (in Wei) of an Item - identified by the given \"_keyItemIpfsHash\" input parameter - being sold by a \r\n    // Seller - identified by the given \"_sellerAddress\" Etherum Address.\r\n    //\r\n    // A return value of Zero (i.e., 0) Wei indicates that the Seller has not yet set a Price for this Item, and thus the Item cannot be purchased\r\n    function getPriceOfItem(address _sellerAddress, string memory _keyItemIpfsHash) public view returns (uint) {\r\n        string memory combinedKeyAddressPlusItemIpfsHash = GeneralUtilities._getConcatenationOfEthereumAddressAndIpfsHash(_sellerAddress, _keyItemIpfsHash);\r\n        require(itemsKeysMap[combinedKeyAddressPlusItemIpfsHash], \"Given IPFS Hash of Item is not listed as an Item For Sale from the Seller!\");\r\n        \r\n        return pricesOfItems[combinedKeyAddressPlusItemIpfsHash];\r\n    }\r\n    \r\n    // Allows a Seller to set the Quantity available for Sale of an Item that a Seller is selling. The Seller would be the \"msg.sender\" Ethereum Address that calls this method.\r\n    //\r\n    // Input Parameters:\r\n    // 1) _keyItemIpfsHash : This is the IPFS Hash of the item being sold that points to a JSON-formatted string in the IPFS Storage System.\r\n    // 2) _quantity : The quantity available For Sale of the Item that the Seller is selling.   \r\n    // 3) msg.sender : Ethereum Address of the Seller\r\n    function setQuantityAvailableForSaleOfAnItem(string memory _keyItemIpfsHash, uint _quantity) public {\r\n        require(!GeneralUtilities._compareStringsEqual(_keyItemIpfsHash, EMPTY_STRING), \"Cannot have an empty String for the IPFS Hash Key of an Item to Sell!\");\r\n        \r\n        string memory combinedKeyAddressPlusItemIpfsHash = GeneralUtilities._getConcatenationOfEthereumAddressAndIpfsHash(msg.sender, _keyItemIpfsHash);\r\n        require(itemsKeysMap[combinedKeyAddressPlusItemIpfsHash], \"Given IPFS Hash of Item is not listed as an Item For Sale by the Seller!\");\r\n        \r\n        quantityAvailableForSaleOfEachItem[combinedKeyAddressPlusItemIpfsHash] = _quantity;\r\n        // emit SetQuantityAvailableForSaleOfAnItem(msg.sender, _keyItemIpfsHash, _quantity);\r\n    }\r\n    \r\n    // Does same functionality as above method, but may ONLY be executed by the \"mediationMarketplace\" Contract.\r\n    function setQuantityAvailableForSaleOfAnItem_v2(address _sellerAddress, string memory _keyItemIpfsHash, uint _quantity) public {\r\n        require(mediationMarketplaceHasBeenSet, \"The mediationMarketplace instance has not been set by the Contract Owner!\");\r\n        require(!GeneralUtilities._compareStringsEqual(_keyItemIpfsHash, EMPTY_STRING), \"Cannot have an empty String for the IPFS Hash Key of an Item to Sell!\");\r\n        \r\n        string memory combinedKeyAddressPlusItemIpfsHash = GeneralUtilities._getConcatenationOfEthereumAddressAndIpfsHash(_sellerAddress, _keyItemIpfsHash);\r\n        require(itemsKeysMap[combinedKeyAddressPlusItemIpfsHash], \"Given IPFS Hash of Item is not listed as an Item For Sale by the Seller!\");\r\n        \r\n        require(msg.sender == address(mediationMarketplace), \"This method may only be executed by the FranklinDecentralizedMarketplaceMediation contract!\");\r\n        \r\n        quantityAvailableForSaleOfEachItem[combinedKeyAddressPlusItemIpfsHash] = _quantity;\r\n        // emit SetQuantityAvailableForSaleOfAnItem(msg.sender, _keyItemIpfsHash, _quantity);\r\n    }\r\n    \r\n    // Gets the Quantity of the given \"_keyItemIpfsHash\" Item available For sale by the given \"_sellerAddress\" Seller.\r\n    //\r\n    // Input Parameters:\r\n    // 1) _sellerAddress : Ethreum Address of the Seller\r\n    // 2) _keyItemIpfsHash : This is the IPFS Hash of the item being sold that points to a JSON-formatted string in the IPFS Storage System.\r\n    function getQuantityAvailableForSaleOfAnItemBySeller(address _sellerAddress, string memory _keyItemIpfsHash) public view returns (uint) {\r\n        string memory combinedKeyAddressPlusItemIpfsHash = GeneralUtilities._getConcatenationOfEthereumAddressAndIpfsHash(_sellerAddress, _keyItemIpfsHash);\r\n        require(itemsKeysMap[combinedKeyAddressPlusItemIpfsHash], \"Given IPFS Hash of Item is not listed as an Item For Sale from the Seller!\");\r\n        \r\n        return quantityAvailableForSaleOfEachItem[combinedKeyAddressPlusItemIpfsHash];\r\n    }\r\n    \r\n    // Allows a Buyer - identified by the \"msg.sender\" Ethereum Address that calls this method - to purchase a \"_quantity\" of a specific Item - identified \r\n    // by it's \"_keyItemIpfsHash\" - from a given Seller - identified by it's \"_sellerAddress\" Ethereum Address.\r\n    //\r\n    // The Buyer is assuming the risk here in that the Buyer is expecting the Seller to be honest enough to send to the Buyer the quantity of Items \r\n    // in the purchase to the Buyer after the Seller receives the payment.\r\n    //\r\n    // Input Parameters:\r\n    // 1) _sellerAddress : Ethereum Address of the Seller\r\n    // 2) _keyItemIpfsHash : This is the IPFS Hash of the item being sold that points to a JSON-formatted string in the IPFS Storage System\r\n    // 3) _quantity : Quantity of the Item that the \"msg.sender\" Buyer wishes to purchase.\r\n    // 4) msg.sender :  Address of the Buyer\r\n    function purchaseItemWithoutMediator(address payable _sellerAddress, string memory _keyItemIpfsHash, uint _quantity) payable public {\r\n        require(_quantity > 0, \"Must purchase at least 1 quantity of the Item for Sale to happen!\");\r\n        require(!GeneralUtilities._compareStringsEqual(_keyItemIpfsHash, EMPTY_STRING), \"Cannot have an empty String for the IPFS Hash Key of an Item you are purchasing!\");\r\n        require(msg.sender != _sellerAddress, \"The Buyer Address cannot be the same as the Seller Address!\");\r\n        \r\n        require(sellerExistsMap[_sellerAddress], \"Given Seller Address does not exist as a Seller!\");\r\n        \r\n        string memory combinedKeyAddressPlusItemIpfsHash = GeneralUtilities._getConcatenationOfEthereumAddressAndIpfsHash(_sellerAddress, _keyItemIpfsHash);\r\n        require(itemsKeysMap[combinedKeyAddressPlusItemIpfsHash], \"Given IPFS Hash of Item is not listed as an Item For Sale from the Seller!\");\r\n        \r\n        require(quantityAvailableForSaleOfEachItem[combinedKeyAddressPlusItemIpfsHash] > 0, \"Seller has Zero quantity available for Sale for the Item requested to purchase!\");\r\n        require(quantityAvailableForSaleOfEachItem[combinedKeyAddressPlusItemIpfsHash] >= _quantity, \r\n            \"Quantity available For Sale of the Item from the Seller is less than the quantity requested to purchase! Not enough of the Itenm available For Sale\");\r\n        \r\n        require(pricesOfItems[combinedKeyAddressPlusItemIpfsHash] > 0, \"The Seller has not yet set a Price for Sale for the requested Item! Cannot purchase the Item!\"); \r\n        \r\n        uint totalAmountOfWeiNeededToPurchase = GeneralUtilities._safeMathMultiply(pricesOfItems[combinedKeyAddressPlusItemIpfsHash], _quantity);\r\n        require(msg.value >= totalAmountOfWeiNeededToPurchase, \"Not enough ETH was sent to purchase the quantity requested of the Item!\");\r\n        \r\n        // Subtract the appropriate \"_quantity\" of that Item for Sale to keep track of the new available quauntity of that Item that may be sold.\r\n        quantityAvailableForSaleOfEachItem[combinedKeyAddressPlusItemIpfsHash] = \r\n            GeneralUtilities._safeMathSubtract(quantityAvailableForSaleOfEachItem[combinedKeyAddressPlusItemIpfsHash], _quantity);\r\n        \r\n        // We want to make sure to return back any excess ETH that exceeds the amount necessary to purchase the given \"_quantity\" of the Item.\r\n        msg.sender.transfer(msg.value - totalAmountOfWeiNeededToPurchase);\r\n        \r\n        // Transfer the \"totalAmountOfWeiNeededToPurchase\" to the Seller.\r\n        _sellerAddress.transfer(totalAmountOfWeiNeededToPurchase);\r\n        \r\n        emit PurchaseItemWithoutMediatorEvent(msg.sender, _sellerAddress, _keyItemIpfsHash, _quantity);\r\n    }\r\n    \r\n    // Adds an Item - identified by the given \"_keyItemIpfsHash\" input - to be Sold by a Seller to it's \"itemsBeingSoldBySpecificSeller\" double-linked list. \r\n    // The Seller in this function call is the \"msg.sender\" Ethereum Address that calls this function. Also, this causes the \"msg.sender\" Seller to be added in the \"listOfSellers\". \r\n    //\r\n    // Source --> https://ethereum.stackexchange.com/questions/15337/can-we-get-all-elements-stored-in-a-mapping-in-the-contract\r\n    function addItemForSale(string memory _keyItemIpfsHash) public {\r\n        require(!GeneralUtilities._compareStringsEqual(_keyItemIpfsHash, EMPTY_STRING), \"Cannot have an empty String for the IPFS Hash Key of an Item to Sell!\");\r\n        \r\n        string memory combinedKeyAddressPlusItemIpfsHash = GeneralUtilities._getConcatenationOfEthereumAddressAndIpfsHash(msg.sender, _keyItemIpfsHash);\r\n        \r\n        // If the specific type of Item is already in the list of Items that the Seller is selling, then no need to add the Item, because it's already there.\r\n        if (itemsKeysMap[combinedKeyAddressPlusItemIpfsHash]) {\r\n            return;\r\n        }\r\n        \r\n        // This below is the double-linked list of different types of Items being sold by a Seller.\r\n        mapping(string => mapping(bool => string)) storage itemsBeingSoldBySenderAddress = itemsBeingSoldBySpecificSeller[msg.sender];\r\n        \r\n        // Link the new node \r\n        itemsBeingSoldBySenderAddress[_keyItemIpfsHash][PREV] = EMPTY_STRING;\r\n        itemsBeingSoldBySenderAddress[_keyItemIpfsHash][NEXT] = itemsBeingSoldBySenderAddress[EMPTY_STRING][NEXT];\r\n    \r\n        // Insert the new node\r\n        itemsBeingSoldBySenderAddress[itemsBeingSoldBySenderAddress[EMPTY_STRING][NEXT]][PREV] = _keyItemIpfsHash;\r\n        itemsBeingSoldBySenderAddress[EMPTY_STRING][NEXT] = _keyItemIpfsHash;\r\n        \r\n        numberOfDifferentItemsBeingSoldBySellerMap[msg.sender] = GeneralUtilities._safeMathAdd(numberOfDifferentItemsBeingSoldBySellerMap[msg.sender], 1);\r\n        itemsKeysMap[combinedKeyAddressPlusItemIpfsHash] = true;\r\n        \r\n        _addSeller(msg.sender); // No seller added if Seller already exists.\r\n        \r\n        emit AddItemForSaleAndPossiblySeller(msg.sender, _keyItemIpfsHash);\r\n    }\r\n    \r\n    // Removes an Item - identified by the given \"_keyItemIpfsHash\" input - being Sold by a Seller in it's \"itemsBeingSoldBySpecificSeller\" double-linked list. \r\n    // The Seller in this function call is the \"msg.sender\" \r\n    // Ethereum Address that calls this function.\r\n    //\r\n    // WARNING! If this method causes removing the last Item for Sale, the Seller (i.e., the \"msg.sender\") will be removed from the \"listOfSellers\". \r\n    //\r\n    // Source --> https://ethereum.stackexchange.com/questions/15337/can-we-get-all-elements-stored-in-a-mapping-in-the-contract\r\n    function removeItemForSale(string memory _keyItemIpfsHash) public {\r\n        string memory combinedKeyAddressPlusItemIpfsHash = GeneralUtilities._getConcatenationOfEthereumAddressAndIpfsHash(msg.sender, _keyItemIpfsHash);\r\n        \r\n        if (!itemsKeysMap[combinedKeyAddressPlusItemIpfsHash]) {\r\n            return;\r\n        }\r\n        \r\n        // This below is the double-linked list of different types of Items being sold by a Seller.\r\n        mapping(string => mapping(bool => string)) storage itemsBeingSoldBySenderAddress = itemsBeingSoldBySpecificSeller[msg.sender];\r\n        \r\n        // Stitch the neighbours together\r\n        itemsBeingSoldBySenderAddress[ itemsBeingSoldBySenderAddress[_keyItemIpfsHash][PREV] ][NEXT] = itemsBeingSoldBySenderAddress[_keyItemIpfsHash][NEXT];\r\n        itemsBeingSoldBySenderAddress[ itemsBeingSoldBySenderAddress[_keyItemIpfsHash][NEXT] ][PREV] = itemsBeingSoldBySenderAddress[_keyItemIpfsHash][PREV];\r\n    \r\n        // Delete state storage\r\n        delete itemsBeingSoldBySenderAddress[_keyItemIpfsHash][PREV];\r\n        delete itemsBeingSoldBySenderAddress[_keyItemIpfsHash][NEXT];\r\n    \r\n        numberOfDifferentItemsBeingSoldBySellerMap[msg.sender] = GeneralUtilities._safeMathSubtract(numberOfDifferentItemsBeingSoldBySellerMap[msg.sender], 1);\r\n        delete itemsKeysMap[combinedKeyAddressPlusItemIpfsHash];\r\n        delete pricesOfItems[combinedKeyAddressPlusItemIpfsHash];\r\n        delete quantityAvailableForSaleOfEachItem[combinedKeyAddressPlusItemIpfsHash];\r\n        \r\n        if (numberOfDifferentItemsBeingSoldBySellerMap[msg.sender] == 0) {\r\n            _removeSeller(msg.sender);\r\n        }\r\n        \r\n        emit RemoveItemForSaleAndPossibleSeller(msg.sender, _keyItemIpfsHash);\r\n    }\r\n    \r\n    // Gets the number of different types of Items being sold by a Seller. Each Seller shall have a unique Ethereum Address that will be used to identify\r\n    // the Seller.\r\n    function getNumberOfDifferentItemsBeingSoldBySeller(address _sellerAddress) external view returns (uint) {\r\n        return numberOfDifferentItemsBeingSoldBySellerMap[_sellerAddress];\r\n    }\r\n\r\n    // Returns back a boolean value indicating if a certain Item is available for sale from a given Seller.\r\n    //\r\n    // Input Parameters:\r\n    // 1) _sellerAddress : The Ethereum Address of the Seller\r\n    // 2) _keyItemIpfsHash : The IPFS Hash ID string identifying an Item For Sale\r\n    //\r\n    // Returns:\r\n    // 1) Boolean true : If the given \"_sellerAddress\" is selling the given Item identified by it's \"_keyItemIpfsHash\"\r\n    // 2) Boolean false : If the given \"_sellerAddress\" is NOT selling the given Item identified by it's \"_keyItemIpfsHash\"\r\n    function itemForSaleFromSellerExists(address _sellerAddress, string memory _keyItemIpfsHash) public view returns (bool) {\r\n        string memory combinedKeyAddressPlusItemIpfsHash = GeneralUtilities._getConcatenationOfEthereumAddressAndIpfsHash(_sellerAddress, _keyItemIpfsHash);\r\n        return itemsKeysMap[combinedKeyAddressPlusItemIpfsHash];\r\n    }\r\n\r\n    // Gets the IPFS Hash string of an Item being sold by a Seller. Index values start at 0.\r\n    //\r\n    // This IPFS Hash string refers to a JSON-formatted string that is stored in the IPFS Storage System.\r\n    //\r\n    // Input Parameters:\r\n    // 1) _sellerAddress : The Ethereum Address of the Seller\r\n    // 2) _itemIndex : Index number into the \"itemsBeingSoldBySpecificSeller\" double-linked list of Items Seller is selling.\r\n    //    Index starts at 0.\r\n    //\r\n    // Returns:\r\n    // 1) If the \"_itemIndex\" refers to an Item that the \"_sellerAddress\" is selling, then the IPFS Hash string of the Item being sold is returned.\r\n    // 2) If the \"_itemIndex\" does NOT refer to an Item that the \"_sellerAddress\" is selling, then an EMPTY_STRING is returned.\r\n    function getItemForSale(address _sellerAddress, uint _itemIndex) public view returns (string memory) {\r\n        if (_itemIndex >= numberOfDifferentItemsBeingSoldBySellerMap[_sellerAddress]) {\r\n            return EMPTY_STRING;\r\n        }\r\n        \r\n        // This below is the double-linked list of different types of Items being sold by the \"_sellerAddress\".\r\n        mapping(string => mapping(bool => string)) storage itemsBeingSoldBySenderAddress = itemsBeingSoldBySpecificSeller[_sellerAddress];        \r\n        \r\n        uint keyCount = 0;\r\n        string memory ipfsHashKeyOfItem = EMPTY_STRING;\r\n        while (true) {\r\n            ipfsHashKeyOfItem = itemsBeingSoldBySenderAddress[ipfsHashKeyOfItem][NEXT];\r\n            if (keyCount == _itemIndex) {\r\n                break;\r\n            }\r\n            \r\n            keyCount++;\r\n        }\r\n        \r\n        return ipfsHashKeyOfItem;       \r\n    }\r\n}",
  "sourcePath": "/mnt/d/Kingsland-University-Decentralized-Marketplace-Decentralized-Application-Project-2019/contracts/FranklinDecentralizedMarketplace.sol",
  "compiler": {
    "name": "solc",
    "version": "0.5.8+commit.23d335f2.Emscripten.clang"
  },
  "schemaVersion": "3.0.16",
  "updatedAt": "2019-11-21T16:10:08.878Z",
  "devdoc": {
    "methods": {}
  },
  "userdoc": {
    "methods": {}
  }
}