{
  "contractName": "FranklinDecentralizedMartketplace",
  "abi": [
    {
      "constant": true,
      "inputs": [],
      "name": "mediationMarketplace",
      "outputs": [
        {
          "name": "",
          "type": "address"
        }
      ],
      "payable": false,
      "stateMutability": "view",
      "type": "function"
    },
    {
      "inputs": [],
      "payable": false,
      "stateMutability": "nonpayable",
      "type": "constructor"
    },
    {
      "constant": true,
      "inputs": [],
      "name": "getContractOwnerOfFranklinDecentralizedMarketplaceMediation",
      "outputs": [
        {
          "name": "",
          "type": "address"
        }
      ],
      "payable": false,
      "stateMutability": "view",
      "type": "function"
    },
    {
      "constant": true,
      "inputs": [],
      "name": "getFranklinDecentralizedMarketplaceMediationContractAddress",
      "outputs": [
        {
          "name": "",
          "type": "address"
        }
      ],
      "payable": false,
      "stateMutability": "view",
      "type": "function"
    },
    {
      "constant": true,
      "inputs": [
        {
          "name": "_sellerAddress",
          "type": "address"
        }
      ],
      "name": "sellerIsWillingToSellItemsViaMediator",
      "outputs": [
        {
          "name": "",
          "type": "bool"
        }
      ],
      "payable": false,
      "stateMutability": "view",
      "type": "function"
    },
    {
      "constant": false,
      "inputs": [
        {
          "name": "_flag",
          "type": "bool"
        }
      ],
      "name": "setSellerWillingToSellItemsViaMediator",
      "outputs": [],
      "payable": false,
      "stateMutability": "nonpayable",
      "type": "function"
    },
    {
      "constant": false,
      "inputs": [
        {
          "name": "_ipfsHashKeyDescription",
          "type": "string"
        }
      ],
      "name": "addOrUpdateSellerDescription",
      "outputs": [],
      "payable": false,
      "stateMutability": "nonpayable",
      "type": "function"
    },
    {
      "constant": true,
      "inputs": [
        {
          "name": "_sellerAddress",
          "type": "address"
        }
      ],
      "name": "getSellerIpfsHashDescription",
      "outputs": [
        {
          "name": "",
          "type": "string"
        }
      ],
      "payable": false,
      "stateMutability": "view",
      "type": "function"
    },
    {
      "constant": false,
      "inputs": [],
      "name": "removeSeller",
      "outputs": [],
      "payable": false,
      "stateMutability": "nonpayable",
      "type": "function"
    },
    {
      "constant": true,
      "inputs": [
        {
          "name": "_index",
          "type": "uint256"
        }
      ],
      "name": "getSellerAddress",
      "outputs": [
        {
          "name": "",
          "type": "address"
        }
      ],
      "payable": false,
      "stateMutability": "view",
      "type": "function"
    },
    {
      "constant": true,
      "inputs": [
        {
          "name": "_sellerAddress",
          "type": "address"
        }
      ],
      "name": "sellerExists",
      "outputs": [
        {
          "name": "",
          "type": "bool"
        }
      ],
      "payable": false,
      "stateMutability": "view",
      "type": "function"
    },
    {
      "constant": true,
      "inputs": [],
      "name": "getNumberOfSellers",
      "outputs": [
        {
          "name": "",
          "type": "uint256"
        }
      ],
      "payable": false,
      "stateMutability": "view",
      "type": "function"
    },
    {
      "constant": false,
      "inputs": [
        {
          "name": "_keyItemIpfsHash",
          "type": "string"
        },
        {
          "name": "_priceInWei",
          "type": "uint256"
        }
      ],
      "name": "setPriceOfItem",
      "outputs": [],
      "payable": false,
      "stateMutability": "nonpayable",
      "type": "function"
    },
    {
      "constant": true,
      "inputs": [
        {
          "name": "_sellerAddress",
          "type": "address"
        },
        {
          "name": "_keyItemIpfsHash",
          "type": "string"
        }
      ],
      "name": "getPriceOfItem",
      "outputs": [
        {
          "name": "",
          "type": "uint256"
        }
      ],
      "payable": false,
      "stateMutability": "view",
      "type": "function"
    },
    {
      "constant": false,
      "inputs": [
        {
          "name": "_keyItemIpfsHash",
          "type": "string"
        },
        {
          "name": "_quantity",
          "type": "uint256"
        }
      ],
      "name": "setQuantityAvailableForSaleOfAnItem",
      "outputs": [],
      "payable": false,
      "stateMutability": "nonpayable",
      "type": "function"
    },
    {
      "constant": true,
      "inputs": [
        {
          "name": "_sellerAddress",
          "type": "address"
        },
        {
          "name": "_keyItemIpfsHash",
          "type": "string"
        }
      ],
      "name": "getQuantityAvailableForSaleOfAnItemBySeller",
      "outputs": [
        {
          "name": "",
          "type": "uint256"
        }
      ],
      "payable": false,
      "stateMutability": "view",
      "type": "function"
    },
    {
      "constant": false,
      "inputs": [
        {
          "name": "_sellerAddress",
          "type": "address"
        },
        {
          "name": "_keyItemIpfsHash",
          "type": "string"
        },
        {
          "name": "_quantity",
          "type": "uint256"
        }
      ],
      "name": "purchaseItemWithoutMediator",
      "outputs": [],
      "payable": true,
      "stateMutability": "payable",
      "type": "function"
    },
    {
      "constant": false,
      "inputs": [
        {
          "name": "_sellerAddress",
          "type": "address"
        },
        {
          "name": "_mediatorAddress",
          "type": "address"
        },
        {
          "name": "_keyItemIpfsHash",
          "type": "string"
        },
        {
          "name": "_mediatedSalesTransactionIpfsHash",
          "type": "string"
        },
        {
          "name": "_quantity",
          "type": "uint256"
        }
      ],
      "name": "purchaseItemWithMediator",
      "outputs": [],
      "payable": true,
      "stateMutability": "payable",
      "type": "function"
    },
    {
      "constant": false,
      "inputs": [
        {
          "name": "_keyItemIpfsHash",
          "type": "string"
        }
      ],
      "name": "addItemForSale",
      "outputs": [],
      "payable": false,
      "stateMutability": "nonpayable",
      "type": "function"
    },
    {
      "constant": false,
      "inputs": [
        {
          "name": "_keyItemIpfsHash",
          "type": "string"
        }
      ],
      "name": "removeItemForSale",
      "outputs": [],
      "payable": false,
      "stateMutability": "nonpayable",
      "type": "function"
    },
    {
      "constant": true,
      "inputs": [
        {
          "name": "_sellerAddress",
          "type": "address"
        }
      ],
      "name": "getNumberOfDifferentItemsBeingSoldBySeller",
      "outputs": [
        {
          "name": "",
          "type": "uint256"
        }
      ],
      "payable": false,
      "stateMutability": "view",
      "type": "function"
    },
    {
      "constant": true,
      "inputs": [
        {
          "name": "_sellerAddress",
          "type": "address"
        },
        {
          "name": "_itemIndex",
          "type": "uint256"
        }
      ],
      "name": "getItemForSale",
      "outputs": [
        {
          "name": "",
          "type": "string"
        }
      ],
      "payable": false,
      "stateMutability": "view",
      "type": "function"
    },
    {
      "constant": true,
      "inputs": [
        {
          "name": "_sellerAddress",
          "type": "address"
        },
        {
          "name": "_keyItemIpfsHash",
          "type": "string"
        }
      ],
      "name": "itemForSaleFromSellerExists",
      "outputs": [
        {
          "name": "",
          "type": "bool"
        }
      ],
      "payable": false,
      "stateMutability": "view",
      "type": "function"
    },
    {
      "constant": false,
      "inputs": [
        {
          "name": "_mediatorIpfsHashDescription",
          "type": "string"
        }
      ],
      "name": "addOrUpdateMediator",
      "outputs": [],
      "payable": false,
      "stateMutability": "nonpayable",
      "type": "function"
    },
    {
      "constant": false,
      "inputs": [],
      "name": "removeMediator",
      "outputs": [],
      "payable": false,
      "stateMutability": "nonpayable",
      "type": "function"
    },
    {
      "constant": true,
      "inputs": [
        {
          "name": "_index",
          "type": "uint256"
        }
      ],
      "name": "getMediatorAddress",
      "outputs": [
        {
          "name": "",
          "type": "address"
        }
      ],
      "payable": false,
      "stateMutability": "view",
      "type": "function"
    },
    {
      "constant": true,
      "inputs": [],
      "name": "getNumberOfMediators",
      "outputs": [
        {
          "name": "",
          "type": "uint256"
        }
      ],
      "payable": false,
      "stateMutability": "view",
      "type": "function"
    },
    {
      "constant": true,
      "inputs": [
        {
          "name": "_mediatorAddress",
          "type": "address"
        }
      ],
      "name": "mediatorExists",
      "outputs": [
        {
          "name": "",
          "type": "bool"
        }
      ],
      "payable": false,
      "stateMutability": "view",
      "type": "function"
    },
    {
      "constant": false,
      "inputs": [
        {
          "name": "_mediatedSalesTransactionIpfsHash",
          "type": "string"
        }
      ],
      "name": "approveMediatedSalesTransaction",
      "outputs": [],
      "payable": false,
      "stateMutability": "nonpayable",
      "type": "function"
    },
    {
      "constant": false,
      "inputs": [
        {
          "name": "_mediatedSalesTransactionIpfsHash",
          "type": "string"
        }
      ],
      "name": "disapproveMediatedSalesTransaction",
      "outputs": [],
      "payable": false,
      "stateMutability": "nonpayable",
      "type": "function"
    },
    {
      "constant": true,
      "inputs": [
        {
          "name": "_mediatorAddress",
          "type": "address"
        }
      ],
      "name": "getMediatorIpfsHashDescription",
      "outputs": [
        {
          "name": "",
          "type": "string"
        }
      ],
      "payable": false,
      "stateMutability": "view",
      "type": "function"
    },
    {
      "constant": true,
      "inputs": [
        {
          "name": "_mediatorAddress",
          "type": "address"
        }
      ],
      "name": "getNumberOfMediationsMediatorInvolved",
      "outputs": [
        {
          "name": "",
          "type": "uint256"
        }
      ],
      "payable": false,
      "stateMutability": "view",
      "type": "function"
    }
  ],
  "bytecode": "0x60806040523480156200001157600080fd5b50604051620000209062000084565b604051809103906000f0801580156200003d573d6000803e3d6000fd5b50600a60006101000a81548173ffffffffffffffffffffffffffffffffffffffff021916908373ffffffffffffffffffffffffffffffffffffffff16021790555062000092565b6145278062006a2183390190565b61697f80620000a26000396000f3fe6080604052600436106101d85760003560e01c80636c84d46511610102578063c0fc79bb11610095578063e35c61cb11610064578063e35c61cb146112c1578063e8dde6df14611389578063f4048e55146113e0578063fcd210781461140b576101d8565b8063c0fc79bb146110ee578063d3fc6d9114611157578063d94695a014611194578063d9a1e27b1461125c576101d8565b8063a675364d116100d1578063a675364d14610ec7578063bcf383a814610f42578063be3ecf9d14610fbd578063c008b40614611026576101d8565b80636c84d46514610bf85780637107bf8714610c4f578063988fc83e14610d215780639f42ed2414610df5576101d8565b8063282e9d791161017a5780633d2d4de3116101495780633d2d4de3146109725780633ffcf36f14610a7257806340c31a8c14610ad75780634360502c14610ba1576101d8565b8063282e9d79146105165780632b06d5a41461061257806330451e8e146107ae5780633bc70e3c14610876576101d8565b80631a67405c116101b65780631a67405c146102e75780631d1ca279146103505780631db032071461041a578063251ed3b914610431576101d8565b80630ad2c9d1146101dd57806318426481146102085780631967766b146102d0575b600080fd5b3480156101e957600080fd5b506101f26114d3565b6040518082815260200191505060405180910390f35b34801561021457600080fd5b506102ce6004803603602081101561022b57600080fd5b810190808035906020019064010000000081111561024857600080fd5b82018360208201111561025a57600080fd5b8035906020019184600183028401116401000000008311171561027c57600080fd5b91908080601f016020809104026020016040519081016040528093929190818152602001838380828437600081840152601f19601f82011690508083019250505050505050919291929050505061157d565b005b3480156102dc57600080fd5b506102e5611cd9565b005b3480156102f357600080fd5b506103366004803603602081101561030a57600080fd5b81019080803573ffffffffffffffffffffffffffffffffffffffff169060200190929190505050611d94565b604051808215151515815260200191505060405180910390f35b34801561035c57600080fd5b5061039f6004803603602081101561037357600080fd5b81019080803573ffffffffffffffffffffffffffffffffffffffff169060200190929190505050611e77565b6040518080602001828103825283818151815260200191508051906020019080838360005b838110156103df5780820151818401526020810190506103c4565b50505050905090810190601f16801561040c5780820380516001836020036101000a031916815260200191505b509250505060405180910390f35b34801561042657600080fd5b5061042f611f58565b005b6105146004803603606081101561044757600080fd5b81019080803573ffffffffffffffffffffffffffffffffffffffff1690602001909291908035906020019064010000000081111561048457600080fd5b82018360208201111561049657600080fd5b803590602001918460018302840111640100000000831117156104b857600080fd5b91908080601f016020809104026020016040519081016040528093929190818152602001838380828437600081840152601f19601f82011690508083019250505050505050919291929080359060200190929190505050612054565b005b34801561052257600080fd5b506105fc6004803603604081101561053957600080fd5b81019080803573ffffffffffffffffffffffffffffffffffffffff1690602001909291908035906020019064010000000081111561057657600080fd5b82018360208201111561058857600080fd5b803590602001918460018302840111640100000000831117156105aa57600080fd5b91908080601f016020809104026020016040519081016040528093929190818152602001838380828437600081840152601f19601f8201169050808301925050505050505091929192905050506127a9565b6040518082815260200191505060405180910390f35b6107ac600480360360a081101561062857600080fd5b81019080803573ffffffffffffffffffffffffffffffffffffffff169060200190929190803573ffffffffffffffffffffffffffffffffffffffff1690602001909291908035906020019064010000000081111561068557600080fd5b82018360208201111561069757600080fd5b803590602001918460018302840111640100000000831117156106b957600080fd5b91908080601f016020809104026020016040519081016040528093929190818152602001838380828437600081840152601f19601f8201169050808301925050505050505091929192908035906020019064010000000081111561071c57600080fd5b82018360208201111561072e57600080fd5b8035906020019184600183028401116401000000008311171561075057600080fd5b91908080601f016020809104026020016040519081016040528093929190818152602001838380828437600081840152601f19601f8201169050808301925050505050505091929192908035906020019092919050505061282c565b005b3480156107ba57600080fd5b50610874600480360360208110156107d157600080fd5b81019080803590602001906401000000008111156107ee57600080fd5b82018360208201111561080057600080fd5b8035906020019184600183028401116401000000008311171561082257600080fd5b91908080601f016020809104026020016040519081016040528093929190818152602001838380828437600081840152601f19601f8201169050808301925050505050505091929192905050506132c9565b005b34801561088257600080fd5b5061095c6004803603604081101561089957600080fd5b81019080803573ffffffffffffffffffffffffffffffffffffffff169060200190929190803590602001906401000000008111156108d657600080fd5b8201836020820111156108e857600080fd5b8035906020019184600183028401116401000000008311171561090a57600080fd5b91908080601f016020809104026020016040519081016040528093929190818152602001838380828437600081840152601f19601f8201169050808301925050505050505091929192905050506133f2565b6040518082815260200191505060405180910390f35b34801561097e57600080fd5b50610a586004803603604081101561099557600080fd5b81019080803573ffffffffffffffffffffffffffffffffffffffff169060200190929190803590602001906401000000008111156109d257600080fd5b8201836020820111156109e457600080fd5b80359060200191846001830284011164010000000083111715610a0657600080fd5b91908080601f016020809104026020016040519081016040528093929190818152602001838380828437600081840152601f19601f8201169050808301925050505050505091929192905050506135b0565b604051808215151515815260200191505060405180910390f35b348015610a7e57600080fd5b50610ac160048036036020811015610a9557600080fd5b81019080803573ffffffffffffffffffffffffffffffffffffffff169060200190929190505050613640565b6040518082815260200191505060405180910390f35b348015610ae357600080fd5b50610b2660048036036020811015610afa57600080fd5b81019080803573ffffffffffffffffffffffffffffffffffffffff169060200190929190505050613723565b6040518080602001828103825283818151815260200191508051906020019080838360005b83811015610b66578082015181840152602081019050610b4b565b50505050905090810190601f168015610b935780820380516001836020036101000a031916815260200191505b509250505060405180910390f35b348015610bad57600080fd5b50610bb661385c565b604051808273ffffffffffffffffffffffffffffffffffffffff1673ffffffffffffffffffffffffffffffffffffffff16815260200191505060405180910390f35b348015610c0457600080fd5b50610c0d613a0f565b604051808273ffffffffffffffffffffffffffffffffffffffff1673ffffffffffffffffffffffffffffffffffffffff16815260200191505060405180910390f35b348015610c5b57600080fd5b50610d1f60048036036040811015610c7257600080fd5b8101908080359060200190640100000000811115610c8f57600080fd5b820183602082011115610ca157600080fd5b80359060200191846001830284011164010000000083111715610cc357600080fd5b91908080601f016020809104026020016040519081016040528093929190818152602001838380828437600081840152601f19601f82011690508083019250505050505050919291929080359060200190929190505050613a35565b005b348015610d2d57600080fd5b50610d7a60048036036040811015610d4457600080fd5b81019080803573ffffffffffffffffffffffffffffffffffffffff16906020019092919080359060200190929190505050613bf1565b6040518080602001828103825283818151815260200191508051906020019080838360005b83811015610dba578082015181840152602081019050610d9f565b50505050905090810190601f168015610de75780820380516001836020036101000a031916815260200191505b509250505060405180910390f35b348015610e0157600080fd5b50610ec560048036036040811015610e1857600080fd5b8101908080359060200190640100000000811115610e3557600080fd5b820183602082011115610e4757600080fd5b80359060200191846001830284011164010000000083111715610e6957600080fd5b91908080601f016020809104026020016040519081016040528093929190818152602001838380828437600081840152601f19601f82011690508083019250505050505050919291929080359060200190929190505050613df4565b005b348015610ed357600080fd5b50610f0060048036036020811015610eea57600080fd5b8101908080359060200190929190505050613fb0565b604051808273ffffffffffffffffffffffffffffffffffffffff1673ffffffffffffffffffffffffffffffffffffffff16815260200191505060405180910390f35b348015610f4e57600080fd5b50610f7b60048036036020811015610f6557600080fd5b8101908080359060200190929190505050614173565b604051808273ffffffffffffffffffffffffffffffffffffffff1673ffffffffffffffffffffffffffffffffffffffff16815260200191505060405180910390f35b348015610fc957600080fd5b5061100c60048036036020811015610fe057600080fd5b81019080803573ffffffffffffffffffffffffffffffffffffffff16906020019092919050505061422a565b604051808215151515815260200191505060405180910390f35b34801561103257600080fd5b506110ec6004803603602081101561104957600080fd5b810190808035906020019064010000000081111561106657600080fd5b82018360208201111561107857600080fd5b8035906020019184600183028401116401000000008311171561109a57600080fd5b91908080601f016020809104026020016040519081016040528093929190818152602001838380828437600081840152601f19601f820116905080830192505050505050509192919290505050614280565b005b3480156110fa57600080fd5b5061113d6004803603602081101561111157600080fd5b81019080803573ffffffffffffffffffffffffffffffffffffffff1690602001909291905050506143de565b604051808215151515815260200191505060405180910390f35b34801561116357600080fd5b506111926004803603602081101561117a57600080fd5b81019080803515159060200190929190505050614434565b005b3480156111a057600080fd5b5061125a600480360360208110156111b757600080fd5b81019080803590602001906401000000008111156111d457600080fd5b8201836020820111156111e657600080fd5b8035906020019184600183028401116401000000008311171561120857600080fd5b91908080601f016020809104026020016040519081016040528093929190818152602001838380828437600081840152601f19601f8201169050808301925050505050505091929192905050506144e5565b005b34801561126857600080fd5b506112ab6004803603602081101561127f57600080fd5b81019080803573ffffffffffffffffffffffffffffffffffffffff16906020019092919050505061460e565b6040518082815260200191505060405180910390f35b3480156112cd57600080fd5b50611387600480360360208110156112e457600080fd5b810190808035906020019064010000000081111561130157600080fd5b82018360208201111561131357600080fd5b8035906020019184600183028401116401000000008311171561133557600080fd5b91908080601f016020809104026020016040519081016040528093929190818152602001838380828437600081840152601f19601f820116905080830192505050505050509192919290505050614657565b005b34801561139557600080fd5b5061139e614780565b604051808273ffffffffffffffffffffffffffffffffffffffff1673ffffffffffffffffffffffffffffffffffffffff16815260200191505060405180910390f35b3480156113ec57600080fd5b506113f56147aa565b6040518082815260200191505060405180910390f35b34801561141757600080fd5b506114d16004803603602081101561142e57600080fd5b810190808035906020019064010000000081111561144b57600080fd5b82018360208201111561145d57600080fd5b8035906020019184600183028401116401000000008311171561147f57600080fd5b91908080601f016020809104026020016040519081016040528093929190818152602001838380828437600081840152601f19601f8201169050808301925050505050505091929192905050506147b4565b005b6000600a60009054906101000a900473ffffffffffffffffffffffffffffffffffffffff1673ffffffffffffffffffffffffffffffffffffffff16630ad2c9d16040518163ffffffff1660e01b815260040160206040518083038186803b15801561153d57600080fd5b505afa158015611551573d6000803e3d6000fd5b505050506040513d602081101561156757600080fd5b8101908080519060200190929190505050905090565b60606115893383614da8565b90506003816040518082805190602001908083835b602083106115c1578051825260208201915060208101905060208303925061159e565b6001836020036101000a038019825116818451168082178552505050505050905001915050908152602001604051809103902060009054906101000a900460ff1661160c5750611cd6565b6000600260003373ffffffffffffffffffffffffffffffffffffffff1673ffffffffffffffffffffffffffffffffffffffff168152602001908152602001600020905080836040518082805190602001908083835b602083106116845780518252602082019150602081019050602083039250611661565b6001836020036101000a0380198251168184511680821785525050505050509050019150509081526020016040518091039020600060011515151581526020019081526020016000208182856040518082805190602001908083835b6020831061170357805182526020820191506020810190506020830392506116e0565b6001836020036101000a038019825116818451168082178552505050505050905001915050908152602001604051809103902060008015151515815260200190815260200160002060405180828054600181600116156101000203166002900480156117a65780601f106117845761010080835404028352918201916117a6565b820191906000526020600020905b815481529060010190602001808311611792575b505091505090815260200160405180910390206000600115151515815260200190815260200160002090805460018160011615610100020316600290046117ee92919061609e565b5080836040518082805190602001908083835b602083106118245780518252602082019150602081019050602083039250611801565b6001836020036101000a03801982511681845116808217855250505050505090500191505090815260200160405180910390206000801515151581526020019081526020016000208182856040518082805190602001908083835b602083106118a2578051825260208201915060208101905060208303925061187f565b6001836020036101000a03801982511681845116808217855250505050505090500191505090815260200160405180910390206000600115151515815260200190815260200160002060405180828054600181600116156101000203166002900480156119465780601f10611924576101008083540402835291820191611946565b820191906000526020600020905b815481529060010190602001808311611932575b50509150509081526020016040518091039020600080151515158152602001908152602001600020908054600181600116156101000203166002900461198d92919061609e565b5080836040518082805190602001908083835b602083106119c357805182526020820191506020810190506020830392506119a0565b6001836020036101000a03801982511681845116808217855250505050505090500191505090815260200160405180910390206000801515151581526020019081526020016000206000611a179190616125565b80836040518082805190602001908083835b60208310611a4c5780518252602082019150602081019050602083039250611a29565b6001836020036101000a0380198251168184511680821785525050505050509050019150509081526020016040518091039020600060011515151581526020019081526020016000206000611aa19190616125565b611aeb600460003373ffffffffffffffffffffffffffffffffffffffff1673ffffffffffffffffffffffffffffffffffffffff168152602001908152602001600020546001614f00565b600460003373ffffffffffffffffffffffffffffffffffffffff1673ffffffffffffffffffffffffffffffffffffffff168152602001908152602001600020819055506003826040518082805190602001908083835b60208310611b645780518252602082019150602081019050602083039250611b41565b6001836020036101000a038019825116818451168082178552505050505050905001915050908152602001604051809103902060006101000a81549060ff02191690556000826040518082805190602001908083835b60208310611bdd5780518252602082019150602081019050602083039250611bba565b6001836020036101000a0380198251168184511680821785525050505050509050019150509081526020016040518091039020600090556001826040518082805190602001908083835b60208310611c4a5780518252602082019150602081019050602083039250611c27565b6001836020036101000a0380198251168184511680821785525050505050509050019150509081526020016040518091039020600090556000600460003373ffffffffffffffffffffffffffffffffffffffff1673ffffffffffffffffffffffffffffffffffffffff168152602001908152602001600020541415611cd357611cd233614f6c565b5b50505b50565b600a60009054906101000a900473ffffffffffffffffffffffffffffffffffffffff1673ffffffffffffffffffffffffffffffffffffffff16638116e5fb336040518263ffffffff1660e01b8152600401808273ffffffffffffffffffffffffffffffffffffffff1673ffffffffffffffffffffffffffffffffffffffff168152602001915050600060405180830381600087803b158015611d7a57600080fd5b505af1158015611d8e573d6000803e3d6000fd5b50505050565b6000600a60009054906101000a900473ffffffffffffffffffffffffffffffffffffffff1673ffffffffffffffffffffffffffffffffffffffff16631a67405c836040518263ffffffff1660e01b8152600401808273ffffffffffffffffffffffffffffffffffffffff1673ffffffffffffffffffffffffffffffffffffffff16815260200191505060206040518083038186803b158015611e3557600080fd5b505afa158015611e49573d6000803e3d6000fd5b505050506040513d6020811015611e5f57600080fd5b81019080805190602001909291905050509050919050565b6060600860008373ffffffffffffffffffffffffffffffffffffffff1673ffffffffffffffffffffffffffffffffffffffff1681526020019081526020016000208054600181600116156101000203166002900480601f016020809104026020016040519081016040528092919081815260200182805460018160011615610100020316600290048015611f4c5780601f10611f2157610100808354040283529160200191611f4c565b820191906000526020600020905b815481529060010190602001808311611f2f57829003601f168201915b50505050509050919050565b6000600460003373ffffffffffffffffffffffffffffffffffffffff1673ffffffffffffffffffffffffffffffffffffffff168152602001908152602001600020549050606081604051908082528060200260200182016040528015611fd257816020015b6060815260200190600190039081611fbd5790505b50905060008090505b82811015612017576060611fef3383613bf1565b905080838381518110611ffe57fe5b6020026020010181905250508080600101915050611fdb565b5060008090505b8281101561204f5761204282828151811061203557fe5b602002602001015161157d565b808060010191505061201e565b505050565b600081116120ad576040517f08c379a00000000000000000000000000000000000000000000000000000000081526004018080602001828103825260418152602001806162136041913960600191505060405180910390fd5b6120c682604051806020016040528060008152506154de565b1561211c576040517f08c379a00000000000000000000000000000000000000000000000000000000081526004018080602001828103825260508152602001806167446050913960600191505060405180910390fd5b8273ffffffffffffffffffffffffffffffffffffffff163373ffffffffffffffffffffffffffffffffffffffff1614156121a1576040517f08c379a000000000000000000000000000000000000000000000000000000000815260040180806020018281038252603b815260200180616794603b913960400191505060405180910390fd5b600660008473ffffffffffffffffffffffffffffffffffffffff1673ffffffffffffffffffffffffffffffffffffffff16815260200190815260200160002060009054906101000a900460ff16612243576040517f08c379a000000000000000000000000000000000000000000000000000000000815260040180806020018281038252603081526020018061668f6030913960400191505060405180910390fd5b606061224f3384614da8565b90506003816040518082805190602001908083835b602083106122875780518252602082019150602081019050602083039250612264565b6001836020036101000a038019825116818451168082178552505050505050905001915050908152602001604051809103902060009054906101000a900460ff1661231d576040517f08c379a000000000000000000000000000000000000000000000000000000000815260040180806020018281038252604a81526020018061635f604a913960600191505060405180910390fd5b60006001826040518082805190602001908083835b602083106123555780518252602082019150602081019050602083039250612332565b6001836020036101000a038019825116818451168082178552505050505050905001915050908152602001604051809103902054116123df576040517f08c379a000000000000000000000000000000000000000000000000000000000815260040180806020018281038252604f815260200180616640604f913960600191505060405180910390fd5b816001826040518082805190602001908083835b6020831061241657805182526020820191506020810190506020830392506123f3565b6001836020036101000a03801982511681845116808217855250505050505090500191505090815260200160405180910390205410156124a1576040517f08c379a00000000000000000000000000000000000000000000000000000000081526004018080602001828103825260938152602001806165256093913960a00191505060405180910390fd5b600080826040518082805190602001908083835b602083106124d857805182526020820191506020810190506020830392506124b5565b6001836020036101000a03801982511681845116808217855250505050505090500191505090815260200160405180910390205411612562576040517f08c379a000000000000000000000000000000000000000000000000000000000815260040180806020018281038252605d8152602001806166e7605d913960600191505060405180910390fd5b60006125d76000836040518082805190602001908083835b6020831061259d578051825260208201915060208101905060208303925061257a565b6001836020036101000a038019825116818451168082178552505050505050905001915050908152602001604051809103902054846155cd565b905080341015612632576040517f08c379a000000000000000000000000000000000000000000000000000000000815260040180806020018281038252604781526020018061680c6047913960600191505060405180910390fd5b6126a56001836040518082805190602001908083835b6020831061266b5780518252602082019150602081019050602083039250612648565b6001836020036101000a03801982511681845116808217855250505050505090500191505090815260200160405180910390205484614f00565b6001836040518082805190602001908083835b602083106126db57805182526020820191506020810190506020830392506126b8565b6001836020036101000a0380198251168184511680821785525050505050509050019150509081526020016040518091039020819055503373ffffffffffffffffffffffffffffffffffffffff166108fc8234039081150290604051600060405180830381858888f1935050505015801561275a573d6000803e3d6000fd5b508473ffffffffffffffffffffffffffffffffffffffff166108fc829081150290604051600060405180830381858888f193505050501580156127a1573d6000803e3d6000fd5b505050505050565b600060606127b78484614da8565b90506001816040518082805190602001908083835b602083106127ef57805182526020820191506020810190506020830392506127cc565b6001836020036101000a03801982511681845116808217855250505050505090500191505090815260200160405180910390205491505092915050565b60008111612885576040517f08c379a00000000000000000000000000000000000000000000000000000000081526004018080602001828103825260418152602001806162136041913960600191505060405180910390fd5b61289e83604051806020016040528060008152506154de565b156128f4576040517f08c379a00000000000000000000000000000000000000000000000000000000081526004018080602001828103825260508152602001806167446050913960600191505060405180910390fd5b61290d82604051806020016040528060008152506154de565b15612963576040517f08c379a00000000000000000000000000000000000000000000000000000000081526004018080602001828103825260548152602001806162996054913960600191505060405180910390fd5b600660008673ffffffffffffffffffffffffffffffffffffffff1673ffffffffffffffffffffffffffffffffffffffff16815260200190815260200160002060009054906101000a900460ff16612a05576040517f08c379a000000000000000000000000000000000000000000000000000000000815260040180806020018281038252603081526020018061668f6030913960400191505060405180910390fd5b6060612a113385614da8565b90506003816040518082805190602001908083835b60208310612a495780518252602082019150602081019050602083039250612a26565b6001836020036101000a038019825116818451168082178552505050505050905001915050908152602001604051809103902060009054906101000a900460ff16612adf576040517f08c379a000000000000000000000000000000000000000000000000000000000815260040180806020018281038252604a81526020018061635f604a913960600191505060405180910390fd5b60006001826040518082805190602001908083835b60208310612b175780518252602082019150602081019050602083039250612af4565b6001836020036101000a03801982511681845116808217855250505050505090500191505090815260200160405180910390205411612ba1576040517f08c379a000000000000000000000000000000000000000000000000000000000815260040180806020018281038252604f815260200180616640604f913960600191505060405180910390fd5b816001826040518082805190602001908083835b60208310612bd85780518252602082019150602081019050602083039250612bb5565b6001836020036101000a0380198251168184511680821785525050505050509050019150509081526020016040518091039020541015612c63576040517f08c379a00000000000000000000000000000000000000000000000000000000081526004018080602001828103825260938152602001806165256093913960a00191505060405180910390fd5b600080826040518082805190602001908083835b60208310612c9a5780518252602082019150602081019050602083039250612c77565b6001836020036101000a03801982511681845116808217855250505050505090500191505090815260200160405180910390205411612d24576040517f08c379a000000000000000000000000000000000000000000000000000000000815260040180806020018281038252605d8152602001806166e7605d913960600191505060405180910390fd5b6000612d996000836040518082805190602001908083835b60208310612d5f5780518252602082019150602081019050602083039250612d3c565b6001836020036101000a038019825116818451168082178552505050505050905001915050908152602001604051809103902054846155cd565b905080341015612df4576040517f08c379a000000000000000000000000000000000000000000000000000000000815260040180806020018281038252604b8152602001806165f5604b913960600191505060405180910390fd5b8673ffffffffffffffffffffffffffffffffffffffff163373ffffffffffffffffffffffffffffffffffffffff161415612e79576040517f08c379a000000000000000000000000000000000000000000000000000000000815260040180806020018281038252603b815260200180616794603b913960400191505060405180910390fd5b8573ffffffffffffffffffffffffffffffffffffffff163373ffffffffffffffffffffffffffffffffffffffff161415612efe576040517f08c379a000000000000000000000000000000000000000000000000000000000815260040180806020018281038252603d8152602001806167cf603d913960400191505060405180910390fd5b8573ffffffffffffffffffffffffffffffffffffffff168773ffffffffffffffffffffffffffffffffffffffff161415612f83576040517f08c379a000000000000000000000000000000000000000000000000000000000815260040180806020018281038252603e81526020018061689d603e913960400191505060405180910390fd5b600a60009054906101000a900473ffffffffffffffffffffffffffffffffffffffff1673ffffffffffffffffffffffffffffffffffffffff1663c63b7eb433898988866040518663ffffffff1660e01b8152600401808673ffffffffffffffffffffffffffffffffffffffff1673ffffffffffffffffffffffffffffffffffffffff1681526020018573ffffffffffffffffffffffffffffffffffffffff1673ffffffffffffffffffffffffffffffffffffffff1681526020018473ffffffffffffffffffffffffffffffffffffffff1673ffffffffffffffffffffffffffffffffffffffff16815260200180602001838152602001828103825284818151815260200191508051906020019080838360005b838110156130b1578082015181840152602081019050613096565b50505050905090810190601f1680156130de5780820380516001836020036101000a031916815260200191505b509650505050505050600060405180830381600087803b15801561310157600080fd5b505af1158015613115573d6000803e3d6000fd5b5050505061318c6001836040518082805190602001908083835b60208310613152578051825260208201915060208101905060208303925061312f565b6001836020036101000a03801982511681845116808217855250505050505090500191505090815260200160405180910390205484614f00565b6001836040518082805190602001908083835b602083106131c2578051825260208201915060208101905060208303925061319f565b6001836020036101000a0380198251168184511680821785525050505050509050019150509081526020016040518091039020819055503373ffffffffffffffffffffffffffffffffffffffff166108fc61321d3484614f00565b9081150290604051600060405180830381858888f19350505050158015613248573d6000803e3d6000fd5b506000613276600a60009054906101000a900473ffffffffffffffffffffffffffffffffffffffff166156bf565b90508073ffffffffffffffffffffffffffffffffffffffff166108fc839081150290604051600060405180830381858888f193505050501580156132be573d6000803e3d6000fd5b505050505050505050565b600a60009054906101000a900473ffffffffffffffffffffffffffffffffffffffff1673ffffffffffffffffffffffffffffffffffffffff1663f0a750c033836040518363ffffffff1660e01b8152600401808373ffffffffffffffffffffffffffffffffffffffff1673ffffffffffffffffffffffffffffffffffffffff16815260200180602001828103825283818151815260200191508051906020019080838360005b8381101561338a57808201518184015260208101905061336f565b50505050905090810190601f1680156133b75780820380516001836020036101000a031916815260200191505b509350505050600060405180830381600087803b1580156133d757600080fd5b505af11580156133eb573d6000803e3d6000fd5b5050505050565b600061340d82604051806020016040528060008152506154de565b15613463576040517f08c379a000000000000000000000000000000000000000000000000000000000815260040180806020018281038252603d8152602001806165b8603d913960400191505060405180910390fd5b606061346f8484614da8565b90506003816040518082805190602001908083835b602083106134a75780518252602082019150602081019050602083039250613484565b6001836020036101000a038019825116818451168082178552505050505050905001915050908152602001604051809103902060009054906101000a900460ff1661353d576040517f08c379a000000000000000000000000000000000000000000000000000000000815260040180806020018281038252604a81526020018061635f604a913960600191505060405180910390fd5b6000816040518082805190602001908083835b602083106135735780518252602082019150602081019050602083039250613550565b6001836020036101000a03801982511681845116808217855250505050505090500191505090815260200160405180910390205491505092915050565b600060606135be8484614da8565b90506003816040518082805190602001908083835b602083106135f657805182526020820191506020810190506020830392506135d3565b6001836020036101000a038019825116818451168082178552505050505050905001915050908152602001604051809103902060009054906101000a900460ff1691505092915050565b6000600a60009054906101000a900473ffffffffffffffffffffffffffffffffffffffff1673ffffffffffffffffffffffffffffffffffffffff16633ffcf36f836040518263ffffffff1660e01b8152600401808273ffffffffffffffffffffffffffffffffffffffff1673ffffffffffffffffffffffffffffffffffffffff16815260200191505060206040518083038186803b1580156136e157600080fd5b505afa1580156136f5573d6000803e3d6000fd5b505050506040513d602081101561370b57600080fd5b81019080805190602001909291905050509050919050565b6060600a60009054906101000a900473ffffffffffffffffffffffffffffffffffffffff1673ffffffffffffffffffffffffffffffffffffffff166340c31a8c836040518263ffffffff1660e01b8152600401808273ffffffffffffffffffffffffffffffffffffffff1673ffffffffffffffffffffffffffffffffffffffff16815260200191505060006040518083038186803b1580156137c457600080fd5b505afa1580156137d8573d6000803e3d6000fd5b505050506040513d6000823e3d601f19601f82011682018060405250602081101561380257600080fd5b81019080805164010000000081111561381a57600080fd5b8281019050602081018481111561383057600080fd5b815185600182028301116401000000008211171561384d57600080fd5b50509291905050509050919050565b600080600a60009054906101000a900473ffffffffffffffffffffffffffffffffffffffff1673ffffffffffffffffffffffffffffffffffffffff1663ff670a2f6040518163ffffffff1660e01b815260040160206040518083038186803b1580156138c757600080fd5b505afa1580156138db573d6000803e3d6000fd5b505050506040513d60208110156138f157600080fd5b810190808051906020019092919050505090503073ffffffffffffffffffffffffffffffffffffffff168173ffffffffffffffffffffffffffffffffffffffff1614604051602001808061647860579139605701806163a960809139608001905060405160208183030381529060405290613a07576040517f08c379a00000000000000000000000000000000000000000000000000000000081526004018080602001828103825283818151815260200191508051906020019080838360005b838110156139cc5780820151818401526020810190506139b1565b50505050905090810190601f1680156139f95780820380516001836020036101000a031916815260200191505b509250505060405180910390fd5b508091505090565b600a60009054906101000a900473ffffffffffffffffffffffffffffffffffffffff1681565b613a4e82604051806020016040528060008152506154de565b15613aa4576040517f08c379a00000000000000000000000000000000000000000000000000000000081526004018080602001828103825260458152602001806162546045913960600191505060405180910390fd5b6060613ab03384614da8565b90506003816040518082805190602001908083835b60208310613ae85780518252602082019150602081019050602083039250613ac5565b6001836020036101000a038019825116818451168082178552505050505050905001915050908152602001604051809103902060009054906101000a900460ff16613b7e576040517f08c379a000000000000000000000000000000000000000000000000000000000815260040180806020018281038252604f815260200180616429604f913960600191505060405180910390fd5b816000826040518082805190602001908083835b60208310613bb55780518252602082019150602081019050602083039250613b92565b6001836020036101000a038019825116818451168082178552505050505050905001915050908152602001604051809103902081905550505050565b6060600460008473ffffffffffffffffffffffffffffffffffffffff1673ffffffffffffffffffffffffffffffffffffffff168152602001908152602001600020548210613c5057604051806020016040528060008152509050613dee565b6000600260008573ffffffffffffffffffffffffffffffffffffffff1673ffffffffffffffffffffffffffffffffffffffff1681526020019081526020016000209050600080905060606040518060200160405280600081525090505b600115613de75782816040518082805190602001908083835b60208310613ce95780518252602082019150602081019050602083039250613cc6565b6001836020036101000a0380198251168184511680821785525050505050509050019150509081526020016040518091039020600060011515151581526020019081526020016000208054600181600116156101000203166002900480601f016020809104026020016040519081016040528092919081815260200182805460018160011615610100020316600290048015613dc65780601f10613d9b57610100808354040283529160200191613dc6565b820191906000526020600020905b815481529060010190602001808311613da957829003601f168201915b5050505050905084821415613dda57613de7565b8180600101925050613cad565b8093505050505b92915050565b613e0d82604051806020016040528060008152506154de565b15613e63576040517f08c379a00000000000000000000000000000000000000000000000000000000081526004018080602001828103825260458152602001806162546045913960600191505060405180910390fd5b6060613e6f3384614da8565b90506003816040518082805190602001908083835b60208310613ea75780518252602082019150602081019050602083039250613e84565b6001836020036101000a038019825116818451168082178552505050505050905001915050908152602001604051809103902060009054906101000a900460ff16613f3d576040517f08c379a000000000000000000000000000000000000000000000000000000000815260040180806020018281038252604e8152602001806168db604e913960600191505060405180910390fd5b816001826040518082805190602001908083835b60208310613f745780518252602082019150602081019050602083039250613f51565b6001836020036101000a038019825116818451168082178552505050505050905001915050908152602001604051809103902081905550505050565b6000600754821061400c576040517f08c379a00000000000000000000000000000000000000000000000000000000081526004018080602001828103825260728152602001806162ed6072913960800191505060405180910390fd5b600080905060606040518060200160405280600081525090505b600115614161576005816040518082805190602001908083835b602083106140635780518252602082019150602081019050602083039250614040565b6001836020036101000a0380198251168184511680821785525050505050509050019150509081526020016040518091039020600060011515151581526020019081526020016000208054600181600116156101000203166002900480601f0160208091040260200160405190810160405280929190818152602001828054600181600116156101000203166002900480156141405780601f1061411557610100808354040283529160200191614140565b820191906000526020600020905b81548152906001019060200180831161412357829003601f168201915b505050505090508382141561415457614161565b8180600101925050614026565b61416a816156ce565b92505050919050565b6000600a60009054906101000a900473ffffffffffffffffffffffffffffffffffffffff1673ffffffffffffffffffffffffffffffffffffffff1663bcf383a8836040518263ffffffff1660e01b81526004018082815260200191505060206040518083038186803b1580156141e857600080fd5b505afa1580156141fc573d6000803e3d6000fd5b505050506040513d602081101561421257600080fd5b81019080805190602001909291905050509050919050565b6000600660008373ffffffffffffffffffffffffffffffffffffffff1673ffffffffffffffffffffffffffffffffffffffff16815260200190815260200160002060009054906101000a900460ff169050919050565b6000600460003373ffffffffffffffffffffffffffffffffffffffff1673ffffffffffffffffffffffffffffffffffffffff1681526020019081526020016000205411614318576040517f08c379a00000000000000000000000000000000000000000000000000000000081526004018080602001828103825260568152602001806164cf6056913960600191505060405180910390fd5b61433181604051806020016040528060008152506154de565b15614387576040517f08c379a000000000000000000000000000000000000000000000000000000000815260040180806020018281038252604a815260200180616853604a913960600191505060405180910390fd5b80600860003373ffffffffffffffffffffffffffffffffffffffff1673ffffffffffffffffffffffffffffffffffffffff16815260200190815260200160002090805190602001906143da92919061616d565b5050565b6000600960008373ffffffffffffffffffffffffffffffffffffffff1673ffffffffffffffffffffffffffffffffffffffff16815260200190815260200160002060009054906101000a900460ff169050919050565b600660003373ffffffffffffffffffffffffffffffffffffffff1673ffffffffffffffffffffffffffffffffffffffff16815260200190815260200160002060009054906101000a900460ff1661448a576144e2565b80600960003373ffffffffffffffffffffffffffffffffffffffff1673ffffffffffffffffffffffffffffffffffffffff16815260200190815260200160002060006101000a81548160ff0219169083151502179055505b50565b600a60009054906101000a900473ffffffffffffffffffffffffffffffffffffffff1673ffffffffffffffffffffffffffffffffffffffff1663fc7d17fb33836040518363ffffffff1660e01b8152600401808373ffffffffffffffffffffffffffffffffffffffff1673ffffffffffffffffffffffffffffffffffffffff16815260200180602001828103825283818151815260200191508051906020019080838360005b838110156145a657808201518184015260208101905061458b565b50505050905090810190601f1680156145d35780820380516001836020036101000a031916815260200191505b509350505050600060405180830381600087803b1580156145f357600080fd5b505af1158015614607573d6000803e3d6000fd5b5050505050565b6000600460008373ffffffffffffffffffffffffffffffffffffffff1673ffffffffffffffffffffffffffffffffffffffff168152602001908152602001600020549050919050565b600a60009054906101000a900473ffffffffffffffffffffffffffffffffffffffff1673ffffffffffffffffffffffffffffffffffffffff1663c95aaad933836040518363ffffffff1660e01b8152600401808373ffffffffffffffffffffffffffffffffffffffff1673ffffffffffffffffffffffffffffffffffffffff16815260200180602001828103825283818151815260200191508051906020019080838360005b838110156147185780820151818401526020810190506146fd565b50505050905090810190601f1680156147455780820380516001836020036101000a031916815260200191505b509350505050600060405180830381600087803b15801561476557600080fd5b505af1158015614779573d6000803e3d6000fd5b5050505050565b6000600a60009054906101000a900473ffffffffffffffffffffffffffffffffffffffff16905090565b6000600754905090565b6147cd81604051806020016040528060008152506154de565b15614823576040517f08c379a00000000000000000000000000000000000000000000000000000000081526004018080602001828103825260458152602001806162546045913960600191505060405180910390fd5b606061482f3383614da8565b90506003816040518082805190602001908083835b602083106148675780518252602082019150602081019050602083039250614844565b6001836020036101000a038019825116818451168082178552505050505050905001915050908152602001604051809103902060009054906101000a900460ff16156148b35750614da5565b6000600260003373ffffffffffffffffffffffffffffffffffffffff1673ffffffffffffffffffffffffffffffffffffffff16815260200190815260200160002090506040518060200160405280600081525081846040518082805190602001908083835b6020831061493b5780518252602082019150602081019050602083039250614918565b6001836020036101000a0380198251168184511680821785525050505050509050019150509081526020016040518091039020600080151515158152602001908152602001600020908051906020019061499692919061616d565b5080604051806020016040528060008152506040518082805190602001908083835b602083106149db57805182526020820191506020810190506020830392506149b8565b6001836020036101000a03801982511681845116808217855250505050505090500191505090815260200160405180910390206000600115151515815260200190815260200160002081846040518082805190602001908083835b60208310614a595780518252602082019150602081019050602083039250614a36565b6001836020036101000a0380198251168184511680821785525050505050509050019150509081526020016040518091039020600060011515151581526020019081526020016000209080546001816001161561010002031660029004614ac192919061609e565b50828182604051806020016040528060008152506040518082805190602001908083835b60208310614b085780518252602082019150602081019050602083039250614ae5565b6001836020036101000a0380198251168184511680821785525050505050509050019150509081526020016040518091039020600060011515151581526020019081526020016000206040518082805460018160011615610100020316600290048015614bac5780601f10614b8a576101008083540402835291820191614bac565b820191906000526020600020905b815481529060010190602001808311614b98575b505091505090815260200160405180910390206000801515151581526020019081526020016000209080519060200190614be792919061616d565b508281604051806020016040528060008152506040518082805190602001908083835b60208310614c2d5780518252602082019150602081019050602083039250614c0a565b6001836020036101000a0380198251168184511680821785525050505050509050019150509081526020016040518091039020600060011515151581526020019081526020016000209080519060200190614c8992919061616d565b50614cd4600460003373ffffffffffffffffffffffffffffffffffffffff1673ffffffffffffffffffffffffffffffffffffffff168152602001908152602001600020546001615927565b600460003373ffffffffffffffffffffffffffffffffffffffff1673ffffffffffffffffffffffffffffffffffffffff1681526020019081526020016000208190555060016003836040518082805190602001908083835b60208310614d4f5780518252602082019150602081019050602083039250614d2c565b6001836020036101000a038019825116818451168082178552505050505050905001915050908152602001604051809103902060006101000a81548160ff021916908315150217905550614da2336159af565b50505b50565b6060614db383615e1d565b6040518060400160405280600181526020017f5f00000000000000000000000000000000000000000000000000000000000000815250836040516020018084805190602001908083835b60208310614e205780518252602082019150602081019050602083039250614dfd565b6001836020036101000a03801982511681845116808217855250505050505090500183805190602001908083835b60208310614e715780518252602082019150602081019050602083039250614e4e565b6001836020036101000a03801982511681845116808217855250505050505090500182805190602001908083835b60208310614ec25780518252602082019150602081019050602083039250614e9f565b6001836020036101000a0380198251168184511680821785525050505050509050019350505050604051602081830303815290604052905092915050565b600082821115614f5b576040517f08c379a00000000000000000000000000000000000000000000000000000000081526004018080602001828103825260288152602001806166bf6028913960400191505060405180910390fd5b600082840390508091505092915050565b6060614f7782615e1d565b9050600660008373ffffffffffffffffffffffffffffffffffffffff1673ffffffffffffffffffffffffffffffffffffffff16815260200190815260200160002060009054906101000a900460ff16614fd057506154db565b6005816040518082805190602001908083835b602083106150065780518252602082019150602081019050602083039250614fe3565b6001836020036101000a038019825116818451168082178552505050505050905001915050908152602001604051809103902060006001151515158152602001908152602001600020600580836040518082805190602001908083835b602083106150865780518252602082019150602081019050602083039250615063565b6001836020036101000a038019825116818451168082178552505050505050905001915050908152602001604051809103902060008015151515815260200190815260200160002060405180828054600181600116156101000203166002900480156151295780601f10615107576101008083540402835291820191615129565b820191906000526020600020905b815481529060010190602001808311615115575b5050915050908152602001604051809103902060006001151515158152602001908152602001600020908054600181600116156101000203166002900461517192919061609e565b506005816040518082805190602001908083835b602083106151a85780518252602082019150602081019050602083039250615185565b6001836020036101000a0380198251168184511680821785525050505050509050019150509081526020016040518091039020600080151515158152602001908152602001600020600580836040518082805190602001908083835b602083106152275780518252602082019150602081019050602083039250615204565b6001836020036101000a03801982511681845116808217855250505050505090500191505090815260200160405180910390206000600115151515815260200190815260200160002060405180828054600181600116156101000203166002900480156152cb5780601f106152a95761010080835404028352918201916152cb565b820191906000526020600020905b8154815290600101906020018083116152b7575b50509150509081526020016040518091039020600080151515158152602001908152602001600020908054600181600116156101000203166002900461531292919061609e565b506005816040518082805190602001908083835b602083106153495780518252602082019150602081019050602083039250615326565b6001836020036101000a0380198251168184511680821785525050505050509050019150509081526020016040518091039020600080151515158152602001908152602001600020600061539d9190616125565b6005816040518082805190602001908083835b602083106153d357805182526020820191506020810190506020830392506153b0565b6001836020036101000a03801982511681845116808217855250505050505090500191505090815260200160405180910390206000600115151515815260200190815260200160002060006154289190616125565b6154356007546001614f00565b600781905550600660008373ffffffffffffffffffffffffffffffffffffffff1673ffffffffffffffffffffffffffffffffffffffff16815260200190815260200160002060006101000a81549060ff0219169055600960008373ffffffffffffffffffffffffffffffffffffffff1673ffffffffffffffffffffffffffffffffffffffff16815260200190815260200160002060006101000a81549060ff0219169055505b50565b6000816040516020018082805190602001908083835b6020831061551757805182526020820191506020810190506020830392506154f4565b6001836020036101000a03801982511681845116808217855250505050505090500191505060405160208183030381529060405280519060200120836040516020018082805190602001908083835b602083106155895780518252602082019150602081019050602083039250615566565b6001836020036101000a0380198251168184511680821785525050505050509050019150506040516020818303038152906040528051906020012014905092915050565b6000808314806155dd5750600082145b156155eb57600090506156b9565b60008284029050828482816155fc57fe5b0414615653576040517f08c379a000000000000000000000000000000000000000000000000000000000815260040180806020018281038252602b815260200180616929602b913960400191505060405180910390fd5b8383828161565d57fe5b04146156b4576040517f08c379a000000000000000000000000000000000000000000000000000000000815260040180806020018281038252602b815260200180616929602b913960400191505060405180910390fd5b809150505b92915050565b60008082905080915050919050565b6000606082905060008090506000806000600290505b602a81101561591a576101008402935084818151811061570057fe5b602001015160f81c60f81b60f81c60ff16925084600182018151811061572257fe5b602001015160f81c60f81b60f81c60ff16915060618373ffffffffffffffffffffffffffffffffffffffff1610158015615773575060668373ffffffffffffffffffffffffffffffffffffffff1611155b156157835760578303925061581d565b60418373ffffffffffffffffffffffffffffffffffffffff16101580156157c1575060468373ffffffffffffffffffffffffffffffffffffffff1611155b156157d15760378303925061581c565b60308373ffffffffffffffffffffffffffffffffffffffff161015801561580f575060398373ffffffffffffffffffffffffffffffffffffffff1611155b1561581b576030830392505b5b5b60618273ffffffffffffffffffffffffffffffffffffffff161015801561585b575060668273ffffffffffffffffffffffffffffffffffffffff1611155b1561586b57605782039150615905565b60418273ffffffffffffffffffffffffffffffffffffffff16101580156158a9575060468273ffffffffffffffffffffffffffffffffffffffff1611155b156158b957603782039150615904565b60308273ffffffffffffffffffffffffffffffffffffffff16101580156158f7575060398273ffffffffffffffffffffffffffffffffffffffff1611155b15615903576030820391505b5b5b816010840201840193506002810190506156e4565b5082945050505050919050565b6000808284019050838110156159a5576040517f08c379a00000000000000000000000000000000000000000000000000000000081526004018080602001828103825260208152602001807f5f736166654d617468416464203a204164646974696f6e204f766572666c6f7781525060200191505060405180910390fd5b8091505092915050565b60606159ba82615e1d565b9050600660008373ffffffffffffffffffffffffffffffffffffffff1673ffffffffffffffffffffffffffffffffffffffff16815260200190815260200160002060009054906101000a900460ff1615615a145750615e1a565b604051806020016040528060008152506005826040518082805190602001908083835b60208310615a5a5780518252602082019150602081019050602083039250615a37565b6001836020036101000a03801982511681845116808217855250505050505090500191505090815260200160405180910390206000801515151581526020019081526020016000209080519060200190615ab592919061616d565b506005604051806020016040528060008152506040518082805190602001908083835b60208310615afb5780518252602082019150602081019050602083039250615ad8565b6001836020036101000a0380198251168184511680821785525050505050509050019150509081526020016040518091039020600060011515151581526020019081526020016000206005826040518082805190602001908083835b60208310615b7a5780518252602082019150602081019050602083039250615b57565b6001836020036101000a0380198251168184511680821785525050505050509050019150509081526020016040518091039020600060011515151581526020019081526020016000209080546001816001161561010002031660029004615be292919061609e565b5080600580604051806020016040528060008152506040518082805190602001908083835b60208310615c2a5780518252602082019150602081019050602083039250615c07565b6001836020036101000a0380198251168184511680821785525050505050509050019150509081526020016040518091039020600060011515151581526020019081526020016000206040518082805460018160011615610100020316600290048015615cce5780601f10615cac576101008083540402835291820191615cce565b820191906000526020600020905b815481529060010190602001808311615cba575b505091505090815260200160405180910390206000801515151581526020019081526020016000209080519060200190615d0992919061616d565b50806005604051806020016040528060008152506040518082805190602001908083835b60208310615d505780518252602082019150602081019050602083039250615d2d565b6001836020036101000a0380198251168184511680821785525050505050509050019150509081526020016040518091039020600060011515151581526020019081526020016000209080519060200190615dac92919061616d565b50615dba6007546001615927565b6007819055506001600660008473ffffffffffffffffffffffffffffffffffffffff1673ffffffffffffffffffffffffffffffffffffffff16815260200190815260200160002060006101000a81548160ff021916908315150217905550505b50565b606060008273ffffffffffffffffffffffffffffffffffffffff1660001b905060606040518060400160405280601081526020017f303132333435363738396162636465660000000000000000000000000000000081525090506060602a6040519080825280601f01601f191660200182016040528015615ead5781602001600182028038833980820191505090505b5090507f300000000000000000000000000000000000000000000000000000000000000081600081518110615ede57fe5b60200101907effffffffffffffffffffffffffffffffffffffffffffffffffffffffffffff1916908160001a9053507f780000000000000000000000000000000000000000000000000000000000000081600181518110615f3b57fe5b60200101907effffffffffffffffffffffffffffffffffffffffffffffffffffffffffffff1916908160001a90535060008090505b60148110156160925782600485600c840160208110615f8b57fe5b1a60f81b7effffffffffffffffffffffffffffffffffffffffffffffffffffffffffffff1916901c60f81c60ff1681518110615fc357fe5b602001015160f81c60f81b826002830260020181518110615fe057fe5b60200101907effffffffffffffffffffffffffffffffffffffffffffffffffffffffffffff1916908160001a90535082600f60f81b85600c84016020811061602457fe5b1a60f81b1660f81c60ff168151811061603957fe5b602001015160f81c60f81b82600283026003018151811061605657fe5b60200101907effffffffffffffffffffffffffffffffffffffffffffffffffffffffffffff1916908160001a9053508080600101915050615f70565b50809350505050919050565b828054600181600116156101000203166002900490600052602060002090601f016020900481019282601f106160d75780548555616114565b8280016001018555821561611457600052602060002091601f016020900482015b828111156161135782548255916001019190600101906160f8565b5b50905061612191906161ed565b5090565b50805460018160011615610100020316600290046000825580601f1061614b575061616a565b601f01602090049060005260206000209081019061616991906161ed565b5b50565b828054600181600116156101000203166002900490600052602060002090601f016020900481019282601f106161ae57805160ff19168380011785556161dc565b828001600101855582156161dc579182015b828111156161db5782518255916020019190600101906161c0565b5b5090506161e991906161ed565b5090565b61620f91905b8082111561620b5760008160009055506001016161f3565b5090565b9056fe4d757374207075726368617365206174206c656173742031207175616e74697479206f6620746865204974656d20666f722053616c6520746f2068617070656e2143616e6e6f74206861766520616e20656d70747920537472696e6720666f722074686520495046532048617368204b6579206f6620616e204974656d20746f2053656c6c2143616e6e6f74206861766520616e20656d70747920537472696e6720666f722074686520495046532048617368204b6579206f6620746865204d656469617465642053616c6573205472616e73616374696f6e21496e6465782076616c756520676976656e2069732067726561746572207468616e206f7220657175616c20746f20746865204e756d626572206f662053656c6c657273212049742073686f756c64206265206c657373207468616e20746865204e756d626572206f662053656c6c65727321476976656e20495046532048617368206f66204974656d206973206e6f74206c697374656420617320616e204974656d20466f722053616c652066726f6d207468652053656c6c6572214672616e6b6c696e446563656e7472616c697a65644d61726b6574706c61636520436f6e7472616374207265666572656e636573206973204e4f54206f776e6564206f72206465706c6f7965642062792054484953204672616e6b6c696e446563656e7472616c697a65644d61726b6574706c61636520436f6e747261637421476976656e20495046532048617368206f66204974656d206973206e6f74206c697374656420617320616e204974656d20466f722053616c6520666f7220796f75202d207468652053656c6c657221536f6d657468696e6720686f727269626c792077726f6e6721204672616e6b6c696e446563656e7472616c697a65644d61726b6574706c6163654d6564696174696f6e20436f6e74726163742074686174207468697320596f75206d75737420666972737420616464206174206c65617374204f4e45204974656d20466f722053616c65206265666f726520616464696e672061206465736372697074696f6e206f6620796f757273656c66215175616e7469747920617661696c61626c6520466f722053616c65206f6620746865204974656d2066726f6d207468652053656c6c6572206973206c657373207468616e20746865207175616e746974792072657175657374656420746f20707572636861736521204e6f7420656e6f756768206f6620746865204974656e6d20617661696c61626c6520466f722053616c6543616e6e6f74206861766520616e20656d70747920537472696e6720666f722074686520495046532048617368204b6579206f6620616e204974656d214e6f7420656e6f756768204554482f574549207761732073656e7420746f20707572636861736520746865207175616e7469747920726571756573746564206f6620746865204974656d2153656c6c657220686173205a65726f207175616e7469747920617661696c61626c6520666f722053616c6520666f7220746865204974656d2072657175657374656420746f20707572636861736521476976656e2053656c6c6572204164647265737320646f6573206e6f7420657869737420617320612053656c6c6572215f736166654d6174685375627472616374203a205375627472616374696f6e204f766572666c6f775468652053656c6c657220686173206e6f742079657420736574206120507269636520666f722053616c6520666f722074686520726571756573746564204974656d212043616e6e6f7420707572636861736520746865204974656d2143616e6e6f74206861766520616e20656d70747920537472696e6720666f722074686520495046532048617368204b6579206f6620616e204974656d20796f75206172652070757263686173696e672154686520427579657220416464726573732063616e6e6f74206265207468652073616d65206173207468652053656c6c657220416464726573732154686520427579657220416464726573732063616e6e6f74206265207468652073616d6520617320746865204d65646961746f722041646472657373214e6f7420656e6f75676820455448207761732073656e7420746f20707572636861736520746865207175616e7469747920726571756573746564206f6620746865204974656d2143616e6e6f74206861766520616e20656d70747920537472696e6720666f722074686520495046532048617368204b6579204465736372697074696f6e206f6620612053656c6c6572215468652053656c6c657220416464726573732063616e6e6f74206265207468652073616d6520617320746865204d65646961746f72204164647265737321476976656e20495046532048617368206f66204974656d206973206e6f74206c697374656420617320616e204974656d20466f722053616c6520627920796f75202d207468652053656c6c6572215f736166654d6174684d756c7469706c79203a204d756c7469706c69636174696f6e204f766572666c6f77a165627a7a72305820d4915a26b9f4066e9c870136cf30377ede3d8706ed3f6fc4f267f475c3b326f00029608060405234801561001057600080fd5b5033600a60006101000a81548173ffffffffffffffffffffffffffffffffffffffff021916908373ffffffffffffffffffffffffffffffffffffffff1602179055506144c6806100616000396000f3fe608060405234801561001057600080fd5b50600436106100f55760003560e01c8063bcf383a811610097578063f0a750c011610066578063f0a750c01461062a578063f409398f14610705578063fc7d17fb14610727578063ff670a2f14610802576100f5565b8063bcf383a814610339578063c63b7eb4146103a7578063c95aaad9146104cc578063dc82f054146105a7576100f5565b80633ffcf36f116100d35780633ffcf36f146101be57806340c31a8c146102165780637e0ab220146102d35780638116e5fb146102f5576100f5565b80630ad2c9d1146100fa5780631a67405c14610118578063331d7ce914610174575b600080fd5b61010261084c565b6040518082815260200191505060405180910390f35b61015a6004803603602081101561012e57600080fd5b81019080803573ffffffffffffffffffffffffffffffffffffffff1690602001909291905050506108fc565b604051808215151515815260200191505060405180910390f35b61017c6109f8565b604051808273ffffffffffffffffffffffffffffffffffffffff1673ffffffffffffffffffffffffffffffffffffffff16815260200191505060405180910390f35b610200600480360360208110156101d457600080fd5b81019080803573ffffffffffffffffffffffffffffffffffffffff169060200190929190505050610a1e565b6040518082815260200191505060405180910390f35b6102586004803603602081101561022c57600080fd5b81019080803573ffffffffffffffffffffffffffffffffffffffff169060200190929190505050610baf565b6040518080602001828103825283818151815260200191508051906020019080838360005b8381101561029857808201518184015260208101905061027d565b50505050905090810190601f1680156102c55780820380516001836020036101000a031916815260200191505b509250505060405180910390f35b6102db610d36565b604051808215151515815260200191505060405180910390f35b6103376004803603602081101561030b57600080fd5b81019080803573ffffffffffffffffffffffffffffffffffffffff169060200190929190505050610d3b565b005b6103656004803603602081101561034f57600080fd5b8101908080359060200190929190505050610ded565b604051808273ffffffffffffffffffffffffffffffffffffffff1673ffffffffffffffffffffffffffffffffffffffff16815260200191505060405180910390f35b6104ca600480360360a08110156103bd57600080fd5b81019080803573ffffffffffffffffffffffffffffffffffffffff169060200190929190803573ffffffffffffffffffffffffffffffffffffffff169060200190929190803573ffffffffffffffffffffffffffffffffffffffff1690602001909291908035906020019064010000000081111561043a57600080fd5b82018360208201111561044c57600080fd5b8035906020019184600183028401116401000000008311171561046e57600080fd5b91908080601f016020809104026020016040519081016040528093929190818152602001838380828437600081840152601f19601f82011690508083019250505050505050919291929080359060200190929190505050611056565b005b6105a5600480360360408110156104e257600080fd5b81019080803573ffffffffffffffffffffffffffffffffffffffff1690602001909291908035906020019064010000000081111561051f57600080fd5b82018360208201111561053157600080fd5b8035906020019184600183028401116401000000008311171561055357600080fd5b91908080601f016020809104026020016040519081016040528093929190818152602001838380828437600081840152601f19601f82011690508083019250505050505050919291929050505061160e565b005b6105af611ec9565b6040518080602001828103825283818151815260200191508051906020019080838360005b838110156105ef5780820151818401526020810190506105d4565b50505050905090810190601f16801561061c5780820380516001836020036101000a031916815260200191505b509250505060405180910390f35b6107036004803603604081101561064057600080fd5b81019080803573ffffffffffffffffffffffffffffffffffffffff1690602001909291908035906020019064010000000081111561067d57600080fd5b82018360208201111561068f57600080fd5b803590602001918460018302840111640100000000831117156106b157600080fd5b91908080601f016020809104026020016040519081016040528093929190818152602001838380828437600081840152601f19601f820116905080830192505050505050509192919290505050611edc565b005b61070d6128a3565b604051808215151515815260200191505060405180910390f35b6108006004803603604081101561073d57600080fd5b81019080803573ffffffffffffffffffffffffffffffffffffffff1690602001909291908035906020019064010000000081111561077a57600080fd5b82018360208201111561078c57600080fd5b803590602001918460018302840111640100000000831117156107ae57600080fd5b91908080601f016020809104026020016040519081016040528093929190818152602001838380828437600081840152601f19601f8201169050808301925050505050505091929192905050506128a8565b005b61080a612a1e565b604051808273ffffffffffffffffffffffffffffffffffffffff1673ffffffffffffffffffffffffffffffffffffffff16815260200191505060405180910390f35b6000600a60009054906101000a900473ffffffffffffffffffffffffffffffffffffffff1673ffffffffffffffffffffffffffffffffffffffff163373ffffffffffffffffffffffffffffffffffffffff16146108f4576040517f08c379a000000000000000000000000000000000000000000000000000000000815260040180806020018281038252605d8152602001806141db605d913960600191505060405180910390fd5b600254905090565b6000600a60009054906101000a900473ffffffffffffffffffffffffffffffffffffffff1673ffffffffffffffffffffffffffffffffffffffff163373ffffffffffffffffffffffffffffffffffffffff16146109a4576040517f08c379a000000000000000000000000000000000000000000000000000000000815260040180806020018281038252605d8152602001806141db605d913960600191505060405180910390fd5b600160008373ffffffffffffffffffffffffffffffffffffffff1673ffffffffffffffffffffffffffffffffffffffff16815260200190815260200160002060009054906101000a900460ff169050919050565b600a60009054906101000a900473ffffffffffffffffffffffffffffffffffffffff1681565b6000600a60009054906101000a900473ffffffffffffffffffffffffffffffffffffffff1673ffffffffffffffffffffffffffffffffffffffff163373ffffffffffffffffffffffffffffffffffffffff1614610ac6576040517f08c379a000000000000000000000000000000000000000000000000000000000815260040180806020018281038252605d8152602001806141db605d913960600191505060405180910390fd5b600160008373ffffffffffffffffffffffffffffffffffffffff1673ffffffffffffffffffffffffffffffffffffffff16815260200190815260200160002060009054906101000a900460ff16610b68576040517f08c379a000000000000000000000000000000000000000000000000000000000815260040180806020018281038252603481526020018061443c6034913960400191505060405180910390fd5b600460008373ffffffffffffffffffffffffffffffffffffffff1673ffffffffffffffffffffffffffffffffffffffff168152602001908152602001600020549050919050565b6060600a60009054906101000a900473ffffffffffffffffffffffffffffffffffffffff1673ffffffffffffffffffffffffffffffffffffffff163373ffffffffffffffffffffffffffffffffffffffff1614610c57576040517f08c379a000000000000000000000000000000000000000000000000000000000815260040180806020018281038252605d8152602001806141db605d913960600191505060405180910390fd5b600360008373ffffffffffffffffffffffffffffffffffffffff1673ffffffffffffffffffffffffffffffffffffffff1681526020019081526020016000208054600181600116156101000203166002900480601f016020809104026020016040519081016040528092919081815260200182805460018160011615610100020316600290048015610d2a5780601f10610cff57610100808354040283529160200191610d2a565b820191906000526020600020905b815481529060010190602001808311610d0d57829003601f168201915b50505050509050919050565b600081565b600a60009054906101000a900473ffffffffffffffffffffffffffffffffffffffff1673ffffffffffffffffffffffffffffffffffffffff163373ffffffffffffffffffffffffffffffffffffffff1614610de1576040517f08c379a000000000000000000000000000000000000000000000000000000000815260040180806020018281038252605d8152602001806141db605d913960600191505060405180910390fd5b610dea81612aee565b50565b6000600a60009054906101000a900473ffffffffffffffffffffffffffffffffffffffff1673ffffffffffffffffffffffffffffffffffffffff163373ffffffffffffffffffffffffffffffffffffffff1614610e95576040517f08c379a000000000000000000000000000000000000000000000000000000000815260040180806020018281038252605d8152602001806141db605d913960600191505060405180910390fd5b6002548210610eef576040517f08c379a00000000000000000000000000000000000000000000000000000000081526004018080602001828103825260768152602001806142ad6076913960800191505060405180910390fd5b600080905060606040518060200160405280600081525090505b600115611044576000816040518082805190602001908083835b60208310610f465780518252602082019150602081019050602083039250610f23565b6001836020036101000a0380198251168184511680821785525050505050509050019150509081526020016040518091039020600060011515151581526020019081526020016000208054600181600116156101000203166002900480601f0160208091040260200160405190810160405280929190818152602001828054600181600116156101000203166002900480156110235780601f10610ff857610100808354040283529160200191611023565b820191906000526020600020905b81548152906001019060200180831161100657829003601f168201915b505050505090508382141561103757611044565b8180600101925050610f09565b61104d81613010565b92505050919050565b600a60009054906101000a900473ffffffffffffffffffffffffffffffffffffffff1673ffffffffffffffffffffffffffffffffffffffff163373ffffffffffffffffffffffffffffffffffffffff16146110fc576040517f08c379a000000000000000000000000000000000000000000000000000000000815260040180806020018281038252605d8152602001806141db605d913960600191505060405180910390fd5b6006826040518082805190602001908083835b60208310611132578051825260208201915060208101905060208303925061110f565b6001836020036101000a038019825116818451168082178552505050505050905001915050908152602001604051809103902060009054906101000a900460ff16156111c9576040517f08c379a000000000000000000000000000000000000000000000000000000000815260040180806020018281038252602a815260200180614238602a913960400191505060405180910390fd5b600160008473ffffffffffffffffffffffffffffffffffffffff1673ffffffffffffffffffffffffffffffffffffffff16815260200190815260200160002060009054906101000a900460ff1661126b576040517f08c379a000000000000000000000000000000000000000000000000000000000815260040180806020018281038252603481526020018061443c6034913960400191505060405180910390fd5b60016006836040518082805190602001908083835b602083106112a35780518252602082019150602081019050602083039250611280565b6001836020036101000a038019825116818451168082178552505050505050905001915050908152602001604051809103902060006101000a81548160ff021916908315150217905550846005836040518082805190602001908083835b602083106113245780518252602082019150602081019050602083039250611301565b6001836020036101000a038019825116818451168082178552505050505050905001915050908152602001604051809103902060006003811061136357fe5b0160006101000a81548173ffffffffffffffffffffffffffffffffffffffff021916908373ffffffffffffffffffffffffffffffffffffffff160217905550836005836040518082805190602001908083835b602083106113d957805182526020820191506020810190506020830392506113b6565b6001836020036101000a038019825116818451168082178552505050505050905001915050908152602001604051809103902060016003811061141857fe5b0160006101000a81548173ffffffffffffffffffffffffffffffffffffffff021916908373ffffffffffffffffffffffffffffffffffffffff160217905550826005836040518082805190602001908083835b6020831061148e578051825260208201915060208101905060208303925061146b565b6001836020036101000a03801982511681845116808217855250505050505090500191505090815260200160405180910390206002600381106114cd57fe5b0160006101000a81548173ffffffffffffffffffffffffffffffffffffffff021916908373ffffffffffffffffffffffffffffffffffffffff160217905550806007836040518082805190602001908083835b602083106115435780518252602082019150602081019050602083039250611520565b6001836020036101000a0380198251168184511680821785525050505050509050019150509081526020016040518091039020819055506115c4600460008573ffffffffffffffffffffffffffffffffffffffff1673ffffffffffffffffffffffffffffffffffffffff168152602001908152602001600020546001613269565b600460008573ffffffffffffffffffffffffffffffffffffffff1673ffffffffffffffffffffffffffffffffffffffff168152602001908152602001600020819055505050505050565b600a60009054906101000a900473ffffffffffffffffffffffffffffffffffffffff1673ffffffffffffffffffffffffffffffffffffffff163373ffffffffffffffffffffffffffffffffffffffff16146116b4576040517f08c379a000000000000000000000000000000000000000000000000000000000815260040180806020018281038252605d8152602001806141db605d913960600191505060405180910390fd5b6006816040518082805190602001908083835b602083106116ea57805182526020820191506020810190506020830392506116c7565b6001836020036101000a038019825116818451168082178552505050505050905001915050908152602001604051809103902060009054906101000a900460ff16611780576040517f08c379a000000000000000000000000000000000000000000000000000000000815260040180806020018281038252603a81526020018061436f603a913960400191505060405180910390fd5b60008273ffffffffffffffffffffffffffffffffffffffff166005836040518082805190602001908083835b602083106117cf57805182526020820191506020810190506020830392506117ac565b6001836020036101000a038019825116818451168082178552505050505050905001915050908152602001604051809103902060006003811061180e57fe5b0160009054906101000a900473ffffffffffffffffffffffffffffffffffffffff1673ffffffffffffffffffffffffffffffffffffffff16148061191357508273ffffffffffffffffffffffffffffffffffffffff166005836040518082805190602001908083835b6020831061189a5780518252602082019150602081019050602083039250611877565b6001836020036101000a03801982511681845116808217855250505050505090500191505090815260200160405180910390206001600381106118d957fe5b0160009054906101000a900473ffffffffffffffffffffffffffffffffffffffff1673ffffffffffffffffffffffffffffffffffffffff16145b806119df57508273ffffffffffffffffffffffffffffffffffffffff166005836040518082805190602001908083835b602083106119665780518252602082019150602081019050602083039250611943565b6001836020036101000a03801982511681845116808217855250505050505090500191505090815260200160405180910390206002600381106119a557fe5b0160009054906101000a900473ffffffffffffffffffffffffffffffffffffffff1673ffffffffffffffffffffffffffffffffffffffff16145b905080611a37576040517f08c379a00000000000000000000000000000000000000000000000000000000081526004018080602001828103825260778152602001806140af6077913960800191505060405180910390fd5b611a40826132f1565b15611a96576040517f08c379a00000000000000000000000000000000000000000000000000000000081526004018080602001828103825260938152602001806143a96093913960a00191505060405180910390fd5b600080905060008090505b6003811015611b84578473ffffffffffffffffffffffffffffffffffffffff166005856040518082805190602001908083835b60208310611af75780518252602082019150602081019050602083039250611ad4565b6001836020036101000a03801982511681845116808217855250505050505090500191505090815260200160405180910390208260038110611b3557fe5b0160009054906101000a900473ffffffffffffffffffffffffffffffffffffffff1673ffffffffffffffffffffffffffffffffffffffff161415611b77578091505b8080600101915050611aa1565b50611b8e836133ba565b15611c2f5760016009846040518082805190602001908083835b60208310611bcb5780518252602082019150602081019050602083039250611ba8565b6001836020036101000a03801982511681845116808217855250505050505090500191505090815260200160405180910390208260038110611c0957fe5b602091828204019190066101000a81548160ff0219169083151502179055505050611ec5565b60006008846040518082805190602001908083835b60208310611c675780518252602082019150602081019050602083039250611c44565b6001836020036101000a03801982511681845116808217855250505050505090500191505090815260200160405180910390208260038110611ca557fe5b602091828204019190066101000a81548160ff02191690831515021790555060016009846040518082805190602001908083835b60208310611cfc5780518252602082019150602081019050602083039250611cd9565b6001836020036101000a03801982511681845116808217855250505050505090500191505090815260200160405180910390208260038110611d3a57fe5b602091828204019190066101000a81548160ff021916908315150217905550611d62836132f1565b15611ec25760006007846040518082805190602001908083835b60208310611d9f5780518252602082019150602081019050602083039250611d7c565b6001836020036101000a03801982511681845116808217855250505050505090500191505090815260200160405180910390205490506000611e766005866040518082805190602001908083835b60208310611e105780518252602082019150602081019050602083039250611ded565b6001836020036101000a0380198251168184511680821785525050505050509050019150509081526020016040518091039020600060038110611e4f57fe5b0160009054906101000a900473ffffffffffffffffffffffffffffffffffffffff16613483565b90508073ffffffffffffffffffffffffffffffffffffffff166108fc839081150290604051600060405180830381858888f19350505050158015611ebe573d6000803e3d6000fd5b5050505b50505b5050565b6040518060200160405280600081525081565b600a60009054906101000a900473ffffffffffffffffffffffffffffffffffffffff1673ffffffffffffffffffffffffffffffffffffffff163373ffffffffffffffffffffffffffffffffffffffff1614611f82576040517f08c379a000000000000000000000000000000000000000000000000000000000815260040180806020018281038252605d8152602001806141db605d913960600191505060405180910390fd5b6006816040518082805190602001908083835b60208310611fb85780518252602082019150602081019050602083039250611f95565b6001836020036101000a038019825116818451168082178552505050505050905001915050908152602001604051809103902060009054906101000a900460ff1661204e576040517f08c379a000000000000000000000000000000000000000000000000000000000815260040180806020018281038252603a81526020018061436f603a913960400191505060405180910390fd5b60008273ffffffffffffffffffffffffffffffffffffffff166005836040518082805190602001908083835b6020831061209d578051825260208201915060208101905060208303925061207a565b6001836020036101000a03801982511681845116808217855250505050505090500191505090815260200160405180910390206000600381106120dc57fe5b0160009054906101000a900473ffffffffffffffffffffffffffffffffffffffff1673ffffffffffffffffffffffffffffffffffffffff1614806121e157508273ffffffffffffffffffffffffffffffffffffffff166005836040518082805190602001908083835b602083106121685780518252602082019150602081019050602083039250612145565b6001836020036101000a03801982511681845116808217855250505050505090500191505090815260200160405180910390206001600381106121a757fe5b0160009054906101000a900473ffffffffffffffffffffffffffffffffffffffff1673ffffffffffffffffffffffffffffffffffffffff16145b806122ad57508273ffffffffffffffffffffffffffffffffffffffff166005836040518082805190602001908083835b602083106122345780518252602082019150602081019050602083039250612211565b6001836020036101000a038019825116818451168082178552505050505050905001915050908152602001604051809103902060026003811061227357fe5b0160009054906101000a900473ffffffffffffffffffffffffffffffffffffffff1673ffffffffffffffffffffffffffffffffffffffff16145b905080612305576040517f08c379a000000000000000000000000000000000000000000000000000000000815260040180806020018281038252607481526020018061403b6074913960800191505060405180910390fd5b61230e826133ba565b15612364576040517f08c379a00000000000000000000000000000000000000000000000000000000081526004018080602001828103825260938152602001806141486093913960a00191505060405180910390fd5b600080905060008090505b6003811015612452578473ffffffffffffffffffffffffffffffffffffffff166005856040518082805190602001908083835b602083106123c557805182526020820191506020810190506020830392506123a2565b6001836020036101000a0380198251168184511680821785525050505050509050019150509081526020016040518091039020826003811061240357fe5b0160009054906101000a900473ffffffffffffffffffffffffffffffffffffffff1673ffffffffffffffffffffffffffffffffffffffff161415612445578091505b808060010191505061236f565b5061245c836132f1565b156124fd5760016008846040518082805190602001908083835b602083106124995780518252602082019150602081019050602083039250612476565b6001836020036101000a038019825116818451168082178552505050505050905001915050908152602001604051809103902082600381106124d757fe5b602091828204019190066101000a81548160ff021916908315150217905550505061289f565b60016008846040518082805190602001908083835b602083106125355780518252602082019150602081019050602083039250612512565b6001836020036101000a0380198251168184511680821785525050505050509050019150509081526020016040518091039020826003811061257357fe5b602091828204019190066101000a81548160ff02191690831515021790555060006009846040518082805190602001908083835b602083106125ca57805182526020820191506020810190506020830392506125a7565b6001836020036101000a0380198251168184511680821785525050505050509050019150509081526020016040518091039020826003811061260857fe5b602091828204019190066101000a81548160ff021916908315150217905550612630836132f1565b1561289c5760006007846040518082805190602001908083835b6020831061266d578051825260208201915060208101905060208303925061264a565b6001836020036101000a038019825116818451168082178552505050505050905001915050908152602001604051809103902054905060006126b26005606484613492565b905060006126c083836134b5565b905060006127636005886040518082805190602001908083835b602083106126fd57805182526020820191506020810190506020830392506126da565b6001836020036101000a038019825116818451168082178552505050505050905001915050908152602001604051809103902060016003811061273c57fe5b0160009054906101000a900473ffffffffffffffffffffffffffffffffffffffff16613483565b905060006128066005896040518082805190602001908083835b602083106127a0578051825260208201915060208101905060208303925061277d565b6001836020036101000a03801982511681845116808217855250505050505090500191505090815260200160405180910390206002600381106127df57fe5b0160009054906101000a900473ffffffffffffffffffffffffffffffffffffffff16613483565b90508173ffffffffffffffffffffffffffffffffffffffff166108fc849081150290604051600060405180830381858888f1935050505015801561284e573d6000803e3d6000fd5b508073ffffffffffffffffffffffffffffffffffffffff166108fc859081150290604051600060405180830381858888f19350505050158015612895573d6000803e3d6000fd5b5050505050505b50505b5050565b600181565b600a60009054906101000a900473ffffffffffffffffffffffffffffffffffffffff1673ffffffffffffffffffffffffffffffffffffffff163373ffffffffffffffffffffffffffffffffffffffff161461294e576040517f08c379a000000000000000000000000000000000000000000000000000000000815260040180806020018281038252605d8152602001806141db605d913960600191505060405180910390fd5b6129678160405180602001604052806000815250613521565b156129bd576040517f08c379a000000000000000000000000000000000000000000000000000000000815260040180806020018281038252604c815260200180614323604c913960600191505060405180910390fd5b80600360008473ffffffffffffffffffffffffffffffffffffffff1673ffffffffffffffffffffffffffffffffffffffff1681526020019081526020016000209080519060200190612a10929190613ec6565b50612a1a82613610565b5050565b6000600a60009054906101000a900473ffffffffffffffffffffffffffffffffffffffff1673ffffffffffffffffffffffffffffffffffffffff163373ffffffffffffffffffffffffffffffffffffffff1614612ac6576040517f08c379a000000000000000000000000000000000000000000000000000000000815260040180806020018281038252605d8152602001806141db605d913960600191505060405180910390fd5b600a60009054906101000a900473ffffffffffffffffffffffffffffffffffffffff16905090565b600160008273ffffffffffffffffffffffffffffffffffffffff1673ffffffffffffffffffffffffffffffffffffffff16815260200190815260200160002060009054906101000a900460ff16612b445761300d565b6060612b4f82613a7c565b90506000816040518082805190602001908083835b60208310612b875780518252602082019150602081019050602083039250612b64565b6001836020036101000a038019825116818451168082178552505050505050905001915050908152602001604051809103902060006001151515158152602001908152602001600020600080836040518082805190602001908083835b60208310612c075780518252602082019150602081019050602083039250612be4565b6001836020036101000a03801982511681845116808217855250505050505090500191505090815260200160405180910390206000801515151581526020019081526020016000206040518082805460018160011615610100020316600290048015612caa5780601f10612c88576101008083540402835291820191612caa565b820191906000526020600020905b815481529060010190602001808311612c96575b50509150509081526020016040518091039020600060011515151581526020019081526020016000209080546001816001161561010002031660029004612cf2929190613f46565b506000816040518082805190602001908083835b60208310612d295780518252602082019150602081019050602083039250612d06565b6001836020036101000a0380198251168184511680821785525050505050509050019150509081526020016040518091039020600080151515158152602001908152602001600020600080836040518082805190602001908083835b60208310612da85780518252602082019150602081019050602083039250612d85565b6001836020036101000a0380198251168184511680821785525050505050509050019150509081526020016040518091039020600060011515151581526020019081526020016000206040518082805460018160011615610100020316600290048015612e4c5780601f10612e2a576101008083540402835291820191612e4c565b820191906000526020600020905b815481529060010190602001808311612e38575b505091505090815260200160405180910390206000801515151581526020019081526020016000209080546001816001161561010002031660029004612e93929190613f46565b506000816040518082805190602001908083835b60208310612eca5780518252602082019150602081019050602083039250612ea7565b6001836020036101000a03801982511681845116808217855250505050505090500191505090815260200160405180910390206000801515151581526020019081526020016000206000612f1e9190613fcd565b6000816040518082805190602001908083835b60208310612f545780518252602082019150602081019050602083039250612f31565b6001836020036101000a0380198251168184511680821785525050505050509050019150509081526020016040518091039020600060011515151581526020019081526020016000206000612fa99190613fcd565b612fb660025460016134b5565b600281905550600160008373ffffffffffffffffffffffffffffffffffffffff1673ffffffffffffffffffffffffffffffffffffffff16815260200190815260200160002060006101000a81549060ff0219169055505b50565b6000606082905060008090506000806000600290505b602a81101561325c576101008402935084818151811061304257fe5b602001015160f81c60f81b60f81c60ff16925084600182018151811061306457fe5b602001015160f81c60f81b60f81c60ff16915060618373ffffffffffffffffffffffffffffffffffffffff16101580156130b5575060668373ffffffffffffffffffffffffffffffffffffffff1611155b156130c55760578303925061315f565b60418373ffffffffffffffffffffffffffffffffffffffff1610158015613103575060468373ffffffffffffffffffffffffffffffffffffffff1611155b156131135760378303925061315e565b60308373ffffffffffffffffffffffffffffffffffffffff1610158015613151575060398373ffffffffffffffffffffffffffffffffffffffff1611155b1561315d576030830392505b5b5b60618273ffffffffffffffffffffffffffffffffffffffff161015801561319d575060668273ffffffffffffffffffffffffffffffffffffffff1611155b156131ad57605782039150613247565b60418273ffffffffffffffffffffffffffffffffffffffff16101580156131eb575060468273ffffffffffffffffffffffffffffffffffffffff1611155b156131fb57603782039150613246565b60308273ffffffffffffffffffffffffffffffffffffffff1610158015613239575060398273ffffffffffffffffffffffffffffffffffffffff1611155b15613245576030820391505b5b5b81601084020184019350600281019050613026565b5082945050505050919050565b6000808284019050838110156132e7576040517f08c379a00000000000000000000000000000000000000000000000000000000081526004018080602001828103825260208152602001807f5f736166654d617468416464203a204164646974696f6e204f766572666c6f7781525060200191505060405180910390fd5b8091505092915050565b6000806000905060008090505b60038110156133ac576008846040518082805190602001908083835b6020831061333d578051825260208201915060208101905060208303925061331a565b6001836020036101000a0380198251168184511680821785525050505050509050019150509081526020016040518091039020816003811061337b57fe5b602091828204019190069054906101000a900460ff161561339f5781806001019250505b80806001019150506132fe565b506002811015915050919050565b6000806000905060008090505b6003811015613475576009846040518082805190602001908083835b6020831061340657805182526020820191506020810190506020830392506133e3565b6001836020036101000a0380198251168184511680821785525050505050509050019150509081526020016040518091039020816003811061344457fe5b602091828204019190069054906101000a900460ff16156134685781806001019250505b80806001019150506133c7565b506002811015915050919050565b60008082905080915050919050565b60008061349f8584613cfd565b90506134ab8185613def565b9150509392505050565b600082821115613510576040517f08c379a00000000000000000000000000000000000000000000000000000000081526004018080602001828103825260288152602001806142856028913960400191505060405180910390fd5b600082840390508091505092915050565b6000816040516020018082805190602001908083835b6020831061355a5780518252602082019150602081019050602083039250613537565b6001836020036101000a03801982511681845116808217855250505050505090500191505060405160208183030381529060405280519060200120836040516020018082805190602001908083835b602083106135cc57805182526020820191506020810190506020830392506135a9565b6001836020036101000a0380198251168184511680821785525050505050509050019150506040516020818303038152906040528051906020012014905092915050565b600160008273ffffffffffffffffffffffffffffffffffffffff1673ffffffffffffffffffffffffffffffffffffffff16815260200190815260200160002060009054906101000a900460ff161561366757613a79565b606061367282613a7c565b9050604051806020016040528060008152506000826040518082805190602001908083835b602083106136ba5780518252602082019150602081019050602083039250613697565b6001836020036101000a03801982511681845116808217855250505050505090500191505090815260200160405180910390206000801515151581526020019081526020016000209080519060200190613715929190613ec6565b506000604051806020016040528060008152506040518082805190602001908083835b6020831061375b5780518252602082019150602081019050602083039250613738565b6001836020036101000a0380198251168184511680821785525050505050509050019150509081526020016040518091039020600060011515151581526020019081526020016000206000826040518082805190602001908083835b602083106137da57805182526020820191506020810190506020830392506137b7565b6001836020036101000a0380198251168184511680821785525050505050509050019150509081526020016040518091039020600060011515151581526020019081526020016000209080546001816001161561010002031660029004613842929190613f46565b5080600080604051806020016040528060008152506040518082805190602001908083835b6020831061388a5780518252602082019150602081019050602083039250613867565b6001836020036101000a038019825116818451168082178552505050505050905001915050908152602001604051809103902060006001151515158152602001908152602001600020604051808280546001816001161561010002031660029004801561392e5780601f1061390c57610100808354040283529182019161392e565b820191906000526020600020905b81548152906001019060200180831161391a575b505091505090815260200160405180910390206000801515151581526020019081526020016000209080519060200190613969929190613ec6565b50806000604051806020016040528060008152506040518082805190602001908083835b602083106139b0578051825260208201915060208101905060208303925061398d565b6001836020036101000a0380198251168184511680821785525050505050509050019150509081526020016040518091039020600060011515151581526020019081526020016000209080519060200190613a0c929190613ec6565b50613a1a6002546001613269565b60028190555060018060008473ffffffffffffffffffffffffffffffffffffffff1673ffffffffffffffffffffffffffffffffffffffff16815260200190815260200160002060006101000a81548160ff021916908315150217905550505b50565b606060008273ffffffffffffffffffffffffffffffffffffffff1660001b905060606040518060400160405280601081526020017f303132333435363738396162636465660000000000000000000000000000000081525090506060602a6040519080825280601f01601f191660200182016040528015613b0c5781602001600182028038833980820191505090505b5090507f300000000000000000000000000000000000000000000000000000000000000081600081518110613b3d57fe5b60200101907effffffffffffffffffffffffffffffffffffffffffffffffffffffffffffff1916908160001a9053507f780000000000000000000000000000000000000000000000000000000000000081600181518110613b9a57fe5b60200101907effffffffffffffffffffffffffffffffffffffffffffffffffffffffffffff1916908160001a90535060008090505b6014811015613cf15782600485600c840160208110613bea57fe5b1a60f81b7effffffffffffffffffffffffffffffffffffffffffffffffffffffffffffff1916901c60f81c60ff1681518110613c2257fe5b602001015160f81c60f81b826002830260020181518110613c3f57fe5b60200101907effffffffffffffffffffffffffffffffffffffffffffffffffffffffffffff1916908160001a90535082600f60f81b85600c840160208110613c8357fe5b1a60f81b1660f81c60ff1681518110613c9857fe5b602001015160f81c60f81b826002830260030181518110613cb557fe5b60200101907effffffffffffffffffffffffffffffffffffffffffffffffffffffffffffff1916908160001a9053508080600101915050613bcf565b50809350505050919050565b600080831480613d0d5750600082145b15613d1b5760009050613de9565b6000828402905082848281613d2c57fe5b0414613d83576040517f08c379a000000000000000000000000000000000000000000000000000000000815260040180806020018281038252602b815260200180614470602b913960400191505060405180910390fd5b83838281613d8d57fe5b0414613de4576040517f08c379a000000000000000000000000000000000000000000000000000000000815260040180806020018281038252602b815260200180614470602b913960400191505060405180910390fd5b809150505b92915050565b6000808211613e49576040517f08c379a00000000000000000000000000000000000000000000000000000000081526004018080602001828103825260228152602001806141266022913960400191505060405180910390fd5b6000828481613e5457fe5b049050828481613e6057fe5b06818402018414613ebc576040517f08c379a00000000000000000000000000000000000000000000000000000000081526004018080602001828103825260238152602001806142626023913960400191505060405180910390fd5b8091505092915050565b828054600181600116156101000203166002900490600052602060002090601f016020900481019282601f10613f0757805160ff1916838001178555613f35565b82800160010185558215613f35579182015b82811115613f34578251825591602001919060010190613f19565b5b509050613f429190614015565b5090565b828054600181600116156101000203166002900490600052602060002090601f016020900481019282601f10613f7f5780548555613fbc565b82800160010185558215613fbc57600052602060002091601f016020900482015b82811115613fbb578254825591600101919060010190613fa0565b5b509050613fc99190614015565b5090565b50805460018160011615610100020316600290046000825580601f10613ff35750614012565b601f0160209004906000526020600020908101906140119190614015565b5b50565b61403791905b8082111561403357600081600090555060010161401b565b5090565b9056fe4e6f7420616c6c6f77656420746f20417070726f7665204d656469617465642053616c6573205472616e73616374696f6e2c2062656361757365204d6573736167652053656e646572206973206e656974686572207468652042757965722c2053656c6c65722c206f72204d65646961746f72214e6f7420616c6c6f77656420746f20446973617070726f7665204d656469617465642053616c6573205472616e73616374696f6e2c2062656361757365204d6573736167652053656e646572206973206e656974686572207468652042757965722c2053656c6c65722c206f72204d65646961746f72215f736166654d617468446976696465203a2044656e6f6d696e61746f7220697320304d656469617465642053616c6573205472616e73616374696f6e2068617320616c7265616479206265656e20446973617070726f766564206279206174206c6561737420322d6f75742d6f662d33206f66207468652042757965722c2053656c6c65722c20616e642f6f72204d65646961746f72212043616e6e6f7420417070726f7665206174207468697320706f696e74214f6e6c792074686520457468657265756d20416464726573732074686174206465706c6f796564205448495320436f6e7472616374206d6179206578656375746520616e79206f662069742773207075626c6963206d6574686f6473214d656469617465642053616c6573205472616e73616374696f6e20616c726561647920657869737473215f736166654d617468446976696465203a204469766973696f6e204f766572666c6f775f736166654d6174685375627472616374203a205375627472616374696f6e204f766572666c6f77496e6465782076616c756520676976656e2069732067726561746572207468616e206f7220657175616c20746f20746865204e756d626572206f66204d65646961746f7273212049742073686f756c64206265206c657373207468616e20746865204e756d626572206f66204d65646961746f72732143616e6e6f74206861766520616e20656d70747920537472696e6720666f722074686520495046532048617368204b6579204465736372697074696f6e206f662061204d65646961746f7221476976656e204d656469617465642053616c6573205472616e73616374696f6e2049504653204861736820646f6573206e6f74206578697374214d656469617465642053616c6573205472616e73616374696f6e2068617320616c7265616479206265656e20417070726f766564206279206174206c6561737420322d6f75742d6f662d33206f66207468652042757965722c2053656c6c65722c20616e642f6f72204d65646961746f72212043616e6e6f7420446973617070726f7665206174207468697320706f696e7421476976656e204d65646961746f72204164647265737320646f6573206e6f742065786973742061732061204d65646961746f72215f736166654d6174684d756c7469706c79203a204d756c7469706c69636174696f6e204f766572666c6f77a165627a7a72305820b06a71941847ed0460360067acf640666ea3e59b839105fafcccbde5de04a34c0029",
  "source": "pragma solidity >=0.4.22 <0.6.0;\r\n\r\nimport \"./GeneralUtilities.sol\";\r\nimport \"./FranklinDecentralizedMarketplaceMediation.sol\";\r\n\r\ncontract FranklinDecentralizedMartketplace {\r\n    using GeneralUtilities for *;\r\n    \r\n    // This Smart Contract serves as a Decentralized Marketplace of Buyers, Sellers, and Mediators. \r\n    \r\n    // The Contract code had to be split in two, because the Etherum Virtual Machine (EVM) would not allow deployment of a Contract\r\n    // that has more than 24576 bytes. So, the decision was made to SPLIT the code into the FranklinDecentralizedMarketplace \r\n    // and FranklinDecentralizedMarketplaceMediation Contracts where the FranklinDecentralizedMarketplace would deploy the\r\n    // FranklinDecentralizedMarketplaceMediation Contract via it's Constructor. \r\n    //\r\n    // So, this FranklinDecentralizedMarketplace Contract handles most of the functionality pertaining to the Franklin Decentralized Marketplace Smart Contract functionality, while MOST of the\r\n    // functionality dealing with Mediated Sales Transactions is done by the FranklinDecentralizedMarketplaceMediation Smart Contract. All the public methods - with the exception of \r\n    // the \"getOnlyAddressThatMayAccessThisContract\" method - of the FranklinDecentralizedMarketplaceMediation may ONLY be accessed by this FranklinDecentralizedMarketplace Contract.\r\n    // Accessing of a public method of the FranklinDecentralizedMarketplaceMediation Contract is done via an equivalent Proxy method in this FranklinDecentralizedMarketplace Contract, thus \r\n    // simplifying the interaction with the Franklin Decentralized Marketplace Smart Contract functionality with the public.\r\n    \r\n    // Each Item being sold in this Decentralized Marketplace is identified by it's IPFS (InterPlanetary File System) Hash. Information about each item being sold is in a JSON-formatted\r\n    // string stored in the IPFS (InterPlanetary File System) that may be accessed via the Infura IPFS Gateway URL. So, for example, let's say that an Item being sold by a Seller has an\r\n    // IPFS Hash of QmZ4DZ1spT2eQhUC5mfQGugM4AhLjq8ZvuZvHdQvnvKnHH. Then, the information about this Item may be seen in one of the following URLs:\r\n    // 1) https://ipfs.infura.io/ipfs/QmZ4DZ1spT2eQhUC5mfQGugM4AhLjq8ZvuZvHdQvnvKnHH\r\n    // 2) https://gateway.ipfs.io/ipfs/QmZ4DZ1spT2eQhUC5mfQGugM4AhLjq8ZvuZvHdQvnvKnH\r\n    \r\n    // Each Seller in this Decentralized Marketplace is identified by it's Ethereum Address, but should also have information about himself/herself that is in the \r\n    // IPFS (InterPlanetary File System) Hash. Information about each Seller is in a JSON-formatted\r\n    // string stored in the IPFS (InterPlanetary File System) that may be accessed via the Infura IPFS Gateway URL. So, for example, let's say that Seller has an\r\n    // IPFS Hash of QmZ4DZ1spT2eQhUC5mfQGugM4AhLjq8ZvuZvHdQvnvKnHH describing himself/herself. Then, the information about this Seller may be seen in one of the following URLs:\r\n    // 1) https://ipfs.infura.io/ipfs/QmZ4DZ1spT2eQhUC5mfQGugM4AhLjq8ZvuZvHdQvnvKnHH\r\n    // 2) https://gateway.ipfs.io/ipfs/QmZ4DZ1spT2eQhUC5mfQGugM4AhLjq8ZvuZvHdQvnvKnHH\r\n    \r\n    // Each Mediator in this Decentralized Marketplace is identified by it's Ethereum Address, but should also have information about himself/herself that is accessed  \r\n    // in the IPFS Stoarge Systemn via it's IPFS (InterPlanetary File System) Hash string key.\r\n    // Each Mediator in this Decentralized Marketplace is also identified by it's IPFS (InterPlanetary File System) Hash. Information about each Mediator is in a JSON-formatted\r\n    // string stored in the IPFS (InterPlanetary File System) that may be accessed via the Infura IPFS Gateway URL. So, for example, let's say that the Mediator has an\r\n    // IPFS Hash of QmZ4DZ1spT2eQhUC5mfQGugM4AhLjq8ZvuZvHdQvnvKnHH. Then, the information about this Mediator may be seen in one of the following URLs:\r\n    // 1) https://ipfs.infura.io/ipfs/QmZ4DZ1spT2eQhUC5mfQGugM4AhLjq8ZvuZvHdQvnvKnHH\r\n    // 2) https://gateway.ipfs.io/ipfs/QmZ4DZ1spT2eQhUC5mfQGugM4AhLjq8ZvuZvHdQvnvKnH\r\n    \r\n    // Each Mediated Sales Transaction in this Decentralized Marketplace is identified by it's IPFS (InterPlanetary File System) Hash. Information about each Mediated Sales Transaction \r\n    // is in a JSON-formatted string stored in the IPFS (InterPlanetary File System) that may be accessed via the Infura IPFS Gateway URL. So, for example, let's say that the \r\n    // Mediated Sales Transaction has an IPFS Hash of QmZ4DZ1spT2eQhUC5mfQGugM4AhLjq8ZvuZvHdQvnvKnHH. Then, the information about this Mediated Sales Transaction may be seen in one of \r\n    // the following URLs:\r\n    // 1) https://ipfs.infura.io/ipfs/QmZ4DZ1spT2eQhUC5mfQGugM4AhLjq8ZvuZvHdQvnvKnHH\r\n    // 2) https://gateway.ipfs.io/ipfs/QmZ4DZ1spT2eQhUC5mfQGugM4AhLjq8ZvuZvHdQvnvKnH\r\n    \r\n    // WARNING! Befor a Seller places infomation about himself/herself in this Smart Contract, the Seller must first have at least one Item placed For Sale.\r\n    \r\n    // WARNING!! It is the responsibility of the Users of this Smart Contract to enter valid IPFS Hash String values for each of the Items Sold and of the Seller's Description!\r\n    \r\n    // Constants used for the Double-Linked list and other uses.\r\n    bool constant private PREV = false;\r\n    bool constant private NEXT = true;\r\n    string constant private EMPTY_STRING = \"\";\r\n    string constant private UNDER_SCORE_STRING = \"_\";\r\n    \r\n    // This is the price of all specific Items being sold y Sellers identified by their Ethereum Address in Wei.\r\n    // The price is on a per-Item basis for one Item.\r\n    //\r\n    // Mapping is as follows:\r\n    // 1) Key: Concatenation of Ethereum Address of Seller followed by IPFS Hash of Item being sold with an UNDER_SCORE_STRING in between.\r\n    // 2) Value: Price of item being sold in Wei.\r\n    //\r\n    // Only the Seller may change or set the price of an Item.\r\n    // The Seller is identified by an Ethereum Address.\r\n    mapping(string => uint) private pricesOfItems;\r\n    \r\n    // This is the quantity of each Item that is being sold by a Seller. Thus, for each Item that is being sold their is a certain number of such items available for sale.\r\n    // \r\n    // Mapping is as follows:\r\n    // 1) Key: Concatenation of Ethereum Address of Seller followed by IPFS Hash of Item being sold with an UNDER_SCORE_STRING in between.\r\n    // 2) Value: Quanity available to be sold for the Item.\r\n    //\r\n    // Only the Seller may change or set the quantity of the item that is available for sale..\r\n    // The Seller is identified by an Ethereum Address.\r\n    mapping(string => uint) private quantityAvailableForSaleOfEachItem; \r\n    \r\n    // This is all the Items being sold on a per-seller basis where each seller is identified by it's Ethereum Address. The \"mapping(string => mapping(bool => string))\" is a\r\n    // double-linked list used to maintain such a list of Items for a seller. The reason for using a double-linked list over an array is that it's difficult to delete items of an array\r\n    // and still map back the Item to the Seller; use of arrays to maintain a dynamic list leads to having the array grow forever. Use of below technique solves this problem via use of \"delete\"\r\n    // on a \"mapping\" where such a resource does get deleted. Use of Double-Linked list technique explained and code borrowed from the \r\n    // https://ethereum.stackexchange.com/questions/15337/can-we-get-all-elements-stored-in-a-mapping-in-the-contract web page.\r\n    //\r\n    // For an explanation as to how the \"mapping(string => mapping(bool => string))\" double linked-list works and the code pertaining to it from which was borrowed, please go to the\r\n    // https://ethereum.stackexchange.com/questions/15337/can-we-get-all-elements-stored-in-a-mapping-in-the-contract web page.\r\n    //\r\n    // Mapping is as follows:\r\n    // 1) First Key: Ethereum Address of the Seller\r\n    // 2) First Value: The \"mapping(string => mapping(bool => string))\" double-linked list consisting of the IPFS Hashes of the various Items the Seller is selling. Each \"string\" in this mapping is\r\n    //    either an empty string or the IPFS Hash of an Item being sold by the Seller. The \"bool\" is either the PREV or NEXT boolean value above.\r\n    mapping(address => mapping(string => mapping(bool => string)) ) private itemsBeingSoldBySpecificSeller;\r\n    \r\n    // Used strictly to determine if an Item being sold by a Seller is in it's \"itemsBeingSoldBySpecificSeller\" double-linked list.\r\n    //\r\n    // Mapping is as follows:\r\n    // 1) Key: Concatenation of Ethereum Address of Seller followed by IPFS Hash of Item being sold with an UNDER_SCORE_STRING in between.\r\n    // 2) Value: Boolean value indicating if the Item is in the \"itemsBeingSoldBySpecificSeller\" double-linked list of the Seller.\r\n    mapping(string => bool) private itemsKeysMap;\r\n    \r\n    // Used to determine the number of Items being sold by a Seller. This is NOT the quantity being sold for each Item, but the number of different types of Items.\r\n    // It contains the number of Items in the seller's \"mapping(string => mapping(bool => string))\" double-linked list of the \"itemsBeingSoldBySpecificSeller\" mapping.\r\n    //\r\n    // Mapping is as follows:\r\n    // 1) Key: Ethereum Address of the Seller.\r\n    // 2) Value: Number of different types of Items being sold that is in the Seller's  \"mapping(string => mapping(bool => string))\" double-linked list of the \r\n    //    \"itemsBeingSoldBySpecificSeller\" mapping.\r\n    mapping(address => uint) private numberOfDifferentItemsBeingSoldBySellerMap;\r\n    \r\n    // A double-linked list that lists all the Sellers by their Ethereum Address in string format.\r\n    //\r\n    // For an explanation as to how the \"mapping(string => mapping(bool => string))\" double linked-list works and the code pertaining to it from which was borrowed, please go to the\r\n    // https://ethereum.stackexchange.com/questions/15337/can-we-get-all-elements-stored-in-a-mapping-in-the-contract web page.\r\n    //\r\n    // Each \"string\" below refers to the Ethereum Address of the Seller in string format.\r\n    mapping(string => mapping(bool => string)) private listOfSellers; \r\n    \r\n    // Map that keeps track of whether a Seller exists. The \"address\" key is the Ethereum Address of the Seller.\r\n    mapping(address => bool) private sellerExistsMap;\r\n    \r\n    // Keeps a count on the Number of Sellers selling on this platform.\r\n    uint private numberOfSellers; \r\n    \r\n    // This Mapping contains the Description Information about the Sellers. The Seller is responsible for adding this information.\r\n    // A Seller must first have in it's \"itemsBeingSoldBySpecificSeller\" double-linked list at least one Item to sell BEFORE being able to add Information about\r\n    // about himself/herself. The IPFS Hash string should refer to a JSON-formatted string describing the seller in the IPFS Storage System.\r\n    //\r\n    // Mapping is as follows:\r\n    // 1) Key: Ethereum Address of the Seller\r\n    // 2) Value: IPFS Hash string of the information pertaining to the Seller. This information is stored in the IPFS Storage Network.\r\n    mapping(address => string) private descriptionInfoAboutSellers;\r\n    \r\n    // This Mapping is used to determine if a Seller is willing to sell his/her Items via the use of a Mediator. The Mediator is used to determine that BOTH parties are BOTH satisfied with the \r\n    // Sale of the Item. One iten of contention is that the Buyer actualy got the Item he/she purchased. \r\n    // In these types of Sales involving a Mediator, two out of the three parties - Buyer, Seller, and/or Mediator - must approve the sale transaction BEFORE the ETH is sent to the Seller.\r\n    // In such cases involving a Mediator, the Buyer's ETH is not sent to the Seller, but sent to this Smart Contract. Once two out of the three parties gives the OK for the Sale, then 95% of the\r\n    // Sales Price of the Item goes to the Seller and 5% goes to the Mediator.\r\n    //\r\n    // The \"key\" is the Ethereum Seller Address and the value is a boolen. If the Seller is willing to sell via a Mediator, then this value if boolean true. \r\n    // If the Seller is NOT willing to sell via a Mediator, then this value if boolean false.\r\n    mapping(address => bool) private sellerWillingToSellItemsViaMediator;\r\n    \r\n    // Refers to the instance of the FranklinDecentralizedMarketplaceMediation Contract that was instantiated and deployed in the below \"constructor\".\r\n    //\r\n    // The Contract code had to be split in two, because the Etherum Virtual Machine (EVM) would not allow deployment of a Contract\r\n    // that has more than 24576 bytes. So, the decision was made to SPLIT the code into the FranklinDecentralizedMarketplace \r\n    // and FranklinDecentralizedMarketplaceMediation Contracts where the FranklinDecentralizedMarketplace would deploy the\r\n    // FranklinDecentralizedMarketplaceMediation Contract via it's Constructor. \r\n    //\r\n    // So, this FranklinDecentralizedMarketplace Contract handles most of the functionality pertaining to the Franklin Decentralized Marketplace Smart Contract functionality, while MOST of the\r\n    // functionality dealing with Mediated Sales Transactions is done by the FranklinDecentralizedMarketplaceMediation Smart Contract. All the public methods - with the exception of \r\n    // the \"getOnlyAddressThatMayAccessThisContract\" method - of the FranklinDecentralizedMarketplaceMediation may ONLY be accessed by this FranklinDecentralizedMarketplace Contract.\r\n    // Accessing of a public method of the FranklinDecentralizedMarketplaceMediation Contract is done via an equivalent Proxy method in this FranklinDecentralizedMarketplace Contract, thus \r\n    // simplifying the interaction with the Franklin Decentralized Marketplace Smart Contract functionality with the public.\r\n    FranklinDecentralizedMarketplaceMediation public mediationMarketplace;\r\n    \r\n    constructor() public {\r\n        mediationMarketplace = new FranklinDecentralizedMarketplaceMediation();\r\n    }\r\n    \r\n    // Gets the Contract Owner of the FranklinDecentralizedMarketplaceMediation Contract that was instantiated and deployed by this FranklinDecentralizedMarketplace Smart Contract.\r\n    // Thus, the returned Ethereum Address should be \"address(this)\".\r\n    function getContractOwnerOfFranklinDecentralizedMarketplaceMediation() external view returns (address) {\r\n        address contractOwnerOfMediationMarketplace = mediationMarketplace.getOnlyAddressThatMayAccessThisContract();\r\n        require(contractOwnerOfMediationMarketplace == address(this), \r\n            string(abi.encodePacked(\"Something horribly wrong! FranklinDecentralizedMarketplaceMediation Contract that this \", \r\n            \"FranklinDecentralizedMarketplace Contract references is NOT owned or deployed by THIS FranklinDecentralizedMarketplace Contract!\")));\r\n        return contractOwnerOfMediationMarketplace;\r\n    }\r\n    \r\n    // Gets the Contract Address of the FranklinDecentralizedMarketplaceMediation Contract that THIS FranklinDecentralizedMarketplace isntantied and deployed.\r\n    function getFranklinDecentralizedMarketplaceMediationContractAddress() external view returns (address) {\r\n        return address(mediationMarketplace);\r\n    }\r\n    \r\n    // Determines if a Seller with the given \"_sellerAddres\" is willing to make sales of it's Items via a Mediator. \r\n    // A return of boolean false indicates that the Seller is NOT willing to sell his/her items via a Mediator. \r\n    // A return of boolean true indicates that the Seller IS willing to sell his/her items via a Mediator.\r\n    function sellerIsWillingToSellItemsViaMediator(address _sellerAddress) public view returns (bool) {\r\n        return sellerWillingToSellItemsViaMediator[_sellerAddress];\r\n    }\r\n    \r\n    // This function allows a Seller to set into this Smart Contract whether he/she is willing to sell his/her Items via the use of a Mediator.\r\n    // The Seller in this function is the \"msg.sender\".\r\n    //\r\n    // A \"_flag\" value of boolean true, indicates that the Seller IS willing to make sales via a Mediator.\r\n    // A \"_flag\" value of boolean false, indicates that the Seller is NOT willing to make sales via a Mediator.\r\n    function setSellerWillingToSellItemsViaMediator(bool _flag) public {\r\n        if (!sellerExistsMap[msg.sender]) {\r\n            return;\r\n        }\r\n        \r\n        sellerWillingToSellItemsViaMediator[msg.sender] = _flag;\r\n    }\r\n    \r\n    // This method allows a Seller to add/update a Description about himself/herself feeding in the \"_ipfsHashKeyDescription\" that should point to a JSON-formatted string in the IPFS Storage System.\r\n    // The \"msg.sender\" is the Seller.\r\n    function addOrUpdateSellerDescription(string memory _ipfsHashKeyDescription) public {\r\n        require(numberOfDifferentItemsBeingSoldBySellerMap[msg.sender] > 0, \"You must first add at least ONE Item For Sale before adding a description of yourself!\");\r\n        require(!GeneralUtilities._compareStringsEqual(_ipfsHashKeyDescription, EMPTY_STRING), \"Cannot have an empty String for the IPFS Hash Key Description of a Seller!\");\r\n        \r\n        descriptionInfoAboutSellers[msg.sender] = _ipfsHashKeyDescription;\r\n    }\r\n    \r\n    // Gets the Description of a Seller identified by the given \"_sellerAddress\". The Description will be the IPFS Hash where the JSON-formatted Description of the Seller exists.\r\n    // If no such IPFS Hash Key Description exists, then an EMPTY_STRING will be returned.\r\n    function getSellerIpfsHashDescription(address _sellerAddress) public view returns (string memory) {\r\n        return descriptionInfoAboutSellers[_sellerAddress];\r\n    }\r\n    \r\n    // Adds a Seller - identified by it's Ethereum Address - to the \"listOfSellers\" double-linked list.\r\n    //\r\n    // Source --> https://ethereum.stackexchange.com/questions/15337/can-we-get-all-elements-stored-in-a-mapping-in-the-contract\r\n    function _addSeller(address _sellerAddress) private {\r\n        string memory sellerAddressStringKey = GeneralUtilities._addressToString(_sellerAddress);\r\n        \r\n        // Will not bother to check for valid \"address\", because Ethereum Virtual Machine does that for us automatically and will just throw an Error that caller of this \r\n        // method will have to catch.\r\n        \r\n        if (sellerExistsMap[_sellerAddress]) {\r\n            return;\r\n        }\r\n        \r\n        // Link the new node \r\n        listOfSellers[sellerAddressStringKey][PREV] = EMPTY_STRING;\r\n        listOfSellers[sellerAddressStringKey][NEXT] = listOfSellers[EMPTY_STRING][NEXT];\r\n    \r\n        // Insert the new node\r\n        listOfSellers[listOfSellers[EMPTY_STRING][NEXT]][PREV] = sellerAddressStringKey;\r\n        listOfSellers[EMPTY_STRING][NEXT] = sellerAddressStringKey;\r\n    \r\n        numberOfSellers = GeneralUtilities._safeMathAdd(numberOfSellers, 1);\r\n        sellerExistsMap[_sellerAddress] = true;\r\n    }\r\n    \r\n    // Removes a Seller - identified by it's Ethereum Address - from the \"listOfSellers\" double-linked list.\r\n    //\r\n    // No need to check for empty string on returned Ethereum Address string, because if the \"_sellerAddress\" is an invalid Ethereum Address, then Ethereum Virtual Machine will\r\n    // throw an Error. Caller of this method will have to check if an Error was thrown.\r\n    // \r\n    // Source --> https://ethereum.stackexchange.com/questions/15337/can-we-get-all-elements-stored-in-a-mapping-in-the-contract\r\n    function _removeSeller(address _sellerAddress) private {\r\n        string memory sellerAddressStringKey = GeneralUtilities._addressToString(_sellerAddress);\r\n        \r\n        if (!sellerExistsMap[_sellerAddress]) {\r\n            return;\r\n        }\r\n        \r\n        // Stitch the neighbours together\r\n        listOfSellers[ listOfSellers[sellerAddressStringKey][PREV] ][NEXT] = listOfSellers[sellerAddressStringKey][NEXT];\r\n        listOfSellers[ listOfSellers[sellerAddressStringKey][NEXT] ][PREV] = listOfSellers[sellerAddressStringKey][PREV];\r\n    \r\n        // Delete state storage\r\n        delete listOfSellers[sellerAddressStringKey][PREV];\r\n        delete listOfSellers[sellerAddressStringKey][NEXT];\r\n        \r\n        numberOfSellers = GeneralUtilities._safeMathSubtract(numberOfSellers, 1);\r\n        delete sellerExistsMap[_sellerAddress];\r\n        delete sellerWillingToSellItemsViaMediator[_sellerAddress];\r\n        \r\n        // Decided to NOT delete this information, because a Seller may be involved in a Mediator type of Sale, and we still wish to keep information \r\n        // about the Seller.\r\n        // delete descriptionInfoAboutSellers[_sellerAddress];\r\n    }\r\n    \r\n    // Allows a Seller to remove himself/herself from the \"listOfSellers\". The Seller to be removed is the \"msg.sender\" Ethereum Address that calls this method. \r\n    // Not only will the Seller be removed but also ALL of the Items assovciated with this \"msg.sender\" Seller.\r\n    function removeSeller() public {\r\n        uint numberOfDifferentItemsBeingSoldBySeller = numberOfDifferentItemsBeingSoldBySellerMap[msg.sender];\r\n        \r\n        // We have to first get ALL of the IPFS Key Hashes of the Items for Sale, because the Indexes will change as we delete the Items.\r\n        string[] memory itemsForSale = new string[](numberOfDifferentItemsBeingSoldBySeller);\r\n        for (uint itemIndex = 0; itemIndex < numberOfDifferentItemsBeingSoldBySeller; itemIndex++) {\r\n            string memory itemForSale = getItemForSale(msg.sender, itemIndex);\r\n            itemsForSale[itemIndex] = itemForSale;\r\n        }\r\n        \r\n        // Then we delete step-by-step.\r\n        for (uint i = 0; i < numberOfDifferentItemsBeingSoldBySeller; i++) {\r\n            removeItemForSale(itemsForSale[i]);\r\n        }\r\n        \r\n        // The Seller \"msg.sender\" will be automatically removed from the \"listOfSellers\" when the last Item it has For Sale is removed.\r\n    }\r\n    \r\n    // Gets the Seller Ethereum Address at the given \"_index\" from the \"listOfSellers\" double-linked list.\r\n    //\r\n    // Input Parameter:\r\n    // _itemIndex : Index number into the \"listOfSellers\" double-linked list of Items Seller is selling.\r\n    //              Index starts at 0.\r\n    //\r\n    // Returns:\r\n    // 1) If the \"_index\" is less than the \"numberOfSellers\", then the Etheruem Address of the Seller at the given \"_index\" into the \"listOfSellers\" double-linked list\r\n    //    is returned.\r\n    // 2) If the \"_index\" is greater than or equal to the \"numberOfSellers\", then an Exception is thrown via the \"require\" below.\r\n    function getSellerAddress(uint _index) public view returns (address) {\r\n        require(_index < numberOfSellers, \"Index value given is greater than or equal to the Number of Sellers! It should be less than the Number of Sellers!\");\r\n        \r\n        // The \"key\" below is the Ethereum Address in string format that is in the \"listOfSellers\" double-linked list.\r\n        \r\n        uint keyCount = 0;\r\n        string memory key = EMPTY_STRING;\r\n        while (true) {\r\n            key = listOfSellers[key][NEXT];\r\n            if (keyCount == _index) {\r\n                break;\r\n            }\r\n        \r\n            keyCount++;\r\n        }\r\n        \r\n        return GeneralUtilities._parseEthereumAddressStringToAddress(key);    \r\n    }\r\n    \r\n    // Returns back a boolean value to determine if the given \"_sellerAddres\" is in the \"listOfSellers\".\r\n    function sellerExists(address _sellerAddress) external view returns (bool) {\r\n        return sellerExistsMap[_sellerAddress];\r\n    }\r\n    \r\n    // Returns back the Number of Sellers in this Decentralized Marketplace.\r\n    function getNumberOfSellers() external view returns (uint) {\r\n        return numberOfSellers;\r\n    }\r\n    \r\n    // Allows a Seller to set the Price of an Item the Seller is selling in Wei. The Seller would be the \"msg.sender\" Ethereum Address that calls this method.\r\n    //\r\n    // Input Parameters:\r\n    // 1) _keyItemIpfsHash : This is the IPFS Hash of the item being sold that points to a JSON-formatted string in the IPFS Storage System.\r\n    // 2) _priceInWei : Price of the Item to be set in Wei \r\n    // 3) msg.sender : Ethereum Address of the Seller\r\n    //\r\n    // If the Seller sets the Price of the Item to Zero (i.e., 0) Wei, then that means that the Item is set to a State where it cannot be purchased.\r\n    //\r\n    // If the Item in questions does not exist as an Item for Sale under the \"msg.sender\" Seller of if the \"msg.sender\" is not a Seller, then no setting of a price \r\n    // gets done.\r\n    function setPriceOfItem(string memory _keyItemIpfsHash, uint _priceInWei) public {\r\n        require(!GeneralUtilities._compareStringsEqual(_keyItemIpfsHash, EMPTY_STRING), \"Cannot have an empty String for the IPFS Hash Key of an Item to Sell!\");\r\n        \r\n        // I was thinking of not allowing the Seller to set the Price of an Itemn to Zero wei, but then I changed my mind. The Seller may have a situation where its has \r\n        // the Item in stock, but does not wish to sell the Ite, yet.\r\n        // require(_priceInWei > 0, \"Cannot set the Price of an Item to Zero Wei!\");\r\n        \r\n        string memory combinedKeyAddressPlusItemIpfsHash = GeneralUtilities._getConcatenationOfEthereumAddressAndIpfsHash(msg.sender, _keyItemIpfsHash);\r\n        require(itemsKeysMap[combinedKeyAddressPlusItemIpfsHash], \"Given IPFS Hash of Item is not listed as an Item For Sale for you - the Seller!\");\r\n        \r\n        pricesOfItems[combinedKeyAddressPlusItemIpfsHash] = _priceInWei;\r\n    }\r\n    \r\n    // Gets the Price (in Wei) of an Item - identified by the given \"_keyItemIpfsHash\" input parameter - being sold by a \r\n    // Seller - identified by the given \"_sellerAddress\" Etherum Address.\r\n    //\r\n    // A return value of Zero (i.e., 0) Wei indicates that the Seller has not yet set a Price for this Item, and thus the Item cannot be purchased\r\n    function getPriceOfItem(address _sellerAddress, string memory _keyItemIpfsHash) public view returns (uint) {\r\n        require(!GeneralUtilities._compareStringsEqual(_keyItemIpfsHash, EMPTY_STRING), \"Cannot have an empty String for the IPFS Hash Key of an Item!\");\r\n        \r\n        string memory combinedKeyAddressPlusItemIpfsHash = GeneralUtilities._getConcatenationOfEthereumAddressAndIpfsHash(_sellerAddress, _keyItemIpfsHash);\r\n        require(itemsKeysMap[combinedKeyAddressPlusItemIpfsHash], \"Given IPFS Hash of Item is not listed as an Item For Sale from the Seller!\");\r\n        \r\n        return pricesOfItems[combinedKeyAddressPlusItemIpfsHash];\r\n    }\r\n    \r\n    // Allows a Seller to set the Quantity available for Sale of an Item that a Seller is selling. The Seller would be the \"msg.sender\" Ethereum Address that calls this method.\r\n    //\r\n    // Input Parameters:\r\n    // 1) _keyItemIpfsHash : This is the IPFS Hash of the item being sold that points to a JSON-formatted string in the IPFS Storage System.\r\n    // 2) _quantity : The quantity available For Sale of the Item that the Seller is selling.   \r\n    // 3) msg.sender : Ethereum Addrees of the Seller\r\n    function setQuantityAvailableForSaleOfAnItem(string memory _keyItemIpfsHash, uint _quantity) public {\r\n        require(!GeneralUtilities._compareStringsEqual(_keyItemIpfsHash, EMPTY_STRING), \"Cannot have an empty String for the IPFS Hash Key of an Item to Sell!\");\r\n        \r\n        string memory combinedKeyAddressPlusItemIpfsHash = GeneralUtilities._getConcatenationOfEthereumAddressAndIpfsHash(msg.sender, _keyItemIpfsHash);\r\n        require(itemsKeysMap[combinedKeyAddressPlusItemIpfsHash], \"Given IPFS Hash of Item is not listed as an Item For Sale by you - the Seller!\");\r\n        \r\n        quantityAvailableForSaleOfEachItem[combinedKeyAddressPlusItemIpfsHash] = _quantity;\r\n    }\r\n    \r\n    // Gets the Quantity of the given \"_keyItemIpfsHash\" Item available For sale by the given \"_sellerAddress\" Seller.\r\n    //\r\n    // Input Parameters:\r\n    // 1) _sellerAddress : Ethreum Address of the Seller\r\n    // 2) _keyItemIpfsHash : This is the IPFS Hash of the item being sold that points to a JSON-formatted string in the IPFS Storage System.\r\n    function getQuantityAvailableForSaleOfAnItemBySeller(address _sellerAddress, string memory _keyItemIpfsHash) public view returns (uint) {\r\n        string memory combinedKeyAddressPlusItemIpfsHash = GeneralUtilities._getConcatenationOfEthereumAddressAndIpfsHash(_sellerAddress, _keyItemIpfsHash);\r\n        return quantityAvailableForSaleOfEachItem[combinedKeyAddressPlusItemIpfsHash];\r\n    }\r\n    \r\n    // Allows a Buyer - identified by the \"msg.sender\" Ethereum Address that calls this method - to purchase a \"_quantity\" of a specific Item - identified \r\n    // by it's \"_keyItemIpfsHash\" - from a given Seller - identified by it's \"_sellerAddress\" Ethereum Address.\r\n    //\r\n    // The Buyer is assuming the risk here in that the Buyer is expecting the Seller to be honest enough to send to the Buyer the quantity of Items \r\n    // in the purchase to the Buyer after the Seller receives the payment.\r\n    //\r\n    // Input Parameters:\r\n    // 1) _sellerAddress : Ethereum Address of the Seller\r\n    // 2) _keyItemIpfsHash : This is the IPFS Hash of the item being sold that points to a JSON-formatted string in the IPFS Storage System\r\n    // 3) _quantity : Quantity of the Item that the \"msg.sender\" Buyer wishes to purchase.\r\n    // 4) msg.sender :  Address of the Buyer\r\n    function purchaseItemWithoutMediator(address payable _sellerAddress, string memory _keyItemIpfsHash, uint _quantity) payable public {\r\n        require(_quantity > 0, \"Must purchase at least 1 quantity of the Item for Sale to happen!\");\r\n        require(!GeneralUtilities._compareStringsEqual(_keyItemIpfsHash, EMPTY_STRING), \"Cannot have an empty String for the IPFS Hash Key of an Item you are purchasing!\");\r\n        require(msg.sender != _sellerAddress, \"The Buyer Address cannot be the same as the Seller Address!\");\r\n        \r\n        require(sellerExistsMap[_sellerAddress], \"Given Seller Address does not exist as a Seller!\");\r\n        \r\n        string memory combinedKeyAddressPlusItemIpfsHash = GeneralUtilities._getConcatenationOfEthereumAddressAndIpfsHash(msg.sender, _keyItemIpfsHash);\r\n        require(itemsKeysMap[combinedKeyAddressPlusItemIpfsHash], \"Given IPFS Hash of Item is not listed as an Item For Sale from the Seller!\");\r\n        \r\n        require(quantityAvailableForSaleOfEachItem[combinedKeyAddressPlusItemIpfsHash] > 0, \"Seller has Zero quantity available for Sale for the Item requested to purchase!\");\r\n        require(quantityAvailableForSaleOfEachItem[combinedKeyAddressPlusItemIpfsHash] >= _quantity, \r\n            \"Quantity available For Sale of the Item from the Seller is less than the quantity requested to purchase! Not enough of the Itenm available For Sale\");\r\n        \r\n        require(pricesOfItems[combinedKeyAddressPlusItemIpfsHash] > 0, \"The Seller has not yet set a Price for Sale for the requested Item! Cannot purchase the Item!\"); \r\n        \r\n        uint totalAmountOfWeiNeededToPurchase = GeneralUtilities._safeMathMultiply(pricesOfItems[combinedKeyAddressPlusItemIpfsHash], _quantity);\r\n        require(msg.value >= totalAmountOfWeiNeededToPurchase, \"Not enough ETH was sent to purchase the quantity requested of the Item!\");\r\n        \r\n        // Subtract the appropriate \"_quantity\" of that Item for Sale to keep track of the new available quauntity of that Item that may be sold.\r\n        quantityAvailableForSaleOfEachItem[combinedKeyAddressPlusItemIpfsHash] = \r\n            GeneralUtilities._safeMathSubtract(quantityAvailableForSaleOfEachItem[combinedKeyAddressPlusItemIpfsHash], _quantity);\r\n        \r\n        // We want to make sure to return back any excess ETH that exceeds the amount necessary to purchase the given \"_quantity\" of the Item.\r\n        msg.sender.transfer(msg.value - totalAmountOfWeiNeededToPurchase);\r\n        \r\n        // Transfer the \"totalAmountOfWeiNeededToPurchase\" to the Seller.\r\n        _sellerAddress.transfer(totalAmountOfWeiNeededToPurchase);\r\n    }\r\n    \r\n    // Allows a Buyer - identified by the \"msg.sender\" Ethereum Address that calls this method - to purchase a \"_quantity\" of a specific Item - identified \r\n    // by it's \"_keyItemIpfsHash\" - from a given Seller - identified by it's \"_sellerAddress\" Ethereum Address AND use a Mediator - identified by the given \r\n    // \"_mediatorAddress\" - to mediate the Mediatiations Sales Transaction - identified by the the given \"_mediatedSalesTransactionIpfsHash\" ID. \r\n    //\r\n    // The FranklinDecentralizedMarketplaceMediation Contract mainly handles Sales Transactions that involve a Mediator. Thus, these would be referred to as \r\n    // Mediated Sales Transactions that involve a Buyer, Seller, and Mediator. Each Buyer, Seller, and Mediator will have a different Ethereum Address.\r\n    //\r\n    // The FranklinDecentralizedMarketplaceMediation Contract is used to store the Escrow ETH/WEI (i.e., \"totalAmountOfWeiNeededToPurchase\") used to pay for Items involved in ALL Mediated Sales Transactions. \r\n    // The Mediated Sales Transaction works as follows:\r\n    // 1) If 2-out-of-3 of the Buyer, Seller, and/or Mediator Approves this Mediated Sales Transaction, then 95% of the \"totalAmountOfWeiNeededToPurchase\" will be sent to the Seller Address\r\n    //    and 5% of the \"totalAmountOfWeiNeededToPurchase\" will be sent to the Mediator Address. \r\n    // 2) 2-out-of-3 of the Buyer, Seller, and/or Mediator Disapproves this Mediated Sales Transaction, then the \"totalAmountOfWeiNeededToPurchase\" will be sent back to the Buyer Address.\r\n    // 3) If neither (1) or (2) above happens, then the Mediated Sales Transaction will be held in a State of Limbo and the \"totalAmountOfWeiNeededToPurchase\" will be kept inside \r\n    //    of this Contract.\r\n    //\r\n    // Input Parameters:\r\n    // 1) _sellerAddress : Ethereum Address of the Seller\r\n    // 2) _keyItemIpfsHash : This is the IPFS Hash of the Item being sold that points to a JSON-formatted string in the IPFS Storage System.\r\n    // 3) _mediatorAddress : Ethereum Address of the Mediator\r\n    // 4) _quantity : Quantity of the Item that the \"msg.sender\" Buyer wishes to purchase. \r\n    // 5) _mediatedSalesTransactionIpfsHash : This is the IPFS Hash of the Mediated Sales Transaction that points to a JSON-formatted string in the IPFS Storage System.\r\n    // 6) msg.sender : Ethereum Address of the Buyer\r\n    function purchaseItemWithMediator(address _sellerAddress, address _mediatorAddress, string memory _keyItemIpfsHash, \r\n                string memory _mediatedSalesTransactionIpfsHash, uint _quantity) payable public {\r\n        require(_quantity > 0, \"Must purchase at least 1 quantity of the Item for Sale to happen!\");\r\n        require(!GeneralUtilities._compareStringsEqual(_keyItemIpfsHash, EMPTY_STRING), \"Cannot have an empty String for the IPFS Hash Key of an Item you are purchasing!\");\r\n        require(!GeneralUtilities._compareStringsEqual(_mediatedSalesTransactionIpfsHash, EMPTY_STRING), \"Cannot have an empty String for the IPFS Hash Key of the Mediated Sales Transaction!\");\r\n        \r\n        require(sellerExistsMap[_sellerAddress], \"Given Seller Address does not exist as a Seller!\");\r\n        \r\n        string memory combinedKeyAddressPlusItemIpfsHash = GeneralUtilities._getConcatenationOfEthereumAddressAndIpfsHash(msg.sender, _keyItemIpfsHash);\r\n        require(itemsKeysMap[combinedKeyAddressPlusItemIpfsHash], \"Given IPFS Hash of Item is not listed as an Item For Sale from the Seller!\");\r\n        \r\n        require(quantityAvailableForSaleOfEachItem[combinedKeyAddressPlusItemIpfsHash] > 0, \"Seller has Zero quantity available for Sale for the Item requested to purchase!\");\r\n        require(quantityAvailableForSaleOfEachItem[combinedKeyAddressPlusItemIpfsHash] >= _quantity, \r\n            \"Quantity available For Sale of the Item from the Seller is less than the quantity requested to purchase! Not enough of the Itenm available For Sale\");\r\n        \r\n        require(pricesOfItems[combinedKeyAddressPlusItemIpfsHash] > 0, \"The Seller has not yet set a Price for Sale for the requested Item! Cannot purchase the Item!\"); \r\n        \r\n        uint totalAmountOfWeiNeededToPurchase = GeneralUtilities._safeMathMultiply(pricesOfItems[combinedKeyAddressPlusItemIpfsHash], _quantity);\r\n        require(msg.value >= totalAmountOfWeiNeededToPurchase, \"Not enough ETH/WEI was sent to purchase the quantity requested of the Item!\");\r\n        \r\n        // Need to check that the Ethereum Addresses of the Buyer, Seller, and Mediator are ALL different!\r\n        require(msg.sender != _sellerAddress, \"The Buyer Address cannot be the same as the Seller Address!\");\r\n        require(msg.sender != _mediatorAddress, \"The Buyer Address cannot be the same as the Mediator Address!\");\r\n        require(_sellerAddress != _mediatorAddress, \"The Seller Address cannot be the same as the Mediator Address!\");\r\n        \r\n        // The \"msg.value\" amount (minus any excess ETH/WEI that was sent) will automatically be sent to the FranklinDecentralizedMarketplaceMediation Contract in Escrow in a \r\n        // Mediated Sales Transaction. We need to store the \"totalAmountOfWeiNeededToPurchase\" as follows so that when:\r\n        // 1) 2-out-of-3 of the Buyer, Seller, and/or Mediator Approves this Mediated Sales Transaction, then 95% of the \"totalAmountOfWeiNeededToPurchase\" can be sent to the Seller Address\r\n        //    and 5% of the  \"msg.value\" can be sent to the Mediator Address. \r\n        // 2) 2-out-of-3 of the Buyer, Seller, and/or Mediator Disapproves this Mediated Sales Transaction, the \"totalAmountOfWeiNeededToPurchase\" can be sent back to the Buyer Address.\r\n        // 3) If neither (1) or (2) above happens, then the Mediated Sales Transaction will be held in a State of Limbo and the \"totalAmountOfWeiNeededToPurchase\" will be kept inside \r\n        //    of the FranklinDecentralizedMarketplaceMediation Contract.\r\n        \r\n        // Below code logic was transferred over to the \"purchaseItemWithMediator\" method of the FranklinDecentralizedMarketplaceMediation Contract.\r\n        /*\r\n        require(!mediatedSalesTransactionExists[_mediatedSalesTransactionIpfsHash], \"Mediated Sales Transaction already exists!\");\r\n        \r\n        string memory mediatorAddressStringKey = GeneralUtilities._addressToString(_mediatorAddress);\r\n        require(mediatorExistsMap[mediatorAddressStringKey], \"Given Mediator Address does not exist as a Mediator!\");\r\n        \r\n        // Keep track of the existence of the Mediated Sales Transaction so that it can be Approved or Disapproved by the Buyer, Seller, and/or Mediator in the future.\r\n        mediatedSalesTransactionExists[_mediatedSalesTransactionIpfsHash] = true;\r\n        mediatedSalesTransactionAddresses[_mediatedSalesTransactionIpfsHash][BUYER_INDEX] = msg.sender;\r\n        mediatedSalesTransactionAddresses[_mediatedSalesTransactionIpfsHash][SELLER_INDEX] = _sellerAddress;\r\n        mediatedSalesTransactionAddresses[_mediatedSalesTransactionIpfsHash][MEDIATOR_INDEX] = _mediatorAddress;\r\n        \r\n        // The \"msg.value\" amount (minus any excess ETH/WEI that was sent) will automatically be sent to the FranklinDecentralizedMarketplaceMediation Contract as Escrow in a \r\n        // Mediated Sales Transaction. We need to store the \"totalAmountOfWeiNeededToPurchase\" as follows so that when:\r\n        // 1) 2-out-of-3 of the Buyer, Seller, and/or Mediator Approves this Mediated Sales Transaction, then 95% of the \"totalAmountOfWeiNeededToPurchase\" can be sent to the Seller Address\r\n        //    and 5% of the  \"msg.value\" can be sent to the Mediator Address. \r\n        // 2) 2-out-of-3 of the Buyer, Seller, and/or Mediator Disapproves this Mediated Sales Transaction, the \"totalAmountOfWeiNeededToPurchase\" can be sent back to the Buyer Address.\r\n        mediatedSalesTransactionAmount[_mediatedSalesTransactionIpfsHash] = totalAmountOfWeiNeededToPurchase;\r\n        \r\n        numberOfMediationsMediatorInvolved[_mediatorAddress] = GeneralUtilities._safeMathAdd(numberOfMediationsMediatorInvolved[_mediatorAddress], 1);\r\n        */\r\n        \r\n        // Call below method to continue the processing of the Mediated Sales Transaction.\r\n        mediationMarketplace.purchaseItemWithMediator(msg.sender, _sellerAddress, _mediatorAddress, _mediatedSalesTransactionIpfsHash, totalAmountOfWeiNeededToPurchase);\r\n        \r\n        // Subtract the appropriate \"_quantity\" of that Item for Sale to keep track of the new available quantity of that Item that may be sold. I know that the sale is NOT final \r\n        // at this point, BUT let's be optimistic. If the \"_mediatedSalesTransactionIpfsHash\" Mediated Sales Transaction gets Disapproved, then the quantity will have to be updated \r\n        // accordingly by the Seller Address via the \"setQuantityAvailableForSaleOfAnItem\" method.\r\n        // \r\n        // If the Mediated Sales Transaction NEVER reaches a State of Approval nor Disapproval, then the Mediated Sales Transaction will be held in a State of Limbo and the \r\n        // \"totalAmountOfWeiNeededToPurchase\" will be kept inside of the FranklinDecentralizedMarketplaceMediation Contract. Thus, the quantity For Sale of the Item will never \r\n        // be automatically updated and it would have to be updated by the Seller Address via the \"setQuantityAvailableForSaleOfAnItem\" method.\r\n        quantityAvailableForSaleOfEachItem[combinedKeyAddressPlusItemIpfsHash] = \r\n            GeneralUtilities._safeMathSubtract(quantityAvailableForSaleOfEachItem[combinedKeyAddressPlusItemIpfsHash], _quantity);\r\n        \r\n        // We want to make sure to return back to the Buyer Address any excess ETH/WEI that exceeds the amount necessary to purchase the given \"_quantity\" of the Item.\r\n        msg.sender.transfer(GeneralUtilities._safeMathSubtract(msg.value, totalAmountOfWeiNeededToPurchase));  \r\n        \r\n        // Since the FranklinDecentralizedMarketplaceMediation Contract will be handling any further Mediation actions, the Escrow should be kept there. \r\n        // So, send the Escrow Amount to the FranklinDecentralizedMarketplaceMediation Contract\r\n        address payable mediationMarketplaceAddress = GeneralUtilities._convertAddressToAddressPayable(address(mediationMarketplace));\r\n        mediationMarketplaceAddress.transfer(totalAmountOfWeiNeededToPurchase);\r\n    }\r\n    \r\n    // Adds an Item - identified by the given \"_keyItemIpfsHash\" input - to be Sold by a Seller to it's \"itemsBeingSoldBySpecificSeller\" double-linked list. \r\n    // The Seller in this function call is the \"msg.sender\" Ethereum Address that calls this function. Also, this causes the \"msg.sender\" Seller to be added in the \"listOfSellers\". \r\n    //\r\n    // Source --> https://ethereum.stackexchange.com/questions/15337/can-we-get-all-elements-stored-in-a-mapping-in-the-contract\r\n    function addItemForSale(string memory _keyItemIpfsHash) public {\r\n        require(!GeneralUtilities._compareStringsEqual(_keyItemIpfsHash, EMPTY_STRING), \"Cannot have an empty String for the IPFS Hash Key of an Item to Sell!\");\r\n        \r\n        string memory combinedKeyAddressPlusItemIpfsHash = GeneralUtilities._getConcatenationOfEthereumAddressAndIpfsHash(msg.sender, _keyItemIpfsHash);\r\n        \r\n        // If the specific type of Item is already in the list of Items that the Seller is selling, then no need to add the Item, because it's already there.\r\n        if (itemsKeysMap[combinedKeyAddressPlusItemIpfsHash]) {\r\n            return;\r\n        }\r\n        \r\n        // This below is the double-linked list of different types of Items being sold by a Seller.\r\n        mapping(string => mapping(bool => string)) storage itemsBeingSoldBySenderAddress = itemsBeingSoldBySpecificSeller[msg.sender];\r\n        \r\n        // Link the new node \r\n        itemsBeingSoldBySenderAddress[_keyItemIpfsHash][PREV] = EMPTY_STRING;\r\n        itemsBeingSoldBySenderAddress[_keyItemIpfsHash][NEXT] = itemsBeingSoldBySenderAddress[EMPTY_STRING][NEXT];\r\n    \r\n        // Insert the new node\r\n        itemsBeingSoldBySenderAddress[itemsBeingSoldBySenderAddress[EMPTY_STRING][NEXT]][PREV] = _keyItemIpfsHash;\r\n        itemsBeingSoldBySenderAddress[EMPTY_STRING][NEXT] = _keyItemIpfsHash;\r\n        \r\n        numberOfDifferentItemsBeingSoldBySellerMap[msg.sender] = GeneralUtilities._safeMathAdd(numberOfDifferentItemsBeingSoldBySellerMap[msg.sender], 1);\r\n        itemsKeysMap[combinedKeyAddressPlusItemIpfsHash] = true;\r\n        \r\n        _addSeller(msg.sender); // No seller added if Seller already exists.\r\n    }\r\n    \r\n    // Removes an Item - identified by the given \"_keyItemIpfsHash\" input - being Sold by a Seller in it's \"itemsBeingSoldBySpecificSeller\" double-linked list. \r\n    // The Seller in this function call is the \"msg.sender\" \r\n    // Ethereum Address that calls this function.\r\n    //\r\n    // WARNING! If this method causes removing the last Item for Sale, the Seller (i.e., the \"msg.sender\") will be removed from the \"listOfSellers\". \r\n    //\r\n    // Source --> https://ethereum.stackexchange.com/questions/15337/can-we-get-all-elements-stored-in-a-mapping-in-the-contract\r\n    function removeItemForSale(string memory _keyItemIpfsHash) public {\r\n        string memory combinedKeyAddressPlusItemIpfsHash = GeneralUtilities._getConcatenationOfEthereumAddressAndIpfsHash(msg.sender, _keyItemIpfsHash);\r\n        \r\n        if (!itemsKeysMap[combinedKeyAddressPlusItemIpfsHash]) {\r\n            return;\r\n        }\r\n        \r\n        // This below is the double-linked list of different types of Items being sold by a Seller.\r\n        mapping(string => mapping(bool => string)) storage itemsBeingSoldBySenderAddress = itemsBeingSoldBySpecificSeller[msg.sender];\r\n        \r\n        // Stitch the neighbours together\r\n        itemsBeingSoldBySenderAddress[ itemsBeingSoldBySenderAddress[_keyItemIpfsHash][PREV] ][NEXT] = itemsBeingSoldBySenderAddress[_keyItemIpfsHash][NEXT];\r\n        itemsBeingSoldBySenderAddress[ itemsBeingSoldBySenderAddress[_keyItemIpfsHash][NEXT] ][PREV] = itemsBeingSoldBySenderAddress[_keyItemIpfsHash][PREV];\r\n    \r\n        // Delete state storage\r\n        delete itemsBeingSoldBySenderAddress[_keyItemIpfsHash][PREV];\r\n        delete itemsBeingSoldBySenderAddress[_keyItemIpfsHash][NEXT];\r\n    \r\n        numberOfDifferentItemsBeingSoldBySellerMap[msg.sender] = GeneralUtilities._safeMathSubtract(numberOfDifferentItemsBeingSoldBySellerMap[msg.sender], 1);\r\n        delete itemsKeysMap[combinedKeyAddressPlusItemIpfsHash];\r\n        delete pricesOfItems[combinedKeyAddressPlusItemIpfsHash];\r\n        delete quantityAvailableForSaleOfEachItem[combinedKeyAddressPlusItemIpfsHash];\r\n        \r\n        if (numberOfDifferentItemsBeingSoldBySellerMap[msg.sender] == 0) {\r\n            _removeSeller(msg.sender);\r\n        }\r\n    }\r\n    \r\n    // Gets the number of different types of Items being sold by a Seller. Each Seller shall have a unique Ethereum Address that will be used to identify\r\n    // the Seller.\r\n    function getNumberOfDifferentItemsBeingSoldBySeller(address _sellerAddress) public view returns (uint) {\r\n        return numberOfDifferentItemsBeingSoldBySellerMap[_sellerAddress];\r\n    }\r\n    \r\n    // Gets the IPFS Hash string of an Item being sold by a Seller. Index values start at 0.\r\n    //\r\n    // This IPFS Hash string refers to a JSON-formatted string that is stored in the IPFS Storage System.\r\n    //\r\n    // Input Parameters:\r\n    // 1) _sellerAddress : The Ethereum Address of the Seller\r\n    // 2) _itemIndex : Index number into the \"itemsBeingSoldBySpecificSeller\" double-linked list of Items Seller is selling.\r\n    //    Index starts at 0.\r\n    //\r\n    // Returns:\r\n    // 1) If the \"_itemIndex\" refers to an Item that the \"_sellerAddress\" is selling, then the IPFS Hash string of the Item being sold is returned.\r\n    // 2) If the \"_itemIndex\" does NOT refer to an Item that the \"_sellerAddress\" is selling, then an EMPTY_STRING is returned.\r\n    function getItemForSale(address _sellerAddress, uint _itemIndex) public view returns (string memory) {\r\n        if (_itemIndex >= numberOfDifferentItemsBeingSoldBySellerMap[_sellerAddress]) {\r\n            return EMPTY_STRING;\r\n        }\r\n        \r\n        // This below is the double-linked list of different types of Items being sold by the \"_sellerAddress\".\r\n        mapping(string => mapping(bool => string)) storage itemsBeingSoldBySenderAddress = itemsBeingSoldBySpecificSeller[_sellerAddress];        \r\n        \r\n        uint keyCount = 0;\r\n        string memory ipfsHashKeyOfItem = EMPTY_STRING;\r\n        while (true) {\r\n            ipfsHashKeyOfItem = itemsBeingSoldBySenderAddress[ipfsHashKeyOfItem][NEXT];\r\n            if (keyCount == _itemIndex) {\r\n                break;\r\n            }\r\n            \r\n            keyCount++;\r\n        }\r\n        \r\n        return ipfsHashKeyOfItem;       \r\n    }\r\n    \r\n    // Returns back a boolean value indicating if a certain Item is available for sale from a given Seller.\r\n    //\r\n    // Input Parameters:\r\n    // 1) _sellerAddress : The Ethereum Address of the Seller\r\n    // 2) _keyItemIpfsHash : The IPFS Hash ID string identifying an Item For Sale\r\n    //\r\n    // Returns:\r\n    // 1) Boolean true : If the given \"_sellerAddress\" is selling the given Item identified by it's \"_keyItemIpfsHash\"\r\n    // 2) Boolean false : If the given \"_sellerAddress\" is NOT selling the given Item identified by it's \"_keyItemIpfsHash\"\r\n    function itemForSaleFromSellerExists(address _sellerAddress, string memory _keyItemIpfsHash) public view returns (bool) {\r\n        string memory combinedKeyAddressPlusItemIpfsHash = GeneralUtilities._getConcatenationOfEthereumAddressAndIpfsHash(_sellerAddress, _keyItemIpfsHash);\r\n        return itemsKeysMap[combinedKeyAddressPlusItemIpfsHash];\r\n    }\r\n\r\n    // Adds or Updates a Mediator with the given \" _mediatorIpfsHashDescription\", which refers to a JSON-formatted string stored in the IPFS Storage System.\r\n    // The \"msg.sender\" will be the Ethereum Address of the entity wishing to become a Mediator in this Smart Contract. This method allows anyone with an Ethereum \r\n    // Address to add himself/herself as a Mediator in this Smart Contract.\r\n    function addOrUpdateMediator(string memory _mediatorIpfsHashDescription) public {\r\n        mediationMarketplace.addOrUpdateMediator(msg.sender, _mediatorIpfsHashDescription);\r\n    }\r\n    \r\n    // Removes a Mediator from this Smart Contract. The \"msg.sender\" will be the Ethereum Address of the entity wishing to remove himself/herself as a Mediator in this Smart Contract. \r\n    // If there are any pending Sales that the Mediator is involved, the Sales and other information will still be kept.\r\n    // This method allows anyone with an Ethereum  Address to remove himself/herself as a Mediator in this Smart Contract. \r\n    function removeMediator() external {\r\n        mediationMarketplace.removeMediator(msg.sender);\r\n    }\r\n    \r\n    // Gets the Mediator Ethereum Address at the given \"_index\" from the \"listOfMediators\" double-linked list.\r\n    //\r\n    // Input Parameter:\r\n    // _itemIndex : Index number into the \"listOfMediators\" double-linked list.\r\n    //              Index starts at 0.\r\n    //\r\n    // Returns:\r\n    // 1) If the \"_index\" is less than the \"numberOfMediators\", then the Etheruem Address of the Mediator at the given \"_index\" into the \"listOfMediators\" double-linked list\r\n    //    is returned.\r\n    // 2) If the \"_index\" is greater than or equal to the \"numberOfMediators\", then an Exception is thrown via the \"require\" below.\r\n    function getMediatorAddress(uint _index) external view returns (address) {\r\n        return mediationMarketplace.getMediatorAddress(_index);\r\n    }\r\n    \r\n    // Gets the Number of Mediators in the \"listOfMediators\".\r\n    function getNumberOfMediators() external view returns (uint) {\r\n        return mediationMarketplace.getNumberOfMediators();\r\n    }\r\n    \r\n    // Returns back a boolean value to determine if the given \"_mediatorAddres\" is in the \"listOfMediators\".\r\n    function mediatorExists(address _mediatorAddress) external view returns (bool) {\r\n        return mediationMarketplace.mediatorExists(_mediatorAddress);\r\n    }\r\n    \r\n    // This method allows one of the parties involved in a Mediated Sales Transaction to Approve the given \"_mediatedSalesTransactionIpfsHash\" Mediated \r\n    // Sales Transaction. The \"msg.sender\" is the Ethereaum Address of one of the parties involved in the given \"_mediatedSalesTransactionIpfsHash\" Mediated \r\n    // Sales Transaction.\r\n    //\r\n    // Input Parameter:\r\n    // 1) _mediatedSalesTransactionIpfsHash : IPFS Hash string value that uniquely identifies the Mediated Sales Transaction. This IPFS Hash string value refers to   \r\n    //    what should be JSON-formatted string describing the Sale stored in the IPFS Storage System.\r\n    // 2) msg.sender : Ethereum Address of the party attempting to Approve the Mediated Sales Transaction.\r\n    function approveMediatedSalesTransaction(string memory _mediatedSalesTransactionIpfsHash) public {\r\n        mediationMarketplace.approveMediatedSalesTransaction(msg.sender, _mediatedSalesTransactionIpfsHash);\r\n    }\r\n    \r\n    // This method allows one of the parties involved in a Mediated Sales Transaction to Disapprove the given \"_mediatedSalesTransactionIpfsHash\" Mediated \r\n    // Sales Transaction. The \"msg.sender\" is the Ethereaum Address of one of the parties involved in the given \"_mediatedSalesTransactionIpfsHash\" Mediated \r\n    // Sales Transaction.\r\n    //\r\n    // Input Parameter:\r\n    // 1) _mediatedSalesTransactionIpfsHash : IPFS Hash string value that uniquely identifies the Mediated Sales Transaction. This IPFS Hash string value refers to   \r\n    //    what should be JSON-formatted string describing the Sale stored in the IPFS Storage System.\r\n    // 2) msg.sender : Ethereum Address of the party attempting to Disapprove the Mediated Sales Transaction\r\n    function disapproveMediatedSalesTransaction(string memory _mediatedSalesTransactionIpfsHash) public {\r\n        mediationMarketplace.disapproveMediatedSalesTransaction(msg.sender, _mediatedSalesTransactionIpfsHash);\r\n    }\r\n    \r\n    // Gets the Description of a Mediator identified by the given \"_mediatorAddress\". The Description will be the IPFS Hash where the JSON-formatted Description of the Mediator exists.\r\n    // If no such IPFS Hash Key Description exists, then an EMPTY_STRING will be returned. \r\n    function getMediatorIpfsHashDescription(address _mediatorAddress) external view returns (string memory) {\r\n        return mediationMarketplace.getMediatorIpfsHashDescription(_mediatorAddress); \r\n    }\r\n    \r\n    // Gets the Number of Mediations that the given \"_mediatorAddress\" Mediator has been involved.\r\n    function getNumberOfMediationsMediatorInvolved(address _mediatorAddress) external view returns (uint) {\r\n        return mediationMarketplace.getNumberOfMediationsMediatorInvolved(_mediatorAddress);\r\n    }\r\n}",
  "sourcePath": "/mnt/d/Kingsland-University-Decentralized-Marketplace-Decentralized-Application-Project-2019/contracts/FranklinDecentralizedMartketplace.sol",
  "compiler": {
    "name": "solc",
    "version": "0.5.8+commit.23d335f2.Emscripten.clang"
  },
  "schemaVersion": "3.0.16",
  "updatedAt": "2019-11-19T00:22:44.958Z",
  "devdoc": {
    "methods": {}
  },
  "userdoc": {
    "methods": {}
  }
}