{
  "contractName": "FranklinDecentralizedMartketplace",
  "abi": [
    {
      "constant": true,
      "inputs": [
        {
          "name": "",
          "type": "string"
        }
      ],
      "name": "quantityAvailableForSaleOfEachItem",
      "outputs": [
        {
          "name": "",
          "type": "uint256"
        }
      ],
      "payable": false,
      "stateMutability": "view",
      "type": "function"
    },
    {
      "constant": true,
      "inputs": [
        {
          "name": "",
          "type": "address"
        }
      ],
      "name": "numberOfDifferentItemsBeingSoldBySellerMap",
      "outputs": [
        {
          "name": "",
          "type": "uint256"
        }
      ],
      "payable": false,
      "stateMutability": "view",
      "type": "function"
    },
    {
      "constant": true,
      "inputs": [
        {
          "name": "",
          "type": "address"
        }
      ],
      "name": "sellerWillingToSellItemsViaMediator",
      "outputs": [
        {
          "name": "",
          "type": "bool"
        }
      ],
      "payable": false,
      "stateMutability": "view",
      "type": "function"
    },
    {
      "constant": true,
      "inputs": [
        {
          "name": "",
          "type": "string"
        },
        {
          "name": "",
          "type": "bool"
        }
      ],
      "name": "listOfSellers",
      "outputs": [
        {
          "name": "",
          "type": "string"
        }
      ],
      "payable": false,
      "stateMutability": "view",
      "type": "function"
    },
    {
      "constant": true,
      "inputs": [],
      "name": "mediationMarketplace",
      "outputs": [
        {
          "name": "",
          "type": "address"
        }
      ],
      "payable": false,
      "stateMutability": "view",
      "type": "function"
    },
    {
      "constant": true,
      "inputs": [],
      "name": "PREV",
      "outputs": [
        {
          "name": "",
          "type": "bool"
        }
      ],
      "payable": false,
      "stateMutability": "view",
      "type": "function"
    },
    {
      "constant": true,
      "inputs": [
        {
          "name": "",
          "type": "address"
        },
        {
          "name": "",
          "type": "string"
        },
        {
          "name": "",
          "type": "bool"
        }
      ],
      "name": "itemsBeingSoldBySpecificSeller",
      "outputs": [
        {
          "name": "",
          "type": "string"
        }
      ],
      "payable": false,
      "stateMutability": "view",
      "type": "function"
    },
    {
      "constant": true,
      "inputs": [
        {
          "name": "",
          "type": "address"
        }
      ],
      "name": "sellerExistsMap",
      "outputs": [
        {
          "name": "",
          "type": "bool"
        }
      ],
      "payable": false,
      "stateMutability": "view",
      "type": "function"
    },
    {
      "constant": true,
      "inputs": [
        {
          "name": "",
          "type": "string"
        }
      ],
      "name": "pricesOfItems",
      "outputs": [
        {
          "name": "",
          "type": "uint256"
        }
      ],
      "payable": false,
      "stateMutability": "view",
      "type": "function"
    },
    {
      "constant": true,
      "inputs": [],
      "name": "UNDER_SCORE_STRING",
      "outputs": [
        {
          "name": "",
          "type": "string"
        }
      ],
      "payable": false,
      "stateMutability": "view",
      "type": "function"
    },
    {
      "constant": true,
      "inputs": [
        {
          "name": "",
          "type": "address"
        }
      ],
      "name": "descriptionInfoAboutSellers",
      "outputs": [
        {
          "name": "",
          "type": "string"
        }
      ],
      "payable": false,
      "stateMutability": "view",
      "type": "function"
    },
    {
      "constant": true,
      "inputs": [],
      "name": "EMPTY_STRING",
      "outputs": [
        {
          "name": "",
          "type": "string"
        }
      ],
      "payable": false,
      "stateMutability": "view",
      "type": "function"
    },
    {
      "constant": true,
      "inputs": [
        {
          "name": "",
          "type": "string"
        }
      ],
      "name": "itemsKeysMap",
      "outputs": [
        {
          "name": "",
          "type": "bool"
        }
      ],
      "payable": false,
      "stateMutability": "view",
      "type": "function"
    },
    {
      "constant": true,
      "inputs": [],
      "name": "NEXT",
      "outputs": [
        {
          "name": "",
          "type": "bool"
        }
      ],
      "payable": false,
      "stateMutability": "view",
      "type": "function"
    },
    {
      "constant": true,
      "inputs": [],
      "name": "numberOfSellers",
      "outputs": [
        {
          "name": "",
          "type": "uint256"
        }
      ],
      "payable": false,
      "stateMutability": "view",
      "type": "function"
    },
    {
      "inputs": [],
      "payable": false,
      "stateMutability": "nonpayable",
      "type": "constructor"
    },
    {
      "constant": true,
      "inputs": [],
      "name": "getContractOwnerOfFranklinDecentralizedMarketplaceMediation",
      "outputs": [
        {
          "name": "",
          "type": "address"
        }
      ],
      "payable": false,
      "stateMutability": "view",
      "type": "function"
    },
    {
      "constant": true,
      "inputs": [
        {
          "name": "_sellerAddress",
          "type": "address"
        }
      ],
      "name": "sellerIsWillingToSellItemsViaMediator",
      "outputs": [
        {
          "name": "",
          "type": "bool"
        }
      ],
      "payable": false,
      "stateMutability": "view",
      "type": "function"
    },
    {
      "constant": false,
      "inputs": [
        {
          "name": "_flag",
          "type": "bool"
        }
      ],
      "name": "setSellerWillingToSellItemsViaMediator",
      "outputs": [],
      "payable": false,
      "stateMutability": "nonpayable",
      "type": "function"
    },
    {
      "constant": false,
      "inputs": [
        {
          "name": "_ipfsHashKeyDescription",
          "type": "string"
        }
      ],
      "name": "addOrUpdateSellerDescription",
      "outputs": [],
      "payable": false,
      "stateMutability": "nonpayable",
      "type": "function"
    },
    {
      "constant": true,
      "inputs": [
        {
          "name": "_sellerAddress",
          "type": "address"
        }
      ],
      "name": "getSellerIpfsHashDescription",
      "outputs": [
        {
          "name": "",
          "type": "string"
        }
      ],
      "payable": false,
      "stateMutability": "view",
      "type": "function"
    },
    {
      "constant": false,
      "inputs": [],
      "name": "removeSeller",
      "outputs": [],
      "payable": false,
      "stateMutability": "nonpayable",
      "type": "function"
    },
    {
      "constant": true,
      "inputs": [
        {
          "name": "_index",
          "type": "uint256"
        }
      ],
      "name": "getSellerAddress",
      "outputs": [
        {
          "name": "",
          "type": "address"
        }
      ],
      "payable": false,
      "stateMutability": "view",
      "type": "function"
    },
    {
      "constant": true,
      "inputs": [
        {
          "name": "_sellerAddress",
          "type": "address"
        }
      ],
      "name": "sellerExists",
      "outputs": [
        {
          "name": "",
          "type": "bool"
        }
      ],
      "payable": false,
      "stateMutability": "view",
      "type": "function"
    },
    {
      "constant": true,
      "inputs": [],
      "name": "getNumberOfSellers",
      "outputs": [
        {
          "name": "",
          "type": "uint256"
        }
      ],
      "payable": false,
      "stateMutability": "view",
      "type": "function"
    },
    {
      "constant": false,
      "inputs": [
        {
          "name": "_keyItemIpfsHash",
          "type": "string"
        },
        {
          "name": "_priceInWei",
          "type": "uint256"
        }
      ],
      "name": "setPriceOfItem",
      "outputs": [],
      "payable": false,
      "stateMutability": "nonpayable",
      "type": "function"
    },
    {
      "constant": true,
      "inputs": [
        {
          "name": "_sellerAddress",
          "type": "address"
        },
        {
          "name": "_keyItemIpfsHash",
          "type": "string"
        }
      ],
      "name": "getPriceOfItem",
      "outputs": [
        {
          "name": "",
          "type": "uint256"
        }
      ],
      "payable": false,
      "stateMutability": "view",
      "type": "function"
    },
    {
      "constant": false,
      "inputs": [
        {
          "name": "_keyItemIpfsHash",
          "type": "string"
        },
        {
          "name": "_quantity",
          "type": "uint256"
        }
      ],
      "name": "setQuantityAvailableForSaleOfAnItem",
      "outputs": [],
      "payable": false,
      "stateMutability": "nonpayable",
      "type": "function"
    },
    {
      "constant": false,
      "inputs": [
        {
          "name": "_sellerAddress",
          "type": "address"
        },
        {
          "name": "_keyItemIpfsHash",
          "type": "string"
        },
        {
          "name": "_quantity",
          "type": "uint256"
        }
      ],
      "name": "purchaseItemWithoutMediator",
      "outputs": [],
      "payable": true,
      "stateMutability": "payable",
      "type": "function"
    },
    {
      "constant": false,
      "inputs": [
        {
          "name": "_sellerAddress",
          "type": "address"
        },
        {
          "name": "_mediatorAddress",
          "type": "address"
        },
        {
          "name": "_keyItemIpfsHash",
          "type": "string"
        },
        {
          "name": "_mediatedSalesTransactionIpfsHash",
          "type": "string"
        },
        {
          "name": "_quantity",
          "type": "uint256"
        }
      ],
      "name": "purchaseItemWithMediator",
      "outputs": [],
      "payable": true,
      "stateMutability": "payable",
      "type": "function"
    },
    {
      "constant": false,
      "inputs": [
        {
          "name": "_keyItemIpfsHash",
          "type": "string"
        }
      ],
      "name": "addItemForSale",
      "outputs": [],
      "payable": false,
      "stateMutability": "nonpayable",
      "type": "function"
    },
    {
      "constant": false,
      "inputs": [
        {
          "name": "_keyItemIpfsHash",
          "type": "string"
        }
      ],
      "name": "removeItemForSale",
      "outputs": [],
      "payable": false,
      "stateMutability": "nonpayable",
      "type": "function"
    },
    {
      "constant": true,
      "inputs": [
        {
          "name": "_sellerAddress",
          "type": "address"
        }
      ],
      "name": "getNumberOfDifferentItemsBeingSoldBySeller",
      "outputs": [
        {
          "name": "",
          "type": "uint256"
        }
      ],
      "payable": false,
      "stateMutability": "view",
      "type": "function"
    },
    {
      "constant": true,
      "inputs": [
        {
          "name": "_sellerAddress",
          "type": "address"
        },
        {
          "name": "_itemIndex",
          "type": "uint256"
        }
      ],
      "name": "getItemForSale",
      "outputs": [
        {
          "name": "",
          "type": "string"
        }
      ],
      "payable": false,
      "stateMutability": "view",
      "type": "function"
    },
    {
      "constant": true,
      "inputs": [
        {
          "name": "_sellerAddress",
          "type": "address"
        },
        {
          "name": "_keyItemIpfsHash",
          "type": "string"
        }
      ],
      "name": "itemForSaleFromSellerExists",
      "outputs": [
        {
          "name": "",
          "type": "bool"
        }
      ],
      "payable": false,
      "stateMutability": "view",
      "type": "function"
    },
    {
      "constant": false,
      "inputs": [
        {
          "name": "_mediatorIpfsHashDescription",
          "type": "string"
        }
      ],
      "name": "addOrUpdateMediator",
      "outputs": [],
      "payable": false,
      "stateMutability": "nonpayable",
      "type": "function"
    },
    {
      "constant": false,
      "inputs": [],
      "name": "removeMediator",
      "outputs": [],
      "payable": false,
      "stateMutability": "nonpayable",
      "type": "function"
    },
    {
      "constant": true,
      "inputs": [
        {
          "name": "_index",
          "type": "uint256"
        }
      ],
      "name": "getMediatorAddress",
      "outputs": [
        {
          "name": "",
          "type": "address"
        }
      ],
      "payable": false,
      "stateMutability": "view",
      "type": "function"
    },
    {
      "constant": true,
      "inputs": [],
      "name": "getNumberOfMediators",
      "outputs": [
        {
          "name": "",
          "type": "uint256"
        }
      ],
      "payable": false,
      "stateMutability": "view",
      "type": "function"
    },
    {
      "constant": true,
      "inputs": [
        {
          "name": "_mediatorAddress",
          "type": "address"
        }
      ],
      "name": "mediatorExists",
      "outputs": [
        {
          "name": "",
          "type": "bool"
        }
      ],
      "payable": false,
      "stateMutability": "view",
      "type": "function"
    },
    {
      "constant": false,
      "inputs": [
        {
          "name": "_mediatedSalesTransactionIpfsHash",
          "type": "string"
        }
      ],
      "name": "approveMediatedSalesTransaction",
      "outputs": [],
      "payable": false,
      "stateMutability": "nonpayable",
      "type": "function"
    },
    {
      "constant": false,
      "inputs": [
        {
          "name": "_mediatedSalesTransactionIpfsHash",
          "type": "string"
        }
      ],
      "name": "disapproveMediatedSalesTransaction",
      "outputs": [],
      "payable": false,
      "stateMutability": "nonpayable",
      "type": "function"
    },
    {
      "constant": true,
      "inputs": [
        {
          "name": "_mediatorAddress",
          "type": "address"
        }
      ],
      "name": "getMediatorIpfsHashDescription",
      "outputs": [
        {
          "name": "",
          "type": "string"
        }
      ],
      "payable": false,
      "stateMutability": "view",
      "type": "function"
    }
  ],
  "bytecode": "0x60806040523480156200001157600080fd5b50604051620000209062000084565b604051809103906000f0801580156200003d573d6000803e3d6000fd5b50600a60006101000a81548173ffffffffffffffffffffffffffffffffffffffff021916908373ffffffffffffffffffffffffffffffffffffffff16021790555062000092565b614dfa806200709883390190565b616ff680620000a26000396000f3fe6080604052600436106102515760003560e01c806391754b4711610139578063c232d2de116100b6578063dd50cf7b1161007a578063dd50cf7b1461199b578063e35c61cb14611a7b578063f4048e5514611b43578063f409398f14611b6e578063f82745be14611b9d578063fcd2107814611bc857610251565b8063c232d2de146116d7578063d3fc6d91146117a1578063d94695a0146117de578063d9a1e27b146118a6578063dc82f0541461190b57610251565b8063bcf383a8116100fd578063bcf383a814611432578063be3ecf9d146114ad578063c008b40614611516578063c0e52864146115de578063c0fc79bb1461166e57610251565b806391754b47146110cc578063988fc83e146111355780639f42ed2414611209578063a675364d146112db578063aa3547401461135657610251565b80633bc70e3c116101d25780634360502c116101965780634360502c14610c635780636a5ec10314610cba5780636c84d46514610e075780637107bf8714610e5e5780637e0ab22014610f305780638d1a5ce514610f5f57610251565b80633bc70e3c146108cf5780633d2d4de3146109cb57806340aeadd514610acb57806340c31a8c14610b30578063424f537f14610bfa57610251565b80631d1ca279116102195780631d1ca279146104a55780631db032071461056f578063251ed3b9146105865780632b06d5a41461066b57806330451e8e1461080757610251565b806307b91bdf146102565780630ad2c9d114610332578063184264811461035d5780631967766b146104255780631a67405c1461043c575b600080fd5b34801561026257600080fd5b5061031c6004803603602081101561027957600080fd5b810190808035906020019064010000000081111561029657600080fd5b8201836020820111156102a857600080fd5b803590602001918460018302840111640100000000831117156102ca57600080fd5b91908080601f016020809104026020016040519081016040528093929190818152602001838380828437600081840152601f19601f820116905080830192505050505050509192919290505050611c90565b6040518082815260200191505060405180910390f35b34801561033e57600080fd5b50610347611cbe565b6040518082815260200191505060405180910390f35b34801561036957600080fd5b506104236004803603602081101561038057600080fd5b810190808035906020019064010000000081111561039d57600080fd5b8201836020820111156103af57600080fd5b803590602001918460018302840111640100000000831117156103d157600080fd5b91908080601f016020809104026020016040519081016040528093929190818152602001838380828437600081840152601f19601f820116905080830192505050505050509192919290505050611d68565b005b34801561043157600080fd5b5061043a6124c4565b005b34801561044857600080fd5b5061048b6004803603602081101561045f57600080fd5b81019080803573ffffffffffffffffffffffffffffffffffffffff16906020019092919050505061257f565b604051808215151515815260200191505060405180910390f35b3480156104b157600080fd5b506104f4600480360360208110156104c857600080fd5b81019080803573ffffffffffffffffffffffffffffffffffffffff169060200190929190505050612662565b6040518080602001828103825283818151815260200191508051906020019080838360005b83811015610534578082015181840152602081019050610519565b50505050905090810190601f1680156105615780820380516001836020036101000a031916815260200191505b509250505060405180910390f35b34801561057b57600080fd5b50610584612743565b005b6106696004803603606081101561059c57600080fd5b81019080803573ffffffffffffffffffffffffffffffffffffffff169060200190929190803590602001906401000000008111156105d957600080fd5b8201836020820111156105eb57600080fd5b8035906020019184600183028401116401000000008311171561060d57600080fd5b91908080601f016020809104026020016040519081016040528093929190818152602001838380828437600081840152601f19601f8201169050808301925050505050505091929192908035906020019092919050505061283f565b005b610805600480360360a081101561068157600080fd5b81019080803573ffffffffffffffffffffffffffffffffffffffff169060200190929190803573ffffffffffffffffffffffffffffffffffffffff169060200190929190803590602001906401000000008111156106de57600080fd5b8201836020820111156106f057600080fd5b8035906020019184600183028401116401000000008311171561071257600080fd5b91908080601f016020809104026020016040519081016040528093929190818152602001838380828437600081840152601f19601f8201169050808301925050505050505091929192908035906020019064010000000081111561077557600080fd5b82018360208201111561078757600080fd5b803590602001918460018302840111640100000000831117156107a957600080fd5b91908080601f016020809104026020016040519081016040528093929190818152602001838380828437600081840152601f19601f82011690508083019250505050505050919291929080359060200190929190505050612f95565b005b34801561081357600080fd5b506108cd6004803603602081101561082a57600080fd5b810190808035906020019064010000000081111561084757600080fd5b82018360208201111561085957600080fd5b8035906020019184600183028401116401000000008311171561087b57600080fd5b91908080601f016020809104026020016040519081016040528093929190818152602001838380828437600081840152601f19601f82011690508083019250505050505050919291929050505061394b565b005b3480156108db57600080fd5b506109b5600480360360408110156108f257600080fd5b81019080803573ffffffffffffffffffffffffffffffffffffffff1690602001909291908035906020019064010000000081111561092f57600080fd5b82018360208201111561094157600080fd5b8035906020019184600183028401116401000000008311171561096357600080fd5b91908080601f016020809104026020016040519081016040528093929190818152602001838380828437600081840152601f19601f820116905080830192505050505050509192919290505050613a74565b6040518082815260200191505060405180910390f35b3480156109d757600080fd5b50610ab1600480360360408110156109ee57600080fd5b81019080803573ffffffffffffffffffffffffffffffffffffffff16906020019092919080359060200190640100000000811115610a2b57600080fd5b820183602082011115610a3d57600080fd5b80359060200191846001830284011164010000000083111715610a5f57600080fd5b91908080601f016020809104026020016040519081016040528093929190818152602001838380828437600081840152601f19601f820116905080830192505050505050509192919290505050613c32565b604051808215151515815260200191505060405180910390f35b348015610ad757600080fd5b50610b1a60048036036020811015610aee57600080fd5b81019080803573ffffffffffffffffffffffffffffffffffffffff169060200190929190505050613cc2565b6040518082815260200191505060405180910390f35b348015610b3c57600080fd5b50610b7f60048036036020811015610b5357600080fd5b81019080803573ffffffffffffffffffffffffffffffffffffffff169060200190929190505050613cda565b6040518080602001828103825283818151815260200191508051906020019080838360005b83811015610bbf578082015181840152602081019050610ba4565b50505050905090810190601f168015610bec5780820380516001836020036101000a031916815260200191505b509250505060405180910390f35b348015610c0657600080fd5b50610c4960048036036020811015610c1d57600080fd5b81019080803573ffffffffffffffffffffffffffffffffffffffff169060200190929190505050613e13565b604051808215151515815260200191505060405180910390f35b348015610c6f57600080fd5b50610c78613e33565b604051808273ffffffffffffffffffffffffffffffffffffffff1673ffffffffffffffffffffffffffffffffffffffff16815260200191505060405180910390f35b348015610cc657600080fd5b50610d8c60048036036040811015610cdd57600080fd5b8101908080359060200190640100000000811115610cfa57600080fd5b820183602082011115610d0c57600080fd5b80359060200191846001830284011164010000000083111715610d2e57600080fd5b91908080601f016020809104026020016040519081016040528093929190818152602001838380828437600081840152601f19601f820116905080830192505050505050509192919290803515159060200190929190505050613edd565b6040518080602001828103825283818151815260200191508051906020019080838360005b83811015610dcc578082015181840152602081019050610db1565b50505050905090810190601f168015610df95780820380516001836020036101000a031916815260200191505b509250505060405180910390f35b348015610e1357600080fd5b50610e1c613fb0565b604051808273ffffffffffffffffffffffffffffffffffffffff1673ffffffffffffffffffffffffffffffffffffffff16815260200191505060405180910390f35b348015610e6a57600080fd5b50610f2e60048036036040811015610e8157600080fd5b8101908080359060200190640100000000811115610e9e57600080fd5b820183602082011115610eb057600080fd5b80359060200191846001830284011164010000000083111715610ed257600080fd5b91908080601f016020809104026020016040519081016040528093929190818152602001838380828437600081840152601f19601f82011690508083019250505050505050919291929080359060200190929190505050613fd6565b005b348015610f3c57600080fd5b50610f45614192565b604051808215151515815260200191505060405180910390f35b348015610f6b57600080fd5b5061105160048036036060811015610f8257600080fd5b81019080803573ffffffffffffffffffffffffffffffffffffffff16906020019092919080359060200190640100000000811115610fbf57600080fd5b820183602082011115610fd157600080fd5b80359060200191846001830284011164010000000083111715610ff357600080fd5b91908080601f016020809104026020016040519081016040528093929190818152602001838380828437600081840152601f19601f820116905080830192505050505050509192919290803515159060200190929190505050614197565b6040518080602001828103825283818151815260200191508051906020019080838360005b83811015611091578082015181840152602081019050611076565b50505050905090810190601f1680156110be5780820380516001836020036101000a031916815260200191505b509250505060405180910390f35b3480156110d857600080fd5b5061111b600480360360208110156110ef57600080fd5b81019080803573ffffffffffffffffffffffffffffffffffffffff169060200190929190505050614277565b604051808215151515815260200191505060405180910390f35b34801561114157600080fd5b5061118e6004803603604081101561115857600080fd5b81019080803573ffffffffffffffffffffffffffffffffffffffff16906020019092919080359060200190929190505050614297565b6040518080602001828103825283818151815260200191508051906020019080838360005b838110156111ce5780820151818401526020810190506111b3565b50505050905090810190601f1680156111fb5780820380516001836020036101000a031916815260200191505b509250505060405180910390f35b34801561121557600080fd5b506112d96004803603604081101561122c57600080fd5b810190808035906020019064010000000081111561124957600080fd5b82018360208201111561125b57600080fd5b8035906020019184600183028401116401000000008311171561127d57600080fd5b91908080601f016020809104026020016040519081016040528093929190818152602001838380828437600081840152601f19601f8201169050808301925050505050505091929192908035906020019092919050505061449a565b005b3480156112e757600080fd5b50611314600480360360208110156112fe57600080fd5b8101908080359060200190929190505050614656565b604051808273ffffffffffffffffffffffffffffffffffffffff1673ffffffffffffffffffffffffffffffffffffffff16815260200191505060405180910390f35b34801561136257600080fd5b5061141c6004803603602081101561137957600080fd5b810190808035906020019064010000000081111561139657600080fd5b8201836020820111156113a857600080fd5b803590602001918460018302840111640100000000831117156113ca57600080fd5b91908080601f016020809104026020016040519081016040528093929190818152602001838380828437600081840152601f19601f820116905080830192505050505050509192919290505050614819565b6040518082815260200191505060405180910390f35b34801561143e57600080fd5b5061146b6004803603602081101561145557600080fd5b8101908080359060200190929190505050614847565b604051808273ffffffffffffffffffffffffffffffffffffffff1673ffffffffffffffffffffffffffffffffffffffff16815260200191505060405180910390f35b3480156114b957600080fd5b506114fc600480360360208110156114d057600080fd5b81019080803573ffffffffffffffffffffffffffffffffffffffff1690602001909291905050506148fe565b604051808215151515815260200191505060405180910390f35b34801561152257600080fd5b506115dc6004803603602081101561153957600080fd5b810190808035906020019064010000000081111561155657600080fd5b82018360208201111561156857600080fd5b8035906020019184600183028401116401000000008311171561158a57600080fd5b91908080601f016020809104026020016040519081016040528093929190818152602001838380828437600081840152601f19601f820116905080830192505050505050509192919290505050614954565b005b3480156115ea57600080fd5b506115f3614ab2565b6040518080602001828103825283818151815260200191508051906020019080838360005b83811015611633578082015181840152602081019050611618565b50505050905090810190601f1680156116605780820380516001836020036101000a031916815260200191505b509250505060405180910390f35b34801561167a57600080fd5b506116bd6004803603602081101561169157600080fd5b81019080803573ffffffffffffffffffffffffffffffffffffffff169060200190929190505050614aeb565b604051808215151515815260200191505060405180910390f35b3480156116e357600080fd5b50611726600480360360208110156116fa57600080fd5b81019080803573ffffffffffffffffffffffffffffffffffffffff169060200190929190505050614b41565b6040518080602001828103825283818151815260200191508051906020019080838360005b8381101561176657808201518184015260208101905061174b565b50505050905090810190601f1680156117935780820380516001836020036101000a031916815260200191505b509250505060405180910390f35b3480156117ad57600080fd5b506117dc600480360360208110156117c457600080fd5b81019080803515159060200190929190505050614bf1565b005b3480156117ea57600080fd5b506118a46004803603602081101561180157600080fd5b810190808035906020019064010000000081111561181e57600080fd5b82018360208201111561183057600080fd5b8035906020019184600183028401116401000000008311171561185257600080fd5b91908080601f016020809104026020016040519081016040528093929190818152602001838380828437600081840152601f19601f820116905080830192505050505050509192919290505050614ca2565b005b3480156118b257600080fd5b506118f5600480360360208110156118c957600080fd5b81019080803573ffffffffffffffffffffffffffffffffffffffff169060200190929190505050614dcb565b6040518082815260200191505060405180910390f35b34801561191757600080fd5b50611920614e14565b6040518080602001828103825283818151815260200191508051906020019080838360005b83811015611960578082015181840152602081019050611945565b50505050905090810190601f16801561198d5780820380516001836020036101000a031916815260200191505b509250505060405180910390f35b3480156119a757600080fd5b50611a61600480360360208110156119be57600080fd5b81019080803590602001906401000000008111156119db57600080fd5b8201836020820111156119ed57600080fd5b80359060200191846001830284011164010000000083111715611a0f57600080fd5b91908080601f016020809104026020016040519081016040528093929190818152602001838380828437600081840152601f19601f820116905080830192505050505050509192919290505050614e27565b604051808215151515815260200191505060405180910390f35b348015611a8757600080fd5b50611b4160048036036020811015611a9e57600080fd5b8101908080359060200190640100000000811115611abb57600080fd5b820183602082011115611acd57600080fd5b80359060200191846001830284011164010000000083111715611aef57600080fd5b91908080601f016020809104026020016040519081016040528093929190818152602001838380828437600081840152601f19601f820116905080830192505050505050509192919290505050614e5d565b005b348015611b4f57600080fd5b50611b58614f86565b6040518082815260200191505060405180910390f35b348015611b7a57600080fd5b50611b83614f90565b604051808215151515815260200191505060405180910390f35b348015611ba957600080fd5b50611bb2614f95565b6040518082815260200191505060405180910390f35b348015611bd457600080fd5b50611c8e60048036036020811015611beb57600080fd5b8101908080359060200190640100000000811115611c0857600080fd5b820183602082011115611c1a57600080fd5b80359060200191846001830284011164010000000083111715611c3c57600080fd5b91908080601f016020809104026020016040519081016040528093929190818152602001838380828437600081840152601f19601f820116905080830192505050505050509192919290505050614f9b565b005b6001818051602081018201805184825260208301602085012081835280955050505050506000915090505481565b6000600a60009054906101000a900473ffffffffffffffffffffffffffffffffffffffff1673ffffffffffffffffffffffffffffffffffffffff16630ad2c9d16040518163ffffffff1660e01b815260040160206040518083038186803b158015611d2857600080fd5b505afa158015611d3c573d6000803e3d6000fd5b505050506040513d6020811015611d5257600080fd5b8101908080519060200190929190505050905090565b6060611d74338361558f565b90506003816040518082805190602001908083835b60208310611dac5780518252602082019150602081019050602083039250611d89565b6001836020036101000a038019825116818451168082178552505050505050905001915050908152602001604051809103902060009054906101000a900460ff16611df757506124c1565b6000600260003373ffffffffffffffffffffffffffffffffffffffff1673ffffffffffffffffffffffffffffffffffffffff168152602001908152602001600020905080836040518082805190602001908083835b60208310611e6f5780518252602082019150602081019050602083039250611e4c565b6001836020036101000a0380198251168184511680821785525050505050509050019150509081526020016040518091039020600060011515151581526020019081526020016000208182856040518082805190602001908083835b60208310611eee5780518252602082019150602081019050602083039250611ecb565b6001836020036101000a03801982511681845116808217855250505050505090500191505090815260200160405180910390206000801515151581526020019081526020016000206040518082805460018160011615610100020316600290048015611f915780601f10611f6f576101008083540402835291820191611f91565b820191906000526020600020905b815481529060010190602001808311611f7d575b50509150509081526020016040518091039020600060011515151581526020019081526020016000209080546001816001161561010002031660029004611fd9929190616885565b5080836040518082805190602001908083835b6020831061200f5780518252602082019150602081019050602083039250611fec565b6001836020036101000a03801982511681845116808217855250505050505090500191505090815260200160405180910390206000801515151581526020019081526020016000208182856040518082805190602001908083835b6020831061208d578051825260208201915060208101905060208303925061206a565b6001836020036101000a03801982511681845116808217855250505050505090500191505090815260200160405180910390206000600115151515815260200190815260200160002060405180828054600181600116156101000203166002900480156121315780601f1061210f576101008083540402835291820191612131565b820191906000526020600020905b81548152906001019060200180831161211d575b505091505090815260200160405180910390206000801515151581526020019081526020016000209080546001816001161561010002031660029004612178929190616885565b5080836040518082805190602001908083835b602083106121ae578051825260208201915060208101905060208303925061218b565b6001836020036101000a03801982511681845116808217855250505050505090500191505090815260200160405180910390206000801515151581526020019081526020016000206000612202919061690c565b80836040518082805190602001908083835b602083106122375780518252602082019150602081019050602083039250612214565b6001836020036101000a038019825116818451168082178552505050505050905001915050908152602001604051809103902060006001151515158152602001908152602001600020600061228c919061690c565b6122d6600460003373ffffffffffffffffffffffffffffffffffffffff1673ffffffffffffffffffffffffffffffffffffffff1681526020019081526020016000205460016156e7565b600460003373ffffffffffffffffffffffffffffffffffffffff1673ffffffffffffffffffffffffffffffffffffffff168152602001908152602001600020819055506003826040518082805190602001908083835b6020831061234f578051825260208201915060208101905060208303925061232c565b6001836020036101000a038019825116818451168082178552505050505050905001915050908152602001604051809103902060006101000a81549060ff02191690556000826040518082805190602001908083835b602083106123c857805182526020820191506020810190506020830392506123a5565b6001836020036101000a0380198251168184511680821785525050505050509050019150509081526020016040518091039020600090556001826040518082805190602001908083835b602083106124355780518252602082019150602081019050602083039250612412565b6001836020036101000a0380198251168184511680821785525050505050509050019150509081526020016040518091039020600090556000600460003373ffffffffffffffffffffffffffffffffffffffff1673ffffffffffffffffffffffffffffffffffffffff1681526020019081526020016000205414156124be576124bd33615753565b5b50505b50565b600a60009054906101000a900473ffffffffffffffffffffffffffffffffffffffff1673ffffffffffffffffffffffffffffffffffffffff16638116e5fb336040518263ffffffff1660e01b8152600401808273ffffffffffffffffffffffffffffffffffffffff1673ffffffffffffffffffffffffffffffffffffffff168152602001915050600060405180830381600087803b15801561256557600080fd5b505af1158015612579573d6000803e3d6000fd5b50505050565b6000600a60009054906101000a900473ffffffffffffffffffffffffffffffffffffffff1673ffffffffffffffffffffffffffffffffffffffff16631a67405c836040518263ffffffff1660e01b8152600401808273ffffffffffffffffffffffffffffffffffffffff1673ffffffffffffffffffffffffffffffffffffffff16815260200191505060206040518083038186803b15801561262057600080fd5b505afa158015612634573d6000803e3d6000fd5b505050506040513d602081101561264a57600080fd5b81019080805190602001909291905050509050919050565b6060600860008373ffffffffffffffffffffffffffffffffffffffff1673ffffffffffffffffffffffffffffffffffffffff1681526020019081526020016000208054600181600116156101000203166002900480601f0160208091040260200160405190810160405280929190818152602001828054600181600116156101000203166002900480156127375780601f1061270c57610100808354040283529160200191612737565b820191906000526020600020905b81548152906001019060200180831161271a57829003601f168201915b50505050509050919050565b6000600460003373ffffffffffffffffffffffffffffffffffffffff1673ffffffffffffffffffffffffffffffffffffffff1681526020019081526020016000205490506060816040519080825280602002602001820160405280156127bd57816020015b60608152602001906001900390816127a85790505b50905060008090505b828110156128025760606127da3383614297565b9050808383815181106127e957fe5b60200260200101819052505080806001019150506127c6565b5060008090505b8281101561283a5761282d82828151811061282057fe5b6020026020010151611d68565b8080600101915050612809565b505050565b60008111612898576040517f08c379a00000000000000000000000000000000000000000000000000000000081526004018080602001828103825260418152602001806169fa6041913960600191505060405180910390fd5b6128b18260405180602001604052806000815250615cc5565b15612907576040517f08c379a0000000000000000000000000000000000000000000000000000000008152600401808060200182810382526050815260200180616e096050913960600191505060405180910390fd5b8273ffffffffffffffffffffffffffffffffffffffff163373ffffffffffffffffffffffffffffffffffffffff16141561298c576040517f08c379a000000000000000000000000000000000000000000000000000000000815260040180806020018281038252603b815260200180616e59603b913960400191505060405180910390fd5b600660008473ffffffffffffffffffffffffffffffffffffffff1673ffffffffffffffffffffffffffffffffffffffff16815260200190815260200160002060009054906101000a900460ff16612a2e576040517f08c379a0000000000000000000000000000000000000000000000000000000008152600401808060200182810382526030815260200180616d546030913960400191505060405180910390fd5b6060612a3a338461558f565b90506003816040518082805190602001908083835b60208310612a725780518252602082019150602081019050602083039250612a4f565b6001836020036101000a038019825116818451168082178552505050505050905001915050908152602001604051809103902060009054906101000a900460ff16612b08576040517f08c379a000000000000000000000000000000000000000000000000000000000815260040180806020018281038252604a815260200180616b46604a913960600191505060405180910390fd5b60006001826040518082805190602001908083835b60208310612b405780518252602082019150602081019050602083039250612b1d565b6001836020036101000a03801982511681845116808217855250505050505090500191505090815260200160405180910390205411612bca576040517f08c379a000000000000000000000000000000000000000000000000000000000815260040180806020018281038252604f815260200180616d05604f913960600191505060405180910390fd5b816001826040518082805190602001908083835b60208310612c015780518252602082019150602081019050602083039250612bde565b6001836020036101000a0380198251168184511680821785525050505050509050019150509081526020016040518091039020541015612c8c576040517f08c379a0000000000000000000000000000000000000000000000000000000008152600401808060200182810382526093815260200180616c356093913960a00191505060405180910390fd5b600080826040518082805190602001908083835b60208310612cc35780518252602082019150602081019050602083039250612ca0565b6001836020036101000a03801982511681845116808217855250505050505090500191505090815260200160405180910390205411612d4d576040517f08c379a000000000000000000000000000000000000000000000000000000000815260040180806020018281038252605d815260200180616dac605d913960600191505060405180910390fd5b6000612dc26000836040518082805190602001908083835b60208310612d885780518252602082019150602081019050602083039250612d65565b6001836020036101000a03801982511681845116808217855250505050505090500191505090815260200160405180910390205484615db4565b905080341015612e1d576040517f08c379a0000000000000000000000000000000000000000000000000000000008152600401808060200182810382526047815260200180616ed16047913960600191505060405180910390fd5b612e916001836040518082805190602001908083835b60208310612e565780518252602082019150602081019050602083039250612e33565b6001836020036101000a03801982511681845116808217855250505050505090500191505090815260200160405180910390205460016156e7565b6001836040518082805190602001908083835b60208310612ec75780518252602082019150602081019050602083039250612ea4565b6001836020036101000a0380198251168184511680821785525050505050509050019150509081526020016040518091039020819055503373ffffffffffffffffffffffffffffffffffffffff166108fc8234039081150290604051600060405180830381858888f19350505050158015612f46573d6000803e3d6000fd5b508473ffffffffffffffffffffffffffffffffffffffff166108fc829081150290604051600060405180830381858888f19350505050158015612f8d573d6000803e3d6000fd5b505050505050565b60008111612fee576040517f08c379a00000000000000000000000000000000000000000000000000000000081526004018080602001828103825260418152602001806169fa6041913960600191505060405180910390fd5b6130078360405180602001604052806000815250615cc5565b1561305d576040517f08c379a0000000000000000000000000000000000000000000000000000000008152600401808060200182810382526050815260200180616e096050913960600191505060405180910390fd5b6130768260405180602001604052806000815250615cc5565b156130cc576040517f08c379a0000000000000000000000000000000000000000000000000000000008152600401808060200182810382526054815260200180616a806054913960600191505060405180910390fd5b600660008673ffffffffffffffffffffffffffffffffffffffff1673ffffffffffffffffffffffffffffffffffffffff16815260200190815260200160002060009054906101000a900460ff1661316e576040517f08c379a0000000000000000000000000000000000000000000000000000000008152600401808060200182810382526030815260200180616d546030913960400191505060405180910390fd5b606061317a338561558f565b90506003816040518082805190602001908083835b602083106131b2578051825260208201915060208101905060208303925061318f565b6001836020036101000a038019825116818451168082178552505050505050905001915050908152602001604051809103902060009054906101000a900460ff16613248576040517f08c379a000000000000000000000000000000000000000000000000000000000815260040180806020018281038252604a815260200180616b46604a913960600191505060405180910390fd5b60006001826040518082805190602001908083835b60208310613280578051825260208201915060208101905060208303925061325d565b6001836020036101000a0380198251168184511680821785525050505050509050019150509081526020016040518091039020541161330a576040517f08c379a000000000000000000000000000000000000000000000000000000000815260040180806020018281038252604f815260200180616d05604f913960600191505060405180910390fd5b816001826040518082805190602001908083835b60208310613341578051825260208201915060208101905060208303925061331e565b6001836020036101000a03801982511681845116808217855250505050505090500191505090815260200160405180910390205410156133cc576040517f08c379a0000000000000000000000000000000000000000000000000000000008152600401808060200182810382526093815260200180616c356093913960a00191505060405180910390fd5b600080826040518082805190602001908083835b6020831061340357805182526020820191506020810190506020830392506133e0565b6001836020036101000a0380198251168184511680821785525050505050509050019150509081526020016040518091039020541161348d576040517f08c379a000000000000000000000000000000000000000000000000000000000815260040180806020018281038252605d815260200180616dac605d913960600191505060405180910390fd5b60006135026000836040518082805190602001908083835b602083106134c857805182526020820191506020810190506020830392506134a5565b6001836020036101000a03801982511681845116808217855250505050505090500191505090815260200160405180910390205484615db4565b90508034101561355d576040517f08c379a0000000000000000000000000000000000000000000000000000000008152600401808060200182810382526047815260200180616ed16047913960600191505060405180910390fd5b8673ffffffffffffffffffffffffffffffffffffffff163373ffffffffffffffffffffffffffffffffffffffff1614156135e2576040517f08c379a000000000000000000000000000000000000000000000000000000000815260040180806020018281038252603b815260200180616e59603b913960400191505060405180910390fd5b8573ffffffffffffffffffffffffffffffffffffffff163373ffffffffffffffffffffffffffffffffffffffff161415613667576040517f08c379a000000000000000000000000000000000000000000000000000000000815260040180806020018281038252603d815260200180616e94603d913960400191505060405180910390fd5b8573ffffffffffffffffffffffffffffffffffffffff168773ffffffffffffffffffffffffffffffffffffffff1614156136ec576040517f08c379a000000000000000000000000000000000000000000000000000000000815260040180806020018281038252603e815260200180616f62603e913960400191505060405180910390fd5b600a60009054906101000a900473ffffffffffffffffffffffffffffffffffffffff1673ffffffffffffffffffffffffffffffffffffffff1663c63b7eb433898988866040518663ffffffff1660e01b8152600401808673ffffffffffffffffffffffffffffffffffffffff1673ffffffffffffffffffffffffffffffffffffffff1681526020018573ffffffffffffffffffffffffffffffffffffffff1673ffffffffffffffffffffffffffffffffffffffff1681526020018473ffffffffffffffffffffffffffffffffffffffff1673ffffffffffffffffffffffffffffffffffffffff16815260200180602001838152602001828103825284818151815260200191508051906020019080838360005b8381101561381a5780820151818401526020810190506137ff565b50505050905090810190601f1680156138475780820380516001836020036101000a031916815260200191505b509650505050505050600060405180830381600087803b15801561386a57600080fd5b505af115801561387e573d6000803e3d6000fd5b505050503373ffffffffffffffffffffffffffffffffffffffff166108fc8234039081150290604051600060405180830381858888f193505050501580156138ca573d6000803e3d6000fd5b5060006138f8600a60009054906101000a900473ffffffffffffffffffffffffffffffffffffffff16615ea6565b90508073ffffffffffffffffffffffffffffffffffffffff166108fc839081150290604051600060405180830381858888f19350505050158015613940573d6000803e3d6000fd5b505050505050505050565b600a60009054906101000a900473ffffffffffffffffffffffffffffffffffffffff1673ffffffffffffffffffffffffffffffffffffffff1663f0a750c033836040518363ffffffff1660e01b8152600401808373ffffffffffffffffffffffffffffffffffffffff1673ffffffffffffffffffffffffffffffffffffffff16815260200180602001828103825283818151815260200191508051906020019080838360005b83811015613a0c5780820151818401526020810190506139f1565b50505050905090810190601f168015613a395780820380516001836020036101000a031916815260200191505b509350505050600060405180830381600087803b158015613a5957600080fd5b505af1158015613a6d573d6000803e3d6000fd5b5050505050565b6000613a8f8260405180602001604052806000815250615cc5565b15613ae5576040517f08c379a000000000000000000000000000000000000000000000000000000000815260040180806020018281038252603d815260200180616cc8603d913960400191505060405180910390fd5b6060613af1848461558f565b90506003816040518082805190602001908083835b60208310613b295780518252602082019150602081019050602083039250613b06565b6001836020036101000a038019825116818451168082178552505050505050905001915050908152602001604051809103902060009054906101000a900460ff16613bbf576040517f08c379a000000000000000000000000000000000000000000000000000000000815260040180806020018281038252604a815260200180616b46604a913960600191505060405180910390fd5b6000816040518082805190602001908083835b60208310613bf55780518252602082019150602081019050602083039250613bd2565b6001836020036101000a03801982511681845116808217855250505050505090500191505090815260200160405180910390205491505092915050565b60006060613c40848461558f565b90506003816040518082805190602001908083835b60208310613c785780518252602082019150602081019050602083039250613c55565b6001836020036101000a038019825116818451168082178552505050505050905001915050908152602001604051809103902060009054906101000a900460ff1691505092915050565b60046020528060005260406000206000915090505481565b6060600a60009054906101000a900473ffffffffffffffffffffffffffffffffffffffff1673ffffffffffffffffffffffffffffffffffffffff166340c31a8c836040518263ffffffff1660e01b8152600401808273ffffffffffffffffffffffffffffffffffffffff1673ffffffffffffffffffffffffffffffffffffffff16815260200191505060006040518083038186803b158015613d7b57600080fd5b505afa158015613d8f573d6000803e3d6000fd5b505050506040513d6000823e3d601f19601f820116820180604052506020811015613db957600080fd5b810190808051640100000000811115613dd157600080fd5b82810190506020810184811115613de757600080fd5b8151856001820283011164010000000082111715613e0457600080fd5b50509291905050509050919050565b60096020528060005260406000206000915054906101000a900460ff1681565b6000600a60009054906101000a900473ffffffffffffffffffffffffffffffffffffffff1673ffffffffffffffffffffffffffffffffffffffff1663ff670a2f6040518163ffffffff1660e01b815260040160206040518083038186803b158015613e9d57600080fd5b505afa158015613eb1573d6000803e3d6000fd5b505050506040513d6020811015613ec757600080fd5b8101908080519060200190929190505050905090565b600582805160208101820180518482526020830160208501208183528095505050505050602052806000526040600020600091509150508054600181600116156101000203166002900480601f016020809104026020016040519081016040528092919081815260200182805460018160011615610100020316600290048015613fa85780601f10613f7d57610100808354040283529160200191613fa8565b820191906000526020600020905b815481529060010190602001808311613f8b57829003601f168201915b505050505081565b600a60009054906101000a900473ffffffffffffffffffffffffffffffffffffffff1681565b613fef8260405180602001604052806000815250615cc5565b15614045576040517f08c379a0000000000000000000000000000000000000000000000000000000008152600401808060200182810382526045815260200180616a3b6045913960600191505060405180910390fd5b6060614051338461558f565b90506003816040518082805190602001908083835b602083106140895780518252602082019150602081019050602083039250614066565b6001836020036101000a038019825116818451168082178552505050505050905001915050908152602001604051809103902060009054906101000a900460ff1661411f576040517f08c379a000000000000000000000000000000000000000000000000000000000815260040180806020018281038252604f815260200180616b90604f913960600191505060405180910390fd5b816000826040518082805190602001908083835b602083106141565780518252602082019150602081019050602083039250614133565b6001836020036101000a038019825116818451168082178552505050505050905001915050908152602001604051809103902081905550505050565b600081565b60026020528260005260406000208280516020810182018051848252602083016020850120818352809550505050505060205280600052604060002060009250925050508054600181600116156101000203166002900480601f01602080910402602001604051908101604052809291908181526020018280546001816001161561010002031660029004801561426f5780601f106142445761010080835404028352916020019161426f565b820191906000526020600020905b81548152906001019060200180831161425257829003601f168201915b505050505081565b60066020528060005260406000206000915054906101000a900460ff1681565b6060600460008473ffffffffffffffffffffffffffffffffffffffff1673ffffffffffffffffffffffffffffffffffffffff1681526020019081526020016000205482106142f657604051806020016040528060008152509050614494565b6000600260008573ffffffffffffffffffffffffffffffffffffffff1673ffffffffffffffffffffffffffffffffffffffff1681526020019081526020016000209050600080905060606040518060200160405280600081525090505b60011561448d5782816040518082805190602001908083835b6020831061438f578051825260208201915060208101905060208303925061436c565b6001836020036101000a0380198251168184511680821785525050505050509050019150509081526020016040518091039020600060011515151581526020019081526020016000208054600181600116156101000203166002900480601f01602080910402602001604051908101604052809291908181526020018280546001816001161561010002031660029004801561446c5780601f106144415761010080835404028352916020019161446c565b820191906000526020600020905b81548152906001019060200180831161444f57829003601f168201915b50505050509050848214156144805761448d565b8180600101925050614353565b8093505050505b92915050565b6144b38260405180602001604052806000815250615cc5565b15614509576040517f08c379a0000000000000000000000000000000000000000000000000000000008152600401808060200182810382526045815260200180616a3b6045913960600191505060405180910390fd5b6060614515338461558f565b90506003816040518082805190602001908083835b6020831061454d578051825260208201915060208101905060208303925061452a565b6001836020036101000a038019825116818451168082178552505050505050905001915050908152602001604051809103902060009054906101000a900460ff166145e3576040517f08c379a000000000000000000000000000000000000000000000000000000000815260040180806020018281038252604f815260200180616b90604f913960600191505060405180910390fd5b816001826040518082805190602001908083835b6020831061461a57805182526020820191506020810190506020830392506145f7565b6001836020036101000a038019825116818451168082178552505050505050905001915050908152602001604051809103902081905550505050565b600060075482106146b2576040517f08c379a0000000000000000000000000000000000000000000000000000000008152600401808060200182810382526072815260200180616ad46072913960800191505060405180910390fd5b600080905060606040518060200160405280600081525090505b600115614807576005816040518082805190602001908083835b6020831061470957805182526020820191506020810190506020830392506146e6565b6001836020036101000a0380198251168184511680821785525050505050509050019150509081526020016040518091039020600060011515151581526020019081526020016000208054600181600116156101000203166002900480601f0160208091040260200160405190810160405280929190818152602001828054600181600116156101000203166002900480156147e65780601f106147bb576101008083540402835291602001916147e6565b820191906000526020600020905b8154815290600101906020018083116147c957829003601f168201915b50505050509050838214156147fa57614807565b81806001019250506146cc565b61481081615eb5565b92505050919050565b6000818051602081018201805184825260208301602085012081835280955050505050506000915090505481565b6000600a60009054906101000a900473ffffffffffffffffffffffffffffffffffffffff1673ffffffffffffffffffffffffffffffffffffffff1663bcf383a8836040518263ffffffff1660e01b81526004018082815260200191505060206040518083038186803b1580156148bc57600080fd5b505afa1580156148d0573d6000803e3d6000fd5b505050506040513d60208110156148e657600080fd5b81019080805190602001909291905050509050919050565b6000600660008373ffffffffffffffffffffffffffffffffffffffff1673ffffffffffffffffffffffffffffffffffffffff16815260200190815260200160002060009054906101000a900460ff169050919050565b6000600460003373ffffffffffffffffffffffffffffffffffffffff1673ffffffffffffffffffffffffffffffffffffffff16815260200190815260200160002054116149ec576040517f08c379a0000000000000000000000000000000000000000000000000000000008152600401808060200182810382526056815260200180616bdf6056913960600191505060405180910390fd5b614a058160405180602001604052806000815250615cc5565b15614a5b576040517f08c379a000000000000000000000000000000000000000000000000000000000815260040180806020018281038252604a815260200180616f18604a913960600191505060405180910390fd5b80600860003373ffffffffffffffffffffffffffffffffffffffff1673ffffffffffffffffffffffffffffffffffffffff1681526020019081526020016000209080519060200190614aae929190616954565b5050565b6040518060400160405280600181526020017f5f0000000000000000000000000000000000000000000000000000000000000081525081565b6000600960008373ffffffffffffffffffffffffffffffffffffffff1673ffffffffffffffffffffffffffffffffffffffff16815260200190815260200160002060009054906101000a900460ff169050919050565b60086020528060005260406000206000915090508054600181600116156101000203166002900480601f016020809104026020016040519081016040528092919081815260200182805460018160011615610100020316600290048015614be95780601f10614bbe57610100808354040283529160200191614be9565b820191906000526020600020905b815481529060010190602001808311614bcc57829003601f168201915b505050505081565b600660003373ffffffffffffffffffffffffffffffffffffffff1673ffffffffffffffffffffffffffffffffffffffff16815260200190815260200160002060009054906101000a900460ff16614c4757614c9f565b80600960003373ffffffffffffffffffffffffffffffffffffffff1673ffffffffffffffffffffffffffffffffffffffff16815260200190815260200160002060006101000a81548160ff0219169083151502179055505b50565b600a60009054906101000a900473ffffffffffffffffffffffffffffffffffffffff1673ffffffffffffffffffffffffffffffffffffffff1663fc7d17fb33836040518363ffffffff1660e01b8152600401808373ffffffffffffffffffffffffffffffffffffffff1673ffffffffffffffffffffffffffffffffffffffff16815260200180602001828103825283818151815260200191508051906020019080838360005b83811015614d63578082015181840152602081019050614d48565b50505050905090810190601f168015614d905780820380516001836020036101000a031916815260200191505b509350505050600060405180830381600087803b158015614db057600080fd5b505af1158015614dc4573d6000803e3d6000fd5b5050505050565b6000600460008373ffffffffffffffffffffffffffffffffffffffff1673ffffffffffffffffffffffffffffffffffffffff168152602001908152602001600020549050919050565b6040518060200160405280600081525081565b6003818051602081018201805184825260208301602085012081835280955050505050506000915054906101000a900460ff1681565b600a60009054906101000a900473ffffffffffffffffffffffffffffffffffffffff1673ffffffffffffffffffffffffffffffffffffffff1663c95aaad933836040518363ffffffff1660e01b8152600401808373ffffffffffffffffffffffffffffffffffffffff1673ffffffffffffffffffffffffffffffffffffffff16815260200180602001828103825283818151815260200191508051906020019080838360005b83811015614f1e578082015181840152602081019050614f03565b50505050905090810190601f168015614f4b5780820380516001836020036101000a031916815260200191505b509350505050600060405180830381600087803b158015614f6b57600080fd5b505af1158015614f7f573d6000803e3d6000fd5b5050505050565b6000600754905090565b600181565b60075481565b614fb48160405180602001604052806000815250615cc5565b1561500a576040517f08c379a0000000000000000000000000000000000000000000000000000000008152600401808060200182810382526045815260200180616a3b6045913960600191505060405180910390fd5b6060615016338361558f565b90506003816040518082805190602001908083835b6020831061504e578051825260208201915060208101905060208303925061502b565b6001836020036101000a038019825116818451168082178552505050505050905001915050908152602001604051809103902060009054906101000a900460ff161561509a575061558c565b6000600260003373ffffffffffffffffffffffffffffffffffffffff1673ffffffffffffffffffffffffffffffffffffffff16815260200190815260200160002090506040518060200160405280600081525081846040518082805190602001908083835b6020831061512257805182526020820191506020810190506020830392506150ff565b6001836020036101000a0380198251168184511680821785525050505050509050019150509081526020016040518091039020600080151515158152602001908152602001600020908051906020019061517d929190616954565b5080604051806020016040528060008152506040518082805190602001908083835b602083106151c2578051825260208201915060208101905060208303925061519f565b6001836020036101000a03801982511681845116808217855250505050505090500191505090815260200160405180910390206000600115151515815260200190815260200160002081846040518082805190602001908083835b60208310615240578051825260208201915060208101905060208303925061521d565b6001836020036101000a03801982511681845116808217855250505050505090500191505090815260200160405180910390206000600115151515815260200190815260200160002090805460018160011615610100020316600290046152a8929190616885565b50828182604051806020016040528060008152506040518082805190602001908083835b602083106152ef57805182526020820191506020810190506020830392506152cc565b6001836020036101000a03801982511681845116808217855250505050505090500191505090815260200160405180910390206000600115151515815260200190815260200160002060405180828054600181600116156101000203166002900480156153935780601f10615371576101008083540402835291820191615393565b820191906000526020600020905b81548152906001019060200180831161537f575b5050915050908152602001604051809103902060008015151515815260200190815260200160002090805190602001906153ce929190616954565b508281604051806020016040528060008152506040518082805190602001908083835b6020831061541457805182526020820191506020810190506020830392506153f1565b6001836020036101000a0380198251168184511680821785525050505050509050019150509081526020016040518091039020600060011515151581526020019081526020016000209080519060200190615470929190616954565b506154bb600460003373ffffffffffffffffffffffffffffffffffffffff1673ffffffffffffffffffffffffffffffffffffffff16815260200190815260200160002054600161610e565b600460003373ffffffffffffffffffffffffffffffffffffffff1673ffffffffffffffffffffffffffffffffffffffff1681526020019081526020016000208190555060016003836040518082805190602001908083835b602083106155365780518252602082019150602081019050602083039250615513565b6001836020036101000a038019825116818451168082178552505050505050905001915050908152602001604051809103902060006101000a81548160ff02191690831515021790555061558933616196565b50505b50565b606061559a83616604565b6040518060400160405280600181526020017f5f00000000000000000000000000000000000000000000000000000000000000815250836040516020018084805190602001908083835b6020831061560757805182526020820191506020810190506020830392506155e4565b6001836020036101000a03801982511681845116808217855250505050505090500183805190602001908083835b602083106156585780518252602082019150602081019050602083039250615635565b6001836020036101000a03801982511681845116808217855250505050505090500182805190602001908083835b602083106156a95780518252602082019150602081019050602083039250615686565b6001836020036101000a0380198251168184511680821785525050505050509050019350505050604051602081830303815290604052905092915050565b600082821115615742576040517f08c379a0000000000000000000000000000000000000000000000000000000008152600401808060200182810382526028815260200180616d846028913960400191505060405180910390fd5b600082840390508091505092915050565b606061575e82616604565b9050600660008373ffffffffffffffffffffffffffffffffffffffff1673ffffffffffffffffffffffffffffffffffffffff16815260200190815260200160002060009054906101000a900460ff166157b75750615cc2565b6005816040518082805190602001908083835b602083106157ed57805182526020820191506020810190506020830392506157ca565b6001836020036101000a038019825116818451168082178552505050505050905001915050908152602001604051809103902060006001151515158152602001908152602001600020600580836040518082805190602001908083835b6020831061586d578051825260208201915060208101905060208303925061584a565b6001836020036101000a038019825116818451168082178552505050505050905001915050908152602001604051809103902060008015151515815260200190815260200160002060405180828054600181600116156101000203166002900480156159105780601f106158ee576101008083540402835291820191615910565b820191906000526020600020905b8154815290600101906020018083116158fc575b50509150509081526020016040518091039020600060011515151581526020019081526020016000209080546001816001161561010002031660029004615958929190616885565b506005816040518082805190602001908083835b6020831061598f578051825260208201915060208101905060208303925061596c565b6001836020036101000a0380198251168184511680821785525050505050509050019150509081526020016040518091039020600080151515158152602001908152602001600020600580836040518082805190602001908083835b60208310615a0e57805182526020820191506020810190506020830392506159eb565b6001836020036101000a0380198251168184511680821785525050505050509050019150509081526020016040518091039020600060011515151581526020019081526020016000206040518082805460018160011615610100020316600290048015615ab25780601f10615a90576101008083540402835291820191615ab2565b820191906000526020600020905b815481529060010190602001808311615a9e575b505091505090815260200160405180910390206000801515151581526020019081526020016000209080546001816001161561010002031660029004615af9929190616885565b506005816040518082805190602001908083835b60208310615b305780518252602082019150602081019050602083039250615b0d565b6001836020036101000a03801982511681845116808217855250505050505090500191505090815260200160405180910390206000801515151581526020019081526020016000206000615b84919061690c565b6005816040518082805190602001908083835b60208310615bba5780518252602082019150602081019050602083039250615b97565b6001836020036101000a0380198251168184511680821785525050505050509050019150509081526020016040518091039020600060011515151581526020019081526020016000206000615c0f919061690c565b615c1c60075460016156e7565b600781905550600660008373ffffffffffffffffffffffffffffffffffffffff1673ffffffffffffffffffffffffffffffffffffffff16815260200190815260200160002060006101000a81549060ff0219169055600960008373ffffffffffffffffffffffffffffffffffffffff1673ffffffffffffffffffffffffffffffffffffffff16815260200190815260200160002060006101000a81549060ff0219169055505b50565b6000816040516020018082805190602001908083835b60208310615cfe5780518252602082019150602081019050602083039250615cdb565b6001836020036101000a03801982511681845116808217855250505050505090500191505060405160208183030381529060405280519060200120836040516020018082805190602001908083835b60208310615d705780518252602082019150602081019050602083039250615d4d565b6001836020036101000a0380198251168184511680821785525050505050509050019150506040516020818303038152906040528051906020012014905092915050565b600080831480615dc45750600082145b15615dd25760009050615ea0565b6000828402905082848281615de357fe5b0414615e3a576040517f08c379a000000000000000000000000000000000000000000000000000000000815260040180806020018281038252602b815260200180616fa0602b913960400191505060405180910390fd5b83838281615e4457fe5b0414615e9b576040517f08c379a000000000000000000000000000000000000000000000000000000000815260040180806020018281038252602b815260200180616fa0602b913960400191505060405180910390fd5b809150505b92915050565b60008082905080915050919050565b6000606082905060008090506000806000600290505b602a8110156161015761010084029350848181518110615ee757fe5b602001015160f81c60f81b60f81c60ff169250846001820181518110615f0957fe5b602001015160f81c60f81b60f81c60ff16915060618373ffffffffffffffffffffffffffffffffffffffff1610158015615f5a575060668373ffffffffffffffffffffffffffffffffffffffff1611155b15615f6a57605783039250616004565b60418373ffffffffffffffffffffffffffffffffffffffff1610158015615fa8575060468373ffffffffffffffffffffffffffffffffffffffff1611155b15615fb857603783039250616003565b60308373ffffffffffffffffffffffffffffffffffffffff1610158015615ff6575060398373ffffffffffffffffffffffffffffffffffffffff1611155b15616002576030830392505b5b5b60618273ffffffffffffffffffffffffffffffffffffffff1610158015616042575060668273ffffffffffffffffffffffffffffffffffffffff1611155b15616052576057820391506160ec565b60418273ffffffffffffffffffffffffffffffffffffffff1610158015616090575060468273ffffffffffffffffffffffffffffffffffffffff1611155b156160a0576037820391506160eb565b60308273ffffffffffffffffffffffffffffffffffffffff16101580156160de575060398273ffffffffffffffffffffffffffffffffffffffff1611155b156160ea576030820391505b5b5b81601084020184019350600281019050615ecb565b5082945050505050919050565b60008082840190508381101561618c576040517f08c379a00000000000000000000000000000000000000000000000000000000081526004018080602001828103825260208152602001807f5f736166654d617468416464203a204164646974696f6e204f766572666c6f7781525060200191505060405180910390fd5b8091505092915050565b60606161a182616604565b9050600660008373ffffffffffffffffffffffffffffffffffffffff1673ffffffffffffffffffffffffffffffffffffffff16815260200190815260200160002060009054906101000a900460ff16156161fb5750616601565b604051806020016040528060008152506005826040518082805190602001908083835b60208310616241578051825260208201915060208101905060208303925061621e565b6001836020036101000a0380198251168184511680821785525050505050509050019150509081526020016040518091039020600080151515158152602001908152602001600020908051906020019061629c929190616954565b506005604051806020016040528060008152506040518082805190602001908083835b602083106162e257805182526020820191506020810190506020830392506162bf565b6001836020036101000a0380198251168184511680821785525050505050509050019150509081526020016040518091039020600060011515151581526020019081526020016000206005826040518082805190602001908083835b60208310616361578051825260208201915060208101905060208303925061633e565b6001836020036101000a03801982511681845116808217855250505050505090500191505090815260200160405180910390206000600115151515815260200190815260200160002090805460018160011615610100020316600290046163c9929190616885565b5080600580604051806020016040528060008152506040518082805190602001908083835b6020831061641157805182526020820191506020810190506020830392506163ee565b6001836020036101000a03801982511681845116808217855250505050505090500191505090815260200160405180910390206000600115151515815260200190815260200160002060405180828054600181600116156101000203166002900480156164b55780601f106164935761010080835404028352918201916164b5565b820191906000526020600020905b8154815290600101906020018083116164a1575b5050915050908152602001604051809103902060008015151515815260200190815260200160002090805190602001906164f0929190616954565b50806005604051806020016040528060008152506040518082805190602001908083835b602083106165375780518252602082019150602081019050602083039250616514565b6001836020036101000a0380198251168184511680821785525050505050509050019150509081526020016040518091039020600060011515151581526020019081526020016000209080519060200190616593929190616954565b506165a1600754600161610e565b6007819055506001600660008473ffffffffffffffffffffffffffffffffffffffff1673ffffffffffffffffffffffffffffffffffffffff16815260200190815260200160002060006101000a81548160ff021916908315150217905550505b50565b606060008273ffffffffffffffffffffffffffffffffffffffff1660001b905060606040518060400160405280601081526020017f303132333435363738396162636465660000000000000000000000000000000081525090506060602a6040519080825280601f01601f1916602001820160405280156166945781602001600182028038833980820191505090505b5090507f3000000000000000000000000000000000000000000000000000000000000000816000815181106166c557fe5b60200101907effffffffffffffffffffffffffffffffffffffffffffffffffffffffffffff1916908160001a9053507f78000000000000000000000000000000000000000000000000000000000000008160018151811061672257fe5b60200101907effffffffffffffffffffffffffffffffffffffffffffffffffffffffffffff1916908160001a90535060008090505b60148110156168795782600485600c84016020811061677257fe5b1a60f81b7effffffffffffffffffffffffffffffffffffffffffffffffffffffffffffff1916901c60f81c60ff16815181106167aa57fe5b602001015160f81c60f81b8260028302600201815181106167c757fe5b60200101907effffffffffffffffffffffffffffffffffffffffffffffffffffffffffffff1916908160001a90535082600f60f81b85600c84016020811061680b57fe5b1a60f81b1660f81c60ff168151811061682057fe5b602001015160f81c60f81b82600283026003018151811061683d57fe5b60200101907effffffffffffffffffffffffffffffffffffffffffffffffffffffffffffff1916908160001a9053508080600101915050616757565b50809350505050919050565b828054600181600116156101000203166002900490600052602060002090601f016020900481019282601f106168be57805485556168fb565b828001600101855582156168fb57600052602060002091601f016020900482015b828111156168fa5782548255916001019190600101906168df565b5b50905061690891906169d4565b5090565b50805460018160011615610100020316600290046000825580601f106169325750616951565b601f01602090049060005260206000209081019061695091906169d4565b5b50565b828054600181600116156101000203166002900490600052602060002090601f016020900481019282601f1061699557805160ff19168380011785556169c3565b828001600101855582156169c3579182015b828111156169c25782518255916020019190600101906169a7565b5b5090506169d091906169d4565b5090565b6169f691905b808211156169f25760008160009055506001016169da565b5090565b9056fe4d757374207075726368617365206174206c656173742031207175616e74697479206f6620746865204974656d20666f722053616c6520746f2068617070656e2143616e6e6f74206861766520616e20656d70747920537472696e6720666f722074686520495046532048617368204b6579206f6620616e204974656d20746f2053656c6c2143616e6e6f74206861766520616e20656d70747920537472696e6720666f722074686520495046532048617368204b6579206f6620746865204d656469617465642053616c6573205472616e73616374696f6e21496e6465782076616c756520676976656e2069732067726561746572207468616e206f7220657175616c20746f20746865204e756d626572206f662053656c6c657273212049742073686f756c64206265206c657373207468616e20746865204e756d626572206f662053656c6c65727321476976656e20495046532048617368206f66204974656d206973206e6f74206c697374656420617320616e204974656d20466f722053616c652066726f6d207468652053656c6c657221476976656e20495046532048617368206f66204974656d206973206e6f74206c697374656420617320616e204974656d20466f722053616c6520666f7220796f75202d207468652053656c6c657221596f75206d75737420666972737420616464206174206c65617374204f4e45204974656d20466f722053616c65206265666f726520616464696e672061206465736372697074696f6e206f6620796f757273656c66215175616e7469747920617661696c61626c6520466f722053616c65206f6620746865204974656d2066726f6d207468652053656c6c6572206973206c657373207468616e20746865207175616e746974792072657175657374656420746f20707572636861736521204e6f7420656e6f756768206f6620746865204974656e6d20617661696c61626c6520466f722053616c6543616e6e6f74206861766520616e20656d70747920537472696e6720666f722074686520495046532048617368204b6579206f6620616e204974656d2153656c6c657220686173205a65726f207175616e7469747920617661696c61626c6520666f722053616c6520666f7220746865204974656d2072657175657374656420746f20707572636861736521476976656e2053656c6c6572204164647265737320646f6573206e6f7420657869737420617320612053656c6c6572215f736166654d6174685375627472616374203a205375627472616374696f6e204f766572666c6f775468652053656c6c657220686173206e6f742079657420736574206120507269636520666f722053616c6520666f722074686520726571756573746564204974656d212043616e6e6f7420707572636861736520746865204974656d2143616e6e6f74206861766520616e20656d70747920537472696e6720666f722074686520495046532048617368204b6579206f6620616e204974656d20796f75206172652070757263686173696e672154686520427579657220416464726573732063616e6e6f74206265207468652073616d65206173207468652053656c6c657220416464726573732154686520427579657220416464726573732063616e6e6f74206265207468652073616d6520617320746865204d65646961746f722041646472657373214e6f7420656e6f75676820455448207761732073656e7420746f20707572636861736520746865207175616e7469747920726571756573746564206f6620746865204974656d2143616e6e6f74206861766520616e20656d70747920537472696e6720666f722074686520495046532048617368204b6579204465736372697074696f6e206f6620612053656c6c6572215468652053656c6c657220416464726573732063616e6e6f74206265207468652073616d6520617320746865204d65646961746f722041646472657373215f736166654d6174684d756c7469706c79203a204d756c7469706c69636174696f6e204f766572666c6f77a165627a7a723058203b5c0525d6fd87840ca9a1db437f758051a02d1566dbd49df457e3ce0578aaee0029608060405234801561001057600080fd5b5033600a60006101000a81548173ffffffffffffffffffffffffffffffffffffffff021916908373ffffffffffffffffffffffffffffffffffffffff160217905550614d99806100616000396000f3fe608060405234801561001057600080fd5b50600436106101a95760003560e01c8063973ec502116100f9578063dc82f05411610097578063f409398f11610071578063f409398f14610e1c578063fa22a48614610e3e578063fc7d17fb14610f0d578063ff670a2f14610fe8576101a9565b8063dc82f05414610ca0578063f004d5c014610d23578063f0a750c014610d41576101a9565b8063c63b7eb4116100d3578063c63b7eb414610943578063c95aaad914610a68578063cb0d5d9314610b43578063d37fc00b14610b9b576101a9565b8063973ec502146107da578063a04062fe146108b7578063bcf383a8146108d5576101a9565b80636303d42311610166578063772701a911610140578063772701a9146106795780637e0ab220146106975780638116e5fb146106b9578063822da04b146106fd576101a9565b80636303d423146104cb5780636e08148c146104e9578063700ebe9e146105bc576101a9565b80630ad2c9d1146101ae5780631a67405c146101cc578063331d7ce91461022857806338f533be1461027257806340c31a8c146103b2578063553e409f1461046f575b600080fd5b6101b6611032565b6040518082815260200191505060405180910390f35b61020e600480360360208110156101e257600080fd5b81019080803573ffffffffffffffffffffffffffffffffffffffff1690602001909291905050506110e2565b604051808215151515815260200191505060405180910390f35b6102306111de565b604051808273ffffffffffffffffffffffffffffffffffffffff1673ffffffffffffffffffffffffffffffffffffffff16815260200191505060405180910390f35b6103376004803603604081101561028857600080fd5b81019080803590602001906401000000008111156102a557600080fd5b8201836020820111156102b757600080fd5b803590602001918460018302840111640100000000831117156102d957600080fd5b91908080601f016020809104026020016040519081016040528093929190818152602001838380828437600081840152601f19601f820116905080830192505050505050509192919290803515159060200190929190505050611204565b6040518080602001828103825283818151815260200191508051906020019080838360005b8381101561037757808201518184015260208101905061035c565b50505050905090810190601f1680156103a45780820380516001836020036101000a031916815260200191505b509250505060405180910390f35b6103f4600480360360208110156103c857600080fd5b81019080803573ffffffffffffffffffffffffffffffffffffffff1690602001909291905050506112d7565b6040518080602001828103825283818151815260200191508051906020019080838360005b83811015610434578082015181840152602081019050610419565b50505050905090810190601f1680156104615780820380516001836020036101000a031916815260200191505b509250505060405180910390f35b6104b16004803603602081101561048557600080fd5b81019080803573ffffffffffffffffffffffffffffffffffffffff1690602001909291905050506113b8565b604051808215151515815260200191505060405180910390f35b6104d36113d8565b6040518082815260200191505060405180910390f35b6105a2600480360360208110156104ff57600080fd5b810190808035906020019064010000000081111561051c57600080fd5b82018360208201111561052e57600080fd5b8035906020019184600183028401116401000000008311171561055057600080fd5b91908080601f016020809104026020016040519081016040528093929190818152602001838380828437600081840152601f19601f8201169050808301925050505050505091929192905050506113dd565b604051808215151515815260200191505060405180910390f35b6105fe600480360360208110156105d257600080fd5b81019080803573ffffffffffffffffffffffffffffffffffffffff169060200190929190505050611413565b6040518080602001828103825283818151815260200191508051906020019080838360005b8381101561063e578082015181840152602081019050610623565b50505050905090810190601f16801561066b5780820380516001836020036101000a031916815260200191505b509250505060405180910390f35b6106816114c3565b6040518082815260200191505060405180910390f35b61069f6114c9565b604051808215151515815260200191505060405180910390f35b6106fb600480360360208110156106cf57600080fd5b81019080803573ffffffffffffffffffffffffffffffffffffffff1690602001909291905050506114ce565b005b6107c06004803603604081101561071357600080fd5b810190808035906020019064010000000081111561073057600080fd5b82018360208201111561074257600080fd5b8035906020019184600183028401116401000000008311171561076457600080fd5b91908080601f016020809104026020016040519081016040528093929190818152602001838380828437600081840152601f19601f82011690508083019250505050505050919291929080359060200190929190505050611580565b604051808215151515815260200191505060405180910390f35b61089d600480360360408110156107f057600080fd5b810190808035906020019064010000000081111561080d57600080fd5b82018360208201111561081f57600080fd5b8035906020019184600183028401116401000000008311171561084157600080fd5b91908080601f016020809104026020016040519081016040528093929190818152602001838380828437600081840152601f19601f820116905080830192505050505050509192919290803590602001909291905050506115cc565b604051808215151515815260200191505060405180910390f35b6108bf611618565b6040518082815260200191505060405180910390f35b610901600480360360208110156108eb57600080fd5b810190808035906020019092919050505061161d565b604051808273ffffffffffffffffffffffffffffffffffffffff1673ffffffffffffffffffffffffffffffffffffffff16815260200191505060405180910390f35b610a66600480360360a081101561095957600080fd5b81019080803573ffffffffffffffffffffffffffffffffffffffff169060200190929190803573ffffffffffffffffffffffffffffffffffffffff169060200190929190803573ffffffffffffffffffffffffffffffffffffffff169060200190929190803590602001906401000000008111156109d657600080fd5b8201836020820111156109e857600080fd5b80359060200191846001830284011164010000000083111715610a0a57600080fd5b91908080601f016020809104026020016040519081016040528093929190818152602001838380828437600081840152601f19601f82011690508083019250505050505050919291929080359060200190929190505050611886565b005b610b4160048036036040811015610a7e57600080fd5b81019080803573ffffffffffffffffffffffffffffffffffffffff16906020019092919080359060200190640100000000811115610abb57600080fd5b820183602082011115610acd57600080fd5b80359060200191846001830284011164010000000083111715610aef57600080fd5b91908080601f016020809104026020016040519081016040528093929190818152602001838380828437600081840152601f19601f820116905080830192505050505050509192919290505050611e3e565b005b610b8560048036036020811015610b5957600080fd5b81019080803573ffffffffffffffffffffffffffffffffffffffff1690602001909291905050506126f9565b6040518082815260200191505060405180910390f35b610c5e60048036036040811015610bb157600080fd5b8101908080359060200190640100000000811115610bce57600080fd5b820183602082011115610be057600080fd5b80359060200191846001830284011164010000000083111715610c0257600080fd5b91908080601f016020809104026020016040519081016040528093929190818152602001838380828437600081840152601f19601f82011690508083019250505050505050919291929080359060200190929190505050612711565b604051808273ffffffffffffffffffffffffffffffffffffffff1673ffffffffffffffffffffffffffffffffffffffff16815260200191505060405180910390f35b610ca8612769565b6040518080602001828103825283818151815260200191508051906020019080838360005b83811015610ce8578082015181840152602081019050610ccd565b50505050905090810190601f168015610d155780820380516001836020036101000a031916815260200191505b509250505060405180910390f35b610d2b61277c565b6040518082815260200191505060405180910390f35b610e1a60048036036040811015610d5757600080fd5b81019080803573ffffffffffffffffffffffffffffffffffffffff16906020019092919080359060200190640100000000811115610d9457600080fd5b820183602082011115610da657600080fd5b80359060200191846001830284011164010000000083111715610dc857600080fd5b91908080601f016020809104026020016040519081016040528093929190818152602001838380828437600081840152601f19601f820116905080830192505050505050509192919290505050612781565b005b610e24613148565b604051808215151515815260200191505060405180910390f35b610ef760048036036020811015610e5457600080fd5b8101908080359060200190640100000000811115610e7157600080fd5b820183602082011115610e8357600080fd5b80359060200191846001830284011164010000000083111715610ea557600080fd5b91908080601f016020809104026020016040519081016040528093929190818152602001838380828437600081840152601f19601f82011690508083019250505050505050919291929050505061314d565b6040518082815260200191505060405180910390f35b610fe660048036036040811015610f2357600080fd5b81019080803573ffffffffffffffffffffffffffffffffffffffff16906020019092919080359060200190640100000000811115610f6057600080fd5b820183602082011115610f7257600080fd5b80359060200191846001830284011164010000000083111715610f9457600080fd5b91908080601f016020809104026020016040519081016040528093929190818152602001838380828437600081840152601f19601f82011690508083019250505050505050919291929050505061317b565b005b610ff06132f1565b604051808273ffffffffffffffffffffffffffffffffffffffff1673ffffffffffffffffffffffffffffffffffffffff16815260200191505060405180910390f35b6000600a60009054906101000a900473ffffffffffffffffffffffffffffffffffffffff1673ffffffffffffffffffffffffffffffffffffffff163373ffffffffffffffffffffffffffffffffffffffff16146110da576040517f08c379a000000000000000000000000000000000000000000000000000000000815260040180806020018281038252605d815260200180614aae605d913960600191505060405180910390fd5b600254905090565b6000600a60009054906101000a900473ffffffffffffffffffffffffffffffffffffffff1673ffffffffffffffffffffffffffffffffffffffff163373ffffffffffffffffffffffffffffffffffffffff161461118a576040517f08c379a000000000000000000000000000000000000000000000000000000000815260040180806020018281038252605d815260200180614aae605d913960600191505060405180910390fd5b600160008373ffffffffffffffffffffffffffffffffffffffff1673ffffffffffffffffffffffffffffffffffffffff16815260200190815260200160002060009054906101000a900460ff169050919050565b600a60009054906101000a900473ffffffffffffffffffffffffffffffffffffffff1681565b600082805160208101820180518482526020830160208501208183528095505050505050602052806000526040600020600091509150508054600181600116156101000203166002900480601f0160208091040260200160405190810160405280929190818152602001828054600181600116156101000203166002900480156112cf5780601f106112a4576101008083540402835291602001916112cf565b820191906000526020600020905b8154815290600101906020018083116112b257829003601f168201915b505050505081565b6060600360008373ffffffffffffffffffffffffffffffffffffffff1673ffffffffffffffffffffffffffffffffffffffff1681526020019081526020016000208054600181600116156101000203166002900480601f0160208091040260200160405190810160405280929190818152602001828054600181600116156101000203166002900480156113ac5780601f10611381576101008083540402835291602001916113ac565b820191906000526020600020905b81548152906001019060200180831161138f57829003601f168201915b50505050509050919050565b60016020528060005260406000206000915054906101000a900460ff1681565b600181565b6006818051602081018201805184825260208301602085012081835280955050505050506000915054906101000a900460ff1681565b60036020528060005260406000206000915090508054600181600116156101000203166002900480601f0160208091040260200160405190810160405280929190818152602001828054600181600116156101000203166002900480156114bb5780601f10611490576101008083540402835291602001916114bb565b820191906000526020600020905b81548152906001019060200180831161149e57829003601f168201915b505050505081565b60025481565b600081565b600a60009054906101000a900473ffffffffffffffffffffffffffffffffffffffff1673ffffffffffffffffffffffffffffffffffffffff163373ffffffffffffffffffffffffffffffffffffffff1614611574576040517f08c379a000000000000000000000000000000000000000000000000000000000815260040180806020018281038252605d815260200180614aae605d913960600191505060405180910390fd5b61157d816133c1565b50565b60088280516020810182018051848252602083016020850120818352809550505050505081600381106115af57fe5b60209182820401919006915091509054906101000a900460ff1681565b60098280516020810182018051848252602083016020850120818352809550505050505081600381106115fb57fe5b60209182820401919006915091509054906101000a900460ff1681565b600281565b6000600a60009054906101000a900473ffffffffffffffffffffffffffffffffffffffff1673ffffffffffffffffffffffffffffffffffffffff163373ffffffffffffffffffffffffffffffffffffffff16146116c5576040517f08c379a000000000000000000000000000000000000000000000000000000000815260040180806020018281038252605d815260200180614aae605d913960600191505060405180910390fd5b600254821061171f576040517f08c379a0000000000000000000000000000000000000000000000000000000008152600401808060200182810382526076815260200180614b806076913960800191505060405180910390fd5b600080905060606040518060200160405280600081525090505b600115611874576000816040518082805190602001908083835b602083106117765780518252602082019150602081019050602083039250611753565b6001836020036101000a0380198251168184511680821785525050505050509050019150509081526020016040518091039020600060011515151581526020019081526020016000208054600181600116156101000203166002900480601f0160208091040260200160405190810160405280929190818152602001828054600181600116156101000203166002900480156118535780601f1061182857610100808354040283529160200191611853565b820191906000526020600020905b81548152906001019060200180831161183657829003601f168201915b505050505090508382141561186757611874565b8180600101925050611739565b61187d816138e3565b92505050919050565b600a60009054906101000a900473ffffffffffffffffffffffffffffffffffffffff1673ffffffffffffffffffffffffffffffffffffffff163373ffffffffffffffffffffffffffffffffffffffff161461192c576040517f08c379a000000000000000000000000000000000000000000000000000000000815260040180806020018281038252605d815260200180614aae605d913960600191505060405180910390fd5b6006826040518082805190602001908083835b60208310611962578051825260208201915060208101905060208303925061193f565b6001836020036101000a038019825116818451168082178552505050505050905001915050908152602001604051809103902060009054906101000a900460ff16156119f9576040517f08c379a000000000000000000000000000000000000000000000000000000000815260040180806020018281038252602a815260200180614b0b602a913960400191505060405180910390fd5b600160008473ffffffffffffffffffffffffffffffffffffffff1673ffffffffffffffffffffffffffffffffffffffff16815260200190815260200160002060009054906101000a900460ff16611a9b576040517f08c379a0000000000000000000000000000000000000000000000000000000008152600401808060200182810382526034815260200180614d0f6034913960400191505060405180910390fd5b60016006836040518082805190602001908083835b60208310611ad35780518252602082019150602081019050602083039250611ab0565b6001836020036101000a038019825116818451168082178552505050505050905001915050908152602001604051809103902060006101000a81548160ff021916908315150217905550846005836040518082805190602001908083835b60208310611b545780518252602082019150602081019050602083039250611b31565b6001836020036101000a0380198251168184511680821785525050505050509050019150509081526020016040518091039020600060038110611b9357fe5b0160006101000a81548173ffffffffffffffffffffffffffffffffffffffff021916908373ffffffffffffffffffffffffffffffffffffffff160217905550836005836040518082805190602001908083835b60208310611c095780518252602082019150602081019050602083039250611be6565b6001836020036101000a0380198251168184511680821785525050505050509050019150509081526020016040518091039020600160038110611c4857fe5b0160006101000a81548173ffffffffffffffffffffffffffffffffffffffff021916908373ffffffffffffffffffffffffffffffffffffffff160217905550826005836040518082805190602001908083835b60208310611cbe5780518252602082019150602081019050602083039250611c9b565b6001836020036101000a0380198251168184511680821785525050505050509050019150509081526020016040518091039020600260038110611cfd57fe5b0160006101000a81548173ffffffffffffffffffffffffffffffffffffffff021916908373ffffffffffffffffffffffffffffffffffffffff160217905550806007836040518082805190602001908083835b60208310611d735780518252602082019150602081019050602083039250611d50565b6001836020036101000a038019825116818451168082178552505050505050905001915050908152602001604051809103902081905550611df4600460008573ffffffffffffffffffffffffffffffffffffffff1673ffffffffffffffffffffffffffffffffffffffff168152602001908152602001600020546001613b3c565b600460008573ffffffffffffffffffffffffffffffffffffffff1673ffffffffffffffffffffffffffffffffffffffff168152602001908152602001600020819055505050505050565b600a60009054906101000a900473ffffffffffffffffffffffffffffffffffffffff1673ffffffffffffffffffffffffffffffffffffffff163373ffffffffffffffffffffffffffffffffffffffff1614611ee4576040517f08c379a000000000000000000000000000000000000000000000000000000000815260040180806020018281038252605d815260200180614aae605d913960600191505060405180910390fd5b6006816040518082805190602001908083835b60208310611f1a5780518252602082019150602081019050602083039250611ef7565b6001836020036101000a038019825116818451168082178552505050505050905001915050908152602001604051809103902060009054906101000a900460ff16611fb0576040517f08c379a000000000000000000000000000000000000000000000000000000000815260040180806020018281038252603a815260200180614c42603a913960400191505060405180910390fd5b60008273ffffffffffffffffffffffffffffffffffffffff166005836040518082805190602001908083835b60208310611fff5780518252602082019150602081019050602083039250611fdc565b6001836020036101000a038019825116818451168082178552505050505050905001915050908152602001604051809103902060006003811061203e57fe5b0160009054906101000a900473ffffffffffffffffffffffffffffffffffffffff1673ffffffffffffffffffffffffffffffffffffffff16148061214357508273ffffffffffffffffffffffffffffffffffffffff166005836040518082805190602001908083835b602083106120ca57805182526020820191506020810190506020830392506120a7565b6001836020036101000a038019825116818451168082178552505050505050905001915050908152602001604051809103902060016003811061210957fe5b0160009054906101000a900473ffffffffffffffffffffffffffffffffffffffff1673ffffffffffffffffffffffffffffffffffffffff16145b8061220f57508273ffffffffffffffffffffffffffffffffffffffff166005836040518082805190602001908083835b602083106121965780518252602082019150602081019050602083039250612173565b6001836020036101000a03801982511681845116808217855250505050505090500191505090815260200160405180910390206002600381106121d557fe5b0160009054906101000a900473ffffffffffffffffffffffffffffffffffffffff1673ffffffffffffffffffffffffffffffffffffffff16145b905080612267576040517f08c379a00000000000000000000000000000000000000000000000000000000081526004018080602001828103825260778152602001806149826077913960800191505060405180910390fd5b61227082613bc4565b156122c6576040517f08c379a0000000000000000000000000000000000000000000000000000000008152600401808060200182810382526093815260200180614c7c6093913960a00191505060405180910390fd5b600080905060008090505b60038110156123b4578473ffffffffffffffffffffffffffffffffffffffff166005856040518082805190602001908083835b602083106123275780518252602082019150602081019050602083039250612304565b6001836020036101000a0380198251168184511680821785525050505050509050019150509081526020016040518091039020826003811061236557fe5b0160009054906101000a900473ffffffffffffffffffffffffffffffffffffffff1673ffffffffffffffffffffffffffffffffffffffff1614156123a7578091505b80806001019150506122d1565b506123be83613c8d565b1561245f5760016009846040518082805190602001908083835b602083106123fb57805182526020820191506020810190506020830392506123d8565b6001836020036101000a0380198251168184511680821785525050505050509050019150509081526020016040518091039020826003811061243957fe5b602091828204019190066101000a81548160ff02191690831515021790555050506126f5565b60006008846040518082805190602001908083835b602083106124975780518252602082019150602081019050602083039250612474565b6001836020036101000a038019825116818451168082178552505050505050905001915050908152602001604051809103902082600381106124d557fe5b602091828204019190066101000a81548160ff02191690831515021790555060016009846040518082805190602001908083835b6020831061252c5780518252602082019150602081019050602083039250612509565b6001836020036101000a0380198251168184511680821785525050505050509050019150509081526020016040518091039020826003811061256a57fe5b602091828204019190066101000a81548160ff02191690831515021790555061259283613bc4565b156126f25760006007846040518082805190602001908083835b602083106125cf57805182526020820191506020810190506020830392506125ac565b6001836020036101000a038019825116818451168082178552505050505050905001915050908152602001604051809103902054905060006126a66005866040518082805190602001908083835b60208310612640578051825260208201915060208101905060208303925061261d565b6001836020036101000a038019825116818451168082178552505050505050905001915050908152602001604051809103902060006003811061267f57fe5b0160009054906101000a900473ffffffffffffffffffffffffffffffffffffffff16613d56565b90508073ffffffffffffffffffffffffffffffffffffffff166108fc839081150290604051600060405180830381858888f193505050501580156126ee573d6000803e3d6000fd5b5050505b50505b5050565b60046020528060005260406000206000915090505481565b600582805160208101820180518482526020830160208501208183528095505050505050816003811061274057fe5b016000915091509054906101000a900473ffffffffffffffffffffffffffffffffffffffff1681565b6040518060200160405280600081525081565b600081565b600a60009054906101000a900473ffffffffffffffffffffffffffffffffffffffff1673ffffffffffffffffffffffffffffffffffffffff163373ffffffffffffffffffffffffffffffffffffffff1614612827576040517f08c379a000000000000000000000000000000000000000000000000000000000815260040180806020018281038252605d815260200180614aae605d913960600191505060405180910390fd5b6006816040518082805190602001908083835b6020831061285d578051825260208201915060208101905060208303925061283a565b6001836020036101000a038019825116818451168082178552505050505050905001915050908152602001604051809103902060009054906101000a900460ff166128f3576040517f08c379a000000000000000000000000000000000000000000000000000000000815260040180806020018281038252603a815260200180614c42603a913960400191505060405180910390fd5b60008273ffffffffffffffffffffffffffffffffffffffff166005836040518082805190602001908083835b60208310612942578051825260208201915060208101905060208303925061291f565b6001836020036101000a038019825116818451168082178552505050505050905001915050908152602001604051809103902060006003811061298157fe5b0160009054906101000a900473ffffffffffffffffffffffffffffffffffffffff1673ffffffffffffffffffffffffffffffffffffffff161480612a8657508273ffffffffffffffffffffffffffffffffffffffff166005836040518082805190602001908083835b60208310612a0d57805182526020820191506020810190506020830392506129ea565b6001836020036101000a0380198251168184511680821785525050505050509050019150509081526020016040518091039020600160038110612a4c57fe5b0160009054906101000a900473ffffffffffffffffffffffffffffffffffffffff1673ffffffffffffffffffffffffffffffffffffffff16145b80612b5257508273ffffffffffffffffffffffffffffffffffffffff166005836040518082805190602001908083835b60208310612ad95780518252602082019150602081019050602083039250612ab6565b6001836020036101000a0380198251168184511680821785525050505050509050019150509081526020016040518091039020600260038110612b1857fe5b0160009054906101000a900473ffffffffffffffffffffffffffffffffffffffff1673ffffffffffffffffffffffffffffffffffffffff16145b905080612baa576040517f08c379a000000000000000000000000000000000000000000000000000000000815260040180806020018281038252607481526020018061490e6074913960800191505060405180910390fd5b612bb382613c8d565b15612c09576040517f08c379a0000000000000000000000000000000000000000000000000000000008152600401808060200182810382526093815260200180614a1b6093913960a00191505060405180910390fd5b600080905060008090505b6003811015612cf7578473ffffffffffffffffffffffffffffffffffffffff166005856040518082805190602001908083835b60208310612c6a5780518252602082019150602081019050602083039250612c47565b6001836020036101000a03801982511681845116808217855250505050505090500191505090815260200160405180910390208260038110612ca857fe5b0160009054906101000a900473ffffffffffffffffffffffffffffffffffffffff1673ffffffffffffffffffffffffffffffffffffffff161415612cea578091505b8080600101915050612c14565b50612d0183613bc4565b15612da25760016008846040518082805190602001908083835b60208310612d3e5780518252602082019150602081019050602083039250612d1b565b6001836020036101000a03801982511681845116808217855250505050505090500191505090815260200160405180910390208260038110612d7c57fe5b602091828204019190066101000a81548160ff0219169083151502179055505050613144565b60016008846040518082805190602001908083835b60208310612dda5780518252602082019150602081019050602083039250612db7565b6001836020036101000a03801982511681845116808217855250505050505090500191505090815260200160405180910390208260038110612e1857fe5b602091828204019190066101000a81548160ff02191690831515021790555060006009846040518082805190602001908083835b60208310612e6f5780518252602082019150602081019050602083039250612e4c565b6001836020036101000a03801982511681845116808217855250505050505090500191505090815260200160405180910390208260038110612ead57fe5b602091828204019190066101000a81548160ff021916908315150217905550612ed583613bc4565b156131415760006007846040518082805190602001908083835b60208310612f125780518252602082019150602081019050602083039250612eef565b6001836020036101000a03801982511681845116808217855250505050505090500191505090815260200160405180910390205490506000612f576005606484613d65565b90506000612f658383613d88565b905060006130086005886040518082805190602001908083835b60208310612fa25780518252602082019150602081019050602083039250612f7f565b6001836020036101000a0380198251168184511680821785525050505050509050019150509081526020016040518091039020600160038110612fe157fe5b0160009054906101000a900473ffffffffffffffffffffffffffffffffffffffff16613d56565b905060006130ab6005896040518082805190602001908083835b602083106130455780518252602082019150602081019050602083039250613022565b6001836020036101000a038019825116818451168082178552505050505050905001915050908152602001604051809103902060026003811061308457fe5b0160009054906101000a900473ffffffffffffffffffffffffffffffffffffffff16613d56565b90508173ffffffffffffffffffffffffffffffffffffffff166108fc849081150290604051600060405180830381858888f193505050501580156130f3573d6000803e3d6000fd5b508073ffffffffffffffffffffffffffffffffffffffff166108fc859081150290604051600060405180830381858888f1935050505015801561313a573d6000803e3d6000fd5b5050505050505b50505b5050565b600181565b6007818051602081018201805184825260208301602085012081835280955050505050506000915090505481565b600a60009054906101000a900473ffffffffffffffffffffffffffffffffffffffff1673ffffffffffffffffffffffffffffffffffffffff163373ffffffffffffffffffffffffffffffffffffffff1614613221576040517f08c379a000000000000000000000000000000000000000000000000000000000815260040180806020018281038252605d815260200180614aae605d913960600191505060405180910390fd5b61323a8160405180602001604052806000815250613df4565b15613290576040517f08c379a000000000000000000000000000000000000000000000000000000000815260040180806020018281038252604c815260200180614bf6604c913960600191505060405180910390fd5b80600360003373ffffffffffffffffffffffffffffffffffffffff1673ffffffffffffffffffffffffffffffffffffffff16815260200190815260200160002090805190602001906132e3929190614799565b506132ed82613ee3565b5050565b6000600a60009054906101000a900473ffffffffffffffffffffffffffffffffffffffff1673ffffffffffffffffffffffffffffffffffffffff163373ffffffffffffffffffffffffffffffffffffffff1614613399576040517f08c379a000000000000000000000000000000000000000000000000000000000815260040180806020018281038252605d815260200180614aae605d913960600191505060405180910390fd5b600a60009054906101000a900473ffffffffffffffffffffffffffffffffffffffff16905090565b600160008273ffffffffffffffffffffffffffffffffffffffff1673ffffffffffffffffffffffffffffffffffffffff16815260200190815260200160002060009054906101000a900460ff16613417576138e0565b60606134228261434f565b90506000816040518082805190602001908083835b6020831061345a5780518252602082019150602081019050602083039250613437565b6001836020036101000a038019825116818451168082178552505050505050905001915050908152602001604051809103902060006001151515158152602001908152602001600020600080836040518082805190602001908083835b602083106134da57805182526020820191506020810190506020830392506134b7565b6001836020036101000a0380198251168184511680821785525050505050509050019150509081526020016040518091039020600080151515158152602001908152602001600020604051808280546001816001161561010002031660029004801561357d5780601f1061355b57610100808354040283529182019161357d565b820191906000526020600020905b815481529060010190602001808311613569575b505091505090815260200160405180910390206000600115151515815260200190815260200160002090805460018160011615610100020316600290046135c5929190614819565b506000816040518082805190602001908083835b602083106135fc57805182526020820191506020810190506020830392506135d9565b6001836020036101000a0380198251168184511680821785525050505050509050019150509081526020016040518091039020600080151515158152602001908152602001600020600080836040518082805190602001908083835b6020831061367b5780518252602082019150602081019050602083039250613658565b6001836020036101000a038019825116818451168082178552505050505050905001915050908152602001604051809103902060006001151515158152602001908152602001600020604051808280546001816001161561010002031660029004801561371f5780601f106136fd57610100808354040283529182019161371f565b820191906000526020600020905b81548152906001019060200180831161370b575b505091505090815260200160405180910390206000801515151581526020019081526020016000209080546001816001161561010002031660029004613766929190614819565b506000816040518082805190602001908083835b6020831061379d578051825260208201915060208101905060208303925061377a565b6001836020036101000a038019825116818451168082178552505050505050905001915050908152602001604051809103902060008015151515815260200190815260200160002060006137f191906148a0565b6000816040518082805190602001908083835b602083106138275780518252602082019150602081019050602083039250613804565b6001836020036101000a038019825116818451168082178552505050505050905001915050908152602001604051809103902060006001151515158152602001908152602001600020600061387c91906148a0565b60026000815480929190600190039190505550600160008373ffffffffffffffffffffffffffffffffffffffff1673ffffffffffffffffffffffffffffffffffffffff16815260200190815260200160002060006101000a81549060ff0219169055505b50565b6000606082905060008090506000806000600290505b602a811015613b2f576101008402935084818151811061391557fe5b602001015160f81c60f81b60f81c60ff16925084600182018151811061393757fe5b602001015160f81c60f81b60f81c60ff16915060618373ffffffffffffffffffffffffffffffffffffffff1610158015613988575060668373ffffffffffffffffffffffffffffffffffffffff1611155b1561399857605783039250613a32565b60418373ffffffffffffffffffffffffffffffffffffffff16101580156139d6575060468373ffffffffffffffffffffffffffffffffffffffff1611155b156139e657603783039250613a31565b60308373ffffffffffffffffffffffffffffffffffffffff1610158015613a24575060398373ffffffffffffffffffffffffffffffffffffffff1611155b15613a30576030830392505b5b5b60618273ffffffffffffffffffffffffffffffffffffffff1610158015613a70575060668273ffffffffffffffffffffffffffffffffffffffff1611155b15613a8057605782039150613b1a565b60418273ffffffffffffffffffffffffffffffffffffffff1610158015613abe575060468273ffffffffffffffffffffffffffffffffffffffff1611155b15613ace57603782039150613b19565b60308273ffffffffffffffffffffffffffffffffffffffff1610158015613b0c575060398273ffffffffffffffffffffffffffffffffffffffff1611155b15613b18576030820391505b5b5b816010840201840193506002810190506138f9565b5082945050505050919050565b600080828401905083811015613bba576040517f08c379a00000000000000000000000000000000000000000000000000000000081526004018080602001828103825260208152602001807f5f736166654d617468416464203a204164646974696f6e204f766572666c6f7781525060200191505060405180910390fd5b8091505092915050565b6000806000905060008090505b6003811015613c7f576008846040518082805190602001908083835b60208310613c105780518252602082019150602081019050602083039250613bed565b6001836020036101000a03801982511681845116808217855250505050505090500191505090815260200160405180910390208160038110613c4e57fe5b602091828204019190069054906101000a900460ff1615613c725781806001019250505b8080600101915050613bd1565b506002811015915050919050565b6000806000905060008090505b6003811015613d48576009846040518082805190602001908083835b60208310613cd95780518252602082019150602081019050602083039250613cb6565b6001836020036101000a03801982511681845116808217855250505050505090500191505090815260200160405180910390208160038110613d1757fe5b602091828204019190069054906101000a900460ff1615613d3b5781806001019250505b8080600101915050613c9a565b506002811015915050919050565b60008082905080915050919050565b600080613d7285846145d0565b9050613d7e81856146c2565b9150509392505050565b600082821115613de3576040517f08c379a0000000000000000000000000000000000000000000000000000000008152600401808060200182810382526028815260200180614b586028913960400191505060405180910390fd5b600082840390508091505092915050565b6000816040516020018082805190602001908083835b60208310613e2d5780518252602082019150602081019050602083039250613e0a565b6001836020036101000a03801982511681845116808217855250505050505090500191505060405160208183030381529060405280519060200120836040516020018082805190602001908083835b60208310613e9f5780518252602082019150602081019050602083039250613e7c565b6001836020036101000a0380198251168184511680821785525050505050509050019150506040516020818303038152906040528051906020012014905092915050565b600160008273ffffffffffffffffffffffffffffffffffffffff1673ffffffffffffffffffffffffffffffffffffffff16815260200190815260200160002060009054906101000a900460ff1615613f3a5761434c565b6060613f458261434f565b9050604051806020016040528060008152506000826040518082805190602001908083835b60208310613f8d5780518252602082019150602081019050602083039250613f6a565b6001836020036101000a03801982511681845116808217855250505050505090500191505090815260200160405180910390206000801515151581526020019081526020016000209080519060200190613fe8929190614799565b506000604051806020016040528060008152506040518082805190602001908083835b6020831061402e578051825260208201915060208101905060208303925061400b565b6001836020036101000a0380198251168184511680821785525050505050509050019150509081526020016040518091039020600060011515151581526020019081526020016000206000826040518082805190602001908083835b602083106140ad578051825260208201915060208101905060208303925061408a565b6001836020036101000a0380198251168184511680821785525050505050509050019150509081526020016040518091039020600060011515151581526020019081526020016000209080546001816001161561010002031660029004614115929190614819565b5080600080604051806020016040528060008152506040518082805190602001908083835b6020831061415d578051825260208201915060208101905060208303925061413a565b6001836020036101000a03801982511681845116808217855250505050505090500191505090815260200160405180910390206000600115151515815260200190815260200160002060405180828054600181600116156101000203166002900480156142015780601f106141df576101008083540402835291820191614201565b820191906000526020600020905b8154815290600101906020018083116141ed575b50509150509081526020016040518091039020600080151515158152602001908152602001600020908051906020019061423c929190614799565b50806000604051806020016040528060008152506040518082805190602001908083835b602083106142835780518252602082019150602081019050602083039250614260565b6001836020036101000a03801982511681845116808217855250505050505090500191505090815260200160405180910390206000600115151515815260200190815260200160002090805190602001906142df929190614799565b506142ed6002546001613b3c565b60028190555060018060008473ffffffffffffffffffffffffffffffffffffffff1673ffffffffffffffffffffffffffffffffffffffff16815260200190815260200160002060006101000a81548160ff021916908315150217905550505b50565b606060008273ffffffffffffffffffffffffffffffffffffffff1660001b905060606040518060400160405280601081526020017f303132333435363738396162636465660000000000000000000000000000000081525090506060602a6040519080825280601f01601f1916602001820160405280156143df5781602001600182028038833980820191505090505b5090507f30000000000000000000000000000000000000000000000000000000000000008160008151811061441057fe5b60200101907effffffffffffffffffffffffffffffffffffffffffffffffffffffffffffff1916908160001a9053507f78000000000000000000000000000000000000000000000000000000000000008160018151811061446d57fe5b60200101907effffffffffffffffffffffffffffffffffffffffffffffffffffffffffffff1916908160001a90535060008090505b60148110156145c45782600485600c8401602081106144bd57fe5b1a60f81b7effffffffffffffffffffffffffffffffffffffffffffffffffffffffffffff1916901c60f81c60ff16815181106144f557fe5b602001015160f81c60f81b82600283026002018151811061451257fe5b60200101907effffffffffffffffffffffffffffffffffffffffffffffffffffffffffffff1916908160001a90535082600f60f81b85600c84016020811061455657fe5b1a60f81b1660f81c60ff168151811061456b57fe5b602001015160f81c60f81b82600283026003018151811061458857fe5b60200101907effffffffffffffffffffffffffffffffffffffffffffffffffffffffffffff1916908160001a90535080806001019150506144a2565b50809350505050919050565b6000808314806145e05750600082145b156145ee57600090506146bc565b60008284029050828482816145ff57fe5b0414614656576040517f08c379a000000000000000000000000000000000000000000000000000000000815260040180806020018281038252602b815260200180614d43602b913960400191505060405180910390fd5b8383828161466057fe5b04146146b7576040517f08c379a000000000000000000000000000000000000000000000000000000000815260040180806020018281038252602b815260200180614d43602b913960400191505060405180910390fd5b809150505b92915050565b600080821161471c576040517f08c379a00000000000000000000000000000000000000000000000000000000081526004018080602001828103825260228152602001806149f96022913960400191505060405180910390fd5b600082848161472757fe5b04905082848161473357fe5b0681840201841461478f576040517f08c379a0000000000000000000000000000000000000000000000000000000008152600401808060200182810382526023815260200180614b356023913960400191505060405180910390fd5b8091505092915050565b828054600181600116156101000203166002900490600052602060002090601f016020900481019282601f106147da57805160ff1916838001178555614808565b82800160010185558215614808579182015b828111156148075782518255916020019190600101906147ec565b5b50905061481591906148e8565b5090565b828054600181600116156101000203166002900490600052602060002090601f016020900481019282601f10614852578054855561488f565b8280016001018555821561488f57600052602060002091601f016020900482015b8281111561488e578254825591600101919060010190614873565b5b50905061489c91906148e8565b5090565b50805460018160011615610100020316600290046000825580601f106148c657506148e5565b601f0160209004906000526020600020908101906148e491906148e8565b5b50565b61490a91905b808211156149065760008160009055506001016148ee565b5090565b9056fe4e6f7420616c6c6f77656420746f20417070726f7665204d656469617465642053616c6573205472616e73616374696f6e2c2062656361757365204d6573736167652053656e646572206973206e656974686572207468652042757965722c2053656c6c65722c206f72204d65646961746f72214e6f7420616c6c6f77656420746f20446973617070726f7665204d656469617465642053616c6573205472616e73616374696f6e2c2062656361757365204d6573736167652053656e646572206973206e656974686572207468652042757965722c2053656c6c65722c206f72204d65646961746f72215f736166654d617468446976696465203a2044656e6f6d696e61746f7220697320304d656469617465642053616c6573205472616e73616374696f6e2068617320616c7265616479206265656e20446973617070726f766564206279206174206c6561737420322d6f75742d6f662d33206f66207468652042757965722c2053656c6c65722c20616e642f6f72204d65646961746f72212043616e6e6f7420417070726f7665206174207468697320706f696e74214f6e6c792074686520457468657265756d20416464726573732074686174206465706c6f796564205448495320436f6e7472616374206d6179206578656375746520616e79206f662069742773207075626c6963206d6574686f6473214d656469617465642053616c6573205472616e73616374696f6e20616c726561647920657869737473215f736166654d617468446976696465203a204469766973696f6e204f766572666c6f775f736166654d6174685375627472616374203a205375627472616374696f6e204f766572666c6f77496e6465782076616c756520676976656e2069732067726561746572207468616e206f7220657175616c20746f20746865204e756d626572206f66204d65646961746f7273212049742073686f756c64206265206c657373207468616e20746865204e756d626572206f66204d65646961746f72732143616e6e6f74206861766520616e20656d70747920537472696e6720666f722074686520495046532048617368204b6579204465736372697074696f6e206f662061204d65646961746f7221476976656e204d656469617465642053616c6573205472616e73616374696f6e2049504653204861736820646f6573206e6f74206578697374214d656469617465642053616c6573205472616e73616374696f6e2068617320616c7265616479206265656e20417070726f766564206279206174206c6561737420322d6f75742d6f662d33206f66207468652042757965722c2053656c6c65722c20616e642f6f72204d65646961746f72212043616e6e6f7420446973617070726f7665206174207468697320706f696e7421476976656e204d65646961746f72204164647265737320646f6573206e6f742065786973742061732061204d65646961746f72215f736166654d6174684d756c7469706c79203a204d756c7469706c69636174696f6e204f766572666c6f77a165627a7a723058209d552f66e4b335b817e93c640840d31ab858bbb945bdd9294ce7551f3d182c770029",
  "source": "pragma solidity >=0.4.22 <0.6.0;\r\n\r\nimport \"./GeneralUtilities.sol\";\r\nimport \"./FranklinDecentralizedMarketplaceMediation.sol\";\r\n\r\ncontract FranklinDecentralizedMartketplace {\r\n    using GeneralUtilities for *;\r\n    \r\n    // Each Item being sold in this Decentralized Marketplace is identified by it's IPFS (InterPlanetary File System) Hash. Information about each item being sold is in a JSON-formatted\r\n    // string stored in the IPFS (InterPlanetary File System) that may be accessed via the Infura IPFS Gateway URL. So, for example, let's say that an Item being sold by a Seller has an\r\n    // IPFS Hash of QmZ4DZ1spT2eQhUC5mfQGugM4AhLjq8ZvuZvHdQvnvKnHH. Then, the information about this Item may be seen in one of the following URLs:\r\n    // 1) https://ipfs.infura.io/ipfs/QmZ4DZ1spT2eQhUC5mfQGugM4AhLjq8ZvuZvHdQvnvKnHH\r\n    // 2) https://gateway.ipfs.io/ipfs/QmZ4DZ1spT2eQhUC5mfQGugM4AhLjq8ZvuZvHdQvnvKnHH\r\n    //\r\n    \r\n    // Each Seller in this Decentralized Marketplace is identified by it's Ethereum Address, but should also have information about himsef/herself that is in the \r\n    // IPFS (InterPlanetary File System) Hash. Information about each Seller is in a JSON-formatted\r\n    // string stored in the IPFS (InterPlanetary File System) that may be accessed via the Infura IPFS Gateway URL. So, for example, let's say that Seller has an\r\n    // IPFS Hash of QmZ4DZ1spT2eQhUC5mfQGugM4AhLjq8ZvuZvHdQvnvKnHH describing himself/herself. Then, the information about this Seller may be seen in one of the following URLs:\r\n    // 1) https://ipfs.infura.io/ipfs/QmZ4DZ1spT2eQhUC5mfQGugM4AhLjq8ZvuZvHdQvnvKnHH\r\n    // 2) https://gateway.ipfs.io/ipfs/QmZ4DZ1spT2eQhUC5mfQGugM4AhLjq8ZvuZvHdQvnvKnHH\r\n    //\r\n    // WARNING! Befor a Seller places infomation about himself/herself in this Smart Contract, the Seller must first have at least one Item placed For Sale.\r\n    \r\n    // WARNING!! It is the responsibility of the Users of this Smart Contract to enter valid IPFS Hash String values for each of the Items Sold and of the Seller's Description!\r\n    \r\n    // Constants used for the Double-Linked list and other uses.\r\n    bool constant public PREV = false;\r\n    bool constant public NEXT = true;\r\n    string constant public EMPTY_STRING = \"\";\r\n    string constant public UNDER_SCORE_STRING = \"_\";\r\n    \r\n    // This is the price of all specific Items being sold y Sellers identified by their Ethereum Address in Wei.\r\n    // The price is on a per-Item basis for one Item.\r\n    //\r\n    // Mapping is as follows:\r\n    // 1) Key: Concatenation of Ethereum Address of Seller followed by IPFS Hash of Item being sold with an UNDER_SCORE_STRING in between.\r\n    // 2) Value: Price of item being sold in Wei.\r\n    //\r\n    // Only the Seller may change or set the price of an Item.\r\n    // The Seller is identified by an Ethereum Address.\r\n    mapping(string => uint) public pricesOfItems;\r\n    \r\n    // This is the quantity of each Item that is being sold by a Seller. Thus, for each Item that is being sold their is a certain number of such items available for sale.\r\n    // \r\n    // Mapping is as follows:\r\n    // 1) Key: Concatenation of Ethereum Address of Seller followed by IPFS Hash of Item being sold with an UNDER_SCORE_STRING in between.\r\n    // 2) Value: Quanity available to be sold for the Item.\r\n    //\r\n    // Only the Seller may change or set the quantity of the item that is available for sale..\r\n    // The Seller is identified by an Ethereum Address.\r\n    mapping(string => uint) public quantityAvailableForSaleOfEachItem;\r\n    \r\n    // This is all the Items being sold on a per-seller basis where each seller is identified by it's Ethereum Address. The \"mapping(string => mapping(bool => string))\" is a\r\n    // double-linked list used to maintain such a list of Items for a seller. The reason for using a double-linked list over an array is that it's difficult to delete items of an array\r\n    // and still map back the Item to the Seller; use of arrays to maintain a dynamic list leads to having the array grow forever. Use of below technique solves this problem via use of \"delete\"\r\n    // on a \"mapping\" where such a resource does get deleted. Use of Double-Linked list technique explained and code borrowed from the \r\n    // https://ethereum.stackexchange.com/questions/15337/can-we-get-all-elements-stored-in-a-mapping-in-the-contract web page.\r\n    //\r\n    // For an explanation as to how the \"mapping(string => mapping(bool => string))\" double linked-list works and the code pertaining to it from which was borrowed, please go to the\r\n    // https://ethereum.stackexchange.com/questions/15337/can-we-get-all-elements-stored-in-a-mapping-in-the-contract web page.\r\n    //\r\n    // Mapping is as follows:\r\n    // 1) First Key: Ethereum Address of the Seller\r\n    // 2) First Value: The \"mapping(string => mapping(bool => string))\" double-linked list consisting of the IPFS Hashes of the various Items the Seller is selling. Each \"string\" in this mapping is\r\n    //    either an empty string or the IPFS Hash of an Item being sold by the Seller. The \"bool\" is either the PREV or NEXT boolean value above.\r\n    mapping(address => mapping(string => mapping(bool => string)) ) public itemsBeingSoldBySpecificSeller;\r\n    \r\n    // Used strictly to determine if an Item being sold by a Seller is in it's \"itemsBeingSoldBySpecificSeller\" double-linked list.\r\n    //\r\n    // Mapping is as follows:\r\n    // 1) Key: Concatenation of Ethereum Address of Seller followed by IPFS Hash of Item being sold with an UNDER_SCORE_STRING in between.\r\n    // 2) Value: Boolean value indicating if the Item is in the \"itemsBeingSoldBySpecificSeller\" double-linked list of the Seller.\r\n    mapping(string => bool) public itemsKeysMap;\r\n    \r\n    // Used to determine the number of Items being sold by a Seller. This is NOT the quantity being sold for each Item, but the number of different types of Items.\r\n    // It contains the number of Items in the seller's \"mapping(string => mapping(bool => string))\" double-linked list of the \"itemsBeingSoldBySpecificSeller\" mapping.\r\n    //\r\n    // Mapping is as follows:\r\n    // 1) Key: Ethereum Address of the Seller.\r\n    // 2) Value: Number of different types of Items being sold that is in the Seller's  \"mapping(string => mapping(bool => string))\" double-linked list of the \r\n    //    \"itemsBeingSoldBySpecificSeller\" mapping.\r\n    mapping(address => uint) public numberOfDifferentItemsBeingSoldBySellerMap;\r\n    \r\n    // A double-linked list that lists all the Sellers by their Ethereum Address in string format.\r\n    //\r\n    // For an explanation as to how the \"mapping(string => mapping(bool => string))\" double linked-list works and the code pertaining to it from which was borrowed, please go to the\r\n    // https://ethereum.stackexchange.com/questions/15337/can-we-get-all-elements-stored-in-a-mapping-in-the-contract web page.\r\n    //\r\n    // Each \"string\" below refers to the Ethereum Address of the Seller in string format.\r\n    mapping(string => mapping(bool => string)) public listOfSellers;\r\n    \r\n    // Map that keeps track of whether a Seller exists. The \"address\" key is the Ethereum Address of the Seller.\r\n    mapping(address => bool) public sellerExistsMap;\r\n    \r\n    // Keeps a count on the Number of Sellers selling on this platform.\r\n    uint public numberOfSellers;\r\n    \r\n    // This Mapping contains the Description Information about the Sellers. The Seller is responsible for adding this information.\r\n    // A Seller must first have in it's \"itemsBeingSoldBySpecificSeller\" double-linked list at least one Item to sell BEFORE being able to add Information about\r\n    // about himself/herself. The IPFS Hash string should refer to a JSON-formatted string describing the seller in the IPFS Storage System.\r\n    //\r\n    // Mapping is as follows:\r\n    // 1) Key: Ethereum Address of the Seller\r\n    // 2) Value: IPFS Hash string of the information pertaining to the Seller. This information is stored in the IPFS Storage Network.\r\n    mapping(address => string) public descriptionInfoAboutSellers;\r\n    \r\n    // This Mapping is used to determine if a Seller is willing to sell his/her Items via the use of a Mediator. The Mediator is used to determine that BOTH parties are BOTH satisfied with the \r\n    // Sale of the Item. One iten of contention is that the Buyer actualy got the Item he/she purchased. \r\n    // In these types of Sales involving a Mediator, two out of the three parties - Buyer, Seller, and/or Mediator - must approve the sale transaction BEFORE the ETH is sent to the Seller.\r\n    // In such cases involving a Mediator, the Buyer's ETH is not sent to the Seller, but sent to this Smart Contract. Once two out of the three parties gives the OK for the Sale, then 95% of the\r\n    // Sales Price of the Item goes to the Seller and 5% goes to the Mediator.\r\n    //\r\n    // The \"key\" is the Ethereum Seller Address and the value is a boolen. If the Seller is willing to sell via a Mediator, then this value if boolean true. \r\n    // If the Seller is NOT willing to sell via a Mediator, then this value if boolean false.\r\n    mapping(address => bool) public sellerWillingToSellItemsViaMediator;\r\n    \r\n    FranklinDecentralizedMarketplaceMediation public mediationMarketplace;\r\n    \r\n    constructor() public {\r\n        mediationMarketplace = new FranklinDecentralizedMarketplaceMediation();\r\n    }\r\n    \r\n    function getContractOwnerOfFranklinDecentralizedMarketplaceMediation() public view returns (address) {\r\n        return mediationMarketplace.getOnlyAddressThatMayAccessThisContract();\r\n    }\r\n    \r\n    // Determines if a Seller with the given \"_sellerAddres\" is willing to make sales of it's Items via a Mediator. \r\n    // A return of boolean false indicates that the Seller is NOT willing to sell his/her items via a Mediator. \r\n    // A return of boolean true indicates that the Seller IS willing to sell his/her items via a Mediator.\r\n    function sellerIsWillingToSellItemsViaMediator(address _sellerAddress) public view returns (bool) {\r\n        return sellerWillingToSellItemsViaMediator[_sellerAddress];\r\n    }\r\n    \r\n    // This function allows a Seller to set into this Smart Contract whether he/she is willing to sell his/her Items via the use of a Mediator.\r\n    // The Seller in this function is the \"msg.sender\".\r\n    //\r\n    // A \"_flag\" value of boolean true, indicates that the Seller IS willing to make sales via a Mediator.\r\n    // A \"_flag\" value of boolean false, indicates that the Seller is NOT willing to make sales via a Mediator.\r\n    function setSellerWillingToSellItemsViaMediator(bool _flag) public {\r\n        if (!sellerExistsMap[msg.sender]) {\r\n            return;\r\n        }\r\n        \r\n        sellerWillingToSellItemsViaMediator[msg.sender] = _flag;\r\n    }\r\n    \r\n    // This method allows a Seller to add/update a Description about himself/herself feeding in the \"_ipfsHashKeyDescription\" that should point to a JSON-formatted string in the IPFS Storage System.\r\n    // The \"msg.sender\" is the Seller.\r\n    function addOrUpdateSellerDescription(string memory _ipfsHashKeyDescription) public {\r\n        require(numberOfDifferentItemsBeingSoldBySellerMap[msg.sender] > 0, \"You must first add at least ONE Item For Sale before adding a description of yourself!\");\r\n        require(!GeneralUtilities._compareStringsEqual(_ipfsHashKeyDescription, EMPTY_STRING), \"Cannot have an empty String for the IPFS Hash Key Description of a Seller!\");\r\n        \r\n        descriptionInfoAboutSellers[msg.sender] = _ipfsHashKeyDescription;\r\n    }\r\n    \r\n    // Gets the Description of a Seller identified by the given \"_sellerAddress\". The Description will be the IPFS Hash where the JSON-formatted Description of the Seller exists.\r\n    // If no such IPFS Hash Key Description exists, then an EMPTY_STRING will be returned.\r\n    function getSellerIpfsHashDescription(address _sellerAddress) public view returns (string memory) {\r\n        return descriptionInfoAboutSellers[_sellerAddress];\r\n    }\r\n    \r\n    // Adds a Seller - identified by it's Ethereum Address - to the \"listOfSellers\" double-linked list.\r\n    //\r\n    // Source --> https://ethereum.stackexchange.com/questions/15337/can-we-get-all-elements-stored-in-a-mapping-in-the-contract\r\n    function _addSeller(address _sellerAddress) private {\r\n        string memory sellerAddressStringKey = GeneralUtilities._addressToString(_sellerAddress);\r\n        \r\n        // Will not bother to check for valid \"address\", because Ethereum Virtualk Machine does that for us automatically and will just throw an Error that caller of this \r\n        // method will have to catch.\r\n        \r\n        if (sellerExistsMap[_sellerAddress]) {\r\n            return;\r\n        }\r\n        \r\n        // Link the new node \r\n        listOfSellers[sellerAddressStringKey][PREV] = EMPTY_STRING;\r\n        listOfSellers[sellerAddressStringKey][NEXT] = listOfSellers[EMPTY_STRING][NEXT];\r\n    \r\n        // Insert the new node\r\n        listOfSellers[listOfSellers[EMPTY_STRING][NEXT]][PREV] = sellerAddressStringKey;\r\n        listOfSellers[EMPTY_STRING][NEXT] = sellerAddressStringKey;\r\n    \r\n        numberOfSellers = GeneralUtilities._safeMathAdd(numberOfSellers, 1);\r\n        sellerExistsMap[_sellerAddress] = true;\r\n    }\r\n    \r\n    // Removes a Seller - identified by it's Ethereum Address - from the \"listOfSellers\" double-linked list.\r\n    //\r\n    // No need to check for empty string on returned Ethereum Address string, because if the \"_sellerAddress\" is an invalid Ethereum Address, then Ethereum Virtual Machine will\r\n    // throw an Error. Caller of this method will have to check if an Error was thrown.\r\n    // \r\n    // Source --> https://ethereum.stackexchange.com/questions/15337/can-we-get-all-elements-stored-in-a-mapping-in-the-contract\r\n    function _removeSeller(address _sellerAddress) private {\r\n        string memory sellerAddressStringKey = GeneralUtilities._addressToString(_sellerAddress);\r\n        \r\n        if (!sellerExistsMap[_sellerAddress]) {\r\n            return;\r\n        }\r\n        \r\n        // Stitch the neighbours together\r\n        listOfSellers[ listOfSellers[sellerAddressStringKey][PREV] ][NEXT] = listOfSellers[sellerAddressStringKey][NEXT];\r\n        listOfSellers[ listOfSellers[sellerAddressStringKey][NEXT] ][PREV] = listOfSellers[sellerAddressStringKey][PREV];\r\n    \r\n        // Delete state storage\r\n        delete listOfSellers[sellerAddressStringKey][PREV];\r\n        delete listOfSellers[sellerAddressStringKey][NEXT];\r\n        \r\n        numberOfSellers = GeneralUtilities._safeMathSubtract(numberOfSellers, 1);\r\n        delete sellerExistsMap[_sellerAddress];\r\n        delete sellerWillingToSellItemsViaMediator[_sellerAddress];\r\n        \r\n        // Decided to NOT delete this information, because a Seller may be involved in a Mediator type of Sale, and we still wish to keep information \r\n        // about the Seller.\r\n        // delete descriptionInfoAboutSellers[_sellerAddress];\r\n    }\r\n    \r\n    // Allows a Seller to remove himself/herself from the \"listOfSellers\". The Seller to be removed is the \"msg.sender\" Ethereum Address that calls this method. \r\n    // Not only will the Seller be removed but also ALL of the Items assovciated with this \"msg.sender\" Seller.\r\n    function removeSeller() public {\r\n        uint numberOfDifferentItemsBeingSoldBySeller = numberOfDifferentItemsBeingSoldBySellerMap[msg.sender];\r\n        \r\n        // We have to first get ALL of the IPFS Key Hashes of the Items for Sale, because the Indexes will change as we delete the Items.\r\n        string[] memory itemsForSale = new string[](numberOfDifferentItemsBeingSoldBySeller);\r\n        for (uint itemIndex = 0; itemIndex < numberOfDifferentItemsBeingSoldBySeller; itemIndex++) {\r\n            string memory itemForSale = getItemForSale(msg.sender, itemIndex);\r\n            itemsForSale[itemIndex] = itemForSale;\r\n        }\r\n        \r\n        // Then we delete step-by-step.\r\n        for (uint i = 0; i < numberOfDifferentItemsBeingSoldBySeller; i++) {\r\n            removeItemForSale(itemsForSale[i]);\r\n        }\r\n        \r\n        // The Seller \"msg.sender\" will be automatically removed from the \"listOfSellers\" when the last Item it has For Sale is removed.\r\n    }\r\n    \r\n    // Gets the Seller Ethereum Address at the given \"_index\" from the \"listOfSellers\" double-linked list.\r\n    //\r\n    // Input Parameter:\r\n    // _itemIndex : Index number into the \"listOfSellers\" double-linked list of Items Seller is selling.\r\n    //              Index starts at 0.\r\n    //\r\n    // Returns:\r\n    // 1) If the \"_index\" is less than the \"numberOfSellers\", then the Etheruem Address of the Seller at the given \"_index\" into the \"listOfSellers\" double-linked list\r\n    //    is returned.\r\n    // 2) If the \"_index\" is greater than or equal to the \"numberOfSellers\", then an Exception is thrown via the \"require\" below.\r\n    function getSellerAddress(uint _index) public view returns (address) {\r\n        require(_index < numberOfSellers, \"Index value given is greater than or equal to the Number of Sellers! It should be less than the Number of Sellers!\");\r\n        \r\n        // The \"key\" below is the Ethereum Address in string format that is in the \"listOfSellers\" double-linked list.\r\n        \r\n        uint keyCount = 0;\r\n        string memory key = EMPTY_STRING;\r\n        while (true) {\r\n            key = listOfSellers[key][NEXT];\r\n            if (keyCount == _index) {\r\n                break;\r\n            }\r\n        \r\n            keyCount++;\r\n        }\r\n        \r\n        return GeneralUtilities._parseEthereumAddressStringToAddress(key);    \r\n    }\r\n    \r\n    // Returns back a boolean value to determine if the given \"_sellerAddres\" is in the \"listOfSellers\".\r\n    function sellerExists(address _sellerAddress) public view returns (bool) {\r\n        return sellerExistsMap[_sellerAddress];\r\n    }\r\n    \r\n    // Returns back the Number of Sellers in this Decentralized Marketplace.\r\n    function getNumberOfSellers() public view returns (uint) {\r\n        return numberOfSellers;\r\n    }\r\n    \r\n    // Allows a Seller to set the Price of an Item the Seller is selling in Wei. The Seller would be the \"msg.sender\" Ethereum Address that calls this method.\r\n    //\r\n    // Input Parameters:\r\n    // 1) _keyItemIpfsHash : This is the IPFS Hash of the item being sold that points to a JSON-formatted string in the IPFS Storage System.\r\n    // 2) _priceInWei : Price of the Item to be set in Wei \r\n    //\r\n    // If the Seller sets the Price of the Item to Zero (i.e., 0) Wei, then that means that the Item is set to a State where it cannot be purchased.\r\n    //\r\n    // If the Item in questions does not exist as an Item for Sale under the \"msg.sender\" Seller of if the \"msg.sender\" is not a Seller, then no setting of a price \r\n    // gets done.\r\n    function setPriceOfItem(string memory _keyItemIpfsHash, uint _priceInWei) public {\r\n        require(!GeneralUtilities._compareStringsEqual(_keyItemIpfsHash, EMPTY_STRING), \"Cannot have an empty String for the IPFS Hash Key of an Item to Sell!\");\r\n        \r\n        // I was thinking of not allowing the Seller to set the Price of an Itemn to Zero wei, but then I changed my mind. The Seller may have a situation where its has \r\n        // the Item in stock, but does not wish to sell the Ite, yet.\r\n        // require(_priceInWei > 0, \"Cannot set the Price of an Item to Zero Wei!\");\r\n        \r\n        string memory combinedKeyAddressPlusItemIpfsHash = GeneralUtilities._getConcatenationOfEthereumAddressAndIpfsHash(msg.sender, _keyItemIpfsHash);\r\n        require(itemsKeysMap[combinedKeyAddressPlusItemIpfsHash], \"Given IPFS Hash of Item is not listed as an Item For Sale for you - the Seller!\");\r\n        \r\n        pricesOfItems[combinedKeyAddressPlusItemIpfsHash] = _priceInWei;\r\n    }\r\n    \r\n    // Gets the Price (in Wei) of an Item - identified by the given \"_keyItemIpfsHash\" input parameter - being sold by a \r\n    // Seller - identified by the given \"_sellerAddress\" Etherum Address.\r\n    //\r\n    // A return value of Zero (i.e., 0) Wei indccates that the Seller has not yet set a Price for this Item, and thus the Item cannot be purchased\r\n    function getPriceOfItem(address _sellerAddress, string memory _keyItemIpfsHash) public view returns (uint) {\r\n        require(!GeneralUtilities._compareStringsEqual(_keyItemIpfsHash, EMPTY_STRING), \"Cannot have an empty String for the IPFS Hash Key of an Item!\");\r\n        \r\n        string memory combinedKeyAddressPlusItemIpfsHash = GeneralUtilities._getConcatenationOfEthereumAddressAndIpfsHash(_sellerAddress, _keyItemIpfsHash);\r\n        require(itemsKeysMap[combinedKeyAddressPlusItemIpfsHash], \"Given IPFS Hash of Item is not listed as an Item For Sale from the Seller!\");\r\n        \r\n        return pricesOfItems[combinedKeyAddressPlusItemIpfsHash];\r\n    }\r\n    \r\n    // Allows a Seller to set the Quantity available for Sale of an Item that a Seller is selling. The Seller would be the \"msg.sender\" Ethereum Address that calls this method.\r\n    //\r\n    // Input Parameters:\r\n    // 1) _keyItemIpfsHash : This is the IPFS Hash of the item being sold that points to a JSON-formatted string in the IPFS Storage System.\r\n    // 2) _quantity : The quantity available For Sale of the Item that the Seller is selling.      \r\n    function setQuantityAvailableForSaleOfAnItem(string memory _keyItemIpfsHash, uint _quantity) public {\r\n        require(!GeneralUtilities._compareStringsEqual(_keyItemIpfsHash, EMPTY_STRING), \"Cannot have an empty String for the IPFS Hash Key of an Item to Sell!\");\r\n        \r\n        string memory combinedKeyAddressPlusItemIpfsHash = GeneralUtilities._getConcatenationOfEthereumAddressAndIpfsHash(msg.sender, _keyItemIpfsHash);\r\n        require(itemsKeysMap[combinedKeyAddressPlusItemIpfsHash], \"Given IPFS Hash of Item is not listed as an Item For Sale for you - the Seller!\");\r\n        \r\n        quantityAvailableForSaleOfEachItem[combinedKeyAddressPlusItemIpfsHash] = _quantity;\r\n    }\r\n    \r\n    // Allows a Buyer - identified by the \"msg.sender\" Ethereum Address that calls this method - to purchase a \"_quantity\" of a specific Item - identified \r\n    // by it's \"_keyItemIpfsHash\" - from a given Seller - identified by it's \"_sellerAddress\" Ethereum Address.\r\n    //\r\n    // The Buyer is assuming the risk here in that the Buyer is expecting the Seller to be honest enough to send to the Buyer the quantity of Items \r\n    // in the purchase to the Buyer after the Seller receives the payment.\r\n    //\r\n    // Input Parameters:\r\n    // 1) _sellerAddress : Ethereum Address of the Seller\r\n    // 2) _keyItemIpfsHash : This is the IPFS Hash of the item being sold that points to a JSON-formatted string in the IPFS Storage System.\r\n    // 3) _quantity : Quantity of the Item that the \"msg.sender\" Buyer wishes to purchase.\r\n    function purchaseItemWithoutMediator(address payable _sellerAddress, string memory _keyItemIpfsHash, uint _quantity) payable public {\r\n        require(_quantity > 0, \"Must purchase at least 1 quantity of the Item for Sale to happen!\");\r\n        require(!GeneralUtilities._compareStringsEqual(_keyItemIpfsHash, EMPTY_STRING), \"Cannot have an empty String for the IPFS Hash Key of an Item you are purchasing!\");\r\n        require(msg.sender != _sellerAddress, \"The Buyer Address cannot be the same as the Seller Address!\");\r\n        \r\n        require(sellerExistsMap[_sellerAddress], \"Given Seller Address does not exist as a Seller!\");\r\n        \r\n        string memory combinedKeyAddressPlusItemIpfsHash = GeneralUtilities._getConcatenationOfEthereumAddressAndIpfsHash(msg.sender, _keyItemIpfsHash);\r\n        require(itemsKeysMap[combinedKeyAddressPlusItemIpfsHash], \"Given IPFS Hash of Item is not listed as an Item For Sale from the Seller!\");\r\n        \r\n        require(quantityAvailableForSaleOfEachItem[combinedKeyAddressPlusItemIpfsHash] > 0, \"Seller has Zero quantity available for Sale for the Item requested to purchase!\");\r\n        require(quantityAvailableForSaleOfEachItem[combinedKeyAddressPlusItemIpfsHash] >= _quantity, \r\n            \"Quantity available For Sale of the Item from the Seller is less than the quantity requested to purchase! Not enough of the Itenm available For Sale\");\r\n        \r\n        require(pricesOfItems[combinedKeyAddressPlusItemIpfsHash] > 0, \"The Seller has not yet set a Price for Sale for the requested Item! Cannot purchase the Item!\"); \r\n        \r\n        uint totalAmountOfWeiNeededToPurchase = GeneralUtilities._safeMathMultiply(pricesOfItems[combinedKeyAddressPlusItemIpfsHash], _quantity);\r\n        require(msg.value >= totalAmountOfWeiNeededToPurchase, \"Not enough ETH was sent to purchase the quantity requested of the Item!\");\r\n        \r\n        quantityAvailableForSaleOfEachItem[combinedKeyAddressPlusItemIpfsHash] = GeneralUtilities._safeMathSubtract(quantityAvailableForSaleOfEachItem[combinedKeyAddressPlusItemIpfsHash], 1);\r\n        \r\n        // We want to make sure to return back any excess ETH that exceeds the amount necessary to purchase the given \"_quantity\" of the Item.\r\n        msg.sender.transfer(msg.value - totalAmountOfWeiNeededToPurchase);\r\n        \r\n        // Transfer the \"totalAmountOfWeiNeededToPurchase\" to the Seller.\r\n        _sellerAddress.transfer(totalAmountOfWeiNeededToPurchase);\r\n    }\r\n    \r\n    function purchaseItemWithMediator(address _sellerAddress, address _mediatorAddress, string memory _keyItemIpfsHash, \r\n                string memory _mediatedSalesTransactionIpfsHash, uint _quantity) payable public {\r\n        require(_quantity > 0, \"Must purchase at least 1 quantity of the Item for Sale to happen!\");\r\n        require(!GeneralUtilities._compareStringsEqual(_keyItemIpfsHash, EMPTY_STRING), \"Cannot have an empty String for the IPFS Hash Key of an Item you are purchasing!\");\r\n        require(!GeneralUtilities._compareStringsEqual(_mediatedSalesTransactionIpfsHash, EMPTY_STRING), \"Cannot have an empty String for the IPFS Hash Key of the Mediated Sales Transaction!\");\r\n        \r\n        require(sellerExistsMap[_sellerAddress], \"Given Seller Address does not exist as a Seller!\");\r\n        \r\n        string memory combinedKeyAddressPlusItemIpfsHash = GeneralUtilities._getConcatenationOfEthereumAddressAndIpfsHash(msg.sender, _keyItemIpfsHash);\r\n        require(itemsKeysMap[combinedKeyAddressPlusItemIpfsHash], \"Given IPFS Hash of Item is not listed as an Item For Sale from the Seller!\");\r\n        \r\n        require(quantityAvailableForSaleOfEachItem[combinedKeyAddressPlusItemIpfsHash] > 0, \"Seller has Zero quantity available for Sale for the Item requested to purchase!\");\r\n        require(quantityAvailableForSaleOfEachItem[combinedKeyAddressPlusItemIpfsHash] >= _quantity, \r\n            \"Quantity available For Sale of the Item from the Seller is less than the quantity requested to purchase! Not enough of the Itenm available For Sale\");\r\n        \r\n        require(pricesOfItems[combinedKeyAddressPlusItemIpfsHash] > 0, \"The Seller has not yet set a Price for Sale for the requested Item! Cannot purchase the Item!\"); \r\n        \r\n        uint totalAmountOfWeiNeededToPurchase = GeneralUtilities._safeMathMultiply(pricesOfItems[combinedKeyAddressPlusItemIpfsHash], _quantity);\r\n        require(msg.value >= totalAmountOfWeiNeededToPurchase, \"Not enough ETH was sent to purchase the quantity requested of the Item!\");\r\n        \r\n        // Need to check that the Ethereum Addresses of the Buyer, Seller, and Mediator are ALL different!\r\n        require(msg.sender != _sellerAddress, \"The Buyer Address cannot be the same as the Seller Address!\");\r\n        require(msg.sender != _mediatorAddress, \"The Buyer Address cannot be the same as the Mediator Address!\");\r\n        require(_sellerAddress != _mediatorAddress, \"The Seller Address cannot be the same as the Mediator Address!\");\r\n        \r\n        // Below code logic transferred over to the FranklinDecentralizedMarketplaceMediation Contract.\r\n        /*\r\n        require(!mediatedSalesTransactionExists[_mediatedSalesTransactionIpfsHash], \"Mediated Sales Transaction already exists!\");\r\n        \r\n        string memory mediatorAddressStringKey = GeneralUtilities._addressToString(_mediatorAddress);\r\n        require(mediatorExistsMap[mediatorAddressStringKey], \"Given Mediator Address does not exist as a Mediator!\");\r\n        \r\n        // Keep track of the existence of the Mediated Sales Transaction so that it can be Approved or Disapproved by the Buyer, Seller, and/or Mediator in the future.\r\n        mediatedSalesTransactionExists[_mediatedSalesTransactionIpfsHash] = true;\r\n        mediatedSalesTransactionAddresses[_mediatedSalesTransactionIpfsHash][BUYER_INDEX] = msg.sender;\r\n        mediatedSalesTransactionAddresses[_mediatedSalesTransactionIpfsHash][SELLER_INDEX] = _sellerAddress;\r\n        mediatedSalesTransactionAddresses[_mediatedSalesTransactionIpfsHash][MEDIATOR_INDEX] = _mediatorAddress;\r\n        \r\n        // The \"msg.value\" amount will automatically be sent to this Contract in Escrow in a Mediated Sales Transaction. We need to store the \"totalAmountOfWeiNeededToPurchase\" as follows so that when:\r\n        // 1) 2-out-of-3 of the Buyer, Seller, and/or Mediator Approves this Mediated Sales Transaction, the 95% of the \"totalAmountOfWeiNeededToPurchase\" can be sent to the Seller Address and 5% of the \r\n        //    \"msg.value\" can be sent to the Mediator Address. \r\n        // 2) 2-out-of-3 of the Buyer, Seller, and/or Mediator Disapproves this Mediated Sales Transaction, the \"totalAmountOfWeiNeededToPurchase\" can be sent back to the Buyer Address.\r\n        mediatedSalesTransactionAmount[_mediatedSalesTransactionIpfsHash] = totalAmountOfWeiNeededToPurchase;\r\n        \r\n        numberOfMediationsMediatorInvolved[_mediatorAddress] = GeneralUtilities._safeMathAdd(numberOfMediationsMediatorInvolved[_mediatorAddress], 1);\r\n        */\r\n        mediationMarketplace.purchaseItemWithMediator(msg.sender, _sellerAddress, _mediatorAddress, _mediatedSalesTransactionIpfsHash, totalAmountOfWeiNeededToPurchase);\r\n        \r\n        // We want to make sure to return back any excess ETH that exceeds the amount necessary to purchase the given \"_quantity\" of the Item.\r\n        msg.sender.transfer(msg.value - totalAmountOfWeiNeededToPurchase);  \r\n        \r\n        // Since the FranklinDecentralizedMarketplaceMediation Contract will be handling any further Mediation actions, the Escrow should be kept there. \r\n        // So, send the Escrow Amount to the FranklinDecentralizedMarketplaceMediation Contract.\r\n        address payable mediationMarketplaceAddress = GeneralUtilities._convertAddressToAddressPayable(address(mediationMarketplace));\r\n        mediationMarketplaceAddress.transfer(totalAmountOfWeiNeededToPurchase);\r\n    }\r\n    \r\n    // Adds an Item to be Sold by a Seller to it's \"itemsBeingSoldBySpecificSeller\" double-linked list. The Seller in this function call is the \"msg.sender\" \r\n    // Ethereum Address that calls this function. Also, this causes the \"msg.sender\" Seller to be added in the \"listOfSellers\".\r\n    //\r\n    // Source --> https://ethereum.stackexchange.com/questions/15337/can-we-get-all-elements-stored-in-a-mapping-in-the-contract\r\n    function addItemForSale(string memory _keyItemIpfsHash) public {\r\n        require(!GeneralUtilities._compareStringsEqual(_keyItemIpfsHash, EMPTY_STRING), \"Cannot have an empty String for the IPFS Hash Key of an Item to Sell!\");\r\n        \r\n        string memory combinedKeyAddressPlusItemIpfsHash = GeneralUtilities._getConcatenationOfEthereumAddressAndIpfsHash(msg.sender, _keyItemIpfsHash);\r\n        \r\n        // If the specific type of Item is already in the list of Items that the Seller is selling, then no need to add the Item, because it's already there.\r\n        if (itemsKeysMap[combinedKeyAddressPlusItemIpfsHash]) {\r\n            return;\r\n        }\r\n        \r\n        // This below is the double-linked list of different types of Items being sold by a Seller.\r\n        mapping(string => mapping(bool => string)) storage itemsBeingSoldBySenderAddress = itemsBeingSoldBySpecificSeller[msg.sender];\r\n        \r\n        // Link the new node \r\n        itemsBeingSoldBySenderAddress[_keyItemIpfsHash][PREV] = EMPTY_STRING;\r\n        itemsBeingSoldBySenderAddress[_keyItemIpfsHash][NEXT] = itemsBeingSoldBySenderAddress[EMPTY_STRING][NEXT];\r\n    \r\n        // Insert the new node\r\n        itemsBeingSoldBySenderAddress[itemsBeingSoldBySenderAddress[EMPTY_STRING][NEXT]][PREV] = _keyItemIpfsHash;\r\n        itemsBeingSoldBySenderAddress[EMPTY_STRING][NEXT] = _keyItemIpfsHash;\r\n        \r\n        numberOfDifferentItemsBeingSoldBySellerMap[msg.sender] = GeneralUtilities._safeMathAdd(numberOfDifferentItemsBeingSoldBySellerMap[msg.sender], 1);\r\n        itemsKeysMap[combinedKeyAddressPlusItemIpfsHash] = true;\r\n        \r\n        _addSeller(msg.sender); // No seller added if Seller already exists.\r\n    }\r\n    \r\n    // Removes an Item being Sold by a Seller in it's \"itemsBeingSoldBySpecificSeller\" double-linked list. The Seller in this function call is the \"msg.sender\" \r\n    // Ethereum Address that calls this function.\r\n    //\r\n    // WARNING! If this method causes removing the last Item for Sale, the Seller (i.e., the \"msg.sender\") will be removed from the \"listOfSellers\". \r\n    //\r\n    // Source --> https://ethereum.stackexchange.com/questions/15337/can-we-get-all-elements-stored-in-a-mapping-in-the-contract\r\n    function removeItemForSale(string memory _keyItemIpfsHash) public {\r\n        string memory combinedKeyAddressPlusItemIpfsHash = GeneralUtilities._getConcatenationOfEthereumAddressAndIpfsHash(msg.sender, _keyItemIpfsHash);\r\n        \r\n        if (!itemsKeysMap[combinedKeyAddressPlusItemIpfsHash]) {\r\n            return;\r\n        }\r\n        \r\n        // This below is the double-linked list of different types of Items being sold by a Seller.\r\n        mapping(string => mapping(bool => string)) storage itemsBeingSoldBySenderAddress = itemsBeingSoldBySpecificSeller[msg.sender];\r\n        \r\n        // Stitch the neighbours together\r\n        itemsBeingSoldBySenderAddress[ itemsBeingSoldBySenderAddress[_keyItemIpfsHash][PREV] ][NEXT] = itemsBeingSoldBySenderAddress[_keyItemIpfsHash][NEXT];\r\n        itemsBeingSoldBySenderAddress[ itemsBeingSoldBySenderAddress[_keyItemIpfsHash][NEXT] ][PREV] = itemsBeingSoldBySenderAddress[_keyItemIpfsHash][PREV];\r\n    \r\n        // Delete state storage\r\n        delete itemsBeingSoldBySenderAddress[_keyItemIpfsHash][PREV];\r\n        delete itemsBeingSoldBySenderAddress[_keyItemIpfsHash][NEXT];\r\n    \r\n        numberOfDifferentItemsBeingSoldBySellerMap[msg.sender] = GeneralUtilities._safeMathSubtract(numberOfDifferentItemsBeingSoldBySellerMap[msg.sender], 1);\r\n        delete itemsKeysMap[combinedKeyAddressPlusItemIpfsHash];\r\n        delete pricesOfItems[combinedKeyAddressPlusItemIpfsHash];\r\n        delete quantityAvailableForSaleOfEachItem[combinedKeyAddressPlusItemIpfsHash];\r\n        \r\n        if (numberOfDifferentItemsBeingSoldBySellerMap[msg.sender] == 0) {\r\n            _removeSeller(msg.sender);\r\n        }\r\n    }\r\n    \r\n    // Gets the number of different types of Items being sold by a Seller. Each Seller shall have a unique Ethereum Address that will be used to identify\r\n    // the Seller.\r\n    function getNumberOfDifferentItemsBeingSoldBySeller(address _sellerAddress) public view returns (uint) {\r\n        return numberOfDifferentItemsBeingSoldBySellerMap[_sellerAddress];\r\n    }\r\n    \r\n    // Gets the IPFS Hash string of an Item being sold by a Seller. Index values start at 0.\r\n    //\r\n    // This IPFS Hash string refers to a JSON-formatted string that is stored in the IPFS Storage System.\r\n    //\r\n    // Input Parameters:\r\n    // 1) _sellerAddress : The Ethereum Address of the Seller\r\n    // 2) _itemIndex : Index number into the \"itemsBeingSoldBySpecificSeller\" double-linked list of Items Seller is selling.\r\n    //    Index starts at 0.\r\n    //\r\n    // Returns:\r\n    // 1) If the \"_itemIndex\" refers to an Item that the \"_sellerAddress\" is selling, then the IPFS Hash string of the Item being sold is returned.\r\n    // 2) If the \"_itemIndex\" does NOT refer to an Item that the \"_sellerAddress\" is selling, then an EMPTY_STRING is returned.\r\n    function getItemForSale(address _sellerAddress, uint _itemIndex) public view returns (string memory) {\r\n        if (_itemIndex >= numberOfDifferentItemsBeingSoldBySellerMap[_sellerAddress]) {\r\n            return EMPTY_STRING;\r\n        }\r\n        \r\n        // This below is the double-linked list of different types of Items being sold by the \"_sellerAddress\".\r\n        mapping(string => mapping(bool => string)) storage itemsBeingSoldBySenderAddress = itemsBeingSoldBySpecificSeller[_sellerAddress];        \r\n        \r\n        uint keyCount = 0;\r\n        string memory ipfsHashKeyOfItem = EMPTY_STRING;\r\n        while (true) {\r\n            ipfsHashKeyOfItem = itemsBeingSoldBySenderAddress[ipfsHashKeyOfItem][NEXT];\r\n            if (keyCount == _itemIndex) {\r\n                break;\r\n            }\r\n            \r\n            keyCount++;\r\n        }\r\n        \r\n        return ipfsHashKeyOfItem;       \r\n    }\r\n    \r\n    // Returns back a boolean value indicating if a certain Item is available for sale from a given Seller.\r\n    //\r\n    // Input Parameters:\r\n    // 1) _sellerAddress : The Ethereum Address of the Seller\r\n    // 2) _keyItemIpfsHash : The IPFS Hash ID string identifying an Item For Sale\r\n    //\r\n    // Returns:\r\n    // 1) Boolean true : If the given \"_sellerAddress\" is selling the given Item identified by it's \"_keyItemIpfsHash\"\r\n    // 2) Boolean false : If the given \"_sellerAddress\" is NOT selling the given Item identified by it's \"_keyItemIpfsHash\"\r\n    function itemForSaleFromSellerExists(address _sellerAddress, string memory _keyItemIpfsHash) public view returns (bool) {\r\n        string memory combinedKeyAddressPlusItemIpfsHash = GeneralUtilities._getConcatenationOfEthereumAddressAndIpfsHash(_sellerAddress, _keyItemIpfsHash);\r\n        return itemsKeysMap[combinedKeyAddressPlusItemIpfsHash];\r\n    }\r\n\r\n    // Adds or Updates a Mediator with the given \" _mediatorIpfsHashDescription\", which refers to a JSON-formatted string stored in the IPFS Storage System.\r\n    // The \"msg.sender\" will be the Ethereum Address of the entity wishing to become a Mediator in this Smart Contract. This method allows anyone with an Ethereum \r\n    // Address to add himself/herself as a Mediator in this Smart Contract.\r\n    function addOrUpdateMediator(string memory _mediatorIpfsHashDescription) public {\r\n        mediationMarketplace.addOrUpdateMediator(msg.sender, _mediatorIpfsHashDescription);\r\n    }\r\n    \r\n    // Removes a Mediator from this Smart Contract. The \"msg.sender\" will be the Ethereum Address of the entity wishing to remove himself/herself as a Mediator in this Smart Contract. \r\n    // If there are any pending Sales that the Mediator is involved, the Sales and other information will still be kept.\r\n    // This method allows anyone with an Ethereum  Address to remove himself/herself as a Mediator in this Smart Contract. \r\n    function removeMediator() external {\r\n        mediationMarketplace.removeMediator(msg.sender);\r\n    }\r\n    \r\n    // Gets the Mediator Ethereum Address at the given \"_index\" from the \"listOfMediators\" double-linked list.\r\n    //\r\n    // Input Parameter:\r\n    // _itemIndex : Index number into the \"listOfMediators\" double-linked list.\r\n    //              Index starts at 0.\r\n    //\r\n    // Returns:\r\n    // 1) If the \"_index\" is less than the \"numberOfMediators\", then the Etheruem Address of the Mediator at the given \"_index\" into the \"listOfMediators\" double-linked list\r\n    //    is returned.\r\n    // 2) If the \"_index\" is greater than or equal to the \"numberOfMediators\", then an Exception is thrown via the \"require\" below.\r\n    function getMediatorAddress(uint _index) external view returns (address) {\r\n        return mediationMarketplace.getMediatorAddress(_index);\r\n    }\r\n    \r\n    // Gets the Number of Mediators in the \"listOfMediators\".\r\n    function getNumberOfMediators() external view returns (uint) {\r\n        return mediationMarketplace.getNumberOfMediators();\r\n    }\r\n    \r\n    // Returns back a boolean value to determine if the given \"_mediatorAddres\" is in the \"listOfMediators\".\r\n    function mediatorExists(address _mediatorAddress) external view returns (bool) {\r\n        return mediationMarketplace.mediatorExists(_mediatorAddress);\r\n    }\r\n    \r\n    function approveMediatedSalesTransaction(string memory _mediatedSalesTransactionIpfsHash) public {\r\n        mediationMarketplace.approveMediatedSalesTransaction(msg.sender, _mediatedSalesTransactionIpfsHash);\r\n    }\r\n    \r\n    function disapproveMediatedSalesTransaction(string memory _mediatedSalesTransactionIpfsHash) public {\r\n        mediationMarketplace.disapproveMediatedSalesTransaction(msg.sender, _mediatedSalesTransactionIpfsHash);\r\n    }\r\n    \r\n    function getMediatorIpfsHashDescription(address _mediatorAddress) external view returns (string memory) {\r\n        return mediationMarketplace.getMediatorIpfsHashDescription(_mediatorAddress); \r\n    }\r\n}",
  "sourcePath": "/mnt/d/Kingsland-University-Decentralized-Marketplace-Decentralized-Application-Project-2019/contracts/FranklinDecentralizedMartketplace.sol",
  "compiler": {
    "name": "solc",
    "version": "0.5.8+commit.23d335f2.Emscripten.clang"
  },
  "schemaVersion": "3.0.16",
  "updatedAt": "2019-11-18T19:42:01.054Z",
  "devdoc": {
    "methods": {}
  },
  "userdoc": {
    "methods": {}
  }
}