{
  "contractName": "FranklinDecentralizedMarketplaceMediation",
  "abi": [
    {
      "constant": true,
      "inputs": [],
      "name": "franklinDecentralizedMarketplaceContractAddress",
      "outputs": [
        {
          "name": "",
          "type": "address"
        }
      ],
      "payable": false,
      "stateMutability": "view",
      "type": "function"
    },
    {
      "constant": true,
      "inputs": [],
      "name": "PREV",
      "outputs": [
        {
          "name": "",
          "type": "bool"
        }
      ],
      "payable": false,
      "stateMutability": "view",
      "type": "function"
    },
    {
      "constant": true,
      "inputs": [],
      "name": "EMPTY_STRING",
      "outputs": [
        {
          "name": "",
          "type": "string"
        }
      ],
      "payable": false,
      "stateMutability": "view",
      "type": "function"
    },
    {
      "constant": true,
      "inputs": [],
      "name": "NEXT",
      "outputs": [
        {
          "name": "",
          "type": "bool"
        }
      ],
      "payable": false,
      "stateMutability": "view",
      "type": "function"
    },
    {
      "inputs": [],
      "payable": false,
      "stateMutability": "nonpayable",
      "type": "constructor"
    },
    {
      "constant": true,
      "inputs": [],
      "name": "getOnlyAddressThatMayAccessThisContract",
      "outputs": [
        {
          "name": "",
          "type": "address"
        }
      ],
      "payable": false,
      "stateMutability": "view",
      "type": "function"
    },
    {
      "constant": false,
      "inputs": [
        {
          "name": "_mediatorAddress",
          "type": "address"
        },
        {
          "name": "_mediatorIpfsHashDescription",
          "type": "string"
        }
      ],
      "name": "addOrUpdateMediator",
      "outputs": [],
      "payable": false,
      "stateMutability": "nonpayable",
      "type": "function"
    },
    {
      "constant": false,
      "inputs": [
        {
          "name": "_mediatorAddress",
          "type": "address"
        }
      ],
      "name": "removeMediator",
      "outputs": [],
      "payable": false,
      "stateMutability": "nonpayable",
      "type": "function"
    },
    {
      "constant": true,
      "inputs": [
        {
          "name": "_index",
          "type": "uint256"
        }
      ],
      "name": "getMediatorAddress",
      "outputs": [
        {
          "name": "",
          "type": "address"
        }
      ],
      "payable": false,
      "stateMutability": "view",
      "type": "function"
    },
    {
      "constant": true,
      "inputs": [],
      "name": "getNumberOfMediators",
      "outputs": [
        {
          "name": "",
          "type": "uint256"
        }
      ],
      "payable": false,
      "stateMutability": "view",
      "type": "function"
    },
    {
      "constant": true,
      "inputs": [
        {
          "name": "_mediatorAddress",
          "type": "address"
        }
      ],
      "name": "mediatorExists",
      "outputs": [
        {
          "name": "",
          "type": "bool"
        }
      ],
      "payable": false,
      "stateMutability": "view",
      "type": "function"
    },
    {
      "constant": false,
      "inputs": [
        {
          "name": "_approverAddress",
          "type": "address"
        },
        {
          "name": "_mediatedSalesTransactionIpfsHash",
          "type": "string"
        }
      ],
      "name": "approveMediatedSalesTransaction",
      "outputs": [],
      "payable": false,
      "stateMutability": "nonpayable",
      "type": "function"
    },
    {
      "constant": false,
      "inputs": [
        {
          "name": "_disapproverAddress",
          "type": "address"
        },
        {
          "name": "_mediatedSalesTransactionIpfsHash",
          "type": "string"
        }
      ],
      "name": "disapproveMediatedSalesTransaction",
      "outputs": [],
      "payable": false,
      "stateMutability": "nonpayable",
      "type": "function"
    },
    {
      "constant": true,
      "inputs": [
        {
          "name": "_mediatorAddress",
          "type": "address"
        }
      ],
      "name": "getMediatorIpfsHashDescription",
      "outputs": [
        {
          "name": "",
          "type": "string"
        }
      ],
      "payable": false,
      "stateMutability": "view",
      "type": "function"
    },
    {
      "constant": false,
      "inputs": [
        {
          "name": "_buyerAddress",
          "type": "address"
        },
        {
          "name": "_sellerAddress",
          "type": "address"
        },
        {
          "name": "_mediatorAddress",
          "type": "address"
        },
        {
          "name": "_mediatedSalesTransactionIpfsHash",
          "type": "string"
        },
        {
          "name": "totalAmountOfWeiNeededToPurchase",
          "type": "uint256"
        }
      ],
      "name": "purchaseItemWithMediator",
      "outputs": [],
      "payable": false,
      "stateMutability": "nonpayable",
      "type": "function"
    },
    {
      "constant": true,
      "inputs": [
        {
          "name": "_mediatorAddress",
          "type": "address"
        }
      ],
      "name": "getNumberOfMediationsMediatorInvolved",
      "outputs": [
        {
          "name": "",
          "type": "uint256"
        }
      ],
      "payable": false,
      "stateMutability": "view",
      "type": "function"
    }
  ],
  "bytecode": "0x608060405234801561001057600080fd5b5033600a60006101000a81548173ffffffffffffffffffffffffffffffffffffffff021916908373ffffffffffffffffffffffffffffffffffffffff1602179055506144c6806100616000396000f3fe608060405234801561001057600080fd5b50600436106100f55760003560e01c8063bcf383a811610097578063f0a750c011610066578063f0a750c01461062a578063f409398f14610705578063fc7d17fb14610727578063ff670a2f14610802576100f5565b8063bcf383a814610339578063c63b7eb4146103a7578063c95aaad9146104cc578063dc82f054146105a7576100f5565b80633ffcf36f116100d35780633ffcf36f146101be57806340c31a8c146102165780637e0ab220146102d35780638116e5fb146102f5576100f5565b80630ad2c9d1146100fa5780631a67405c14610118578063331d7ce914610174575b600080fd5b61010261084c565b6040518082815260200191505060405180910390f35b61015a6004803603602081101561012e57600080fd5b81019080803573ffffffffffffffffffffffffffffffffffffffff1690602001909291905050506108fc565b604051808215151515815260200191505060405180910390f35b61017c6109f8565b604051808273ffffffffffffffffffffffffffffffffffffffff1673ffffffffffffffffffffffffffffffffffffffff16815260200191505060405180910390f35b610200600480360360208110156101d457600080fd5b81019080803573ffffffffffffffffffffffffffffffffffffffff169060200190929190505050610a1e565b6040518082815260200191505060405180910390f35b6102586004803603602081101561022c57600080fd5b81019080803573ffffffffffffffffffffffffffffffffffffffff169060200190929190505050610baf565b6040518080602001828103825283818151815260200191508051906020019080838360005b8381101561029857808201518184015260208101905061027d565b50505050905090810190601f1680156102c55780820380516001836020036101000a031916815260200191505b509250505060405180910390f35b6102db610d36565b604051808215151515815260200191505060405180910390f35b6103376004803603602081101561030b57600080fd5b81019080803573ffffffffffffffffffffffffffffffffffffffff169060200190929190505050610d3b565b005b6103656004803603602081101561034f57600080fd5b8101908080359060200190929190505050610ded565b604051808273ffffffffffffffffffffffffffffffffffffffff1673ffffffffffffffffffffffffffffffffffffffff16815260200191505060405180910390f35b6104ca600480360360a08110156103bd57600080fd5b81019080803573ffffffffffffffffffffffffffffffffffffffff169060200190929190803573ffffffffffffffffffffffffffffffffffffffff169060200190929190803573ffffffffffffffffffffffffffffffffffffffff1690602001909291908035906020019064010000000081111561043a57600080fd5b82018360208201111561044c57600080fd5b8035906020019184600183028401116401000000008311171561046e57600080fd5b91908080601f016020809104026020016040519081016040528093929190818152602001838380828437600081840152601f19601f82011690508083019250505050505050919291929080359060200190929190505050611056565b005b6105a5600480360360408110156104e257600080fd5b81019080803573ffffffffffffffffffffffffffffffffffffffff1690602001909291908035906020019064010000000081111561051f57600080fd5b82018360208201111561053157600080fd5b8035906020019184600183028401116401000000008311171561055357600080fd5b91908080601f016020809104026020016040519081016040528093929190818152602001838380828437600081840152601f19601f82011690508083019250505050505050919291929050505061160e565b005b6105af611ec9565b6040518080602001828103825283818151815260200191508051906020019080838360005b838110156105ef5780820151818401526020810190506105d4565b50505050905090810190601f16801561061c5780820380516001836020036101000a031916815260200191505b509250505060405180910390f35b6107036004803603604081101561064057600080fd5b81019080803573ffffffffffffffffffffffffffffffffffffffff1690602001909291908035906020019064010000000081111561067d57600080fd5b82018360208201111561068f57600080fd5b803590602001918460018302840111640100000000831117156106b157600080fd5b91908080601f016020809104026020016040519081016040528093929190818152602001838380828437600081840152601f19601f820116905080830192505050505050509192919290505050611edc565b005b61070d6128a3565b604051808215151515815260200191505060405180910390f35b6108006004803603604081101561073d57600080fd5b81019080803573ffffffffffffffffffffffffffffffffffffffff1690602001909291908035906020019064010000000081111561077a57600080fd5b82018360208201111561078c57600080fd5b803590602001918460018302840111640100000000831117156107ae57600080fd5b91908080601f016020809104026020016040519081016040528093929190818152602001838380828437600081840152601f19601f8201169050808301925050505050505091929192905050506128a8565b005b61080a612a1e565b604051808273ffffffffffffffffffffffffffffffffffffffff1673ffffffffffffffffffffffffffffffffffffffff16815260200191505060405180910390f35b6000600a60009054906101000a900473ffffffffffffffffffffffffffffffffffffffff1673ffffffffffffffffffffffffffffffffffffffff163373ffffffffffffffffffffffffffffffffffffffff16146108f4576040517f08c379a000000000000000000000000000000000000000000000000000000000815260040180806020018281038252605d8152602001806141db605d913960600191505060405180910390fd5b600254905090565b6000600a60009054906101000a900473ffffffffffffffffffffffffffffffffffffffff1673ffffffffffffffffffffffffffffffffffffffff163373ffffffffffffffffffffffffffffffffffffffff16146109a4576040517f08c379a000000000000000000000000000000000000000000000000000000000815260040180806020018281038252605d8152602001806141db605d913960600191505060405180910390fd5b600160008373ffffffffffffffffffffffffffffffffffffffff1673ffffffffffffffffffffffffffffffffffffffff16815260200190815260200160002060009054906101000a900460ff169050919050565b600a60009054906101000a900473ffffffffffffffffffffffffffffffffffffffff1681565b6000600a60009054906101000a900473ffffffffffffffffffffffffffffffffffffffff1673ffffffffffffffffffffffffffffffffffffffff163373ffffffffffffffffffffffffffffffffffffffff1614610ac6576040517f08c379a000000000000000000000000000000000000000000000000000000000815260040180806020018281038252605d8152602001806141db605d913960600191505060405180910390fd5b600160008373ffffffffffffffffffffffffffffffffffffffff1673ffffffffffffffffffffffffffffffffffffffff16815260200190815260200160002060009054906101000a900460ff16610b68576040517f08c379a000000000000000000000000000000000000000000000000000000000815260040180806020018281038252603481526020018061443c6034913960400191505060405180910390fd5b600460008373ffffffffffffffffffffffffffffffffffffffff1673ffffffffffffffffffffffffffffffffffffffff168152602001908152602001600020549050919050565b6060600a60009054906101000a900473ffffffffffffffffffffffffffffffffffffffff1673ffffffffffffffffffffffffffffffffffffffff163373ffffffffffffffffffffffffffffffffffffffff1614610c57576040517f08c379a000000000000000000000000000000000000000000000000000000000815260040180806020018281038252605d8152602001806141db605d913960600191505060405180910390fd5b600360008373ffffffffffffffffffffffffffffffffffffffff1673ffffffffffffffffffffffffffffffffffffffff1681526020019081526020016000208054600181600116156101000203166002900480601f016020809104026020016040519081016040528092919081815260200182805460018160011615610100020316600290048015610d2a5780601f10610cff57610100808354040283529160200191610d2a565b820191906000526020600020905b815481529060010190602001808311610d0d57829003601f168201915b50505050509050919050565b600081565b600a60009054906101000a900473ffffffffffffffffffffffffffffffffffffffff1673ffffffffffffffffffffffffffffffffffffffff163373ffffffffffffffffffffffffffffffffffffffff1614610de1576040517f08c379a000000000000000000000000000000000000000000000000000000000815260040180806020018281038252605d8152602001806141db605d913960600191505060405180910390fd5b610dea81612aee565b50565b6000600a60009054906101000a900473ffffffffffffffffffffffffffffffffffffffff1673ffffffffffffffffffffffffffffffffffffffff163373ffffffffffffffffffffffffffffffffffffffff1614610e95576040517f08c379a000000000000000000000000000000000000000000000000000000000815260040180806020018281038252605d8152602001806141db605d913960600191505060405180910390fd5b6002548210610eef576040517f08c379a00000000000000000000000000000000000000000000000000000000081526004018080602001828103825260768152602001806142ad6076913960800191505060405180910390fd5b600080905060606040518060200160405280600081525090505b600115611044576000816040518082805190602001908083835b60208310610f465780518252602082019150602081019050602083039250610f23565b6001836020036101000a0380198251168184511680821785525050505050509050019150509081526020016040518091039020600060011515151581526020019081526020016000208054600181600116156101000203166002900480601f0160208091040260200160405190810160405280929190818152602001828054600181600116156101000203166002900480156110235780601f10610ff857610100808354040283529160200191611023565b820191906000526020600020905b81548152906001019060200180831161100657829003601f168201915b505050505090508382141561103757611044565b8180600101925050610f09565b61104d81613010565b92505050919050565b600a60009054906101000a900473ffffffffffffffffffffffffffffffffffffffff1673ffffffffffffffffffffffffffffffffffffffff163373ffffffffffffffffffffffffffffffffffffffff16146110fc576040517f08c379a000000000000000000000000000000000000000000000000000000000815260040180806020018281038252605d8152602001806141db605d913960600191505060405180910390fd5b6006826040518082805190602001908083835b60208310611132578051825260208201915060208101905060208303925061110f565b6001836020036101000a038019825116818451168082178552505050505050905001915050908152602001604051809103902060009054906101000a900460ff16156111c9576040517f08c379a000000000000000000000000000000000000000000000000000000000815260040180806020018281038252602a815260200180614238602a913960400191505060405180910390fd5b600160008473ffffffffffffffffffffffffffffffffffffffff1673ffffffffffffffffffffffffffffffffffffffff16815260200190815260200160002060009054906101000a900460ff1661126b576040517f08c379a000000000000000000000000000000000000000000000000000000000815260040180806020018281038252603481526020018061443c6034913960400191505060405180910390fd5b60016006836040518082805190602001908083835b602083106112a35780518252602082019150602081019050602083039250611280565b6001836020036101000a038019825116818451168082178552505050505050905001915050908152602001604051809103902060006101000a81548160ff021916908315150217905550846005836040518082805190602001908083835b602083106113245780518252602082019150602081019050602083039250611301565b6001836020036101000a038019825116818451168082178552505050505050905001915050908152602001604051809103902060006003811061136357fe5b0160006101000a81548173ffffffffffffffffffffffffffffffffffffffff021916908373ffffffffffffffffffffffffffffffffffffffff160217905550836005836040518082805190602001908083835b602083106113d957805182526020820191506020810190506020830392506113b6565b6001836020036101000a038019825116818451168082178552505050505050905001915050908152602001604051809103902060016003811061141857fe5b0160006101000a81548173ffffffffffffffffffffffffffffffffffffffff021916908373ffffffffffffffffffffffffffffffffffffffff160217905550826005836040518082805190602001908083835b6020831061148e578051825260208201915060208101905060208303925061146b565b6001836020036101000a03801982511681845116808217855250505050505090500191505090815260200160405180910390206002600381106114cd57fe5b0160006101000a81548173ffffffffffffffffffffffffffffffffffffffff021916908373ffffffffffffffffffffffffffffffffffffffff160217905550806007836040518082805190602001908083835b602083106115435780518252602082019150602081019050602083039250611520565b6001836020036101000a0380198251168184511680821785525050505050509050019150509081526020016040518091039020819055506115c4600460008573ffffffffffffffffffffffffffffffffffffffff1673ffffffffffffffffffffffffffffffffffffffff168152602001908152602001600020546001613269565b600460008573ffffffffffffffffffffffffffffffffffffffff1673ffffffffffffffffffffffffffffffffffffffff168152602001908152602001600020819055505050505050565b600a60009054906101000a900473ffffffffffffffffffffffffffffffffffffffff1673ffffffffffffffffffffffffffffffffffffffff163373ffffffffffffffffffffffffffffffffffffffff16146116b4576040517f08c379a000000000000000000000000000000000000000000000000000000000815260040180806020018281038252605d8152602001806141db605d913960600191505060405180910390fd5b6006816040518082805190602001908083835b602083106116ea57805182526020820191506020810190506020830392506116c7565b6001836020036101000a038019825116818451168082178552505050505050905001915050908152602001604051809103902060009054906101000a900460ff16611780576040517f08c379a000000000000000000000000000000000000000000000000000000000815260040180806020018281038252603a81526020018061436f603a913960400191505060405180910390fd5b60008273ffffffffffffffffffffffffffffffffffffffff166005836040518082805190602001908083835b602083106117cf57805182526020820191506020810190506020830392506117ac565b6001836020036101000a038019825116818451168082178552505050505050905001915050908152602001604051809103902060006003811061180e57fe5b0160009054906101000a900473ffffffffffffffffffffffffffffffffffffffff1673ffffffffffffffffffffffffffffffffffffffff16148061191357508273ffffffffffffffffffffffffffffffffffffffff166005836040518082805190602001908083835b6020831061189a5780518252602082019150602081019050602083039250611877565b6001836020036101000a03801982511681845116808217855250505050505090500191505090815260200160405180910390206001600381106118d957fe5b0160009054906101000a900473ffffffffffffffffffffffffffffffffffffffff1673ffffffffffffffffffffffffffffffffffffffff16145b806119df57508273ffffffffffffffffffffffffffffffffffffffff166005836040518082805190602001908083835b602083106119665780518252602082019150602081019050602083039250611943565b6001836020036101000a03801982511681845116808217855250505050505090500191505090815260200160405180910390206002600381106119a557fe5b0160009054906101000a900473ffffffffffffffffffffffffffffffffffffffff1673ffffffffffffffffffffffffffffffffffffffff16145b905080611a37576040517f08c379a00000000000000000000000000000000000000000000000000000000081526004018080602001828103825260778152602001806140af6077913960800191505060405180910390fd5b611a40826132f1565b15611a96576040517f08c379a00000000000000000000000000000000000000000000000000000000081526004018080602001828103825260938152602001806143a96093913960a00191505060405180910390fd5b600080905060008090505b6003811015611b84578473ffffffffffffffffffffffffffffffffffffffff166005856040518082805190602001908083835b60208310611af75780518252602082019150602081019050602083039250611ad4565b6001836020036101000a03801982511681845116808217855250505050505090500191505090815260200160405180910390208260038110611b3557fe5b0160009054906101000a900473ffffffffffffffffffffffffffffffffffffffff1673ffffffffffffffffffffffffffffffffffffffff161415611b77578091505b8080600101915050611aa1565b50611b8e836133ba565b15611c2f5760016009846040518082805190602001908083835b60208310611bcb5780518252602082019150602081019050602083039250611ba8565b6001836020036101000a03801982511681845116808217855250505050505090500191505090815260200160405180910390208260038110611c0957fe5b602091828204019190066101000a81548160ff0219169083151502179055505050611ec5565b60006008846040518082805190602001908083835b60208310611c675780518252602082019150602081019050602083039250611c44565b6001836020036101000a03801982511681845116808217855250505050505090500191505090815260200160405180910390208260038110611ca557fe5b602091828204019190066101000a81548160ff02191690831515021790555060016009846040518082805190602001908083835b60208310611cfc5780518252602082019150602081019050602083039250611cd9565b6001836020036101000a03801982511681845116808217855250505050505090500191505090815260200160405180910390208260038110611d3a57fe5b602091828204019190066101000a81548160ff021916908315150217905550611d62836132f1565b15611ec25760006007846040518082805190602001908083835b60208310611d9f5780518252602082019150602081019050602083039250611d7c565b6001836020036101000a03801982511681845116808217855250505050505090500191505090815260200160405180910390205490506000611e766005866040518082805190602001908083835b60208310611e105780518252602082019150602081019050602083039250611ded565b6001836020036101000a0380198251168184511680821785525050505050509050019150509081526020016040518091039020600060038110611e4f57fe5b0160009054906101000a900473ffffffffffffffffffffffffffffffffffffffff16613483565b90508073ffffffffffffffffffffffffffffffffffffffff166108fc839081150290604051600060405180830381858888f19350505050158015611ebe573d6000803e3d6000fd5b5050505b50505b5050565b6040518060200160405280600081525081565b600a60009054906101000a900473ffffffffffffffffffffffffffffffffffffffff1673ffffffffffffffffffffffffffffffffffffffff163373ffffffffffffffffffffffffffffffffffffffff1614611f82576040517f08c379a000000000000000000000000000000000000000000000000000000000815260040180806020018281038252605d8152602001806141db605d913960600191505060405180910390fd5b6006816040518082805190602001908083835b60208310611fb85780518252602082019150602081019050602083039250611f95565b6001836020036101000a038019825116818451168082178552505050505050905001915050908152602001604051809103902060009054906101000a900460ff1661204e576040517f08c379a000000000000000000000000000000000000000000000000000000000815260040180806020018281038252603a81526020018061436f603a913960400191505060405180910390fd5b60008273ffffffffffffffffffffffffffffffffffffffff166005836040518082805190602001908083835b6020831061209d578051825260208201915060208101905060208303925061207a565b6001836020036101000a03801982511681845116808217855250505050505090500191505090815260200160405180910390206000600381106120dc57fe5b0160009054906101000a900473ffffffffffffffffffffffffffffffffffffffff1673ffffffffffffffffffffffffffffffffffffffff1614806121e157508273ffffffffffffffffffffffffffffffffffffffff166005836040518082805190602001908083835b602083106121685780518252602082019150602081019050602083039250612145565b6001836020036101000a03801982511681845116808217855250505050505090500191505090815260200160405180910390206001600381106121a757fe5b0160009054906101000a900473ffffffffffffffffffffffffffffffffffffffff1673ffffffffffffffffffffffffffffffffffffffff16145b806122ad57508273ffffffffffffffffffffffffffffffffffffffff166005836040518082805190602001908083835b602083106122345780518252602082019150602081019050602083039250612211565b6001836020036101000a038019825116818451168082178552505050505050905001915050908152602001604051809103902060026003811061227357fe5b0160009054906101000a900473ffffffffffffffffffffffffffffffffffffffff1673ffffffffffffffffffffffffffffffffffffffff16145b905080612305576040517f08c379a000000000000000000000000000000000000000000000000000000000815260040180806020018281038252607481526020018061403b6074913960800191505060405180910390fd5b61230e826133ba565b15612364576040517f08c379a00000000000000000000000000000000000000000000000000000000081526004018080602001828103825260938152602001806141486093913960a00191505060405180910390fd5b600080905060008090505b6003811015612452578473ffffffffffffffffffffffffffffffffffffffff166005856040518082805190602001908083835b602083106123c557805182526020820191506020810190506020830392506123a2565b6001836020036101000a0380198251168184511680821785525050505050509050019150509081526020016040518091039020826003811061240357fe5b0160009054906101000a900473ffffffffffffffffffffffffffffffffffffffff1673ffffffffffffffffffffffffffffffffffffffff161415612445578091505b808060010191505061236f565b5061245c836132f1565b156124fd5760016008846040518082805190602001908083835b602083106124995780518252602082019150602081019050602083039250612476565b6001836020036101000a038019825116818451168082178552505050505050905001915050908152602001604051809103902082600381106124d757fe5b602091828204019190066101000a81548160ff021916908315150217905550505061289f565b60016008846040518082805190602001908083835b602083106125355780518252602082019150602081019050602083039250612512565b6001836020036101000a0380198251168184511680821785525050505050509050019150509081526020016040518091039020826003811061257357fe5b602091828204019190066101000a81548160ff02191690831515021790555060006009846040518082805190602001908083835b602083106125ca57805182526020820191506020810190506020830392506125a7565b6001836020036101000a0380198251168184511680821785525050505050509050019150509081526020016040518091039020826003811061260857fe5b602091828204019190066101000a81548160ff021916908315150217905550612630836132f1565b1561289c5760006007846040518082805190602001908083835b6020831061266d578051825260208201915060208101905060208303925061264a565b6001836020036101000a038019825116818451168082178552505050505050905001915050908152602001604051809103902054905060006126b26005606484613492565b905060006126c083836134b5565b905060006127636005886040518082805190602001908083835b602083106126fd57805182526020820191506020810190506020830392506126da565b6001836020036101000a038019825116818451168082178552505050505050905001915050908152602001604051809103902060016003811061273c57fe5b0160009054906101000a900473ffffffffffffffffffffffffffffffffffffffff16613483565b905060006128066005896040518082805190602001908083835b602083106127a0578051825260208201915060208101905060208303925061277d565b6001836020036101000a03801982511681845116808217855250505050505090500191505090815260200160405180910390206002600381106127df57fe5b0160009054906101000a900473ffffffffffffffffffffffffffffffffffffffff16613483565b90508173ffffffffffffffffffffffffffffffffffffffff166108fc849081150290604051600060405180830381858888f1935050505015801561284e573d6000803e3d6000fd5b508073ffffffffffffffffffffffffffffffffffffffff166108fc859081150290604051600060405180830381858888f19350505050158015612895573d6000803e3d6000fd5b5050505050505b50505b5050565b600181565b600a60009054906101000a900473ffffffffffffffffffffffffffffffffffffffff1673ffffffffffffffffffffffffffffffffffffffff163373ffffffffffffffffffffffffffffffffffffffff161461294e576040517f08c379a000000000000000000000000000000000000000000000000000000000815260040180806020018281038252605d8152602001806141db605d913960600191505060405180910390fd5b6129678160405180602001604052806000815250613521565b156129bd576040517f08c379a000000000000000000000000000000000000000000000000000000000815260040180806020018281038252604c815260200180614323604c913960600191505060405180910390fd5b80600360008473ffffffffffffffffffffffffffffffffffffffff1673ffffffffffffffffffffffffffffffffffffffff1681526020019081526020016000209080519060200190612a10929190613ec6565b50612a1a82613610565b5050565b6000600a60009054906101000a900473ffffffffffffffffffffffffffffffffffffffff1673ffffffffffffffffffffffffffffffffffffffff163373ffffffffffffffffffffffffffffffffffffffff1614612ac6576040517f08c379a000000000000000000000000000000000000000000000000000000000815260040180806020018281038252605d8152602001806141db605d913960600191505060405180910390fd5b600a60009054906101000a900473ffffffffffffffffffffffffffffffffffffffff16905090565b600160008273ffffffffffffffffffffffffffffffffffffffff1673ffffffffffffffffffffffffffffffffffffffff16815260200190815260200160002060009054906101000a900460ff16612b445761300d565b6060612b4f82613a7c565b90506000816040518082805190602001908083835b60208310612b875780518252602082019150602081019050602083039250612b64565b6001836020036101000a038019825116818451168082178552505050505050905001915050908152602001604051809103902060006001151515158152602001908152602001600020600080836040518082805190602001908083835b60208310612c075780518252602082019150602081019050602083039250612be4565b6001836020036101000a03801982511681845116808217855250505050505090500191505090815260200160405180910390206000801515151581526020019081526020016000206040518082805460018160011615610100020316600290048015612caa5780601f10612c88576101008083540402835291820191612caa565b820191906000526020600020905b815481529060010190602001808311612c96575b50509150509081526020016040518091039020600060011515151581526020019081526020016000209080546001816001161561010002031660029004612cf2929190613f46565b506000816040518082805190602001908083835b60208310612d295780518252602082019150602081019050602083039250612d06565b6001836020036101000a0380198251168184511680821785525050505050509050019150509081526020016040518091039020600080151515158152602001908152602001600020600080836040518082805190602001908083835b60208310612da85780518252602082019150602081019050602083039250612d85565b6001836020036101000a0380198251168184511680821785525050505050509050019150509081526020016040518091039020600060011515151581526020019081526020016000206040518082805460018160011615610100020316600290048015612e4c5780601f10612e2a576101008083540402835291820191612e4c565b820191906000526020600020905b815481529060010190602001808311612e38575b505091505090815260200160405180910390206000801515151581526020019081526020016000209080546001816001161561010002031660029004612e93929190613f46565b506000816040518082805190602001908083835b60208310612eca5780518252602082019150602081019050602083039250612ea7565b6001836020036101000a03801982511681845116808217855250505050505090500191505090815260200160405180910390206000801515151581526020019081526020016000206000612f1e9190613fcd565b6000816040518082805190602001908083835b60208310612f545780518252602082019150602081019050602083039250612f31565b6001836020036101000a0380198251168184511680821785525050505050509050019150509081526020016040518091039020600060011515151581526020019081526020016000206000612fa99190613fcd565b612fb660025460016134b5565b600281905550600160008373ffffffffffffffffffffffffffffffffffffffff1673ffffffffffffffffffffffffffffffffffffffff16815260200190815260200160002060006101000a81549060ff0219169055505b50565b6000606082905060008090506000806000600290505b602a81101561325c576101008402935084818151811061304257fe5b602001015160f81c60f81b60f81c60ff16925084600182018151811061306457fe5b602001015160f81c60f81b60f81c60ff16915060618373ffffffffffffffffffffffffffffffffffffffff16101580156130b5575060668373ffffffffffffffffffffffffffffffffffffffff1611155b156130c55760578303925061315f565b60418373ffffffffffffffffffffffffffffffffffffffff1610158015613103575060468373ffffffffffffffffffffffffffffffffffffffff1611155b156131135760378303925061315e565b60308373ffffffffffffffffffffffffffffffffffffffff1610158015613151575060398373ffffffffffffffffffffffffffffffffffffffff1611155b1561315d576030830392505b5b5b60618273ffffffffffffffffffffffffffffffffffffffff161015801561319d575060668273ffffffffffffffffffffffffffffffffffffffff1611155b156131ad57605782039150613247565b60418273ffffffffffffffffffffffffffffffffffffffff16101580156131eb575060468273ffffffffffffffffffffffffffffffffffffffff1611155b156131fb57603782039150613246565b60308273ffffffffffffffffffffffffffffffffffffffff1610158015613239575060398273ffffffffffffffffffffffffffffffffffffffff1611155b15613245576030820391505b5b5b81601084020184019350600281019050613026565b5082945050505050919050565b6000808284019050838110156132e7576040517f08c379a00000000000000000000000000000000000000000000000000000000081526004018080602001828103825260208152602001807f5f736166654d617468416464203a204164646974696f6e204f766572666c6f7781525060200191505060405180910390fd5b8091505092915050565b6000806000905060008090505b60038110156133ac576008846040518082805190602001908083835b6020831061333d578051825260208201915060208101905060208303925061331a565b6001836020036101000a0380198251168184511680821785525050505050509050019150509081526020016040518091039020816003811061337b57fe5b602091828204019190069054906101000a900460ff161561339f5781806001019250505b80806001019150506132fe565b506002811015915050919050565b6000806000905060008090505b6003811015613475576009846040518082805190602001908083835b6020831061340657805182526020820191506020810190506020830392506133e3565b6001836020036101000a0380198251168184511680821785525050505050509050019150509081526020016040518091039020816003811061344457fe5b602091828204019190069054906101000a900460ff16156134685781806001019250505b80806001019150506133c7565b506002811015915050919050565b60008082905080915050919050565b60008061349f8584613cfd565b90506134ab8185613def565b9150509392505050565b600082821115613510576040517f08c379a00000000000000000000000000000000000000000000000000000000081526004018080602001828103825260288152602001806142856028913960400191505060405180910390fd5b600082840390508091505092915050565b6000816040516020018082805190602001908083835b6020831061355a5780518252602082019150602081019050602083039250613537565b6001836020036101000a03801982511681845116808217855250505050505090500191505060405160208183030381529060405280519060200120836040516020018082805190602001908083835b602083106135cc57805182526020820191506020810190506020830392506135a9565b6001836020036101000a0380198251168184511680821785525050505050509050019150506040516020818303038152906040528051906020012014905092915050565b600160008273ffffffffffffffffffffffffffffffffffffffff1673ffffffffffffffffffffffffffffffffffffffff16815260200190815260200160002060009054906101000a900460ff161561366757613a79565b606061367282613a7c565b9050604051806020016040528060008152506000826040518082805190602001908083835b602083106136ba5780518252602082019150602081019050602083039250613697565b6001836020036101000a03801982511681845116808217855250505050505090500191505090815260200160405180910390206000801515151581526020019081526020016000209080519060200190613715929190613ec6565b506000604051806020016040528060008152506040518082805190602001908083835b6020831061375b5780518252602082019150602081019050602083039250613738565b6001836020036101000a0380198251168184511680821785525050505050509050019150509081526020016040518091039020600060011515151581526020019081526020016000206000826040518082805190602001908083835b602083106137da57805182526020820191506020810190506020830392506137b7565b6001836020036101000a0380198251168184511680821785525050505050509050019150509081526020016040518091039020600060011515151581526020019081526020016000209080546001816001161561010002031660029004613842929190613f46565b5080600080604051806020016040528060008152506040518082805190602001908083835b6020831061388a5780518252602082019150602081019050602083039250613867565b6001836020036101000a038019825116818451168082178552505050505050905001915050908152602001604051809103902060006001151515158152602001908152602001600020604051808280546001816001161561010002031660029004801561392e5780601f1061390c57610100808354040283529182019161392e565b820191906000526020600020905b81548152906001019060200180831161391a575b505091505090815260200160405180910390206000801515151581526020019081526020016000209080519060200190613969929190613ec6565b50806000604051806020016040528060008152506040518082805190602001908083835b602083106139b0578051825260208201915060208101905060208303925061398d565b6001836020036101000a0380198251168184511680821785525050505050509050019150509081526020016040518091039020600060011515151581526020019081526020016000209080519060200190613a0c929190613ec6565b50613a1a6002546001613269565b60028190555060018060008473ffffffffffffffffffffffffffffffffffffffff1673ffffffffffffffffffffffffffffffffffffffff16815260200190815260200160002060006101000a81548160ff021916908315150217905550505b50565b606060008273ffffffffffffffffffffffffffffffffffffffff1660001b905060606040518060400160405280601081526020017f303132333435363738396162636465660000000000000000000000000000000081525090506060602a6040519080825280601f01601f191660200182016040528015613b0c5781602001600182028038833980820191505090505b5090507f300000000000000000000000000000000000000000000000000000000000000081600081518110613b3d57fe5b60200101907effffffffffffffffffffffffffffffffffffffffffffffffffffffffffffff1916908160001a9053507f780000000000000000000000000000000000000000000000000000000000000081600181518110613b9a57fe5b60200101907effffffffffffffffffffffffffffffffffffffffffffffffffffffffffffff1916908160001a90535060008090505b6014811015613cf15782600485600c840160208110613bea57fe5b1a60f81b7effffffffffffffffffffffffffffffffffffffffffffffffffffffffffffff1916901c60f81c60ff1681518110613c2257fe5b602001015160f81c60f81b826002830260020181518110613c3f57fe5b60200101907effffffffffffffffffffffffffffffffffffffffffffffffffffffffffffff1916908160001a90535082600f60f81b85600c840160208110613c8357fe5b1a60f81b1660f81c60ff1681518110613c9857fe5b602001015160f81c60f81b826002830260030181518110613cb557fe5b60200101907effffffffffffffffffffffffffffffffffffffffffffffffffffffffffffff1916908160001a9053508080600101915050613bcf565b50809350505050919050565b600080831480613d0d5750600082145b15613d1b5760009050613de9565b6000828402905082848281613d2c57fe5b0414613d83576040517f08c379a000000000000000000000000000000000000000000000000000000000815260040180806020018281038252602b815260200180614470602b913960400191505060405180910390fd5b83838281613d8d57fe5b0414613de4576040517f08c379a000000000000000000000000000000000000000000000000000000000815260040180806020018281038252602b815260200180614470602b913960400191505060405180910390fd5b809150505b92915050565b6000808211613e49576040517f08c379a00000000000000000000000000000000000000000000000000000000081526004018080602001828103825260228152602001806141266022913960400191505060405180910390fd5b6000828481613e5457fe5b049050828481613e6057fe5b06818402018414613ebc576040517f08c379a00000000000000000000000000000000000000000000000000000000081526004018080602001828103825260238152602001806142626023913960400191505060405180910390fd5b8091505092915050565b828054600181600116156101000203166002900490600052602060002090601f016020900481019282601f10613f0757805160ff1916838001178555613f35565b82800160010185558215613f35579182015b82811115613f34578251825591602001919060010190613f19565b5b509050613f429190614015565b5090565b828054600181600116156101000203166002900490600052602060002090601f016020900481019282601f10613f7f5780548555613fbc565b82800160010185558215613fbc57600052602060002091601f016020900482015b82811115613fbb578254825591600101919060010190613fa0565b5b509050613fc99190614015565b5090565b50805460018160011615610100020316600290046000825580601f10613ff35750614012565b601f0160209004906000526020600020908101906140119190614015565b5b50565b61403791905b8082111561403357600081600090555060010161401b565b5090565b9056fe4e6f7420616c6c6f77656420746f20417070726f7665204d656469617465642053616c6573205472616e73616374696f6e2c2062656361757365204d6573736167652053656e646572206973206e656974686572207468652042757965722c2053656c6c65722c206f72204d65646961746f72214e6f7420616c6c6f77656420746f20446973617070726f7665204d656469617465642053616c6573205472616e73616374696f6e2c2062656361757365204d6573736167652053656e646572206973206e656974686572207468652042757965722c2053656c6c65722c206f72204d65646961746f72215f736166654d617468446976696465203a2044656e6f6d696e61746f7220697320304d656469617465642053616c6573205472616e73616374696f6e2068617320616c7265616479206265656e20446973617070726f766564206279206174206c6561737420322d6f75742d6f662d33206f66207468652042757965722c2053656c6c65722c20616e642f6f72204d65646961746f72212043616e6e6f7420417070726f7665206174207468697320706f696e74214f6e6c792074686520457468657265756d20416464726573732074686174206465706c6f796564205448495320436f6e7472616374206d6179206578656375746520616e79206f662069742773207075626c6963206d6574686f6473214d656469617465642053616c6573205472616e73616374696f6e20616c726561647920657869737473215f736166654d617468446976696465203a204469766973696f6e204f766572666c6f775f736166654d6174685375627472616374203a205375627472616374696f6e204f766572666c6f77496e6465782076616c756520676976656e2069732067726561746572207468616e206f7220657175616c20746f20746865204e756d626572206f66204d65646961746f7273212049742073686f756c64206265206c657373207468616e20746865204e756d626572206f66204d65646961746f72732143616e6e6f74206861766520616e20656d70747920537472696e6720666f722074686520495046532048617368204b6579204465736372697074696f6e206f662061204d65646961746f7221476976656e204d656469617465642053616c6573205472616e73616374696f6e2049504653204861736820646f6573206e6f74206578697374214d656469617465642053616c6573205472616e73616374696f6e2068617320616c7265616479206265656e20417070726f766564206279206174206c6561737420322d6f75742d6f662d33206f66207468652042757965722c2053656c6c65722c20616e642f6f72204d65646961746f72212043616e6e6f7420446973617070726f7665206174207468697320706f696e7421476976656e204d65646961746f72204164647265737320646f6573206e6f742065786973742061732061204d65646961746f72215f736166654d6174684d756c7469706c79203a204d756c7469706c69636174696f6e204f766572666c6f77a165627a7a72305820b06a71941847ed0460360067acf640666ea3e59b839105fafcccbde5de04a34c0029",
  "source": "pragma solidity >=0.4.22 <0.6.0;\r\n\r\nimport \"./GeneralUtilities.sol\";\r\n\r\ncontract FranklinDecentralizedMarketplaceMediation {\r\n    using GeneralUtilities for *;\r\n    \r\n    // Constants used for the Double-Linked list and other uses.\r\n    bool constant public PREV = false;\r\n    bool constant public NEXT = true;\r\n    string constant public EMPTY_STRING = \"\";\r\n    \r\n    // This Smart Contract handles Sales Transactions that involve a Mediator. Thus, these would be referred to as Mediated Sales Transactions that involve a Buyer, Seller, and \r\n    // Mediator. Each Buyer, Seller, and Mediator will have a different Ethereum Address.\r\n    \r\n    // This Contract will be used to store the Escrow ETH/WEI (i.e., \"totalAmountOfWeiNeededToPurchase\") used to pay for Items involved in ALL Mediated Sales Transactions. \r\n    // The Mediated Sales Transaction works as follows:\r\n    // 1) If 2-out-of-3 of the Buyer, Seller, and/or Mediator Approves this Mediated Sales Transaction, then 95% of the \"totalAmountOfWeiNeededToPurchase\" will be sent to the Seller Address\r\n    //    and 5% of the \"totalAmountOfWeiNeededToPurchase\" will be sent to the Mediator Address. \r\n    // 2) 2-out-of-3 of the Buyer, Seller, and/or Mediator Disapproves this Mediated Sales Transaction, then the \"totalAmountOfWeiNeededToPurchase\" will be sent back to the Buyer Address.\r\n    // 3) If neither (1) or (2) above happens, then the Mediated Sales Transaction will be held in a State of Limbo and the \"totalAmountOfWeiNeededToPurchase\" will be kept inside \r\n    //    of this Contract.\r\n    \r\n    // Each Mediator in this Decentralized Marketplace is identified by it's Ethereum Address, but should also have information about himself/herself that is accessed  \r\n    // in the IPFS Stoarge Systemn via it's IPFS (InterPlanetary File System) Hash string key.\r\n    // Each Mediator in this Decentralized Marketplace is also identified by it's IPFS (InterPlanetary File System) Hash. Information about each Mediator is in a JSON-formatted\r\n    // string stored in the IPFS (InterPlanetary File System) that may be accessed via the Infura IPFS Gateway URL. So, for example, let's say that the Mediator has an\r\n    // IPFS Hash of QmZ4DZ1spT2eQhUC5mfQGugM4AhLjq8ZvuZvHdQvnvKnHH. Then, the information about this Mediator may be seen in one of the following URLs:\r\n    // 1) https://ipfs.infura.io/ipfs/QmZ4DZ1spT2eQhUC5mfQGugM4AhLjq8ZvuZvHdQvnvKnHH\r\n    // 2) https://gateway.ipfs.io/ipfs/QmZ4DZ1spT2eQhUC5mfQGugM4AhLjq8ZvuZvHdQvnvKnH\r\n    \r\n    // Each Mediated Sales Transaction in this Decentralized Marketplace is identified by it's IPFS (InterPlanetary File System) Hash. Information about each Mediated Sales Transaction \r\n    // is in a JSON-formatted string stored in the IPFS (InterPlanetary File System) that may be accessed via the Infura IPFS Gateway URL. So, for example, let's say that the \r\n    // Mediated Sales Transaction has an IPFS Hash of QmZ4DZ1spT2eQhUC5mfQGugM4AhLjq8ZvuZvHdQvnvKnHH. Then, the information about this Mediated Sales Transaction may be seen in one of \r\n    // the following URLs:\r\n    // 1) https://ipfs.infura.io/ipfs/QmZ4DZ1spT2eQhUC5mfQGugM4AhLjq8ZvuZvHdQvnvKnHH\r\n    // 2) https://gateway.ipfs.io/ipfs/QmZ4DZ1spT2eQhUC5mfQGugM4AhLjq8ZvuZvHdQvnvKnH\r\n    \r\n    // A double-linked list that lists all the Mediators by their Ethereum Address in string format.\r\n    //\r\n    // For an explanation as to how the \"mapping(string => mapping(bool => string))\" double linked-list works and the code pertaining to it from which was borrowed, please go to the\r\n    // https://ethereum.stackexchange.com/questions/15337/can-we-get-all-elements-stored-in-a-mapping-in-the-contract web page.\r\n    //\r\n    // Each \"string\" below refers to the Ethereum Address of the Mediator in string format.\r\n    mapping(string => mapping(bool => string)) private listOfMediators;\r\n    \r\n    // Map that keeps track of whether a Mediator exists. The \"address\" key is the Ethereum Address of the Mediator.\r\n    mapping(address => bool) private mediatorExistsMap;\r\n    \r\n    // Keeps a count on the Number of Mediators that mediate sales on this platform.\r\n    uint private numberOfMediators;\r\n    \r\n    // This Mapping contains the Description Information about the Mediators. The Mediator is responsible for adding this information.\r\n    //\r\n    // Mapping is as follows:\r\n    // 1) Key: Ethereum Address of the Mediator\r\n    // 2) Value: IPFS Hash string of the information pertaining to the Mediator. This information is stored in the IPFS Storage Network.\r\n    //           This information should be a JSON-formatted string.\r\n    mapping(address => string) private descriptionInfoAboutMediators;\r\n    \r\n    // This Mapping contains the Number of Mediations that a Mediator has been involved.\r\n    //\r\n    // Mapping is as follows:\r\n    // 1) Key: Ethereum Address of the Mediator\r\n    // 2) Value: Number of Mediations that a Mediators has been involved\r\n    mapping(address => uint) private numberOfMediationsMediatorInvolved;\r\n\r\n    // Constants used for the Mediated Sales Transactions mappings that have a \"bool[3]\" as a value in it's \"mapping\".\r\n    uint constant private BUYER_INDEX = 0;\r\n    uint constant private SELLER_INDEX = 1;\r\n    uint constant private MEDIATOR_INDEX = 2;\r\n    \r\n    // Maps the Mediated Sales Transaction IPFS Hash to the three Ethereum Addresses involved in the Sale of Item(s) involving a Mediator. The Mediated Sales Transaction IPFS Hash\r\n    // refers to a JSON-formatted string that describes this Transaction in the IPFS Storage System.\r\n    //\r\n    // Mapping is as follows:\r\n    // 1) Key: IPFS Hash string of the Mediated Sales Transaction\r\n    // 2) Values:\r\n    //    A) address[0] : Ethereum Address of the Buyer\r\n    //    B) address[1] : Ethereum Address of the Seller\r\n    //    C) address[2] : Ethereum Address of the Mediator\r\n    mapping(string => address[3]) private mediatedSalesTransactionAddresses;\r\n    \r\n    // Map that shows whether a Mediated Sales Transaction exists. The \"string\" key is the Mediated Sales Transaction IPFS Hash.\r\n    //\r\n    // Mapping is as follows:\r\n    // 1) Key: IPFS Hash string of the Mediated Sales Transaction\r\n    // 2) Value:\r\n    //    A) Boolean value of \"true\" indicates that the Mediated Sales Transaction exists\r\n    //    B) Boolean value of \"false\" indicates that the Mediated Sales Transaction exists\r\n    mapping (string => bool) private mediatedSalesTransactionExists;\r\n    \r\n    // Map that maps the Mediated Sales Transaction to the Sales Amount in Wei. The \"string\" key is the Mediated Sales Transaction IPFS Hash.\r\n    //\r\n    // Mapping is as follows:\r\n    // 1) Key: IPFS Hash string of the Mediated Sales Transaction\r\n    // 2) Value: Amount in Wei that the Buyer chose to pay for the Item(s)\r\n    mapping (string => uint) private mediatedSalesTransactionAmount;\r\n    \r\n    // Map that keeps track of whether a Mediated Sales Transaction has been Approved by the Buyer, Seller, and/or Mediator. \r\n    // The \"string\" key is the Mediated Sales Transaction IPFS Hash.\r\n    //\r\n    // Mapping is as follows:\r\n    // 1) Key: IPFS Hash string of the Mediated Sales Transaction\r\n    // 2) Values:\r\n    //    A) address[0] : Boolean flag indicating if Buyer Approves\r\n    //    B) address[1] : Boolean flag indicating if Seller Approves\r\n    //    C) address[2] : Boolean flag indicating if Mediator Approves\r\n    mapping (string => bool[3]) private mediatedSalesTransactionApprovedByParties;\r\n    \r\n    // Map that keeps track of whether a Mediated Sales Transaction has been Disapproved by the Buyer, Seller, and/or Mediator. \r\n    // The \"string\" key is the Mediated Sales Transaction IPFS Hash.\r\n    //\r\n    // Mapping is as follows:\r\n    // 1) Key: IPFS Hash string of the Mediated Sales Transaction\r\n    // 2) Values:\r\n    //    A) address[0] : Boolean flag indicating if Buyer Disapproves\r\n    //    B) address[1] : Boolean flag indicating if Seller Disapproves\r\n    //    C) address[2] : Boolean flag indicating if Mediator Disapproves\r\n    mapping (string => bool[3]) private mediatedSalesTransactionDisapprovedByParties;\r\n    \r\n    // Below is the Contract Address of the FranklinDecentralizedMarketplace Contract that deployed this Contract - the \r\n    // FranklinDecentralizedMarketplaceMediation Contract - via the constructor of the FranklinDecentralizedMarketplace Contract.\r\n    // The Contract code had to be split in two, because the Etherum Virtual Machine (EVM) would not allow deployment of a Contract\r\n    // that has more than 24576 bytes. So, the decision was made to SPLIT the code into the FranklinDecentralizedMarketplace \r\n    // and FranklinDecentralizedMarketplaceMediation Contracts where the FranklinDecentralizedMarketplace would deploy the\r\n    // FranklinDecentralizedMarketplaceMediation Contract via it's Constructor. \r\n    //\r\n    // The code of the FranklinDecentralizedMarketplaceMediation Contract is written so that ONLY the \"franklinDecentralizedMarketplaceContractAddress\"\r\n    // that spawned and deployed this FranklinDecentralizedMarketplaceMediation Contract may execute athe public functions of this \r\n    // FranklinDecentralizedMarketplaceMediation Contract with the exception of the \"getOnlyAddressThatMayAccessThisContract method, which may be accessed \r\n    // by any Ethereum Address.\r\n    address public franklinDecentralizedMarketplaceContractAddress;\r\n    \r\n    modifier onlyContractOwnerMayExecute {\r\n        require(msg.sender == franklinDecentralizedMarketplaceContractAddress, \"Only the Ethereum Address that deployed THIS Contract may execute any of it's public methods!\");\r\n        _;\r\n    }\r\n    \r\n    // We're getting the Address of the FranklinDecentralizedMarketplace Contract that deployed THIS FranklinDecentralizedMarketplaceMediation via the\r\n    // constructor of this FranklinDecentralizedMarketplaceMediation Contract.\r\n    constructor() public {\r\n        franklinDecentralizedMarketplaceContractAddress = msg.sender;\r\n    }\r\n    \r\n    // Returns back the Contract Address of the FranklinDecentralizedMarketplace Contract that deployed THIS FranklinDecentralizedMarketplaceMediation \r\n    // Contract via the constructor of the FranklinDecentralizedMarketplace Contract. Only the returned Address may execute ANY of the main public methods of THIS\r\n    // FranklinDecentralizedMarketplace Contract. This is the ONLY public method in this Contract that may be accessed by any Ethereum Address.\r\n    function getOnlyAddressThatMayAccessThisContract() onlyContractOwnerMayExecute external view returns (address) {\r\n        return franklinDecentralizedMarketplaceContractAddress;\r\n    }\r\n    \r\n    // Private Utility function used to add a given Ethereum Address as a Mediator in the \"listOfMediators\". The given Ethereum Address - \"_mediatorAddressString\" - used \r\n    // as input to this method is the string format version of the Ethereum Address obtained from the \"_addressToString\" method.\r\n    //\r\n    // Assumption: Since this is an internal private method, will assume that input \"_mediatorAddressString\" argument is valid.\r\n    function _addMediator(address _mediatorAddress) private {\r\n        if (mediatorExistsMap[_mediatorAddress]) {\r\n            return;\r\n        }\r\n        \r\n        string memory _mediatorAddressString = GeneralUtilities._addressToString(_mediatorAddress);\r\n        \r\n        // Link the new node \r\n        listOfMediators[_mediatorAddressString][PREV] = EMPTY_STRING;\r\n        listOfMediators[_mediatorAddressString][NEXT] = listOfMediators[EMPTY_STRING][NEXT];\r\n    \r\n        // Insert the new node\r\n        listOfMediators[listOfMediators[EMPTY_STRING][NEXT]][PREV] = _mediatorAddressString;\r\n        listOfMediators[EMPTY_STRING][NEXT] = _mediatorAddressString;\r\n        \r\n        numberOfMediators = GeneralUtilities._safeMathAdd(numberOfMediators, 1);\r\n        mediatorExistsMap[_mediatorAddress] = true;\r\n    }\r\n\r\n    // Adds or Updates a Mediator with the given \"_mediatorIpfsHashDescription\", which refers to a JSON-formatted string stored in the IPFS Storage System.\r\n    // The \"_mediatorAddress\" will be the Ethereum Address of the entity wishing to become a Mediator in this Smart Contract. This method allows anyone with an Ethereum \r\n    // Address to add himself/herself as a Mediator.\r\n    function addOrUpdateMediator(address _mediatorAddress, string memory _mediatorIpfsHashDescription) onlyContractOwnerMayExecute public {\r\n        require(!GeneralUtilities._compareStringsEqual(_mediatorIpfsHashDescription, EMPTY_STRING), \"Cannot have an empty String for the IPFS Hash Key Description of a Mediator!\");\r\n        descriptionInfoAboutMediators[_mediatorAddress] = _mediatorIpfsHashDescription;\r\n        \r\n        _addMediator(_mediatorAddress);\r\n    }\r\n    \r\n    // Private Utility function used to remove a given Ethereum Address as a Mediator in the \"listOfMediators\". The given Ethereum Address - \"_mediatorAddressString\" - used \r\n    // as input to this method is the string format version of the Ethereum Address obtained from the \"_addressToString\" method.\r\n    //\r\n    // Assumption: Since this is an internal private method, will assume that input \"_mediatorAddressString\" argument is valid.    \r\n    function _removeMediator(address _mediatorAddress) private {\r\n        if (!mediatorExistsMap[_mediatorAddress]) {\r\n            return;\r\n        }\r\n        \r\n        string memory _mediatorAddressString = GeneralUtilities._addressToString(_mediatorAddress);\r\n        \r\n        // Stitch the neighbours together\r\n        listOfMediators[ listOfMediators[_mediatorAddressString][PREV] ][NEXT] = listOfMediators[_mediatorAddressString][NEXT];\r\n        listOfMediators[ listOfMediators[_mediatorAddressString][NEXT] ][PREV] = listOfMediators[_mediatorAddressString][PREV];\r\n    \r\n        // Delete state storage\r\n        delete listOfMediators[_mediatorAddressString][PREV];\r\n        delete listOfMediators[_mediatorAddressString][NEXT];\r\n        \r\n        numberOfMediators = GeneralUtilities._safeMathSubtract(numberOfMediators, 1);\r\n        delete mediatorExistsMap[_mediatorAddress];\r\n        \r\n        // We do not wish to remove the Mediator Description nor any other Mediator information, because the mediator may be involved Mediating some sales, and we wish \r\n        // to keep such information around.\r\n    }\r\n    \r\n    // Removes a Mediator from this Smart Contract. The \"_mediatorAddress\" will be the Ethereum Address of the entity wishing to remove himself/herself as a Mediator in this Smart Contract. \r\n    // If there are any pending Sales that the Mediator is involved, the Sales and other information will still be kept.\r\n    // This method allows anyone with an Ethereum  Address to remove himself/herself as a Mediator in this Smart Contract. \r\n    function removeMediator(address _mediatorAddress) onlyContractOwnerMayExecute external {\r\n        _removeMediator(_mediatorAddress);\r\n    }\r\n    \r\n    // Gets the Mediator Ethereum Address at the given \"_index\" from the \"listOfMediators\" double-linked list.\r\n    //\r\n    // Input Parameter:\r\n    // _index : Index number into the \"listOfMediators\" double-linked list.\r\n    //              Index starts at 0.\r\n    //\r\n    // Returns:\r\n    // 1) If the \"_index\" is less than the \"numberOfMediators\", then the Etheruem Address of the Mediator at the given \"_index\" into the \"listOfMediators\" double-linked list\r\n    //    is returned.\r\n    // 2) If the \"_index\" is greater than or equal to the \"numberOfMediators\", then an Exception is thrown via the \"require\" below.\r\n    function getMediatorAddress(uint _index) onlyContractOwnerMayExecute external view returns (address) {\r\n        require(_index < numberOfMediators, \"Index value given is greater than or equal to the Number of Mediators! It should be less than the Number of Mediators!\");\r\n        \r\n        // The \"key\" below is the Ethereum Address in string format that is in the \"listOfMediators\" double-linked list.\r\n        \r\n        uint keyCount = 0;\r\n        string memory key = EMPTY_STRING;\r\n        while (true) {\r\n            key = listOfMediators[key][NEXT];\r\n            if (keyCount == _index) {\r\n                break;\r\n            }\r\n            \r\n            keyCount++;\r\n        }\r\n        \r\n        return GeneralUtilities._parseEthereumAddressStringToAddress(key);    \r\n    }\r\n    \r\n    // Gets the Number of Mediators in the \"listOfMediators\".\r\n    function getNumberOfMediators() onlyContractOwnerMayExecute external view returns (uint) {\r\n        return numberOfMediators;\r\n    }\r\n    \r\n    // Returns back a boolean value to determine if the given \"_mediatorAddres\" is in the \"listOfMediators\".\r\n    function mediatorExists(address _mediatorAddress) onlyContractOwnerMayExecute external view returns (bool) {\r\n        return mediatorExistsMap[_mediatorAddress];\r\n    }\r\n    \r\n    // Determines if the given \"_mediatedSalesTransactionIpfsHash\" Mediated Sales Transaction is in the Approved State. It is in the Approved State \r\n    // if 2-out-of-3 Buyer, Seller, and/or Mediator Approve it.\r\n    function _mediatedSalesTransactionHasBeenApproved(string memory _mediatedSalesTransactionIpfsHash) private view returns (bool) {\r\n        uint numberOfApprovals = 0;\r\n        for (uint i = 0; i < 3; i++) {\r\n            if (mediatedSalesTransactionApprovedByParties[_mediatedSalesTransactionIpfsHash][i]) {\r\n                numberOfApprovals++;\r\n            }\r\n        }\r\n        \r\n        return (numberOfApprovals >= 2);\r\n    }\r\n    \r\n    // Determines if the given \"_mediatedSalesTransactionIpfsHash\" Mediated Sales Transaction is in the Disapprived State. It is in the Disapproved State \r\n    // if 2-out-of-3 Buyer, Seller, and/or Mediator Disapprove it.    \r\n    function _mediatedSalesTransactionHasBeenDisapproved(string memory _mediatedSalesTransactionIpfsHash) private view returns (bool) {\r\n        uint numberOfDisapprovals = 0;\r\n        for (uint i = 0; i < 3; i++) {\r\n            if (mediatedSalesTransactionDisapprovedByParties[_mediatedSalesTransactionIpfsHash][i]) {\r\n                numberOfDisapprovals++;\r\n            }\r\n        }\r\n        \r\n        return (numberOfDisapprovals >= 2);\r\n    }    \r\n    \r\n    // This method allows one of the parties involved in a Mediated Sales Transaction to Approve the given \"_mediatedSalesTransactionIpfsHash\" Mediated \r\n    // Sales Transaction. This method will and should be called ONLY by the \"franklinDecentralizedMarketplaceContractAddress.approveMediatedSalesTransaction\" \r\n    // method.\r\n    //\r\n    // Input Parameters:\r\n    // 1) _approverAddress : The Ethereum Address of one of the parties\r\n    // 2) _mediatedSalesTransactionIpfsHash : IPFS Hash string value that uniquely identifies the Mediated Sales Transaction. This IPFS Hash string value refers to   \r\n    //    what should be JSON-formatted string describing the Sale stored in the IPFS Storage System.\r\n    function approveMediatedSalesTransaction(address _approverAddress, string memory _mediatedSalesTransactionIpfsHash) onlyContractOwnerMayExecute public {\r\n        require(mediatedSalesTransactionExists[_mediatedSalesTransactionIpfsHash], \"Given Mediated Sales Transaction IPFS Hash does not exist!\");\r\n        \r\n        bool allowedToApprove = (mediatedSalesTransactionAddresses[_mediatedSalesTransactionIpfsHash][BUYER_INDEX] == _approverAddress) ||\r\n                                (mediatedSalesTransactionAddresses[_mediatedSalesTransactionIpfsHash][SELLER_INDEX] == _approverAddress) ||\r\n                                (mediatedSalesTransactionAddresses[_mediatedSalesTransactionIpfsHash][MEDIATOR_INDEX] == _approverAddress);\r\n        require(allowedToApprove, \"Not allowed to Approve Mediated Sales Transaction, because Message Sender is neither the Buyer, Seller, or Mediator!\");\r\n        \r\n        // If 2-out-of-3 of the Buyer, Seller, and/or Mediator have Disapproved the Mediated Sales Transaction, then it's status cannot be changed, because the Buyer has already been refunded \r\n        // the amount he/she paid.\r\n        require(!_mediatedSalesTransactionHasBeenDisapproved(_mediatedSalesTransactionIpfsHash), \r\n            \"Mediated Sales Transaction has already been Disapproved by at least 2-out-of-3 of the Buyer, Seller, and/or Mediator! Cannot Approve at this point!\");\r\n        \r\n        uint indexBuyerSellerOrMediator = 0;\r\n        for (uint i = 0; i < 3; i++) {\r\n            if (mediatedSalesTransactionAddresses[_mediatedSalesTransactionIpfsHash][i] == _approverAddress) {\r\n                indexBuyerSellerOrMediator = i;\r\n            }\r\n        }\r\n        \r\n        // If the Mediated Sales Transaction has already been Approved by 2-out-of-3 Buyer, Seller, and/or Mediator, then just note the approval from the \"msg.sender\" and that's it, because at \r\n        // this point the Seller Address has already been sent 95% of the Sales Amount, and the Mediator has already been sent 5% of the Sales Amount.\r\n        if (_mediatedSalesTransactionHasBeenApproved(_mediatedSalesTransactionIpfsHash)) {\r\n            mediatedSalesTransactionApprovedByParties[_mediatedSalesTransactionIpfsHash][indexBuyerSellerOrMediator] = true;\r\n            return;\r\n        }\r\n        \r\n        // Note the approval from the \"_approverAddress\". If one approves, than one cannot disapprove. Perhaps their's been a change of mind before FINAL Approval or Disapproval.\r\n        mediatedSalesTransactionApprovedByParties[_mediatedSalesTransactionIpfsHash][indexBuyerSellerOrMediator] = true;\r\n        mediatedSalesTransactionDisapprovedByParties[_mediatedSalesTransactionIpfsHash][indexBuyerSellerOrMediator] = false;\r\n        \r\n        // If after the \"msg.sender\" Approves the Mediated Sales Transaction, this reaches a State where 2-out-of-3 Buyer, Seller, and/or Mediator have Approved, then send 95% of the Sales Amount \r\n        // to the Seller Address and 5% of the Sales Amount to the Mediator Address.\r\n        if (_mediatedSalesTransactionHasBeenApproved(_mediatedSalesTransactionIpfsHash)) {\r\n            uint totalSalesAmount = mediatedSalesTransactionAmount[_mediatedSalesTransactionIpfsHash];\r\n            uint amountOfWeiToSendMediator = GeneralUtilities._getPercentageOfTotalAmount(uint256(5), uint256(100), uint256(totalSalesAmount));\r\n            uint amountOfWeiToSendSeller = GeneralUtilities._safeMathSubtract(totalSalesAmount, amountOfWeiToSendMediator);\r\n            \r\n            address payable sellerAddress = GeneralUtilities._convertAddressToAddressPayable(mediatedSalesTransactionAddresses[_mediatedSalesTransactionIpfsHash][SELLER_INDEX]);\r\n            address payable mediatorAddress = GeneralUtilities._convertAddressToAddressPayable(mediatedSalesTransactionAddresses[_mediatedSalesTransactionIpfsHash][MEDIATOR_INDEX]);\r\n            \r\n            sellerAddress.transfer(amountOfWeiToSendSeller);\r\n            mediatorAddress.transfer(amountOfWeiToSendMediator);\r\n        }\r\n    }\r\n    \r\n    // This method allows one of the parties involved in a Mediated Sales Transaction to Disapprove the given \"_mediatedSalesTransactionIpfsHash\" Mediated \r\n    // Sales Transaction. This method will and should be called ONLY by the \"franklinDecentralizedMarketplaceContractAddress.disapproveMediatedSalesTransaction\" \r\n    // method.\r\n    //\r\n    // Input Parameters:\r\n    // 1) _disapproverAddress : The Ethereum Address of one of the parties\r\n    // 2) _mediatedSalesTransactionIpfsHash : IPFS Hash string value that uniquely identifies the Mediated Sales Transaction. This IPFS Hash string value refers to   \r\n    //    what should be JSON-formatted string describing the Sale stored in the IPFS Storage System.    \r\n    function disapproveMediatedSalesTransaction(address _disapproverAddress, string memory _mediatedSalesTransactionIpfsHash) onlyContractOwnerMayExecute public {\r\n        require(mediatedSalesTransactionExists[_mediatedSalesTransactionIpfsHash], \"Given Mediated Sales Transaction IPFS Hash does not exist!\");\r\n        \r\n        bool allowedToDisapprove = (mediatedSalesTransactionAddresses[_mediatedSalesTransactionIpfsHash][BUYER_INDEX] == _disapproverAddress) ||\r\n                                (mediatedSalesTransactionAddresses[_mediatedSalesTransactionIpfsHash][SELLER_INDEX] == _disapproverAddress) ||\r\n                                (mediatedSalesTransactionAddresses[_mediatedSalesTransactionIpfsHash][MEDIATOR_INDEX] == _disapproverAddress);\r\n        require(allowedToDisapprove, \"Not allowed to Disapprove Mediated Sales Transaction, because Message Sender is neither the Buyer, Seller, or Mediator!\");\r\n        \r\n        // If 2-out-of-3 of the Buyer, Seller, and/or Mediator have Disapproved the Mediated Sales Transaction, then it's status cannot be changed, because the Seller has already been \r\n        // paid 95% of the Sales Amount, and the Mediator has already been paid 5% of the Sales Amount.\r\n        require(!_mediatedSalesTransactionHasBeenApproved(_mediatedSalesTransactionIpfsHash), \r\n            \"Mediated Sales Transaction has already been Approved by at least 2-out-of-3 of the Buyer, Seller, and/or Mediator! Cannot Disapprove at this point!\");\r\n        \r\n        uint indexBuyerSellerOrMediator = 0;\r\n        for (uint i = 0; i < 3; i++) {\r\n            if (mediatedSalesTransactionAddresses[_mediatedSalesTransactionIpfsHash][i] == _disapproverAddress) {\r\n                indexBuyerSellerOrMediator = i;\r\n            }\r\n        }\r\n        \r\n        // If the Mediated Sales Transaction has already been Disapproved by 2-out-of-3 Buyer, Seller, and/or Mediator, then just note the disapproval from the \"_disapproverAddress\" \r\n        // and that's it, because at this point the Buyer has alreaady been refunded the Sales Amount.\r\n        if (_mediatedSalesTransactionHasBeenDisapproved(_mediatedSalesTransactionIpfsHash)) {\r\n            mediatedSalesTransactionDisapprovedByParties[_mediatedSalesTransactionIpfsHash][indexBuyerSellerOrMediator] = true;\r\n            return;\r\n        }\r\n        \r\n        // Note the disapproval from the \"_disapproverAddress\". If one disapproves, than one cannot approve. Perhaps their's been a change of mind before FINAL Approval or Disapproval.\r\n        mediatedSalesTransactionApprovedByParties[_mediatedSalesTransactionIpfsHash][indexBuyerSellerOrMediator] = false;\r\n        mediatedSalesTransactionDisapprovedByParties[_mediatedSalesTransactionIpfsHash][indexBuyerSellerOrMediator] = true;\r\n        \r\n        // If after the \"msg.sender\" Disapproves the Mediated Sales Transaction, this reaches a State where 2-out-of-3 Buyer, Seller, and/or Mediator have Disapproved, then send 100% of the Sales Amount \r\n        // back to the Buyer Address.\r\n        if (_mediatedSalesTransactionHasBeenApproved(_mediatedSalesTransactionIpfsHash)) {\r\n            uint totalSalesAmount = mediatedSalesTransactionAmount[_mediatedSalesTransactionIpfsHash];\r\n        \r\n            address payable buyerAddress = GeneralUtilities._convertAddressToAddressPayable(mediatedSalesTransactionAddresses[_mediatedSalesTransactionIpfsHash][BUYER_INDEX]);\r\n            buyerAddress.transfer(totalSalesAmount);\r\n        }\r\n    }\r\n    \r\n    // Gets the Description of a Mediator identified by the given \"_mediatorAddress\". The Description will be the IPFS Hash where the JSON-formatted Description of the Mediator exists.\r\n    // If no such IPFS Hash Key Description exists, then an EMPTY_STRING will be returned. \r\n    function getMediatorIpfsHashDescription(address _mediatorAddress) onlyContractOwnerMayExecute external view returns (string memory) {\r\n        return descriptionInfoAboutMediators[_mediatorAddress];\r\n    }   \r\n    \r\n    // Allows a Buyer - identified by the \"_buyerAddress\" Ethereum Address that indirectly calls this methiod via the \"FranklinDecentralizedMarketplace.purchaseItemWithMediator\" \r\n    // method to purchase a \"_quantity\" of a specific Item - identified  by it's \"_keyItemIpfsHash\" - from a given Seller - identified by it's \"_sellerAddress\" Ethereum Address AND use a \r\n    // Mediator - identified by the given \"_mediatorAddress\" - to mediate the Mediatiations Sales Transaction - identified by the the given \"_mediatedSalesTransactionIpfsHash\" ID. \r\n    //\r\n    // The FranklinDecentralizedMarketplaceMediation Contract mainly handles Sales Transactions that involve a Mediator. Thus, these would be referred to as \r\n    // Mediated Sales Transactions that involve a Buyer, Seller, and Mediator. Each Buyer, Seller, and Mediator will have a different Ethereum Address.\r\n    //\r\n    // The FranklinDecentralizedMarketplaceMediation Contract is used to store the Escrow ETH/WEI (i.e., \"totalAmountOfWeiNeededToPurchase\") used to pay for Items involved in ALL Mediated Sales Transactions. \r\n    // The Mediated Sales Transaction works as follows:\r\n    // 1) If 2-out-of-3 of the Buyer, Seller, and/or Mediator Approves this Mediated Sales Transaction, then 95% of the \"totalAmountOfWeiNeededToPurchase\" will be sent to the Seller Address\r\n    //    and 5% of the \"totalAmountOfWeiNeededToPurchase\" will be sent to the Mediator Address. \r\n    // 2) 2-out-of-3 of the Buyer, Seller, and/or Mediator Disapproves this Mediated Sales Transaction, then the \"totalAmountOfWeiNeededToPurchase\" will be sent back to the Buyer Address.\r\n    // 3) If neither (1) or (2) above happens, then the Mediated Sales Transaction will be held in a State of Limbo and the \"totalAmountOfWeiNeededToPurchase\" will be kept inside \r\n    //    of this Contract.\r\n    //\r\n    // Input Parameters:\r\n    // 1) _sellerAddress : Ethereum Address of the Seller\r\n    // 2) _keyItemIpfsHash : This is the IPFS Hash of the Item being sold that points to a JSON-formatted string in the IPFS Storage System.\r\n    // 3) _mediatorAddress : Ethereum Address of the Mediator\r\n    // 4) _quantity : Quantity of the Item that the \"msg.sender\" Buyer wishes to purchase. \r\n    // 5) _mediatedSalesTransactionIpfsHash : This is the IPFS Hash of the Mediated Sales Transaction that points to a JSON-formatted string in the IPFS Storage System.\r\n    // 6) _buyerAddress : Ethereum Address of the Buyer    \r\n    function purchaseItemWithMediator(address _buyerAddress, address _sellerAddress, address _mediatorAddress, string memory _mediatedSalesTransactionIpfsHash, \r\n                uint totalAmountOfWeiNeededToPurchase) onlyContractOwnerMayExecute public {\r\n        require(!mediatedSalesTransactionExists[_mediatedSalesTransactionIpfsHash], \"Mediated Sales Transaction already exists!\");\r\n\r\n        require(mediatorExistsMap[_mediatorAddress], \"Given Mediator Address does not exist as a Mediator!\");\r\n        \r\n        // Keep track of the existence of the Mediated Sales Transaction so that it can be Approved or Disapproved by the Buyer, Seller, and/or Mediator in the future.\r\n        mediatedSalesTransactionExists[_mediatedSalesTransactionIpfsHash] = true;\r\n        mediatedSalesTransactionAddresses[_mediatedSalesTransactionIpfsHash][BUYER_INDEX] = _buyerAddress;\r\n        mediatedSalesTransactionAddresses[_mediatedSalesTransactionIpfsHash][SELLER_INDEX] = _sellerAddress;\r\n        mediatedSalesTransactionAddresses[_mediatedSalesTransactionIpfsHash][MEDIATOR_INDEX] = _mediatorAddress;\r\n        \r\n        // The \"totalAmountOfWeiNeededToPurchase\" amount will automatically be sent to this Contract in Escrow in a Mediated Sales Transaction. We need to store the \r\n        // \"totalAmountOfWeiNeededToPurchase\" as follows so that when:\r\n        // 1) 2-out-of-3 of the Buyer, Seller, and/or Mediator Approves this Mediated Sales Transaction, the 95% of the \"totalAmountOfWeiNeededToPurchase\" can be sent to the Seller Address and 5% \r\n        //    of the \"msg.value\" can be sent to the Mediator Address. \r\n        // 2) 2-out-of-3 of the Buyer, Seller, and/or Mediator Disapproves this Mediated Sales Transaction, the \"totalAmountOfWeiNeededToPurchase\" can be sent back to the Buyer Address.\r\n        // 3) If neither (1) or (2) above happens, then the Mediated Sales Transaction will be held in a State of Limbo and the \"totalAmountOfWeiNeededToPurchase\" will be kept inside \r\n        //    of this Contract.\r\n        mediatedSalesTransactionAmount[_mediatedSalesTransactionIpfsHash] = totalAmountOfWeiNeededToPurchase;\r\n        \r\n        numberOfMediationsMediatorInvolved[_mediatorAddress] = GeneralUtilities._safeMathAdd(numberOfMediationsMediatorInvolved[_mediatorAddress], 1);\r\n    }\r\n    \r\n    // Gets the Number of Mediations that the given \"_mediatorAddress\" Mediator has been involved.\r\n    function getNumberOfMediationsMediatorInvolved(address _mediatorAddress) onlyContractOwnerMayExecute external view returns (uint) {\r\n        require(mediatorExistsMap[_mediatorAddress], \"Given Mediator Address does not exist as a Mediator!\");\r\n        return numberOfMediationsMediatorInvolved[_mediatorAddress];\r\n    }\r\n}",
  "sourcePath": "/mnt/d/Kingsland-University-Decentralized-Marketplace-Decentralized-Application-Project-2019/contracts/FranklinDecentralizedMarketplaceMediation.sol",
  "compiler": {
    "name": "solc",
    "version": "0.5.8+commit.23d335f2.Emscripten.clang"
  },
  "schemaVersion": "3.0.16",
  "updatedAt": "2019-11-19T00:22:44.938Z",
  "devdoc": {
    "methods": {}
  },
  "userdoc": {
    "methods": {}
  }
}