{
  "contractName": "FranklinDecentralizedMarketplaceMediation",
  "abi": [
    {
      "constant": true,
      "inputs": [],
      "name": "franklinDecentralizedMarketplaceContractAddress",
      "outputs": [
        {
          "name": "",
          "type": "address"
        }
      ],
      "payable": false,
      "stateMutability": "view",
      "type": "function"
    },
    {
      "inputs": [],
      "payable": false,
      "stateMutability": "nonpayable",
      "type": "constructor"
    },
    {
      "anonymous": false,
      "inputs": [
        {
          "indexed": false,
          "name": "_mediatedSalesTransactionIpfsHash",
          "type": "string"
        }
      ],
      "name": "MediatedSalesTransactionHasBeenFullyApproved",
      "type": "event"
    },
    {
      "anonymous": false,
      "inputs": [
        {
          "indexed": false,
          "name": "_mediatedSalesTransactionIpfsHash",
          "type": "string"
        }
      ],
      "name": "MediatedSalesTransactionHasBeenFullyDisapproved",
      "type": "event"
    },
    {
      "constant": true,
      "inputs": [],
      "name": "getFranklinDecentralizedMarketplaceContractAddress",
      "outputs": [
        {
          "name": "",
          "type": "address"
        }
      ],
      "payable": false,
      "stateMutability": "view",
      "type": "function"
    },
    {
      "constant": false,
      "inputs": [
        {
          "name": "_mediatorIpfsHashDescription",
          "type": "string"
        }
      ],
      "name": "addOrUpdateMediator",
      "outputs": [],
      "payable": false,
      "stateMutability": "nonpayable",
      "type": "function"
    },
    {
      "constant": false,
      "inputs": [],
      "name": "removeMediator",
      "outputs": [],
      "payable": false,
      "stateMutability": "nonpayable",
      "type": "function"
    },
    {
      "constant": true,
      "inputs": [
        {
          "name": "_index",
          "type": "uint256"
        }
      ],
      "name": "getMediatorAddress",
      "outputs": [
        {
          "name": "",
          "type": "address"
        }
      ],
      "payable": false,
      "stateMutability": "view",
      "type": "function"
    },
    {
      "constant": true,
      "inputs": [],
      "name": "getNumberOfMediators",
      "outputs": [
        {
          "name": "",
          "type": "uint256"
        }
      ],
      "payable": false,
      "stateMutability": "view",
      "type": "function"
    },
    {
      "constant": true,
      "inputs": [
        {
          "name": "_mediatorAddress",
          "type": "address"
        }
      ],
      "name": "mediatorExists",
      "outputs": [
        {
          "name": "",
          "type": "bool"
        }
      ],
      "payable": false,
      "stateMutability": "view",
      "type": "function"
    },
    {
      "constant": false,
      "inputs": [
        {
          "name": "_mediatedSalesTransactionIpfsHash",
          "type": "string"
        }
      ],
      "name": "approveMediatedSalesTransaction",
      "outputs": [],
      "payable": false,
      "stateMutability": "nonpayable",
      "type": "function"
    },
    {
      "constant": false,
      "inputs": [
        {
          "name": "_mediatedSalesTransactionIpfsHash",
          "type": "string"
        }
      ],
      "name": "disapproveMediatedSalesTransaction",
      "outputs": [],
      "payable": false,
      "stateMutability": "nonpayable",
      "type": "function"
    },
    {
      "constant": true,
      "inputs": [
        {
          "name": "_mediatorAddress",
          "type": "address"
        }
      ],
      "name": "getMediatorIpfsHashDescription",
      "outputs": [
        {
          "name": "",
          "type": "string"
        }
      ],
      "payable": false,
      "stateMutability": "view",
      "type": "function"
    },
    {
      "constant": false,
      "inputs": [
        {
          "name": "_buyerAddress",
          "type": "address"
        },
        {
          "name": "_sellerAddress",
          "type": "address"
        },
        {
          "name": "_mediatorAddress",
          "type": "address"
        },
        {
          "name": "_mediatedSalesTransactionIpfsHash",
          "type": "string"
        },
        {
          "name": "totalAmountOfWeiNeededToPurchase",
          "type": "uint256"
        }
      ],
      "name": "purchaseItemWithMediator",
      "outputs": [],
      "payable": false,
      "stateMutability": "nonpayable",
      "type": "function"
    },
    {
      "constant": true,
      "inputs": [
        {
          "name": "_mediatorAddress",
          "type": "address"
        }
      ],
      "name": "getNumberOfMediationsMediatorInvolved",
      "outputs": [
        {
          "name": "",
          "type": "uint256"
        }
      ],
      "payable": false,
      "stateMutability": "view",
      "type": "function"
    }
  ],
  "bytecode": "0x608060405234801561001057600080fd5b5033600a60006101000a81548173ffffffffffffffffffffffffffffffffffffffff021916908373ffffffffffffffffffffffffffffffffffffffff160217905550613dbf806100616000396000f3fe608060405234801561001057600080fd5b50600436106100b45760003560e01c806340c31a8c1161007157806340c31a8c1461029a578063bcf383a814610357578063c128f208146103c5578063c63b7eb41461040f578063d94695a014610534578063e35c61cb146105ef576100b4565b80630ad2c9d1146100b95780631967766b146100d75780631a67405c146100e157806330451e8e1461013d578063331d7ce9146101f85780633ffcf36f14610242575b600080fd5b6100c16106aa565b6040518082815260200191505060405180910390f35b6100df6106b4565b005b610123600480360360208110156100f757600080fd5b81019080803573ffffffffffffffffffffffffffffffffffffffff1690602001909291905050506106bf565b604051808215151515815260200191505060405180910390f35b6101f66004803603602081101561015357600080fd5b810190808035906020019064010000000081111561017057600080fd5b82018360208201111561018257600080fd5b803590602001918460018302840111640100000000831117156101a457600080fd5b91908080601f016020809104026020016040519081016040528093929190818152602001838380828437600081840152601f19601f820116905080830192505050505050509192919290505050610715565b005b6102006110d1565b604051808273ffffffffffffffffffffffffffffffffffffffff1673ffffffffffffffffffffffffffffffffffffffff16815260200191505060405180910390f35b6102846004803603602081101561025857600080fd5b81019080803573ffffffffffffffffffffffffffffffffffffffff1690602001909291905050506110f7565b6040518082815260200191505060405180910390f35b6102dc600480360360208110156102b057600080fd5b81019080803573ffffffffffffffffffffffffffffffffffffffff1690602001909291905050506111e2565b6040518080602001828103825283818151815260200191508051906020019080838360005b8381101561031c578082015181840152602081019050610301565b50505050905090810190601f1680156103495780820380516001836020036101000a031916815260200191505b509250505060405180910390f35b6103836004803603602081101561036d57600080fd5b81019080803590602001909291905050506112c3565b604051808273ffffffffffffffffffffffffffffffffffffffff1673ffffffffffffffffffffffffffffffffffffffff16815260200191505060405180910390f35b6103cd611486565b604051808273ffffffffffffffffffffffffffffffffffffffff1673ffffffffffffffffffffffffffffffffffffffff16815260200191505060405180910390f35b610532600480360360a081101561042557600080fd5b81019080803573ffffffffffffffffffffffffffffffffffffffff169060200190929190803573ffffffffffffffffffffffffffffffffffffffff169060200190929190803573ffffffffffffffffffffffffffffffffffffffff169060200190929190803590602001906401000000008111156104a257600080fd5b8201836020820111156104b457600080fd5b803590602001918460018302840111640100000000831117156104d657600080fd5b91908080601f016020809104026020016040519081016040528093929190818152602001838380828437600081840152601f19601f820116905080830192505050505050509192919290803590602001909291905050506114b0565b005b6105ed6004803603602081101561054a57600080fd5b810190808035906020019064010000000081111561056757600080fd5b82018360208201111561057957600080fd5b8035906020019184600183028401116401000000008311171561059b57600080fd5b91908080601f016020809104026020016040519081016040528093929190818152602001838380828437600081840152601f19601f820116905080830192505050505050509192919290505050611a68565b005b6106a86004803603602081101561060557600080fd5b810190808035906020019064010000000081111561062257600080fd5b82018360208201111561063457600080fd5b8035906020019184600183028401116401000000008311171561065657600080fd5b91908080601f016020809104026020016040519081016040528093929190818152602001838380828437600081840152601f19601f820116905080830192505050505050509192919290505050611b37565b005b6000600254905090565b6106bd336123e7565b565b6000600160008373ffffffffffffffffffffffffffffffffffffffff1673ffffffffffffffffffffffffffffffffffffffff16815260200190815260200160002060009054906101000a900460ff169050919050565b6006816040518082805190602001908083835b6020831061074b5780518252602082019150602081019050602083039250610728565b6001836020036101000a038019825116818451168082178552505050505050905001915050908152602001604051809103902060009054906101000a900460ff166107e1576040517f08c379a000000000000000000000000000000000000000000000000000000000815260040180806020018281038252603a815260200180613c68603a913960400191505060405180910390fd5b60003373ffffffffffffffffffffffffffffffffffffffff166005836040518082805190602001908083835b60208310610830578051825260208201915060208101905060208303925061080d565b6001836020036101000a038019825116818451168082178552505050505050905001915050908152602001604051809103902060006003811061086f57fe5b0160009054906101000a900473ffffffffffffffffffffffffffffffffffffffff1673ffffffffffffffffffffffffffffffffffffffff16148061097457503373ffffffffffffffffffffffffffffffffffffffff166005836040518082805190602001908083835b602083106108fb57805182526020820191506020810190506020830392506108d8565b6001836020036101000a038019825116818451168082178552505050505050905001915050908152602001604051809103902060016003811061093a57fe5b0160009054906101000a900473ffffffffffffffffffffffffffffffffffffffff1673ffffffffffffffffffffffffffffffffffffffff16145b80610a4057503373ffffffffffffffffffffffffffffffffffffffff166005836040518082805190602001908083835b602083106109c757805182526020820191506020810190506020830392506109a4565b6001836020036101000a0380198251168184511680821785525050505050509050019150509081526020016040518091039020600260038110610a0657fe5b0160009054906101000a900473ffffffffffffffffffffffffffffffffffffffff1673ffffffffffffffffffffffffffffffffffffffff16145b905080610a98576040517f08c379a00000000000000000000000000000000000000000000000000000000081526004018080602001828103825260748152602001806139346074913960800191505060405180910390fd5b610aa182612909565b15610af7576040517f08c379a0000000000000000000000000000000000000000000000000000000008152600401808060200182810382526093815260200180613a416093913960a00191505060405180910390fd5b600080905060008090505b6003811015610be5573373ffffffffffffffffffffffffffffffffffffffff166005856040518082805190602001908083835b60208310610b585780518252602082019150602081019050602083039250610b35565b6001836020036101000a03801982511681845116808217855250505050505090500191505090815260200160405180910390208260038110610b9657fe5b0160009054906101000a900473ffffffffffffffffffffffffffffffffffffffff1673ffffffffffffffffffffffffffffffffffffffff161415610bd8578091505b8080600101915050610b02565b50610bef836129d2565b15610c905760016008846040518082805190602001908083835b60208310610c2c5780518252602082019150602081019050602083039250610c09565b6001836020036101000a03801982511681845116808217855250505050505090500191505090815260200160405180910390208260038110610c6a57fe5b602091828204019190066101000a81548160ff02191690831515021790555050506110ce565b60016008846040518082805190602001908083835b60208310610cc85780518252602082019150602081019050602083039250610ca5565b6001836020036101000a03801982511681845116808217855250505050505090500191505090815260200160405180910390208260038110610d0657fe5b602091828204019190066101000a81548160ff02191690831515021790555060006009846040518082805190602001908083835b60208310610d5d5780518252602082019150602081019050602083039250610d3a565b6001836020036101000a03801982511681845116808217855250505050505090500191505090815260200160405180910390208260038110610d9b57fe5b602091828204019190066101000a81548160ff021916908315150217905550610dc3836129d2565b156110cb5760006007846040518082805190602001908083835b60208310610e005780518252602082019150602081019050602083039250610ddd565b6001836020036101000a03801982511681845116808217855250505050505090500191505090815260200160405180910390205490506000610e456005606484612a9b565b90506000610e538383612abe565b90506000610ef66005886040518082805190602001908083835b60208310610e905780518252602082019150602081019050602083039250610e6d565b6001836020036101000a0380198251168184511680821785525050505050509050019150509081526020016040518091039020600160038110610ecf57fe5b0160009054906101000a900473ffffffffffffffffffffffffffffffffffffffff16612b2a565b90506000610f996005896040518082805190602001908083835b60208310610f335780518252602082019150602081019050602083039250610f10565b6001836020036101000a0380198251168184511680821785525050505050509050019150509081526020016040518091039020600260038110610f7257fe5b0160009054906101000a900473ffffffffffffffffffffffffffffffffffffffff16612b2a565b90508173ffffffffffffffffffffffffffffffffffffffff166108fc849081150290604051600060405180830381858888f19350505050158015610fe1573d6000803e3d6000fd5b508073ffffffffffffffffffffffffffffffffffffffff166108fc859081150290604051600060405180830381858888f19350505050158015611028573d6000803e3d6000fd5b507fa23b174fa33ea5f5f896550cbfea1f2dcf96c55f461e307a9dd45fee81746d19886040518080602001828103825283818151815260200191508051906020019080838360005b8381101561108b578082015181840152602081019050611070565b50505050905090810190601f1680156110b85780820380516001836020036101000a031916815260200191505b509250505060405180910390a150505050505b50505b50565b600a60009054906101000a900473ffffffffffffffffffffffffffffffffffffffff1681565b6000600160008373ffffffffffffffffffffffffffffffffffffffff1673ffffffffffffffffffffffffffffffffffffffff16815260200190815260200160002060009054906101000a900460ff1661119b576040517f08c379a0000000000000000000000000000000000000000000000000000000008152600401808060200182810382526034815260200180613d356034913960400191505060405180910390fd5b600460008373ffffffffffffffffffffffffffffffffffffffff1673ffffffffffffffffffffffffffffffffffffffff168152602001908152602001600020549050919050565b6060600360008373ffffffffffffffffffffffffffffffffffffffff1673ffffffffffffffffffffffffffffffffffffffff1681526020019081526020016000208054600181600116156101000203166002900480601f0160208091040260200160405190810160405280929190818152602001828054600181600116156101000203166002900480156112b75780601f1061128c576101008083540402835291602001916112b7565b820191906000526020600020905b81548152906001019060200180831161129a57829003601f168201915b50505050509050919050565b6000600254821061131f576040517f08c379a0000000000000000000000000000000000000000000000000000000008152600401808060200182810382526076815260200180613ba66076913960800191505060405180910390fd5b600080905060606040518060200160405280600081525090505b600115611474576000816040518082805190602001908083835b602083106113765780518252602082019150602081019050602083039250611353565b6001836020036101000a0380198251168184511680821785525050505050509050019150509081526020016040518091039020600060011515151581526020019081526020016000208054600181600116156101000203166002900480601f0160208091040260200160405190810160405280929190818152602001828054600181600116156101000203166002900480156114535780601f1061142857610100808354040283529160200191611453565b820191906000526020600020905b81548152906001019060200180831161143657829003601f168201915b505050505090508382141561146757611474565b8180600101925050611339565b61147d81612b39565b92505050919050565b6000600a60009054906101000a900473ffffffffffffffffffffffffffffffffffffffff16905090565b600a60009054906101000a900473ffffffffffffffffffffffffffffffffffffffff1673ffffffffffffffffffffffffffffffffffffffff163373ffffffffffffffffffffffffffffffffffffffff1614611556576040517f08c379a000000000000000000000000000000000000000000000000000000000815260040180806020018281038252605d815260200180613ad4605d913960600191505060405180910390fd5b6006826040518082805190602001908083835b6020831061158c5780518252602082019150602081019050602083039250611569565b6001836020036101000a038019825116818451168082178552505050505050905001915050908152602001604051809103902060009054906101000a900460ff1615611623576040517f08c379a000000000000000000000000000000000000000000000000000000000815260040180806020018281038252602a815260200180613b31602a913960400191505060405180910390fd5b600160008473ffffffffffffffffffffffffffffffffffffffff1673ffffffffffffffffffffffffffffffffffffffff16815260200190815260200160002060009054906101000a900460ff166116c5576040517f08c379a0000000000000000000000000000000000000000000000000000000008152600401808060200182810382526034815260200180613d356034913960400191505060405180910390fd5b60016006836040518082805190602001908083835b602083106116fd57805182526020820191506020810190506020830392506116da565b6001836020036101000a038019825116818451168082178552505050505050905001915050908152602001604051809103902060006101000a81548160ff021916908315150217905550846005836040518082805190602001908083835b6020831061177e578051825260208201915060208101905060208303925061175b565b6001836020036101000a03801982511681845116808217855250505050505090500191505090815260200160405180910390206000600381106117bd57fe5b0160006101000a81548173ffffffffffffffffffffffffffffffffffffffff021916908373ffffffffffffffffffffffffffffffffffffffff160217905550836005836040518082805190602001908083835b602083106118335780518252602082019150602081019050602083039250611810565b6001836020036101000a038019825116818451168082178552505050505050905001915050908152602001604051809103902060016003811061187257fe5b0160006101000a81548173ffffffffffffffffffffffffffffffffffffffff021916908373ffffffffffffffffffffffffffffffffffffffff160217905550826005836040518082805190602001908083835b602083106118e857805182526020820191506020810190506020830392506118c5565b6001836020036101000a038019825116818451168082178552505050505050905001915050908152602001604051809103902060026003811061192757fe5b0160006101000a81548173ffffffffffffffffffffffffffffffffffffffff021916908373ffffffffffffffffffffffffffffffffffffffff160217905550806007836040518082805190602001908083835b6020831061199d578051825260208201915060208101905060208303925061197a565b6001836020036101000a038019825116818451168082178552505050505050905001915050908152602001604051809103902081905550611a1e600460008573ffffffffffffffffffffffffffffffffffffffff1673ffffffffffffffffffffffffffffffffffffffff168152602001908152602001600020546001612d92565b600460008573ffffffffffffffffffffffffffffffffffffffff1673ffffffffffffffffffffffffffffffffffffffff168152602001908152602001600020819055505050505050565b611a818160405180602001604052806000815250612e1a565b15611ad7576040517f08c379a000000000000000000000000000000000000000000000000000000000815260040180806020018281038252604c815260200180613c1c604c913960600191505060405180910390fd5b80600360003373ffffffffffffffffffffffffffffffffffffffff1673ffffffffffffffffffffffffffffffffffffffff1681526020019081526020016000209080519060200190611b2a9291906137bf565b50611b3433612f09565b50565b6006816040518082805190602001908083835b60208310611b6d5780518252602082019150602081019050602083039250611b4a565b6001836020036101000a038019825116818451168082178552505050505050905001915050908152602001604051809103902060009054906101000a900460ff16611c03576040517f08c379a000000000000000000000000000000000000000000000000000000000815260040180806020018281038252603a815260200180613c68603a913960400191505060405180910390fd5b60003373ffffffffffffffffffffffffffffffffffffffff166005836040518082805190602001908083835b60208310611c525780518252602082019150602081019050602083039250611c2f565b6001836020036101000a0380198251168184511680821785525050505050509050019150509081526020016040518091039020600060038110611c9157fe5b0160009054906101000a900473ffffffffffffffffffffffffffffffffffffffff1673ffffffffffffffffffffffffffffffffffffffff161480611d9657503373ffffffffffffffffffffffffffffffffffffffff166005836040518082805190602001908083835b60208310611d1d5780518252602082019150602081019050602083039250611cfa565b6001836020036101000a0380198251168184511680821785525050505050509050019150509081526020016040518091039020600160038110611d5c57fe5b0160009054906101000a900473ffffffffffffffffffffffffffffffffffffffff1673ffffffffffffffffffffffffffffffffffffffff16145b80611e6257503373ffffffffffffffffffffffffffffffffffffffff166005836040518082805190602001908083835b60208310611de95780518252602082019150602081019050602083039250611dc6565b6001836020036101000a0380198251168184511680821785525050505050509050019150509081526020016040518091039020600260038110611e2857fe5b0160009054906101000a900473ffffffffffffffffffffffffffffffffffffffff1673ffffffffffffffffffffffffffffffffffffffff16145b905080611eba576040517f08c379a00000000000000000000000000000000000000000000000000000000081526004018080602001828103825260778152602001806139a86077913960800191505060405180910390fd5b611ec3826129d2565b15611f19576040517f08c379a0000000000000000000000000000000000000000000000000000000008152600401808060200182810382526093815260200180613ca26093913960a00191505060405180910390fd5b600080905060008090505b6003811015612007573373ffffffffffffffffffffffffffffffffffffffff166005856040518082805190602001908083835b60208310611f7a5780518252602082019150602081019050602083039250611f57565b6001836020036101000a03801982511681845116808217855250505050505090500191505090815260200160405180910390208260038110611fb857fe5b0160009054906101000a900473ffffffffffffffffffffffffffffffffffffffff1673ffffffffffffffffffffffffffffffffffffffff161415611ffa578091505b8080600101915050611f24565b5061201183612909565b156120b25760016009846040518082805190602001908083835b6020831061204e578051825260208201915060208101905060208303925061202b565b6001836020036101000a0380198251168184511680821785525050505050509050019150509081526020016040518091039020826003811061208c57fe5b602091828204019190066101000a81548160ff02191690831515021790555050506123e4565b60006008846040518082805190602001908083835b602083106120ea57805182526020820191506020810190506020830392506120c7565b6001836020036101000a0380198251168184511680821785525050505050509050019150509081526020016040518091039020826003811061212857fe5b602091828204019190066101000a81548160ff02191690831515021790555060016009846040518082805190602001908083835b6020831061217f578051825260208201915060208101905060208303925061215c565b6001836020036101000a038019825116818451168082178552505050505050905001915050908152602001604051809103902082600381106121bd57fe5b602091828204019190066101000a81548160ff0219169083151502179055506121e5836129d2565b156123e15760006007846040518082805190602001908083835b6020831061222257805182526020820191506020810190506020830392506121ff565b6001836020036101000a038019825116818451168082178552505050505050905001915050908152602001604051809103902054905060006122f96005866040518082805190602001908083835b602083106122935780518252602082019150602081019050602083039250612270565b6001836020036101000a03801982511681845116808217855250505050505090500191505090815260200160405180910390206000600381106122d257fe5b0160009054906101000a900473ffffffffffffffffffffffffffffffffffffffff16612b2a565b90508073ffffffffffffffffffffffffffffffffffffffff166108fc839081150290604051600060405180830381858888f19350505050158015612341573d6000803e3d6000fd5b507f3ff188ce9ea5ca019e8dbce55a0912d7cdc8f3396966d73e9f9574ab70f51657856040518080602001828103825283818151815260200191508051906020019080838360005b838110156123a4578082015181840152602081019050612389565b50505050905090810190601f1680156123d15780820380516001836020036101000a031916815260200191505b509250505060405180910390a150505b50505b50565b600160008273ffffffffffffffffffffffffffffffffffffffff1673ffffffffffffffffffffffffffffffffffffffff16815260200190815260200160002060009054906101000a900460ff1661243d57612906565b606061244882613375565b90506000816040518082805190602001908083835b60208310612480578051825260208201915060208101905060208303925061245d565b6001836020036101000a038019825116818451168082178552505050505050905001915050908152602001604051809103902060006001151515158152602001908152602001600020600080836040518082805190602001908083835b6020831061250057805182526020820191506020810190506020830392506124dd565b6001836020036101000a038019825116818451168082178552505050505050905001915050908152602001604051809103902060008015151515815260200190815260200160002060405180828054600181600116156101000203166002900480156125a35780601f106125815761010080835404028352918201916125a3565b820191906000526020600020905b81548152906001019060200180831161258f575b505091505090815260200160405180910390206000600115151515815260200190815260200160002090805460018160011615610100020316600290046125eb92919061383f565b506000816040518082805190602001908083835b6020831061262257805182526020820191506020810190506020830392506125ff565b6001836020036101000a0380198251168184511680821785525050505050509050019150509081526020016040518091039020600080151515158152602001908152602001600020600080836040518082805190602001908083835b602083106126a1578051825260208201915060208101905060208303925061267e565b6001836020036101000a03801982511681845116808217855250505050505090500191505090815260200160405180910390206000600115151515815260200190815260200160002060405180828054600181600116156101000203166002900480156127455780601f10612723576101008083540402835291820191612745565b820191906000526020600020905b815481529060010190602001808311612731575b50509150509081526020016040518091039020600080151515158152602001908152602001600020908054600181600116156101000203166002900461278c92919061383f565b506000816040518082805190602001908083835b602083106127c357805182526020820191506020810190506020830392506127a0565b6001836020036101000a0380198251168184511680821785525050505050509050019150509081526020016040518091039020600080151515158152602001908152602001600020600061281791906138c6565b6000816040518082805190602001908083835b6020831061284d578051825260208201915060208101905060208303925061282a565b6001836020036101000a03801982511681845116808217855250505050505090500191505090815260200160405180910390206000600115151515815260200190815260200160002060006128a291906138c6565b6128af6002546001612abe565b600281905550600160008373ffffffffffffffffffffffffffffffffffffffff1673ffffffffffffffffffffffffffffffffffffffff16815260200190815260200160002060006101000a81549060ff0219169055505b50565b6000806000905060008090505b60038110156129c4576009846040518082805190602001908083835b602083106129555780518252602082019150602081019050602083039250612932565b6001836020036101000a0380198251168184511680821785525050505050509050019150509081526020016040518091039020816003811061299357fe5b602091828204019190069054906101000a900460ff16156129b75781806001019250505b8080600101915050612916565b506002811015915050919050565b6000806000905060008090505b6003811015612a8d576008846040518082805190602001908083835b60208310612a1e57805182526020820191506020810190506020830392506129fb565b6001836020036101000a03801982511681845116808217855250505050505090500191505090815260200160405180910390208160038110612a5c57fe5b602091828204019190069054906101000a900460ff1615612a805781806001019250505b80806001019150506129df565b506002811015915050919050565b600080612aa885846135f6565b9050612ab481856136e8565b9150509392505050565b600082821115612b19576040517f08c379a0000000000000000000000000000000000000000000000000000000008152600401808060200182810382526028815260200180613b7e6028913960400191505060405180910390fd5b600082840390508091505092915050565b60008082905080915050919050565b6000606082905060008090506000806000600290505b602a811015612d855761010084029350848181518110612b6b57fe5b602001015160f81c60f81b60f81c60ff169250846001820181518110612b8d57fe5b602001015160f81c60f81b60f81c60ff16915060618373ffffffffffffffffffffffffffffffffffffffff1610158015612bde575060668373ffffffffffffffffffffffffffffffffffffffff1611155b15612bee57605783039250612c88565b60418373ffffffffffffffffffffffffffffffffffffffff1610158015612c2c575060468373ffffffffffffffffffffffffffffffffffffffff1611155b15612c3c57603783039250612c87565b60308373ffffffffffffffffffffffffffffffffffffffff1610158015612c7a575060398373ffffffffffffffffffffffffffffffffffffffff1611155b15612c86576030830392505b5b5b60618273ffffffffffffffffffffffffffffffffffffffff1610158015612cc6575060668273ffffffffffffffffffffffffffffffffffffffff1611155b15612cd657605782039150612d70565b60418273ffffffffffffffffffffffffffffffffffffffff1610158015612d14575060468273ffffffffffffffffffffffffffffffffffffffff1611155b15612d2457603782039150612d6f565b60308273ffffffffffffffffffffffffffffffffffffffff1610158015612d62575060398273ffffffffffffffffffffffffffffffffffffffff1611155b15612d6e576030820391505b5b5b81601084020184019350600281019050612b4f565b5082945050505050919050565b600080828401905083811015612e10576040517f08c379a00000000000000000000000000000000000000000000000000000000081526004018080602001828103825260208152602001807f5f736166654d617468416464203a204164646974696f6e204f766572666c6f7781525060200191505060405180910390fd5b8091505092915050565b6000816040516020018082805190602001908083835b60208310612e535780518252602082019150602081019050602083039250612e30565b6001836020036101000a03801982511681845116808217855250505050505090500191505060405160208183030381529060405280519060200120836040516020018082805190602001908083835b60208310612ec55780518252602082019150602081019050602083039250612ea2565b6001836020036101000a0380198251168184511680821785525050505050509050019150506040516020818303038152906040528051906020012014905092915050565b600160008273ffffffffffffffffffffffffffffffffffffffff1673ffffffffffffffffffffffffffffffffffffffff16815260200190815260200160002060009054906101000a900460ff1615612f6057613372565b6060612f6b82613375565b9050604051806020016040528060008152506000826040518082805190602001908083835b60208310612fb35780518252602082019150602081019050602083039250612f90565b6001836020036101000a0380198251168184511680821785525050505050509050019150509081526020016040518091039020600080151515158152602001908152602001600020908051906020019061300e9291906137bf565b506000604051806020016040528060008152506040518082805190602001908083835b602083106130545780518252602082019150602081019050602083039250613031565b6001836020036101000a0380198251168184511680821785525050505050509050019150509081526020016040518091039020600060011515151581526020019081526020016000206000826040518082805190602001908083835b602083106130d357805182526020820191506020810190506020830392506130b0565b6001836020036101000a038019825116818451168082178552505050505050905001915050908152602001604051809103902060006001151515158152602001908152602001600020908054600181600116156101000203166002900461313b92919061383f565b5080600080604051806020016040528060008152506040518082805190602001908083835b602083106131835780518252602082019150602081019050602083039250613160565b6001836020036101000a03801982511681845116808217855250505050505090500191505090815260200160405180910390206000600115151515815260200190815260200160002060405180828054600181600116156101000203166002900480156132275780601f10613205576101008083540402835291820191613227565b820191906000526020600020905b815481529060010190602001808311613213575b5050915050908152602001604051809103902060008015151515815260200190815260200160002090805190602001906132629291906137bf565b50806000604051806020016040528060008152506040518082805190602001908083835b602083106132a95780518252602082019150602081019050602083039250613286565b6001836020036101000a03801982511681845116808217855250505050505090500191505090815260200160405180910390206000600115151515815260200190815260200160002090805190602001906133059291906137bf565b506133136002546001612d92565b60028190555060018060008473ffffffffffffffffffffffffffffffffffffffff1673ffffffffffffffffffffffffffffffffffffffff16815260200190815260200160002060006101000a81548160ff021916908315150217905550505b50565b606060008273ffffffffffffffffffffffffffffffffffffffff1660001b905060606040518060400160405280601081526020017f303132333435363738396162636465660000000000000000000000000000000081525090506060602a6040519080825280601f01601f1916602001820160405280156134055781602001600182028038833980820191505090505b5090507f30000000000000000000000000000000000000000000000000000000000000008160008151811061343657fe5b60200101907effffffffffffffffffffffffffffffffffffffffffffffffffffffffffffff1916908160001a9053507f78000000000000000000000000000000000000000000000000000000000000008160018151811061349357fe5b60200101907effffffffffffffffffffffffffffffffffffffffffffffffffffffffffffff1916908160001a90535060008090505b60148110156135ea5782600485600c8401602081106134e357fe5b1a60f81b7effffffffffffffffffffffffffffffffffffffffffffffffffffffffffffff1916901c60f81c60ff168151811061351b57fe5b602001015160f81c60f81b82600283026002018151811061353857fe5b60200101907effffffffffffffffffffffffffffffffffffffffffffffffffffffffffffff1916908160001a90535082600f60f81b85600c84016020811061357c57fe5b1a60f81b1660f81c60ff168151811061359157fe5b602001015160f81c60f81b8260028302600301815181106135ae57fe5b60200101907effffffffffffffffffffffffffffffffffffffffffffffffffffffffffffff1916908160001a90535080806001019150506134c8565b50809350505050919050565b6000808314806136065750600082145b1561361457600090506136e2565b600082840290508284828161362557fe5b041461367c576040517f08c379a000000000000000000000000000000000000000000000000000000000815260040180806020018281038252602b815260200180613d69602b913960400191505060405180910390fd5b8383828161368657fe5b04146136dd576040517f08c379a000000000000000000000000000000000000000000000000000000000815260040180806020018281038252602b815260200180613d69602b913960400191505060405180910390fd5b809150505b92915050565b6000808211613742576040517f08c379a0000000000000000000000000000000000000000000000000000000008152600401808060200182810382526022815260200180613a1f6022913960400191505060405180910390fd5b600082848161374d57fe5b04905082848161375957fe5b068184020184146137b5576040517f08c379a0000000000000000000000000000000000000000000000000000000008152600401808060200182810382526023815260200180613b5b6023913960400191505060405180910390fd5b8091505092915050565b828054600181600116156101000203166002900490600052602060002090601f016020900481019282601f1061380057805160ff191683800117855561382e565b8280016001018555821561382e579182015b8281111561382d578251825591602001919060010190613812565b5b50905061383b919061390e565b5090565b828054600181600116156101000203166002900490600052602060002090601f016020900481019282601f1061387857805485556138b5565b828001600101855582156138b557600052602060002091601f016020900482015b828111156138b4578254825591600101919060010190613899565b5b5090506138c2919061390e565b5090565b50805460018160011615610100020316600290046000825580601f106138ec575061390b565b601f01602090049060005260206000209081019061390a919061390e565b5b50565b61393091905b8082111561392c576000816000905550600101613914565b5090565b9056fe4e6f7420616c6c6f77656420746f20417070726f7665204d656469617465642053616c6573205472616e73616374696f6e2c2062656361757365204d6573736167652053656e646572206973206e656974686572207468652042757965722c2053656c6c65722c206f72204d65646961746f72214e6f7420616c6c6f77656420746f20446973617070726f7665204d656469617465642053616c6573205472616e73616374696f6e2c2062656361757365204d6573736167652053656e646572206973206e656974686572207468652042757965722c2053656c6c65722c206f72204d65646961746f72215f736166654d617468446976696465203a2044656e6f6d696e61746f7220697320304d656469617465642053616c6573205472616e73616374696f6e2068617320616c7265616479206265656e20446973617070726f766564206279206174206c6561737420322d6f75742d6f662d33206f66207468652042757965722c2053656c6c65722c20616e642f6f72204d65646961746f72212043616e6e6f7420417070726f7665206174207468697320706f696e74214f6e6c792074686520457468657265756d20416464726573732074686174206465706c6f796564205448495320436f6e7472616374206d6179206578656375746520616e79206f662069742773207075626c6963206d6574686f6473214d656469617465642053616c6573205472616e73616374696f6e20616c726561647920657869737473215f736166654d617468446976696465203a204469766973696f6e204f766572666c6f775f736166654d6174685375627472616374203a205375627472616374696f6e204f766572666c6f77496e6465782076616c756520676976656e2069732067726561746572207468616e206f7220657175616c20746f20746865204e756d626572206f66204d65646961746f7273212049742073686f756c64206265206c657373207468616e20746865204e756d626572206f66204d65646961746f72732143616e6e6f74206861766520616e20656d70747920537472696e6720666f722074686520495046532048617368204b6579204465736372697074696f6e206f662061204d65646961746f7221476976656e204d656469617465642053616c6573205472616e73616374696f6e2049504653204861736820646f6573206e6f74206578697374214d656469617465642053616c6573205472616e73616374696f6e2068617320616c7265616479206265656e20417070726f766564206279206174206c6561737420322d6f75742d6f662d33206f66207468652042757965722c2053656c6c65722c20616e642f6f72204d65646961746f72212043616e6e6f7420446973617070726f7665206174207468697320706f696e7421476976656e204d65646961746f72204164647265737320646f6573206e6f742065786973742061732061204d65646961746f72215f736166654d6174684d756c7469706c79203a204d756c7469706c69636174696f6e204f766572666c6f77a165627a7a723058209980fddcd0bcb207901abe541ebac63a21f13d95fa4900f3fdd8f6af8307ab550029",
  "source": "pragma solidity >=0.4.22 <0.6.0;\r\n\r\nimport \"./GeneralUtilities.sol\";\r\n\r\ncontract FranklinDecentralizedMarketplaceMediation {\r\n    using GeneralUtilities for *;\r\n    \r\n    // Constants used for the Double-Linked list and other uses.\r\n    bool constant private PREV = false;\r\n    bool constant private NEXT = true;\r\n    string constant private EMPTY_STRING = \"\";\r\n    \r\n    // This Smart Contract handles Sales Transactions that involve a Mediator. Thus, these would be referred to as Mediated Sales Transactions that involve a Buyer, Seller, and \r\n    // Mediator. Each Buyer, Seller, and Mediator will have a different Ethereum Address.\r\n    \r\n    // The \"franklinDecentralizedMarketplaceContractAddress\" variable is the Contract Address of the FranklinDecentralizedMarketplace Contract that deployed this Contract - the \r\n    // FranklinDecentralizedMarketplaceMediation Contract - via the constructor of the FranklinDecentralizedMarketplace Contract.\r\n    // The Contract code had to be split in two, because the Etherum Virtual Machine (EVM) would not allow deployment of a Contract\r\n    // that has more than 24576 bytes. So, the decision was made to SPLIT the code into the FranklinDecentralizedMarketplace \r\n    // and FranklinDecentralizedMarketplaceMediation Contracts where the FranklinDecentralizedMarketplace would deploy the\r\n    // FranklinDecentralizedMarketplaceMediation Contract via it's Constructor.  \r\n    \r\n    // Function calls relating to Mediated Sales Transactions should be done by making the apprioptate function calls on this Smart Contract.\r\n    \r\n    // This Contract will be used to store the Escrow ETH/WEI (i.e., \"totalAmountOfWeiNeededToPurchase\") used to pay for Items involved in ALL Mediated Sales Transactions. \r\n    // The Mediated Sales Transaction works as follows:\r\n    // 1) If 2-out-of-3 of the Buyer, Seller, and/or Mediator Approves this Mediated Sales Transaction, then 95% of the \"totalAmountOfWeiNeededToPurchase\" will be sent to the Seller Address\r\n    //    and 5% of the \"totalAmountOfWeiNeededToPurchase\" will be sent to the Mediator Address. \r\n    // 2) 2-out-of-3 of the Buyer, Seller, and/or Mediator Disapproves this Mediated Sales Transaction, then the \"totalAmountOfWeiNeededToPurchase\" will be sent back to the Buyer Address.\r\n    // 3) If neither (1) or (2) above happens, then the Mediated Sales Transaction will be held in a State of Limbo and the \"totalAmountOfWeiNeededToPurchase\" will be kept inside \r\n    //    of this Contract.\r\n    \r\n    // Each Mediator in this Decentralized Marketplace is identified by it's Ethereum Address, but should also have information about himself/herself that is accessed  \r\n    // in the IPFS Stoarge Systemn via it's IPFS (InterPlanetary File System) Hash string key.\r\n    // Each Mediator in this Decentralized Marketplace is also identified by it's IPFS (InterPlanetary File System) Hash. Information about each Mediator is in a JSON-formatted\r\n    // string stored in the IPFS (InterPlanetary File System) that may be accessed via the Infura IPFS Gateway URL. So, for example, let's say that the Mediator has an\r\n    // IPFS Hash of QmZ4DZ1spT2eQhUC5mfQGugM4AhLjq8ZvuZvHdQvnvKnHH. Then, the information about this Mediator may be seen in one of the following URLs:\r\n    // 1) https://ipfs.infura.io/ipfs/QmZ4DZ1spT2eQhUC5mfQGugM4AhLjq8ZvuZvHdQvnvKnHH\r\n    // 2) https://gateway.ipfs.io/ipfs/QmZ4DZ1spT2eQhUC5mfQGugM4AhLjq8ZvuZvHdQvnvKnH\r\n    \r\n    // Each Mediated Sales Transaction in this Decentralized Marketplace is identified by it's IPFS (InterPlanetary File System) Hash. Information about each Mediated Sales Transaction \r\n    // is in a JSON-formatted string stored in the IPFS (InterPlanetary File System) that may be accessed via the Infura IPFS Gateway URL. So, for example, let's say that the \r\n    // Mediated Sales Transaction has an IPFS Hash of QmZ4DZ1spT2eQhUC5mfQGugM4AhLjq8ZvuZvHdQvnvKnHH. Then, the information about this Mediated Sales Transaction may be seen in one of \r\n    // the following URLs:\r\n    // 1) https://ipfs.infura.io/ipfs/QmZ4DZ1spT2eQhUC5mfQGugM4AhLjq8ZvuZvHdQvnvKnHH\r\n    // 2) https://gateway.ipfs.io/ipfs/QmZ4DZ1spT2eQhUC5mfQGugM4AhLjq8ZvuZvHdQvnvKnH\r\n    \r\n    // A double-linked list that lists all the Mediators by their Ethereum Address in string format.\r\n    //\r\n    // For an explanation as to how the \"mapping(string => mapping(bool => string))\" double linked-list works and the code pertaining to it from which was borrowed, please go to the\r\n    // https://ethereum.stackexchange.com/questions/15337/can-we-get-all-elements-stored-in-a-mapping-in-the-contract web page.\r\n    //\r\n    // Each \"string\" below refers to the Ethereum Address of the Mediator in string format.\r\n    mapping(string => mapping(bool => string)) private listOfMediators;\r\n    \r\n    // Map that keeps track of whether a Mediator exists. The \"address\" key is the Ethereum Address of the Mediator.\r\n    mapping(address => bool) private mediatorExistsMap;\r\n    \r\n    // Keeps a count on the Number of Mediators that mediate sales on this platform.\r\n    uint private numberOfMediators;\r\n    \r\n    // This Mapping contains the Description Information about the Mediators. The Mediator is responsible for adding this information.\r\n    //\r\n    // Mapping is as follows:\r\n    // 1) Key: Ethereum Address of the Mediator\r\n    // 2) Value: IPFS Hash string of the information pertaining to the Mediator. This information is stored in the IPFS Storage Network.\r\n    //           This information should be a JSON-formatted string.\r\n    mapping(address => string) private descriptionInfoAboutMediators;\r\n    \r\n    // This Mapping contains the Number of Mediations that a Mediator has been involved.\r\n    //\r\n    // Mapping is as follows:\r\n    // 1) Key: Ethereum Address of the Mediator\r\n    // 2) Value: Number of Mediations that a Mediators has been involved\r\n    mapping(address => uint) private numberOfMediationsMediatorInvolved;\r\n\r\n    // Constants used for the Mediated Sales Transactions mappings that have a \"bool[3]\" as a value in it's \"mapping\".\r\n    uint constant private BUYER_INDEX = 0;\r\n    uint constant private SELLER_INDEX = 1;\r\n    uint constant private MEDIATOR_INDEX = 2;\r\n    \r\n    // Maps the Mediated Sales Transaction IPFS Hash to the three Ethereum Addresses involved in the Sale of Item(s) involving a Mediator. The Mediated Sales Transaction IPFS Hash\r\n    // refers to a JSON-formatted string that describes this Transaction in the IPFS Storage System.\r\n    //\r\n    // Mapping is as follows:\r\n    // 1) Key: IPFS Hash string of the Mediated Sales Transaction\r\n    // 2) Values:\r\n    //    A) address[0] : Ethereum Address of the Buyer\r\n    //    B) address[1] : Ethereum Address of the Seller\r\n    //    C) address[2] : Ethereum Address of the Mediator\r\n    mapping(string => address[3]) private mediatedSalesTransactionAddresses;\r\n    \r\n    // Map that shows whether a Mediated Sales Transaction exists. The \"string\" key is the Mediated Sales Transaction IPFS Hash.\r\n    //\r\n    // Mapping is as follows:\r\n    // 1) Key: IPFS Hash string of the Mediated Sales Transaction\r\n    // 2) Value:\r\n    //    A) Boolean value of \"true\" indicates that the Mediated Sales Transaction exists\r\n    //    B) Boolean value of \"false\" indicates that the Mediated Sales Transaction exists\r\n    mapping (string => bool) private mediatedSalesTransactionExists;\r\n    \r\n    // Map that maps the Mediated Sales Transaction to the Sales Amount in Wei. The \"string\" key is the Mediated Sales Transaction IPFS Hash.\r\n    //\r\n    // Mapping is as follows:\r\n    // 1) Key: IPFS Hash string of the Mediated Sales Transaction\r\n    // 2) Value: Amount in Wei that the Buyer chose to pay for the Item(s)\r\n    mapping (string => uint) private mediatedSalesTransactionAmount;\r\n    \r\n    // Map that keeps track of whether a Mediated Sales Transaction has been Approved by the Buyer, Seller, and/or Mediator. \r\n    // The \"string\" key is the Mediated Sales Transaction IPFS Hash.\r\n    //\r\n    // Mapping is as follows:\r\n    // 1) Key: IPFS Hash string of the Mediated Sales Transaction\r\n    // 2) Values:\r\n    //    A) address[0] : Boolean flag indicating if Buyer Approves\r\n    //    B) address[1] : Boolean flag indicating if Seller Approves\r\n    //    C) address[2] : Boolean flag indicating if Mediator Approves\r\n    mapping (string => bool[3]) private mediatedSalesTransactionApprovedByParties;\r\n    \r\n    // Map that keeps track of whether a Mediated Sales Transaction has been Disapproved by the Buyer, Seller, and/or Mediator. \r\n    // The \"string\" key is the Mediated Sales Transaction IPFS Hash.\r\n    //\r\n    // Mapping is as follows:\r\n    // 1) Key: IPFS Hash string of the Mediated Sales Transaction\r\n    // 2) Values:\r\n    //    A) address[0] : Boolean flag indicating if Buyer Disapproves\r\n    //    B) address[1] : Boolean flag indicating if Seller Disapproves\r\n    //    C) address[2] : Boolean flag indicating if Mediator Disapproves\r\n    mapping (string => bool[3]) private mediatedSalesTransactionDisapprovedByParties;\r\n    \r\n    event MediatedSalesTransactionHasBeenFullyApproved(string _mediatedSalesTransactionIpfsHash);\r\n    event MediatedSalesTransactionHasBeenFullyDisapproved(string _mediatedSalesTransactionIpfsHash);\r\n    \r\n    // Below is the Contract Address of the FranklinDecentralizedMarketplace Contract that deployed this Contract - the \r\n    // FranklinDecentralizedMarketplaceMediation Contract - via the constructor of the FranklinDecentralizedMarketplace Contract.\r\n    // The Contract code had to be split in two, because the Etherum Virtual Machine (EVM) would not allow deployment of a Contract\r\n    // that has more than 24576 bytes. So, the decision was made to SPLIT the code into the FranklinDecentralizedMarketplace \r\n    // and FranklinDecentralizedMarketplaceMediation Contracts where the FranklinDecentralizedMarketplace would deploy the\r\n    // FranklinDecentralizedMarketplaceMediation Contract via it's Constructor. \r\n    address public franklinDecentralizedMarketplaceContractAddress;\r\n    \r\n    modifier onlyContractOwnerMayExecute {\r\n        require(msg.sender == franklinDecentralizedMarketplaceContractAddress, \"Only the Ethereum Address that deployed THIS Contract may execute any of it's public methods!\");\r\n        _;\r\n    }\r\n    \r\n    // We're getting the Address of the FranklinDecentralizedMarketplace Contract that deployed THIS FranklinDecentralizedMarketplaceMediation via the\r\n    // constructor of this FranklinDecentralizedMarketplaceMediation Contract.\r\n    constructor() public {\r\n        franklinDecentralizedMarketplaceContractAddress = msg.sender;\r\n    }\r\n    \r\n    // Returns back the Contract Address of the FranklinDecentralizedMarketplace Contract that deployed THIS FranklinDecentralizedMarketplaceMediation \r\n    // Contract via the constructor of the FranklinDecentralizedMarketplace Contract. \r\n    function getFranklinDecentralizedMarketplaceContractAddress() external view returns (address) {\r\n        return franklinDecentralizedMarketplaceContractAddress;\r\n    }\r\n    \r\n    // Private Utility function used to add a given Ethereum Address as a Mediator in the \"listOfMediators\". The given Ethereum Address - \"_mediatorAddressString\" - used \r\n    // as input to this method is the string format version of the Ethereum Address obtained from the \"_addressToString\" method.\r\n    //\r\n    // Assumption: Since this is an internal private method, will assume that input \"_mediatorAddressString\" argument is valid.\r\n    function _addMediator(address _mediatorAddress) private {\r\n        if (mediatorExistsMap[_mediatorAddress]) {\r\n            return;\r\n        }\r\n        \r\n        string memory _mediatorAddressString = GeneralUtilities._addressToString(_mediatorAddress);\r\n        \r\n        // Link the new node \r\n        listOfMediators[_mediatorAddressString][PREV] = EMPTY_STRING;\r\n        listOfMediators[_mediatorAddressString][NEXT] = listOfMediators[EMPTY_STRING][NEXT];\r\n    \r\n        // Insert the new node\r\n        listOfMediators[listOfMediators[EMPTY_STRING][NEXT]][PREV] = _mediatorAddressString;\r\n        listOfMediators[EMPTY_STRING][NEXT] = _mediatorAddressString;\r\n        \r\n        numberOfMediators = GeneralUtilities._safeMathAdd(numberOfMediators, 1);\r\n        mediatorExistsMap[_mediatorAddress] = true;\r\n    }\r\n\r\n    // Adds or Updates a Mediator with the given \"_mediatorIpfsHashDescription\", which refers to a JSON-formatted string stored in the IPFS Storage System.\r\n    // The \"msg.sender\" will be the Ethereum Address of the entity wishing to become a Mediator in this Smart Contract. This method allows anyone with an Ethereum \r\n    // Address to add himself/herself as a Mediator.\r\n    function addOrUpdateMediator(string memory _mediatorIpfsHashDescription) public {\r\n        require(!GeneralUtilities._compareStringsEqual(_mediatorIpfsHashDescription, EMPTY_STRING), \"Cannot have an empty String for the IPFS Hash Key Description of a Mediator!\");\r\n        descriptionInfoAboutMediators[msg.sender] = _mediatorIpfsHashDescription;\r\n        \r\n        _addMediator(msg.sender);\r\n    }\r\n    \r\n    // Private Utility function used to remove a given Ethereum Address as a Mediator in the \"listOfMediators\". The given Ethereum Address - \"_mediatorAddressString\" - used \r\n    // as input to this method is the string format version of the Ethereum Address obtained from the \"_addressToString\" method.\r\n    //\r\n    // Assumption: Since this is an internal private method, will assume that input \"_mediatorAddressString\" argument is valid.    \r\n    function _removeMediator(address _mediatorAddress) private {\r\n        if (!mediatorExistsMap[_mediatorAddress]) {\r\n            return;\r\n        }\r\n        \r\n        string memory _mediatorAddressString = GeneralUtilities._addressToString(_mediatorAddress);\r\n        \r\n        // Stitch the neighbours together\r\n        listOfMediators[ listOfMediators[_mediatorAddressString][PREV] ][NEXT] = listOfMediators[_mediatorAddressString][NEXT];\r\n        listOfMediators[ listOfMediators[_mediatorAddressString][NEXT] ][PREV] = listOfMediators[_mediatorAddressString][PREV];\r\n    \r\n        // Delete state storage\r\n        delete listOfMediators[_mediatorAddressString][PREV];\r\n        delete listOfMediators[_mediatorAddressString][NEXT];\r\n        \r\n        numberOfMediators = GeneralUtilities._safeMathSubtract(numberOfMediators, 1);\r\n        delete mediatorExistsMap[_mediatorAddress];\r\n        \r\n        // We do not wish to remove the Mediator Description nor any other Mediator information, because the mediator may be involved Mediating some sales, and we wish \r\n        // to keep such information around.\r\n    }\r\n    \r\n    // Removes a Mediator from this Smart Contract. The \"msg.sender\" will be the Ethereum Address of the entity wishing to remove himself/herself as a Mediator in this Smart Contract. \r\n    // If there are any pending Sales that the Mediator is involved, the Sales and other information will still be kept.\r\n    // This method allows anyone with an Ethereum  Address to remove himself/herself as a Mediator in this Smart Contract. \r\n    function removeMediator()  external {\r\n        _removeMediator(msg.sender);\r\n    }\r\n    \r\n    // Gets the Mediator Ethereum Address at the given \"_index\" from the \"listOfMediators\" double-linked list.\r\n    //\r\n    // Input Parameter:\r\n    // _index : Index number into the \"listOfMediators\" double-linked list.\r\n    //              Index starts at 0.\r\n    //\r\n    // Returns:\r\n    // 1) If the \"_index\" is less than the \"numberOfMediators\", then the Etheruem Address of the Mediator at the given \"_index\" into the \"listOfMediators\" double-linked list\r\n    //    is returned.\r\n    // 2) If the \"_index\" is greater than or equal to the \"numberOfMediators\", then an Exception is thrown via the \"require\" below.\r\n    function getMediatorAddress(uint _index) external view returns (address) {\r\n        require(_index < numberOfMediators, \"Index value given is greater than or equal to the Number of Mediators! It should be less than the Number of Mediators!\");\r\n        \r\n        // The \"key\" below is the Ethereum Address in string format that is in the \"listOfMediators\" double-linked list.\r\n        \r\n        uint keyCount = 0;\r\n        string memory key = EMPTY_STRING;\r\n        while (true) {\r\n            key = listOfMediators[key][NEXT];\r\n            if (keyCount == _index) {\r\n                break;\r\n            }\r\n            \r\n            keyCount++;\r\n        }\r\n        \r\n        return GeneralUtilities._parseEthereumAddressStringToAddress(key);    \r\n    }\r\n    \r\n    // Gets the Number of Mediators in the \"listOfMediators\".\r\n    function getNumberOfMediators() external view returns (uint) {\r\n        return numberOfMediators;\r\n    }\r\n    \r\n    // Returns back a boolean value to determine if the given \"_mediatorAddres\" is in the \"listOfMediators\".\r\n    function mediatorExists(address _mediatorAddress) external view returns (bool) {\r\n        return mediatorExistsMap[_mediatorAddress];\r\n    }\r\n    \r\n    // Determines if the given \"_mediatedSalesTransactionIpfsHash\" Mediated Sales Transaction is in the Approved State. It is in the Approved State \r\n    // if 2-out-of-3 Buyer, Seller, and/or Mediator Approve it.\r\n    function _mediatedSalesTransactionHasBeenApproved(string memory _mediatedSalesTransactionIpfsHash) private view returns (bool) {\r\n        uint numberOfApprovals = 0;\r\n        for (uint i = 0; i < 3; i++) {\r\n            if (mediatedSalesTransactionApprovedByParties[_mediatedSalesTransactionIpfsHash][i]) {\r\n                numberOfApprovals++;\r\n            }\r\n        }\r\n        \r\n        return (numberOfApprovals >= 2);\r\n    }\r\n    \r\n    // Determines if the given \"_mediatedSalesTransactionIpfsHash\" Mediated Sales Transaction is in the Disapprived State. It is in the Disapproved State \r\n    // if 2-out-of-3 Buyer, Seller, and/or Mediator Disapprove it.    \r\n    function _mediatedSalesTransactionHasBeenDisapproved(string memory _mediatedSalesTransactionIpfsHash) private view returns (bool) {\r\n        uint numberOfDisapprovals = 0;\r\n        for (uint i = 0; i < 3; i++) {\r\n            if (mediatedSalesTransactionDisapprovedByParties[_mediatedSalesTransactionIpfsHash][i]) {\r\n                numberOfDisapprovals++;\r\n            }\r\n        }\r\n        \r\n        return (numberOfDisapprovals >= 2);\r\n    }    \r\n    \r\n    // This method allows one of the parties involved in a Mediated Sales Transaction to Approve the given \"_mediatedSalesTransactionIpfsHash\" Mediated \r\n    // Sales Transaction. \r\n    //\r\n    // Input Parameters:\r\n    // 1) msg.sender : The Ethereum Address of one of the parties\r\n    // 2) _mediatedSalesTransactionIpfsHash : IPFS Hash string value that uniquely identifies the Mediated Sales Transaction. This IPFS Hash string value refers to   \r\n    //    what should be JSON-formatted string describing the Sale stored in the IPFS Storage System.\r\n    function approveMediatedSalesTransaction(string memory _mediatedSalesTransactionIpfsHash) public {\r\n        require(mediatedSalesTransactionExists[_mediatedSalesTransactionIpfsHash], \"Given Mediated Sales Transaction IPFS Hash does not exist!\");\r\n        \r\n        bool allowedToApprove = (mediatedSalesTransactionAddresses[_mediatedSalesTransactionIpfsHash][BUYER_INDEX] == msg.sender) ||\r\n                                (mediatedSalesTransactionAddresses[_mediatedSalesTransactionIpfsHash][SELLER_INDEX] == msg.sender) ||\r\n                                (mediatedSalesTransactionAddresses[_mediatedSalesTransactionIpfsHash][MEDIATOR_INDEX] == msg.sender);\r\n        require(allowedToApprove, \"Not allowed to Approve Mediated Sales Transaction, because Message Sender is neither the Buyer, Seller, or Mediator!\");\r\n        \r\n        // If 2-out-of-3 of the Buyer, Seller, and/or Mediator have Disapproved the Mediated Sales Transaction, then it's status cannot be changed, because the Buyer has already been refunded \r\n        // the amount he/she paid.\r\n        require(!_mediatedSalesTransactionHasBeenDisapproved(_mediatedSalesTransactionIpfsHash), \r\n            \"Mediated Sales Transaction has already been Disapproved by at least 2-out-of-3 of the Buyer, Seller, and/or Mediator! Cannot Approve at this point!\");\r\n        \r\n        uint indexBuyerSellerOrMediator = 0;\r\n        for (uint i = 0; i < 3; i++) {\r\n            if (mediatedSalesTransactionAddresses[_mediatedSalesTransactionIpfsHash][i] == msg.sender) {\r\n                indexBuyerSellerOrMediator = i;\r\n            }\r\n        }\r\n        \r\n        // If the Mediated Sales Transaction has already been Approved by 2-out-of-3 Buyer, Seller, and/or Mediator, then just note the approval from the \"msg.sender\" and that's it, because at \r\n        // this point the Seller Address has already been sent 95% of the Sales Amount, and the Mediator has already been sent 5% of the Sales Amount.\r\n        if (_mediatedSalesTransactionHasBeenApproved(_mediatedSalesTransactionIpfsHash)) {\r\n            mediatedSalesTransactionApprovedByParties[_mediatedSalesTransactionIpfsHash][indexBuyerSellerOrMediator] = true;\r\n            return;\r\n        }\r\n        \r\n        // Note the approval from the \"msg.sender\" Address. If one approves, than one cannot disapprove. Perhaps their's been a change of mind before FINAL Approval or Disapproval.\r\n        mediatedSalesTransactionApprovedByParties[_mediatedSalesTransactionIpfsHash][indexBuyerSellerOrMediator] = true;\r\n        mediatedSalesTransactionDisapprovedByParties[_mediatedSalesTransactionIpfsHash][indexBuyerSellerOrMediator] = false;\r\n        \r\n        // If after the \"msg.sender\" Approves the Mediated Sales Transaction, this reaches a State where 2-out-of-3 Buyer, Seller, and/or Mediator have Approved, then send 95% of the Sales Amount \r\n        // to the Seller Address and 5% of the Sales Amount to the Mediator Address.\r\n        if (_mediatedSalesTransactionHasBeenApproved(_mediatedSalesTransactionIpfsHash)) {\r\n            uint totalSalesAmount = mediatedSalesTransactionAmount[_mediatedSalesTransactionIpfsHash];\r\n            uint amountOfWeiToSendMediator = GeneralUtilities._getPercentageOfTotalAmount(uint256(5), uint256(100), uint256(totalSalesAmount));\r\n            uint amountOfWeiToSendSeller = GeneralUtilities._safeMathSubtract(totalSalesAmount, amountOfWeiToSendMediator);\r\n            \r\n            address payable sellerAddress = GeneralUtilities._convertAddressToAddressPayable(mediatedSalesTransactionAddresses[_mediatedSalesTransactionIpfsHash][SELLER_INDEX]);\r\n            address payable mediatorAddress = GeneralUtilities._convertAddressToAddressPayable(mediatedSalesTransactionAddresses[_mediatedSalesTransactionIpfsHash][MEDIATOR_INDEX]);\r\n            \r\n            sellerAddress.transfer(amountOfWeiToSendSeller);\r\n            mediatorAddress.transfer(amountOfWeiToSendMediator);\r\n            \r\n            emit MediatedSalesTransactionHasBeenFullyApproved(_mediatedSalesTransactionIpfsHash);\r\n        }\r\n    }\r\n    \r\n    // This method allows one of the parties involved in a Mediated Sales Transaction to Disapprove the given \"_mediatedSalesTransactionIpfsHash\" Mediated \r\n    // Sales Transaction. The \"msg.sender\" is the Ethereaum Address of one of the parties involved in the given \"_mediatedSalesTransactionIpfsHash\" Mediated \r\n    // Sales Transaction.\r\n    //\r\n    // Input Parameter:\r\n    // 1) _mediatedSalesTransactionIpfsHash : IPFS Hash string value that uniquely identifies the Mediated Sales Transaction. This IPFS Hash string value refers to   \r\n    //    what should be JSON-formatted string describing the Sale stored in the IPFS Storage System.\r\n    // 2) msg.sender : Ethereum Address of the party attempting to Disapprove the Mediated Sales Transaction\r\n    function disapproveMediatedSalesTransaction(string memory _mediatedSalesTransactionIpfsHash) public {\r\n        require(mediatedSalesTransactionExists[_mediatedSalesTransactionIpfsHash], \"Given Mediated Sales Transaction IPFS Hash does not exist!\");\r\n        \r\n        bool allowedToDisapprove = (mediatedSalesTransactionAddresses[_mediatedSalesTransactionIpfsHash][BUYER_INDEX] == msg.sender) ||\r\n                                (mediatedSalesTransactionAddresses[_mediatedSalesTransactionIpfsHash][SELLER_INDEX] == msg.sender) ||\r\n                                (mediatedSalesTransactionAddresses[_mediatedSalesTransactionIpfsHash][MEDIATOR_INDEX] == msg.sender);\r\n        require(allowedToDisapprove, \"Not allowed to Disapprove Mediated Sales Transaction, because Message Sender is neither the Buyer, Seller, or Mediator!\");\r\n        \r\n        // If 2-out-of-3 of the Buyer, Seller, and/or Mediator have Disapproved the Mediated Sales Transaction, then it's status cannot be changed, because the Seller has already been \r\n        // paid 95% of the Sales Amount, and the Mediator has already been paid 5% of the Sales Amount.\r\n        require(!_mediatedSalesTransactionHasBeenApproved(_mediatedSalesTransactionIpfsHash), \r\n            \"Mediated Sales Transaction has already been Approved by at least 2-out-of-3 of the Buyer, Seller, and/or Mediator! Cannot Disapprove at this point!\");\r\n        \r\n        uint indexBuyerSellerOrMediator = 0;\r\n        for (uint i = 0; i < 3; i++) {\r\n            if (mediatedSalesTransactionAddresses[_mediatedSalesTransactionIpfsHash][i] == msg.sender) {\r\n                indexBuyerSellerOrMediator = i;\r\n            }\r\n        }\r\n        \r\n        // If the Mediated Sales Transaction has already been Disapproved by 2-out-of-3 Buyer, Seller, and/or Mediator, then just note the disapproval from the \"msg.sender\" \r\n        // and that's it, because at this point the Buyer has alreaady been refunded the Sales Amount.\r\n        if (_mediatedSalesTransactionHasBeenDisapproved(_mediatedSalesTransactionIpfsHash)) {\r\n            mediatedSalesTransactionDisapprovedByParties[_mediatedSalesTransactionIpfsHash][indexBuyerSellerOrMediator] = true;\r\n            return;\r\n        }\r\n        \r\n        // Note the disapproval from the \"msg.sender\" Address. If one disapproves, than one cannot approve. Perhaps their's been a change of mind before FINAL Approval or Disapproval.\r\n        mediatedSalesTransactionApprovedByParties[_mediatedSalesTransactionIpfsHash][indexBuyerSellerOrMediator] = false;\r\n        mediatedSalesTransactionDisapprovedByParties[_mediatedSalesTransactionIpfsHash][indexBuyerSellerOrMediator] = true;\r\n        \r\n        // If after the \"msg.sender\" Disapproves the Mediated Sales Transaction, this reaches a State where 2-out-of-3 Buyer, Seller, and/or Mediator have Disapproved, then send 100% of the Sales Amount \r\n        // back to the Buyer Address.\r\n        if (_mediatedSalesTransactionHasBeenApproved(_mediatedSalesTransactionIpfsHash)) {\r\n            uint totalSalesAmount = mediatedSalesTransactionAmount[_mediatedSalesTransactionIpfsHash];\r\n        \r\n            address payable buyerAddress = GeneralUtilities._convertAddressToAddressPayable(mediatedSalesTransactionAddresses[_mediatedSalesTransactionIpfsHash][BUYER_INDEX]);\r\n            buyerAddress.transfer(totalSalesAmount);\r\n            \r\n            emit MediatedSalesTransactionHasBeenFullyDisapproved(_mediatedSalesTransactionIpfsHash);\r\n        }\r\n    }\r\n    \r\n    // Gets the Description of a Mediator identified by the given \"_mediatorAddress\". The Description will be the IPFS Hash where the JSON-formatted Description of the Mediator exists.\r\n    // If no such IPFS Hash Key Description exists, then an EMPTY_STRING will be returned. \r\n    function getMediatorIpfsHashDescription(address _mediatorAddress) external view returns (string memory) {\r\n        return descriptionInfoAboutMediators[_mediatorAddress];\r\n    }   \r\n    \r\n    // Allows a Buyer - identified by the \"_buyerAddress\" Ethereum Address that indirectly calls this methiod via the \"FranklinDecentralizedMarketplace.purchaseItemWithMediator\" \r\n    // method to purchase a \"_quantity\" of a specific Item - identified  by it's \"_keyItemIpfsHash\" - from a given Seller - identified by it's \"_sellerAddress\" Ethereum Address AND use a \r\n    // Mediator - identified by the given \"_mediatorAddress\" - to mediate the Mediatiations Sales Transaction - identified by the the given \"_mediatedSalesTransactionIpfsHash\" ID. \r\n    //\r\n    // The FranklinDecentralizedMarketplaceMediation Contract mainly handles Sales Transactions that involve a Mediator. Thus, these would be referred to as \r\n    // Mediated Sales Transactions that involve a Buyer, Seller, and Mediator. Each Buyer, Seller, and Mediator will have a different Ethereum Address.\r\n    //\r\n    // The FranklinDecentralizedMarketplaceMediation Contract is used to store the Escrow ETH/WEI (i.e., \"totalAmountOfWeiNeededToPurchase\") used to pay for Items involved in ALL Mediated Sales Transactions. \r\n    // The Mediated Sales Transaction works as follows:\r\n    // 1) If 2-out-of-3 of the Buyer, Seller, and/or Mediator Approves this Mediated Sales Transaction, then 95% of the \"totalAmountOfWeiNeededToPurchase\" will be sent to the Seller Address\r\n    //    and 5% of the \"totalAmountOfWeiNeededToPurchase\" will be sent to the Mediator Address. \r\n    // 2) 2-out-of-3 of the Buyer, Seller, and/or Mediator Disapproves this Mediated Sales Transaction, then the \"totalAmountOfWeiNeededToPurchase\" will be sent back to the Buyer Address.\r\n    // 3) If neither (1) or (2) above happens, then the Mediated Sales Transaction will be held in a State of Limbo and the \"totalAmountOfWeiNeededToPurchase\" will be kept inside \r\n    //    of this Contract.\r\n    //\r\n    // Input Parameters:\r\n    // 1) _sellerAddress : Ethereum Address of the Seller\r\n    // 2) _keyItemIpfsHash : This is the IPFS Hash of the Item being sold that points to a JSON-formatted string in the IPFS Storage System.\r\n    // 3) _mediatorAddress : Ethereum Address of the Mediator\r\n    // 4) _quantity : Quantity of the Item that the \"msg.sender\" Buyer wishes to purchase. \r\n    // 5) _mediatedSalesTransactionIpfsHash : This is the IPFS Hash of the Mediated Sales Transaction that points to a JSON-formatted string in the IPFS Storage System.\r\n    // 6) _buyerAddress : Ethereum Address of the Buyer    \r\n    function purchaseItemWithMediator(address _buyerAddress, address _sellerAddress, address _mediatorAddress, string memory _mediatedSalesTransactionIpfsHash, \r\n                uint totalAmountOfWeiNeededToPurchase) onlyContractOwnerMayExecute public {\r\n        require(!mediatedSalesTransactionExists[_mediatedSalesTransactionIpfsHash], \"Mediated Sales Transaction already exists!\");\r\n\r\n        require(mediatorExistsMap[_mediatorAddress], \"Given Mediator Address does not exist as a Mediator!\");\r\n        \r\n        // Keep track of the existence of the Mediated Sales Transaction so that it can be Approved or Disapproved by the Buyer, Seller, and/or Mediator in the future.\r\n        mediatedSalesTransactionExists[_mediatedSalesTransactionIpfsHash] = true;\r\n        mediatedSalesTransactionAddresses[_mediatedSalesTransactionIpfsHash][BUYER_INDEX] = _buyerAddress;\r\n        mediatedSalesTransactionAddresses[_mediatedSalesTransactionIpfsHash][SELLER_INDEX] = _sellerAddress;\r\n        mediatedSalesTransactionAddresses[_mediatedSalesTransactionIpfsHash][MEDIATOR_INDEX] = _mediatorAddress;\r\n        \r\n        // The \"totalAmountOfWeiNeededToPurchase\" amount will automatically be sent to this Contract in Escrow in a Mediated Sales Transaction. We need to store the \r\n        // \"totalAmountOfWeiNeededToPurchase\" as follows so that when:\r\n        // 1) 2-out-of-3 of the Buyer, Seller, and/or Mediator Approves this Mediated Sales Transaction, the 95% of the \"totalAmountOfWeiNeededToPurchase\" can be sent to the Seller Address and 5% \r\n        //    of the \"msg.value\" can be sent to the Mediator Address. \r\n        // 2) 2-out-of-3 of the Buyer, Seller, and/or Mediator Disapproves this Mediated Sales Transaction, the \"totalAmountOfWeiNeededToPurchase\" can be sent back to the Buyer Address.\r\n        // 3) If neither (1) or (2) above happens, then the Mediated Sales Transaction will be held in a State of Limbo and the \"totalAmountOfWeiNeededToPurchase\" will be kept inside \r\n        //    of this Contract.\r\n        mediatedSalesTransactionAmount[_mediatedSalesTransactionIpfsHash] = totalAmountOfWeiNeededToPurchase;\r\n        \r\n        numberOfMediationsMediatorInvolved[_mediatorAddress] = GeneralUtilities._safeMathAdd(numberOfMediationsMediatorInvolved[_mediatorAddress], 1);\r\n    }\r\n    \r\n    // Gets the Number of Mediations that the given \"_mediatorAddress\" Mediator has been involved.\r\n    function getNumberOfMediationsMediatorInvolved(address _mediatorAddress) external view returns (uint) {\r\n        require(mediatorExistsMap[_mediatorAddress], \"Given Mediator Address does not exist as a Mediator!\");\r\n        return numberOfMediationsMediatorInvolved[_mediatorAddress];\r\n    }\r\n}",
  "sourcePath": "/mnt/d/Kingsland-University-Decentralized-Marketplace-Decentralized-Application-Project-2019/contracts/FranklinDecentralizedMarketplaceMediation.sol",
  "compiler": {
    "name": "solc",
    "version": "0.5.8+commit.23d335f2.Emscripten.clang"
  },
  "schemaVersion": "3.0.16",
  "updatedAt": "2019-11-20T15:28:29.554Z",
  "devdoc": {
    "methods": {}
  },
  "userdoc": {
    "methods": {}
  }
}