{
  "contractName": "FranklinDecentralizedMarketplaceMediation",
  "abi": [
    {
      "constant": true,
      "inputs": [],
      "name": "franklinDecentralizedMarketplaceContractAddress",
      "outputs": [
        {
          "name": "",
          "type": "address"
        }
      ],
      "payable": false,
      "stateMutability": "view",
      "type": "function"
    },
    {
      "inputs": [],
      "payable": false,
      "stateMutability": "nonpayable",
      "type": "constructor"
    },
    {
      "constant": true,
      "inputs": [],
      "name": "getFranklinDecentralizedMarketplaceContractAddress",
      "outputs": [
        {
          "name": "",
          "type": "address"
        }
      ],
      "payable": false,
      "stateMutability": "view",
      "type": "function"
    },
    {
      "constant": false,
      "inputs": [
        {
          "name": "_mediatorIpfsHashDescription",
          "type": "string"
        }
      ],
      "name": "addOrUpdateMediator",
      "outputs": [],
      "payable": false,
      "stateMutability": "nonpayable",
      "type": "function"
    },
    {
      "constant": false,
      "inputs": [],
      "name": "removeMediator",
      "outputs": [],
      "payable": false,
      "stateMutability": "nonpayable",
      "type": "function"
    },
    {
      "constant": true,
      "inputs": [
        {
          "name": "_index",
          "type": "uint256"
        }
      ],
      "name": "getMediatorAddress",
      "outputs": [
        {
          "name": "",
          "type": "address"
        }
      ],
      "payable": false,
      "stateMutability": "view",
      "type": "function"
    },
    {
      "constant": true,
      "inputs": [],
      "name": "getNumberOfMediators",
      "outputs": [
        {
          "name": "",
          "type": "uint256"
        }
      ],
      "payable": false,
      "stateMutability": "view",
      "type": "function"
    },
    {
      "constant": true,
      "inputs": [
        {
          "name": "_mediatorAddress",
          "type": "address"
        }
      ],
      "name": "mediatorExists",
      "outputs": [
        {
          "name": "",
          "type": "bool"
        }
      ],
      "payable": false,
      "stateMutability": "view",
      "type": "function"
    },
    {
      "constant": false,
      "inputs": [
        {
          "name": "_mediatedSalesTransactionIpfsHash",
          "type": "string"
        }
      ],
      "name": "approveMediatedSalesTransaction",
      "outputs": [],
      "payable": false,
      "stateMutability": "nonpayable",
      "type": "function"
    },
    {
      "constant": false,
      "inputs": [
        {
          "name": "_mediatedSalesTransactionIpfsHash",
          "type": "string"
        }
      ],
      "name": "disapproveMediatedSalesTransaction",
      "outputs": [],
      "payable": false,
      "stateMutability": "nonpayable",
      "type": "function"
    },
    {
      "constant": true,
      "inputs": [
        {
          "name": "_mediatorAddress",
          "type": "address"
        }
      ],
      "name": "getMediatorIpfsHashDescription",
      "outputs": [
        {
          "name": "",
          "type": "string"
        }
      ],
      "payable": false,
      "stateMutability": "view",
      "type": "function"
    },
    {
      "constant": false,
      "inputs": [
        {
          "name": "_buyerAddress",
          "type": "address"
        },
        {
          "name": "_sellerAddress",
          "type": "address"
        },
        {
          "name": "_mediatorAddress",
          "type": "address"
        },
        {
          "name": "_mediatedSalesTransactionIpfsHash",
          "type": "string"
        },
        {
          "name": "totalAmountOfWeiNeededToPurchase",
          "type": "uint256"
        }
      ],
      "name": "purchaseItemWithMediator",
      "outputs": [],
      "payable": false,
      "stateMutability": "nonpayable",
      "type": "function"
    },
    {
      "constant": true,
      "inputs": [
        {
          "name": "_mediatorAddress",
          "type": "address"
        }
      ],
      "name": "getNumberOfMediationsMediatorInvolved",
      "outputs": [
        {
          "name": "",
          "type": "uint256"
        }
      ],
      "payable": false,
      "stateMutability": "view",
      "type": "function"
    }
  ],
  "bytecode": "0x608060405234801561001057600080fd5b5033600a60006101000a81548173ffffffffffffffffffffffffffffffffffffffff021916908373ffffffffffffffffffffffffffffffffffffffff160217905550613c87806100616000396000f3fe608060405234801561001057600080fd5b50600436106100b45760003560e01c806340c31a8c1161007157806340c31a8c1461029a578063bcf383a814610357578063c128f208146103c5578063c63b7eb41461040f578063d94695a014610534578063e35c61cb146105ef576100b4565b80630ad2c9d1146100b95780631967766b146100d75780631a67405c146100e157806330451e8e1461013d578063331d7ce9146101f85780633ffcf36f14610242575b600080fd5b6100c16106aa565b6040518082815260200191505060405180910390f35b6100df6106b4565b005b610123600480360360208110156100f757600080fd5b81019080803573ffffffffffffffffffffffffffffffffffffffff1690602001909291905050506106bf565b604051808215151515815260200191505060405180910390f35b6101f66004803603602081101561015357600080fd5b810190808035906020019064010000000081111561017057600080fd5b82018360208201111561018257600080fd5b803590602001918460018302840111640100000000831117156101a457600080fd5b91908080601f016020809104026020016040519081016040528093929190818152602001838380828437600081840152601f19601f820116905080830192505050505050509192919290505050610715565b005b610200611035565b604051808273ffffffffffffffffffffffffffffffffffffffff1673ffffffffffffffffffffffffffffffffffffffff16815260200191505060405180910390f35b6102846004803603602081101561025857600080fd5b81019080803573ffffffffffffffffffffffffffffffffffffffff16906020019092919050505061105b565b6040518082815260200191505060405180910390f35b6102dc600480360360208110156102b057600080fd5b81019080803573ffffffffffffffffffffffffffffffffffffffff169060200190929190505050611146565b6040518080602001828103825283818151815260200191508051906020019080838360005b8381101561031c578082015181840152602081019050610301565b50505050905090810190601f1680156103495780820380516001836020036101000a031916815260200191505b509250505060405180910390f35b6103836004803603602081101561036d57600080fd5b8101908080359060200190929190505050611227565b604051808273ffffffffffffffffffffffffffffffffffffffff1673ffffffffffffffffffffffffffffffffffffffff16815260200191505060405180910390f35b6103cd6113ea565b604051808273ffffffffffffffffffffffffffffffffffffffff1673ffffffffffffffffffffffffffffffffffffffff16815260200191505060405180910390f35b610532600480360360a081101561042557600080fd5b81019080803573ffffffffffffffffffffffffffffffffffffffff169060200190929190803573ffffffffffffffffffffffffffffffffffffffff169060200190929190803573ffffffffffffffffffffffffffffffffffffffff169060200190929190803590602001906401000000008111156104a257600080fd5b8201836020820111156104b457600080fd5b803590602001918460018302840111640100000000831117156104d657600080fd5b91908080601f016020809104026020016040519081016040528093929190818152602001838380828437600081840152601f19601f82011690508083019250505050505050919291929080359060200190929190505050611414565b005b6105ed6004803603602081101561054a57600080fd5b810190808035906020019064010000000081111561056757600080fd5b82018360208201111561057957600080fd5b8035906020019184600183028401116401000000008311171561059b57600080fd5b91908080601f016020809104026020016040519081016040528093929190818152602001838380828437600081840152601f19601f8201169050808301925050505050505091929192905050506119cc565b005b6106a86004803603602081101561060557600080fd5b810190808035906020019064010000000081111561062257600080fd5b82018360208201111561063457600080fd5b8035906020019184600183028401116401000000008311171561065657600080fd5b91908080601f016020809104026020016040519081016040528093929190818152602001838380828437600081840152601f19601f820116905080830192505050505050509192919290505050611a9b565b005b6000600254905090565b6106bd336122af565b565b6000600160008373ffffffffffffffffffffffffffffffffffffffff1673ffffffffffffffffffffffffffffffffffffffff16815260200190815260200160002060009054906101000a900460ff169050919050565b6006816040518082805190602001908083835b6020831061074b5780518252602082019150602081019050602083039250610728565b6001836020036101000a038019825116818451168082178552505050505050905001915050908152602001604051809103902060009054906101000a900460ff166107e1576040517f08c379a000000000000000000000000000000000000000000000000000000000815260040180806020018281038252603a815260200180613b30603a913960400191505060405180910390fd5b60003373ffffffffffffffffffffffffffffffffffffffff166005836040518082805190602001908083835b60208310610830578051825260208201915060208101905060208303925061080d565b6001836020036101000a038019825116818451168082178552505050505050905001915050908152602001604051809103902060006003811061086f57fe5b0160009054906101000a900473ffffffffffffffffffffffffffffffffffffffff1673ffffffffffffffffffffffffffffffffffffffff16148061097457503373ffffffffffffffffffffffffffffffffffffffff166005836040518082805190602001908083835b602083106108fb57805182526020820191506020810190506020830392506108d8565b6001836020036101000a038019825116818451168082178552505050505050905001915050908152602001604051809103902060016003811061093a57fe5b0160009054906101000a900473ffffffffffffffffffffffffffffffffffffffff1673ffffffffffffffffffffffffffffffffffffffff16145b80610a4057503373ffffffffffffffffffffffffffffffffffffffff166005836040518082805190602001908083835b602083106109c757805182526020820191506020810190506020830392506109a4565b6001836020036101000a0380198251168184511680821785525050505050509050019150509081526020016040518091039020600260038110610a0657fe5b0160009054906101000a900473ffffffffffffffffffffffffffffffffffffffff1673ffffffffffffffffffffffffffffffffffffffff16145b905080610a98576040517f08c379a00000000000000000000000000000000000000000000000000000000081526004018080602001828103825260748152602001806137fc6074913960800191505060405180910390fd5b610aa1826127d1565b15610af7576040517f08c379a00000000000000000000000000000000000000000000000000000000081526004018080602001828103825260938152602001806139096093913960a00191505060405180910390fd5b600080905060008090505b6003811015610be5573373ffffffffffffffffffffffffffffffffffffffff166005856040518082805190602001908083835b60208310610b585780518252602082019150602081019050602083039250610b35565b6001836020036101000a03801982511681845116808217855250505050505090500191505090815260200160405180910390208260038110610b9657fe5b0160009054906101000a900473ffffffffffffffffffffffffffffffffffffffff1673ffffffffffffffffffffffffffffffffffffffff161415610bd8578091505b8080600101915050610b02565b50610bef8361289a565b15610c905760016008846040518082805190602001908083835b60208310610c2c5780518252602082019150602081019050602083039250610c09565b6001836020036101000a03801982511681845116808217855250505050505090500191505090815260200160405180910390208260038110610c6a57fe5b602091828204019190066101000a81548160ff0219169083151502179055505050611032565b60016008846040518082805190602001908083835b60208310610cc85780518252602082019150602081019050602083039250610ca5565b6001836020036101000a03801982511681845116808217855250505050505090500191505090815260200160405180910390208260038110610d0657fe5b602091828204019190066101000a81548160ff02191690831515021790555060006009846040518082805190602001908083835b60208310610d5d5780518252602082019150602081019050602083039250610d3a565b6001836020036101000a03801982511681845116808217855250505050505090500191505090815260200160405180910390208260038110610d9b57fe5b602091828204019190066101000a81548160ff021916908315150217905550610dc38361289a565b1561102f5760006007846040518082805190602001908083835b60208310610e005780518252602082019150602081019050602083039250610ddd565b6001836020036101000a03801982511681845116808217855250505050505090500191505090815260200160405180910390205490506000610e456005606484612963565b90506000610e538383612986565b90506000610ef66005886040518082805190602001908083835b60208310610e905780518252602082019150602081019050602083039250610e6d565b6001836020036101000a0380198251168184511680821785525050505050509050019150509081526020016040518091039020600160038110610ecf57fe5b0160009054906101000a900473ffffffffffffffffffffffffffffffffffffffff166129f2565b90506000610f996005896040518082805190602001908083835b60208310610f335780518252602082019150602081019050602083039250610f10565b6001836020036101000a0380198251168184511680821785525050505050509050019150509081526020016040518091039020600260038110610f7257fe5b0160009054906101000a900473ffffffffffffffffffffffffffffffffffffffff166129f2565b90508173ffffffffffffffffffffffffffffffffffffffff166108fc849081150290604051600060405180830381858888f19350505050158015610fe1573d6000803e3d6000fd5b508073ffffffffffffffffffffffffffffffffffffffff166108fc859081150290604051600060405180830381858888f19350505050158015611028573d6000803e3d6000fd5b5050505050505b50505b50565b600a60009054906101000a900473ffffffffffffffffffffffffffffffffffffffff1681565b6000600160008373ffffffffffffffffffffffffffffffffffffffff1673ffffffffffffffffffffffffffffffffffffffff16815260200190815260200160002060009054906101000a900460ff166110ff576040517f08c379a0000000000000000000000000000000000000000000000000000000008152600401808060200182810382526034815260200180613bfd6034913960400191505060405180910390fd5b600460008373ffffffffffffffffffffffffffffffffffffffff1673ffffffffffffffffffffffffffffffffffffffff168152602001908152602001600020549050919050565b6060600360008373ffffffffffffffffffffffffffffffffffffffff1673ffffffffffffffffffffffffffffffffffffffff1681526020019081526020016000208054600181600116156101000203166002900480601f01602080910402602001604051908101604052809291908181526020018280546001816001161561010002031660029004801561121b5780601f106111f05761010080835404028352916020019161121b565b820191906000526020600020905b8154815290600101906020018083116111fe57829003601f168201915b50505050509050919050565b60006002548210611283576040517f08c379a0000000000000000000000000000000000000000000000000000000008152600401808060200182810382526076815260200180613a6e6076913960800191505060405180910390fd5b600080905060606040518060200160405280600081525090505b6001156113d8576000816040518082805190602001908083835b602083106112da57805182526020820191506020810190506020830392506112b7565b6001836020036101000a0380198251168184511680821785525050505050509050019150509081526020016040518091039020600060011515151581526020019081526020016000208054600181600116156101000203166002900480601f0160208091040260200160405190810160405280929190818152602001828054600181600116156101000203166002900480156113b75780601f1061138c576101008083540402835291602001916113b7565b820191906000526020600020905b81548152906001019060200180831161139a57829003601f168201915b50505050509050838214156113cb576113d8565b818060010192505061129d565b6113e181612a01565b92505050919050565b6000600a60009054906101000a900473ffffffffffffffffffffffffffffffffffffffff16905090565b600a60009054906101000a900473ffffffffffffffffffffffffffffffffffffffff1673ffffffffffffffffffffffffffffffffffffffff163373ffffffffffffffffffffffffffffffffffffffff16146114ba576040517f08c379a000000000000000000000000000000000000000000000000000000000815260040180806020018281038252605d81526020018061399c605d913960600191505060405180910390fd5b6006826040518082805190602001908083835b602083106114f057805182526020820191506020810190506020830392506114cd565b6001836020036101000a038019825116818451168082178552505050505050905001915050908152602001604051809103902060009054906101000a900460ff1615611587576040517f08c379a000000000000000000000000000000000000000000000000000000000815260040180806020018281038252602a8152602001806139f9602a913960400191505060405180910390fd5b600160008473ffffffffffffffffffffffffffffffffffffffff1673ffffffffffffffffffffffffffffffffffffffff16815260200190815260200160002060009054906101000a900460ff16611629576040517f08c379a0000000000000000000000000000000000000000000000000000000008152600401808060200182810382526034815260200180613bfd6034913960400191505060405180910390fd5b60016006836040518082805190602001908083835b60208310611661578051825260208201915060208101905060208303925061163e565b6001836020036101000a038019825116818451168082178552505050505050905001915050908152602001604051809103902060006101000a81548160ff021916908315150217905550846005836040518082805190602001908083835b602083106116e257805182526020820191506020810190506020830392506116bf565b6001836020036101000a038019825116818451168082178552505050505050905001915050908152602001604051809103902060006003811061172157fe5b0160006101000a81548173ffffffffffffffffffffffffffffffffffffffff021916908373ffffffffffffffffffffffffffffffffffffffff160217905550836005836040518082805190602001908083835b602083106117975780518252602082019150602081019050602083039250611774565b6001836020036101000a03801982511681845116808217855250505050505090500191505090815260200160405180910390206001600381106117d657fe5b0160006101000a81548173ffffffffffffffffffffffffffffffffffffffff021916908373ffffffffffffffffffffffffffffffffffffffff160217905550826005836040518082805190602001908083835b6020831061184c5780518252602082019150602081019050602083039250611829565b6001836020036101000a038019825116818451168082178552505050505050905001915050908152602001604051809103902060026003811061188b57fe5b0160006101000a81548173ffffffffffffffffffffffffffffffffffffffff021916908373ffffffffffffffffffffffffffffffffffffffff160217905550806007836040518082805190602001908083835b6020831061190157805182526020820191506020810190506020830392506118de565b6001836020036101000a038019825116818451168082178552505050505050905001915050908152602001604051809103902081905550611982600460008573ffffffffffffffffffffffffffffffffffffffff1673ffffffffffffffffffffffffffffffffffffffff168152602001908152602001600020546001612c5a565b600460008573ffffffffffffffffffffffffffffffffffffffff1673ffffffffffffffffffffffffffffffffffffffff168152602001908152602001600020819055505050505050565b6119e58160405180602001604052806000815250612ce2565b15611a3b576040517f08c379a000000000000000000000000000000000000000000000000000000000815260040180806020018281038252604c815260200180613ae4604c913960600191505060405180910390fd5b80600360003373ffffffffffffffffffffffffffffffffffffffff1673ffffffffffffffffffffffffffffffffffffffff1681526020019081526020016000209080519060200190611a8e929190613687565b50611a9833612dd1565b50565b6006816040518082805190602001908083835b60208310611ad15780518252602082019150602081019050602083039250611aae565b6001836020036101000a038019825116818451168082178552505050505050905001915050908152602001604051809103902060009054906101000a900460ff16611b67576040517f08c379a000000000000000000000000000000000000000000000000000000000815260040180806020018281038252603a815260200180613b30603a913960400191505060405180910390fd5b60003373ffffffffffffffffffffffffffffffffffffffff166005836040518082805190602001908083835b60208310611bb65780518252602082019150602081019050602083039250611b93565b6001836020036101000a0380198251168184511680821785525050505050509050019150509081526020016040518091039020600060038110611bf557fe5b0160009054906101000a900473ffffffffffffffffffffffffffffffffffffffff1673ffffffffffffffffffffffffffffffffffffffff161480611cfa57503373ffffffffffffffffffffffffffffffffffffffff166005836040518082805190602001908083835b60208310611c815780518252602082019150602081019050602083039250611c5e565b6001836020036101000a0380198251168184511680821785525050505050509050019150509081526020016040518091039020600160038110611cc057fe5b0160009054906101000a900473ffffffffffffffffffffffffffffffffffffffff1673ffffffffffffffffffffffffffffffffffffffff16145b80611dc657503373ffffffffffffffffffffffffffffffffffffffff166005836040518082805190602001908083835b60208310611d4d5780518252602082019150602081019050602083039250611d2a565b6001836020036101000a0380198251168184511680821785525050505050509050019150509081526020016040518091039020600260038110611d8c57fe5b0160009054906101000a900473ffffffffffffffffffffffffffffffffffffffff1673ffffffffffffffffffffffffffffffffffffffff16145b905080611e1e576040517f08c379a00000000000000000000000000000000000000000000000000000000081526004018080602001828103825260778152602001806138706077913960800191505060405180910390fd5b611e278261289a565b15611e7d576040517f08c379a0000000000000000000000000000000000000000000000000000000008152600401808060200182810382526093815260200180613b6a6093913960a00191505060405180910390fd5b600080905060008090505b6003811015611f6b573373ffffffffffffffffffffffffffffffffffffffff166005856040518082805190602001908083835b60208310611ede5780518252602082019150602081019050602083039250611ebb565b6001836020036101000a03801982511681845116808217855250505050505090500191505090815260200160405180910390208260038110611f1c57fe5b0160009054906101000a900473ffffffffffffffffffffffffffffffffffffffff1673ffffffffffffffffffffffffffffffffffffffff161415611f5e578091505b8080600101915050611e88565b50611f75836127d1565b156120165760016009846040518082805190602001908083835b60208310611fb25780518252602082019150602081019050602083039250611f8f565b6001836020036101000a03801982511681845116808217855250505050505090500191505090815260200160405180910390208260038110611ff057fe5b602091828204019190066101000a81548160ff02191690831515021790555050506122ac565b60006008846040518082805190602001908083835b6020831061204e578051825260208201915060208101905060208303925061202b565b6001836020036101000a0380198251168184511680821785525050505050509050019150509081526020016040518091039020826003811061208c57fe5b602091828204019190066101000a81548160ff02191690831515021790555060016009846040518082805190602001908083835b602083106120e357805182526020820191506020810190506020830392506120c0565b6001836020036101000a0380198251168184511680821785525050505050509050019150509081526020016040518091039020826003811061212157fe5b602091828204019190066101000a81548160ff0219169083151502179055506121498361289a565b156122a95760006007846040518082805190602001908083835b602083106121865780518252602082019150602081019050602083039250612163565b6001836020036101000a0380198251168184511680821785525050505050509050019150509081526020016040518091039020549050600061225d6005866040518082805190602001908083835b602083106121f757805182526020820191506020810190506020830392506121d4565b6001836020036101000a038019825116818451168082178552505050505050905001915050908152602001604051809103902060006003811061223657fe5b0160009054906101000a900473ffffffffffffffffffffffffffffffffffffffff166129f2565b90508073ffffffffffffffffffffffffffffffffffffffff166108fc839081150290604051600060405180830381858888f193505050501580156122a5573d6000803e3d6000fd5b5050505b50505b50565b600160008273ffffffffffffffffffffffffffffffffffffffff1673ffffffffffffffffffffffffffffffffffffffff16815260200190815260200160002060009054906101000a900460ff16612305576127ce565b60606123108261323d565b90506000816040518082805190602001908083835b602083106123485780518252602082019150602081019050602083039250612325565b6001836020036101000a038019825116818451168082178552505050505050905001915050908152602001604051809103902060006001151515158152602001908152602001600020600080836040518082805190602001908083835b602083106123c857805182526020820191506020810190506020830392506123a5565b6001836020036101000a0380198251168184511680821785525050505050509050019150509081526020016040518091039020600080151515158152602001908152602001600020604051808280546001816001161561010002031660029004801561246b5780601f1061244957610100808354040283529182019161246b565b820191906000526020600020905b815481529060010190602001808311612457575b505091505090815260200160405180910390206000600115151515815260200190815260200160002090805460018160011615610100020316600290046124b3929190613707565b506000816040518082805190602001908083835b602083106124ea57805182526020820191506020810190506020830392506124c7565b6001836020036101000a0380198251168184511680821785525050505050509050019150509081526020016040518091039020600080151515158152602001908152602001600020600080836040518082805190602001908083835b602083106125695780518252602082019150602081019050602083039250612546565b6001836020036101000a038019825116818451168082178552505050505050905001915050908152602001604051809103902060006001151515158152602001908152602001600020604051808280546001816001161561010002031660029004801561260d5780601f106125eb57610100808354040283529182019161260d565b820191906000526020600020905b8154815290600101906020018083116125f9575b505091505090815260200160405180910390206000801515151581526020019081526020016000209080546001816001161561010002031660029004612654929190613707565b506000816040518082805190602001908083835b6020831061268b5780518252602082019150602081019050602083039250612668565b6001836020036101000a038019825116818451168082178552505050505050905001915050908152602001604051809103902060008015151515815260200190815260200160002060006126df919061378e565b6000816040518082805190602001908083835b6020831061271557805182526020820191506020810190506020830392506126f2565b6001836020036101000a038019825116818451168082178552505050505050905001915050908152602001604051809103902060006001151515158152602001908152602001600020600061276a919061378e565b6127776002546001612986565b600281905550600160008373ffffffffffffffffffffffffffffffffffffffff1673ffffffffffffffffffffffffffffffffffffffff16815260200190815260200160002060006101000a81549060ff0219169055505b50565b6000806000905060008090505b600381101561288c576009846040518082805190602001908083835b6020831061281d57805182526020820191506020810190506020830392506127fa565b6001836020036101000a0380198251168184511680821785525050505050509050019150509081526020016040518091039020816003811061285b57fe5b602091828204019190069054906101000a900460ff161561287f5781806001019250505b80806001019150506127de565b506002811015915050919050565b6000806000905060008090505b6003811015612955576008846040518082805190602001908083835b602083106128e657805182526020820191506020810190506020830392506128c3565b6001836020036101000a0380198251168184511680821785525050505050509050019150509081526020016040518091039020816003811061292457fe5b602091828204019190069054906101000a900460ff16156129485781806001019250505b80806001019150506128a7565b506002811015915050919050565b60008061297085846134be565b905061297c81856135b0565b9150509392505050565b6000828211156129e1576040517f08c379a0000000000000000000000000000000000000000000000000000000008152600401808060200182810382526028815260200180613a466028913960400191505060405180910390fd5b600082840390508091505092915050565b60008082905080915050919050565b6000606082905060008090506000806000600290505b602a811015612c4d5761010084029350848181518110612a3357fe5b602001015160f81c60f81b60f81c60ff169250846001820181518110612a5557fe5b602001015160f81c60f81b60f81c60ff16915060618373ffffffffffffffffffffffffffffffffffffffff1610158015612aa6575060668373ffffffffffffffffffffffffffffffffffffffff1611155b15612ab657605783039250612b50565b60418373ffffffffffffffffffffffffffffffffffffffff1610158015612af4575060468373ffffffffffffffffffffffffffffffffffffffff1611155b15612b0457603783039250612b4f565b60308373ffffffffffffffffffffffffffffffffffffffff1610158015612b42575060398373ffffffffffffffffffffffffffffffffffffffff1611155b15612b4e576030830392505b5b5b60618273ffffffffffffffffffffffffffffffffffffffff1610158015612b8e575060668273ffffffffffffffffffffffffffffffffffffffff1611155b15612b9e57605782039150612c38565b60418273ffffffffffffffffffffffffffffffffffffffff1610158015612bdc575060468273ffffffffffffffffffffffffffffffffffffffff1611155b15612bec57603782039150612c37565b60308273ffffffffffffffffffffffffffffffffffffffff1610158015612c2a575060398273ffffffffffffffffffffffffffffffffffffffff1611155b15612c36576030820391505b5b5b81601084020184019350600281019050612a17565b5082945050505050919050565b600080828401905083811015612cd8576040517f08c379a00000000000000000000000000000000000000000000000000000000081526004018080602001828103825260208152602001807f5f736166654d617468416464203a204164646974696f6e204f766572666c6f7781525060200191505060405180910390fd5b8091505092915050565b6000816040516020018082805190602001908083835b60208310612d1b5780518252602082019150602081019050602083039250612cf8565b6001836020036101000a03801982511681845116808217855250505050505090500191505060405160208183030381529060405280519060200120836040516020018082805190602001908083835b60208310612d8d5780518252602082019150602081019050602083039250612d6a565b6001836020036101000a0380198251168184511680821785525050505050509050019150506040516020818303038152906040528051906020012014905092915050565b600160008273ffffffffffffffffffffffffffffffffffffffff1673ffffffffffffffffffffffffffffffffffffffff16815260200190815260200160002060009054906101000a900460ff1615612e285761323a565b6060612e338261323d565b9050604051806020016040528060008152506000826040518082805190602001908083835b60208310612e7b5780518252602082019150602081019050602083039250612e58565b6001836020036101000a03801982511681845116808217855250505050505090500191505090815260200160405180910390206000801515151581526020019081526020016000209080519060200190612ed6929190613687565b506000604051806020016040528060008152506040518082805190602001908083835b60208310612f1c5780518252602082019150602081019050602083039250612ef9565b6001836020036101000a0380198251168184511680821785525050505050509050019150509081526020016040518091039020600060011515151581526020019081526020016000206000826040518082805190602001908083835b60208310612f9b5780518252602082019150602081019050602083039250612f78565b6001836020036101000a0380198251168184511680821785525050505050509050019150509081526020016040518091039020600060011515151581526020019081526020016000209080546001816001161561010002031660029004613003929190613707565b5080600080604051806020016040528060008152506040518082805190602001908083835b6020831061304b5780518252602082019150602081019050602083039250613028565b6001836020036101000a03801982511681845116808217855250505050505090500191505090815260200160405180910390206000600115151515815260200190815260200160002060405180828054600181600116156101000203166002900480156130ef5780601f106130cd5761010080835404028352918201916130ef565b820191906000526020600020905b8154815290600101906020018083116130db575b50509150509081526020016040518091039020600080151515158152602001908152602001600020908051906020019061312a929190613687565b50806000604051806020016040528060008152506040518082805190602001908083835b60208310613171578051825260208201915060208101905060208303925061314e565b6001836020036101000a03801982511681845116808217855250505050505090500191505090815260200160405180910390206000600115151515815260200190815260200160002090805190602001906131cd929190613687565b506131db6002546001612c5a565b60028190555060018060008473ffffffffffffffffffffffffffffffffffffffff1673ffffffffffffffffffffffffffffffffffffffff16815260200190815260200160002060006101000a81548160ff021916908315150217905550505b50565b606060008273ffffffffffffffffffffffffffffffffffffffff1660001b905060606040518060400160405280601081526020017f303132333435363738396162636465660000000000000000000000000000000081525090506060602a6040519080825280601f01601f1916602001820160405280156132cd5781602001600182028038833980820191505090505b5090507f3000000000000000000000000000000000000000000000000000000000000000816000815181106132fe57fe5b60200101907effffffffffffffffffffffffffffffffffffffffffffffffffffffffffffff1916908160001a9053507f78000000000000000000000000000000000000000000000000000000000000008160018151811061335b57fe5b60200101907effffffffffffffffffffffffffffffffffffffffffffffffffffffffffffff1916908160001a90535060008090505b60148110156134b25782600485600c8401602081106133ab57fe5b1a60f81b7effffffffffffffffffffffffffffffffffffffffffffffffffffffffffffff1916901c60f81c60ff16815181106133e357fe5b602001015160f81c60f81b82600283026002018151811061340057fe5b60200101907effffffffffffffffffffffffffffffffffffffffffffffffffffffffffffff1916908160001a90535082600f60f81b85600c84016020811061344457fe5b1a60f81b1660f81c60ff168151811061345957fe5b602001015160f81c60f81b82600283026003018151811061347657fe5b60200101907effffffffffffffffffffffffffffffffffffffffffffffffffffffffffffff1916908160001a9053508080600101915050613390565b50809350505050919050565b6000808314806134ce5750600082145b156134dc57600090506135aa565b60008284029050828482816134ed57fe5b0414613544576040517f08c379a000000000000000000000000000000000000000000000000000000000815260040180806020018281038252602b815260200180613c31602b913960400191505060405180910390fd5b8383828161354e57fe5b04146135a5576040517f08c379a000000000000000000000000000000000000000000000000000000000815260040180806020018281038252602b815260200180613c31602b913960400191505060405180910390fd5b809150505b92915050565b600080821161360a576040517f08c379a00000000000000000000000000000000000000000000000000000000081526004018080602001828103825260228152602001806138e76022913960400191505060405180910390fd5b600082848161361557fe5b04905082848161362157fe5b0681840201841461367d576040517f08c379a0000000000000000000000000000000000000000000000000000000008152600401808060200182810382526023815260200180613a236023913960400191505060405180910390fd5b8091505092915050565b828054600181600116156101000203166002900490600052602060002090601f016020900481019282601f106136c857805160ff19168380011785556136f6565b828001600101855582156136f6579182015b828111156136f55782518255916020019190600101906136da565b5b50905061370391906137d6565b5090565b828054600181600116156101000203166002900490600052602060002090601f016020900481019282601f10613740578054855561377d565b8280016001018555821561377d57600052602060002091601f016020900482015b8281111561377c578254825591600101919060010190613761565b5b50905061378a91906137d6565b5090565b50805460018160011615610100020316600290046000825580601f106137b457506137d3565b601f0160209004906000526020600020908101906137d291906137d6565b5b50565b6137f891905b808211156137f45760008160009055506001016137dc565b5090565b9056fe4e6f7420616c6c6f77656420746f20417070726f7665204d656469617465642053616c6573205472616e73616374696f6e2c2062656361757365204d6573736167652053656e646572206973206e656974686572207468652042757965722c2053656c6c65722c206f72204d65646961746f72214e6f7420616c6c6f77656420746f20446973617070726f7665204d656469617465642053616c6573205472616e73616374696f6e2c2062656361757365204d6573736167652053656e646572206973206e656974686572207468652042757965722c2053656c6c65722c206f72204d65646961746f72215f736166654d617468446976696465203a2044656e6f6d696e61746f7220697320304d656469617465642053616c6573205472616e73616374696f6e2068617320616c7265616479206265656e20446973617070726f766564206279206174206c6561737420322d6f75742d6f662d33206f66207468652042757965722c2053656c6c65722c20616e642f6f72204d65646961746f72212043616e6e6f7420417070726f7665206174207468697320706f696e74214f6e6c792074686520457468657265756d20416464726573732074686174206465706c6f796564205448495320436f6e7472616374206d6179206578656375746520616e79206f662069742773207075626c6963206d6574686f6473214d656469617465642053616c6573205472616e73616374696f6e20616c726561647920657869737473215f736166654d617468446976696465203a204469766973696f6e204f766572666c6f775f736166654d6174685375627472616374203a205375627472616374696f6e204f766572666c6f77496e6465782076616c756520676976656e2069732067726561746572207468616e206f7220657175616c20746f20746865204e756d626572206f66204d65646961746f7273212049742073686f756c64206265206c657373207468616e20746865204e756d626572206f66204d65646961746f72732143616e6e6f74206861766520616e20656d70747920537472696e6720666f722074686520495046532048617368204b6579204465736372697074696f6e206f662061204d65646961746f7221476976656e204d656469617465642053616c6573205472616e73616374696f6e2049504653204861736820646f6573206e6f74206578697374214d656469617465642053616c6573205472616e73616374696f6e2068617320616c7265616479206265656e20417070726f766564206279206174206c6561737420322d6f75742d6f662d33206f66207468652042757965722c2053656c6c65722c20616e642f6f72204d65646961746f72212043616e6e6f7420446973617070726f7665206174207468697320706f696e7421476976656e204d65646961746f72204164647265737320646f6573206e6f742065786973742061732061204d65646961746f72215f736166654d6174684d756c7469706c79203a204d756c7469706c69636174696f6e204f766572666c6f77a165627a7a72305820f04be6c55ab1f3881d14e3c1d3eafca8239c1c2a4bc996d7195d131bf177e57c0029",
  "source": "pragma solidity >=0.4.22 <0.6.0;\r\n\r\nimport \"./GeneralUtilities.sol\";\r\n\r\ncontract FranklinDecentralizedMarketplaceMediation {\r\n    using GeneralUtilities for *;\r\n    \r\n    // Constants used for the Double-Linked list and other uses.\r\n    bool constant private PREV = false;\r\n    bool constant private NEXT = true;\r\n    string constant private EMPTY_STRING = \"\";\r\n    \r\n    // This Smart Contract handles Sales Transactions that involve a Mediator. Thus, these would be referred to as Mediated Sales Transactions that involve a Buyer, Seller, and \r\n    // Mediator. Each Buyer, Seller, and Mediator will have a different Ethereum Address.\r\n    \r\n    // The \"franklinDecentralizedMarketplaceContractAddress\" variable is the Contract Address of the FranklinDecentralizedMarketplace Contract that deployed this Contract - the \r\n    // FranklinDecentralizedMarketplaceMediation Contract - via the constructor of the FranklinDecentralizedMarketplace Contract.\r\n    // The Contract code had to be split in two, because the Etherum Virtual Machine (EVM) would not allow deployment of a Contract\r\n    // that has more than 24576 bytes. So, the decision was made to SPLIT the code into the FranklinDecentralizedMarketplace \r\n    // and FranklinDecentralizedMarketplaceMediation Contracts where the FranklinDecentralizedMarketplace would deploy the\r\n    // FranklinDecentralizedMarketplaceMediation Contract via it's Constructor.  \r\n    \r\n    // Function calls relating to Mediated Sales Transactions should be done by making the apprioptate function calls on this Smart Contract.\r\n    \r\n    // This Contract will be used to store the Escrow ETH/WEI (i.e., \"totalAmountOfWeiNeededToPurchase\") used to pay for Items involved in ALL Mediated Sales Transactions. \r\n    // The Mediated Sales Transaction works as follows:\r\n    // 1) If 2-out-of-3 of the Buyer, Seller, and/or Mediator Approves this Mediated Sales Transaction, then 95% of the \"totalAmountOfWeiNeededToPurchase\" will be sent to the Seller Address\r\n    //    and 5% of the \"totalAmountOfWeiNeededToPurchase\" will be sent to the Mediator Address. \r\n    // 2) 2-out-of-3 of the Buyer, Seller, and/or Mediator Disapproves this Mediated Sales Transaction, then the \"totalAmountOfWeiNeededToPurchase\" will be sent back to the Buyer Address.\r\n    // 3) If neither (1) or (2) above happens, then the Mediated Sales Transaction will be held in a State of Limbo and the \"totalAmountOfWeiNeededToPurchase\" will be kept inside \r\n    //    of this Contract.\r\n    \r\n    // Each Mediator in this Decentralized Marketplace is identified by it's Ethereum Address, but should also have information about himself/herself that is accessed  \r\n    // in the IPFS Stoarge Systemn via it's IPFS (InterPlanetary File System) Hash string key.\r\n    // Each Mediator in this Decentralized Marketplace is also identified by it's IPFS (InterPlanetary File System) Hash. Information about each Mediator is in a JSON-formatted\r\n    // string stored in the IPFS (InterPlanetary File System) that may be accessed via the Infura IPFS Gateway URL. So, for example, let's say that the Mediator has an\r\n    // IPFS Hash of QmZ4DZ1spT2eQhUC5mfQGugM4AhLjq8ZvuZvHdQvnvKnHH. Then, the information about this Mediator may be seen in one of the following URLs:\r\n    // 1) https://ipfs.infura.io/ipfs/QmZ4DZ1spT2eQhUC5mfQGugM4AhLjq8ZvuZvHdQvnvKnHH\r\n    // 2) https://gateway.ipfs.io/ipfs/QmZ4DZ1spT2eQhUC5mfQGugM4AhLjq8ZvuZvHdQvnvKnH\r\n    \r\n    // Each Mediated Sales Transaction in this Decentralized Marketplace is identified by it's IPFS (InterPlanetary File System) Hash. Information about each Mediated Sales Transaction \r\n    // is in a JSON-formatted string stored in the IPFS (InterPlanetary File System) that may be accessed via the Infura IPFS Gateway URL. So, for example, let's say that the \r\n    // Mediated Sales Transaction has an IPFS Hash of QmZ4DZ1spT2eQhUC5mfQGugM4AhLjq8ZvuZvHdQvnvKnHH. Then, the information about this Mediated Sales Transaction may be seen in one of \r\n    // the following URLs:\r\n    // 1) https://ipfs.infura.io/ipfs/QmZ4DZ1spT2eQhUC5mfQGugM4AhLjq8ZvuZvHdQvnvKnHH\r\n    // 2) https://gateway.ipfs.io/ipfs/QmZ4DZ1spT2eQhUC5mfQGugM4AhLjq8ZvuZvHdQvnvKnH\r\n    \r\n    // A double-linked list that lists all the Mediators by their Ethereum Address in string format.\r\n    //\r\n    // For an explanation as to how the \"mapping(string => mapping(bool => string))\" double linked-list works and the code pertaining to it from which was borrowed, please go to the\r\n    // https://ethereum.stackexchange.com/questions/15337/can-we-get-all-elements-stored-in-a-mapping-in-the-contract web page.\r\n    //\r\n    // Each \"string\" below refers to the Ethereum Address of the Mediator in string format.\r\n    mapping(string => mapping(bool => string)) private listOfMediators;\r\n    \r\n    // Map that keeps track of whether a Mediator exists. The \"address\" key is the Ethereum Address of the Mediator.\r\n    mapping(address => bool) private mediatorExistsMap;\r\n    \r\n    // Keeps a count on the Number of Mediators that mediate sales on this platform.\r\n    uint private numberOfMediators;\r\n    \r\n    // This Mapping contains the Description Information about the Mediators. The Mediator is responsible for adding this information.\r\n    //\r\n    // Mapping is as follows:\r\n    // 1) Key: Ethereum Address of the Mediator\r\n    // 2) Value: IPFS Hash string of the information pertaining to the Mediator. This information is stored in the IPFS Storage Network.\r\n    //           This information should be a JSON-formatted string.\r\n    mapping(address => string) private descriptionInfoAboutMediators;\r\n    \r\n    // This Mapping contains the Number of Mediations that a Mediator has been involved.\r\n    //\r\n    // Mapping is as follows:\r\n    // 1) Key: Ethereum Address of the Mediator\r\n    // 2) Value: Number of Mediations that a Mediators has been involved\r\n    mapping(address => uint) private numberOfMediationsMediatorInvolved;\r\n\r\n    // Constants used for the Mediated Sales Transactions mappings that have a \"bool[3]\" as a value in it's \"mapping\".\r\n    uint constant private BUYER_INDEX = 0;\r\n    uint constant private SELLER_INDEX = 1;\r\n    uint constant private MEDIATOR_INDEX = 2;\r\n    \r\n    // Maps the Mediated Sales Transaction IPFS Hash to the three Ethereum Addresses involved in the Sale of Item(s) involving a Mediator. The Mediated Sales Transaction IPFS Hash\r\n    // refers to a JSON-formatted string that describes this Transaction in the IPFS Storage System.\r\n    //\r\n    // Mapping is as follows:\r\n    // 1) Key: IPFS Hash string of the Mediated Sales Transaction\r\n    // 2) Values:\r\n    //    A) address[0] : Ethereum Address of the Buyer\r\n    //    B) address[1] : Ethereum Address of the Seller\r\n    //    C) address[2] : Ethereum Address of the Mediator\r\n    mapping(string => address[3]) private mediatedSalesTransactionAddresses;\r\n    \r\n    // Map that shows whether a Mediated Sales Transaction exists. The \"string\" key is the Mediated Sales Transaction IPFS Hash.\r\n    //\r\n    // Mapping is as follows:\r\n    // 1) Key: IPFS Hash string of the Mediated Sales Transaction\r\n    // 2) Value:\r\n    //    A) Boolean value of \"true\" indicates that the Mediated Sales Transaction exists\r\n    //    B) Boolean value of \"false\" indicates that the Mediated Sales Transaction exists\r\n    mapping (string => bool) private mediatedSalesTransactionExists;\r\n    \r\n    // Map that maps the Mediated Sales Transaction to the Sales Amount in Wei. The \"string\" key is the Mediated Sales Transaction IPFS Hash.\r\n    //\r\n    // Mapping is as follows:\r\n    // 1) Key: IPFS Hash string of the Mediated Sales Transaction\r\n    // 2) Value: Amount in Wei that the Buyer chose to pay for the Item(s)\r\n    mapping (string => uint) private mediatedSalesTransactionAmount;\r\n    \r\n    // Map that keeps track of whether a Mediated Sales Transaction has been Approved by the Buyer, Seller, and/or Mediator. \r\n    // The \"string\" key is the Mediated Sales Transaction IPFS Hash.\r\n    //\r\n    // Mapping is as follows:\r\n    // 1) Key: IPFS Hash string of the Mediated Sales Transaction\r\n    // 2) Values:\r\n    //    A) address[0] : Boolean flag indicating if Buyer Approves\r\n    //    B) address[1] : Boolean flag indicating if Seller Approves\r\n    //    C) address[2] : Boolean flag indicating if Mediator Approves\r\n    mapping (string => bool[3]) private mediatedSalesTransactionApprovedByParties;\r\n    \r\n    // Map that keeps track of whether a Mediated Sales Transaction has been Disapproved by the Buyer, Seller, and/or Mediator. \r\n    // The \"string\" key is the Mediated Sales Transaction IPFS Hash.\r\n    //\r\n    // Mapping is as follows:\r\n    // 1) Key: IPFS Hash string of the Mediated Sales Transaction\r\n    // 2) Values:\r\n    //    A) address[0] : Boolean flag indicating if Buyer Disapproves\r\n    //    B) address[1] : Boolean flag indicating if Seller Disapproves\r\n    //    C) address[2] : Boolean flag indicating if Mediator Disapproves\r\n    mapping (string => bool[3]) private mediatedSalesTransactionDisapprovedByParties;\r\n    \r\n    // Below is the Contract Address of the FranklinDecentralizedMarketplace Contract that deployed this Contract - the \r\n    // FranklinDecentralizedMarketplaceMediation Contract - via the constructor of the FranklinDecentralizedMarketplace Contract.\r\n    // The Contract code had to be split in two, because the Etherum Virtual Machine (EVM) would not allow deployment of a Contract\r\n    // that has more than 24576 bytes. So, the decision was made to SPLIT the code into the FranklinDecentralizedMarketplace \r\n    // and FranklinDecentralizedMarketplaceMediation Contracts where the FranklinDecentralizedMarketplace would deploy the\r\n    // FranklinDecentralizedMarketplaceMediation Contract via it's Constructor. \r\n    address public franklinDecentralizedMarketplaceContractAddress;\r\n    \r\n    modifier onlyContractOwnerMayExecute {\r\n        require(msg.sender == franklinDecentralizedMarketplaceContractAddress, \"Only the Ethereum Address that deployed THIS Contract may execute any of it's public methods!\");\r\n        _;\r\n    }\r\n    \r\n    // We're getting the Address of the FranklinDecentralizedMarketplace Contract that deployed THIS FranklinDecentralizedMarketplaceMediation via the\r\n    // constructor of this FranklinDecentralizedMarketplaceMediation Contract.\r\n    constructor() public {\r\n        franklinDecentralizedMarketplaceContractAddress = msg.sender;\r\n    }\r\n    \r\n    // Returns back the Contract Address of the FranklinDecentralizedMarketplace Contract that deployed THIS FranklinDecentralizedMarketplaceMediation \r\n    // Contract via the constructor of the FranklinDecentralizedMarketplace Contract. \r\n    function getFranklinDecentralizedMarketplaceContractAddress() external view returns (address) {\r\n        return franklinDecentralizedMarketplaceContractAddress;\r\n    }\r\n    \r\n    // Private Utility function used to add a given Ethereum Address as a Mediator in the \"listOfMediators\". The given Ethereum Address - \"_mediatorAddressString\" - used \r\n    // as input to this method is the string format version of the Ethereum Address obtained from the \"_addressToString\" method.\r\n    //\r\n    // Assumption: Since this is an internal private method, will assume that input \"_mediatorAddressString\" argument is valid.\r\n    function _addMediator(address _mediatorAddress) private {\r\n        if (mediatorExistsMap[_mediatorAddress]) {\r\n            return;\r\n        }\r\n        \r\n        string memory _mediatorAddressString = GeneralUtilities._addressToString(_mediatorAddress);\r\n        \r\n        // Link the new node \r\n        listOfMediators[_mediatorAddressString][PREV] = EMPTY_STRING;\r\n        listOfMediators[_mediatorAddressString][NEXT] = listOfMediators[EMPTY_STRING][NEXT];\r\n    \r\n        // Insert the new node\r\n        listOfMediators[listOfMediators[EMPTY_STRING][NEXT]][PREV] = _mediatorAddressString;\r\n        listOfMediators[EMPTY_STRING][NEXT] = _mediatorAddressString;\r\n        \r\n        numberOfMediators = GeneralUtilities._safeMathAdd(numberOfMediators, 1);\r\n        mediatorExistsMap[_mediatorAddress] = true;\r\n    }\r\n\r\n    // Adds or Updates a Mediator with the given \"_mediatorIpfsHashDescription\", which refers to a JSON-formatted string stored in the IPFS Storage System.\r\n    // The \"msg.sender\" will be the Ethereum Address of the entity wishing to become a Mediator in this Smart Contract. This method allows anyone with an Ethereum \r\n    // Address to add himself/herself as a Mediator.\r\n    function addOrUpdateMediator(string memory _mediatorIpfsHashDescription) public {\r\n        require(!GeneralUtilities._compareStringsEqual(_mediatorIpfsHashDescription, EMPTY_STRING), \"Cannot have an empty String for the IPFS Hash Key Description of a Mediator!\");\r\n        descriptionInfoAboutMediators[msg.sender] = _mediatorIpfsHashDescription;\r\n        \r\n        _addMediator(msg.sender);\r\n    }\r\n    \r\n    // Private Utility function used to remove a given Ethereum Address as a Mediator in the \"listOfMediators\". The given Ethereum Address - \"_mediatorAddressString\" - used \r\n    // as input to this method is the string format version of the Ethereum Address obtained from the \"_addressToString\" method.\r\n    //\r\n    // Assumption: Since this is an internal private method, will assume that input \"_mediatorAddressString\" argument is valid.    \r\n    function _removeMediator(address _mediatorAddress) private {\r\n        if (!mediatorExistsMap[_mediatorAddress]) {\r\n            return;\r\n        }\r\n        \r\n        string memory _mediatorAddressString = GeneralUtilities._addressToString(_mediatorAddress);\r\n        \r\n        // Stitch the neighbours together\r\n        listOfMediators[ listOfMediators[_mediatorAddressString][PREV] ][NEXT] = listOfMediators[_mediatorAddressString][NEXT];\r\n        listOfMediators[ listOfMediators[_mediatorAddressString][NEXT] ][PREV] = listOfMediators[_mediatorAddressString][PREV];\r\n    \r\n        // Delete state storage\r\n        delete listOfMediators[_mediatorAddressString][PREV];\r\n        delete listOfMediators[_mediatorAddressString][NEXT];\r\n        \r\n        numberOfMediators = GeneralUtilities._safeMathSubtract(numberOfMediators, 1);\r\n        delete mediatorExistsMap[_mediatorAddress];\r\n        \r\n        // We do not wish to remove the Mediator Description nor any other Mediator information, because the mediator may be involved Mediating some sales, and we wish \r\n        // to keep such information around.\r\n    }\r\n    \r\n    // Removes a Mediator from this Smart Contract. The \"msg.sender\" will be the Ethereum Address of the entity wishing to remove himself/herself as a Mediator in this Smart Contract. \r\n    // If there are any pending Sales that the Mediator is involved, the Sales and other information will still be kept.\r\n    // This method allows anyone with an Ethereum  Address to remove himself/herself as a Mediator in this Smart Contract. \r\n    function removeMediator()  external {\r\n        _removeMediator(msg.sender);\r\n    }\r\n    \r\n    // Gets the Mediator Ethereum Address at the given \"_index\" from the \"listOfMediators\" double-linked list.\r\n    //\r\n    // Input Parameter:\r\n    // _index : Index number into the \"listOfMediators\" double-linked list.\r\n    //              Index starts at 0.\r\n    //\r\n    // Returns:\r\n    // 1) If the \"_index\" is less than the \"numberOfMediators\", then the Etheruem Address of the Mediator at the given \"_index\" into the \"listOfMediators\" double-linked list\r\n    //    is returned.\r\n    // 2) If the \"_index\" is greater than or equal to the \"numberOfMediators\", then an Exception is thrown via the \"require\" below.\r\n    function getMediatorAddress(uint _index) external view returns (address) {\r\n        require(_index < numberOfMediators, \"Index value given is greater than or equal to the Number of Mediators! It should be less than the Number of Mediators!\");\r\n        \r\n        // The \"key\" below is the Ethereum Address in string format that is in the \"listOfMediators\" double-linked list.\r\n        \r\n        uint keyCount = 0;\r\n        string memory key = EMPTY_STRING;\r\n        while (true) {\r\n            key = listOfMediators[key][NEXT];\r\n            if (keyCount == _index) {\r\n                break;\r\n            }\r\n            \r\n            keyCount++;\r\n        }\r\n        \r\n        return GeneralUtilities._parseEthereumAddressStringToAddress(key);    \r\n    }\r\n    \r\n    // Gets the Number of Mediators in the \"listOfMediators\".\r\n    function getNumberOfMediators() external view returns (uint) {\r\n        return numberOfMediators;\r\n    }\r\n    \r\n    // Returns back a boolean value to determine if the given \"_mediatorAddres\" is in the \"listOfMediators\".\r\n    function mediatorExists(address _mediatorAddress) external view returns (bool) {\r\n        return mediatorExistsMap[_mediatorAddress];\r\n    }\r\n    \r\n    // Determines if the given \"_mediatedSalesTransactionIpfsHash\" Mediated Sales Transaction is in the Approved State. It is in the Approved State \r\n    // if 2-out-of-3 Buyer, Seller, and/or Mediator Approve it.\r\n    function _mediatedSalesTransactionHasBeenApproved(string memory _mediatedSalesTransactionIpfsHash) private view returns (bool) {\r\n        uint numberOfApprovals = 0;\r\n        for (uint i = 0; i < 3; i++) {\r\n            if (mediatedSalesTransactionApprovedByParties[_mediatedSalesTransactionIpfsHash][i]) {\r\n                numberOfApprovals++;\r\n            }\r\n        }\r\n        \r\n        return (numberOfApprovals >= 2);\r\n    }\r\n    \r\n    // Determines if the given \"_mediatedSalesTransactionIpfsHash\" Mediated Sales Transaction is in the Disapprived State. It is in the Disapproved State \r\n    // if 2-out-of-3 Buyer, Seller, and/or Mediator Disapprove it.    \r\n    function _mediatedSalesTransactionHasBeenDisapproved(string memory _mediatedSalesTransactionIpfsHash) private view returns (bool) {\r\n        uint numberOfDisapprovals = 0;\r\n        for (uint i = 0; i < 3; i++) {\r\n            if (mediatedSalesTransactionDisapprovedByParties[_mediatedSalesTransactionIpfsHash][i]) {\r\n                numberOfDisapprovals++;\r\n            }\r\n        }\r\n        \r\n        return (numberOfDisapprovals >= 2);\r\n    }    \r\n    \r\n    // This method allows one of the parties involved in a Mediated Sales Transaction to Approve the given \"_mediatedSalesTransactionIpfsHash\" Mediated \r\n    // Sales Transaction. \r\n    //\r\n    // Input Parameters:\r\n    // 1) msg.sender : The Ethereum Address of one of the parties\r\n    // 2) _mediatedSalesTransactionIpfsHash : IPFS Hash string value that uniquely identifies the Mediated Sales Transaction. This IPFS Hash string value refers to   \r\n    //    what should be JSON-formatted string describing the Sale stored in the IPFS Storage System.\r\n    function approveMediatedSalesTransaction(string memory _mediatedSalesTransactionIpfsHash) public {\r\n        require(mediatedSalesTransactionExists[_mediatedSalesTransactionIpfsHash], \"Given Mediated Sales Transaction IPFS Hash does not exist!\");\r\n        \r\n        bool allowedToApprove = (mediatedSalesTransactionAddresses[_mediatedSalesTransactionIpfsHash][BUYER_INDEX] == msg.sender) ||\r\n                                (mediatedSalesTransactionAddresses[_mediatedSalesTransactionIpfsHash][SELLER_INDEX] == msg.sender) ||\r\n                                (mediatedSalesTransactionAddresses[_mediatedSalesTransactionIpfsHash][MEDIATOR_INDEX] == msg.sender);\r\n        require(allowedToApprove, \"Not allowed to Approve Mediated Sales Transaction, because Message Sender is neither the Buyer, Seller, or Mediator!\");\r\n        \r\n        // If 2-out-of-3 of the Buyer, Seller, and/or Mediator have Disapproved the Mediated Sales Transaction, then it's status cannot be changed, because the Buyer has already been refunded \r\n        // the amount he/she paid.\r\n        require(!_mediatedSalesTransactionHasBeenDisapproved(_mediatedSalesTransactionIpfsHash), \r\n            \"Mediated Sales Transaction has already been Disapproved by at least 2-out-of-3 of the Buyer, Seller, and/or Mediator! Cannot Approve at this point!\");\r\n        \r\n        uint indexBuyerSellerOrMediator = 0;\r\n        for (uint i = 0; i < 3; i++) {\r\n            if (mediatedSalesTransactionAddresses[_mediatedSalesTransactionIpfsHash][i] == msg.sender) {\r\n                indexBuyerSellerOrMediator = i;\r\n            }\r\n        }\r\n        \r\n        // If the Mediated Sales Transaction has already been Approved by 2-out-of-3 Buyer, Seller, and/or Mediator, then just note the approval from the \"msg.sender\" and that's it, because at \r\n        // this point the Seller Address has already been sent 95% of the Sales Amount, and the Mediator has already been sent 5% of the Sales Amount.\r\n        if (_mediatedSalesTransactionHasBeenApproved(_mediatedSalesTransactionIpfsHash)) {\r\n            mediatedSalesTransactionApprovedByParties[_mediatedSalesTransactionIpfsHash][indexBuyerSellerOrMediator] = true;\r\n            return;\r\n        }\r\n        \r\n        // Note the approval from the \"msg.sender\" Address. If one approves, than one cannot disapprove. Perhaps their's been a change of mind before FINAL Approval or Disapproval.\r\n        mediatedSalesTransactionApprovedByParties[_mediatedSalesTransactionIpfsHash][indexBuyerSellerOrMediator] = true;\r\n        mediatedSalesTransactionDisapprovedByParties[_mediatedSalesTransactionIpfsHash][indexBuyerSellerOrMediator] = false;\r\n        \r\n        // If after the \"msg.sender\" Approves the Mediated Sales Transaction, this reaches a State where 2-out-of-3 Buyer, Seller, and/or Mediator have Approved, then send 95% of the Sales Amount \r\n        // to the Seller Address and 5% of the Sales Amount to the Mediator Address.\r\n        if (_mediatedSalesTransactionHasBeenApproved(_mediatedSalesTransactionIpfsHash)) {\r\n            uint totalSalesAmount = mediatedSalesTransactionAmount[_mediatedSalesTransactionIpfsHash];\r\n            uint amountOfWeiToSendMediator = GeneralUtilities._getPercentageOfTotalAmount(uint256(5), uint256(100), uint256(totalSalesAmount));\r\n            uint amountOfWeiToSendSeller = GeneralUtilities._safeMathSubtract(totalSalesAmount, amountOfWeiToSendMediator);\r\n            \r\n            address payable sellerAddress = GeneralUtilities._convertAddressToAddressPayable(mediatedSalesTransactionAddresses[_mediatedSalesTransactionIpfsHash][SELLER_INDEX]);\r\n            address payable mediatorAddress = GeneralUtilities._convertAddressToAddressPayable(mediatedSalesTransactionAddresses[_mediatedSalesTransactionIpfsHash][MEDIATOR_INDEX]);\r\n            \r\n            sellerAddress.transfer(amountOfWeiToSendSeller);\r\n            mediatorAddress.transfer(amountOfWeiToSendMediator);\r\n        }\r\n    }\r\n    \r\n    // This method allows one of the parties involved in a Mediated Sales Transaction to Disapprove the given \"_mediatedSalesTransactionIpfsHash\" Mediated \r\n    // Sales Transaction. The \"msg.sender\" is the Ethereaum Address of one of the parties involved in the given \"_mediatedSalesTransactionIpfsHash\" Mediated \r\n    // Sales Transaction.\r\n    //\r\n    // Input Parameter:\r\n    // 1) _mediatedSalesTransactionIpfsHash : IPFS Hash string value that uniquely identifies the Mediated Sales Transaction. This IPFS Hash string value refers to   \r\n    //    what should be JSON-formatted string describing the Sale stored in the IPFS Storage System.\r\n    // 2) msg.sender : Ethereum Address of the party attempting to Disapprove the Mediated Sales Transaction\r\n    function disapproveMediatedSalesTransaction(string memory _mediatedSalesTransactionIpfsHash) public {\r\n        require(mediatedSalesTransactionExists[_mediatedSalesTransactionIpfsHash], \"Given Mediated Sales Transaction IPFS Hash does not exist!\");\r\n        \r\n        bool allowedToDisapprove = (mediatedSalesTransactionAddresses[_mediatedSalesTransactionIpfsHash][BUYER_INDEX] == msg.sender) ||\r\n                                (mediatedSalesTransactionAddresses[_mediatedSalesTransactionIpfsHash][SELLER_INDEX] == msg.sender) ||\r\n                                (mediatedSalesTransactionAddresses[_mediatedSalesTransactionIpfsHash][MEDIATOR_INDEX] == msg.sender);\r\n        require(allowedToDisapprove, \"Not allowed to Disapprove Mediated Sales Transaction, because Message Sender is neither the Buyer, Seller, or Mediator!\");\r\n        \r\n        // If 2-out-of-3 of the Buyer, Seller, and/or Mediator have Disapproved the Mediated Sales Transaction, then it's status cannot be changed, because the Seller has already been \r\n        // paid 95% of the Sales Amount, and the Mediator has already been paid 5% of the Sales Amount.\r\n        require(!_mediatedSalesTransactionHasBeenApproved(_mediatedSalesTransactionIpfsHash), \r\n            \"Mediated Sales Transaction has already been Approved by at least 2-out-of-3 of the Buyer, Seller, and/or Mediator! Cannot Disapprove at this point!\");\r\n        \r\n        uint indexBuyerSellerOrMediator = 0;\r\n        for (uint i = 0; i < 3; i++) {\r\n            if (mediatedSalesTransactionAddresses[_mediatedSalesTransactionIpfsHash][i] == msg.sender) {\r\n                indexBuyerSellerOrMediator = i;\r\n            }\r\n        }\r\n        \r\n        // If the Mediated Sales Transaction has already been Disapproved by 2-out-of-3 Buyer, Seller, and/or Mediator, then just note the disapproval from the \"msg.sender\" \r\n        // and that's it, because at this point the Buyer has alreaady been refunded the Sales Amount.\r\n        if (_mediatedSalesTransactionHasBeenDisapproved(_mediatedSalesTransactionIpfsHash)) {\r\n            mediatedSalesTransactionDisapprovedByParties[_mediatedSalesTransactionIpfsHash][indexBuyerSellerOrMediator] = true;\r\n            return;\r\n        }\r\n        \r\n        // Note the disapproval from the \"msg.sender\" Address. If one disapproves, than one cannot approve. Perhaps their's been a change of mind before FINAL Approval or Disapproval.\r\n        mediatedSalesTransactionApprovedByParties[_mediatedSalesTransactionIpfsHash][indexBuyerSellerOrMediator] = false;\r\n        mediatedSalesTransactionDisapprovedByParties[_mediatedSalesTransactionIpfsHash][indexBuyerSellerOrMediator] = true;\r\n        \r\n        // If after the \"msg.sender\" Disapproves the Mediated Sales Transaction, this reaches a State where 2-out-of-3 Buyer, Seller, and/or Mediator have Disapproved, then send 100% of the Sales Amount \r\n        // back to the Buyer Address.\r\n        if (_mediatedSalesTransactionHasBeenApproved(_mediatedSalesTransactionIpfsHash)) {\r\n            uint totalSalesAmount = mediatedSalesTransactionAmount[_mediatedSalesTransactionIpfsHash];\r\n        \r\n            address payable buyerAddress = GeneralUtilities._convertAddressToAddressPayable(mediatedSalesTransactionAddresses[_mediatedSalesTransactionIpfsHash][BUYER_INDEX]);\r\n            buyerAddress.transfer(totalSalesAmount);\r\n        }\r\n    }\r\n    \r\n    // Gets the Description of a Mediator identified by the given \"_mediatorAddress\". The Description will be the IPFS Hash where the JSON-formatted Description of the Mediator exists.\r\n    // If no such IPFS Hash Key Description exists, then an EMPTY_STRING will be returned. \r\n    function getMediatorIpfsHashDescription(address _mediatorAddress) external view returns (string memory) {\r\n        return descriptionInfoAboutMediators[_mediatorAddress];\r\n    }   \r\n    \r\n    // Allows a Buyer - identified by the \"_buyerAddress\" Ethereum Address that indirectly calls this methiod via the \"FranklinDecentralizedMarketplace.purchaseItemWithMediator\" \r\n    // method to purchase a \"_quantity\" of a specific Item - identified  by it's \"_keyItemIpfsHash\" - from a given Seller - identified by it's \"_sellerAddress\" Ethereum Address AND use a \r\n    // Mediator - identified by the given \"_mediatorAddress\" - to mediate the Mediatiations Sales Transaction - identified by the the given \"_mediatedSalesTransactionIpfsHash\" ID. \r\n    //\r\n    // The FranklinDecentralizedMarketplaceMediation Contract mainly handles Sales Transactions that involve a Mediator. Thus, these would be referred to as \r\n    // Mediated Sales Transactions that involve a Buyer, Seller, and Mediator. Each Buyer, Seller, and Mediator will have a different Ethereum Address.\r\n    //\r\n    // The FranklinDecentralizedMarketplaceMediation Contract is used to store the Escrow ETH/WEI (i.e., \"totalAmountOfWeiNeededToPurchase\") used to pay for Items involved in ALL Mediated Sales Transactions. \r\n    // The Mediated Sales Transaction works as follows:\r\n    // 1) If 2-out-of-3 of the Buyer, Seller, and/or Mediator Approves this Mediated Sales Transaction, then 95% of the \"totalAmountOfWeiNeededToPurchase\" will be sent to the Seller Address\r\n    //    and 5% of the \"totalAmountOfWeiNeededToPurchase\" will be sent to the Mediator Address. \r\n    // 2) 2-out-of-3 of the Buyer, Seller, and/or Mediator Disapproves this Mediated Sales Transaction, then the \"totalAmountOfWeiNeededToPurchase\" will be sent back to the Buyer Address.\r\n    // 3) If neither (1) or (2) above happens, then the Mediated Sales Transaction will be held in a State of Limbo and the \"totalAmountOfWeiNeededToPurchase\" will be kept inside \r\n    //    of this Contract.\r\n    //\r\n    // Input Parameters:\r\n    // 1) _sellerAddress : Ethereum Address of the Seller\r\n    // 2) _keyItemIpfsHash : This is the IPFS Hash of the Item being sold that points to a JSON-formatted string in the IPFS Storage System.\r\n    // 3) _mediatorAddress : Ethereum Address of the Mediator\r\n    // 4) _quantity : Quantity of the Item that the \"msg.sender\" Buyer wishes to purchase. \r\n    // 5) _mediatedSalesTransactionIpfsHash : This is the IPFS Hash of the Mediated Sales Transaction that points to a JSON-formatted string in the IPFS Storage System.\r\n    // 6) _buyerAddress : Ethereum Address of the Buyer    \r\n    function purchaseItemWithMediator(address _buyerAddress, address _sellerAddress, address _mediatorAddress, string memory _mediatedSalesTransactionIpfsHash, \r\n                uint totalAmountOfWeiNeededToPurchase) onlyContractOwnerMayExecute public {\r\n        require(!mediatedSalesTransactionExists[_mediatedSalesTransactionIpfsHash], \"Mediated Sales Transaction already exists!\");\r\n\r\n        require(mediatorExistsMap[_mediatorAddress], \"Given Mediator Address does not exist as a Mediator!\");\r\n        \r\n        // Keep track of the existence of the Mediated Sales Transaction so that it can be Approved or Disapproved by the Buyer, Seller, and/or Mediator in the future.\r\n        mediatedSalesTransactionExists[_mediatedSalesTransactionIpfsHash] = true;\r\n        mediatedSalesTransactionAddresses[_mediatedSalesTransactionIpfsHash][BUYER_INDEX] = _buyerAddress;\r\n        mediatedSalesTransactionAddresses[_mediatedSalesTransactionIpfsHash][SELLER_INDEX] = _sellerAddress;\r\n        mediatedSalesTransactionAddresses[_mediatedSalesTransactionIpfsHash][MEDIATOR_INDEX] = _mediatorAddress;\r\n        \r\n        // The \"totalAmountOfWeiNeededToPurchase\" amount will automatically be sent to this Contract in Escrow in a Mediated Sales Transaction. We need to store the \r\n        // \"totalAmountOfWeiNeededToPurchase\" as follows so that when:\r\n        // 1) 2-out-of-3 of the Buyer, Seller, and/or Mediator Approves this Mediated Sales Transaction, the 95% of the \"totalAmountOfWeiNeededToPurchase\" can be sent to the Seller Address and 5% \r\n        //    of the \"msg.value\" can be sent to the Mediator Address. \r\n        // 2) 2-out-of-3 of the Buyer, Seller, and/or Mediator Disapproves this Mediated Sales Transaction, the \"totalAmountOfWeiNeededToPurchase\" can be sent back to the Buyer Address.\r\n        // 3) If neither (1) or (2) above happens, then the Mediated Sales Transaction will be held in a State of Limbo and the \"totalAmountOfWeiNeededToPurchase\" will be kept inside \r\n        //    of this Contract.\r\n        mediatedSalesTransactionAmount[_mediatedSalesTransactionIpfsHash] = totalAmountOfWeiNeededToPurchase;\r\n        \r\n        numberOfMediationsMediatorInvolved[_mediatorAddress] = GeneralUtilities._safeMathAdd(numberOfMediationsMediatorInvolved[_mediatorAddress], 1);\r\n    }\r\n    \r\n    // Gets the Number of Mediations that the given \"_mediatorAddress\" Mediator has been involved.\r\n    function getNumberOfMediationsMediatorInvolved(address _mediatorAddress) external view returns (uint) {\r\n        require(mediatorExistsMap[_mediatorAddress], \"Given Mediator Address does not exist as a Mediator!\");\r\n        return numberOfMediationsMediatorInvolved[_mediatorAddress];\r\n    }\r\n}",
  "sourcePath": "/mnt/d/Kingsland-University-Decentralized-Marketplace-Decentralized-Application-Project-2019/contracts/FranklinDecentralizedMarketplaceMediation.sol",
  "compiler": {
    "name": "solc",
    "version": "0.5.8+commit.23d335f2.Emscripten.clang"
  },
  "schemaVersion": "3.0.16",
  "updatedAt": "2019-11-19T13:25:18.297Z",
  "devdoc": {
    "methods": {}
  },
  "userdoc": {
    "methods": {}
  }
}