{
  "contractName": "FranklinDecentralizedMarketplaceMediation",
  "abi": [
    {
      "constant": true,
      "inputs": [],
      "name": "franklinDecentralizedMarketplaceContractAddress",
      "outputs": [
        {
          "name": "",
          "type": "address"
        }
      ],
      "payable": false,
      "stateMutability": "view",
      "type": "function"
    },
    {
      "constant": true,
      "inputs": [
        {
          "name": "",
          "type": "string"
        },
        {
          "name": "",
          "type": "bool"
        }
      ],
      "name": "listOfMediators",
      "outputs": [
        {
          "name": "",
          "type": "string"
        }
      ],
      "payable": false,
      "stateMutability": "view",
      "type": "function"
    },
    {
      "constant": true,
      "inputs": [
        {
          "name": "",
          "type": "address"
        }
      ],
      "name": "mediatorExistsMap",
      "outputs": [
        {
          "name": "",
          "type": "bool"
        }
      ],
      "payable": false,
      "stateMutability": "view",
      "type": "function"
    },
    {
      "constant": true,
      "inputs": [],
      "name": "SELLER_INDEX",
      "outputs": [
        {
          "name": "",
          "type": "uint256"
        }
      ],
      "payable": false,
      "stateMutability": "view",
      "type": "function"
    },
    {
      "constant": true,
      "inputs": [
        {
          "name": "",
          "type": "string"
        }
      ],
      "name": "mediatedSalesTransactionExists",
      "outputs": [
        {
          "name": "",
          "type": "bool"
        }
      ],
      "payable": false,
      "stateMutability": "view",
      "type": "function"
    },
    {
      "constant": true,
      "inputs": [
        {
          "name": "",
          "type": "address"
        }
      ],
      "name": "descriptionInfoAboutMediators",
      "outputs": [
        {
          "name": "",
          "type": "string"
        }
      ],
      "payable": false,
      "stateMutability": "view",
      "type": "function"
    },
    {
      "constant": true,
      "inputs": [],
      "name": "numberOfMediators",
      "outputs": [
        {
          "name": "",
          "type": "uint256"
        }
      ],
      "payable": false,
      "stateMutability": "view",
      "type": "function"
    },
    {
      "constant": true,
      "inputs": [],
      "name": "PREV",
      "outputs": [
        {
          "name": "",
          "type": "bool"
        }
      ],
      "payable": false,
      "stateMutability": "view",
      "type": "function"
    },
    {
      "constant": true,
      "inputs": [
        {
          "name": "",
          "type": "string"
        },
        {
          "name": "",
          "type": "uint256"
        }
      ],
      "name": "mediatedSalesTransactionApprovedByParties",
      "outputs": [
        {
          "name": "",
          "type": "bool"
        }
      ],
      "payable": false,
      "stateMutability": "view",
      "type": "function"
    },
    {
      "constant": true,
      "inputs": [
        {
          "name": "",
          "type": "string"
        },
        {
          "name": "",
          "type": "uint256"
        }
      ],
      "name": "mediatedSalesTransactionDisapprovedByParties",
      "outputs": [
        {
          "name": "",
          "type": "bool"
        }
      ],
      "payable": false,
      "stateMutability": "view",
      "type": "function"
    },
    {
      "constant": true,
      "inputs": [],
      "name": "MEDIATOR_INDEX",
      "outputs": [
        {
          "name": "",
          "type": "uint256"
        }
      ],
      "payable": false,
      "stateMutability": "view",
      "type": "function"
    },
    {
      "constant": true,
      "inputs": [
        {
          "name": "",
          "type": "address"
        }
      ],
      "name": "numberOfMediationsMediatorInvolved",
      "outputs": [
        {
          "name": "",
          "type": "uint256"
        }
      ],
      "payable": false,
      "stateMutability": "view",
      "type": "function"
    },
    {
      "constant": true,
      "inputs": [
        {
          "name": "",
          "type": "string"
        },
        {
          "name": "",
          "type": "uint256"
        }
      ],
      "name": "mediatedSalesTransactionAddresses",
      "outputs": [
        {
          "name": "",
          "type": "address"
        }
      ],
      "payable": false,
      "stateMutability": "view",
      "type": "function"
    },
    {
      "constant": true,
      "inputs": [],
      "name": "EMPTY_STRING",
      "outputs": [
        {
          "name": "",
          "type": "string"
        }
      ],
      "payable": false,
      "stateMutability": "view",
      "type": "function"
    },
    {
      "constant": true,
      "inputs": [],
      "name": "BUYER_INDEX",
      "outputs": [
        {
          "name": "",
          "type": "uint256"
        }
      ],
      "payable": false,
      "stateMutability": "view",
      "type": "function"
    },
    {
      "constant": true,
      "inputs": [],
      "name": "NEXT",
      "outputs": [
        {
          "name": "",
          "type": "bool"
        }
      ],
      "payable": false,
      "stateMutability": "view",
      "type": "function"
    },
    {
      "constant": true,
      "inputs": [
        {
          "name": "",
          "type": "string"
        }
      ],
      "name": "mediatedSalesTransactionAmount",
      "outputs": [
        {
          "name": "",
          "type": "uint256"
        }
      ],
      "payable": false,
      "stateMutability": "view",
      "type": "function"
    },
    {
      "inputs": [],
      "payable": false,
      "stateMutability": "nonpayable",
      "type": "constructor"
    },
    {
      "constant": true,
      "inputs": [],
      "name": "getOnlyAddressThatMayAccessThisContract",
      "outputs": [
        {
          "name": "",
          "type": "address"
        }
      ],
      "payable": false,
      "stateMutability": "view",
      "type": "function"
    },
    {
      "constant": false,
      "inputs": [
        {
          "name": "_mediatorAddress",
          "type": "address"
        },
        {
          "name": "_mediatorIpfsHashDescription",
          "type": "string"
        }
      ],
      "name": "addOrUpdateMediator",
      "outputs": [],
      "payable": false,
      "stateMutability": "nonpayable",
      "type": "function"
    },
    {
      "constant": false,
      "inputs": [
        {
          "name": "_mediatorAddress",
          "type": "address"
        }
      ],
      "name": "removeMediator",
      "outputs": [],
      "payable": false,
      "stateMutability": "nonpayable",
      "type": "function"
    },
    {
      "constant": true,
      "inputs": [
        {
          "name": "_index",
          "type": "uint256"
        }
      ],
      "name": "getMediatorAddress",
      "outputs": [
        {
          "name": "",
          "type": "address"
        }
      ],
      "payable": false,
      "stateMutability": "view",
      "type": "function"
    },
    {
      "constant": true,
      "inputs": [],
      "name": "getNumberOfMediators",
      "outputs": [
        {
          "name": "",
          "type": "uint256"
        }
      ],
      "payable": false,
      "stateMutability": "view",
      "type": "function"
    },
    {
      "constant": true,
      "inputs": [
        {
          "name": "_mediatorAddress",
          "type": "address"
        }
      ],
      "name": "mediatorExists",
      "outputs": [
        {
          "name": "",
          "type": "bool"
        }
      ],
      "payable": false,
      "stateMutability": "view",
      "type": "function"
    },
    {
      "constant": false,
      "inputs": [
        {
          "name": "_approverAddress",
          "type": "address"
        },
        {
          "name": "_mediatedSalesTransactionIpfsHash",
          "type": "string"
        }
      ],
      "name": "approveMediatedSalesTransaction",
      "outputs": [],
      "payable": false,
      "stateMutability": "nonpayable",
      "type": "function"
    },
    {
      "constant": false,
      "inputs": [
        {
          "name": "_disapproverAddress",
          "type": "address"
        },
        {
          "name": "_mediatedSalesTransactionIpfsHash",
          "type": "string"
        }
      ],
      "name": "disapproveMediatedSalesTransaction",
      "outputs": [],
      "payable": false,
      "stateMutability": "nonpayable",
      "type": "function"
    },
    {
      "constant": true,
      "inputs": [
        {
          "name": "_mediatorAddress",
          "type": "address"
        }
      ],
      "name": "getMediatorIpfsHashDescription",
      "outputs": [
        {
          "name": "",
          "type": "string"
        }
      ],
      "payable": false,
      "stateMutability": "view",
      "type": "function"
    },
    {
      "constant": false,
      "inputs": [
        {
          "name": "_buyerAddress",
          "type": "address"
        },
        {
          "name": "_sellerAddress",
          "type": "address"
        },
        {
          "name": "_mediatorAddress",
          "type": "address"
        },
        {
          "name": "_mediatedSalesTransactionIpfsHash",
          "type": "string"
        },
        {
          "name": "totalAmountOfWeiNeededToPurchase",
          "type": "uint256"
        }
      ],
      "name": "purchaseItemWithMediator",
      "outputs": [],
      "payable": false,
      "stateMutability": "nonpayable",
      "type": "function"
    }
  ],
  "bytecode": "0x608060405234801561001057600080fd5b5033600a60006101000a81548173ffffffffffffffffffffffffffffffffffffffff021916908373ffffffffffffffffffffffffffffffffffffffff160217905550614d99806100616000396000f3fe608060405234801561001057600080fd5b50600436106101a95760003560e01c8063973ec502116100f9578063dc82f05411610097578063f409398f11610071578063f409398f14610e1c578063fa22a48614610e3e578063fc7d17fb14610f0d578063ff670a2f14610fe8576101a9565b8063dc82f05414610ca0578063f004d5c014610d23578063f0a750c014610d41576101a9565b8063c63b7eb4116100d3578063c63b7eb414610943578063c95aaad914610a68578063cb0d5d9314610b43578063d37fc00b14610b9b576101a9565b8063973ec502146107da578063a04062fe146108b7578063bcf383a8146108d5576101a9565b80636303d42311610166578063772701a911610140578063772701a9146106795780637e0ab220146106975780638116e5fb146106b9578063822da04b146106fd576101a9565b80636303d423146104cb5780636e08148c146104e9578063700ebe9e146105bc576101a9565b80630ad2c9d1146101ae5780631a67405c146101cc578063331d7ce91461022857806338f533be1461027257806340c31a8c146103b2578063553e409f1461046f575b600080fd5b6101b6611032565b6040518082815260200191505060405180910390f35b61020e600480360360208110156101e257600080fd5b81019080803573ffffffffffffffffffffffffffffffffffffffff1690602001909291905050506110e2565b604051808215151515815260200191505060405180910390f35b6102306111de565b604051808273ffffffffffffffffffffffffffffffffffffffff1673ffffffffffffffffffffffffffffffffffffffff16815260200191505060405180910390f35b6103376004803603604081101561028857600080fd5b81019080803590602001906401000000008111156102a557600080fd5b8201836020820111156102b757600080fd5b803590602001918460018302840111640100000000831117156102d957600080fd5b91908080601f016020809104026020016040519081016040528093929190818152602001838380828437600081840152601f19601f820116905080830192505050505050509192919290803515159060200190929190505050611204565b6040518080602001828103825283818151815260200191508051906020019080838360005b8381101561037757808201518184015260208101905061035c565b50505050905090810190601f1680156103a45780820380516001836020036101000a031916815260200191505b509250505060405180910390f35b6103f4600480360360208110156103c857600080fd5b81019080803573ffffffffffffffffffffffffffffffffffffffff1690602001909291905050506112d7565b6040518080602001828103825283818151815260200191508051906020019080838360005b83811015610434578082015181840152602081019050610419565b50505050905090810190601f1680156104615780820380516001836020036101000a031916815260200191505b509250505060405180910390f35b6104b16004803603602081101561048557600080fd5b81019080803573ffffffffffffffffffffffffffffffffffffffff1690602001909291905050506113b8565b604051808215151515815260200191505060405180910390f35b6104d36113d8565b6040518082815260200191505060405180910390f35b6105a2600480360360208110156104ff57600080fd5b810190808035906020019064010000000081111561051c57600080fd5b82018360208201111561052e57600080fd5b8035906020019184600183028401116401000000008311171561055057600080fd5b91908080601f016020809104026020016040519081016040528093929190818152602001838380828437600081840152601f19601f8201169050808301925050505050505091929192905050506113dd565b604051808215151515815260200191505060405180910390f35b6105fe600480360360208110156105d257600080fd5b81019080803573ffffffffffffffffffffffffffffffffffffffff169060200190929190505050611413565b6040518080602001828103825283818151815260200191508051906020019080838360005b8381101561063e578082015181840152602081019050610623565b50505050905090810190601f16801561066b5780820380516001836020036101000a031916815260200191505b509250505060405180910390f35b6106816114c3565b6040518082815260200191505060405180910390f35b61069f6114c9565b604051808215151515815260200191505060405180910390f35b6106fb600480360360208110156106cf57600080fd5b81019080803573ffffffffffffffffffffffffffffffffffffffff1690602001909291905050506114ce565b005b6107c06004803603604081101561071357600080fd5b810190808035906020019064010000000081111561073057600080fd5b82018360208201111561074257600080fd5b8035906020019184600183028401116401000000008311171561076457600080fd5b91908080601f016020809104026020016040519081016040528093929190818152602001838380828437600081840152601f19601f82011690508083019250505050505050919291929080359060200190929190505050611580565b604051808215151515815260200191505060405180910390f35b61089d600480360360408110156107f057600080fd5b810190808035906020019064010000000081111561080d57600080fd5b82018360208201111561081f57600080fd5b8035906020019184600183028401116401000000008311171561084157600080fd5b91908080601f016020809104026020016040519081016040528093929190818152602001838380828437600081840152601f19601f820116905080830192505050505050509192919290803590602001909291905050506115cc565b604051808215151515815260200191505060405180910390f35b6108bf611618565b6040518082815260200191505060405180910390f35b610901600480360360208110156108eb57600080fd5b810190808035906020019092919050505061161d565b604051808273ffffffffffffffffffffffffffffffffffffffff1673ffffffffffffffffffffffffffffffffffffffff16815260200191505060405180910390f35b610a66600480360360a081101561095957600080fd5b81019080803573ffffffffffffffffffffffffffffffffffffffff169060200190929190803573ffffffffffffffffffffffffffffffffffffffff169060200190929190803573ffffffffffffffffffffffffffffffffffffffff169060200190929190803590602001906401000000008111156109d657600080fd5b8201836020820111156109e857600080fd5b80359060200191846001830284011164010000000083111715610a0a57600080fd5b91908080601f016020809104026020016040519081016040528093929190818152602001838380828437600081840152601f19601f82011690508083019250505050505050919291929080359060200190929190505050611886565b005b610b4160048036036040811015610a7e57600080fd5b81019080803573ffffffffffffffffffffffffffffffffffffffff16906020019092919080359060200190640100000000811115610abb57600080fd5b820183602082011115610acd57600080fd5b80359060200191846001830284011164010000000083111715610aef57600080fd5b91908080601f016020809104026020016040519081016040528093929190818152602001838380828437600081840152601f19601f820116905080830192505050505050509192919290505050611e3e565b005b610b8560048036036020811015610b5957600080fd5b81019080803573ffffffffffffffffffffffffffffffffffffffff1690602001909291905050506126f9565b6040518082815260200191505060405180910390f35b610c5e60048036036040811015610bb157600080fd5b8101908080359060200190640100000000811115610bce57600080fd5b820183602082011115610be057600080fd5b80359060200191846001830284011164010000000083111715610c0257600080fd5b91908080601f016020809104026020016040519081016040528093929190818152602001838380828437600081840152601f19601f82011690508083019250505050505050919291929080359060200190929190505050612711565b604051808273ffffffffffffffffffffffffffffffffffffffff1673ffffffffffffffffffffffffffffffffffffffff16815260200191505060405180910390f35b610ca8612769565b6040518080602001828103825283818151815260200191508051906020019080838360005b83811015610ce8578082015181840152602081019050610ccd565b50505050905090810190601f168015610d155780820380516001836020036101000a031916815260200191505b509250505060405180910390f35b610d2b61277c565b6040518082815260200191505060405180910390f35b610e1a60048036036040811015610d5757600080fd5b81019080803573ffffffffffffffffffffffffffffffffffffffff16906020019092919080359060200190640100000000811115610d9457600080fd5b820183602082011115610da657600080fd5b80359060200191846001830284011164010000000083111715610dc857600080fd5b91908080601f016020809104026020016040519081016040528093929190818152602001838380828437600081840152601f19601f820116905080830192505050505050509192919290505050612781565b005b610e24613148565b604051808215151515815260200191505060405180910390f35b610ef760048036036020811015610e5457600080fd5b8101908080359060200190640100000000811115610e7157600080fd5b820183602082011115610e8357600080fd5b80359060200191846001830284011164010000000083111715610ea557600080fd5b91908080601f016020809104026020016040519081016040528093929190818152602001838380828437600081840152601f19601f82011690508083019250505050505050919291929050505061314d565b6040518082815260200191505060405180910390f35b610fe660048036036040811015610f2357600080fd5b81019080803573ffffffffffffffffffffffffffffffffffffffff16906020019092919080359060200190640100000000811115610f6057600080fd5b820183602082011115610f7257600080fd5b80359060200191846001830284011164010000000083111715610f9457600080fd5b91908080601f016020809104026020016040519081016040528093929190818152602001838380828437600081840152601f19601f82011690508083019250505050505050919291929050505061317b565b005b610ff06132f1565b604051808273ffffffffffffffffffffffffffffffffffffffff1673ffffffffffffffffffffffffffffffffffffffff16815260200191505060405180910390f35b6000600a60009054906101000a900473ffffffffffffffffffffffffffffffffffffffff1673ffffffffffffffffffffffffffffffffffffffff163373ffffffffffffffffffffffffffffffffffffffff16146110da576040517f08c379a000000000000000000000000000000000000000000000000000000000815260040180806020018281038252605d815260200180614aae605d913960600191505060405180910390fd5b600254905090565b6000600a60009054906101000a900473ffffffffffffffffffffffffffffffffffffffff1673ffffffffffffffffffffffffffffffffffffffff163373ffffffffffffffffffffffffffffffffffffffff161461118a576040517f08c379a000000000000000000000000000000000000000000000000000000000815260040180806020018281038252605d815260200180614aae605d913960600191505060405180910390fd5b600160008373ffffffffffffffffffffffffffffffffffffffff1673ffffffffffffffffffffffffffffffffffffffff16815260200190815260200160002060009054906101000a900460ff169050919050565b600a60009054906101000a900473ffffffffffffffffffffffffffffffffffffffff1681565b600082805160208101820180518482526020830160208501208183528095505050505050602052806000526040600020600091509150508054600181600116156101000203166002900480601f0160208091040260200160405190810160405280929190818152602001828054600181600116156101000203166002900480156112cf5780601f106112a4576101008083540402835291602001916112cf565b820191906000526020600020905b8154815290600101906020018083116112b257829003601f168201915b505050505081565b6060600360008373ffffffffffffffffffffffffffffffffffffffff1673ffffffffffffffffffffffffffffffffffffffff1681526020019081526020016000208054600181600116156101000203166002900480601f0160208091040260200160405190810160405280929190818152602001828054600181600116156101000203166002900480156113ac5780601f10611381576101008083540402835291602001916113ac565b820191906000526020600020905b81548152906001019060200180831161138f57829003601f168201915b50505050509050919050565b60016020528060005260406000206000915054906101000a900460ff1681565b600181565b6006818051602081018201805184825260208301602085012081835280955050505050506000915054906101000a900460ff1681565b60036020528060005260406000206000915090508054600181600116156101000203166002900480601f0160208091040260200160405190810160405280929190818152602001828054600181600116156101000203166002900480156114bb5780601f10611490576101008083540402835291602001916114bb565b820191906000526020600020905b81548152906001019060200180831161149e57829003601f168201915b505050505081565b60025481565b600081565b600a60009054906101000a900473ffffffffffffffffffffffffffffffffffffffff1673ffffffffffffffffffffffffffffffffffffffff163373ffffffffffffffffffffffffffffffffffffffff1614611574576040517f08c379a000000000000000000000000000000000000000000000000000000000815260040180806020018281038252605d815260200180614aae605d913960600191505060405180910390fd5b61157d816133c1565b50565b60088280516020810182018051848252602083016020850120818352809550505050505081600381106115af57fe5b60209182820401919006915091509054906101000a900460ff1681565b60098280516020810182018051848252602083016020850120818352809550505050505081600381106115fb57fe5b60209182820401919006915091509054906101000a900460ff1681565b600281565b6000600a60009054906101000a900473ffffffffffffffffffffffffffffffffffffffff1673ffffffffffffffffffffffffffffffffffffffff163373ffffffffffffffffffffffffffffffffffffffff16146116c5576040517f08c379a000000000000000000000000000000000000000000000000000000000815260040180806020018281038252605d815260200180614aae605d913960600191505060405180910390fd5b600254821061171f576040517f08c379a0000000000000000000000000000000000000000000000000000000008152600401808060200182810382526076815260200180614b806076913960800191505060405180910390fd5b600080905060606040518060200160405280600081525090505b600115611874576000816040518082805190602001908083835b602083106117765780518252602082019150602081019050602083039250611753565b6001836020036101000a0380198251168184511680821785525050505050509050019150509081526020016040518091039020600060011515151581526020019081526020016000208054600181600116156101000203166002900480601f0160208091040260200160405190810160405280929190818152602001828054600181600116156101000203166002900480156118535780601f1061182857610100808354040283529160200191611853565b820191906000526020600020905b81548152906001019060200180831161183657829003601f168201915b505050505090508382141561186757611874565b8180600101925050611739565b61187d816138e3565b92505050919050565b600a60009054906101000a900473ffffffffffffffffffffffffffffffffffffffff1673ffffffffffffffffffffffffffffffffffffffff163373ffffffffffffffffffffffffffffffffffffffff161461192c576040517f08c379a000000000000000000000000000000000000000000000000000000000815260040180806020018281038252605d815260200180614aae605d913960600191505060405180910390fd5b6006826040518082805190602001908083835b60208310611962578051825260208201915060208101905060208303925061193f565b6001836020036101000a038019825116818451168082178552505050505050905001915050908152602001604051809103902060009054906101000a900460ff16156119f9576040517f08c379a000000000000000000000000000000000000000000000000000000000815260040180806020018281038252602a815260200180614b0b602a913960400191505060405180910390fd5b600160008473ffffffffffffffffffffffffffffffffffffffff1673ffffffffffffffffffffffffffffffffffffffff16815260200190815260200160002060009054906101000a900460ff16611a9b576040517f08c379a0000000000000000000000000000000000000000000000000000000008152600401808060200182810382526034815260200180614d0f6034913960400191505060405180910390fd5b60016006836040518082805190602001908083835b60208310611ad35780518252602082019150602081019050602083039250611ab0565b6001836020036101000a038019825116818451168082178552505050505050905001915050908152602001604051809103902060006101000a81548160ff021916908315150217905550846005836040518082805190602001908083835b60208310611b545780518252602082019150602081019050602083039250611b31565b6001836020036101000a0380198251168184511680821785525050505050509050019150509081526020016040518091039020600060038110611b9357fe5b0160006101000a81548173ffffffffffffffffffffffffffffffffffffffff021916908373ffffffffffffffffffffffffffffffffffffffff160217905550836005836040518082805190602001908083835b60208310611c095780518252602082019150602081019050602083039250611be6565b6001836020036101000a0380198251168184511680821785525050505050509050019150509081526020016040518091039020600160038110611c4857fe5b0160006101000a81548173ffffffffffffffffffffffffffffffffffffffff021916908373ffffffffffffffffffffffffffffffffffffffff160217905550826005836040518082805190602001908083835b60208310611cbe5780518252602082019150602081019050602083039250611c9b565b6001836020036101000a0380198251168184511680821785525050505050509050019150509081526020016040518091039020600260038110611cfd57fe5b0160006101000a81548173ffffffffffffffffffffffffffffffffffffffff021916908373ffffffffffffffffffffffffffffffffffffffff160217905550806007836040518082805190602001908083835b60208310611d735780518252602082019150602081019050602083039250611d50565b6001836020036101000a038019825116818451168082178552505050505050905001915050908152602001604051809103902081905550611df4600460008573ffffffffffffffffffffffffffffffffffffffff1673ffffffffffffffffffffffffffffffffffffffff168152602001908152602001600020546001613b3c565b600460008573ffffffffffffffffffffffffffffffffffffffff1673ffffffffffffffffffffffffffffffffffffffff168152602001908152602001600020819055505050505050565b600a60009054906101000a900473ffffffffffffffffffffffffffffffffffffffff1673ffffffffffffffffffffffffffffffffffffffff163373ffffffffffffffffffffffffffffffffffffffff1614611ee4576040517f08c379a000000000000000000000000000000000000000000000000000000000815260040180806020018281038252605d815260200180614aae605d913960600191505060405180910390fd5b6006816040518082805190602001908083835b60208310611f1a5780518252602082019150602081019050602083039250611ef7565b6001836020036101000a038019825116818451168082178552505050505050905001915050908152602001604051809103902060009054906101000a900460ff16611fb0576040517f08c379a000000000000000000000000000000000000000000000000000000000815260040180806020018281038252603a815260200180614c42603a913960400191505060405180910390fd5b60008273ffffffffffffffffffffffffffffffffffffffff166005836040518082805190602001908083835b60208310611fff5780518252602082019150602081019050602083039250611fdc565b6001836020036101000a038019825116818451168082178552505050505050905001915050908152602001604051809103902060006003811061203e57fe5b0160009054906101000a900473ffffffffffffffffffffffffffffffffffffffff1673ffffffffffffffffffffffffffffffffffffffff16148061214357508273ffffffffffffffffffffffffffffffffffffffff166005836040518082805190602001908083835b602083106120ca57805182526020820191506020810190506020830392506120a7565b6001836020036101000a038019825116818451168082178552505050505050905001915050908152602001604051809103902060016003811061210957fe5b0160009054906101000a900473ffffffffffffffffffffffffffffffffffffffff1673ffffffffffffffffffffffffffffffffffffffff16145b8061220f57508273ffffffffffffffffffffffffffffffffffffffff166005836040518082805190602001908083835b602083106121965780518252602082019150602081019050602083039250612173565b6001836020036101000a03801982511681845116808217855250505050505090500191505090815260200160405180910390206002600381106121d557fe5b0160009054906101000a900473ffffffffffffffffffffffffffffffffffffffff1673ffffffffffffffffffffffffffffffffffffffff16145b905080612267576040517f08c379a00000000000000000000000000000000000000000000000000000000081526004018080602001828103825260778152602001806149826077913960800191505060405180910390fd5b61227082613bc4565b156122c6576040517f08c379a0000000000000000000000000000000000000000000000000000000008152600401808060200182810382526093815260200180614c7c6093913960a00191505060405180910390fd5b600080905060008090505b60038110156123b4578473ffffffffffffffffffffffffffffffffffffffff166005856040518082805190602001908083835b602083106123275780518252602082019150602081019050602083039250612304565b6001836020036101000a0380198251168184511680821785525050505050509050019150509081526020016040518091039020826003811061236557fe5b0160009054906101000a900473ffffffffffffffffffffffffffffffffffffffff1673ffffffffffffffffffffffffffffffffffffffff1614156123a7578091505b80806001019150506122d1565b506123be83613c8d565b1561245f5760016009846040518082805190602001908083835b602083106123fb57805182526020820191506020810190506020830392506123d8565b6001836020036101000a0380198251168184511680821785525050505050509050019150509081526020016040518091039020826003811061243957fe5b602091828204019190066101000a81548160ff02191690831515021790555050506126f5565b60006008846040518082805190602001908083835b602083106124975780518252602082019150602081019050602083039250612474565b6001836020036101000a038019825116818451168082178552505050505050905001915050908152602001604051809103902082600381106124d557fe5b602091828204019190066101000a81548160ff02191690831515021790555060016009846040518082805190602001908083835b6020831061252c5780518252602082019150602081019050602083039250612509565b6001836020036101000a0380198251168184511680821785525050505050509050019150509081526020016040518091039020826003811061256a57fe5b602091828204019190066101000a81548160ff02191690831515021790555061259283613bc4565b156126f25760006007846040518082805190602001908083835b602083106125cf57805182526020820191506020810190506020830392506125ac565b6001836020036101000a038019825116818451168082178552505050505050905001915050908152602001604051809103902054905060006126a66005866040518082805190602001908083835b60208310612640578051825260208201915060208101905060208303925061261d565b6001836020036101000a038019825116818451168082178552505050505050905001915050908152602001604051809103902060006003811061267f57fe5b0160009054906101000a900473ffffffffffffffffffffffffffffffffffffffff16613d56565b90508073ffffffffffffffffffffffffffffffffffffffff166108fc839081150290604051600060405180830381858888f193505050501580156126ee573d6000803e3d6000fd5b5050505b50505b5050565b60046020528060005260406000206000915090505481565b600582805160208101820180518482526020830160208501208183528095505050505050816003811061274057fe5b016000915091509054906101000a900473ffffffffffffffffffffffffffffffffffffffff1681565b6040518060200160405280600081525081565b600081565b600a60009054906101000a900473ffffffffffffffffffffffffffffffffffffffff1673ffffffffffffffffffffffffffffffffffffffff163373ffffffffffffffffffffffffffffffffffffffff1614612827576040517f08c379a000000000000000000000000000000000000000000000000000000000815260040180806020018281038252605d815260200180614aae605d913960600191505060405180910390fd5b6006816040518082805190602001908083835b6020831061285d578051825260208201915060208101905060208303925061283a565b6001836020036101000a038019825116818451168082178552505050505050905001915050908152602001604051809103902060009054906101000a900460ff166128f3576040517f08c379a000000000000000000000000000000000000000000000000000000000815260040180806020018281038252603a815260200180614c42603a913960400191505060405180910390fd5b60008273ffffffffffffffffffffffffffffffffffffffff166005836040518082805190602001908083835b60208310612942578051825260208201915060208101905060208303925061291f565b6001836020036101000a038019825116818451168082178552505050505050905001915050908152602001604051809103902060006003811061298157fe5b0160009054906101000a900473ffffffffffffffffffffffffffffffffffffffff1673ffffffffffffffffffffffffffffffffffffffff161480612a8657508273ffffffffffffffffffffffffffffffffffffffff166005836040518082805190602001908083835b60208310612a0d57805182526020820191506020810190506020830392506129ea565b6001836020036101000a0380198251168184511680821785525050505050509050019150509081526020016040518091039020600160038110612a4c57fe5b0160009054906101000a900473ffffffffffffffffffffffffffffffffffffffff1673ffffffffffffffffffffffffffffffffffffffff16145b80612b5257508273ffffffffffffffffffffffffffffffffffffffff166005836040518082805190602001908083835b60208310612ad95780518252602082019150602081019050602083039250612ab6565b6001836020036101000a0380198251168184511680821785525050505050509050019150509081526020016040518091039020600260038110612b1857fe5b0160009054906101000a900473ffffffffffffffffffffffffffffffffffffffff1673ffffffffffffffffffffffffffffffffffffffff16145b905080612baa576040517f08c379a000000000000000000000000000000000000000000000000000000000815260040180806020018281038252607481526020018061490e6074913960800191505060405180910390fd5b612bb382613c8d565b15612c09576040517f08c379a0000000000000000000000000000000000000000000000000000000008152600401808060200182810382526093815260200180614a1b6093913960a00191505060405180910390fd5b600080905060008090505b6003811015612cf7578473ffffffffffffffffffffffffffffffffffffffff166005856040518082805190602001908083835b60208310612c6a5780518252602082019150602081019050602083039250612c47565b6001836020036101000a03801982511681845116808217855250505050505090500191505090815260200160405180910390208260038110612ca857fe5b0160009054906101000a900473ffffffffffffffffffffffffffffffffffffffff1673ffffffffffffffffffffffffffffffffffffffff161415612cea578091505b8080600101915050612c14565b50612d0183613bc4565b15612da25760016008846040518082805190602001908083835b60208310612d3e5780518252602082019150602081019050602083039250612d1b565b6001836020036101000a03801982511681845116808217855250505050505090500191505090815260200160405180910390208260038110612d7c57fe5b602091828204019190066101000a81548160ff0219169083151502179055505050613144565b60016008846040518082805190602001908083835b60208310612dda5780518252602082019150602081019050602083039250612db7565b6001836020036101000a03801982511681845116808217855250505050505090500191505090815260200160405180910390208260038110612e1857fe5b602091828204019190066101000a81548160ff02191690831515021790555060006009846040518082805190602001908083835b60208310612e6f5780518252602082019150602081019050602083039250612e4c565b6001836020036101000a03801982511681845116808217855250505050505090500191505090815260200160405180910390208260038110612ead57fe5b602091828204019190066101000a81548160ff021916908315150217905550612ed583613bc4565b156131415760006007846040518082805190602001908083835b60208310612f125780518252602082019150602081019050602083039250612eef565b6001836020036101000a03801982511681845116808217855250505050505090500191505090815260200160405180910390205490506000612f576005606484613d65565b90506000612f658383613d88565b905060006130086005886040518082805190602001908083835b60208310612fa25780518252602082019150602081019050602083039250612f7f565b6001836020036101000a0380198251168184511680821785525050505050509050019150509081526020016040518091039020600160038110612fe157fe5b0160009054906101000a900473ffffffffffffffffffffffffffffffffffffffff16613d56565b905060006130ab6005896040518082805190602001908083835b602083106130455780518252602082019150602081019050602083039250613022565b6001836020036101000a038019825116818451168082178552505050505050905001915050908152602001604051809103902060026003811061308457fe5b0160009054906101000a900473ffffffffffffffffffffffffffffffffffffffff16613d56565b90508173ffffffffffffffffffffffffffffffffffffffff166108fc849081150290604051600060405180830381858888f193505050501580156130f3573d6000803e3d6000fd5b508073ffffffffffffffffffffffffffffffffffffffff166108fc859081150290604051600060405180830381858888f1935050505015801561313a573d6000803e3d6000fd5b5050505050505b50505b5050565b600181565b6007818051602081018201805184825260208301602085012081835280955050505050506000915090505481565b600a60009054906101000a900473ffffffffffffffffffffffffffffffffffffffff1673ffffffffffffffffffffffffffffffffffffffff163373ffffffffffffffffffffffffffffffffffffffff1614613221576040517f08c379a000000000000000000000000000000000000000000000000000000000815260040180806020018281038252605d815260200180614aae605d913960600191505060405180910390fd5b61323a8160405180602001604052806000815250613df4565b15613290576040517f08c379a000000000000000000000000000000000000000000000000000000000815260040180806020018281038252604c815260200180614bf6604c913960600191505060405180910390fd5b80600360003373ffffffffffffffffffffffffffffffffffffffff1673ffffffffffffffffffffffffffffffffffffffff16815260200190815260200160002090805190602001906132e3929190614799565b506132ed82613ee3565b5050565b6000600a60009054906101000a900473ffffffffffffffffffffffffffffffffffffffff1673ffffffffffffffffffffffffffffffffffffffff163373ffffffffffffffffffffffffffffffffffffffff1614613399576040517f08c379a000000000000000000000000000000000000000000000000000000000815260040180806020018281038252605d815260200180614aae605d913960600191505060405180910390fd5b600a60009054906101000a900473ffffffffffffffffffffffffffffffffffffffff16905090565b600160008273ffffffffffffffffffffffffffffffffffffffff1673ffffffffffffffffffffffffffffffffffffffff16815260200190815260200160002060009054906101000a900460ff16613417576138e0565b60606134228261434f565b90506000816040518082805190602001908083835b6020831061345a5780518252602082019150602081019050602083039250613437565b6001836020036101000a038019825116818451168082178552505050505050905001915050908152602001604051809103902060006001151515158152602001908152602001600020600080836040518082805190602001908083835b602083106134da57805182526020820191506020810190506020830392506134b7565b6001836020036101000a0380198251168184511680821785525050505050509050019150509081526020016040518091039020600080151515158152602001908152602001600020604051808280546001816001161561010002031660029004801561357d5780601f1061355b57610100808354040283529182019161357d565b820191906000526020600020905b815481529060010190602001808311613569575b505091505090815260200160405180910390206000600115151515815260200190815260200160002090805460018160011615610100020316600290046135c5929190614819565b506000816040518082805190602001908083835b602083106135fc57805182526020820191506020810190506020830392506135d9565b6001836020036101000a0380198251168184511680821785525050505050509050019150509081526020016040518091039020600080151515158152602001908152602001600020600080836040518082805190602001908083835b6020831061367b5780518252602082019150602081019050602083039250613658565b6001836020036101000a038019825116818451168082178552505050505050905001915050908152602001604051809103902060006001151515158152602001908152602001600020604051808280546001816001161561010002031660029004801561371f5780601f106136fd57610100808354040283529182019161371f565b820191906000526020600020905b81548152906001019060200180831161370b575b505091505090815260200160405180910390206000801515151581526020019081526020016000209080546001816001161561010002031660029004613766929190614819565b506000816040518082805190602001908083835b6020831061379d578051825260208201915060208101905060208303925061377a565b6001836020036101000a038019825116818451168082178552505050505050905001915050908152602001604051809103902060008015151515815260200190815260200160002060006137f191906148a0565b6000816040518082805190602001908083835b602083106138275780518252602082019150602081019050602083039250613804565b6001836020036101000a038019825116818451168082178552505050505050905001915050908152602001604051809103902060006001151515158152602001908152602001600020600061387c91906148a0565b60026000815480929190600190039190505550600160008373ffffffffffffffffffffffffffffffffffffffff1673ffffffffffffffffffffffffffffffffffffffff16815260200190815260200160002060006101000a81549060ff0219169055505b50565b6000606082905060008090506000806000600290505b602a811015613b2f576101008402935084818151811061391557fe5b602001015160f81c60f81b60f81c60ff16925084600182018151811061393757fe5b602001015160f81c60f81b60f81c60ff16915060618373ffffffffffffffffffffffffffffffffffffffff1610158015613988575060668373ffffffffffffffffffffffffffffffffffffffff1611155b1561399857605783039250613a32565b60418373ffffffffffffffffffffffffffffffffffffffff16101580156139d6575060468373ffffffffffffffffffffffffffffffffffffffff1611155b156139e657603783039250613a31565b60308373ffffffffffffffffffffffffffffffffffffffff1610158015613a24575060398373ffffffffffffffffffffffffffffffffffffffff1611155b15613a30576030830392505b5b5b60618273ffffffffffffffffffffffffffffffffffffffff1610158015613a70575060668273ffffffffffffffffffffffffffffffffffffffff1611155b15613a8057605782039150613b1a565b60418273ffffffffffffffffffffffffffffffffffffffff1610158015613abe575060468273ffffffffffffffffffffffffffffffffffffffff1611155b15613ace57603782039150613b19565b60308273ffffffffffffffffffffffffffffffffffffffff1610158015613b0c575060398273ffffffffffffffffffffffffffffffffffffffff1611155b15613b18576030820391505b5b5b816010840201840193506002810190506138f9565b5082945050505050919050565b600080828401905083811015613bba576040517f08c379a00000000000000000000000000000000000000000000000000000000081526004018080602001828103825260208152602001807f5f736166654d617468416464203a204164646974696f6e204f766572666c6f7781525060200191505060405180910390fd5b8091505092915050565b6000806000905060008090505b6003811015613c7f576008846040518082805190602001908083835b60208310613c105780518252602082019150602081019050602083039250613bed565b6001836020036101000a03801982511681845116808217855250505050505090500191505090815260200160405180910390208160038110613c4e57fe5b602091828204019190069054906101000a900460ff1615613c725781806001019250505b8080600101915050613bd1565b506002811015915050919050565b6000806000905060008090505b6003811015613d48576009846040518082805190602001908083835b60208310613cd95780518252602082019150602081019050602083039250613cb6565b6001836020036101000a03801982511681845116808217855250505050505090500191505090815260200160405180910390208160038110613d1757fe5b602091828204019190069054906101000a900460ff1615613d3b5781806001019250505b8080600101915050613c9a565b506002811015915050919050565b60008082905080915050919050565b600080613d7285846145d0565b9050613d7e81856146c2565b9150509392505050565b600082821115613de3576040517f08c379a0000000000000000000000000000000000000000000000000000000008152600401808060200182810382526028815260200180614b586028913960400191505060405180910390fd5b600082840390508091505092915050565b6000816040516020018082805190602001908083835b60208310613e2d5780518252602082019150602081019050602083039250613e0a565b6001836020036101000a03801982511681845116808217855250505050505090500191505060405160208183030381529060405280519060200120836040516020018082805190602001908083835b60208310613e9f5780518252602082019150602081019050602083039250613e7c565b6001836020036101000a0380198251168184511680821785525050505050509050019150506040516020818303038152906040528051906020012014905092915050565b600160008273ffffffffffffffffffffffffffffffffffffffff1673ffffffffffffffffffffffffffffffffffffffff16815260200190815260200160002060009054906101000a900460ff1615613f3a5761434c565b6060613f458261434f565b9050604051806020016040528060008152506000826040518082805190602001908083835b60208310613f8d5780518252602082019150602081019050602083039250613f6a565b6001836020036101000a03801982511681845116808217855250505050505090500191505090815260200160405180910390206000801515151581526020019081526020016000209080519060200190613fe8929190614799565b506000604051806020016040528060008152506040518082805190602001908083835b6020831061402e578051825260208201915060208101905060208303925061400b565b6001836020036101000a0380198251168184511680821785525050505050509050019150509081526020016040518091039020600060011515151581526020019081526020016000206000826040518082805190602001908083835b602083106140ad578051825260208201915060208101905060208303925061408a565b6001836020036101000a0380198251168184511680821785525050505050509050019150509081526020016040518091039020600060011515151581526020019081526020016000209080546001816001161561010002031660029004614115929190614819565b5080600080604051806020016040528060008152506040518082805190602001908083835b6020831061415d578051825260208201915060208101905060208303925061413a565b6001836020036101000a03801982511681845116808217855250505050505090500191505090815260200160405180910390206000600115151515815260200190815260200160002060405180828054600181600116156101000203166002900480156142015780601f106141df576101008083540402835291820191614201565b820191906000526020600020905b8154815290600101906020018083116141ed575b50509150509081526020016040518091039020600080151515158152602001908152602001600020908051906020019061423c929190614799565b50806000604051806020016040528060008152506040518082805190602001908083835b602083106142835780518252602082019150602081019050602083039250614260565b6001836020036101000a03801982511681845116808217855250505050505090500191505090815260200160405180910390206000600115151515815260200190815260200160002090805190602001906142df929190614799565b506142ed6002546001613b3c565b60028190555060018060008473ffffffffffffffffffffffffffffffffffffffff1673ffffffffffffffffffffffffffffffffffffffff16815260200190815260200160002060006101000a81548160ff021916908315150217905550505b50565b606060008273ffffffffffffffffffffffffffffffffffffffff1660001b905060606040518060400160405280601081526020017f303132333435363738396162636465660000000000000000000000000000000081525090506060602a6040519080825280601f01601f1916602001820160405280156143df5781602001600182028038833980820191505090505b5090507f30000000000000000000000000000000000000000000000000000000000000008160008151811061441057fe5b60200101907effffffffffffffffffffffffffffffffffffffffffffffffffffffffffffff1916908160001a9053507f78000000000000000000000000000000000000000000000000000000000000008160018151811061446d57fe5b60200101907effffffffffffffffffffffffffffffffffffffffffffffffffffffffffffff1916908160001a90535060008090505b60148110156145c45782600485600c8401602081106144bd57fe5b1a60f81b7effffffffffffffffffffffffffffffffffffffffffffffffffffffffffffff1916901c60f81c60ff16815181106144f557fe5b602001015160f81c60f81b82600283026002018151811061451257fe5b60200101907effffffffffffffffffffffffffffffffffffffffffffffffffffffffffffff1916908160001a90535082600f60f81b85600c84016020811061455657fe5b1a60f81b1660f81c60ff168151811061456b57fe5b602001015160f81c60f81b82600283026003018151811061458857fe5b60200101907effffffffffffffffffffffffffffffffffffffffffffffffffffffffffffff1916908160001a90535080806001019150506144a2565b50809350505050919050565b6000808314806145e05750600082145b156145ee57600090506146bc565b60008284029050828482816145ff57fe5b0414614656576040517f08c379a000000000000000000000000000000000000000000000000000000000815260040180806020018281038252602b815260200180614d43602b913960400191505060405180910390fd5b8383828161466057fe5b04146146b7576040517f08c379a000000000000000000000000000000000000000000000000000000000815260040180806020018281038252602b815260200180614d43602b913960400191505060405180910390fd5b809150505b92915050565b600080821161471c576040517f08c379a00000000000000000000000000000000000000000000000000000000081526004018080602001828103825260228152602001806149f96022913960400191505060405180910390fd5b600082848161472757fe5b04905082848161473357fe5b0681840201841461478f576040517f08c379a0000000000000000000000000000000000000000000000000000000008152600401808060200182810382526023815260200180614b356023913960400191505060405180910390fd5b8091505092915050565b828054600181600116156101000203166002900490600052602060002090601f016020900481019282601f106147da57805160ff1916838001178555614808565b82800160010185558215614808579182015b828111156148075782518255916020019190600101906147ec565b5b50905061481591906148e8565b5090565b828054600181600116156101000203166002900490600052602060002090601f016020900481019282601f10614852578054855561488f565b8280016001018555821561488f57600052602060002091601f016020900482015b8281111561488e578254825591600101919060010190614873565b5b50905061489c91906148e8565b5090565b50805460018160011615610100020316600290046000825580601f106148c657506148e5565b601f0160209004906000526020600020908101906148e491906148e8565b5b50565b61490a91905b808211156149065760008160009055506001016148ee565b5090565b9056fe4e6f7420616c6c6f77656420746f20417070726f7665204d656469617465642053616c6573205472616e73616374696f6e2c2062656361757365204d6573736167652053656e646572206973206e656974686572207468652042757965722c2053656c6c65722c206f72204d65646961746f72214e6f7420616c6c6f77656420746f20446973617070726f7665204d656469617465642053616c6573205472616e73616374696f6e2c2062656361757365204d6573736167652053656e646572206973206e656974686572207468652042757965722c2053656c6c65722c206f72204d65646961746f72215f736166654d617468446976696465203a2044656e6f6d696e61746f7220697320304d656469617465642053616c6573205472616e73616374696f6e2068617320616c7265616479206265656e20446973617070726f766564206279206174206c6561737420322d6f75742d6f662d33206f66207468652042757965722c2053656c6c65722c20616e642f6f72204d65646961746f72212043616e6e6f7420417070726f7665206174207468697320706f696e74214f6e6c792074686520457468657265756d20416464726573732074686174206465706c6f796564205448495320436f6e7472616374206d6179206578656375746520616e79206f662069742773207075626c6963206d6574686f6473214d656469617465642053616c6573205472616e73616374696f6e20616c726561647920657869737473215f736166654d617468446976696465203a204469766973696f6e204f766572666c6f775f736166654d6174685375627472616374203a205375627472616374696f6e204f766572666c6f77496e6465782076616c756520676976656e2069732067726561746572207468616e206f7220657175616c20746f20746865204e756d626572206f66204d65646961746f7273212049742073686f756c64206265206c657373207468616e20746865204e756d626572206f66204d65646961746f72732143616e6e6f74206861766520616e20656d70747920537472696e6720666f722074686520495046532048617368204b6579204465736372697074696f6e206f662061204d65646961746f7221476976656e204d656469617465642053616c6573205472616e73616374696f6e2049504653204861736820646f6573206e6f74206578697374214d656469617465642053616c6573205472616e73616374696f6e2068617320616c7265616479206265656e20417070726f766564206279206174206c6561737420322d6f75742d6f662d33206f66207468652042757965722c2053656c6c65722c20616e642f6f72204d65646961746f72212043616e6e6f7420446973617070726f7665206174207468697320706f696e7421476976656e204d65646961746f72204164647265737320646f6573206e6f742065786973742061732061204d65646961746f72215f736166654d6174684d756c7469706c79203a204d756c7469706c69636174696f6e204f766572666c6f77a165627a7a723058209d552f66e4b335b817e93c640840d31ab858bbb945bdd9294ce7551f3d182c770029",
  "source": "pragma solidity >=0.4.22 <0.6.0;\r\n\r\nimport \"./GeneralUtilities.sol\";\r\n\r\ncontract FranklinDecentralizedMarketplaceMediation {\r\n    using GeneralUtilities for *;\r\n    \r\n    // Constants used for the Double-Linked list and other uses.\r\n    bool constant public PREV = false;\r\n    bool constant public NEXT = true;\r\n    string constant public EMPTY_STRING = \"\";\r\n    \r\n    // A double-linked list that lists all the Mediators by their Ethereum Address in string format.\r\n    //\r\n    // For an explanation as to how the \"mapping(string => mapping(bool => string))\" double linked-list works and the code pertaining to it from which was borrowed, please go to the\r\n    // https://ethereum.stackexchange.com/questions/15337/can-we-get-all-elements-stored-in-a-mapping-in-the-contract web page.\r\n    //\r\n    // Each \"string\" below refers to the Ethereum Address of the Mediator in string format.\r\n    mapping(string => mapping(bool => string)) public listOfMediators;\r\n    \r\n    // Map that keeps track of whether a Mediator exists. The \"address\" key is the Ethereum Address of the Mediator.\r\n    mapping(address => bool) public mediatorExistsMap;\r\n    \r\n    // Keeps a count on the Number of Mediators that mediate sales on this platform.\r\n    uint public numberOfMediators;\r\n    \r\n    // This Mapping contains the Description Information about the Mediators. The Mediator is responsible for adding this information.\r\n    //\r\n    // Mapping is as follows:\r\n    // 1) Key: Ethereum Address of the Mediator\r\n    // 2) Value: IPFS Hash string of the information pertaining to the Mediator. This information is stored in the IPFS Storage Network.\r\n    //           This information should be a JSON-formatted string.\r\n    mapping(address => string) public descriptionInfoAboutMediators;\r\n    \r\n    // This Mapping contains the Number of Mediations that a Mediator has been involved.\r\n    //\r\n    // Mapping is as follows:\r\n    // 1) Key: Ethereum Address of the Mediator\r\n    // 2) Value: Number of Mediations that a Mediators has been involved\r\n    mapping(address => uint) public numberOfMediationsMediatorInvolved;\r\n\r\n    // Constants used for the Mediated Sales Transactions mappings that have a \"bool[3]\" as a value in it's \"mapping\".\r\n    uint constant public BUYER_INDEX = 0;\r\n    uint constant public SELLER_INDEX = 1;\r\n    uint constant public MEDIATOR_INDEX = 2;\r\n    \r\n    // Maps the Mediated Sales Transaction IPFS Hash to the three Ethereum Addresses involved in the Sale of an Item involving a Mediator. The Mediated Sales Transaction IPFS Hash\r\n    // refers to a JSON-formatted string that describes this Transaction in the IPFS Storage System.\r\n    //\r\n    // Mapping is as follows:\r\n    // 1) Key: IPFS Hash string of the Mediated Sales Transaction\r\n    // 2) Values:\r\n    //    A) address[0] : Ethereum Address of the Buyer\r\n    //    B) address[1] : Ethereum Address of the Seller\r\n    //    C) address[2] : Ethereum Address of the Mediator\r\n    mapping(string => address[3]) public mediatedSalesTransactionAddresses;\r\n    \r\n    // Map that shows whether a Mediated Sales Transaction exists. The \"string\" key is the Mediated Sales Transaction IPFS Hash.\r\n    //\r\n    // Mapping is as follows:\r\n    // 1) Key: IPFS Hash string of the Mediated Sales Transaction\r\n    // 2) Value:\r\n    //    A) Boolean value of \"true\" indicates that the Mediated Sales Transaction exists\r\n    //    B) Boolean value of \"false\" indicates that the Mediated Sales Transaction exists\r\n    mapping (string => bool) public mediatedSalesTransactionExists;\r\n    \r\n    // Map that maps the Mediated Sales Transaction to the Sales Amount in Wei. The \"string\" key is the Mediated Sales Transaction IPFS Hash.\r\n    //\r\n    // Mapping is as follows:\r\n    // 1) Key: IPFS Hash string of the Mediated Sales Transaction\r\n    // 2) Value: Amount in Wei that the Buyer chose to pay for the Item(s)\r\n    mapping (string => uint) public mediatedSalesTransactionAmount;\r\n    \r\n    // Map that keeps track of whether a Mediated Sales Transaction has been Approved by the Buyer, Seller, and/or Mediator. \r\n    // The \"string\" key is the Mediated Sales Transaction IPFS Hash.\r\n    //\r\n    // Mapping is as follows:\r\n    // 1) Key: IPFS Hash string of the Mediated Sales Transaction\r\n    // 2) Values:\r\n    //    A) address[0] : Boolean flag indicating if Buyer Approves\r\n    //    B) address[1] : Boolean flag indicating if Seller Approves\r\n    //    C) address[2] : Boolean flag indicating if Mediator Approves\r\n    mapping (string => bool[3]) public mediatedSalesTransactionApprovedByParties;\r\n    \r\n    // Map that keeps track of whether a Mediated Sales Transaction has been Disapproved by the Buyer, Seller, and/or Mediator. \r\n    // The \"string\" key is the Mediated Sales Transaction IPFS Hash.\r\n    //\r\n    // Mapping is as follows:\r\n    // 1) Key: IPFS Hash string of the Mediated Sales Transaction\r\n    // 2) Values:\r\n    //    A) address[0] : Boolean flag indicating if Buyer Disapproves\r\n    //    B) address[1] : Boolean flag indicating if Seller Disapproves\r\n    //    C) address[2] : Boolean flag indicating if Mediator Disapproves\r\n    mapping (string => bool[3]) public mediatedSalesTransactionDisapprovedByParties;\r\n    \r\n    // Below is the Contract Address of the FranklinDecentralizedMarketplace Contract that deployed this Contract - the \r\n    // FranklinDecentralizedMarketplaceMediation Contract - via the constructor of the FranklinDecentralizedMarketplace Contract.\r\n    // The Contract code had to be split in two, because the Etherum Virtual Machine (EVM) would not allow deployment of a Contract\r\n    // that has more than 24576 bytes. So, the decision was made to SPLIT the code into the FranklinDecentralizedMarketplace \r\n    // and FranklinDecentralizedMarketplaceMediation Contracts where the FranklinDecentralizedMarketplace would deploy the\r\n    // FranklinDecentralizedMarketplaceMediation Contract via it's Conststructor. \r\n    //\r\n    // The code of the FranklinDecentralizedMarketplaceMediation Contract is written so that ONLY the \"franklinDecentralizedMarketplaceContractAddress\"\r\n    // that spawned and deployed this FranklinDecentralizedMarketplaceMediation Contract may execute any of the public functions of this \r\n    // FranklinDecentralizedMarketplaceMediation Contract\r\n    address public franklinDecentralizedMarketplaceContractAddress;\r\n    \r\n    modifier onlyContractOwnerMayExecute {\r\n        require(msg.sender == franklinDecentralizedMarketplaceContractAddress, \"Only the Ethereum Address that deployed THIS Contract may execute any of it's public methods!\");\r\n        _;\r\n    }\r\n    \r\n    // We're getting the Address of the FranklinDecentralizedMarketplace Contract that deployed THIS FranklinDecentralizedMarketplaceMediation via the\r\n    // constructor of this FranklinDecentralizedMarketplaceMediation Contract.\r\n    constructor() public {\r\n        franklinDecentralizedMarketplaceContractAddress = msg.sender;\r\n    }\r\n    \r\n    // Returns back the Contract Address of the FranklinDecentralizedMarketplace Contract that deployed THIS FranklinDecentralizedMarketplaceMediation \r\n    // Contract via the constructor of the FranklinDecentralizedMarketplace Contract. Only the returned Address may execute ANY of the public methods of THIS\r\n    // FranklinDecentralizedMarketplace Contract.\r\n    function getOnlyAddressThatMayAccessThisContract() onlyContractOwnerMayExecute external view returns (address) {\r\n        return franklinDecentralizedMarketplaceContractAddress;\r\n    }\r\n    \r\n    // Private Utility function used to add a given Ethereum Address as a Mediator in the \"listOfMediators\". The given Ethereum Address - \"_mediatorAddressString\" - used \r\n    // as input to this method is the string format version of the Ethereum Address obtained from the \"_addressToString\" method.\r\n    //\r\n    // Assumption: Since this is an internal private method, will assume that input \"_mediatorAddressString\" argument is valid.\r\n    function _addMediator(address _mediatorAddress) private {\r\n        if (mediatorExistsMap[_mediatorAddress]) {\r\n            return;\r\n        }\r\n        \r\n        string memory _mediatorAddressString = GeneralUtilities._addressToString(_mediatorAddress);\r\n        \r\n        // Link the new node \r\n        listOfMediators[_mediatorAddressString][PREV] = EMPTY_STRING;\r\n        listOfMediators[_mediatorAddressString][NEXT] = listOfMediators[EMPTY_STRING][NEXT];\r\n    \r\n        // Insert the new node\r\n        listOfMediators[listOfMediators[EMPTY_STRING][NEXT]][PREV] = _mediatorAddressString;\r\n        listOfMediators[EMPTY_STRING][NEXT] = _mediatorAddressString;\r\n        \r\n        numberOfMediators = GeneralUtilities._safeMathAdd(numberOfMediators, 1);\r\n        mediatorExistsMap[_mediatorAddress] = true;\r\n    }\r\n\r\n    // Adds or Updates a Mediator with the given \"_mediatorIpfsHashDescription\", which refers to a JSON-formatted string stored in the IPFS Storage System.\r\n    // The \"_mediatorAddress\" will be the Ethereum Address of the entity wishing to become a Mediator in this Smart Contract. This method allows anyone with an Ethereum \r\n    // Address to add himself/herself as a Mediator in this Smart Contract.\r\n    function addOrUpdateMediator(address _mediatorAddress, string memory _mediatorIpfsHashDescription) onlyContractOwnerMayExecute public {\r\n        require(!GeneralUtilities._compareStringsEqual(_mediatorIpfsHashDescription, EMPTY_STRING), \"Cannot have an empty String for the IPFS Hash Key Description of a Mediator!\");\r\n        descriptionInfoAboutMediators[msg.sender] = _mediatorIpfsHashDescription;\r\n        \r\n        _addMediator(_mediatorAddress);\r\n    }\r\n    \r\n    // Private Utility function used to remove a given Ethereum Address as a Mediator in the \"listOfMediators\". The given Ethereum Address - \"_mediatorAddressString\" - used \r\n    // as input to this method is the string format version of the Ethereum Address obtained from the \"_addressToString\" method.\r\n    //\r\n    // Assumption: Since this is an internal private method, will assume that input \"_mediatorAddressString\" argument is valid.    \r\n    function _removeMediator(address _mediatorAddress) private {\r\n        if (!mediatorExistsMap[_mediatorAddress]) {\r\n            return;\r\n        }\r\n        \r\n        string memory _mediatorAddressString = GeneralUtilities._addressToString(_mediatorAddress);\r\n        \r\n        // Stitch the neighbours together\r\n        listOfMediators[ listOfMediators[_mediatorAddressString][PREV] ][NEXT] = listOfMediators[_mediatorAddressString][NEXT];\r\n        listOfMediators[ listOfMediators[_mediatorAddressString][NEXT] ][PREV] = listOfMediators[_mediatorAddressString][PREV];\r\n    \r\n        // Delete state storage\r\n        delete listOfMediators[_mediatorAddressString][PREV];\r\n        delete listOfMediators[_mediatorAddressString][NEXT];\r\n        \r\n        numberOfMediators--;\r\n        delete mediatorExistsMap[_mediatorAddress];\r\n        \r\n        // We do not wish to remove the Mediator Description nor any other Mediator information, because the mediator may be involved Mediating some sales, and we wish \r\n        // to keep such information around.\r\n    }\r\n    \r\n    // Removes a Mediator from this Smart Contract. The \"_mediatorAddress\" will be the Ethereum Address of the entity wishing to remove himself/herself as a Mediator in this Smart Contract. \r\n    // If there are any pending Sales that the Mediator is involved, the Sales and other information will still be kept.\r\n    // This method allows anyone with an Ethereum  Address to remove himself/herself as a Mediator in this Smart Contract. \r\n    function removeMediator(address _mediatorAddress) onlyContractOwnerMayExecute external {\r\n        _removeMediator(_mediatorAddress);\r\n    }\r\n    \r\n    // Gets the Mediator Ethereum Address at the given \"_index\" from the \"listOfMediators\" double-linked list.\r\n    //\r\n    // Input Parameter:\r\n    // _itemIndex : Index number into the \"listOfMediators\" double-linked list.\r\n    //              Index starts at 0.\r\n    //\r\n    // Returns:\r\n    // 1) If the \"_index\" is less than the \"numberOfMediators\", then the Etheruem Address of the Mediator at the given \"_index\" into the \"listOfMediators\" double-linked list\r\n    //    is returned.\r\n    // 2) If the \"_index\" is greater than or equal to the \"numberOfMediators\", then an Exception is thrown via the \"require\" below.\r\n    function getMediatorAddress(uint _index) onlyContractOwnerMayExecute external view returns (address) {\r\n        require(_index < numberOfMediators, \"Index value given is greater than or equal to the Number of Mediators! It should be less than the Number of Mediators!\");\r\n        \r\n        // The \"key\" below is the Ethereum Address in string format that is in the \"listOfMediators\" double-linked list.\r\n        \r\n        uint keyCount = 0;\r\n        string memory key = EMPTY_STRING;\r\n        while (true) {\r\n            key = listOfMediators[key][NEXT];\r\n            if (keyCount == _index) {\r\n                break;\r\n            }\r\n            \r\n            keyCount++;\r\n        }\r\n        \r\n        return GeneralUtilities._parseEthereumAddressStringToAddress(key);    \r\n    }\r\n    \r\n    // Gets the Number of Mediators in the \"listOfMediators\".\r\n    function getNumberOfMediators() onlyContractOwnerMayExecute external view returns (uint) {\r\n        return numberOfMediators;\r\n    }\r\n    \r\n    // Returns back a boolean value to determine if the given \"_mediatorAddres\" is in the \"listOfMediators\".\r\n    function mediatorExists(address _mediatorAddress) onlyContractOwnerMayExecute external view returns (bool) {\r\n        return mediatorExistsMap[_mediatorAddress];\r\n    }\r\n    \r\n    function _mediatedSalesTransactionHasBeenApproved(string memory _mediatedSalesTransactionIpfsHash) private view returns (bool) {\r\n        uint numberOfApprovals = 0;\r\n        for (uint i = 0; i < 3; i++) {\r\n            if (mediatedSalesTransactionApprovedByParties[_mediatedSalesTransactionIpfsHash][i]) {\r\n                numberOfApprovals++;\r\n            }\r\n        }\r\n        \r\n        return (numberOfApprovals >= 2);\r\n    }\r\n    \r\n    function _mediatedSalesTransactionHasBeenDisapproved(string memory _mediatedSalesTransactionIpfsHash) private view returns (bool) {\r\n        uint numberOfDisapprovals = 0;\r\n        for (uint i = 0; i < 3; i++) {\r\n            if (mediatedSalesTransactionDisapprovedByParties[_mediatedSalesTransactionIpfsHash][i]) {\r\n                numberOfDisapprovals++;\r\n            }\r\n        }\r\n        \r\n        return (numberOfDisapprovals >= 2);\r\n    }    \r\n    \r\n    function approveMediatedSalesTransaction(address _approverAddress, string memory _mediatedSalesTransactionIpfsHash) onlyContractOwnerMayExecute public {\r\n        require(mediatedSalesTransactionExists[_mediatedSalesTransactionIpfsHash], \"Given Mediated Sales Transaction IPFS Hash does not exist!\");\r\n        \r\n        bool allowedToApprove = (mediatedSalesTransactionAddresses[_mediatedSalesTransactionIpfsHash][BUYER_INDEX] == _approverAddress) ||\r\n                                (mediatedSalesTransactionAddresses[_mediatedSalesTransactionIpfsHash][SELLER_INDEX] == _approverAddress) ||\r\n                                (mediatedSalesTransactionAddresses[_mediatedSalesTransactionIpfsHash][MEDIATOR_INDEX] == _approverAddress);\r\n        require(allowedToApprove, \"Not allowed to Approve Mediated Sales Transaction, because Message Sender is neither the Buyer, Seller, or Mediator!\");\r\n        \r\n        // If 2-out-of-3 of the Buyer, Seller, and/or Mediator have Disapproved the Mediated Sales Transaction, then it's status cannot be changed, because the Buyer has already been refunded \r\n        // the amount he/she paid.\r\n        require(!_mediatedSalesTransactionHasBeenDisapproved(_mediatedSalesTransactionIpfsHash), \r\n            \"Mediated Sales Transaction has already been Disapproved by at least 2-out-of-3 of the Buyer, Seller, and/or Mediator! Cannot Approve at this point!\");\r\n        \r\n        uint indexBuyerSellerOrMediator = 0;\r\n        for (uint i = 0; i < 3; i++) {\r\n            if (mediatedSalesTransactionAddresses[_mediatedSalesTransactionIpfsHash][i] == _approverAddress) {\r\n                indexBuyerSellerOrMediator = i;\r\n            }\r\n        }\r\n        \r\n        // If the Mediated Sales Transaction has already been Approved by 2-out-of-3 Buyer, Seller, and/or Mediator, then just note the approval from the \"msg.sender\" and that's it, because at \r\n        // this point the Seller Address has already been sent 95% of the Sales Amount, and the Mediator has already been sent 5% of the Sales Amount.\r\n        if (_mediatedSalesTransactionHasBeenApproved(_mediatedSalesTransactionIpfsHash)) {\r\n            mediatedSalesTransactionApprovedByParties[_mediatedSalesTransactionIpfsHash][indexBuyerSellerOrMediator] = true;\r\n            return;\r\n        }\r\n        \r\n        // Note the approval from the \"_approverAddress\". If one approves, than one cannot disapprove. Perhaps their's been a change of mind before FINAL Approval or Disapproval.\r\n        mediatedSalesTransactionApprovedByParties[_mediatedSalesTransactionIpfsHash][indexBuyerSellerOrMediator] = true;\r\n        mediatedSalesTransactionDisapprovedByParties[_mediatedSalesTransactionIpfsHash][indexBuyerSellerOrMediator] = false;\r\n        \r\n        // If after the \"msg.sender\" Approves the Mediated Sales Transaction, this reaches a State where 2-out-of-3 Buyer, Seller, and/or Mediator have Approved, then send 95% of the Sales Amount \r\n        // to the Seller Address and 5% of the Sales Amount to the Mediator Address.\r\n        if (_mediatedSalesTransactionHasBeenApproved(_mediatedSalesTransactionIpfsHash)) {\r\n            uint totalSalesAmount = mediatedSalesTransactionAmount[_mediatedSalesTransactionIpfsHash];\r\n            uint amountOfWeiToSendMediator = GeneralUtilities._getPercentageOfTotalAmount(uint256(5), uint256(100), uint256(totalSalesAmount));\r\n            uint amountOfWeiToSendSeller = GeneralUtilities._safeMathSubtract(totalSalesAmount, amountOfWeiToSendMediator);\r\n            \r\n            address payable sellerAddress = GeneralUtilities._convertAddressToAddressPayable(mediatedSalesTransactionAddresses[_mediatedSalesTransactionIpfsHash][SELLER_INDEX]);\r\n            address payable mediatorAddress = GeneralUtilities._convertAddressToAddressPayable(mediatedSalesTransactionAddresses[_mediatedSalesTransactionIpfsHash][MEDIATOR_INDEX]);\r\n            \r\n            sellerAddress.transfer(amountOfWeiToSendSeller);\r\n            mediatorAddress.transfer(amountOfWeiToSendMediator);\r\n        }\r\n    }\r\n    \r\n    function disapproveMediatedSalesTransaction(address _disapproverAddress, string memory _mediatedSalesTransactionIpfsHash) onlyContractOwnerMayExecute public {\r\n        require(mediatedSalesTransactionExists[_mediatedSalesTransactionIpfsHash], \"Given Mediated Sales Transaction IPFS Hash does not exist!\");\r\n        \r\n        bool allowedToDisapprove = (mediatedSalesTransactionAddresses[_mediatedSalesTransactionIpfsHash][BUYER_INDEX] == _disapproverAddress) ||\r\n                                (mediatedSalesTransactionAddresses[_mediatedSalesTransactionIpfsHash][SELLER_INDEX] == _disapproverAddress) ||\r\n                                (mediatedSalesTransactionAddresses[_mediatedSalesTransactionIpfsHash][MEDIATOR_INDEX] == _disapproverAddress);\r\n        require(allowedToDisapprove, \"Not allowed to Disapprove Mediated Sales Transaction, because Message Sender is neither the Buyer, Seller, or Mediator!\");\r\n        \r\n        // If 2-out-of-3 of the Buyer, Seller, and/or Mediator have Disapproved the Mediated Sales Transaction, then it's status cannot be changed, because the Seller has already been \r\n        // paid 95% of the Sales Amount, and the Mediator has already been paid 5% of the Sales Amount.\r\n        require(!_mediatedSalesTransactionHasBeenApproved(_mediatedSalesTransactionIpfsHash), \r\n            \"Mediated Sales Transaction has already been Approved by at least 2-out-of-3 of the Buyer, Seller, and/or Mediator! Cannot Disapprove at this point!\");\r\n        \r\n        uint indexBuyerSellerOrMediator = 0;\r\n        for (uint i = 0; i < 3; i++) {\r\n            if (mediatedSalesTransactionAddresses[_mediatedSalesTransactionIpfsHash][i] == _disapproverAddress) {\r\n                indexBuyerSellerOrMediator = i;\r\n            }\r\n        }\r\n        \r\n        // If the Mediated Sales Transaction has already been Disapproved by 2-out-of-3 Buyer, Seller, and/or Mediator, then just note the disapproval from the \"_disapproverAddress\" \r\n        // and that's it, because at this point the Buyer has alreaady been refunded the Sales Amount.\r\n        if (_mediatedSalesTransactionHasBeenDisapproved(_mediatedSalesTransactionIpfsHash)) {\r\n            mediatedSalesTransactionDisapprovedByParties[_mediatedSalesTransactionIpfsHash][indexBuyerSellerOrMediator] = true;\r\n            return;\r\n        }\r\n        \r\n        // Note the disapproval from the \"_disapproverAddress\". If one disapproves, than one cannot approve. Perhaps their's been a change of mind before FINAL Approval or Disapproval.\r\n        mediatedSalesTransactionApprovedByParties[_mediatedSalesTransactionIpfsHash][indexBuyerSellerOrMediator] = false;\r\n        mediatedSalesTransactionDisapprovedByParties[_mediatedSalesTransactionIpfsHash][indexBuyerSellerOrMediator] = true;\r\n        \r\n        // If after the \"msg.sender\" Disapproves the Mediated Sales Transaction, this reaches a State where 2-out-of-3 Buyer, Seller, and/or Mediator have Disapproved, then send 100% of the Sales Amount \r\n        // back to the Buyer Address.\r\n        if (_mediatedSalesTransactionHasBeenApproved(_mediatedSalesTransactionIpfsHash)) {\r\n            uint totalSalesAmount = mediatedSalesTransactionAmount[_mediatedSalesTransactionIpfsHash];\r\n        \r\n            address payable buyerAddress = GeneralUtilities._convertAddressToAddressPayable(mediatedSalesTransactionAddresses[_mediatedSalesTransactionIpfsHash][BUYER_INDEX]);\r\n            buyerAddress.transfer(totalSalesAmount);\r\n        }\r\n    }\r\n    \r\n    // Gets the Description of a Mediator identified by the given \"_mediatorAddress\". The Description will be the IPFS Hash where the JSON-formatted Description of the Mediator exists.\r\n    // If no such IPFS Hash Key Description exists, then an EMPTY_STRING will be returned.\r\n    function getMediatorIpfsHashDescription(address _mediatorAddress) external view returns (string memory) {\r\n        return descriptionInfoAboutMediators[_mediatorAddress];\r\n    }   \r\n    \r\n    function purchaseItemWithMediator(address _buyerAddress, address _sellerAddress, address _mediatorAddress, string memory _mediatedSalesTransactionIpfsHash, \r\n                uint totalAmountOfWeiNeededToPurchase) onlyContractOwnerMayExecute public {\r\n        require(!mediatedSalesTransactionExists[_mediatedSalesTransactionIpfsHash], \"Mediated Sales Transaction already exists!\");\r\n\r\n        require(mediatorExistsMap[_mediatorAddress], \"Given Mediator Address does not exist as a Mediator!\");\r\n        \r\n        // Keep track of the existence of the Mediated Sales Transaction so that it can be Approved or Disapproved by the Buyer, Seller, and/or Mediator in the future.\r\n        mediatedSalesTransactionExists[_mediatedSalesTransactionIpfsHash] = true;\r\n        mediatedSalesTransactionAddresses[_mediatedSalesTransactionIpfsHash][BUYER_INDEX] = _buyerAddress;\r\n        mediatedSalesTransactionAddresses[_mediatedSalesTransactionIpfsHash][SELLER_INDEX] = _sellerAddress;\r\n        mediatedSalesTransactionAddresses[_mediatedSalesTransactionIpfsHash][MEDIATOR_INDEX] = _mediatorAddress;\r\n        \r\n        // The \"totalAmountOfWeiNeededToPurchase\" amount will automatically be sent to this Contract in Escrow in a Mediated Sales Transaction. We need to store the \"totalAmountOfWeiNeededToPurchase\" as follows so that when:\r\n        // 1) 2-out-of-3 of the Buyer, Seller, and/or Mediator Approves this Mediated Sales Transaction, the 95% of the \"totalAmountOfWeiNeededToPurchase\" can be sent to the Seller Address and 5% of the \r\n        //    \"msg.value\" can be sent to the Mediator Address. \r\n        // 2) 2-out-of-3 of the Buyer, Seller, and/or Mediator Disapproves this Mediated Sales Transaction, the \"totalAmountOfWeiNeededToPurchase\" can be sent back to the Buyer Address.\r\n        mediatedSalesTransactionAmount[_mediatedSalesTransactionIpfsHash] = totalAmountOfWeiNeededToPurchase;\r\n        \r\n        numberOfMediationsMediatorInvolved[_mediatorAddress] = GeneralUtilities._safeMathAdd(numberOfMediationsMediatorInvolved[_mediatorAddress], 1);\r\n    }\r\n}",
  "sourcePath": "/mnt/d/Kingsland-University-Decentralized-Marketplace-Decentralized-Application-Project-2019/contracts/FranklinDecentralizedMarketplaceMediation.sol",
  "compiler": {
    "name": "solc",
    "version": "0.5.8+commit.23d335f2.Emscripten.clang"
  },
  "schemaVersion": "3.0.16",
  "updatedAt": "2019-11-18T19:42:01.041Z",
  "devdoc": {
    "methods": {}
  },
  "userdoc": {
    "methods": {}
  }
}