{
  "contractName": "FranklinDecentralizedMarketplaceMediation",
  "abi": [
    {
      "constant": true,
      "inputs": [],
      "name": "franklinDecentralizedMarketplaceContract",
      "outputs": [
        {
          "name": "",
          "type": "address"
        }
      ],
      "payable": false,
      "stateMutability": "view",
      "type": "function"
    },
    {
      "constant": true,
      "inputs": [],
      "name": "franklinDecentralizedMarketplaceContractHasBeenSet",
      "outputs": [
        {
          "name": "",
          "type": "bool"
        }
      ],
      "payable": false,
      "stateMutability": "view",
      "type": "function"
    },
    {
      "constant": true,
      "inputs": [],
      "name": "contractOwner",
      "outputs": [
        {
          "name": "",
          "type": "address"
        }
      ],
      "payable": false,
      "stateMutability": "view",
      "type": "function"
    },
    {
      "inputs": [],
      "payable": false,
      "stateMutability": "nonpayable",
      "type": "constructor"
    },
    {
      "anonymous": false,
      "inputs": [
        {
          "indexed": false,
          "name": "_msgSender",
          "type": "address"
        },
        {
          "indexed": false,
          "name": "_sellerAddress",
          "type": "address"
        },
        {
          "indexed": false,
          "name": "_mediatorAddress",
          "type": "address"
        },
        {
          "indexed": false,
          "name": "_keyItemIpfsHash",
          "type": "string"
        },
        {
          "indexed": false,
          "name": "_mediatedSalesTransactionIpfsHash",
          "type": "string"
        },
        {
          "indexed": false,
          "name": "_quantity",
          "type": "uint256"
        }
      ],
      "name": "PurchaseItemWithMediatorEvent",
      "type": "event"
    },
    {
      "anonymous": false,
      "inputs": [
        {
          "indexed": false,
          "name": "_mediatedSalesTransactionIpfsHash",
          "type": "string"
        }
      ],
      "name": "MediatedSalesTransactionHasBeenFullyApproved",
      "type": "event"
    },
    {
      "anonymous": false,
      "inputs": [
        {
          "indexed": false,
          "name": "_mediatedSalesTransactionIpfsHash",
          "type": "string"
        }
      ],
      "name": "MediatedSalesTransactionHasBeenFullyDisapproved",
      "type": "event"
    },
    {
      "constant": false,
      "inputs": [
        {
          "name": "franklinDecentralizedMarketplaceContractAddress",
          "type": "address"
        }
      ],
      "name": "setFranklinDecentralizedMarketplaceContract",
      "outputs": [],
      "payable": false,
      "stateMutability": "nonpayable",
      "type": "function"
    },
    {
      "constant": false,
      "inputs": [
        {
          "name": "_mediatorIpfsHashDescription",
          "type": "string"
        }
      ],
      "name": "addOrUpdateMediator",
      "outputs": [],
      "payable": false,
      "stateMutability": "nonpayable",
      "type": "function"
    },
    {
      "constant": false,
      "inputs": [],
      "name": "removeMediator",
      "outputs": [],
      "payable": false,
      "stateMutability": "nonpayable",
      "type": "function"
    },
    {
      "constant": true,
      "inputs": [
        {
          "name": "_index",
          "type": "uint256"
        }
      ],
      "name": "getMediatorAddress",
      "outputs": [
        {
          "name": "",
          "type": "address"
        }
      ],
      "payable": false,
      "stateMutability": "view",
      "type": "function"
    },
    {
      "constant": true,
      "inputs": [],
      "name": "getNumberOfMediators",
      "outputs": [
        {
          "name": "",
          "type": "uint256"
        }
      ],
      "payable": false,
      "stateMutability": "view",
      "type": "function"
    },
    {
      "constant": true,
      "inputs": [
        {
          "name": "_mediatorAddress",
          "type": "address"
        }
      ],
      "name": "mediatorExists",
      "outputs": [
        {
          "name": "",
          "type": "bool"
        }
      ],
      "payable": false,
      "stateMutability": "view",
      "type": "function"
    },
    {
      "constant": false,
      "inputs": [
        {
          "name": "_mediatedSalesTransactionIpfsHash",
          "type": "string"
        }
      ],
      "name": "approveMediatedSalesTransaction",
      "outputs": [],
      "payable": false,
      "stateMutability": "nonpayable",
      "type": "function"
    },
    {
      "constant": false,
      "inputs": [
        {
          "name": "_mediatedSalesTransactionIpfsHash",
          "type": "string"
        }
      ],
      "name": "disapproveMediatedSalesTransaction",
      "outputs": [],
      "payable": false,
      "stateMutability": "nonpayable",
      "type": "function"
    },
    {
      "constant": false,
      "inputs": [
        {
          "name": "_sellerAddress",
          "type": "address"
        },
        {
          "name": "_mediatorAddress",
          "type": "address"
        },
        {
          "name": "_keyItemIpfsHash",
          "type": "string"
        },
        {
          "name": "_mediatedSalesTransactionIpfsHash",
          "type": "string"
        },
        {
          "name": "_quantity",
          "type": "uint256"
        }
      ],
      "name": "purchaseItemWithMediator",
      "outputs": [],
      "payable": true,
      "stateMutability": "payable",
      "type": "function"
    },
    {
      "constant": true,
      "inputs": [
        {
          "name": "_mediatorAddress",
          "type": "address"
        }
      ],
      "name": "getMediatorIpfsHashDescription",
      "outputs": [
        {
          "name": "",
          "type": "string"
        }
      ],
      "payable": false,
      "stateMutability": "view",
      "type": "function"
    },
    {
      "constant": true,
      "inputs": [
        {
          "name": "_mediatorAddress",
          "type": "address"
        }
      ],
      "name": "getNumberOfMediationsMediatorInvolved",
      "outputs": [
        {
          "name": "",
          "type": "uint256"
        }
      ],
      "payable": false,
      "stateMutability": "view",
      "type": "function"
    }
  ],
  "bytecode": "0x608060405234801561001057600080fd5b5033600b60006101000a81548173ffffffffffffffffffffffffffffffffffffffff021916908373ffffffffffffffffffffffffffffffffffffffff160217905550615351806100616000396000f3fe6080604052600436106100dd5760003560e01c80634307a5a51161007f578063c7eefde511610059578063c7eefde514610643578063ce606ee014610672578063d94695a0146106c9578063e35c61cb14610791576100dd565b80634307a5a51461052057806390cf579c14610571578063bcf383a8146105c8576100dd565b80632b06d5a4116100bb5780632b06d5a41461018d57806330451e8e146103295780633ffcf36f146103f157806340c31a8c14610456576100dd565b80630ad2c9d1146100e25780631967766b1461010d5780631a67405c14610124575b600080fd5b3480156100ee57600080fd5b506100f7610859565b6040518082815260200191505060405180910390f35b34801561011957600080fd5b50610122610863565b005b34801561013057600080fd5b506101736004803603602081101561014757600080fd5b81019080803573ffffffffffffffffffffffffffffffffffffffff16906020019092919050505061086e565b604051808215151515815260200191505060405180910390f35b610327600480360360a08110156101a357600080fd5b81019080803573ffffffffffffffffffffffffffffffffffffffff169060200190929190803573ffffffffffffffffffffffffffffffffffffffff1690602001909291908035906020019064010000000081111561020057600080fd5b82018360208201111561021257600080fd5b8035906020019184600183028401116401000000008311171561023457600080fd5b91908080601f016020809104026020016040519081016040528093929190818152602001838380828437600081840152601f19601f8201169050808301925050505050505091929192908035906020019064010000000081111561029757600080fd5b8201836020820111156102a957600080fd5b803590602001918460018302840111640100000000831117156102cb57600080fd5b91908080601f016020809104026020016040519081016040528093929190818152602001838380828437600081840152601f19601f820116905080830192505050505050509192919290803590602001909291905050506108c4565b005b34801561033557600080fd5b506103ef6004803603602081101561034c57600080fd5b810190808035906020019064010000000081111561036957600080fd5b82018360208201111561037b57600080fd5b8035906020019184600183028401116401000000008311171561039d57600080fd5b91908080601f016020809104026020016040519081016040528093929190818152602001838380828437600081840152601f19601f82011690508083019250505050505050919291929050505061160d565b005b3480156103fd57600080fd5b506104406004803603602081101561041457600080fd5b81019080803573ffffffffffffffffffffffffffffffffffffffff169060200190929190505050611fc9565b6040518082815260200191505060405180910390f35b34801561046257600080fd5b506104a56004803603602081101561047957600080fd5b81019080803573ffffffffffffffffffffffffffffffffffffffff1690602001909291905050506120b4565b6040518080602001828103825283818151815260200191508051906020019080838360005b838110156104e55780820151818401526020810190506104ca565b50505050905090810190601f1680156105125780820380516001836020036101000a031916815260200191505b509250505060405180910390f35b34801561052c57600080fd5b5061056f6004803603602081101561054357600080fd5b81019080803573ffffffffffffffffffffffffffffffffffffffff169060200190929190505050612195565b005b34801561057d57600080fd5b5061058661242c565b604051808273ffffffffffffffffffffffffffffffffffffffff1673ffffffffffffffffffffffffffffffffffffffff16815260200191505060405180910390f35b3480156105d457600080fd5b50610601600480360360208110156105eb57600080fd5b8101908080359060200190929190505050612452565b604051808273ffffffffffffffffffffffffffffffffffffffff1673ffffffffffffffffffffffffffffffffffffffff16815260200191505060405180910390f35b34801561064f57600080fd5b50610658612615565b604051808215151515815260200191505060405180910390f35b34801561067e57600080fd5b50610687612628565b604051808273ffffffffffffffffffffffffffffffffffffffff1673ffffffffffffffffffffffffffffffffffffffff16815260200191505060405180910390f35b3480156106d557600080fd5b5061078f600480360360208110156106ec57600080fd5b810190808035906020019064010000000081111561070957600080fd5b82018360208201111561071b57600080fd5b8035906020019184600183028401116401000000008311171561073d57600080fd5b91908080601f016020809104026020016040519081016040528093929190818152602001838380828437600081840152601f19601f82011690508083019250505050505050919291929050505061264e565b005b34801561079d57600080fd5b50610857600480360360208110156107b457600080fd5b81019080803590602001906401000000008111156107d157600080fd5b8201836020820111156107e357600080fd5b8035906020019184600183028401116401000000008311171561080557600080fd5b91908080601f016020809104026020016040519081016040528093929190818152602001838380828437600081840152601f19601f82011690508083019250505050505050919291929050505061271d565b005b6000600254905090565b61086c33612fcd565b565b6000600160008373ffffffffffffffffffffffffffffffffffffffff1673ffffffffffffffffffffffffffffffffffffffff16815260200190815260200160002060009054906101000a900460ff169050919050565b600a60149054906101000a900460ff16610929576040517f08c379a0000000000000000000000000000000000000000000000000000000008152600401808060200182810382526054815260200180614cab6054913960600191505060405180910390fd5b60008111610982576040517f08c379a0000000000000000000000000000000000000000000000000000000008152600401808060200182810382526041815260200180614aa06041913960600191505060405180910390fd5b61099b83604051806020016040528060008152506134ef565b156109f1576040517f08c379a00000000000000000000000000000000000000000000000000000000081526004018080602001828103825260508152602001806150f76050913960600191505060405180910390fd5b610a0a82604051806020016040528060008152506134ef565b15610a60576040517f08c379a0000000000000000000000000000000000000000000000000000000008152600401808060200182810382526054815260200180614ae16054913960600191505060405180910390fd5b600a60009054906101000a900473ffffffffffffffffffffffffffffffffffffffff1673ffffffffffffffffffffffffffffffffffffffff1663be3ecf9d866040518263ffffffff1660e01b8152600401808273ffffffffffffffffffffffffffffffffffffffff1673ffffffffffffffffffffffffffffffffffffffff16815260200191505060206040518083038186803b158015610aff57600080fd5b505afa158015610b13573d6000803e3d6000fd5b505050506040513d6020811015610b2957600080fd5b8101908080519060200190929190505050610b8f576040517f08c379a0000000000000000000000000000000000000000000000000000000008152600401808060200182810382526030815260200180614e796030913960400191505060405180910390fd5b600a60009054906101000a900473ffffffffffffffffffffffffffffffffffffffff1673ffffffffffffffffffffffffffffffffffffffff16633d2d4de386856040518363ffffffff1660e01b8152600401808373ffffffffffffffffffffffffffffffffffffffff1673ffffffffffffffffffffffffffffffffffffffff16815260200180602001828103825283818151815260200191508051906020019080838360005b83811015610c50578082015181840152602081019050610c35565b50505050905090810190601f168015610c7d5780820380516001836020036101000a031916815260200191505b50935050505060206040518083038186803b158015610c9b57600080fd5b505afa158015610caf573d6000803e3d6000fd5b505050506040513d6020811015610cc557600080fd5b8101908080519060200190929190505050610d2b576040517f08c379a000000000000000000000000000000000000000000000000000000000815260040180806020018281038252604a815260200180614bce604a913960600191505060405180910390fd5b6000600a60009054906101000a900473ffffffffffffffffffffffffffffffffffffffff1673ffffffffffffffffffffffffffffffffffffffff1663282e9d7987866040518363ffffffff1660e01b8152600401808373ffffffffffffffffffffffffffffffffffffffff1673ffffffffffffffffffffffffffffffffffffffff16815260200180602001828103825283818151815260200191508051906020019080838360005b83811015610dee578082015181840152602081019050610dd3565b50505050905090810190601f168015610e1b5780820380516001836020036101000a031916815260200191505b50935050505060206040518083038186803b158015610e3957600080fd5b505afa158015610e4d573d6000803e3d6000fd5b505050506040513d6020811015610e6357600080fd5b8101908080519060200190929190505050905060008111610ecf576040517f08c379a000000000000000000000000000000000000000000000000000000000815260040180806020018281038252604f815260200180614e2a604f913960600191505060405180910390fd5b81811015610f28576040517f08c379a0000000000000000000000000000000000000000000000000000000008152600401808060200182810382526093815260200180614d4c6093913960a00191505060405180910390fd5b6000600a60009054906101000a900473ffffffffffffffffffffffffffffffffffffffff1673ffffffffffffffffffffffffffffffffffffffff16633bc70e3c88876040518363ffffffff1660e01b8152600401808373ffffffffffffffffffffffffffffffffffffffff1673ffffffffffffffffffffffffffffffffffffffff16815260200180602001828103825283818151815260200191508051906020019080838360005b83811015610feb578082015181840152602081019050610fd0565b50505050905090810190601f1680156110185780820380516001836020036101000a031916815260200191505b50935050505060206040518083038186803b15801561103657600080fd5b505afa15801561104a573d6000803e3d6000fd5b505050506040513d602081101561106057600080fd5b81019080805190602001909291905050509050600081116110cc576040517f08c379a000000000000000000000000000000000000000000000000000000000815260040180806020018281038252605d81526020018061504e605d913960600191505060405180910390fd5b60006110d882856135de565b905080341015611133576040517f08c379a000000000000000000000000000000000000000000000000000000000815260040180806020018281038252604b815260200180614ddf604b913960600191505060405180910390fd5b8773ffffffffffffffffffffffffffffffffffffffff163373ffffffffffffffffffffffffffffffffffffffff1614156111b8576040517f08c379a000000000000000000000000000000000000000000000000000000000815260040180806020018281038252603b815260200180615147603b913960400191505060405180910390fd5b8673ffffffffffffffffffffffffffffffffffffffff163373ffffffffffffffffffffffffffffffffffffffff16141561123d576040517f08c379a000000000000000000000000000000000000000000000000000000000815260040180806020018281038252603d8152602001806151b9603d913960400191505060405180910390fd5b8673ffffffffffffffffffffffffffffffffffffffff168873ffffffffffffffffffffffffffffffffffffffff1614156112c2576040517f08c379a000000000000000000000000000000000000000000000000000000000815260040180806020018281038252603e8152602001806151f6603e913960400191505060405180910390fd5b6112cf33898988856136d0565b600a60009054906101000a900473ffffffffffffffffffffffffffffffffffffffff1673ffffffffffffffffffffffffffffffffffffffff1663d010564989886113198789613be2565b6040518463ffffffff1660e01b8152600401808473ffffffffffffffffffffffffffffffffffffffff1673ffffffffffffffffffffffffffffffffffffffff16815260200180602001838152602001828103825284818151815260200191508051906020019080838360005b838110156113a0578082015181840152602081019050611385565b50505050905090810190601f1680156113cd5780820380516001836020036101000a031916815260200191505b50945050505050600060405180830381600087803b1580156113ee57600080fd5b505af1158015611402573d6000803e3d6000fd5b505050503373ffffffffffffffffffffffffffffffffffffffff166108fc61142a3484613be2565b9081150290604051600060405180830381858888f19350505050158015611455573d6000803e3d6000fd5b507f7008f0be824353804971feb6d2207baebd8b560ebe8807959bbc4bc1f7e34dfa338989898989604051808773ffffffffffffffffffffffffffffffffffffffff1673ffffffffffffffffffffffffffffffffffffffff1681526020018673ffffffffffffffffffffffffffffffffffffffff1673ffffffffffffffffffffffffffffffffffffffff1681526020018573ffffffffffffffffffffffffffffffffffffffff1673ffffffffffffffffffffffffffffffffffffffff1681526020018060200180602001848152602001838103835286818151815260200191508051906020019080838360005b8381101561155d578082015181840152602081019050611542565b50505050905090810190601f16801561158a5780820380516001836020036101000a031916815260200191505b50838103825285818151815260200191508051906020019080838360005b838110156115c35780820151818401526020810190506115a8565b50505050905090810190601f1680156115f05780820380516001836020036101000a031916815260200191505b509850505050505050505060405180910390a15050505050505050565b6006816040518082805190602001908083835b602083106116435780518252602082019150602081019050602083039250611620565b6001836020036101000a038019825116818451168082178552505050505050905001915050908152602001604051809103902060009054906101000a900460ff166116d9576040517f08c379a000000000000000000000000000000000000000000000000000000000815260040180806020018281038252603a815260200180615014603a913960400191505060405180910390fd5b60003373ffffffffffffffffffffffffffffffffffffffff166005836040518082805190602001908083835b602083106117285780518252602082019150602081019050602083039250611705565b6001836020036101000a038019825116818451168082178552505050505050905001915050908152602001604051809103902060006003811061176757fe5b0160009054906101000a900473ffffffffffffffffffffffffffffffffffffffff1673ffffffffffffffffffffffffffffffffffffffff16148061186c57503373ffffffffffffffffffffffffffffffffffffffff166005836040518082805190602001908083835b602083106117f357805182526020820191506020810190506020830392506117d0565b6001836020036101000a038019825116818451168082178552505050505050905001915050908152602001604051809103902060016003811061183257fe5b0160009054906101000a900473ffffffffffffffffffffffffffffffffffffffff1673ffffffffffffffffffffffffffffffffffffffff16145b8061193857503373ffffffffffffffffffffffffffffffffffffffff166005836040518082805190602001908083835b602083106118bf578051825260208201915060208101905060208303925061189c565b6001836020036101000a03801982511681845116808217855250505050505090500191505090815260200160405180910390206002600381106118fe57fe5b0160009054906101000a900473ffffffffffffffffffffffffffffffffffffffff1673ffffffffffffffffffffffffffffffffffffffff16145b905080611990576040517f08c379a0000000000000000000000000000000000000000000000000000000008152600401808060200182810382526074815260200180614a2c6074913960800191505060405180910390fd5b61199982613c4e565b156119ef576040517f08c379a0000000000000000000000000000000000000000000000000000000008152600401808060200182810382526093815260200180614c186093913960a00191505060405180910390fd5b600080905060008090505b6003811015611add573373ffffffffffffffffffffffffffffffffffffffff166005856040518082805190602001908083835b60208310611a505780518252602082019150602081019050602083039250611a2d565b6001836020036101000a03801982511681845116808217855250505050505090500191505090815260200160405180910390208260038110611a8e57fe5b0160009054906101000a900473ffffffffffffffffffffffffffffffffffffffff1673ffffffffffffffffffffffffffffffffffffffff161415611ad0578091505b80806001019150506119fa565b50611ae783613d17565b15611b885760016008846040518082805190602001908083835b60208310611b245780518252602082019150602081019050602083039250611b01565b6001836020036101000a03801982511681845116808217855250505050505090500191505090815260200160405180910390208260038110611b6257fe5b602091828204019190066101000a81548160ff0219169083151502179055505050611fc6565b60016008846040518082805190602001908083835b60208310611bc05780518252602082019150602081019050602083039250611b9d565b6001836020036101000a03801982511681845116808217855250505050505090500191505090815260200160405180910390208260038110611bfe57fe5b602091828204019190066101000a81548160ff02191690831515021790555060006009846040518082805190602001908083835b60208310611c555780518252602082019150602081019050602083039250611c32565b6001836020036101000a03801982511681845116808217855250505050505090500191505090815260200160405180910390208260038110611c9357fe5b602091828204019190066101000a81548160ff021916908315150217905550611cbb83613d17565b15611fc35760006007846040518082805190602001908083835b60208310611cf85780518252602082019150602081019050602083039250611cd5565b6001836020036101000a03801982511681845116808217855250505050505090500191505090815260200160405180910390205490506000611d3d6005606484613de0565b90506000611d4b8383613be2565b90506000611dee6005886040518082805190602001908083835b60208310611d885780518252602082019150602081019050602083039250611d65565b6001836020036101000a0380198251168184511680821785525050505050509050019150509081526020016040518091039020600160038110611dc757fe5b0160009054906101000a900473ffffffffffffffffffffffffffffffffffffffff16613e03565b90506000611e916005896040518082805190602001908083835b60208310611e2b5780518252602082019150602081019050602083039250611e08565b6001836020036101000a0380198251168184511680821785525050505050509050019150509081526020016040518091039020600260038110611e6a57fe5b0160009054906101000a900473ffffffffffffffffffffffffffffffffffffffff16613e03565b90508173ffffffffffffffffffffffffffffffffffffffff166108fc849081150290604051600060405180830381858888f19350505050158015611ed9573d6000803e3d6000fd5b508073ffffffffffffffffffffffffffffffffffffffff166108fc859081150290604051600060405180830381858888f19350505050158015611f20573d6000803e3d6000fd5b507fa23b174fa33ea5f5f896550cbfea1f2dcf96c55f461e307a9dd45fee81746d19886040518080602001828103825283818151815260200191508051906020019080838360005b83811015611f83578082015181840152602081019050611f68565b50505050905090810190601f168015611fb05780820380516001836020036101000a031916815260200191505b509250505060405180910390a150505050505b50505b50565b6000600160008373ffffffffffffffffffffffffffffffffffffffff1673ffffffffffffffffffffffffffffffffffffffff16815260200190815260200160002060009054906101000a900460ff1661206d576040517f08c379a00000000000000000000000000000000000000000000000000000000081526004018080602001828103825260348152602001806152c76034913960400191505060405180910390fd5b600460008373ffffffffffffffffffffffffffffffffffffffff1673ffffffffffffffffffffffffffffffffffffffff168152602001908152602001600020549050919050565b6060600360008373ffffffffffffffffffffffffffffffffffffffff1673ffffffffffffffffffffffffffffffffffffffff1681526020019081526020016000208054600181600116156101000203166002900480601f0160208091040260200160405190810160405280929190818152602001828054600181600116156101000203166002900480156121895780601f1061215e57610100808354040283529160200191612189565b820191906000526020600020905b81548152906001019060200180831161216c57829003601f168201915b50505050509050919050565b600b60009054906101000a900473ffffffffffffffffffffffffffffffffffffffff1673ffffffffffffffffffffffffffffffffffffffff163373ffffffffffffffffffffffffffffffffffffffff161461223b576040517f08c379a00000000000000000000000000000000000000000000000000000000081526004018080602001828103825260378152602001806151826037913960400191505060405180910390fd5b600a60149054906101000a900460ff16156122a1576040517f08c379a000000000000000000000000000000000000000000000000000000000815260040180806020018281038252604c8152602001806150ab604c913960600191505060405180910390fd5b60008190508073ffffffffffffffffffffffffffffffffffffffff1663ce606ee06040518163ffffffff1660e01b815260040160206040518083038186803b1580156122ec57600080fd5b505afa158015612300573d6000803e3d6000fd5b505050506040513d602081101561231657600080fd5b810190808051906020019092919050505073ffffffffffffffffffffffffffffffffffffffff16600b60009054906101000a900473ffffffffffffffffffffffffffffffffffffffff1673ffffffffffffffffffffffffffffffffffffffff16146123cc576040517f08c379a0000000000000000000000000000000000000000000000000000000008152600401808060200182810382526081815260200180614ed16081913960a00191505060405180910390fd5b80600a60006101000a81548173ffffffffffffffffffffffffffffffffffffffff021916908373ffffffffffffffffffffffffffffffffffffffff1602179055506001600a60146101000a81548160ff0219169083151502179055505050565b600a60009054906101000a900473ffffffffffffffffffffffffffffffffffffffff1681565b600060025482106124ae576040517f08c379a0000000000000000000000000000000000000000000000000000000008152600401808060200182810382526076815260200180614f526076913960800191505060405180910390fd5b600080905060606040518060200160405280600081525090505b600115612603576000816040518082805190602001908083835b6020831061250557805182526020820191506020810190506020830392506124e2565b6001836020036101000a0380198251168184511680821785525050505050509050019150509081526020016040518091039020600060011515151581526020019081526020016000208054600181600116156101000203166002900480601f0160208091040260200160405190810160405280929190818152602001828054600181600116156101000203166002900480156125e25780601f106125b7576101008083540402835291602001916125e2565b820191906000526020600020905b8154815290600101906020018083116125c557829003601f168201915b50505050509050838214156125f657612603565b81806001019250506124c8565b61260c81613e12565b92505050919050565b600a60149054906101000a900460ff1681565b600b60009054906101000a900473ffffffffffffffffffffffffffffffffffffffff1681565b61266781604051806020016040528060008152506134ef565b156126bd576040517f08c379a000000000000000000000000000000000000000000000000000000000815260040180806020018281038252604c815260200180614fc8604c913960600191505060405180910390fd5b80600360003373ffffffffffffffffffffffffffffffffffffffff1673ffffffffffffffffffffffffffffffffffffffff16815260200190815260200160002090805190602001906127109291906148b7565b5061271a3361406b565b50565b6006816040518082805190602001908083835b602083106127535780518252602082019150602081019050602083039250612730565b6001836020036101000a038019825116818451168082178552505050505050905001915050908152602001604051809103902060009054906101000a900460ff166127e9576040517f08c379a000000000000000000000000000000000000000000000000000000000815260040180806020018281038252603a815260200180615014603a913960400191505060405180910390fd5b60003373ffffffffffffffffffffffffffffffffffffffff166005836040518082805190602001908083835b602083106128385780518252602082019150602081019050602083039250612815565b6001836020036101000a038019825116818451168082178552505050505050905001915050908152602001604051809103902060006003811061287757fe5b0160009054906101000a900473ffffffffffffffffffffffffffffffffffffffff1673ffffffffffffffffffffffffffffffffffffffff16148061297c57503373ffffffffffffffffffffffffffffffffffffffff166005836040518082805190602001908083835b6020831061290357805182526020820191506020810190506020830392506128e0565b6001836020036101000a038019825116818451168082178552505050505050905001915050908152602001604051809103902060016003811061294257fe5b0160009054906101000a900473ffffffffffffffffffffffffffffffffffffffff1673ffffffffffffffffffffffffffffffffffffffff16145b80612a4857503373ffffffffffffffffffffffffffffffffffffffff166005836040518082805190602001908083835b602083106129cf57805182526020820191506020810190506020830392506129ac565b6001836020036101000a0380198251168184511680821785525050505050509050019150509081526020016040518091039020600260038110612a0e57fe5b0160009054906101000a900473ffffffffffffffffffffffffffffffffffffffff1673ffffffffffffffffffffffffffffffffffffffff16145b905080612aa0576040517f08c379a0000000000000000000000000000000000000000000000000000000008152600401808060200182810382526077815260200180614b356077913960800191505060405180910390fd5b612aa982613d17565b15612aff576040517f08c379a00000000000000000000000000000000000000000000000000000000081526004018080602001828103825260938152602001806152346093913960a00191505060405180910390fd5b600080905060008090505b6003811015612bed573373ffffffffffffffffffffffffffffffffffffffff166005856040518082805190602001908083835b60208310612b605780518252602082019150602081019050602083039250612b3d565b6001836020036101000a03801982511681845116808217855250505050505090500191505090815260200160405180910390208260038110612b9e57fe5b0160009054906101000a900473ffffffffffffffffffffffffffffffffffffffff1673ffffffffffffffffffffffffffffffffffffffff161415612be0578091505b8080600101915050612b0a565b50612bf783613c4e565b15612c985760016009846040518082805190602001908083835b60208310612c345780518252602082019150602081019050602083039250612c11565b6001836020036101000a03801982511681845116808217855250505050505090500191505090815260200160405180910390208260038110612c7257fe5b602091828204019190066101000a81548160ff0219169083151502179055505050612fca565b60006008846040518082805190602001908083835b60208310612cd05780518252602082019150602081019050602083039250612cad565b6001836020036101000a03801982511681845116808217855250505050505090500191505090815260200160405180910390208260038110612d0e57fe5b602091828204019190066101000a81548160ff02191690831515021790555060016009846040518082805190602001908083835b60208310612d655780518252602082019150602081019050602083039250612d42565b6001836020036101000a03801982511681845116808217855250505050505090500191505090815260200160405180910390208260038110612da357fe5b602091828204019190066101000a81548160ff021916908315150217905550612dcb83613d17565b15612fc75760006007846040518082805190602001908083835b60208310612e085780518252602082019150602081019050602083039250612de5565b6001836020036101000a03801982511681845116808217855250505050505090500191505090815260200160405180910390205490506000612edf6005866040518082805190602001908083835b60208310612e795780518252602082019150602081019050602083039250612e56565b6001836020036101000a0380198251168184511680821785525050505050509050019150509081526020016040518091039020600060038110612eb857fe5b0160009054906101000a900473ffffffffffffffffffffffffffffffffffffffff16613e03565b90508073ffffffffffffffffffffffffffffffffffffffff166108fc839081150290604051600060405180830381858888f19350505050158015612f27573d6000803e3d6000fd5b507f3ff188ce9ea5ca019e8dbce55a0912d7cdc8f3396966d73e9f9574ab70f51657856040518080602001828103825283818151815260200191508051906020019080838360005b83811015612f8a578082015181840152602081019050612f6f565b50505050905090810190601f168015612fb75780820380516001836020036101000a031916815260200191505b509250505060405180910390a150505b50505b50565b600160008273ffffffffffffffffffffffffffffffffffffffff1673ffffffffffffffffffffffffffffffffffffffff16815260200190815260200160002060009054906101000a900460ff16613023576134ec565b606061302e826144d7565b90506000816040518082805190602001908083835b602083106130665780518252602082019150602081019050602083039250613043565b6001836020036101000a038019825116818451168082178552505050505050905001915050908152602001604051809103902060006001151515158152602001908152602001600020600080836040518082805190602001908083835b602083106130e657805182526020820191506020810190506020830392506130c3565b6001836020036101000a038019825116818451168082178552505050505050905001915050908152602001604051809103902060008015151515815260200190815260200160002060405180828054600181600116156101000203166002900480156131895780601f10613167576101008083540402835291820191613189565b820191906000526020600020905b815481529060010190602001808311613175575b505091505090815260200160405180910390206000600115151515815260200190815260200160002090805460018160011615610100020316600290046131d1929190614937565b506000816040518082805190602001908083835b6020831061320857805182526020820191506020810190506020830392506131e5565b6001836020036101000a0380198251168184511680821785525050505050509050019150509081526020016040518091039020600080151515158152602001908152602001600020600080836040518082805190602001908083835b602083106132875780518252602082019150602081019050602083039250613264565b6001836020036101000a038019825116818451168082178552505050505050905001915050908152602001604051809103902060006001151515158152602001908152602001600020604051808280546001816001161561010002031660029004801561332b5780601f1061330957610100808354040283529182019161332b565b820191906000526020600020905b815481529060010190602001808311613317575b505091505090815260200160405180910390206000801515151581526020019081526020016000209080546001816001161561010002031660029004613372929190614937565b506000816040518082805190602001908083835b602083106133a95780518252602082019150602081019050602083039250613386565b6001836020036101000a038019825116818451168082178552505050505050905001915050908152602001604051809103902060008015151515815260200190815260200160002060006133fd91906149be565b6000816040518082805190602001908083835b602083106134335780518252602082019150602081019050602083039250613410565b6001836020036101000a038019825116818451168082178552505050505050905001915050908152602001604051809103902060006001151515158152602001908152602001600020600061348891906149be565b6134956002546001613be2565b600281905550600160008373ffffffffffffffffffffffffffffffffffffffff1673ffffffffffffffffffffffffffffffffffffffff16815260200190815260200160002060006101000a81549060ff0219169055505b50565b6000816040516020018082805190602001908083835b602083106135285780518252602082019150602081019050602083039250613505565b6001836020036101000a03801982511681845116808217855250505050505090500191505060405160208183030381529060405280519060200120836040516020018082805190602001908083835b6020831061359a5780518252602082019150602081019050602083039250613577565b6001836020036101000a0380198251168184511680821785525050505050509050019150506040516020818303038152906040528051906020012014905092915050565b6000808314806135ee5750600082145b156135fc57600090506136ca565b600082840290508284828161360d57fe5b0414613664576040517f08c379a000000000000000000000000000000000000000000000000000000000815260040180806020018281038252602b8152602001806152fb602b913960400191505060405180910390fd5b8383828161366e57fe5b04146136c5576040517f08c379a000000000000000000000000000000000000000000000000000000000815260040180806020018281038252602b8152602001806152fb602b913960400191505060405180910390fd5b809150505b92915050565b6006826040518082805190602001908083835b6020831061370657805182526020820191506020810190506020830392506136e3565b6001836020036101000a038019825116818451168082178552505050505050905001915050908152602001604051809103902060009054906101000a900460ff161561379d576040517f08c379a000000000000000000000000000000000000000000000000000000000815260040180806020018281038252602a815260200180614cff602a913960400191505060405180910390fd5b600160008473ffffffffffffffffffffffffffffffffffffffff1673ffffffffffffffffffffffffffffffffffffffff16815260200190815260200160002060009054906101000a900460ff1661383f576040517f08c379a00000000000000000000000000000000000000000000000000000000081526004018080602001828103825260348152602001806152c76034913960400191505060405180910390fd5b60016006836040518082805190602001908083835b602083106138775780518252602082019150602081019050602083039250613854565b6001836020036101000a038019825116818451168082178552505050505050905001915050908152602001604051809103902060006101000a81548160ff021916908315150217905550846005836040518082805190602001908083835b602083106138f857805182526020820191506020810190506020830392506138d5565b6001836020036101000a038019825116818451168082178552505050505050905001915050908152602001604051809103902060006003811061393757fe5b0160006101000a81548173ffffffffffffffffffffffffffffffffffffffff021916908373ffffffffffffffffffffffffffffffffffffffff160217905550836005836040518082805190602001908083835b602083106139ad578051825260208201915060208101905060208303925061398a565b6001836020036101000a03801982511681845116808217855250505050505090500191505090815260200160405180910390206001600381106139ec57fe5b0160006101000a81548173ffffffffffffffffffffffffffffffffffffffff021916908373ffffffffffffffffffffffffffffffffffffffff160217905550826005836040518082805190602001908083835b60208310613a625780518252602082019150602081019050602083039250613a3f565b6001836020036101000a0380198251168184511680821785525050505050509050019150509081526020016040518091039020600260038110613aa157fe5b0160006101000a81548173ffffffffffffffffffffffffffffffffffffffff021916908373ffffffffffffffffffffffffffffffffffffffff160217905550806007836040518082805190602001908083835b60208310613b175780518252602082019150602081019050602083039250613af4565b6001836020036101000a038019825116818451168082178552505050505050905001915050908152602001604051809103902081905550613b98600460008573ffffffffffffffffffffffffffffffffffffffff1673ffffffffffffffffffffffffffffffffffffffff168152602001908152602001600020546001614758565b600460008573ffffffffffffffffffffffffffffffffffffffff1673ffffffffffffffffffffffffffffffffffffffff168152602001908152602001600020819055505050505050565b600082821115613c3d576040517f08c379a0000000000000000000000000000000000000000000000000000000008152600401808060200182810382526028815260200180614ea96028913960400191505060405180910390fd5b600082840390508091505092915050565b6000806000905060008090505b6003811015613d09576009846040518082805190602001908083835b60208310613c9a5780518252602082019150602081019050602083039250613c77565b6001836020036101000a03801982511681845116808217855250505050505090500191505090815260200160405180910390208160038110613cd857fe5b602091828204019190069054906101000a900460ff1615613cfc5781806001019250505b8080600101915050613c5b565b506002811015915050919050565b6000806000905060008090505b6003811015613dd2576008846040518082805190602001908083835b60208310613d635780518252602082019150602081019050602083039250613d40565b6001836020036101000a03801982511681845116808217855250505050505090500191505090815260200160405180910390208160038110613da157fe5b602091828204019190069054906101000a900460ff1615613dc55781806001019250505b8080600101915050613d24565b506002811015915050919050565b600080613ded85846135de565b9050613df981856147e0565b9150509392505050565b60008082905080915050919050565b6000606082905060008090506000806000600290505b602a81101561405e5761010084029350848181518110613e4457fe5b602001015160f81c60f81b60f81c60ff169250846001820181518110613e6657fe5b602001015160f81c60f81b60f81c60ff16915060618373ffffffffffffffffffffffffffffffffffffffff1610158015613eb7575060668373ffffffffffffffffffffffffffffffffffffffff1611155b15613ec757605783039250613f61565b60418373ffffffffffffffffffffffffffffffffffffffff1610158015613f05575060468373ffffffffffffffffffffffffffffffffffffffff1611155b15613f1557603783039250613f60565b60308373ffffffffffffffffffffffffffffffffffffffff1610158015613f53575060398373ffffffffffffffffffffffffffffffffffffffff1611155b15613f5f576030830392505b5b5b60618273ffffffffffffffffffffffffffffffffffffffff1610158015613f9f575060668273ffffffffffffffffffffffffffffffffffffffff1611155b15613faf57605782039150614049565b60418273ffffffffffffffffffffffffffffffffffffffff1610158015613fed575060468273ffffffffffffffffffffffffffffffffffffffff1611155b15613ffd57603782039150614048565b60308273ffffffffffffffffffffffffffffffffffffffff161015801561403b575060398273ffffffffffffffffffffffffffffffffffffffff1611155b15614047576030820391505b5b5b81601084020184019350600281019050613e28565b5082945050505050919050565b600160008273ffffffffffffffffffffffffffffffffffffffff1673ffffffffffffffffffffffffffffffffffffffff16815260200190815260200160002060009054906101000a900460ff16156140c2576144d4565b60606140cd826144d7565b9050604051806020016040528060008152506000826040518082805190602001908083835b6020831061411557805182526020820191506020810190506020830392506140f2565b6001836020036101000a038019825116818451168082178552505050505050905001915050908152602001604051809103902060008015151515815260200190815260200160002090805190602001906141709291906148b7565b506000604051806020016040528060008152506040518082805190602001908083835b602083106141b65780518252602082019150602081019050602083039250614193565b6001836020036101000a0380198251168184511680821785525050505050509050019150509081526020016040518091039020600060011515151581526020019081526020016000206000826040518082805190602001908083835b602083106142355780518252602082019150602081019050602083039250614212565b6001836020036101000a038019825116818451168082178552505050505050905001915050908152602001604051809103902060006001151515158152602001908152602001600020908054600181600116156101000203166002900461429d929190614937565b5080600080604051806020016040528060008152506040518082805190602001908083835b602083106142e557805182526020820191506020810190506020830392506142c2565b6001836020036101000a03801982511681845116808217855250505050505090500191505090815260200160405180910390206000600115151515815260200190815260200160002060405180828054600181600116156101000203166002900480156143895780601f10614367576101008083540402835291820191614389565b820191906000526020600020905b815481529060010190602001808311614375575b5050915050908152602001604051809103902060008015151515815260200190815260200160002090805190602001906143c49291906148b7565b50806000604051806020016040528060008152506040518082805190602001908083835b6020831061440b57805182526020820191506020810190506020830392506143e8565b6001836020036101000a03801982511681845116808217855250505050505090500191505090815260200160405180910390206000600115151515815260200190815260200160002090805190602001906144679291906148b7565b506144756002546001614758565b60028190555060018060008473ffffffffffffffffffffffffffffffffffffffff1673ffffffffffffffffffffffffffffffffffffffff16815260200190815260200160002060006101000a81548160ff021916908315150217905550505b50565b606060008273ffffffffffffffffffffffffffffffffffffffff1660001b905060606040518060400160405280601081526020017f303132333435363738396162636465660000000000000000000000000000000081525090506060602a6040519080825280601f01601f1916602001820160405280156145675781602001600182028038833980820191505090505b5090507f30000000000000000000000000000000000000000000000000000000000000008160008151811061459857fe5b60200101907effffffffffffffffffffffffffffffffffffffffffffffffffffffffffffff1916908160001a9053507f7800000000000000000000000000000000000000000000000000000000000000816001815181106145f557fe5b60200101907effffffffffffffffffffffffffffffffffffffffffffffffffffffffffffff1916908160001a90535060008090505b601481101561474c5782600485600c84016020811061464557fe5b1a60f81b7effffffffffffffffffffffffffffffffffffffffffffffffffffffffffffff1916901c60f81c60ff168151811061467d57fe5b602001015160f81c60f81b82600283026002018151811061469a57fe5b60200101907effffffffffffffffffffffffffffffffffffffffffffffffffffffffffffff1916908160001a90535082600f60f81b85600c8401602081106146de57fe5b1a60f81b1660f81c60ff16815181106146f357fe5b602001015160f81c60f81b82600283026003018151811061471057fe5b60200101907effffffffffffffffffffffffffffffffffffffffffffffffffffffffffffff1916908160001a905350808060010191505061462a565b50809350505050919050565b6000808284019050838110156147d6576040517f08c379a00000000000000000000000000000000000000000000000000000000081526004018080602001828103825260208152602001807f5f736166654d617468416464203a204164646974696f6e204f766572666c6f7781525060200191505060405180910390fd5b8091505092915050565b600080821161483a576040517f08c379a0000000000000000000000000000000000000000000000000000000008152600401808060200182810382526022815260200180614bac6022913960400191505060405180910390fd5b600082848161484557fe5b04905082848161485157fe5b068184020184146148ad576040517f08c379a0000000000000000000000000000000000000000000000000000000008152600401808060200182810382526023815260200180614d296023913960400191505060405180910390fd5b8091505092915050565b828054600181600116156101000203166002900490600052602060002090601f016020900481019282601f106148f857805160ff1916838001178555614926565b82800160010185558215614926579182015b8281111561492557825182559160200191906001019061490a565b5b5090506149339190614a06565b5090565b828054600181600116156101000203166002900490600052602060002090601f016020900481019282601f1061497057805485556149ad565b828001600101855582156149ad57600052602060002091601f016020900482015b828111156149ac578254825591600101919060010190614991565b5b5090506149ba9190614a06565b5090565b50805460018160011615610100020316600290046000825580601f106149e45750614a03565b601f016020900490600052602060002090810190614a029190614a06565b5b50565b614a2891905b80821115614a24576000816000905550600101614a0c565b5090565b9056fe4e6f7420616c6c6f77656420746f20417070726f7665204d656469617465642053616c6573205472616e73616374696f6e2c2062656361757365204d6573736167652053656e646572206973206e656974686572207468652042757965722c2053656c6c65722c206f72204d65646961746f72214d757374207075726368617365206174206c656173742031207175616e74697479206f6620746865204974656d20666f722053616c6520746f2068617070656e2143616e6e6f74206861766520616e20656d70747920537472696e6720666f722074686520495046532048617368204b6579206f6620746865204d656469617465642053616c6573205472616e73616374696f6e214e6f7420616c6c6f77656420746f20446973617070726f7665204d656469617465642053616c6573205472616e73616374696f6e2c2062656361757365204d6573736167652053656e646572206973206e656974686572207468652042757965722c2053656c6c65722c206f72204d65646961746f72215f736166654d617468446976696465203a2044656e6f6d696e61746f722069732030476976656e20495046532048617368206f66204974656d206973206e6f74206c697374656420617320616e204974656d20466f722053616c652066726f6d207468652053656c6c6572214d656469617465642053616c6573205472616e73616374696f6e2068617320616c7265616479206265656e20446973617070726f766564206279206174206c6561737420322d6f75742d6f662d33206f66207468652042757965722c2053656c6c65722c20616e642f6f72204d65646961746f72212043616e6e6f7420417070726f7665206174207468697320706f696e7421546865204672616e6b6c696e446563656e7472616c697a65644d61726b6574706c616365436f6e747261637420686173206e6f74206265656e207365742062792074686520436f6e7472616374204f776e6572214d656469617465642053616c6573205472616e73616374696f6e20616c726561647920657869737473215f736166654d617468446976696465203a204469766973696f6e204f766572666c6f775175616e7469747920617661696c61626c6520466f722053616c65206f6620746865204974656d2066726f6d207468652053656c6c6572206973206c657373207468616e20746865207175616e746974792072657175657374656420746f20707572636861736521204e6f7420656e6f756768206f6620746865204974656e6d20617661696c61626c6520466f722053616c654e6f7420656e6f756768204554482f574549207761732073656e7420746f20707572636861736520746865207175616e7469747920726571756573746564206f6620746865204974656d2153656c6c657220686173205a65726f207175616e7469747920617661696c61626c6520666f722053616c6520666f7220746865204974656d2072657175657374656420746f20707572636861736521476976656e2053656c6c6572204164647265737320646f6573206e6f7420657869737420617320612053656c6c6572215f736166654d6174685375627472616374203a205375627472616374696f6e204f766572666c6f774d7573742062652073616d6520436f6e7472616374204f776e657220696e20626f746820746865204672616e6b6c696e446563656e7472616c697a65644d61726b6574706c61636520616e64204672616e6b6c696e446563656e7472616c697a65644d61726b6574706c6163654d6564696174696f6e20636f6e74726163747321496e6465782076616c756520676976656e2069732067726561746572207468616e206f7220657175616c20746f20746865204e756d626572206f66204d65646961746f7273212049742073686f756c64206265206c657373207468616e20746865204e756d626572206f66204d65646961746f72732143616e6e6f74206861766520616e20656d70747920537472696e6720666f722074686520495046532048617368204b6579204465736372697074696f6e206f662061204d65646961746f7221476976656e204d656469617465642053616c6573205472616e73616374696f6e2049504653204861736820646f6573206e6f74206578697374215468652053656c6c657220686173206e6f742079657420736574206120507269636520666f722053616c6520666f722074686520726571756573746564204974656d212043616e6e6f7420707572636861736520746865204974656d21546865206672616e6b6c696e446563656e7472616c697a65644d61726b6574706c616365436f6e7472616374207265666572656e63652068617320616c7265616479206265656e207365742143616e6e6f74206861766520616e20656d70747920537472696e6720666f722074686520495046532048617368204b6579206f6620616e204974656d20796f75206172652070757263686173696e672154686520427579657220416464726573732063616e6e6f74206265207468652073616d65206173207468652053656c6c657220416464726573732154686973206d6574686f64206d6179206f6e6c792062652065786563757465642062792074686520436f6e7472616374204f776e65722154686520427579657220416464726573732063616e6e6f74206265207468652073616d6520617320746865204d65646961746f722041646472657373215468652053656c6c657220416464726573732063616e6e6f74206265207468652073616d6520617320746865204d65646961746f722041646472657373214d656469617465642053616c6573205472616e73616374696f6e2068617320616c7265616479206265656e20417070726f766564206279206174206c6561737420322d6f75742d6f662d33206f66207468652042757965722c2053656c6c65722c20616e642f6f72204d65646961746f72212043616e6e6f7420446973617070726f7665206174207468697320706f696e7421476976656e204d65646961746f72204164647265737320646f6573206e6f742065786973742061732061204d65646961746f72215f736166654d6174684d756c7469706c79203a204d756c7469706c69636174696f6e204f766572666c6f77a165627a7a72305820bbdc286f6f12b8bd163cec5e484ea24d079fcdc8a918d081acf586861ea255010029",
  "source": "pragma solidity >=0.4.22 <0.6.0;\r\n\r\nimport \"./FranklinDecentralizedMarketplace.sol\";\r\nimport \"./GeneralUtilities.sol\";\r\n\r\ncontract FranklinDecentralizedMarketplaceMediation {\r\n    using GeneralUtilities for *;\r\n    \r\n    // Constants used for the Double-Linked list and other uses.\r\n    bool constant private PREV = false;\r\n    bool constant private NEXT = true;\r\n    string constant private EMPTY_STRING = \"\";\r\n    \r\n    // This Smart Contract handles Sales Transactions that involve a Mediator. Thus, these would be referred to as Mediated Sales Transactions that involve a Buyer, Seller, and \r\n    // Mediator. Each Buyer, Seller, and Mediator will have a different Ethereum Address.\r\n    \r\n    // The \"franklinDecentralizedMarketplaceContract\" variable refers to the FranklinDecentralizedMarketplace Contract that was set by the \"setFranklinDecentralizedMarketplaceContract\" method.\r\n    // The Contract code had to be split in two, because the Etherum Virtual Machine (EVM) would not allow deployment of a Contract\r\n    // that has more than 24576 bytes. So, the decision was made to SPLIT the code into the FranklinDecentralizedMarketplace \r\n    // and FranklinDecentralizedMarketplaceMediation Contracts.  \r\n    \r\n    // Function calls relating to Mediated Sales Transactions should be done by making the apprioptate function calls on this Smart Contract.\r\n    \r\n    // This Contract will be used to store the Escrow ETH/WEI (i.e., \"totalAmountOfWeiNeededToPurchase\") used to pay for Items involved in ALL Mediated Sales Transactions. \r\n    // The Mediated Sales Transaction works as follows:\r\n    // 1) If 2-out-of-3 of the Buyer, Seller, and/or Mediator Approves this Mediated Sales Transaction, then 95% of the \"totalAmountOfWeiNeededToPurchase\" will be sent to the Seller Address\r\n    //    and 5% of the \"totalAmountOfWeiNeededToPurchase\" will be sent to the Mediator Address. \r\n    // 2) 2-out-of-3 of the Buyer, Seller, and/or Mediator Disapproves this Mediated Sales Transaction, then the \"totalAmountOfWeiNeededToPurchase\" will be sent back to the Buyer Address.\r\n    // 3) If neither (1) or (2) above happens, then the Mediated Sales Transaction will be held in a State of Limbo and the \"totalAmountOfWeiNeededToPurchase\" will be kept inside \r\n    //    of this Contract.\r\n    \r\n    // Each Mediator in this Decentralized Marketplace is identified by it's Ethereum Address, but should also have information about himself/herself that is accessed  \r\n    // in the IPFS Stoarge Systemn via it's IPFS (InterPlanetary File System) Hash string key.\r\n    // Each Mediator in this Decentralized Marketplace is also identified by it's IPFS (InterPlanetary File System) Hash. Information about each Mediator is in a JSON-formatted\r\n    // string stored in the IPFS (InterPlanetary File System) that may be accessed via the Infura IPFS Gateway URL. So, for example, let's say that the Mediator has an\r\n    // IPFS Hash of QmZ4DZ1spT2eQhUC5mfQGugM4AhLjq8ZvuZvHdQvnvKnHH. Then, the information about this Mediator may be seen in one of the following URLs:\r\n    // 1) https://ipfs.infura.io/ipfs/QmZ4DZ1spT2eQhUC5mfQGugM4AhLjq8ZvuZvHdQvnvKnHH\r\n    // 2) https://gateway.ipfs.io/ipfs/QmZ4DZ1spT2eQhUC5mfQGugM4AhLjq8ZvuZvHdQvnvKnH\r\n    \r\n    // Each Mediated Sales Transaction in this Decentralized Marketplace is identified by it's IPFS (InterPlanetary File System) Hash. Information about each Mediated Sales Transaction \r\n    // is in a JSON-formatted string stored in the IPFS (InterPlanetary File System) that may be accessed via the Infura IPFS Gateway URL. So, for example, let's say that the \r\n    // Mediated Sales Transaction has an IPFS Hash of QmZ4DZ1spT2eQhUC5mfQGugM4AhLjq8ZvuZvHdQvnvKnHH. Then, the information about this Mediated Sales Transaction may be seen in one of \r\n    // the following URLs:\r\n    // 1) https://ipfs.infura.io/ipfs/QmZ4DZ1spT2eQhUC5mfQGugM4AhLjq8ZvuZvHdQvnvKnHH\r\n    // 2) https://gateway.ipfs.io/ipfs/QmZ4DZ1spT2eQhUC5mfQGugM4AhLjq8ZvuZvHdQvnvKnH\r\n    \r\n    // A double-linked list that lists all the Mediators by their Ethereum Address in string format.\r\n    //\r\n    // For an explanation as to how the \"mapping(string => mapping(bool => string))\" double linked-list works and the code pertaining to it from which was borrowed, please go to the\r\n    // https://ethereum.stackexchange.com/questions/15337/can-we-get-all-elements-stored-in-a-mapping-in-the-contract web page.\r\n    //\r\n    // Each \"string\" below refers to the Ethereum Address of the Mediator in string format.\r\n    mapping(string => mapping(bool => string)) private listOfMediators;\r\n    \r\n    // Map that keeps track of whether a Mediator exists. The \"address\" key is the Ethereum Address of the Mediator.\r\n    mapping(address => bool) private mediatorExistsMap;\r\n    \r\n    // Keeps a count on the Number of Mediators that mediate sales on this platform.\r\n    uint private numberOfMediators;\r\n    \r\n    // This Mapping contains the Description Information about the Mediators. The Mediator is responsible for adding this information.\r\n    //\r\n    // Mapping is as follows:\r\n    // 1) Key: Ethereum Address of the Mediator\r\n    // 2) Value: IPFS Hash string of the information pertaining to the Mediator. This information is stored in the IPFS Storage Network.\r\n    //           This information should be a JSON-formatted string.\r\n    mapping(address => string) private descriptionInfoAboutMediators;\r\n    \r\n    // This Mapping contains the Number of Mediations that a Mediator has been involved.\r\n    //\r\n    // Mapping is as follows:\r\n    // 1) Key: Ethereum Address of the Mediator\r\n    // 2) Value: Number of Mediations that a Mediators has been involved\r\n    mapping(address => uint) private numberOfMediationsMediatorInvolved;\r\n\r\n    // Constants used for the Mediated Sales Transactions mappings that have a \"bool[3]\" as a value in it's \"mapping\".\r\n    uint constant private BUYER_INDEX = 0;\r\n    uint constant private SELLER_INDEX = 1;\r\n    uint constant private MEDIATOR_INDEX = 2;\r\n    \r\n    // Maps the Mediated Sales Transaction IPFS Hash to the three Ethereum Addresses involved in the Sale of Item(s) involving a Mediator. The Mediated Sales Transaction IPFS Hash\r\n    // refers to a JSON-formatted string that describes this Transaction in the IPFS Storage System.\r\n    //\r\n    // Mapping is as follows:\r\n    // 1) Key: IPFS Hash string of the Mediated Sales Transaction\r\n    // 2) Values:\r\n    //    A) address[0] : Ethereum Address of the Buyer\r\n    //    B) address[1] : Ethereum Address of the Seller\r\n    //    C) address[2] : Ethereum Address of the Mediator\r\n    mapping(string => address[3]) private mediatedSalesTransactionAddresses;\r\n    \r\n    // Map that shows whether a Mediated Sales Transaction exists. The \"string\" key is the Mediated Sales Transaction IPFS Hash.\r\n    //\r\n    // Mapping is as follows:\r\n    // 1) Key: IPFS Hash string of the Mediated Sales Transaction\r\n    // 2) Value:\r\n    //    A) Boolean value of \"true\" indicates that the Mediated Sales Transaction exists\r\n    //    B) Boolean value of \"false\" indicates that the Mediated Sales Transaction exists\r\n    mapping (string => bool) private mediatedSalesTransactionExists;\r\n    \r\n    // Map that maps the Mediated Sales Transaction to the Sales Amount in Wei. The \"string\" key is the Mediated Sales Transaction IPFS Hash.\r\n    //\r\n    // Mapping is as follows:\r\n    // 1) Key: IPFS Hash string of the Mediated Sales Transaction\r\n    // 2) Value: Amount in Wei that the Buyer chose to pay for the Item(s)\r\n    mapping (string => uint) private mediatedSalesTransactionAmount;\r\n    \r\n    // Map that keeps track of whether a Mediated Sales Transaction has been Approved by the Buyer, Seller, and/or Mediator. \r\n    // The \"string\" key is the Mediated Sales Transaction IPFS Hash.\r\n    //\r\n    // Mapping is as follows:\r\n    // 1) Key: IPFS Hash string of the Mediated Sales Transaction\r\n    // 2) Values:\r\n    //    A) address[0] : Boolean flag indicating if Buyer Approves\r\n    //    B) address[1] : Boolean flag indicating if Seller Approves\r\n    //    C) address[2] : Boolean flag indicating if Mediator Approves\r\n    mapping (string => bool[3]) private mediatedSalesTransactionApprovedByParties;\r\n    \r\n    // Map that keeps track of whether a Mediated Sales Transaction has been Disapproved by the Buyer, Seller, and/or Mediator. \r\n    // The \"string\" key is the Mediated Sales Transaction IPFS Hash.\r\n    //\r\n    // Mapping is as follows:\r\n    // 1) Key: IPFS Hash string of the Mediated Sales Transaction\r\n    // 2) Values:\r\n    //    A) address[0] : Boolean flag indicating if Buyer Disapproves\r\n    //    B) address[1] : Boolean flag indicating if Seller Disapproves\r\n    //    C) address[2] : Boolean flag indicating if Mediator Disapproves\r\n    mapping (string => bool[3]) private mediatedSalesTransactionDisapprovedByParties;\r\n    \r\n    event PurchaseItemWithMediatorEvent(address _msgSender, address _sellerAddress, address _mediatorAddress, string _keyItemIpfsHash, string _mediatedSalesTransactionIpfsHash, uint _quantity);\r\n    event MediatedSalesTransactionHasBeenFullyApproved(string _mediatedSalesTransactionIpfsHash);\r\n    event MediatedSalesTransactionHasBeenFullyDisapproved(string _mediatedSalesTransactionIpfsHash);\r\n    \r\n    // Below is the Contract Address of the FranklinDecentralizedMarketplace Contract that was set by the \"setFranklinDecentralizedMarketplaceContract\" method.\r\n    // The Contract code had to be split in two, because the Etherum Virtual Machine (EVM) would not allow deployment of a Contract\r\n    // that has more than 24576 bytes. So, the decision was made to SPLIT the code into the FranklinDecentralizedMarketplace \r\n    // and FranklinDecentralizedMarketplaceMediation Contracts.\r\n    FranklinDecentralizedMarketplace public franklinDecentralizedMarketplaceContract;\r\n    bool public franklinDecentralizedMarketplaceContractHasBeenSet;\r\n    address public contractOwner;\r\n    \r\n    constructor() public {\r\n        contractOwner = msg.sender;\r\n    }\r\n    \r\n    function setFranklinDecentralizedMarketplaceContract(address franklinDecentralizedMarketplaceContractAddress) public {\r\n        require(msg.sender == contractOwner, \"This method may only be executed by the Contract Owner!\");\r\n        require(!franklinDecentralizedMarketplaceContractHasBeenSet, \"The franklinDecentralizedMarketplaceContract reference has already been set!\"); \r\n        \r\n        FranklinDecentralizedMarketplace temp = FranklinDecentralizedMarketplace(franklinDecentralizedMarketplaceContractAddress);\r\n        require(contractOwner == temp.contractOwner(), \"Must be same Contract Owner in both the FranklinDecentralizedMarketplace and FranklinDecentralizedMarketplaceMediation contracts!\");\r\n        \r\n        franklinDecentralizedMarketplaceContract = temp;\r\n        franklinDecentralizedMarketplaceContractHasBeenSet = true;\r\n    }\r\n    \r\n    // Private Utility function used to add a given Ethereum Address as a Mediator in the \"listOfMediators\". The given Ethereum Address - \"_mediatorAddressString\" - used \r\n    // as input to this method is the string format version of the Ethereum Address obtained from the \"_addressToString\" method.\r\n    //\r\n    // Assumption: Since this is an internal private method, will assume that input \"_mediatorAddressString\" argument is valid.\r\n    function _addMediator(address _mediatorAddress) private {\r\n        if (mediatorExistsMap[_mediatorAddress]) {\r\n            return;\r\n        }\r\n        \r\n        string memory _mediatorAddressString = GeneralUtilities._addressToString(_mediatorAddress);\r\n        \r\n        // Link the new node \r\n        listOfMediators[_mediatorAddressString][PREV] = EMPTY_STRING;\r\n        listOfMediators[_mediatorAddressString][NEXT] = listOfMediators[EMPTY_STRING][NEXT];\r\n    \r\n        // Insert the new node\r\n        listOfMediators[listOfMediators[EMPTY_STRING][NEXT]][PREV] = _mediatorAddressString;\r\n        listOfMediators[EMPTY_STRING][NEXT] = _mediatorAddressString;\r\n        \r\n        numberOfMediators = GeneralUtilities._safeMathAdd(numberOfMediators, 1);\r\n        mediatorExistsMap[_mediatorAddress] = true;\r\n    }\r\n\r\n    // Adds or Updates a Mediator with the given \"_mediatorIpfsHashDescription\", which refers to a JSON-formatted string stored in the IPFS Storage System.\r\n    // The \"msg.sender\" will be the Ethereum Address of the entity wishing to become a Mediator in this Smart Contract. This method allows anyone with an Ethereum \r\n    // Address to add himself/herself as a Mediator.\r\n    function addOrUpdateMediator(string memory _mediatorIpfsHashDescription) public {\r\n        require(!GeneralUtilities._compareStringsEqual(_mediatorIpfsHashDescription, EMPTY_STRING), \"Cannot have an empty String for the IPFS Hash Key Description of a Mediator!\");\r\n        descriptionInfoAboutMediators[msg.sender] = _mediatorIpfsHashDescription;\r\n        \r\n        _addMediator(msg.sender);\r\n    }\r\n    \r\n    // Private Utility function used to remove a given Ethereum Address as a Mediator in the \"listOfMediators\". The given Ethereum Address - \"_mediatorAddressString\" - used \r\n    // as input to this method is the string format version of the Ethereum Address obtained from the \"_addressToString\" method.\r\n    //\r\n    // Assumption: Since this is an internal private method, will assume that input \"_mediatorAddressString\" argument is valid.    \r\n    function _removeMediator(address _mediatorAddress) private {\r\n        if (!mediatorExistsMap[_mediatorAddress]) {\r\n            return;\r\n        }\r\n        \r\n        string memory _mediatorAddressString = GeneralUtilities._addressToString(_mediatorAddress);\r\n        \r\n        // Stitch the neighbours together\r\n        listOfMediators[ listOfMediators[_mediatorAddressString][PREV] ][NEXT] = listOfMediators[_mediatorAddressString][NEXT];\r\n        listOfMediators[ listOfMediators[_mediatorAddressString][NEXT] ][PREV] = listOfMediators[_mediatorAddressString][PREV];\r\n    \r\n        // Delete state storage\r\n        delete listOfMediators[_mediatorAddressString][PREV];\r\n        delete listOfMediators[_mediatorAddressString][NEXT];\r\n        \r\n        numberOfMediators = GeneralUtilities._safeMathSubtract(numberOfMediators, 1);\r\n        delete mediatorExistsMap[_mediatorAddress];\r\n        \r\n        // We do not wish to remove the Mediator Description nor any other Mediator information, because the mediator may be involved Mediating some sales, and we wish \r\n        // to keep such information around.\r\n    }\r\n    \r\n    // Removes a Mediator from this Smart Contract. The \"msg.sender\" will be the Ethereum Address of the entity wishing to remove himself/herself as a Mediator in this Smart Contract. \r\n    // If there are any pending Sales that the Mediator is involved, the Sales and other information will still be kept.\r\n    // This method allows anyone with an Ethereum  Address to remove himself/herself as a Mediator in this Smart Contract. \r\n    function removeMediator()  external {\r\n        _removeMediator(msg.sender);\r\n    }\r\n    \r\n    // Gets the Mediator Ethereum Address at the given \"_index\" from the \"listOfMediators\" double-linked list.\r\n    //\r\n    // Input Parameter:\r\n    // _index : Index number into the \"listOfMediators\" double-linked list.\r\n    //              Index starts at 0.\r\n    //\r\n    // Returns:\r\n    // 1) If the \"_index\" is less than the \"numberOfMediators\", then the Etheruem Address of the Mediator at the given \"_index\" into the \"listOfMediators\" double-linked list\r\n    //    is returned.\r\n    // 2) If the \"_index\" is greater than or equal to the \"numberOfMediators\", then an Exception is thrown via the \"require\" below.\r\n    function getMediatorAddress(uint _index) external view returns (address) {\r\n        require(_index < numberOfMediators, \"Index value given is greater than or equal to the Number of Mediators! It should be less than the Number of Mediators!\");\r\n        \r\n        // The \"key\" below is the Ethereum Address in string format that is in the \"listOfMediators\" double-linked list.\r\n        \r\n        uint keyCount = 0;\r\n        string memory key = EMPTY_STRING;\r\n        while (true) {\r\n            key = listOfMediators[key][NEXT];\r\n            if (keyCount == _index) {\r\n                break;\r\n            }\r\n            \r\n            keyCount++;\r\n        }\r\n        \r\n        return GeneralUtilities._parseEthereumAddressStringToAddress(key);    \r\n    }\r\n    \r\n    // Gets the Number of Mediators in the \"listOfMediators\".\r\n    function getNumberOfMediators() external view returns (uint) {\r\n        return numberOfMediators;\r\n    }\r\n    \r\n    // Returns back a boolean value to determine if the given \"_mediatorAddres\" is in the \"listOfMediators\".\r\n    function mediatorExists(address _mediatorAddress) external view returns (bool) {\r\n        return mediatorExistsMap[_mediatorAddress];\r\n    }\r\n    \r\n    // Determines if the given \"_mediatedSalesTransactionIpfsHash\" Mediated Sales Transaction is in the Approved State. It is in the Approved State \r\n    // if 2-out-of-3 Buyer, Seller, and/or Mediator Approve it.\r\n    function _mediatedSalesTransactionHasBeenApproved(string memory _mediatedSalesTransactionIpfsHash) private view returns (bool) {\r\n        uint numberOfApprovals = 0;\r\n        for (uint i = 0; i < 3; i++) {\r\n            if (mediatedSalesTransactionApprovedByParties[_mediatedSalesTransactionIpfsHash][i]) {\r\n                numberOfApprovals++;\r\n            }\r\n        }\r\n        \r\n        return (numberOfApprovals >= 2);\r\n    }\r\n    \r\n    // Determines if the given \"_mediatedSalesTransactionIpfsHash\" Mediated Sales Transaction is in the Disapprived State. It is in the Disapproved State \r\n    // if 2-out-of-3 Buyer, Seller, and/or Mediator Disapprove it.    \r\n    function _mediatedSalesTransactionHasBeenDisapproved(string memory _mediatedSalesTransactionIpfsHash) private view returns (bool) {\r\n        uint numberOfDisapprovals = 0;\r\n        for (uint i = 0; i < 3; i++) {\r\n            if (mediatedSalesTransactionDisapprovedByParties[_mediatedSalesTransactionIpfsHash][i]) {\r\n                numberOfDisapprovals++;\r\n            }\r\n        }\r\n        \r\n        return (numberOfDisapprovals >= 2);\r\n    }    \r\n    \r\n    // This method allows one of the parties involved in a Mediated Sales Transaction to Approve the given \"_mediatedSalesTransactionIpfsHash\" Mediated \r\n    // Sales Transaction. \r\n    //\r\n    // Input Parameters:\r\n    // 1) msg.sender : The Ethereum Address of one of the parties\r\n    // 2) _mediatedSalesTransactionIpfsHash : IPFS Hash string value that uniquely identifies the Mediated Sales Transaction. This IPFS Hash string value refers to   \r\n    //    what should be JSON-formatted string describing the Sale stored in the IPFS Storage System.\r\n    function approveMediatedSalesTransaction(string memory _mediatedSalesTransactionIpfsHash) public {\r\n        require(mediatedSalesTransactionExists[_mediatedSalesTransactionIpfsHash], \"Given Mediated Sales Transaction IPFS Hash does not exist!\");\r\n        \r\n        bool allowedToApprove = (mediatedSalesTransactionAddresses[_mediatedSalesTransactionIpfsHash][BUYER_INDEX] == msg.sender) ||\r\n                                (mediatedSalesTransactionAddresses[_mediatedSalesTransactionIpfsHash][SELLER_INDEX] == msg.sender) ||\r\n                                (mediatedSalesTransactionAddresses[_mediatedSalesTransactionIpfsHash][MEDIATOR_INDEX] == msg.sender);\r\n        require(allowedToApprove, \"Not allowed to Approve Mediated Sales Transaction, because Message Sender is neither the Buyer, Seller, or Mediator!\");\r\n        \r\n        // If 2-out-of-3 of the Buyer, Seller, and/or Mediator have Disapproved the Mediated Sales Transaction, then it's status cannot be changed, because the Buyer has already been refunded \r\n        // the amount he/she paid.\r\n        require(!_mediatedSalesTransactionHasBeenDisapproved(_mediatedSalesTransactionIpfsHash), \r\n            \"Mediated Sales Transaction has already been Disapproved by at least 2-out-of-3 of the Buyer, Seller, and/or Mediator! Cannot Approve at this point!\");\r\n        \r\n        uint indexBuyerSellerOrMediator = 0;\r\n        for (uint i = 0; i < 3; i++) {\r\n            if (mediatedSalesTransactionAddresses[_mediatedSalesTransactionIpfsHash][i] == msg.sender) {\r\n                indexBuyerSellerOrMediator = i;\r\n            }\r\n        }\r\n        \r\n        // If the Mediated Sales Transaction has already been Approved by 2-out-of-3 Buyer, Seller, and/or Mediator, then just note the approval from the \"msg.sender\" and that's it, because at \r\n        // this point the Seller Address has already been sent 95% of the Sales Amount, and the Mediator has already been sent 5% of the Sales Amount.\r\n        if (_mediatedSalesTransactionHasBeenApproved(_mediatedSalesTransactionIpfsHash)) {\r\n            mediatedSalesTransactionApprovedByParties[_mediatedSalesTransactionIpfsHash][indexBuyerSellerOrMediator] = true;\r\n            return;\r\n        }\r\n        \r\n        // Note the approval from the \"msg.sender\" Address. If one approves, than one cannot disapprove. Perhaps their's been a change of mind before FINAL Approval or Disapproval.\r\n        mediatedSalesTransactionApprovedByParties[_mediatedSalesTransactionIpfsHash][indexBuyerSellerOrMediator] = true;\r\n        mediatedSalesTransactionDisapprovedByParties[_mediatedSalesTransactionIpfsHash][indexBuyerSellerOrMediator] = false;\r\n        \r\n        // If after the \"msg.sender\" Approves the Mediated Sales Transaction, this reaches a State where 2-out-of-3 Buyer, Seller, and/or Mediator have Approved, then send 95% of the Sales Amount \r\n        // to the Seller Address and 5% of the Sales Amount to the Mediator Address.\r\n        if (_mediatedSalesTransactionHasBeenApproved(_mediatedSalesTransactionIpfsHash)) {\r\n            uint totalSalesAmount = mediatedSalesTransactionAmount[_mediatedSalesTransactionIpfsHash];\r\n            uint amountOfWeiToSendMediator = GeneralUtilities._getPercentageOfTotalAmount(uint256(5), uint256(100), uint256(totalSalesAmount));\r\n            uint amountOfWeiToSendSeller = GeneralUtilities._safeMathSubtract(totalSalesAmount, amountOfWeiToSendMediator);\r\n            \r\n            address payable sellerAddress = GeneralUtilities._convertAddressToAddressPayable(mediatedSalesTransactionAddresses[_mediatedSalesTransactionIpfsHash][SELLER_INDEX]);\r\n            address payable mediatorAddress = GeneralUtilities._convertAddressToAddressPayable(mediatedSalesTransactionAddresses[_mediatedSalesTransactionIpfsHash][MEDIATOR_INDEX]);\r\n            \r\n            sellerAddress.transfer(amountOfWeiToSendSeller);\r\n            mediatorAddress.transfer(amountOfWeiToSendMediator);\r\n            \r\n            emit MediatedSalesTransactionHasBeenFullyApproved(_mediatedSalesTransactionIpfsHash);\r\n        }\r\n    }\r\n    \r\n    // This method allows one of the parties involved in a Mediated Sales Transaction to Disapprove the given \"_mediatedSalesTransactionIpfsHash\" Mediated \r\n    // Sales Transaction. The \"msg.sender\" is the Ethereaum Address of one of the parties involved in the given \"_mediatedSalesTransactionIpfsHash\" Mediated \r\n    // Sales Transaction.\r\n    //\r\n    // Input Parameter:\r\n    // 1) _mediatedSalesTransactionIpfsHash : IPFS Hash string value that uniquely identifies the Mediated Sales Transaction. This IPFS Hash string value refers to   \r\n    //    what should be JSON-formatted string describing the Sale stored in the IPFS Storage System.\r\n    // 2) msg.sender : Ethereum Address of the party attempting to Disapprove the Mediated Sales Transaction\r\n    function disapproveMediatedSalesTransaction(string memory _mediatedSalesTransactionIpfsHash) public {\r\n        require(mediatedSalesTransactionExists[_mediatedSalesTransactionIpfsHash], \"Given Mediated Sales Transaction IPFS Hash does not exist!\");\r\n        \r\n        bool allowedToDisapprove = (mediatedSalesTransactionAddresses[_mediatedSalesTransactionIpfsHash][BUYER_INDEX] == msg.sender) ||\r\n                                (mediatedSalesTransactionAddresses[_mediatedSalesTransactionIpfsHash][SELLER_INDEX] == msg.sender) ||\r\n                                (mediatedSalesTransactionAddresses[_mediatedSalesTransactionIpfsHash][MEDIATOR_INDEX] == msg.sender);\r\n        require(allowedToDisapprove, \"Not allowed to Disapprove Mediated Sales Transaction, because Message Sender is neither the Buyer, Seller, or Mediator!\");\r\n        \r\n        // If 2-out-of-3 of the Buyer, Seller, and/or Mediator have Disapproved the Mediated Sales Transaction, then it's status cannot be changed, because the Seller has already been \r\n        // paid 95% of the Sales Amount, and the Mediator has already been paid 5% of the Sales Amount.\r\n        require(!_mediatedSalesTransactionHasBeenApproved(_mediatedSalesTransactionIpfsHash), \r\n            \"Mediated Sales Transaction has already been Approved by at least 2-out-of-3 of the Buyer, Seller, and/or Mediator! Cannot Disapprove at this point!\");\r\n        \r\n        uint indexBuyerSellerOrMediator = 0;\r\n        for (uint i = 0; i < 3; i++) {\r\n            if (mediatedSalesTransactionAddresses[_mediatedSalesTransactionIpfsHash][i] == msg.sender) {\r\n                indexBuyerSellerOrMediator = i;\r\n            }\r\n        }\r\n        \r\n        // If the Mediated Sales Transaction has already been Disapproved by 2-out-of-3 Buyer, Seller, and/or Mediator, then just note the disapproval from the \"msg.sender\" \r\n        // and that's it, because at this point the Buyer has alreaady been refunded the Sales Amount.\r\n        if (_mediatedSalesTransactionHasBeenDisapproved(_mediatedSalesTransactionIpfsHash)) {\r\n            mediatedSalesTransactionDisapprovedByParties[_mediatedSalesTransactionIpfsHash][indexBuyerSellerOrMediator] = true;\r\n            return;\r\n        }\r\n        \r\n        // Note the disapproval from the \"msg.sender\" Address. If one disapproves, than one cannot approve. Perhaps their's been a change of mind before FINAL Approval or Disapproval.\r\n        mediatedSalesTransactionApprovedByParties[_mediatedSalesTransactionIpfsHash][indexBuyerSellerOrMediator] = false;\r\n        mediatedSalesTransactionDisapprovedByParties[_mediatedSalesTransactionIpfsHash][indexBuyerSellerOrMediator] = true;\r\n        \r\n        // If after the \"msg.sender\" Disapproves the Mediated Sales Transaction, this reaches a State where 2-out-of-3 Buyer, Seller, and/or Mediator have Disapproved, then send 100% of the Sales Amount \r\n        // back to the Buyer Address.\r\n        if (_mediatedSalesTransactionHasBeenApproved(_mediatedSalesTransactionIpfsHash)) {\r\n            uint totalSalesAmount = mediatedSalesTransactionAmount[_mediatedSalesTransactionIpfsHash];\r\n        \r\n            address payable buyerAddress = GeneralUtilities._convertAddressToAddressPayable(mediatedSalesTransactionAddresses[_mediatedSalesTransactionIpfsHash][BUYER_INDEX]);\r\n            buyerAddress.transfer(totalSalesAmount);\r\n            \r\n            emit MediatedSalesTransactionHasBeenFullyDisapproved(_mediatedSalesTransactionIpfsHash);\r\n        }\r\n    }\r\n    \r\n    // Allows a Buyer - identified by the \"_buyerAddress\" Ethereum Address that indirectly calls this methiod via the \"FranklinDecentralizedMarketplace.purchaseItemWithMediator\" \r\n    // method to purchase a \"_quantity\" of a specific Item - identified  by it's \"_keyItemIpfsHash\" - from a given Seller - identified by it's \"_sellerAddress\" Ethereum Address AND use a \r\n    // Mediator - identified by the given \"_mediatorAddress\" - to mediate the Mediatiations Sales Transaction - identified by the the given \"_mediatedSalesTransactionIpfsHash\" ID. \r\n    //\r\n    // The FranklinDecentralizedMarketplaceMediation Contract mainly handles Sales Transactions that involve a Mediator. Thus, these would be referred to as \r\n    // Mediated Sales Transactions that involve a Buyer, Seller, and Mediator. Each Buyer, Seller, and Mediator will have a different Ethereum Address.\r\n    //\r\n    // The FranklinDecentralizedMarketplaceMediation Contract is used to store the Escrow ETH/WEI (i.e., \"totalAmountOfWeiNeededToPurchase\") used to pay for Items involved in ALL Mediated Sales Transactions. \r\n    // The Mediated Sales Transaction works as follows:\r\n    // 1) If 2-out-of-3 of the Buyer, Seller, and/or Mediator Approves this Mediated Sales Transaction, then 95% of the \"totalAmountOfWeiNeededToPurchase\" will be sent to the Seller Address\r\n    //    and 5% of the \"totalAmountOfWeiNeededToPurchase\" will be sent to the Mediator Address. \r\n    // 2) 2-out-of-3 of the Buyer, Seller, and/or Mediator Disapproves this Mediated Sales Transaction, then the \"totalAmountOfWeiNeededToPurchase\" will be sent back to the Buyer Address.\r\n    // 3) If neither (1) or (2) above happens, then the Mediated Sales Transaction will be held in a State of Limbo and the \"totalAmountOfWeiNeededToPurchase\" will be kept inside \r\n    //    of this Contract.\r\n    //\r\n    // Input Parameters:\r\n    // 1) _sellerAddress : Ethereum Address of the Seller\r\n    // 2) _keyItemIpfsHash : This is the IPFS Hash of the Item being sold that points to a JSON-formatted string in the IPFS Storage System.\r\n    // 3) _mediatorAddress : Ethereum Address of the Mediator\r\n    // 4) _quantity : Quantity of the Item that the \"msg.sender\" Buyer wishes to purchase. \r\n    // 5) _mediatedSalesTransactionIpfsHash : This is the IPFS Hash of the Mediated Sales Transaction that points to a JSON-formatted string in the IPFS Storage System.\r\n    // 6) _buyerAddress : Ethereum Address of the Buyer    \r\n    function _purchaseItemWithMediator(address _buyerAddress, address _sellerAddress, address _mediatorAddress, string memory _mediatedSalesTransactionIpfsHash, \r\n                uint totalAmountOfWeiNeededToPurchase) private {\r\n        require(!mediatedSalesTransactionExists[_mediatedSalesTransactionIpfsHash], \"Mediated Sales Transaction already exists!\");\r\n\r\n        require(mediatorExistsMap[_mediatorAddress], \"Given Mediator Address does not exist as a Mediator!\");\r\n        \r\n        // Keep track of the existence of the Mediated Sales Transaction so that it can be Approved or Disapproved by the Buyer, Seller, and/or Mediator in the future.\r\n        mediatedSalesTransactionExists[_mediatedSalesTransactionIpfsHash] = true;\r\n        mediatedSalesTransactionAddresses[_mediatedSalesTransactionIpfsHash][BUYER_INDEX] = _buyerAddress;\r\n        mediatedSalesTransactionAddresses[_mediatedSalesTransactionIpfsHash][SELLER_INDEX] = _sellerAddress;\r\n        mediatedSalesTransactionAddresses[_mediatedSalesTransactionIpfsHash][MEDIATOR_INDEX] = _mediatorAddress;\r\n        \r\n        // The \"totalAmountOfWeiNeededToPurchase\" amount will automatically be sent to this Contract in Escrow in a Mediated Sales Transaction. We need to store the \r\n        // \"totalAmountOfWeiNeededToPurchase\" as follows so that when:\r\n        // 1) 2-out-of-3 of the Buyer, Seller, and/or Mediator Approves this Mediated Sales Transaction, the 95% of the \"totalAmountOfWeiNeededToPurchase\" can be sent to the Seller Address and 5% \r\n        //    of the \"msg.value\" can be sent to the Mediator Address. \r\n        // 2) 2-out-of-3 of the Buyer, Seller, and/or Mediator Disapproves this Mediated Sales Transaction, the \"totalAmountOfWeiNeededToPurchase\" can be sent back to the Buyer Address.\r\n        // 3) If neither (1) or (2) above happens, then the Mediated Sales Transaction will be held in a State of Limbo and the \"totalAmountOfWeiNeededToPurchase\" will be kept inside \r\n        //    of this Contract.\r\n        mediatedSalesTransactionAmount[_mediatedSalesTransactionIpfsHash] = totalAmountOfWeiNeededToPurchase;\r\n        \r\n        numberOfMediationsMediatorInvolved[_mediatorAddress] = GeneralUtilities._safeMathAdd(numberOfMediationsMediatorInvolved[_mediatorAddress], 1);\r\n    }\r\n    \r\n    // Allows a Buyer - identified by the \"msg.sender\" Ethereum Address that calls this method - to purchase a \"_quantity\" of a specific Item - identified \r\n    // by it's \"_keyItemIpfsHash\" - from a given Seller - identified by it's \"_sellerAddress\" Ethereum Address AND use a Mediator - identified by the given \r\n    // \"_mediatorAddress\" - to mediate the Mediatiations Sales Transaction - identified by the the given \"_mediatedSalesTransactionIpfsHash\" ID. \r\n    //\r\n    // The FranklinDecentralizedMarketplaceMediation Contract mainly handles Sales Transactions that involve a Mediator. Thus, these would be referred to as \r\n    // Mediated Sales Transactions that involve a Buyer, Seller, and Mediator. Each Buyer, Seller, and Mediator will have a different Ethereum Address.\r\n    //\r\n    // The FranklinDecentralizedMarketplaceMediation Contract is used to store the Escrow ETH/WEI (i.e., \"totalAmountOfWeiNeededToPurchase\") used to pay for Items involved in ALL Mediated Sales Transactions. \r\n    // The Mediated Sales Transaction works as follows:\r\n    // 1) If 2-out-of-3 of the Buyer, Seller, and/or Mediator Approves this Mediated Sales Transaction, then 95% of the \"totalAmountOfWeiNeededToPurchase\" will be sent to the Seller Address\r\n    //    and 5% of the \"totalAmountOfWeiNeededToPurchase\" will be sent to the Mediator Address. \r\n    // 2) 2-out-of-3 of the Buyer, Seller, and/or Mediator Disapproves this Mediated Sales Transaction, then the \"totalAmountOfWeiNeededToPurchase\" will be sent back to the Buyer Address.\r\n    // 3) If neither (1) or (2) above happens, then the Mediated Sales Transaction will be held in a State of Limbo and the \"totalAmountOfWeiNeededToPurchase\" will be kept inside \r\n    //    of this Contract.\r\n    //\r\n    // Input Parameters:\r\n    // 1) _sellerAddress : Ethereum Address of the Seller\r\n    // 2) _keyItemIpfsHash : This is the IPFS Hash of the Item being sold that points to a JSON-formatted string in the IPFS Storage System.\r\n    // 3) _mediatorAddress : Ethereum Address of the Mediator\r\n    // 4) _quantity : Quantity of the Item that the \"msg.sender\" Buyer wishes to purchase. \r\n    // 5) _mediatedSalesTransactionIpfsHash : This is the IPFS Hash of the Mediated Sales Transaction that points to a JSON-formatted string in the IPFS Storage System.\r\n    // 6) msg.sender : Ethereum Address of the Buyer\r\n    function purchaseItemWithMediator(address _sellerAddress, address _mediatorAddress, string memory _keyItemIpfsHash, \r\n                string memory _mediatedSalesTransactionIpfsHash, uint _quantity) payable public {\r\n        require(franklinDecentralizedMarketplaceContractHasBeenSet, \"The FranklinDecentralizedMarketplaceContract has not been set by the Contract Owner!\");\r\n        require(_quantity > 0, \"Must purchase at least 1 quantity of the Item for Sale to happen!\");\r\n        require(!GeneralUtilities._compareStringsEqual(_keyItemIpfsHash, EMPTY_STRING), \"Cannot have an empty String for the IPFS Hash Key of an Item you are purchasing!\");\r\n        require(!GeneralUtilities._compareStringsEqual(_mediatedSalesTransactionIpfsHash, EMPTY_STRING), \"Cannot have an empty String for the IPFS Hash Key of the Mediated Sales Transaction!\");\r\n        \r\n        require(franklinDecentralizedMarketplaceContract.sellerExists(_sellerAddress), \"Given Seller Address does not exist as a Seller!\");\r\n        \r\n        require(franklinDecentralizedMarketplaceContract.itemForSaleFromSellerExists(_sellerAddress, _keyItemIpfsHash), \"Given IPFS Hash of Item is not listed as an Item For Sale from the Seller!\");\r\n        \r\n        uint quantityAvailableForSaleOfItem = franklinDecentralizedMarketplaceContract.getQuantityAvailableForSaleOfAnItemBySeller(_sellerAddress, _keyItemIpfsHash);\r\n        require(quantityAvailableForSaleOfItem > 0, \"Seller has Zero quantity available for Sale for the Item requested to purchase!\");\r\n        require(quantityAvailableForSaleOfItem >= _quantity, \r\n            \"Quantity available For Sale of the Item from the Seller is less than the quantity requested to purchase! Not enough of the Itenm available For Sale\");\r\n        \r\n        uint priceOfItem = franklinDecentralizedMarketplaceContract.getPriceOfItem(_sellerAddress, _keyItemIpfsHash);\r\n        require(priceOfItem > 0, \"The Seller has not yet set a Price for Sale for the requested Item! Cannot purchase the Item!\"); \r\n        \r\n        uint totalAmountOfWeiNeededToPurchase = GeneralUtilities._safeMathMultiply(priceOfItem, _quantity);\r\n        require(msg.value >= totalAmountOfWeiNeededToPurchase, \"Not enough ETH/WEI was sent to purchase the quantity requested of the Item!\");\r\n        \r\n        // Need to check that the Ethereum Addresses of the Buyer, Seller, and Mediator are ALL different!\r\n        require(msg.sender != _sellerAddress, \"The Buyer Address cannot be the same as the Seller Address!\");\r\n        require(msg.sender != _mediatorAddress, \"The Buyer Address cannot be the same as the Mediator Address!\");\r\n        require(_sellerAddress != _mediatorAddress, \"The Seller Address cannot be the same as the Mediator Address!\");\r\n        \r\n        // Call below method to continue the processing of the Mediated Sales Transaction.\r\n        _purchaseItemWithMediator(msg.sender, _sellerAddress, _mediatorAddress, _mediatedSalesTransactionIpfsHash, totalAmountOfWeiNeededToPurchase);\r\n        \r\n        // Subtract the appropriate \"_quantity\" of that Item for Sale to keep track of the new available quantity of that Item that may be sold. I know that the sale is NOT final \r\n        // at this point, BUT let's be optimistic. If the \"_mediatedSalesTransactionIpfsHash\" Mediated Sales Transaction gets Disapproved, then the quantity will have to be updated \r\n        // accordingly by the Seller Address via the \"setQuantityAvailableForSaleOfAnItem\" method.\r\n        // \r\n        // If the Mediated Sales Transaction NEVER reaches a State of Approval nor Disapproval, then the Mediated Sales Transaction will be held in a State of Limbo and the \r\n        // \"totalAmountOfWeiNeededToPurchase\" will be kept inside of the FranklinDecentralizedMarketplaceMediation Contract. Thus, the quantity For Sale of the Item will never \r\n        // be automatically updated and it would have to be updated by the Seller Address via the \"setQuantityAvailableForSaleOfAnItem\" method.\r\n        franklinDecentralizedMarketplaceContract.setQuantityAvailableForSaleOfAnItem_v2(_sellerAddress, _keyItemIpfsHash, \r\n            GeneralUtilities._safeMathSubtract(quantityAvailableForSaleOfItem, _quantity));\r\n        \r\n        // We want to make sure to return back to the Buyer Address any excess ETH/WEI that exceeds the amount necessary to purchase the given \"_quantity\" of the Item.\r\n        msg.sender.transfer(GeneralUtilities._safeMathSubtract(msg.value, totalAmountOfWeiNeededToPurchase));  \r\n        \r\n        // Since the FranklinDecentralizedMarketplaceMediation Contract will be handling any further Mediation actions, the Escrow should be kept there. \r\n        // So, send the Escrow Amount to the FranklinDecentralizedMarketplaceMediation Contract\r\n        /*\r\n        address payable mediationMarketplaceAddress = GeneralUtilities._convertAddressToAddressPayable(address(mediationMarketplace));\r\n        mediationMarketplaceAddress.transfer(totalAmountOfWeiNeededToPurchase);\r\n        */\r\n        \r\n        emit PurchaseItemWithMediatorEvent(msg.sender, _sellerAddress, _mediatorAddress, _keyItemIpfsHash, _mediatedSalesTransactionIpfsHash, _quantity);\r\n    }\r\n    \r\n    // Gets the Description of a Mediator identified by the given \"_mediatorAddress\". The Description will be the IPFS Hash where the JSON-formatted Description of the Mediator exists.\r\n    // If no such IPFS Hash Key Description exists, then an EMPTY_STRING will be returned. \r\n    function getMediatorIpfsHashDescription(address _mediatorAddress) external view returns (string memory) {\r\n        return descriptionInfoAboutMediators[_mediatorAddress];\r\n    }   \r\n    \r\n    // Gets the Number of Mediations that the given \"_mediatorAddress\" Mediator has been involved.\r\n    function getNumberOfMediationsMediatorInvolved(address _mediatorAddress) external view returns (uint) {\r\n        require(mediatorExistsMap[_mediatorAddress], \"Given Mediator Address does not exist as a Mediator!\");\r\n        return numberOfMediationsMediatorInvolved[_mediatorAddress];\r\n    }\r\n}",
  "sourcePath": "/mnt/d/Kingsland-University-Decentralized-Marketplace-Decentralized-Application-Project-2019/contracts/FranklinDecentralizedMarketplaceMediation.sol",
  "compiler": {
    "name": "solc",
    "version": "0.5.8+commit.23d335f2.Emscripten.clang"
  },
  "schemaVersion": "3.0.16",
  "updatedAt": "2019-11-21T13:35:47.744Z",
  "devdoc": {
    "methods": {}
  },
  "userdoc": {
    "methods": {}
  }
}