{
  "contractName": "FranklinDecentralizedMarketplaceMediation",
  "abi": [
    {
      "constant": true,
      "inputs": [
        {
          "name": "",
          "type": "address"
        }
      ],
      "name": "mediatorExists",
      "outputs": [
        {
          "name": "",
          "type": "bool"
        }
      ],
      "payable": false,
      "stateMutability": "view",
      "type": "function"
    },
    {
      "constant": true,
      "inputs": [
        {
          "name": "",
          "type": "string"
        }
      ],
      "name": "mediatedSalesTransactionExists",
      "outputs": [
        {
          "name": "",
          "type": "bool"
        }
      ],
      "payable": false,
      "stateMutability": "view",
      "type": "function"
    },
    {
      "constant": true,
      "inputs": [
        {
          "name": "",
          "type": "address"
        }
      ],
      "name": "descriptionInfoAboutMediators",
      "outputs": [
        {
          "name": "",
          "type": "string"
        }
      ],
      "payable": false,
      "stateMutability": "view",
      "type": "function"
    },
    {
      "constant": true,
      "inputs": [],
      "name": "numberOfMediators",
      "outputs": [
        {
          "name": "",
          "type": "uint256"
        }
      ],
      "payable": false,
      "stateMutability": "view",
      "type": "function"
    },
    {
      "constant": true,
      "inputs": [
        {
          "name": "",
          "type": "string"
        },
        {
          "name": "",
          "type": "uint256"
        }
      ],
      "name": "mediatedSalesTransactionApprovedByParties",
      "outputs": [
        {
          "name": "",
          "type": "bool"
        }
      ],
      "payable": false,
      "stateMutability": "view",
      "type": "function"
    },
    {
      "constant": true,
      "inputs": [],
      "name": "franklinDecentralizedMarketplaceContract",
      "outputs": [
        {
          "name": "",
          "type": "address"
        }
      ],
      "payable": false,
      "stateMutability": "view",
      "type": "function"
    },
    {
      "constant": true,
      "inputs": [
        {
          "name": "",
          "type": "string"
        },
        {
          "name": "",
          "type": "uint256"
        }
      ],
      "name": "mediatedSalesTransactionDisapprovedByParties",
      "outputs": [
        {
          "name": "",
          "type": "bool"
        }
      ],
      "payable": false,
      "stateMutability": "view",
      "type": "function"
    },
    {
      "constant": true,
      "inputs": [
        {
          "name": "",
          "type": "address"
        },
        {
          "name": "",
          "type": "uint256"
        }
      ],
      "name": "mediatedSalesTransactionsAddressInvolved",
      "outputs": [
        {
          "name": "",
          "type": "string"
        }
      ],
      "payable": false,
      "stateMutability": "view",
      "type": "function"
    },
    {
      "constant": true,
      "inputs": [],
      "name": "franklinDecentralizedMarketplaceContractHasBeenSet",
      "outputs": [
        {
          "name": "",
          "type": "bool"
        }
      ],
      "payable": false,
      "stateMutability": "view",
      "type": "function"
    },
    {
      "constant": true,
      "inputs": [
        {
          "name": "",
          "type": "address"
        }
      ],
      "name": "numberOfMediationsMediatorInvolved",
      "outputs": [
        {
          "name": "",
          "type": "uint256"
        }
      ],
      "payable": false,
      "stateMutability": "view",
      "type": "function"
    },
    {
      "constant": true,
      "inputs": [],
      "name": "contractOwner",
      "outputs": [
        {
          "name": "",
          "type": "address"
        }
      ],
      "payable": false,
      "stateMutability": "view",
      "type": "function"
    },
    {
      "constant": true,
      "inputs": [
        {
          "name": "",
          "type": "string"
        },
        {
          "name": "",
          "type": "uint256"
        }
      ],
      "name": "mediatedSalesTransactionAddresses",
      "outputs": [
        {
          "name": "",
          "type": "address"
        }
      ],
      "payable": false,
      "stateMutability": "view",
      "type": "function"
    },
    {
      "constant": true,
      "inputs": [
        {
          "name": "",
          "type": "string"
        }
      ],
      "name": "mediatedSalesTransactionAmount",
      "outputs": [
        {
          "name": "",
          "type": "uint256"
        }
      ],
      "payable": false,
      "stateMutability": "view",
      "type": "function"
    },
    {
      "inputs": [],
      "payable": false,
      "stateMutability": "nonpayable",
      "type": "constructor"
    },
    {
      "anonymous": false,
      "inputs": [
        {
          "indexed": false,
          "name": "_msgSender",
          "type": "address"
        },
        {
          "indexed": false,
          "name": "_sellerAddress",
          "type": "address"
        },
        {
          "indexed": false,
          "name": "_mediatorAddress",
          "type": "address"
        },
        {
          "indexed": false,
          "name": "_keyItemIpfsHash",
          "type": "string"
        },
        {
          "indexed": false,
          "name": "_mediatedSalesTransactionIpfsHash",
          "type": "string"
        },
        {
          "indexed": false,
          "name": "_quantity",
          "type": "uint256"
        }
      ],
      "name": "PurchaseItemWithMediatorEvent",
      "type": "event"
    },
    {
      "anonymous": false,
      "inputs": [
        {
          "indexed": false,
          "name": "_mediatedSalesTransactionIpfsHash",
          "type": "string"
        }
      ],
      "name": "MediatedSalesTransactionHasBeenFullyApproved",
      "type": "event"
    },
    {
      "anonymous": false,
      "inputs": [
        {
          "indexed": false,
          "name": "_mediatedSalesTransactionIpfsHash",
          "type": "string"
        }
      ],
      "name": "MediatedSalesTransactionHasBeenFullyDisapproved",
      "type": "event"
    },
    {
      "constant": false,
      "inputs": [
        {
          "name": "franklinDecentralizedMarketplaceContractAddress",
          "type": "address"
        }
      ],
      "name": "setFranklinDecentralizedMarketplaceContract",
      "outputs": [],
      "payable": false,
      "stateMutability": "nonpayable",
      "type": "function"
    },
    {
      "constant": false,
      "inputs": [
        {
          "name": "_mediatorIpfsHashDescription",
          "type": "string"
        }
      ],
      "name": "addOrUpdateMediator",
      "outputs": [],
      "payable": false,
      "stateMutability": "nonpayable",
      "type": "function"
    },
    {
      "constant": false,
      "inputs": [],
      "name": "removeMediator",
      "outputs": [],
      "payable": false,
      "stateMutability": "nonpayable",
      "type": "function"
    },
    {
      "constant": true,
      "inputs": [
        {
          "name": "_index",
          "type": "uint256"
        }
      ],
      "name": "getMediatorAddress",
      "outputs": [
        {
          "name": "",
          "type": "address"
        }
      ],
      "payable": false,
      "stateMutability": "view",
      "type": "function"
    },
    {
      "constant": false,
      "inputs": [
        {
          "name": "_sellerAddress",
          "type": "address"
        },
        {
          "name": "_mediatorAddress",
          "type": "address"
        },
        {
          "name": "_keyItemIpfsHash",
          "type": "string"
        },
        {
          "name": "_mediatedSalesTransactionIpfsHash",
          "type": "string"
        },
        {
          "name": "_quantity",
          "type": "uint256"
        }
      ],
      "name": "purchaseItemWithMediator",
      "outputs": [],
      "payable": true,
      "stateMutability": "payable",
      "type": "function"
    },
    {
      "constant": true,
      "inputs": [
        {
          "name": "_mediatedSalesTransactionIpfsHash",
          "type": "string"
        }
      ],
      "name": "mediatedSalesTransactionHasBeenApproved",
      "outputs": [
        {
          "name": "",
          "type": "bool"
        }
      ],
      "payable": false,
      "stateMutability": "view",
      "type": "function"
    },
    {
      "constant": true,
      "inputs": [
        {
          "name": "_mediatedSalesTransactionIpfsHash",
          "type": "string"
        }
      ],
      "name": "mediatedSalesTransactionHasBeenDisapproved",
      "outputs": [
        {
          "name": "",
          "type": "bool"
        }
      ],
      "payable": false,
      "stateMutability": "view",
      "type": "function"
    },
    {
      "constant": false,
      "inputs": [
        {
          "name": "_mediatedSalesTransactionIpfsHash",
          "type": "string"
        }
      ],
      "name": "approveMediatedSalesTransaction",
      "outputs": [],
      "payable": false,
      "stateMutability": "nonpayable",
      "type": "function"
    },
    {
      "constant": false,
      "inputs": [
        {
          "name": "_mediatedSalesTransactionIpfsHash",
          "type": "string"
        }
      ],
      "name": "disapproveMediatedSalesTransaction",
      "outputs": [],
      "payable": false,
      "stateMutability": "nonpayable",
      "type": "function"
    },
    {
      "constant": true,
      "inputs": [
        {
          "name": "_partyAddress",
          "type": "address"
        }
      ],
      "name": "numberOfMediatedSalesTransactionsAddressInvolved",
      "outputs": [
        {
          "name": "",
          "type": "uint256"
        }
      ],
      "payable": false,
      "stateMutability": "view",
      "type": "function"
    }
  ],
  "bytecode": "0x608060405234801561001057600080fd5b5033600c60006101000a81548173ffffffffffffffffffffffffffffffffffffffff021916908373ffffffffffffffffffffffffffffffffffffffff160217905550615f8280620000626000396000f3fe6080604052600436106101405760003560e01c806384c66cd8116100b6578063cb0d5d931161006f578063cb0d5d9314610c1d578063ce606ee014610c82578063d37fc00b14610cd9578063d94695a014610deb578063e35c61cb14610eb3578063fa22a48614610f7b57610140565b806384c66cd81461087e57806390cf579c1461095e578063973ec502146109b5578063bcf383a814610a9f578063c6f1d99714610b1a578063c7eefde514610bee57610140565b80634307a5a5116101085780634307a5a51461048e5780635f852ef4146104df5780636e08148c146105bf578063700ebe9e1461069f578063772701a914610769578063822da04b1461079457610140565b80631967766b146101455780631a67405c1461015c5780632b06d5a4146101c557806330451e8e1461036157806335eda11214610429575b600080fd5b34801561015157600080fd5b5061015a611057565b005b34801561016857600080fd5b506101ab6004803603602081101561017f57600080fd5b81019080803573ffffffffffffffffffffffffffffffffffffffff169060200190929190505050611062565b604051808215151515815260200191505060405180910390f35b61035f600480360360a08110156101db57600080fd5b81019080803573ffffffffffffffffffffffffffffffffffffffff169060200190929190803573ffffffffffffffffffffffffffffffffffffffff1690602001909291908035906020019064010000000081111561023857600080fd5b82018360208201111561024a57600080fd5b8035906020019184600183028401116401000000008311171561026c57600080fd5b91908080601f016020809104026020016040519081016040528093929190818152602001838380828437600081840152601f19601f820116905080830192505050505050509192919290803590602001906401000000008111156102cf57600080fd5b8201836020820111156102e157600080fd5b8035906020019184600183028401116401000000008311171561030357600080fd5b91908080601f016020809104026020016040519081016040528093929190818152602001838380828437600081840152601f19601f82011690508083019250505050505050919291929080359060200190929190505050611082565b005b34801561036d57600080fd5b506104276004803603602081101561038457600080fd5b81019080803590602001906401000000008111156103a157600080fd5b8201836020820111156103b357600080fd5b803590602001918460018302840111640100000000831117156103d557600080fd5b91908080601f016020809104026020016040519081016040528093929190818152602001838380828437600081840152601f19601f820116905080830192505050505050509192919290505050611dcb565b005b34801561043557600080fd5b506104786004803603602081101561044c57600080fd5b81019080803573ffffffffffffffffffffffffffffffffffffffff169060200190929190505050612787565b6040518082815260200191505060405180910390f35b34801561049a57600080fd5b506104dd600480360360208110156104b157600080fd5b81019080803573ffffffffffffffffffffffffffffffffffffffff1690602001909291905050506127d3565b005b3480156104eb57600080fd5b506105a56004803603602081101561050257600080fd5b810190808035906020019064010000000081111561051f57600080fd5b82018360208201111561053157600080fd5b8035906020019184600183028401116401000000008311171561055357600080fd5b91908080601f016020809104026020016040519081016040528093929190818152602001838380828437600081840152601f19601f820116905080830192505050505050509192919290505050612a6a565b604051808215151515815260200191505060405180910390f35b3480156105cb57600080fd5b50610685600480360360208110156105e257600080fd5b81019080803590602001906401000000008111156105ff57600080fd5b82018360208201111561061157600080fd5b8035906020019184600183028401116401000000008311171561063357600080fd5b91908080601f016020809104026020016040519081016040528093929190818152602001838380828437600081840152601f19601f820116905080830192505050505050509192919290505050612bff565b604051808215151515815260200191505060405180910390f35b3480156106ab57600080fd5b506106ee600480360360208110156106c257600080fd5b81019080803573ffffffffffffffffffffffffffffffffffffffff169060200190929190505050612c35565b6040518080602001828103825283818151815260200191508051906020019080838360005b8381101561072e578082015181840152602081019050610713565b50505050905090810190601f16801561075b5780820380516001836020036101000a031916815260200191505b509250505060405180910390f35b34801561077557600080fd5b5061077e612ce5565b6040518082815260200191505060405180910390f35b3480156107a057600080fd5b50610864600480360360408110156107b757600080fd5b81019080803590602001906401000000008111156107d457600080fd5b8201836020820111156107e657600080fd5b8035906020019184600183028401116401000000008311171561080857600080fd5b91908080601f016020809104026020016040519081016040528093929190818152602001838380828437600081840152601f19601f82011690508083019250505050505050919291929080359060200190929190505050612ceb565b604051808215151515815260200191505060405180910390f35b34801561088a57600080fd5b50610944600480360360208110156108a157600080fd5b81019080803590602001906401000000008111156108be57600080fd5b8201836020820111156108d057600080fd5b803590602001918460018302840111640100000000831117156108f257600080fd5b91908080601f016020809104026020016040519081016040528093929190818152602001838380828437600081840152601f19601f820116905080830192505050505050509192919290505050612d37565b604051808215151515815260200191505060405180910390f35b34801561096a57600080fd5b50610973612ecc565b604051808273ffffffffffffffffffffffffffffffffffffffff1673ffffffffffffffffffffffffffffffffffffffff16815260200191505060405180910390f35b3480156109c157600080fd5b50610a85600480360360408110156109d857600080fd5b81019080803590602001906401000000008111156109f557600080fd5b820183602082011115610a0757600080fd5b80359060200191846001830284011164010000000083111715610a2957600080fd5b91908080601f016020809104026020016040519081016040528093929190818152602001838380828437600081840152601f19601f82011690508083019250505050505050919291929080359060200190929190505050612ef2565b604051808215151515815260200191505060405180910390f35b348015610aab57600080fd5b50610ad860048036036020811015610ac257600080fd5b8101908080359060200190929190505050612f3e565b604051808273ffffffffffffffffffffffffffffffffffffffff1673ffffffffffffffffffffffffffffffffffffffff16815260200191505060405180910390f35b348015610b2657600080fd5b50610b7360048036036040811015610b3d57600080fd5b81019080803573ffffffffffffffffffffffffffffffffffffffff16906020019092919080359060200190929190505050613101565b6040518080602001828103825283818151815260200191508051906020019080838360005b83811015610bb3578082015181840152602081019050610b98565b50505050905090810190601f168015610be05780820380516001836020036101000a031916815260200191505b509250505060405180910390f35b348015610bfa57600080fd5b50610c036131c7565b604051808215151515815260200191505060405180910390f35b348015610c2957600080fd5b50610c6c60048036036020811015610c4057600080fd5b81019080803573ffffffffffffffffffffffffffffffffffffffff1690602001909291905050506131da565b6040518082815260200191505060405180910390f35b348015610c8e57600080fd5b50610c976131f2565b604051808273ffffffffffffffffffffffffffffffffffffffff1673ffffffffffffffffffffffffffffffffffffffff16815260200191505060405180910390f35b348015610ce557600080fd5b50610da960048036036040811015610cfc57600080fd5b8101908080359060200190640100000000811115610d1957600080fd5b820183602082011115610d2b57600080fd5b80359060200191846001830284011164010000000083111715610d4d57600080fd5b91908080601f016020809104026020016040519081016040528093929190818152602001838380828437600081840152601f19601f82011690508083019250505050505050919291929080359060200190929190505050613218565b604051808273ffffffffffffffffffffffffffffffffffffffff1673ffffffffffffffffffffffffffffffffffffffff16815260200191505060405180910390f35b348015610df757600080fd5b50610eb160048036036020811015610e0e57600080fd5b8101908080359060200190640100000000811115610e2b57600080fd5b820183602082011115610e3d57600080fd5b80359060200191846001830284011164010000000083111715610e5f57600080fd5b91908080601f016020809104026020016040519081016040528093929190818152602001838380828437600081840152601f19601f820116905080830192505050505050509192919290505050613270565b005b348015610ebf57600080fd5b50610f7960048036036020811015610ed657600080fd5b8101908080359060200190640100000000811115610ef357600080fd5b820183602082011115610f0557600080fd5b80359060200191846001830284011164010000000083111715610f2757600080fd5b91908080601f016020809104026020016040519081016040528093929190818152602001838380828437600081840152601f19601f82011690508083019250505050505050919291929050505061333f565b005b348015610f8757600080fd5b5061104160048036036020811015610f9e57600080fd5b8101908080359060200190640100000000811115610fbb57600080fd5b820183602082011115610fcd57600080fd5b80359060200191846001830284011164010000000083111715610fef57600080fd5b91908080601f016020809104026020016040519081016040528093929190818152602001838380828437600081840152601f19601f820116905080830192505050505050509192919290505050613bef565b6040518082815260200191505060405180910390f35b61106033613c1d565b565b60016020528060005260406000206000915054906101000a900460ff1681565b600b60149054906101000a900460ff166110e7576040517f08c379a000000000000000000000000000000000000000000000000000000000815260040180806020018281038252605481526020018061596f6054913960600191505060405180910390fd5b60008111611140576040517f08c379a00000000000000000000000000000000000000000000000000000000081526004018080602001828103825260418152602001806157646041913960600191505060405180910390fd5b611159836040518060200160405280600081525061413f565b156111af576040517f08c379a0000000000000000000000000000000000000000000000000000000008152600401808060200182810382526050815260200180615d286050913960600191505060405180910390fd5b6111c8826040518060200160405280600081525061413f565b1561121e576040517f08c379a00000000000000000000000000000000000000000000000000000000081526004018080602001828103825260548152602001806157a56054913960600191505060405180910390fd5b600b60009054906101000a900473ffffffffffffffffffffffffffffffffffffffff1673ffffffffffffffffffffffffffffffffffffffff1663be3ecf9d866040518263ffffffff1660e01b8152600401808273ffffffffffffffffffffffffffffffffffffffff1673ffffffffffffffffffffffffffffffffffffffff16815260200191505060206040518083038186803b1580156112bd57600080fd5b505afa1580156112d1573d6000803e3d6000fd5b505050506040513d60208110156112e757600080fd5b810190808051906020019092919050505061134d576040517f08c379a0000000000000000000000000000000000000000000000000000000008152600401808060200182810382526030815260200180615aaa6030913960400191505060405180910390fd5b600b60009054906101000a900473ffffffffffffffffffffffffffffffffffffffff1673ffffffffffffffffffffffffffffffffffffffff16633d2d4de386856040518363ffffffff1660e01b8152600401808373ffffffffffffffffffffffffffffffffffffffff1673ffffffffffffffffffffffffffffffffffffffff16815260200180602001828103825283818151815260200191508051906020019080838360005b8381101561140e5780820151818401526020810190506113f3565b50505050905090810190601f16801561143b5780820380516001836020036101000a031916815260200191505b50935050505060206040518083038186803b15801561145957600080fd5b505afa15801561146d573d6000803e3d6000fd5b505050506040513d602081101561148357600080fd5b81019080805190602001909291905050506114e9576040517f08c379a000000000000000000000000000000000000000000000000000000000815260040180806020018281038252604a815260200180615892604a913960600191505060405180910390fd5b6000600b60009054906101000a900473ffffffffffffffffffffffffffffffffffffffff1673ffffffffffffffffffffffffffffffffffffffff1663282e9d7987866040518363ffffffff1660e01b8152600401808373ffffffffffffffffffffffffffffffffffffffff1673ffffffffffffffffffffffffffffffffffffffff16815260200180602001828103825283818151815260200191508051906020019080838360005b838110156115ac578082015181840152602081019050611591565b50505050905090810190601f1680156115d95780820380516001836020036101000a031916815260200191505b50935050505060206040518083038186803b1580156115f757600080fd5b505afa15801561160b573d6000803e3d6000fd5b505050506040513d602081101561162157600080fd5b810190808051906020019092919050505090506000811161168d576040517f08c379a000000000000000000000000000000000000000000000000000000000815260040180806020018281038252604f815260200180615a5b604f913960600191505060405180910390fd5b818110156116e6576040517f08c379a00000000000000000000000000000000000000000000000000000000081526004018080602001828103825260928152602001806156d26092913960a00191505060405180910390fd5b6000600b60009054906101000a900473ffffffffffffffffffffffffffffffffffffffff1673ffffffffffffffffffffffffffffffffffffffff16633bc70e3c88876040518363ffffffff1660e01b8152600401808373ffffffffffffffffffffffffffffffffffffffff1673ffffffffffffffffffffffffffffffffffffffff16815260200180602001828103825283818151815260200191508051906020019080838360005b838110156117a957808201518184015260208101905061178e565b50505050905090810190601f1680156117d65780820380516001836020036101000a031916815260200191505b50935050505060206040518083038186803b1580156117f457600080fd5b505afa158015611808573d6000803e3d6000fd5b505050506040513d602081101561181e57600080fd5b810190808051906020019092919050505090506000811161188a576040517f08c379a000000000000000000000000000000000000000000000000000000000815260040180806020018281038252605d815260200180615c7f605d913960600191505060405180910390fd5b6000611896828561422e565b9050803410156118f1576040517f08c379a000000000000000000000000000000000000000000000000000000000815260040180806020018281038252604b815260200180615a10604b913960600191505060405180910390fd5b8773ffffffffffffffffffffffffffffffffffffffff163373ffffffffffffffffffffffffffffffffffffffff161415611976576040517f08c379a000000000000000000000000000000000000000000000000000000000815260040180806020018281038252603b815260200180615d78603b913960400191505060405180910390fd5b8673ffffffffffffffffffffffffffffffffffffffff163373ffffffffffffffffffffffffffffffffffffffff1614156119fb576040517f08c379a000000000000000000000000000000000000000000000000000000000815260040180806020018281038252603d815260200180615dea603d913960400191505060405180910390fd5b8673ffffffffffffffffffffffffffffffffffffffff168873ffffffffffffffffffffffffffffffffffffffff161415611a80576040517f08c379a000000000000000000000000000000000000000000000000000000000815260040180806020018281038252603e815260200180615e27603e913960400191505060405180910390fd5b611a8d3389898885614320565b600b60009054906101000a900473ffffffffffffffffffffffffffffffffffffffff1673ffffffffffffffffffffffffffffffffffffffff1663d01056498988611ad787896149a6565b6040518463ffffffff1660e01b8152600401808473ffffffffffffffffffffffffffffffffffffffff1673ffffffffffffffffffffffffffffffffffffffff16815260200180602001838152602001828103825284818151815260200191508051906020019080838360005b83811015611b5e578082015181840152602081019050611b43565b50505050905090810190601f168015611b8b5780820380516001836020036101000a031916815260200191505b50945050505050600060405180830381600087803b158015611bac57600080fd5b505af1158015611bc0573d6000803e3d6000fd5b505050503373ffffffffffffffffffffffffffffffffffffffff166108fc611be834846149a6565b9081150290604051600060405180830381858888f19350505050158015611c13573d6000803e3d6000fd5b507f7008f0be824353804971feb6d2207baebd8b560ebe8807959bbc4bc1f7e34dfa338989898989604051808773ffffffffffffffffffffffffffffffffffffffff1673ffffffffffffffffffffffffffffffffffffffff1681526020018673ffffffffffffffffffffffffffffffffffffffff1673ffffffffffffffffffffffffffffffffffffffff1681526020018573ffffffffffffffffffffffffffffffffffffffff1673ffffffffffffffffffffffffffffffffffffffff1681526020018060200180602001848152602001838103835286818151815260200191508051906020019080838360005b83811015611d1b578082015181840152602081019050611d00565b50505050905090810190601f168015611d485780820380516001836020036101000a031916815260200191505b50838103825285818151815260200191508051906020019080838360005b83811015611d81578082015181840152602081019050611d66565b50505050905090810190601f168015611dae5780820380516001836020036101000a031916815260200191505b509850505050505050505060405180910390a15050505050505050565b6006816040518082805190602001908083835b60208310611e015780518252602082019150602081019050602083039250611dde565b6001836020036101000a038019825116818451168082178552505050505050905001915050908152602001604051809103902060009054906101000a900460ff16611e97576040517f08c379a000000000000000000000000000000000000000000000000000000000815260040180806020018281038252603a815260200180615c45603a913960400191505060405180910390fd5b60003373ffffffffffffffffffffffffffffffffffffffff166005836040518082805190602001908083835b60208310611ee65780518252602082019150602081019050602083039250611ec3565b6001836020036101000a0380198251168184511680821785525050505050509050019150509081526020016040518091039020600060038110611f2557fe5b0160009054906101000a900473ffffffffffffffffffffffffffffffffffffffff1673ffffffffffffffffffffffffffffffffffffffff16148061202a57503373ffffffffffffffffffffffffffffffffffffffff166005836040518082805190602001908083835b60208310611fb15780518252602082019150602081019050602083039250611f8e565b6001836020036101000a0380198251168184511680821785525050505050509050019150509081526020016040518091039020600160038110611ff057fe5b0160009054906101000a900473ffffffffffffffffffffffffffffffffffffffff1673ffffffffffffffffffffffffffffffffffffffff16145b806120f657503373ffffffffffffffffffffffffffffffffffffffff166005836040518082805190602001908083835b6020831061207d578051825260208201915060208101905060208303925061205a565b6001836020036101000a03801982511681845116808217855250505050505090500191505090815260200160405180910390206002600381106120bc57fe5b0160009054906101000a900473ffffffffffffffffffffffffffffffffffffffff1673ffffffffffffffffffffffffffffffffffffffff16145b90508061214e576040517f08c379a000000000000000000000000000000000000000000000000000000000815260040180806020018281038252607481526020018061565e6074913960800191505060405180910390fd5b61215782612a6a565b156121ad576040517f08c379a00000000000000000000000000000000000000000000000000000000081526004018080602001828103825260938152602001806158dc6093913960a00191505060405180910390fd5b600080905060008090505b600381101561229b573373ffffffffffffffffffffffffffffffffffffffff166005856040518082805190602001908083835b6020831061220e57805182526020820191506020810190506020830392506121eb565b6001836020036101000a0380198251168184511680821785525050505050509050019150509081526020016040518091039020826003811061224c57fe5b0160009054906101000a900473ffffffffffffffffffffffffffffffffffffffff1673ffffffffffffffffffffffffffffffffffffffff16141561228e578091505b80806001019150506121b8565b506122a583612d37565b156123465760016008846040518082805190602001908083835b602083106122e257805182526020820191506020810190506020830392506122bf565b6001836020036101000a0380198251168184511680821785525050505050509050019150509081526020016040518091039020826003811061232057fe5b602091828204019190066101000a81548160ff0219169083151502179055505050612784565b60016008846040518082805190602001908083835b6020831061237e578051825260208201915060208101905060208303925061235b565b6001836020036101000a038019825116818451168082178552505050505050905001915050908152602001604051809103902082600381106123bc57fe5b602091828204019190066101000a81548160ff02191690831515021790555060006009846040518082805190602001908083835b6020831061241357805182526020820191506020810190506020830392506123f0565b6001836020036101000a0380198251168184511680821785525050505050509050019150509081526020016040518091039020826003811061245157fe5b602091828204019190066101000a81548160ff02191690831515021790555061247983612d37565b156127815760006007846040518082805190602001908083835b602083106124b65780518252602082019150602081019050602083039250612493565b6001836020036101000a038019825116818451168082178552505050505050905001915050908152602001604051809103902054905060006124fb6005606484614a12565b9050600061250983836149a6565b905060006125ac6005886040518082805190602001908083835b602083106125465780518252602082019150602081019050602083039250612523565b6001836020036101000a038019825116818451168082178552505050505050905001915050908152602001604051809103902060016003811061258557fe5b0160009054906101000a900473ffffffffffffffffffffffffffffffffffffffff16614a35565b9050600061264f6005896040518082805190602001908083835b602083106125e957805182526020820191506020810190506020830392506125c6565b6001836020036101000a038019825116818451168082178552505050505050905001915050908152602001604051809103902060026003811061262857fe5b0160009054906101000a900473ffffffffffffffffffffffffffffffffffffffff16614a35565b90508173ffffffffffffffffffffffffffffffffffffffff166108fc849081150290604051600060405180830381858888f19350505050158015612697573d6000803e3d6000fd5b508073ffffffffffffffffffffffffffffffffffffffff166108fc859081150290604051600060405180830381858888f193505050501580156126de573d6000803e3d6000fd5b507fa23b174fa33ea5f5f896550cbfea1f2dcf96c55f461e307a9dd45fee81746d19886040518080602001828103825283818151815260200191508051906020019080838360005b83811015612741578082015181840152602081019050612726565b50505050905090810190601f16801561276e5780820380516001836020036101000a031916815260200191505b509250505060405180910390a150505050505b50505b50565b6000600a60008373ffffffffffffffffffffffffffffffffffffffff1673ffffffffffffffffffffffffffffffffffffffff168152602001908152602001600020805490509050919050565b600c60009054906101000a900473ffffffffffffffffffffffffffffffffffffffff1673ffffffffffffffffffffffffffffffffffffffff163373ffffffffffffffffffffffffffffffffffffffff1614612879576040517f08c379a0000000000000000000000000000000000000000000000000000000008152600401808060200182810382526037815260200180615db36037913960400191505060405180910390fd5b600b60149054906101000a900460ff16156128df576040517f08c379a000000000000000000000000000000000000000000000000000000000815260040180806020018281038252604c815260200180615cdc604c913960600191505060405180910390fd5b60008190508073ffffffffffffffffffffffffffffffffffffffff1663ce606ee06040518163ffffffff1660e01b815260040160206040518083038186803b15801561292a57600080fd5b505afa15801561293e573d6000803e3d6000fd5b505050506040513d602081101561295457600080fd5b810190808051906020019092919050505073ffffffffffffffffffffffffffffffffffffffff16600c60009054906101000a900473ffffffffffffffffffffffffffffffffffffffff1673ffffffffffffffffffffffffffffffffffffffff1614612a0a576040517f08c379a0000000000000000000000000000000000000000000000000000000008152600401808060200182810382526081815260200180615b026081913960a00191505060405180910390fd5b80600b60006101000a81548173ffffffffffffffffffffffffffffffffffffffff021916908373ffffffffffffffffffffffffffffffffffffffff1602179055506001600b60146101000a81548160ff0219169083151502179055505050565b60006006826040518082805190602001908083835b60208310612aa25780518252602082019150602081019050602083039250612a7f565b6001836020036101000a038019825116818451168082178552505050505050905001915050908152602001604051809103902060009054906101000a900460ff16612b38576040517f08c379a000000000000000000000000000000000000000000000000000000000815260040180806020018281038252603a815260200180615c45603a913960400191505060405180910390fd5b600080905060008090505b6003811015612bf1576009846040518082805190602001908083835b60208310612b825780518252602082019150602081019050602083039250612b5f565b6001836020036101000a03801982511681845116808217855250505050505090500191505090815260200160405180910390208160038110612bc057fe5b602091828204019190069054906101000a900460ff1615612be45781806001019250505b8080600101915050612b43565b506002811015915050919050565b6006818051602081018201805184825260208301602085012081835280955050505050506000915054906101000a900460ff1681565b60036020528060005260406000206000915090508054600181600116156101000203166002900480601f016020809104026020016040519081016040528092919081815260200182805460018160011615610100020316600290048015612cdd5780601f10612cb257610100808354040283529160200191612cdd565b820191906000526020600020905b815481529060010190602001808311612cc057829003601f168201915b505050505081565b60025481565b6008828051602081018201805184825260208301602085012081835280955050505050508160038110612d1a57fe5b60209182820401919006915091509054906101000a900460ff1681565b60006006826040518082805190602001908083835b60208310612d6f5780518252602082019150602081019050602083039250612d4c565b6001836020036101000a038019825116818451168082178552505050505050905001915050908152602001604051809103902060009054906101000a900460ff16612e05576040517f08c379a000000000000000000000000000000000000000000000000000000000815260040180806020018281038252603a815260200180615c45603a913960400191505060405180910390fd5b600080905060008090505b6003811015612ebe576008846040518082805190602001908083835b60208310612e4f5780518252602082019150602081019050602083039250612e2c565b6001836020036101000a03801982511681845116808217855250505050505090500191505090815260200160405180910390208160038110612e8d57fe5b602091828204019190069054906101000a900460ff1615612eb15781806001019250505b8080600101915050612e10565b506002811015915050919050565b600b60009054906101000a900473ffffffffffffffffffffffffffffffffffffffff1681565b6009828051602081018201805184825260208301602085012081835280955050505050508160038110612f2157fe5b60209182820401919006915091509054906101000a900460ff1681565b60006002548210612f9a576040517f08c379a0000000000000000000000000000000000000000000000000000000008152600401808060200182810382526076815260200180615b836076913960800191505060405180910390fd5b600080905060606040518060200160405280600081525090505b6001156130ef576000816040518082805190602001908083835b60208310612ff15780518252602082019150602081019050602083039250612fce565b6001836020036101000a0380198251168184511680821785525050505050509050019150509081526020016040518091039020600060011515151581526020019081526020016000208054600181600116156101000203166002900480601f0160208091040260200160405190810160405280929190818152602001828054600181600116156101000203166002900480156130ce5780601f106130a3576101008083540402835291602001916130ce565b820191906000526020600020905b8154815290600101906020018083116130b157829003601f168201915b50505050509050838214156130e2576130ef565b8180600101925050612fb4565b6130f881614a44565b92505050919050565b600a602052816000526040600020818154811061311a57fe5b90600052602060002001600091509150508054600181600116156101000203166002900480601f0160208091040260200160405190810160405280929190818152602001828054600181600116156101000203166002900480156131bf5780601f10613194576101008083540402835291602001916131bf565b820191906000526020600020905b8154815290600101906020018083116131a257829003601f168201915b505050505081565b600b60149054906101000a900460ff1681565b60046020528060005260406000206000915090505481565b600c60009054906101000a900473ffffffffffffffffffffffffffffffffffffffff1681565b600582805160208101820180518482526020830160208501208183528095505050505050816003811061324757fe5b016000915091509054906101000a900473ffffffffffffffffffffffffffffffffffffffff1681565b613289816040518060200160405280600081525061413f565b156132df576040517f08c379a000000000000000000000000000000000000000000000000000000000815260040180806020018281038252604c815260200180615bf9604c913960600191505060405180910390fd5b80600360003373ffffffffffffffffffffffffffffffffffffffff1673ffffffffffffffffffffffffffffffffffffffff16815260200190815260200160002090805190602001906133329291906154e9565b5061333c33614c9d565b50565b6006816040518082805190602001908083835b602083106133755780518252602082019150602081019050602083039250613352565b6001836020036101000a038019825116818451168082178552505050505050905001915050908152602001604051809103902060009054906101000a900460ff1661340b576040517f08c379a000000000000000000000000000000000000000000000000000000000815260040180806020018281038252603a815260200180615c45603a913960400191505060405180910390fd5b60003373ffffffffffffffffffffffffffffffffffffffff166005836040518082805190602001908083835b6020831061345a5780518252602082019150602081019050602083039250613437565b6001836020036101000a038019825116818451168082178552505050505050905001915050908152602001604051809103902060006003811061349957fe5b0160009054906101000a900473ffffffffffffffffffffffffffffffffffffffff1673ffffffffffffffffffffffffffffffffffffffff16148061359e57503373ffffffffffffffffffffffffffffffffffffffff166005836040518082805190602001908083835b602083106135255780518252602082019150602081019050602083039250613502565b6001836020036101000a038019825116818451168082178552505050505050905001915050908152602001604051809103902060016003811061356457fe5b0160009054906101000a900473ffffffffffffffffffffffffffffffffffffffff1673ffffffffffffffffffffffffffffffffffffffff16145b8061366a57503373ffffffffffffffffffffffffffffffffffffffff166005836040518082805190602001908083835b602083106135f157805182526020820191506020810190506020830392506135ce565b6001836020036101000a038019825116818451168082178552505050505050905001915050908152602001604051809103902060026003811061363057fe5b0160009054906101000a900473ffffffffffffffffffffffffffffffffffffffff1673ffffffffffffffffffffffffffffffffffffffff16145b9050806136c2576040517f08c379a00000000000000000000000000000000000000000000000000000000081526004018080602001828103825260778152602001806157f96077913960800191505060405180910390fd5b6136cb82612d37565b15613721576040517f08c379a0000000000000000000000000000000000000000000000000000000008152600401808060200182810382526093815260200180615e656093913960a00191505060405180910390fd5b600080905060008090505b600381101561380f573373ffffffffffffffffffffffffffffffffffffffff166005856040518082805190602001908083835b60208310613782578051825260208201915060208101905060208303925061375f565b6001836020036101000a038019825116818451168082178552505050505050905001915050908152602001604051809103902082600381106137c057fe5b0160009054906101000a900473ffffffffffffffffffffffffffffffffffffffff1673ffffffffffffffffffffffffffffffffffffffff161415613802578091505b808060010191505061372c565b5061381983612a6a565b156138ba5760016009846040518082805190602001908083835b602083106138565780518252602082019150602081019050602083039250613833565b6001836020036101000a0380198251168184511680821785525050505050509050019150509081526020016040518091039020826003811061389457fe5b602091828204019190066101000a81548160ff0219169083151502179055505050613bec565b60006008846040518082805190602001908083835b602083106138f257805182526020820191506020810190506020830392506138cf565b6001836020036101000a0380198251168184511680821785525050505050509050019150509081526020016040518091039020826003811061393057fe5b602091828204019190066101000a81548160ff02191690831515021790555060016009846040518082805190602001908083835b602083106139875780518252602082019150602081019050602083039250613964565b6001836020036101000a038019825116818451168082178552505050505050905001915050908152602001604051809103902082600381106139c557fe5b602091828204019190066101000a81548160ff0219169083151502179055506139ed83612d37565b15613be95760006007846040518082805190602001908083835b60208310613a2a5780518252602082019150602081019050602083039250613a07565b6001836020036101000a03801982511681845116808217855250505050505090500191505090815260200160405180910390205490506000613b016005866040518082805190602001908083835b60208310613a9b5780518252602082019150602081019050602083039250613a78565b6001836020036101000a0380198251168184511680821785525050505050509050019150509081526020016040518091039020600060038110613ada57fe5b0160009054906101000a900473ffffffffffffffffffffffffffffffffffffffff16614a35565b90508073ffffffffffffffffffffffffffffffffffffffff166108fc839081150290604051600060405180830381858888f19350505050158015613b49573d6000803e3d6000fd5b507f3ff188ce9ea5ca019e8dbce55a0912d7cdc8f3396966d73e9f9574ab70f51657856040518080602001828103825283818151815260200191508051906020019080838360005b83811015613bac578082015181840152602081019050613b91565b50505050905090810190601f168015613bd95780820380516001836020036101000a031916815260200191505b509250505060405180910390a150505b50505b50565b6007818051602081018201805184825260208301602085012081835280955050505050506000915090505481565b600160008273ffffffffffffffffffffffffffffffffffffffff1673ffffffffffffffffffffffffffffffffffffffff16815260200190815260200160002060009054906101000a900460ff16613c735761413c565b6060613c7e82615109565b90506000816040518082805190602001908083835b60208310613cb65780518252602082019150602081019050602083039250613c93565b6001836020036101000a038019825116818451168082178552505050505050905001915050908152602001604051809103902060006001151515158152602001908152602001600020600080836040518082805190602001908083835b60208310613d365780518252602082019150602081019050602083039250613d13565b6001836020036101000a03801982511681845116808217855250505050505090500191505090815260200160405180910390206000801515151581526020019081526020016000206040518082805460018160011615610100020316600290048015613dd95780601f10613db7576101008083540402835291820191613dd9565b820191906000526020600020905b815481529060010190602001808311613dc5575b50509150509081526020016040518091039020600060011515151581526020019081526020016000209080546001816001161561010002031660029004613e21929190615569565b506000816040518082805190602001908083835b60208310613e585780518252602082019150602081019050602083039250613e35565b6001836020036101000a0380198251168184511680821785525050505050509050019150509081526020016040518091039020600080151515158152602001908152602001600020600080836040518082805190602001908083835b60208310613ed75780518252602082019150602081019050602083039250613eb4565b6001836020036101000a0380198251168184511680821785525050505050509050019150509081526020016040518091039020600060011515151581526020019081526020016000206040518082805460018160011615610100020316600290048015613f7b5780601f10613f59576101008083540402835291820191613f7b565b820191906000526020600020905b815481529060010190602001808311613f67575b505091505090815260200160405180910390206000801515151581526020019081526020016000209080546001816001161561010002031660029004613fc2929190615569565b506000816040518082805190602001908083835b60208310613ff95780518252602082019150602081019050602083039250613fd6565b6001836020036101000a0380198251168184511680821785525050505050509050019150509081526020016040518091039020600080151515158152602001908152602001600020600061404d91906155f0565b6000816040518082805190602001908083835b602083106140835780518252602082019150602081019050602083039250614060565b6001836020036101000a03801982511681845116808217855250505050505090500191505090815260200160405180910390206000600115151515815260200190815260200160002060006140d891906155f0565b6140e560025460016149a6565b600281905550600160008373ffffffffffffffffffffffffffffffffffffffff1673ffffffffffffffffffffffffffffffffffffffff16815260200190815260200160002060006101000a81549060ff0219169055505b50565b6000816040516020018082805190602001908083835b602083106141785780518252602082019150602081019050602083039250614155565b6001836020036101000a03801982511681845116808217855250505050505090500191505060405160208183030381529060405280519060200120836040516020018082805190602001908083835b602083106141ea57805182526020820191506020810190506020830392506141c7565b6001836020036101000a0380198251168184511680821785525050505050509050019150506040516020818303038152906040528051906020012014905092915050565b60008083148061423e5750600082145b1561424c576000905061431a565b600082840290508284828161425d57fe5b04146142b4576040517f08c379a000000000000000000000000000000000000000000000000000000000815260040180806020018281038252602b815260200180615f2c602b913960400191505060405180910390fd5b838382816142be57fe5b0414614315576040517f08c379a000000000000000000000000000000000000000000000000000000000815260040180806020018281038252602b815260200180615f2c602b913960400191505060405180910390fd5b809150505b92915050565b6006826040518082805190602001908083835b602083106143565780518252602082019150602081019050602083039250614333565b6001836020036101000a038019825116818451168082178552505050505050905001915050908152602001604051809103902060009054906101000a900460ff16156143ed576040517f08c379a000000000000000000000000000000000000000000000000000000000815260040180806020018281038252602a8152602001806159c3602a913960400191505060405180910390fd5b600160008473ffffffffffffffffffffffffffffffffffffffff1673ffffffffffffffffffffffffffffffffffffffff16815260200190815260200160002060009054906101000a900460ff1661448f576040517f08c379a0000000000000000000000000000000000000000000000000000000008152600401808060200182810382526034815260200180615ef86034913960400191505060405180910390fd5b60016006836040518082805190602001908083835b602083106144c757805182526020820191506020810190506020830392506144a4565b6001836020036101000a038019825116818451168082178552505050505050905001915050908152602001604051809103902060006101000a81548160ff021916908315150217905550846005836040518082805190602001908083835b602083106145485780518252602082019150602081019050602083039250614525565b6001836020036101000a038019825116818451168082178552505050505050905001915050908152602001604051809103902060006003811061458757fe5b0160006101000a81548173ffffffffffffffffffffffffffffffffffffffff021916908373ffffffffffffffffffffffffffffffffffffffff160217905550836005836040518082805190602001908083835b602083106145fd57805182526020820191506020810190506020830392506145da565b6001836020036101000a038019825116818451168082178552505050505050905001915050908152602001604051809103902060016003811061463c57fe5b0160006101000a81548173ffffffffffffffffffffffffffffffffffffffff021916908373ffffffffffffffffffffffffffffffffffffffff160217905550826005836040518082805190602001908083835b602083106146b2578051825260208201915060208101905060208303925061468f565b6001836020036101000a03801982511681845116808217855250505050505090500191505090815260200160405180910390206002600381106146f157fe5b0160006101000a81548173ffffffffffffffffffffffffffffffffffffffff021916908373ffffffffffffffffffffffffffffffffffffffff160217905550600a60008673ffffffffffffffffffffffffffffffffffffffff1673ffffffffffffffffffffffffffffffffffffffff1681526020019081526020016000208290806001815401808255809150509060018203906000526020600020016000909192909190915090805190602001906147aa9291906154e9565b5050600a60008573ffffffffffffffffffffffffffffffffffffffff1673ffffffffffffffffffffffffffffffffffffffff1681526020019081526020016000208290806001815401808255809150509060018203906000526020600020016000909192909190915090805190602001906148269291906154e9565b5050600a60008473ffffffffffffffffffffffffffffffffffffffff1673ffffffffffffffffffffffffffffffffffffffff1681526020019081526020016000208290806001815401808255809150509060018203906000526020600020016000909192909190915090805190602001906148a29291906154e9565b5050806007836040518082805190602001908083835b602083106148db57805182526020820191506020810190506020830392506148b8565b6001836020036101000a03801982511681845116808217855250505050505090500191505090815260200160405180910390208190555061495c600460008573ffffffffffffffffffffffffffffffffffffffff1673ffffffffffffffffffffffffffffffffffffffff16815260200190815260200160002054600161538a565b600460008573ffffffffffffffffffffffffffffffffffffffff1673ffffffffffffffffffffffffffffffffffffffff168152602001908152602001600020819055505050505050565b600082821115614a01576040517f08c379a0000000000000000000000000000000000000000000000000000000008152600401808060200182810382526028815260200180615ada6028913960400191505060405180910390fd5b600082840390508091505092915050565b600080614a1f858461422e565b9050614a2b8185615412565b9150509392505050565b60008082905080915050919050565b6000606082905060008090506000806000600290505b602a811015614c905761010084029350848181518110614a7657fe5b602001015160f81c60f81b60f81c60ff169250846001820181518110614a9857fe5b602001015160f81c60f81b60f81c60ff16915060618373ffffffffffffffffffffffffffffffffffffffff1610158015614ae9575060668373ffffffffffffffffffffffffffffffffffffffff1611155b15614af957605783039250614b93565b60418373ffffffffffffffffffffffffffffffffffffffff1610158015614b37575060468373ffffffffffffffffffffffffffffffffffffffff1611155b15614b4757603783039250614b92565b60308373ffffffffffffffffffffffffffffffffffffffff1610158015614b85575060398373ffffffffffffffffffffffffffffffffffffffff1611155b15614b91576030830392505b5b5b60618273ffffffffffffffffffffffffffffffffffffffff1610158015614bd1575060668273ffffffffffffffffffffffffffffffffffffffff1611155b15614be157605782039150614c7b565b60418273ffffffffffffffffffffffffffffffffffffffff1610158015614c1f575060468273ffffffffffffffffffffffffffffffffffffffff1611155b15614c2f57603782039150614c7a565b60308273ffffffffffffffffffffffffffffffffffffffff1610158015614c6d575060398273ffffffffffffffffffffffffffffffffffffffff1611155b15614c79576030820391505b5b5b81601084020184019350600281019050614a5a565b5082945050505050919050565b600160008273ffffffffffffffffffffffffffffffffffffffff1673ffffffffffffffffffffffffffffffffffffffff16815260200190815260200160002060009054906101000a900460ff1615614cf457615106565b6060614cff82615109565b9050604051806020016040528060008152506000826040518082805190602001908083835b60208310614d475780518252602082019150602081019050602083039250614d24565b6001836020036101000a03801982511681845116808217855250505050505090500191505090815260200160405180910390206000801515151581526020019081526020016000209080519060200190614da29291906154e9565b506000604051806020016040528060008152506040518082805190602001908083835b60208310614de85780518252602082019150602081019050602083039250614dc5565b6001836020036101000a0380198251168184511680821785525050505050509050019150509081526020016040518091039020600060011515151581526020019081526020016000206000826040518082805190602001908083835b60208310614e675780518252602082019150602081019050602083039250614e44565b6001836020036101000a0380198251168184511680821785525050505050509050019150509081526020016040518091039020600060011515151581526020019081526020016000209080546001816001161561010002031660029004614ecf929190615569565b5080600080604051806020016040528060008152506040518082805190602001908083835b60208310614f175780518252602082019150602081019050602083039250614ef4565b6001836020036101000a0380198251168184511680821785525050505050509050019150509081526020016040518091039020600060011515151581526020019081526020016000206040518082805460018160011615610100020316600290048015614fbb5780601f10614f99576101008083540402835291820191614fbb565b820191906000526020600020905b815481529060010190602001808311614fa7575b505091505090815260200160405180910390206000801515151581526020019081526020016000209080519060200190614ff69291906154e9565b50806000604051806020016040528060008152506040518082805190602001908083835b6020831061503d578051825260208201915060208101905060208303925061501a565b6001836020036101000a03801982511681845116808217855250505050505090500191505090815260200160405180910390206000600115151515815260200190815260200160002090805190602001906150999291906154e9565b506150a7600254600161538a565b60028190555060018060008473ffffffffffffffffffffffffffffffffffffffff1673ffffffffffffffffffffffffffffffffffffffff16815260200190815260200160002060006101000a81548160ff021916908315150217905550505b50565b606060008273ffffffffffffffffffffffffffffffffffffffff1660001b905060606040518060400160405280601081526020017f303132333435363738396162636465660000000000000000000000000000000081525090506060602a6040519080825280601f01601f1916602001820160405280156151995781602001600182028038833980820191505090505b5090507f3000000000000000000000000000000000000000000000000000000000000000816000815181106151ca57fe5b60200101907effffffffffffffffffffffffffffffffffffffffffffffffffffffffffffff1916908160001a9053507f78000000000000000000000000000000000000000000000000000000000000008160018151811061522757fe5b60200101907effffffffffffffffffffffffffffffffffffffffffffffffffffffffffffff1916908160001a90535060008090505b601481101561537e5782600485600c84016020811061527757fe5b1a60f81b7effffffffffffffffffffffffffffffffffffffffffffffffffffffffffffff1916901c60f81c60ff16815181106152af57fe5b602001015160f81c60f81b8260028302600201815181106152cc57fe5b60200101907effffffffffffffffffffffffffffffffffffffffffffffffffffffffffffff1916908160001a90535082600f60f81b85600c84016020811061531057fe5b1a60f81b1660f81c60ff168151811061532557fe5b602001015160f81c60f81b82600283026003018151811061534257fe5b60200101907effffffffffffffffffffffffffffffffffffffffffffffffffffffffffffff1916908160001a905350808060010191505061525c565b50809350505050919050565b600080828401905083811015615408576040517f08c379a00000000000000000000000000000000000000000000000000000000081526004018080602001828103825260208152602001807f5f736166654d617468416464203a204164646974696f6e204f766572666c6f7781525060200191505060405180910390fd5b8091505092915050565b600080821161546c576040517f08c379a00000000000000000000000000000000000000000000000000000000081526004018080602001828103825260228152602001806158706022913960400191505060405180910390fd5b600082848161547757fe5b04905082848161548357fe5b068184020184146154df576040517f08c379a00000000000000000000000000000000000000000000000000000000081526004018080602001828103825260238152602001806159ed6023913960400191505060405180910390fd5b8091505092915050565b828054600181600116156101000203166002900490600052602060002090601f016020900481019282601f1061552a57805160ff1916838001178555615558565b82800160010185558215615558579182015b8281111561555757825182559160200191906001019061553c565b5b5090506155659190615638565b5090565b828054600181600116156101000203166002900490600052602060002090601f016020900481019282601f106155a257805485556155df565b828001600101855582156155df57600052602060002091601f016020900482015b828111156155de5782548255916001019190600101906155c3565b5b5090506155ec9190615638565b5090565b50805460018160011615610100020316600290046000825580601f106156165750615635565b601f0160209004906000526020600020908101906156349190615638565b5b50565b61565a91905b8082111561565657600081600090555060010161563e565b5090565b9056fe4e6f7420616c6c6f77656420746f20417070726f7665204d656469617465642053616c6573205472616e73616374696f6e2c2062656361757365204d6573736167652053656e646572206973206e656974686572207468652042757965722c2053656c6c65722c206f72204d65646961746f72215175616e7469747920617661696c61626c6520466f722053616c65206f6620746865204974656d2066726f6d207468652053656c6c6572206973206c657373207468616e20746865207175616e746974792072657175657374656420746f20707572636861736521204e6f7420656e6f756768206f6620746865204974656d20617661696c61626c6520466f722053616c654d757374207075726368617365206174206c656173742031207175616e74697479206f6620746865204974656d20666f722053616c6520746f2068617070656e2143616e6e6f74206861766520616e20656d70747920537472696e6720666f722074686520495046532048617368204b6579206f6620746865204d656469617465642053616c6573205472616e73616374696f6e214e6f7420616c6c6f77656420746f20446973617070726f7665204d656469617465642053616c6573205472616e73616374696f6e2c2062656361757365204d6573736167652053656e646572206973206e656974686572207468652042757965722c2053656c6c65722c206f72204d65646961746f72215f736166654d617468446976696465203a2044656e6f6d696e61746f722069732030476976656e20495046532048617368206f66204974656d206973206e6f74206c697374656420617320616e204974656d20466f722053616c652066726f6d207468652053656c6c6572214d656469617465642053616c6573205472616e73616374696f6e2068617320616c7265616479206265656e20446973617070726f766564206279206174206c6561737420322d6f75742d6f662d33206f66207468652042757965722c2053656c6c65722c20616e642f6f72204d65646961746f72212043616e6e6f7420417070726f7665206174207468697320706f696e7421546865204672616e6b6c696e446563656e7472616c697a65644d61726b6574706c616365436f6e747261637420686173206e6f74206265656e207365742062792074686520436f6e7472616374204f776e6572214d656469617465642053616c6573205472616e73616374696f6e20616c726561647920657869737473215f736166654d617468446976696465203a204469766973696f6e204f766572666c6f774e6f7420656e6f756768204554482f574549207761732073656e7420746f20707572636861736520746865207175616e7469747920726571756573746564206f6620746865204974656d2153656c6c657220686173205a65726f207175616e7469747920617661696c61626c6520666f722053616c6520666f7220746865204974656d2072657175657374656420746f20707572636861736521476976656e2053656c6c6572204164647265737320646f6573206e6f7420657869737420617320612053656c6c6572215f736166654d6174685375627472616374203a205375627472616374696f6e204f766572666c6f774d7573742062652073616d6520436f6e7472616374204f776e657220696e20626f746820746865204672616e6b6c696e446563656e7472616c697a65644d61726b6574706c61636520616e64204672616e6b6c696e446563656e7472616c697a65644d61726b6574706c6163654d6564696174696f6e20636f6e74726163747321496e6465782076616c756520676976656e2069732067726561746572207468616e206f7220657175616c20746f20746865204e756d626572206f66204d65646961746f7273212049742073686f756c64206265206c657373207468616e20746865204e756d626572206f66204d65646961746f72732143616e6e6f74206861766520616e20656d70747920537472696e6720666f722074686520495046532048617368204b6579204465736372697074696f6e206f662061204d65646961746f7221476976656e204d656469617465642053616c6573205472616e73616374696f6e2049504653204861736820646f6573206e6f74206578697374215468652053656c6c657220686173206e6f742079657420736574206120507269636520666f722053616c6520666f722074686520726571756573746564204974656d212043616e6e6f7420707572636861736520746865204974656d21546865206672616e6b6c696e446563656e7472616c697a65644d61726b6574706c616365436f6e7472616374207265666572656e63652068617320616c7265616479206265656e207365742143616e6e6f74206861766520616e20656d70747920537472696e6720666f722074686520495046532048617368204b6579206f6620616e204974656d20796f75206172652070757263686173696e672154686520427579657220416464726573732063616e6e6f74206265207468652073616d65206173207468652053656c6c657220416464726573732154686973206d6574686f64206d6179206f6e6c792062652065786563757465642062792074686520436f6e7472616374204f776e65722154686520427579657220416464726573732063616e6e6f74206265207468652073616d6520617320746865204d65646961746f722041646472657373215468652053656c6c657220416464726573732063616e6e6f74206265207468652073616d6520617320746865204d65646961746f722041646472657373214d656469617465642053616c6573205472616e73616374696f6e2068617320616c7265616479206265656e20417070726f766564206279206174206c6561737420322d6f75742d6f662d33206f66207468652042757965722c2053656c6c65722c20616e642f6f72204d65646961746f72212043616e6e6f7420446973617070726f7665206174207468697320706f696e7421476976656e204d65646961746f72204164647265737320646f6573206e6f742065786973742061732061204d65646961746f72215f736166654d6174684d756c7469706c79203a204d756c7469706c69636174696f6e204f766572666c6f77a165627a7a723058202318112aa64f7fddfcbe52099465e8c66361ebfb23c21569c99533f221e819970029",
  "source": "pragma solidity >=0.4.22 <0.6.0;\r\n\r\nimport \"./FranklinDecentralizedMarketplace.sol\";\r\nimport \"./GeneralUtilities.sol\";\r\n\r\ncontract FranklinDecentralizedMarketplaceMediation {\r\n    using GeneralUtilities for *;\r\n    \r\n    // Constants used for the Double-Linked list and other uses.\r\n    bool constant private PREV = false;\r\n    bool constant private NEXT = true;\r\n    string constant private EMPTY_STRING = \"\";\r\n    \r\n    // This Smart Contract handles Sales Transactions that involve a Mediator. Thus, these would be referred to as Mediated Sales Transactions that involve a Buyer, Seller, and \r\n    // Mediator. Each Buyer, Seller, and Mediator will have a different Ethereum Address.\r\n    \r\n    // The \"franklinDecentralizedMarketplaceContract\" variable refers to the FranklinDecentralizedMarketplace Contract that was set by the \"setFranklinDecentralizedMarketplaceContract\" method.\r\n    // The Contract code had to be split in two, because the Etherum Virtual Machine (EVM) would not allow deployment of a Contract\r\n    // that has more than 24576 bytes. So, the decision was made to SPLIT the code into the FranklinDecentralizedMarketplace \r\n    // and FranklinDecentralizedMarketplaceMediation Contracts.  \r\n    \r\n    // Function calls relating to Mediated Sales Transactions should be done by making the apprioptate function calls on this Smart Contract.\r\n    \r\n    // This Contract will be used to store the Escrow ETH/WEI (i.e., \"totalAmountOfWeiNeededToPurchase\") used to pay for Items involved in ALL Mediated Sales Transactions. \r\n    // The Mediated Sales Transaction works as follows:\r\n    // 1) If 2-out-of-3 of the Buyer, Seller, and/or Mediator Approves this Mediated Sales Transaction, then 95% of the \"totalAmountOfWeiNeededToPurchase\" will be sent to the Seller Address\r\n    //    and 5% of the \"totalAmountOfWeiNeededToPurchase\" will be sent to the Mediator Address. \r\n    // 2) 2-out-of-3 of the Buyer, Seller, and/or Mediator Disapproves this Mediated Sales Transaction, then the \"totalAmountOfWeiNeededToPurchase\" will be sent back to the Buyer Address.\r\n    // 3) If neither (1) or (2) above happens, then the Mediated Sales Transaction will be held in a State of Limbo and the \"totalAmountOfWeiNeededToPurchase\" will be kept inside \r\n    //    of this Contract.\r\n    \r\n    // Each Mediator in this Decentralized Marketplace is identified by it's Ethereum Address, but should also have information about himself/herself that is accessed  \r\n    // in the IPFS Stoarge Systemn via it's IPFS (InterPlanetary File System) Hash string key.\r\n    // Each Mediator in this Decentralized Marketplace is also identified by it's IPFS (InterPlanetary File System) Hash. Information about each Mediator is in a JSON-formatted\r\n    // string stored in the IPFS (InterPlanetary File System) that may be accessed via the Infura IPFS Gateway URL. So, for example, let's say that the Mediator has an\r\n    // IPFS Hash of QmZ4DZ1spT2eQhUC5mfQGugM4AhLjq8ZvuZvHdQvnvKnHH. Then, the information about this Mediator may be seen in one of the following URLs:\r\n    // 1) https://ipfs.infura.io/ipfs/QmZ4DZ1spT2eQhUC5mfQGugM4AhLjq8ZvuZvHdQvnvKnHH\r\n    // 2) https://gateway.ipfs.io/ipfs/QmZ4DZ1spT2eQhUC5mfQGugM4AhLjq8ZvuZvHdQvnvKnH\r\n    \r\n    // Each Mediated Sales Transaction in this Decentralized Marketplace is identified by it's IPFS (InterPlanetary File System) Hash. Information about each Mediated Sales Transaction \r\n    // is in a JSON-formatted string stored in the IPFS (InterPlanetary File System) that may be accessed via the Infura IPFS Gateway URL. So, for example, let's say that the \r\n    // Mediated Sales Transaction has an IPFS Hash of QmZ4DZ1spT2eQhUC5mfQGugM4AhLjq8ZvuZvHdQvnvKnHH. Then, the information about this Mediated Sales Transaction may be seen in one of \r\n    // the following URLs:\r\n    // 1) https://ipfs.infura.io/ipfs/QmZ4DZ1spT2eQhUC5mfQGugM4AhLjq8ZvuZvHdQvnvKnHH\r\n    // 2) https://gateway.ipfs.io/ipfs/QmZ4DZ1spT2eQhUC5mfQGugM4AhLjq8ZvuZvHdQvnvKnH\r\n    \r\n    // A double-linked list that lists all the Mediators by their Ethereum Address in string format.\r\n    //\r\n    // For an explanation as to how the \"mapping(string => mapping(bool => string))\" double linked-list works and the code pertaining to it from which was borrowed, please go to the\r\n    // https://ethereum.stackexchange.com/questions/15337/can-we-get-all-elements-stored-in-a-mapping-in-the-contract web page.\r\n    //\r\n    // Each \"string\" below refers to the Ethereum Address of the Mediator in string format.\r\n    mapping(string => mapping(bool => string)) private listOfMediators;\r\n    \r\n    // Map that keeps track of whether a Mediator exists. The \"address\" key is the Ethereum Address of the Mediator.\r\n    mapping(address => bool) public mediatorExists;\r\n    \r\n    // Keeps a count on the Number of Mediators that mediate sales on this platform.\r\n    uint public numberOfMediators;\r\n    \r\n    // This Mapping contains the Description Information about the Mediators. The Mediator is responsible for adding this information.\r\n    // A Mediator cannot exist without having Description Information, but you can have a Mediator that current does not exist have a \r\n    // Description Information.\r\n    //\r\n    // Mapping is as follows:\r\n    // 1) Key: Ethereum Address of the Mediator\r\n    // 2) Value: IPFS Hash string of the information pertaining to the Mediator. This information is stored in the IPFS Storage Network.\r\n    //           This information should be a JSON-formatted string.\r\n    mapping(address => string) public descriptionInfoAboutMediators;\r\n    \r\n    // Unable to add the below mapping because when attempt was made to deploy, I was not able to do so due to exceeding number of bytes limit by EVM (Ethereum Virtual Machine).\r\n    // mapping (string => address) public addressAssociatedWithMediatorDescription;\r\n    \r\n    // This Mapping contains the Number of Mediations that a Mediator has been involved.\r\n    //\r\n    // Mapping is as follows:\r\n    // 1) Key: Ethereum Address of the Mediator\r\n    // 2) Value: Number of Mediations that a Mediators has been involved\r\n    mapping(address => uint) public numberOfMediationsMediatorInvolved;\r\n\r\n    // Constants used for the Mediated Sales Transactions mappings that have a \"bool[3]\" as a value in it's \"mapping\".\r\n    uint constant private BUYER_INDEX = 0;\r\n    uint constant private SELLER_INDEX = 1;\r\n    uint constant private MEDIATOR_INDEX = 2;\r\n    \r\n    // Maps the Mediated Sales Transaction IPFS Hash to the three Ethereum Addresses involved in the Sale of Item(s) involving a Mediator. The Mediated Sales Transaction IPFS Hash\r\n    // refers to a JSON-formatted string that describes this Transaction in the IPFS Storage System.\r\n    //\r\n    // Mapping is as follows:\r\n    // 1) Key: IPFS Hash string of the Mediated Sales Transaction\r\n    // 2) Values:\r\n    //    A) address[0] : Ethereum Address of the Buyer\r\n    //    B) address[1] : Ethereum Address of the Seller\r\n    //    C) address[2] : Ethereum Address of the Mediator\r\n    mapping(string => address[3]) public mediatedSalesTransactionAddresses;\r\n    \r\n    // Map that shows whether a Mediated Sales Transaction exists. The \"string\" key is the Mediated Sales Transaction IPFS Hash.\r\n    //\r\n    // Mapping is as follows:\r\n    // 1) Key: IPFS Hash string of the Mediated Sales Transaction\r\n    // 2) Value:\r\n    //    A) Boolean value of \"true\" indicates that the Mediated Sales Transaction exists\r\n    //    B) Boolean value of \"false\" indicates that the Mediated Sales Transaction exists\r\n    mapping (string => bool) public mediatedSalesTransactionExists;\r\n    \r\n    // Map that maps the Mediated Sales Transaction to the Sales Amount in Wei. The \"string\" key is the Mediated Sales Transaction IPFS Hash.\r\n    //\r\n    // Mapping is as follows:\r\n    // 1) Key: IPFS Hash string of the Mediated Sales Transaction\r\n    // 2) Value: Amount in Wei that the Buyer chose to pay for the Item(s)\r\n    mapping (string => uint) public mediatedSalesTransactionAmount;\r\n    \r\n    // Map that keeps track of whether a Mediated Sales Transaction has been Approved by the Buyer, Seller, and/or Mediator. \r\n    // The \"string\" key is the Mediated Sales Transaction IPFS Hash.\r\n    //\r\n    // Mapping is as follows:\r\n    // 1) Key: IPFS Hash string of the Mediated Sales Transaction\r\n    // 2) Values:\r\n    //    A) address[0] : Boolean flag indicating if Buyer Approves\r\n    //    B) address[1] : Boolean flag indicating if Seller Approves\r\n    //    C) address[2] : Boolean flag indicating if Mediator Approves\r\n    mapping (string => bool[3]) public mediatedSalesTransactionApprovedByParties;\r\n    \r\n    // Map that keeps track of whether a Mediated Sales Transaction has been Disapproved by the Buyer, Seller, and/or Mediator. \r\n    // The \"string\" key is the Mediated Sales Transaction IPFS Hash.\r\n    //\r\n    // Mapping is as follows:\r\n    // 1) Key: IPFS Hash string of the Mediated Sales Transaction\r\n    // 2) Values:\r\n    //    A) address[0] : Boolean flag indicating if Buyer Disapproves\r\n    //    B) address[1] : Boolean flag indicating if Seller Disapproves\r\n    //    C) address[2] : Boolean flag indicating if Mediator Disapproves\r\n    mapping (string => bool[3]) public mediatedSalesTransactionDisapprovedByParties;\r\n    \r\n    // Map that keeps track of all the Mediated Sales Transactions that an Address has been involved either as a Buyer, Seller, or Mediator.\r\n    //\r\n    // Mapping is as follows:\r\n    // 1) Key: Ethereum Address of the Buyer, Seller, or Mediator \r\n    // 2) Value: Dynamic Array of string elements where each element is the Mediated Sales Transaction IPFS Hash that uniquely identifies the \r\n    //           Mediated Sales Transaction\r\n    mapping (address => string[]) public mediatedSalesTransactionsAddressInvolved;\r\n    \r\n    event PurchaseItemWithMediatorEvent(address _msgSender, address _sellerAddress, address _mediatorAddress, string _keyItemIpfsHash, string _mediatedSalesTransactionIpfsHash, uint _quantity);\r\n    event MediatedSalesTransactionHasBeenFullyApproved(string _mediatedSalesTransactionIpfsHash);\r\n    event MediatedSalesTransactionHasBeenFullyDisapproved(string _mediatedSalesTransactionIpfsHash);\r\n    \r\n    // Below is the Contract Address of the FranklinDecentralizedMarketplace Contract that was set by the \"setFranklinDecentralizedMarketplaceContract\" method.\r\n    // The Contract code had to be split in two, because the Etherum Virtual Machine (EVM) would not allow deployment of a Contract\r\n    // that has more than 24576 bytes. So, the decision was made to SPLIT the code into the FranklinDecentralizedMarketplace \r\n    // and FranklinDecentralizedMarketplaceMediation Contracts.\r\n    FranklinDecentralizedMarketplace public franklinDecentralizedMarketplaceContract;\r\n    bool public franklinDecentralizedMarketplaceContractHasBeenSet;\r\n    address public contractOwner;\r\n    \r\n    constructor() public {\r\n        contractOwner = msg.sender;\r\n    }\r\n    \r\n    function setFranklinDecentralizedMarketplaceContract(address franklinDecentralizedMarketplaceContractAddress) public {\r\n        require(msg.sender == contractOwner, \"This method may only be executed by the Contract Owner!\");\r\n        require(!franklinDecentralizedMarketplaceContractHasBeenSet, \"The franklinDecentralizedMarketplaceContract reference has already been set!\"); \r\n        \r\n        FranklinDecentralizedMarketplace temp = FranklinDecentralizedMarketplace(franklinDecentralizedMarketplaceContractAddress);\r\n        require(contractOwner == temp.contractOwner(), \"Must be same Contract Owner in both the FranklinDecentralizedMarketplace and FranklinDecentralizedMarketplaceMediation contracts!\");\r\n        \r\n        franklinDecentralizedMarketplaceContract = temp;\r\n        franklinDecentralizedMarketplaceContractHasBeenSet = true;\r\n    }\r\n    \r\n    // Private Utility function used to add a given Ethereum Address as a Mediator in the \"listOfMediators\". The given Ethereum Address - \"_mediatorAddressString\" - used \r\n    // as input to this method is the string format version of the Ethereum Address obtained from the \"_addressToString\" method.\r\n    //\r\n    // Assumption: Since this is an internal private method, will assume that input \"_mediatorAddressString\" argument is valid.\r\n    function _addMediator(address _mediatorAddress) private {\r\n        if (mediatorExists[_mediatorAddress]) {\r\n            return;\r\n        }\r\n        \r\n        string memory _mediatorAddressString = GeneralUtilities._addressToString(_mediatorAddress);\r\n        \r\n        // Link the new node \r\n        listOfMediators[_mediatorAddressString][PREV] = EMPTY_STRING;\r\n        listOfMediators[_mediatorAddressString][NEXT] = listOfMediators[EMPTY_STRING][NEXT];\r\n    \r\n        // Insert the new node\r\n        listOfMediators[listOfMediators[EMPTY_STRING][NEXT]][PREV] = _mediatorAddressString;\r\n        listOfMediators[EMPTY_STRING][NEXT] = _mediatorAddressString;\r\n        \r\n        numberOfMediators = GeneralUtilities._safeMathAdd(numberOfMediators, 1);\r\n        mediatorExists[_mediatorAddress] = true;\r\n    }\r\n\r\n    // Adds or Updates a Mediator with the given \"_mediatorIpfsHashDescription\", which refers to a JSON-formatted string stored in the IPFS Storage System.\r\n    // The \"msg.sender\" will be the Ethereum Address of the entity wishing to become a Mediator in this Smart Contract. This method allows anyone with an Ethereum \r\n    // Address to add himself/herself as a Mediator.\r\n    function addOrUpdateMediator(string memory _mediatorIpfsHashDescription) public {\r\n        require(!GeneralUtilities._compareStringsEqual(_mediatorIpfsHashDescription, EMPTY_STRING), \"Cannot have an empty String for the IPFS Hash Key Description of a Mediator!\");\r\n        descriptionInfoAboutMediators[msg.sender] = _mediatorIpfsHashDescription;\r\n        \r\n        _addMediator(msg.sender);\r\n    }\r\n    \r\n    // Private Utility function used to remove a given Ethereum Address as a Mediator in the \"listOfMediators\". The given Ethereum Address - \"_mediatorAddressString\" - used \r\n    // as input to this method is the string format version of the Ethereum Address obtained from the \"_addressToString\" method.\r\n    //\r\n    // Assumption: Since this is an internal private method, will assume that input \"_mediatorAddressString\" argument is valid.    \r\n    function _removeMediator(address _mediatorAddress) private {\r\n        if (!mediatorExists[_mediatorAddress]) {\r\n            return;\r\n        }\r\n        \r\n        string memory _mediatorAddressString = GeneralUtilities._addressToString(_mediatorAddress);\r\n        \r\n        // Stitch the neighbours together\r\n        listOfMediators[ listOfMediators[_mediatorAddressString][PREV] ][NEXT] = listOfMediators[_mediatorAddressString][NEXT];\r\n        listOfMediators[ listOfMediators[_mediatorAddressString][NEXT] ][PREV] = listOfMediators[_mediatorAddressString][PREV];\r\n    \r\n        // Delete state storage\r\n        delete listOfMediators[_mediatorAddressString][PREV];\r\n        delete listOfMediators[_mediatorAddressString][NEXT];\r\n        \r\n        numberOfMediators = GeneralUtilities._safeMathSubtract(numberOfMediators, 1);\r\n        delete mediatorExists[_mediatorAddress];\r\n        \r\n        // We do not wish to remove the Mediator Description nor any other Mediator information, because the mediator may be involved Mediating some sales, and we wish \r\n        // to keep such information around.\r\n    }\r\n    \r\n    // Removes a Mediator from this Smart Contract. The \"msg.sender\" will be the Ethereum Address of the entity wishing to remove himself/herself as a Mediator in this Smart Contract. \r\n    // If there are any pending Sales that the Mediator is involved, the Sales and other information will still be kept.\r\n    // This method allows anyone with an Ethereum  Address to remove himself/herself as a Mediator in this Smart Contract. \r\n    function removeMediator() external {\r\n        _removeMediator(msg.sender);\r\n    }\r\n    \r\n    // Gets the Mediator Ethereum Address at the given \"_index\" from the \"listOfMediators\" double-linked list.\r\n    //\r\n    // Input Parameter:\r\n    // _index : Index number into the \"listOfMediators\" double-linked list.\r\n    //              Index starts at 0.\r\n    //\r\n    // Returns:\r\n    // 1) If the \"_index\" is less than the \"numberOfMediators\", then the Etheruem Address of the Mediator at the given \"_index\" into the \"listOfMediators\" double-linked list\r\n    //    is returned.\r\n    // 2) If the \"_index\" is greater than or equal to the \"numberOfMediators\", then an Exception is thrown via the \"require\" below.\r\n    function getMediatorAddress(uint _index) external view returns (address) {\r\n        require(_index < numberOfMediators, \"Index value given is greater than or equal to the Number of Mediators! It should be less than the Number of Mediators!\");\r\n        \r\n        // The \"key\" below is the Ethereum Address in string format that is in the \"listOfMediators\" double-linked list.\r\n        uint keyCount = 0;\r\n        string memory key = EMPTY_STRING;\r\n        while (true) {\r\n            key = listOfMediators[key][NEXT];\r\n            if (keyCount == _index) {\r\n                break;\r\n            }\r\n            \r\n            keyCount++;\r\n        }\r\n        \r\n        return GeneralUtilities._parseEthereumAddressStringToAddress(key);    \r\n    }\r\n    \r\n    // Allows a Buyer - identified by the \"_buyerAddress\" Ethereum Address that indirectly calls this methiod via the \"FranklinDecentralizedMarketplace.purchaseItemWithMediator\" \r\n    // method to purchase a \"_quantity\" of a specific Item - identified  by it's \"_keyItemIpfsHash\" - from a given Seller - identified by it's \"_sellerAddress\" Ethereum Address AND use a \r\n    // Mediator - identified by the given \"_mediatorAddress\" - to mediate the Mediatiations Sales Transaction - identified by the the given \"_mediatedSalesTransactionIpfsHash\" ID. \r\n    //\r\n    // The FranklinDecentralizedMarketplaceMediation Contract mainly handles Sales Transactions that involve a Mediator. Thus, these would be referred to as \r\n    // Mediated Sales Transactions that involve a Buyer, Seller, and Mediator. Each Buyer, Seller, and Mediator will have a different Ethereum Address.\r\n    //\r\n    // The FranklinDecentralizedMarketplaceMediation Contract is used to store the Escrow ETH/WEI (i.e., \"totalAmountOfWeiNeededToPurchase\") used to pay for Items involved in ALL Mediated Sales Transactions. \r\n    // The Mediated Sales Transaction works as follows:\r\n    // 1) If 2-out-of-3 of the Buyer, Seller, and/or Mediator Approves this Mediated Sales Transaction, then 95% of the \"totalAmountOfWeiNeededToPurchase\" will be sent to the Seller Address\r\n    //    and 5% of the \"totalAmountOfWeiNeededToPurchase\" will be sent to the Mediator Address. \r\n    // 2) 2-out-of-3 of the Buyer, Seller, and/or Mediator Disapproves this Mediated Sales Transaction, then the \"totalAmountOfWeiNeededToPurchase\" will be sent back to the Buyer Address.\r\n    // 3) If neither (1) or (2) above happens, then the Mediated Sales Transaction will be held in a State of Limbo and the \"totalAmountOfWeiNeededToPurchase\" will be kept inside \r\n    //    of this Contract.\r\n    //\r\n    // Input Parameters:\r\n    // 1) _sellerAddress : Ethereum Address of the Seller\r\n    // 2) _keyItemIpfsHash : This is the IPFS Hash of the Item being sold that points to a JSON-formatted string in the IPFS Storage System.\r\n    // 3) _mediatorAddress : Ethereum Address of the Mediator\r\n    // 4) _quantity : Quantity of the Item that the \"msg.sender\" Buyer wishes to purchase. \r\n    // 5) _mediatedSalesTransactionIpfsHash : This is the IPFS Hash of the Mediated Sales Transaction that points to a JSON-formatted string in the IPFS Storage System.\r\n    // 6) _buyerAddress : Ethereum Address of the Buyer    \r\n    function _purchaseItemWithMediator(address _buyerAddress, address _sellerAddress, address _mediatorAddress, string memory _mediatedSalesTransactionIpfsHash, \r\n                uint totalAmountOfWeiNeededToPurchase) private {\r\n        require(!mediatedSalesTransactionExists[_mediatedSalesTransactionIpfsHash], \"Mediated Sales Transaction already exists!\");\r\n        require(mediatorExists[_mediatorAddress], \"Given Mediator Address does not exist as a Mediator!\");\r\n        \r\n        // Keep track of the existence of the Mediated Sales Transaction so that it can be Approved or Disapproved by the Buyer, Seller, and/or Mediator in the future.\r\n        mediatedSalesTransactionExists[_mediatedSalesTransactionIpfsHash] = true;\r\n        mediatedSalesTransactionAddresses[_mediatedSalesTransactionIpfsHash][BUYER_INDEX] = _buyerAddress;\r\n        mediatedSalesTransactionAddresses[_mediatedSalesTransactionIpfsHash][SELLER_INDEX] = _sellerAddress;\r\n        mediatedSalesTransactionAddresses[_mediatedSalesTransactionIpfsHash][MEDIATOR_INDEX] = _mediatorAddress;\r\n        \r\n        // Keep track of what Mediated Sales Transactions each party has been involved.\r\n        mediatedSalesTransactionsAddressInvolved[_buyerAddress].push(_mediatedSalesTransactionIpfsHash);\r\n        mediatedSalesTransactionsAddressInvolved[_sellerAddress].push(_mediatedSalesTransactionIpfsHash);\r\n        mediatedSalesTransactionsAddressInvolved[_mediatorAddress].push(_mediatedSalesTransactionIpfsHash);\r\n        \r\n        // The \"totalAmountOfWeiNeededToPurchase\" amount will automatically be sent to this Contract in Escrow in a Mediated Sales Transaction. We need to store the \r\n        // \"totalAmountOfWeiNeededToPurchase\" as follows so that when:\r\n        // 1) 2-out-of-3 of the Buyer, Seller, and/or Mediator Approves this Mediated Sales Transaction, the 95% of the \"totalAmountOfWeiNeededToPurchase\" can be sent to the Seller Address and 5% \r\n        //    of the \"msg.value\" can be sent to the Mediator Address. \r\n        // 2) 2-out-of-3 of the Buyer, Seller, and/or Mediator Disapproves this Mediated Sales Transaction, the \"totalAmountOfWeiNeededToPurchase\" can be sent back to the Buyer Address.\r\n        // 3) If neither (1) or (2) above happens, then the Mediated Sales Transaction will be held in a State of Limbo and the \"totalAmountOfWeiNeededToPurchase\" will be kept inside \r\n        //    of this Contract.\r\n        mediatedSalesTransactionAmount[_mediatedSalesTransactionIpfsHash] = totalAmountOfWeiNeededToPurchase;\r\n        \r\n        numberOfMediationsMediatorInvolved[_mediatorAddress] = GeneralUtilities._safeMathAdd(numberOfMediationsMediatorInvolved[_mediatorAddress], 1);\r\n    }\r\n    \r\n    // Allows a Buyer - identified by the \"msg.sender\" Ethereum Address that calls this method - to purchase a \"_quantity\" of a specific Item - identified \r\n    // by it's \"_keyItemIpfsHash\" - from a given Seller - identified by it's \"_sellerAddress\" Ethereum Address AND use a Mediator - identified by the given \r\n    // \"_mediatorAddress\" - to mediate the Mediatiations Sales Transaction - identified by the the given \"_mediatedSalesTransactionIpfsHash\" ID. \r\n    //\r\n    // The FranklinDecentralizedMarketplaceMediation Contract mainly handles Sales Transactions that involve a Mediator. Thus, these would be referred to as \r\n    // Mediated Sales Transactions that involve a Buyer, Seller, and Mediator. Each Buyer, Seller, and Mediator will have a different Ethereum Address.\r\n    //\r\n    // The FranklinDecentralizedMarketplaceMediation Contract is used to store the Escrow ETH/WEI (i.e., \"totalAmountOfWeiNeededToPurchase\") used to pay for Items involved in ALL Mediated Sales Transactions. \r\n    // The Mediated Sales Transaction works as follows:\r\n    // 1) If 2-out-of-3 of the Buyer, Seller, and/or Mediator Approves this Mediated Sales Transaction, then 95% of the \"totalAmountOfWeiNeededToPurchase\" will be sent to the Seller Address\r\n    //    and 5% of the \"totalAmountOfWeiNeededToPurchase\" will be sent to the Mediator Address. \r\n    // 2) 2-out-of-3 of the Buyer, Seller, and/or Mediator Disapproves this Mediated Sales Transaction, then the \"totalAmountOfWeiNeededToPurchase\" will be sent back to the Buyer Address.\r\n    // 3) If neither (1) or (2) above happens, then the Mediated Sales Transaction will be held in a State of Limbo and the \"totalAmountOfWeiNeededToPurchase\" will be kept inside \r\n    //    of this Contract.\r\n    //\r\n    // Input Parameters:\r\n    // 1) _sellerAddress : Ethereum Address of the Seller\r\n    // 2) _keyItemIpfsHash : This is the IPFS Hash of the Item being sold that points to a JSON-formatted string in the IPFS Storage System.\r\n    // 3) _mediatorAddress : Ethereum Address of the Mediator\r\n    // 4) _quantity : Quantity of the Item that the \"msg.sender\" Buyer wishes to purchase. \r\n    // 5) _mediatedSalesTransactionIpfsHash : This is the IPFS Hash of the Mediated Sales Transaction that points to a JSON-formatted string in the IPFS Storage System.\r\n    // 6) msg.sender : Ethereum Address of the Buyer\r\n    function purchaseItemWithMediator(address _sellerAddress, address _mediatorAddress, string memory _keyItemIpfsHash, \r\n                string memory _mediatedSalesTransactionIpfsHash, uint _quantity) payable public {\r\n        require(franklinDecentralizedMarketplaceContractHasBeenSet, \"The FranklinDecentralizedMarketplaceContract has not been set by the Contract Owner!\");\r\n        require(_quantity > 0, \"Must purchase at least 1 quantity of the Item for Sale to happen!\");\r\n        require(!GeneralUtilities._compareStringsEqual(_keyItemIpfsHash, EMPTY_STRING), \"Cannot have an empty String for the IPFS Hash Key of an Item you are purchasing!\");\r\n        require(!GeneralUtilities._compareStringsEqual(_mediatedSalesTransactionIpfsHash, EMPTY_STRING), \"Cannot have an empty String for the IPFS Hash Key of the Mediated Sales Transaction!\");\r\n        \r\n        require(franklinDecentralizedMarketplaceContract.sellerExists(_sellerAddress), \"Given Seller Address does not exist as a Seller!\");\r\n        \r\n        require(franklinDecentralizedMarketplaceContract.itemForSaleFromSellerExists(_sellerAddress, _keyItemIpfsHash), \"Given IPFS Hash of Item is not listed as an Item For Sale from the Seller!\");\r\n        \r\n        uint quantityAvailableForSaleOfItem = franklinDecentralizedMarketplaceContract.getQuantityAvailableForSaleOfAnItemBySeller(_sellerAddress, _keyItemIpfsHash);\r\n        require(quantityAvailableForSaleOfItem > 0, \"Seller has Zero quantity available for Sale for the Item requested to purchase!\");\r\n        require(quantityAvailableForSaleOfItem >= _quantity, \r\n            \"Quantity available For Sale of the Item from the Seller is less than the quantity requested to purchase! Not enough of the Item available For Sale\");\r\n        \r\n        uint priceOfItem = franklinDecentralizedMarketplaceContract.getPriceOfItem(_sellerAddress, _keyItemIpfsHash);\r\n        require(priceOfItem > 0, \"The Seller has not yet set a Price for Sale for the requested Item! Cannot purchase the Item!\"); \r\n        \r\n        uint totalAmountOfWeiNeededToPurchase = GeneralUtilities._safeMathMultiply(priceOfItem, _quantity);\r\n        require(msg.value >= totalAmountOfWeiNeededToPurchase, \"Not enough ETH/WEI was sent to purchase the quantity requested of the Item!\");\r\n        \r\n        // Need to check that the Ethereum Addresses of the Buyer, Seller, and Mediator are ALL different!\r\n        require(msg.sender != _sellerAddress, \"The Buyer Address cannot be the same as the Seller Address!\");\r\n        require(msg.sender != _mediatorAddress, \"The Buyer Address cannot be the same as the Mediator Address!\");\r\n        require(_sellerAddress != _mediatorAddress, \"The Seller Address cannot be the same as the Mediator Address!\");\r\n        \r\n        // Call below method to continue the processing of the Mediated Sales Transaction.\r\n        _purchaseItemWithMediator(msg.sender, _sellerAddress, _mediatorAddress, _mediatedSalesTransactionIpfsHash, totalAmountOfWeiNeededToPurchase);\r\n        \r\n        // Subtract the appropriate \"_quantity\" of that Item for Sale to keep track of the new available quantity of that Item that may be sold. I know that the sale is NOT final \r\n        // at this point, BUT let's be optimistic. If the \"_mediatedSalesTransactionIpfsHash\" Mediated Sales Transaction gets Disapproved, then the quantity will have to be updated \r\n        // accordingly by the Seller Address via the \"setQuantityAvailableForSaleOfAnItem\" method.\r\n        // \r\n        // If the Mediated Sales Transaction NEVER reaches a State of Approval nor Disapproval, then the Mediated Sales Transaction will be held in a State of Limbo and the \r\n        // \"totalAmountOfWeiNeededToPurchase\" will be kept inside of the FranklinDecentralizedMarketplaceMediation Contract. Thus, the quantity For Sale of the Item will never \r\n        // be automatically updated and it would have to be updated by the Seller Address via the \"setQuantityAvailableForSaleOfAnItem\" method.\r\n        franklinDecentralizedMarketplaceContract.setQuantityAvailableForSaleOfAnItem_v2(_sellerAddress, _keyItemIpfsHash, \r\n            GeneralUtilities._safeMathSubtract(quantityAvailableForSaleOfItem, _quantity));\r\n        \r\n        // We want to make sure to return back to the Buyer Address any excess ETH/WEI that exceeds the amount necessary to purchase the given \"_quantity\" of the Item.\r\n        msg.sender.transfer(GeneralUtilities._safeMathSubtract(msg.value, totalAmountOfWeiNeededToPurchase));  \r\n        \r\n        // Since the FranklinDecentralizedMarketplaceMediation Contract will be handling any further Mediation actions, the Escrow should be kept there. \r\n        // So, send the Escrow Amount to the FranklinDecentralizedMarketplaceMediation Contract\r\n        /*\r\n        address payable mediationMarketplaceAddress = GeneralUtilities._convertAddressToAddressPayable(address(mediationMarketplace));\r\n        mediationMarketplaceAddress.transfer(totalAmountOfWeiNeededToPurchase);\r\n        */\r\n        \r\n        emit PurchaseItemWithMediatorEvent(msg.sender, _sellerAddress, _mediatorAddress, _keyItemIpfsHash, _mediatedSalesTransactionIpfsHash, _quantity);\r\n    }\r\n    \r\n    // Determines if the given \"_mediatedSalesTransactionIpfsHash\" Mediated Sales Transaction is in the Approved State. It is in the Approved State \r\n    // if 2-out-of-3 Buyer, Seller, and/or Mediator Approve it.\r\n    function mediatedSalesTransactionHasBeenApproved(string memory _mediatedSalesTransactionIpfsHash) public view returns (bool) {\r\n        require(mediatedSalesTransactionExists[_mediatedSalesTransactionIpfsHash], \"Given Mediated Sales Transaction IPFS Hash does not exist!\");\r\n        \r\n        uint numberOfApprovals = 0;\r\n        for (uint i = 0; i < 3; i++) {\r\n            if (mediatedSalesTransactionApprovedByParties[_mediatedSalesTransactionIpfsHash][i]) {\r\n                numberOfApprovals++;\r\n            }\r\n        }\r\n        \r\n        return (numberOfApprovals >= 2);\r\n    }\r\n    \r\n    // Determines if the given \"_mediatedSalesTransactionIpfsHash\" Mediated Sales Transaction is in the Disapprived State. It is in the Disapproved State \r\n    // if 2-out-of-3 Buyer, Seller, and/or Mediator Disapprove it.    \r\n    function mediatedSalesTransactionHasBeenDisapproved(string memory _mediatedSalesTransactionIpfsHash) public view returns (bool) {\r\n        require(mediatedSalesTransactionExists[_mediatedSalesTransactionIpfsHash], \"Given Mediated Sales Transaction IPFS Hash does not exist!\");\r\n        \r\n        uint numberOfDisapprovals = 0;\r\n        for (uint i = 0; i < 3; i++) {\r\n            if (mediatedSalesTransactionDisapprovedByParties[_mediatedSalesTransactionIpfsHash][i]) {\r\n                numberOfDisapprovals++;\r\n            }\r\n        }\r\n        \r\n        return (numberOfDisapprovals >= 2);\r\n    }   \r\n    \r\n    // This method allows one of the parties involved in a Mediated Sales Transaction to Approve the given \"_mediatedSalesTransactionIpfsHash\" Mediated \r\n    // Sales Transaction. \r\n    //\r\n    // Input Parameters:\r\n    // 1) msg.sender : The Ethereum Address of one of the parties\r\n    // 2) _mediatedSalesTransactionIpfsHash : IPFS Hash string value that uniquely identifies the Mediated Sales Transaction. This IPFS Hash string value refers to   \r\n    //    what should be JSON-formatted string describing the Sale stored in the IPFS Storage System.\r\n    function approveMediatedSalesTransaction(string memory _mediatedSalesTransactionIpfsHash) public {\r\n        require(mediatedSalesTransactionExists[_mediatedSalesTransactionIpfsHash], \"Given Mediated Sales Transaction IPFS Hash does not exist!\");\r\n        \r\n        bool allowedToApprove = (mediatedSalesTransactionAddresses[_mediatedSalesTransactionIpfsHash][BUYER_INDEX] == msg.sender) ||\r\n                                (mediatedSalesTransactionAddresses[_mediatedSalesTransactionIpfsHash][SELLER_INDEX] == msg.sender) ||\r\n                                (mediatedSalesTransactionAddresses[_mediatedSalesTransactionIpfsHash][MEDIATOR_INDEX] == msg.sender);\r\n        require(allowedToApprove, \"Not allowed to Approve Mediated Sales Transaction, because Message Sender is neither the Buyer, Seller, or Mediator!\");\r\n        \r\n        // If 2-out-of-3 of the Buyer, Seller, and/or Mediator have Disapproved the Mediated Sales Transaction, then it's status cannot be changed, because the Buyer has already been refunded \r\n        // the amount he/she paid.\r\n        require(!mediatedSalesTransactionHasBeenDisapproved(_mediatedSalesTransactionIpfsHash), \r\n            \"Mediated Sales Transaction has already been Disapproved by at least 2-out-of-3 of the Buyer, Seller, and/or Mediator! Cannot Approve at this point!\");\r\n        \r\n        uint indexBuyerSellerOrMediator = 0;\r\n        for (uint i = 0; i < 3; i++) {\r\n            if (mediatedSalesTransactionAddresses[_mediatedSalesTransactionIpfsHash][i] == msg.sender) {\r\n                indexBuyerSellerOrMediator = i;\r\n            }\r\n        }\r\n        \r\n        // If the Mediated Sales Transaction has already been Approved by 2-out-of-3 Buyer, Seller, and/or Mediator, then just note the approval from the \"msg.sender\" and that's it, because at \r\n        // this point the Seller Address has already been sent 95% of the Sales Amount, and the Mediator has already been sent 5% of the Sales Amount.\r\n        if (mediatedSalesTransactionHasBeenApproved(_mediatedSalesTransactionIpfsHash)) {\r\n            mediatedSalesTransactionApprovedByParties[_mediatedSalesTransactionIpfsHash][indexBuyerSellerOrMediator] = true;\r\n            return;\r\n        }\r\n        \r\n        // Note the approval from the \"msg.sender\" Address. If one approves, than one cannot disapprove. Perhaps their's been a change of mind before FINAL Approval or Disapproval.\r\n        mediatedSalesTransactionApprovedByParties[_mediatedSalesTransactionIpfsHash][indexBuyerSellerOrMediator] = true;\r\n        mediatedSalesTransactionDisapprovedByParties[_mediatedSalesTransactionIpfsHash][indexBuyerSellerOrMediator] = false;\r\n        \r\n        // If after the \"msg.sender\" Approves the Mediated Sales Transaction, this reaches a State where 2-out-of-3 Buyer, Seller, and/or Mediator have Approved, then send 95% of the Sales Amount \r\n        // to the Seller Address and 5% of the Sales Amount to the Mediator Address.\r\n        if (mediatedSalesTransactionHasBeenApproved(_mediatedSalesTransactionIpfsHash)) {\r\n            uint totalSalesAmount = mediatedSalesTransactionAmount[_mediatedSalesTransactionIpfsHash];\r\n            uint amountOfWeiToSendMediator = GeneralUtilities._getPercentageOfTotalAmount(uint256(5), uint256(100), uint256(totalSalesAmount));\r\n            uint amountOfWeiToSendSeller = GeneralUtilities._safeMathSubtract(totalSalesAmount, amountOfWeiToSendMediator);\r\n            \r\n            address payable sellerAddress = GeneralUtilities._convertAddressToAddressPayable(mediatedSalesTransactionAddresses[_mediatedSalesTransactionIpfsHash][SELLER_INDEX]);\r\n            address payable mediatorAddress = GeneralUtilities._convertAddressToAddressPayable(mediatedSalesTransactionAddresses[_mediatedSalesTransactionIpfsHash][MEDIATOR_INDEX]);\r\n            \r\n            sellerAddress.transfer(amountOfWeiToSendSeller);\r\n            mediatorAddress.transfer(amountOfWeiToSendMediator);\r\n            \r\n            emit MediatedSalesTransactionHasBeenFullyApproved(_mediatedSalesTransactionIpfsHash);\r\n        }\r\n    }\r\n    \r\n    // This method allows one of the parties involved in a Mediated Sales Transaction to Disapprove the given \"_mediatedSalesTransactionIpfsHash\" Mediated \r\n    // Sales Transaction. The \"msg.sender\" is the Ethereaum Address of one of the parties involved in the given \"_mediatedSalesTransactionIpfsHash\" Mediated \r\n    // Sales Transaction.\r\n    //\r\n    // Input Parameter:\r\n    // 1) _mediatedSalesTransactionIpfsHash : IPFS Hash string value that uniquely identifies the Mediated Sales Transaction. This IPFS Hash string value refers to   \r\n    //    what should be JSON-formatted string describing the Sale stored in the IPFS Storage System.\r\n    // 2) msg.sender : Ethereum Address of the party attempting to Disapprove the Mediated Sales Transaction\r\n    function disapproveMediatedSalesTransaction(string memory _mediatedSalesTransactionIpfsHash) public {\r\n        require(mediatedSalesTransactionExists[_mediatedSalesTransactionIpfsHash], \"Given Mediated Sales Transaction IPFS Hash does not exist!\");\r\n        \r\n        bool allowedToDisapprove = (mediatedSalesTransactionAddresses[_mediatedSalesTransactionIpfsHash][BUYER_INDEX] == msg.sender) ||\r\n                                (mediatedSalesTransactionAddresses[_mediatedSalesTransactionIpfsHash][SELLER_INDEX] == msg.sender) ||\r\n                                (mediatedSalesTransactionAddresses[_mediatedSalesTransactionIpfsHash][MEDIATOR_INDEX] == msg.sender);\r\n        require(allowedToDisapprove, \"Not allowed to Disapprove Mediated Sales Transaction, because Message Sender is neither the Buyer, Seller, or Mediator!\");\r\n        \r\n        // If 2-out-of-3 of the Buyer, Seller, and/or Mediator have Disapproved the Mediated Sales Transaction, then it's status cannot be changed, because the Seller has already been \r\n        // paid 95% of the Sales Amount, and the Mediator has already been paid 5% of the Sales Amount.\r\n        require(!mediatedSalesTransactionHasBeenApproved(_mediatedSalesTransactionIpfsHash), \r\n            \"Mediated Sales Transaction has already been Approved by at least 2-out-of-3 of the Buyer, Seller, and/or Mediator! Cannot Disapprove at this point!\");\r\n        \r\n        uint indexBuyerSellerOrMediator = 0;\r\n        for (uint i = 0; i < 3; i++) {\r\n            if (mediatedSalesTransactionAddresses[_mediatedSalesTransactionIpfsHash][i] == msg.sender) {\r\n                indexBuyerSellerOrMediator = i;\r\n            }\r\n        }\r\n        \r\n        // If the Mediated Sales Transaction has already been Disapproved by 2-out-of-3 Buyer, Seller, and/or Mediator, then just note the disapproval from the \"msg.sender\" \r\n        // and that's it, because at this point the Buyer has alreaady been refunded the Sales Amount.\r\n        if (mediatedSalesTransactionHasBeenDisapproved(_mediatedSalesTransactionIpfsHash)) {\r\n            mediatedSalesTransactionDisapprovedByParties[_mediatedSalesTransactionIpfsHash][indexBuyerSellerOrMediator] = true;\r\n            return;\r\n        }\r\n        \r\n        // Note the disapproval from the \"msg.sender\" Address. If one disapproves, than one cannot approve. Perhaps their's been a change of mind before FINAL Approval or Disapproval.\r\n        mediatedSalesTransactionApprovedByParties[_mediatedSalesTransactionIpfsHash][indexBuyerSellerOrMediator] = false;\r\n        mediatedSalesTransactionDisapprovedByParties[_mediatedSalesTransactionIpfsHash][indexBuyerSellerOrMediator] = true;\r\n        \r\n        // If after the \"msg.sender\" Disapproves the Mediated Sales Transaction, this reaches a State where 2-out-of-3 Buyer, Seller, and/or Mediator have Disapproved, then send 100% of the Sales Amount \r\n        // back to the Buyer Address.\r\n        if (mediatedSalesTransactionHasBeenApproved(_mediatedSalesTransactionIpfsHash)) {\r\n            uint totalSalesAmount = mediatedSalesTransactionAmount[_mediatedSalesTransactionIpfsHash];\r\n        \r\n            address payable buyerAddress = GeneralUtilities._convertAddressToAddressPayable(mediatedSalesTransactionAddresses[_mediatedSalesTransactionIpfsHash][BUYER_INDEX]);\r\n            buyerAddress.transfer(totalSalesAmount);\r\n            \r\n            emit MediatedSalesTransactionHasBeenFullyDisapproved(_mediatedSalesTransactionIpfsHash);\r\n        }\r\n    }\r\n    \r\n    // Gets the number of Mediated sales Transactions that the given \"_partyAddress\" has been involved.\r\n    function numberOfMediatedSalesTransactionsAddressInvolved(address _partyAddress) external view returns (uint) {\r\n        return mediatedSalesTransactionsAddressInvolved[_partyAddress].length;\r\n    }\r\n    \r\n    // Gets a specific Mediated Sales Transaction IPFS Hash for a given \"_partyAddress\" at the specified \"_index\".\r\n    //\r\n    // The \"require\" below commented out to take up less number of bytes and to use \"require\" needed more elsewhere. \r\n    // Wound up exceeding number of bytes limit by EVM (Ethereum Virtual Machine) when attempt was made to deploy.\r\n    //\r\n    // Had to comment out the below convenience function when I made \"mediatorExists\" public due to exceeding number of bytes limit by EVM (Ethereum Virtual Machine) \r\n    // when attempt was made to deploy.\r\n    /*\r\n    function getMediatedSalesTransactionAddressInvolved(address _partyAddress, uint _index) external view returns (string memory) {\r\n        // require(_index < mediatedSalesTransactionsAddressInvolved[_partyAddress].length, \"Given _index must be less than the number of Mediated Sales Transactions address has been involved!!\");\r\n        if (_index >= mediatedSalesTransactionsAddressInvolved[_partyAddress].length) {\r\n            return EMPTY_STRING;\r\n        }\r\n        \r\n        return mediatedSalesTransactionsAddressInvolved[_partyAddress][_index];\r\n    }\r\n    */\r\n}",
  "sourcePath": "/mnt/d/Kingsland-University-Decentralized-Marketplace-Decentralized-Application-Project-2019/contracts/FranklinDecentralizedMarketplaceMediation.sol",
  "compiler": {
    "name": "solc",
    "version": "0.5.8+commit.23d335f2.Emscripten.clang"
  },
  "schemaVersion": "3.0.16",
  "updatedAt": "2019-11-24T08:19:26.913Z",
  "devdoc": {
    "methods": {}
  },
  "userdoc": {
    "methods": {}
  }
}