{
  "contractName": "FranklinDecentralizedMarketplace",
  "abi": [
    {
      "constant": true,
      "inputs": [],
      "name": "mediationMarketplace",
      "outputs": [
        {
          "name": "",
          "type": "address"
        }
      ],
      "payable": false,
      "stateMutability": "view",
      "type": "function"
    },
    {
      "inputs": [],
      "payable": false,
      "stateMutability": "nonpayable",
      "type": "constructor"
    },
    {
      "constant": true,
      "inputs": [],
      "name": "getContractOwnerOfFranklinDecentralizedMarketplaceMediation",
      "outputs": [
        {
          "name": "",
          "type": "address"
        }
      ],
      "payable": false,
      "stateMutability": "view",
      "type": "function"
    },
    {
      "constant": true,
      "inputs": [],
      "name": "getFranklinDecentralizedMarketplaceMediationContractAddress",
      "outputs": [
        {
          "name": "",
          "type": "address"
        }
      ],
      "payable": false,
      "stateMutability": "view",
      "type": "function"
    },
    {
      "constant": true,
      "inputs": [],
      "name": "getFranklinDecentralizedMarketplaceMediationContract",
      "outputs": [
        {
          "name": "",
          "type": "address"
        }
      ],
      "payable": false,
      "stateMutability": "view",
      "type": "function"
    },
    {
      "constant": true,
      "inputs": [
        {
          "name": "_sellerAddress",
          "type": "address"
        }
      ],
      "name": "sellerIsWillingToSellItemsViaMediator",
      "outputs": [
        {
          "name": "",
          "type": "bool"
        }
      ],
      "payable": false,
      "stateMutability": "view",
      "type": "function"
    },
    {
      "constant": false,
      "inputs": [
        {
          "name": "_flag",
          "type": "bool"
        }
      ],
      "name": "setSellerWillingToSellItemsViaMediator",
      "outputs": [],
      "payable": false,
      "stateMutability": "nonpayable",
      "type": "function"
    },
    {
      "constant": false,
      "inputs": [
        {
          "name": "_ipfsHashKeyDescription",
          "type": "string"
        }
      ],
      "name": "addOrUpdateSellerDescription",
      "outputs": [],
      "payable": false,
      "stateMutability": "nonpayable",
      "type": "function"
    },
    {
      "constant": true,
      "inputs": [
        {
          "name": "_sellerAddress",
          "type": "address"
        }
      ],
      "name": "getSellerIpfsHashDescription",
      "outputs": [
        {
          "name": "",
          "type": "string"
        }
      ],
      "payable": false,
      "stateMutability": "view",
      "type": "function"
    },
    {
      "constant": false,
      "inputs": [],
      "name": "removeSeller",
      "outputs": [],
      "payable": false,
      "stateMutability": "nonpayable",
      "type": "function"
    },
    {
      "constant": true,
      "inputs": [
        {
          "name": "_index",
          "type": "uint256"
        }
      ],
      "name": "getSellerAddress",
      "outputs": [
        {
          "name": "",
          "type": "address"
        }
      ],
      "payable": false,
      "stateMutability": "view",
      "type": "function"
    },
    {
      "constant": true,
      "inputs": [
        {
          "name": "_sellerAddress",
          "type": "address"
        }
      ],
      "name": "sellerExists",
      "outputs": [
        {
          "name": "",
          "type": "bool"
        }
      ],
      "payable": false,
      "stateMutability": "view",
      "type": "function"
    },
    {
      "constant": true,
      "inputs": [],
      "name": "getNumberOfSellers",
      "outputs": [
        {
          "name": "",
          "type": "uint256"
        }
      ],
      "payable": false,
      "stateMutability": "view",
      "type": "function"
    },
    {
      "constant": false,
      "inputs": [
        {
          "name": "_keyItemIpfsHash",
          "type": "string"
        },
        {
          "name": "_priceInWei",
          "type": "uint256"
        }
      ],
      "name": "setPriceOfItem",
      "outputs": [],
      "payable": false,
      "stateMutability": "nonpayable",
      "type": "function"
    },
    {
      "constant": true,
      "inputs": [
        {
          "name": "_sellerAddress",
          "type": "address"
        },
        {
          "name": "_keyItemIpfsHash",
          "type": "string"
        }
      ],
      "name": "getPriceOfItem",
      "outputs": [
        {
          "name": "",
          "type": "uint256"
        }
      ],
      "payable": false,
      "stateMutability": "view",
      "type": "function"
    },
    {
      "constant": false,
      "inputs": [
        {
          "name": "_keyItemIpfsHash",
          "type": "string"
        },
        {
          "name": "_quantity",
          "type": "uint256"
        }
      ],
      "name": "setQuantityAvailableForSaleOfAnItem",
      "outputs": [],
      "payable": false,
      "stateMutability": "nonpayable",
      "type": "function"
    },
    {
      "constant": true,
      "inputs": [
        {
          "name": "_sellerAddress",
          "type": "address"
        },
        {
          "name": "_keyItemIpfsHash",
          "type": "string"
        }
      ],
      "name": "getQuantityAvailableForSaleOfAnItemBySeller",
      "outputs": [
        {
          "name": "",
          "type": "uint256"
        }
      ],
      "payable": false,
      "stateMutability": "view",
      "type": "function"
    },
    {
      "constant": false,
      "inputs": [
        {
          "name": "_sellerAddress",
          "type": "address"
        },
        {
          "name": "_keyItemIpfsHash",
          "type": "string"
        },
        {
          "name": "_quantity",
          "type": "uint256"
        }
      ],
      "name": "purchaseItemWithoutMediator",
      "outputs": [],
      "payable": true,
      "stateMutability": "payable",
      "type": "function"
    },
    {
      "constant": false,
      "inputs": [
        {
          "name": "_sellerAddress",
          "type": "address"
        },
        {
          "name": "_mediatorAddress",
          "type": "address"
        },
        {
          "name": "_keyItemIpfsHash",
          "type": "string"
        },
        {
          "name": "_mediatedSalesTransactionIpfsHash",
          "type": "string"
        },
        {
          "name": "_quantity",
          "type": "uint256"
        }
      ],
      "name": "purchaseItemWithMediator",
      "outputs": [],
      "payable": true,
      "stateMutability": "payable",
      "type": "function"
    },
    {
      "constant": false,
      "inputs": [
        {
          "name": "_keyItemIpfsHash",
          "type": "string"
        }
      ],
      "name": "addItemForSale",
      "outputs": [],
      "payable": false,
      "stateMutability": "nonpayable",
      "type": "function"
    },
    {
      "constant": false,
      "inputs": [
        {
          "name": "_keyItemIpfsHash",
          "type": "string"
        }
      ],
      "name": "removeItemForSale",
      "outputs": [],
      "payable": false,
      "stateMutability": "nonpayable",
      "type": "function"
    },
    {
      "constant": true,
      "inputs": [
        {
          "name": "_sellerAddress",
          "type": "address"
        }
      ],
      "name": "getNumberOfDifferentItemsBeingSoldBySeller",
      "outputs": [
        {
          "name": "",
          "type": "uint256"
        }
      ],
      "payable": false,
      "stateMutability": "view",
      "type": "function"
    },
    {
      "constant": true,
      "inputs": [
        {
          "name": "_sellerAddress",
          "type": "address"
        },
        {
          "name": "_itemIndex",
          "type": "uint256"
        }
      ],
      "name": "getItemForSale",
      "outputs": [
        {
          "name": "",
          "type": "string"
        }
      ],
      "payable": false,
      "stateMutability": "view",
      "type": "function"
    },
    {
      "constant": true,
      "inputs": [
        {
          "name": "_sellerAddress",
          "type": "address"
        },
        {
          "name": "_keyItemIpfsHash",
          "type": "string"
        }
      ],
      "name": "itemForSaleFromSellerExists",
      "outputs": [
        {
          "name": "",
          "type": "bool"
        }
      ],
      "payable": false,
      "stateMutability": "view",
      "type": "function"
    }
  ],
  "bytecode": "0x608060405234801561001057600080fd5b50615c2580620000216000396000f3fe6080604052600436106101405760003560e01c8063988fc83e116100b6578063c0fc79bb1161006f578063c0fc79bb14610d90578063d3fc6d9114610df9578063d9a1e27b14610e36578063e8dde6df14610e9b578063f4048e5514610ef2578063fcd2107814610f1d57610140565b8063988fc83e146109e75780639f42ed2414610abb578063a675364d14610b8d578063a6a82eee14610c08578063be3ecf9d14610c5f578063c008b40614610cc857610140565b80632b06d5a4116101085780632b06d5a4146104cf5780633bc70e3c1461066b5780633d2d4de3146107675780634360502c146108675780636c84d465146108be5780637107bf871461091557610140565b806318426481146101455780631d1ca2791461020d5780631db03207146102d7578063251ed3b9146102ee578063282e9d79146103d3575b600080fd5b34801561015157600080fd5b5061020b6004803603602081101561016857600080fd5b810190808035906020019064010000000081111561018557600080fd5b82018360208201111561019757600080fd5b803590602001918460018302840111640100000000831117156101b957600080fd5b91908080601f016020809104026020016040519081016040528093929190818152602001838380828437600081840152601f19601f820116905080830192505050505050509192919290505050610fe5565b005b34801561021957600080fd5b5061025c6004803603602081101561023057600080fd5b81019080803573ffffffffffffffffffffffffffffffffffffffff169060200190929190505050611741565b6040518080602001828103825283818151815260200191508051906020019080838360005b8381101561029c578082015181840152602081019050610281565b50505050905090810190601f1680156102c95780820380516001836020036101000a031916815260200191505b509250505060405180910390f35b3480156102e357600080fd5b506102ec611822565b005b6103d16004803603606081101561030457600080fd5b81019080803573ffffffffffffffffffffffffffffffffffffffff1690602001909291908035906020019064010000000081111561034157600080fd5b82018360208201111561035357600080fd5b8035906020019184600183028401116401000000008311171561037557600080fd5b91908080601f016020809104026020016040519081016040528093929190818152602001838380828437600081840152601f19601f8201169050808301925050505050505091929192908035906020019092919050505061191e565b005b3480156103df57600080fd5b506104b9600480360360408110156103f657600080fd5b81019080803573ffffffffffffffffffffffffffffffffffffffff1690602001909291908035906020019064010000000081111561043357600080fd5b82018360208201111561044557600080fd5b8035906020019184600183028401116401000000008311171561046757600080fd5b91908080601f016020809104026020016040519081016040528093929190818152602001838380828437600081840152601f19601f820116905080830192505050505050509192919290505050612073565b6040518082815260200191505060405180910390f35b610669600480360360a08110156104e557600080fd5b81019080803573ffffffffffffffffffffffffffffffffffffffff169060200190929190803573ffffffffffffffffffffffffffffffffffffffff1690602001909291908035906020019064010000000081111561054257600080fd5b82018360208201111561055457600080fd5b8035906020019184600183028401116401000000008311171561057657600080fd5b91908080601f016020809104026020016040519081016040528093929190818152602001838380828437600081840152601f19601f820116905080830192505050505050509192919290803590602001906401000000008111156105d957600080fd5b8201836020820111156105eb57600080fd5b8035906020019184600183028401116401000000008311171561060d57600080fd5b91908080601f016020809104026020016040519081016040528093929190818152602001838380828437600081840152601f19601f820116905080830192505050505050509192919290803590602001909291905050506120f6565b005b34801561067757600080fd5b506107516004803603604081101561068e57600080fd5b81019080803573ffffffffffffffffffffffffffffffffffffffff169060200190929190803590602001906401000000008111156106cb57600080fd5b8201836020820111156106dd57600080fd5b803590602001918460018302840111640100000000831117156106ff57600080fd5b91908080601f016020809104026020016040519081016040528093929190818152602001838380828437600081840152601f19601f820116905080830192505050505050509192919290505050612b93565b6040518082815260200191505060405180910390f35b34801561077357600080fd5b5061084d6004803603604081101561078a57600080fd5b81019080803573ffffffffffffffffffffffffffffffffffffffff169060200190929190803590602001906401000000008111156107c757600080fd5b8201836020820111156107d957600080fd5b803590602001918460018302840111640100000000831117156107fb57600080fd5b91908080601f016020809104026020016040519081016040528093929190818152602001838380828437600081840152601f19601f820116905080830192505050505050509192919290505050612d51565b604051808215151515815260200191505060405180910390f35b34801561087357600080fd5b5061087c612de1565b604051808273ffffffffffffffffffffffffffffffffffffffff1673ffffffffffffffffffffffffffffffffffffffff16815260200191505060405180910390f35b3480156108ca57600080fd5b506108d3612f94565b604051808273ffffffffffffffffffffffffffffffffffffffff1673ffffffffffffffffffffffffffffffffffffffff16815260200191505060405180910390f35b34801561092157600080fd5b506109e56004803603604081101561093857600080fd5b810190808035906020019064010000000081111561095557600080fd5b82018360208201111561096757600080fd5b8035906020019184600183028401116401000000008311171561098957600080fd5b91908080601f016020809104026020016040519081016040528093929190818152602001838380828437600081840152601f19601f82011690508083019250505050505050919291929080359060200190929190505050612fba565b005b3480156109f357600080fd5b50610a4060048036036040811015610a0a57600080fd5b81019080803573ffffffffffffffffffffffffffffffffffffffff16906020019092919080359060200190929190505050613176565b6040518080602001828103825283818151815260200191508051906020019080838360005b83811015610a80578082015181840152602081019050610a65565b50505050905090810190601f168015610aad5780820380516001836020036101000a031916815260200191505b509250505060405180910390f35b348015610ac757600080fd5b50610b8b60048036036040811015610ade57600080fd5b8101908080359060200190640100000000811115610afb57600080fd5b820183602082011115610b0d57600080fd5b80359060200191846001830284011164010000000083111715610b2f57600080fd5b91908080601f016020809104026020016040519081016040528093929190818152602001838380828437600081840152601f19601f82011690508083019250505050505050919291929080359060200190929190505050613379565b005b348015610b9957600080fd5b50610bc660048036036020811015610bb057600080fd5b8101908080359060200190929190505050613535565b604051808273ffffffffffffffffffffffffffffffffffffffff1673ffffffffffffffffffffffffffffffffffffffff16815260200191505060405180910390f35b348015610c1457600080fd5b50610c1d6136f8565b604051808273ffffffffffffffffffffffffffffffffffffffff1673ffffffffffffffffffffffffffffffffffffffff16815260200191505060405180910390f35b348015610c6b57600080fd5b50610cae60048036036020811015610c8257600080fd5b81019080803573ffffffffffffffffffffffffffffffffffffffff169060200190929190505050613722565b604051808215151515815260200191505060405180910390f35b348015610cd457600080fd5b50610d8e60048036036020811015610ceb57600080fd5b8101908080359060200190640100000000811115610d0857600080fd5b820183602082011115610d1a57600080fd5b80359060200191846001830284011164010000000083111715610d3c57600080fd5b91908080601f016020809104026020016040519081016040528093929190818152602001838380828437600081840152601f19601f820116905080830192505050505050509192919290505050613778565b005b348015610d9c57600080fd5b50610ddf60048036036020811015610db357600080fd5b81019080803573ffffffffffffffffffffffffffffffffffffffff1690602001909291905050506138d6565b604051808215151515815260200191505060405180910390f35b348015610e0557600080fd5b50610e3460048036036020811015610e1c57600080fd5b8101908080351515906020019092919050505061392c565b005b348015610e4257600080fd5b50610e8560048036036020811015610e5957600080fd5b81019080803573ffffffffffffffffffffffffffffffffffffffff1690602001909291905050506139dd565b6040518082815260200191505060405180910390f35b348015610ea757600080fd5b50610eb0613a26565b604051808273ffffffffffffffffffffffffffffffffffffffff1673ffffffffffffffffffffffffffffffffffffffff16815260200191505060405180910390f35b348015610efe57600080fd5b50610f07613a50565b6040518082815260200191505060405180910390f35b348015610f2957600080fd5b50610fe360048036036020811015610f4057600080fd5b8101908080359060200190640100000000811115610f5d57600080fd5b820183602082011115610f6f57600080fd5b80359060200191846001830284011164010000000083111715610f9157600080fd5b91908080601f016020809104026020016040519081016040528093929190818152602001838380828437600081840152601f19601f820116905080830192505050505050509192919290505050613a5a565b005b6060610ff1338361404e565b90506003816040518082805190602001908083835b602083106110295780518252602082019150602081019050602083039250611006565b6001836020036101000a038019825116818451168082178552505050505050905001915050908152602001604051809103902060009054906101000a900460ff16611074575061173e565b6000600260003373ffffffffffffffffffffffffffffffffffffffff1673ffffffffffffffffffffffffffffffffffffffff168152602001908152602001600020905080836040518082805190602001908083835b602083106110ec57805182526020820191506020810190506020830392506110c9565b6001836020036101000a0380198251168184511680821785525050505050509050019150509081526020016040518091039020600060011515151581526020019081526020016000208182856040518082805190602001908083835b6020831061116b5780518252602082019150602081019050602083039250611148565b6001836020036101000a0380198251168184511680821785525050505050509050019150509081526020016040518091039020600080151515158152602001908152602001600020604051808280546001816001161561010002031660029004801561120e5780601f106111ec57610100808354040283529182019161120e565b820191906000526020600020905b8154815290600101906020018083116111fa575b50509150509081526020016040518091039020600060011515151581526020019081526020016000209080546001816001161561010002031660029004611256929190615344565b5080836040518082805190602001908083835b6020831061128c5780518252602082019150602081019050602083039250611269565b6001836020036101000a03801982511681845116808217855250505050505090500191505090815260200160405180910390206000801515151581526020019081526020016000208182856040518082805190602001908083835b6020831061130a57805182526020820191506020810190506020830392506112e7565b6001836020036101000a03801982511681845116808217855250505050505090500191505090815260200160405180910390206000600115151515815260200190815260200160002060405180828054600181600116156101000203166002900480156113ae5780601f1061138c5761010080835404028352918201916113ae565b820191906000526020600020905b81548152906001019060200180831161139a575b5050915050908152602001604051809103902060008015151515815260200190815260200160002090805460018160011615610100020316600290046113f5929190615344565b5080836040518082805190602001908083835b6020831061142b5780518252602082019150602081019050602083039250611408565b6001836020036101000a0380198251168184511680821785525050505050509050019150509081526020016040518091039020600080151515158152602001908152602001600020600061147f91906153cb565b80836040518082805190602001908083835b602083106114b45780518252602082019150602081019050602083039250611491565b6001836020036101000a038019825116818451168082178552505050505050905001915050908152602001604051809103902060006001151515158152602001908152602001600020600061150991906153cb565b611553600460003373ffffffffffffffffffffffffffffffffffffffff1673ffffffffffffffffffffffffffffffffffffffff1681526020019081526020016000205460016141a6565b600460003373ffffffffffffffffffffffffffffffffffffffff1673ffffffffffffffffffffffffffffffffffffffff168152602001908152602001600020819055506003826040518082805190602001908083835b602083106115cc57805182526020820191506020810190506020830392506115a9565b6001836020036101000a038019825116818451168082178552505050505050905001915050908152602001604051809103902060006101000a81549060ff02191690556000826040518082805190602001908083835b602083106116455780518252602082019150602081019050602083039250611622565b6001836020036101000a0380198251168184511680821785525050505050509050019150509081526020016040518091039020600090556001826040518082805190602001908083835b602083106116b2578051825260208201915060208101905060208303925061168f565b6001836020036101000a0380198251168184511680821785525050505050509050019150509081526020016040518091039020600090556000600460003373ffffffffffffffffffffffffffffffffffffffff1673ffffffffffffffffffffffffffffffffffffffff16815260200190815260200160002054141561173b5761173a33614212565b5b50505b50565b6060600860008373ffffffffffffffffffffffffffffffffffffffff1673ffffffffffffffffffffffffffffffffffffffff1681526020019081526020016000208054600181600116156101000203166002900480601f0160208091040260200160405190810160405280929190818152602001828054600181600116156101000203166002900480156118165780601f106117eb57610100808354040283529160200191611816565b820191906000526020600020905b8154815290600101906020018083116117f957829003601f168201915b50505050509050919050565b6000600460003373ffffffffffffffffffffffffffffffffffffffff1673ffffffffffffffffffffffffffffffffffffffff16815260200190815260200160002054905060608160405190808252806020026020018201604052801561189c57816020015b60608152602001906001900390816118875790505b50905060008090505b828110156118e15760606118b93383613176565b9050808383815181106118c857fe5b60200260200101819052505080806001019150506118a5565b5060008090505b828110156119195761190c8282815181106118ff57fe5b6020026020010151610fe5565b80806001019150506118e8565b505050565b60008111611977576040517f08c379a00000000000000000000000000000000000000000000000000000000081526004018080602001828103825260418152602001806154b96041913960600191505060405180910390fd5b6119908260405180602001604052806000815250614784565b156119e6576040517f08c379a00000000000000000000000000000000000000000000000000000000081526004018080602001828103825260508152602001806159ea6050913960600191505060405180910390fd5b8273ffffffffffffffffffffffffffffffffffffffff163373ffffffffffffffffffffffffffffffffffffffff161415611a6b576040517f08c379a000000000000000000000000000000000000000000000000000000000815260040180806020018281038252603b815260200180615a3a603b913960400191505060405180910390fd5b600660008473ffffffffffffffffffffffffffffffffffffffff1673ffffffffffffffffffffffffffffffffffffffff16815260200190815260200160002060009054906101000a900460ff16611b0d576040517f08c379a00000000000000000000000000000000000000000000000000000000081526004018080602001828103825260308152602001806159356030913960400191505060405180910390fd5b6060611b19338461404e565b90506003816040518082805190602001908083835b60208310611b515780518252602082019150602081019050602083039250611b2e565b6001836020036101000a038019825116818451168082178552505050505050905001915050908152602001604051809103902060009054906101000a900460ff16611be7576040517f08c379a000000000000000000000000000000000000000000000000000000000815260040180806020018281038252604a815260200180615605604a913960600191505060405180910390fd5b60006001826040518082805190602001908083835b60208310611c1f5780518252602082019150602081019050602083039250611bfc565b6001836020036101000a03801982511681845116808217855250505050505090500191505090815260200160405180910390205411611ca9576040517f08c379a000000000000000000000000000000000000000000000000000000000815260040180806020018281038252604f8152602001806158e6604f913960600191505060405180910390fd5b816001826040518082805190602001908083835b60208310611ce05780518252602082019150602081019050602083039250611cbd565b6001836020036101000a0380198251168184511680821785525050505050509050019150509081526020016040518091039020541015611d6b576040517f08c379a00000000000000000000000000000000000000000000000000000000081526004018080602001828103825260938152602001806157cb6093913960a00191505060405180910390fd5b600080826040518082805190602001908083835b60208310611da25780518252602082019150602081019050602083039250611d7f565b6001836020036101000a03801982511681845116808217855250505050505090500191505090815260200160405180910390205411611e2c576040517f08c379a000000000000000000000000000000000000000000000000000000000815260040180806020018281038252605d81526020018061598d605d913960600191505060405180910390fd5b6000611ea16000836040518082805190602001908083835b60208310611e675780518252602082019150602081019050602083039250611e44565b6001836020036101000a03801982511681845116808217855250505050505090500191505090815260200160405180910390205484614873565b905080341015611efc576040517f08c379a0000000000000000000000000000000000000000000000000000000008152600401808060200182810382526047815260200180615ab26047913960600191505060405180910390fd5b611f6f6001836040518082805190602001908083835b60208310611f355780518252602082019150602081019050602083039250611f12565b6001836020036101000a038019825116818451168082178552505050505050905001915050908152602001604051809103902054846141a6565b6001836040518082805190602001908083835b60208310611fa55780518252602082019150602081019050602083039250611f82565b6001836020036101000a0380198251168184511680821785525050505050509050019150509081526020016040518091039020819055503373ffffffffffffffffffffffffffffffffffffffff166108fc8234039081150290604051600060405180830381858888f19350505050158015612024573d6000803e3d6000fd5b508473ffffffffffffffffffffffffffffffffffffffff166108fc829081150290604051600060405180830381858888f1935050505015801561206b573d6000803e3d6000fd5b505050505050565b60006060612081848461404e565b90506001816040518082805190602001908083835b602083106120b95780518252602082019150602081019050602083039250612096565b6001836020036101000a03801982511681845116808217855250505050505090500191505090815260200160405180910390205491505092915050565b6000811161214f576040517f08c379a00000000000000000000000000000000000000000000000000000000081526004018080602001828103825260418152602001806154b96041913960600191505060405180910390fd5b6121688360405180602001604052806000815250614784565b156121be576040517f08c379a00000000000000000000000000000000000000000000000000000000081526004018080602001828103825260508152602001806159ea6050913960600191505060405180910390fd5b6121d78260405180602001604052806000815250614784565b1561222d576040517f08c379a000000000000000000000000000000000000000000000000000000000815260040180806020018281038252605481526020018061553f6054913960600191505060405180910390fd5b600660008673ffffffffffffffffffffffffffffffffffffffff1673ffffffffffffffffffffffffffffffffffffffff16815260200190815260200160002060009054906101000a900460ff166122cf576040517f08c379a00000000000000000000000000000000000000000000000000000000081526004018080602001828103825260308152602001806159356030913960400191505060405180910390fd5b60606122db338561404e565b90506003816040518082805190602001908083835b6020831061231357805182526020820191506020810190506020830392506122f0565b6001836020036101000a038019825116818451168082178552505050505050905001915050908152602001604051809103902060009054906101000a900460ff166123a9576040517f08c379a000000000000000000000000000000000000000000000000000000000815260040180806020018281038252604a815260200180615605604a913960600191505060405180910390fd5b60006001826040518082805190602001908083835b602083106123e157805182526020820191506020810190506020830392506123be565b6001836020036101000a0380198251168184511680821785525050505050509050019150509081526020016040518091039020541161246b576040517f08c379a000000000000000000000000000000000000000000000000000000000815260040180806020018281038252604f8152602001806158e6604f913960600191505060405180910390fd5b816001826040518082805190602001908083835b602083106124a2578051825260208201915060208101905060208303925061247f565b6001836020036101000a038019825116818451168082178552505050505050905001915050908152602001604051809103902054101561252d576040517f08c379a00000000000000000000000000000000000000000000000000000000081526004018080602001828103825260938152602001806157cb6093913960a00191505060405180910390fd5b600080826040518082805190602001908083835b602083106125645780518252602082019150602081019050602083039250612541565b6001836020036101000a038019825116818451168082178552505050505050905001915050908152602001604051809103902054116125ee576040517f08c379a000000000000000000000000000000000000000000000000000000000815260040180806020018281038252605d81526020018061598d605d913960600191505060405180910390fd5b60006126636000836040518082805190602001908083835b602083106126295780518252602082019150602081019050602083039250612606565b6001836020036101000a03801982511681845116808217855250505050505090500191505090815260200160405180910390205484614873565b9050803410156126be576040517f08c379a000000000000000000000000000000000000000000000000000000000815260040180806020018281038252604b81526020018061589b604b913960600191505060405180910390fd5b8673ffffffffffffffffffffffffffffffffffffffff163373ffffffffffffffffffffffffffffffffffffffff161415612743576040517f08c379a000000000000000000000000000000000000000000000000000000000815260040180806020018281038252603b815260200180615a3a603b913960400191505060405180910390fd5b8573ffffffffffffffffffffffffffffffffffffffff163373ffffffffffffffffffffffffffffffffffffffff1614156127c8576040517f08c379a000000000000000000000000000000000000000000000000000000000815260040180806020018281038252603d815260200180615a75603d913960400191505060405180910390fd5b8573ffffffffffffffffffffffffffffffffffffffff168773ffffffffffffffffffffffffffffffffffffffff16141561284d576040517f08c379a000000000000000000000000000000000000000000000000000000000815260040180806020018281038252603e815260200180615b43603e913960400191505060405180910390fd5b600a60009054906101000a900473ffffffffffffffffffffffffffffffffffffffff1673ffffffffffffffffffffffffffffffffffffffff1663c63b7eb433898988866040518663ffffffff1660e01b8152600401808673ffffffffffffffffffffffffffffffffffffffff1673ffffffffffffffffffffffffffffffffffffffff1681526020018573ffffffffffffffffffffffffffffffffffffffff1673ffffffffffffffffffffffffffffffffffffffff1681526020018473ffffffffffffffffffffffffffffffffffffffff1673ffffffffffffffffffffffffffffffffffffffff16815260200180602001838152602001828103825284818151815260200191508051906020019080838360005b8381101561297b578082015181840152602081019050612960565b50505050905090810190601f1680156129a85780820380516001836020036101000a031916815260200191505b509650505050505050600060405180830381600087803b1580156129cb57600080fd5b505af11580156129df573d6000803e3d6000fd5b50505050612a566001836040518082805190602001908083835b60208310612a1c57805182526020820191506020810190506020830392506129f9565b6001836020036101000a038019825116818451168082178552505050505050905001915050908152602001604051809103902054846141a6565b6001836040518082805190602001908083835b60208310612a8c5780518252602082019150602081019050602083039250612a69565b6001836020036101000a0380198251168184511680821785525050505050509050019150509081526020016040518091039020819055503373ffffffffffffffffffffffffffffffffffffffff166108fc612ae734846141a6565b9081150290604051600060405180830381858888f19350505050158015612b12573d6000803e3d6000fd5b506000612b40600a60009054906101000a900473ffffffffffffffffffffffffffffffffffffffff16614965565b90508073ffffffffffffffffffffffffffffffffffffffff166108fc839081150290604051600060405180830381858888f19350505050158015612b88573d6000803e3d6000fd5b505050505050505050565b6000612bae8260405180602001604052806000815250614784565b15612c04576040517f08c379a000000000000000000000000000000000000000000000000000000000815260040180806020018281038252603d81526020018061585e603d913960400191505060405180910390fd5b6060612c10848461404e565b90506003816040518082805190602001908083835b60208310612c485780518252602082019150602081019050602083039250612c25565b6001836020036101000a038019825116818451168082178552505050505050905001915050908152602001604051809103902060009054906101000a900460ff16612cde576040517f08c379a000000000000000000000000000000000000000000000000000000000815260040180806020018281038252604a815260200180615605604a913960600191505060405180910390fd5b6000816040518082805190602001908083835b60208310612d145780518252602082019150602081019050602083039250612cf1565b6001836020036101000a03801982511681845116808217855250505050505090500191505090815260200160405180910390205491505092915050565b60006060612d5f848461404e565b90506003816040518082805190602001908083835b60208310612d975780518252602082019150602081019050602083039250612d74565b6001836020036101000a038019825116818451168082178552505050505050905001915050908152602001604051809103902060009054906101000a900460ff1691505092915050565b600080600a60009054906101000a900473ffffffffffffffffffffffffffffffffffffffff1673ffffffffffffffffffffffffffffffffffffffff1663c128f2086040518163ffffffff1660e01b815260040160206040518083038186803b158015612e4c57600080fd5b505afa158015612e60573d6000803e3d6000fd5b505050506040513d6020811015612e7657600080fd5b810190808051906020019092919050505090503073ffffffffffffffffffffffffffffffffffffffff168173ffffffffffffffffffffffffffffffffffffffff1614604051602001808061571e605791396057018061564f60809139608001905060405160208183030381529060405290612f8c576040517f08c379a00000000000000000000000000000000000000000000000000000000081526004018080602001828103825283818151815260200191508051906020019080838360005b83811015612f51578082015181840152602081019050612f36565b50505050905090810190601f168015612f7e5780820380516001836020036101000a031916815260200191505b509250505060405180910390fd5b508091505090565b600a60009054906101000a900473ffffffffffffffffffffffffffffffffffffffff1681565b612fd38260405180602001604052806000815250614784565b15613029576040517f08c379a00000000000000000000000000000000000000000000000000000000081526004018080602001828103825260458152602001806154fa6045913960600191505060405180910390fd5b6060613035338461404e565b90506003816040518082805190602001908083835b6020831061306d578051825260208201915060208101905060208303925061304a565b6001836020036101000a038019825116818451168082178552505050505050905001915050908152602001604051809103902060009054906101000a900460ff16613103576040517f08c379a000000000000000000000000000000000000000000000000000000000815260040180806020018281038252604f8152602001806156cf604f913960600191505060405180910390fd5b816000826040518082805190602001908083835b6020831061313a5780518252602082019150602081019050602083039250613117565b6001836020036101000a038019825116818451168082178552505050505050905001915050908152602001604051809103902081905550505050565b6060600460008473ffffffffffffffffffffffffffffffffffffffff1673ffffffffffffffffffffffffffffffffffffffff1681526020019081526020016000205482106131d557604051806020016040528060008152509050613373565b6000600260008573ffffffffffffffffffffffffffffffffffffffff1673ffffffffffffffffffffffffffffffffffffffff1681526020019081526020016000209050600080905060606040518060200160405280600081525090505b60011561336c5782816040518082805190602001908083835b6020831061326e578051825260208201915060208101905060208303925061324b565b6001836020036101000a0380198251168184511680821785525050505050509050019150509081526020016040518091039020600060011515151581526020019081526020016000208054600181600116156101000203166002900480601f01602080910402602001604051908101604052809291908181526020018280546001816001161561010002031660029004801561334b5780601f106133205761010080835404028352916020019161334b565b820191906000526020600020905b81548152906001019060200180831161332e57829003601f168201915b505050505090508482141561335f5761336c565b8180600101925050613232565b8093505050505b92915050565b6133928260405180602001604052806000815250614784565b156133e8576040517f08c379a00000000000000000000000000000000000000000000000000000000081526004018080602001828103825260458152602001806154fa6045913960600191505060405180910390fd5b60606133f4338461404e565b90506003816040518082805190602001908083835b6020831061342c5780518252602082019150602081019050602083039250613409565b6001836020036101000a038019825116818451168082178552505050505050905001915050908152602001604051809103902060009054906101000a900460ff166134c2576040517f08c379a000000000000000000000000000000000000000000000000000000000815260040180806020018281038252604e815260200180615b81604e913960600191505060405180910390fd5b816001826040518082805190602001908083835b602083106134f957805182526020820191506020810190506020830392506134d6565b6001836020036101000a038019825116818451168082178552505050505050905001915050908152602001604051809103902081905550505050565b60006007548210613591576040517f08c379a00000000000000000000000000000000000000000000000000000000081526004018080602001828103825260728152602001806155936072913960800191505060405180910390fd5b600080905060606040518060200160405280600081525090505b6001156136e6576005816040518082805190602001908083835b602083106135e857805182526020820191506020810190506020830392506135c5565b6001836020036101000a0380198251168184511680821785525050505050509050019150509081526020016040518091039020600060011515151581526020019081526020016000208054600181600116156101000203166002900480601f0160208091040260200160405190810160405280929190818152602001828054600181600116156101000203166002900480156136c55780601f1061369a576101008083540402835291602001916136c5565b820191906000526020600020905b8154815290600101906020018083116136a857829003601f168201915b50505050509050838214156136d9576136e6565b81806001019250506135ab565b6136ef81614974565b92505050919050565b6000600a60009054906101000a900473ffffffffffffffffffffffffffffffffffffffff16905090565b6000600660008373ffffffffffffffffffffffffffffffffffffffff1673ffffffffffffffffffffffffffffffffffffffff16815260200190815260200160002060009054906101000a900460ff169050919050565b6000600460003373ffffffffffffffffffffffffffffffffffffffff1673ffffffffffffffffffffffffffffffffffffffff1681526020019081526020016000205411613810576040517f08c379a00000000000000000000000000000000000000000000000000000000081526004018080602001828103825260568152602001806157756056913960600191505060405180910390fd5b6138298160405180602001604052806000815250614784565b1561387f576040517f08c379a000000000000000000000000000000000000000000000000000000000815260040180806020018281038252604a815260200180615af9604a913960600191505060405180910390fd5b80600860003373ffffffffffffffffffffffffffffffffffffffff1673ffffffffffffffffffffffffffffffffffffffff16815260200190815260200160002090805190602001906138d2929190615413565b5050565b6000600960008373ffffffffffffffffffffffffffffffffffffffff1673ffffffffffffffffffffffffffffffffffffffff16815260200190815260200160002060009054906101000a900460ff169050919050565b600660003373ffffffffffffffffffffffffffffffffffffffff1673ffffffffffffffffffffffffffffffffffffffff16815260200190815260200160002060009054906101000a900460ff16613982576139da565b80600960003373ffffffffffffffffffffffffffffffffffffffff1673ffffffffffffffffffffffffffffffffffffffff16815260200190815260200160002060006101000a81548160ff0219169083151502179055505b50565b6000600460008373ffffffffffffffffffffffffffffffffffffffff1673ffffffffffffffffffffffffffffffffffffffff168152602001908152602001600020549050919050565b6000600a60009054906101000a900473ffffffffffffffffffffffffffffffffffffffff16905090565b6000600754905090565b613a738160405180602001604052806000815250614784565b15613ac9576040517f08c379a00000000000000000000000000000000000000000000000000000000081526004018080602001828103825260458152602001806154fa6045913960600191505060405180910390fd5b6060613ad5338361404e565b90506003816040518082805190602001908083835b60208310613b0d5780518252602082019150602081019050602083039250613aea565b6001836020036101000a038019825116818451168082178552505050505050905001915050908152602001604051809103902060009054906101000a900460ff1615613b59575061404b565b6000600260003373ffffffffffffffffffffffffffffffffffffffff1673ffffffffffffffffffffffffffffffffffffffff16815260200190815260200160002090506040518060200160405280600081525081846040518082805190602001908083835b60208310613be15780518252602082019150602081019050602083039250613bbe565b6001836020036101000a03801982511681845116808217855250505050505090500191505090815260200160405180910390206000801515151581526020019081526020016000209080519060200190613c3c929190615413565b5080604051806020016040528060008152506040518082805190602001908083835b60208310613c815780518252602082019150602081019050602083039250613c5e565b6001836020036101000a03801982511681845116808217855250505050505090500191505090815260200160405180910390206000600115151515815260200190815260200160002081846040518082805190602001908083835b60208310613cff5780518252602082019150602081019050602083039250613cdc565b6001836020036101000a0380198251168184511680821785525050505050509050019150509081526020016040518091039020600060011515151581526020019081526020016000209080546001816001161561010002031660029004613d67929190615344565b50828182604051806020016040528060008152506040518082805190602001908083835b60208310613dae5780518252602082019150602081019050602083039250613d8b565b6001836020036101000a0380198251168184511680821785525050505050509050019150509081526020016040518091039020600060011515151581526020019081526020016000206040518082805460018160011615610100020316600290048015613e525780601f10613e30576101008083540402835291820191613e52565b820191906000526020600020905b815481529060010190602001808311613e3e575b505091505090815260200160405180910390206000801515151581526020019081526020016000209080519060200190613e8d929190615413565b508281604051806020016040528060008152506040518082805190602001908083835b60208310613ed35780518252602082019150602081019050602083039250613eb0565b6001836020036101000a0380198251168184511680821785525050505050509050019150509081526020016040518091039020600060011515151581526020019081526020016000209080519060200190613f2f929190615413565b50613f7a600460003373ffffffffffffffffffffffffffffffffffffffff1673ffffffffffffffffffffffffffffffffffffffff168152602001908152602001600020546001614bcd565b600460003373ffffffffffffffffffffffffffffffffffffffff1673ffffffffffffffffffffffffffffffffffffffff1681526020019081526020016000208190555060016003836040518082805190602001908083835b60208310613ff55780518252602082019150602081019050602083039250613fd2565b6001836020036101000a038019825116818451168082178552505050505050905001915050908152602001604051809103902060006101000a81548160ff02191690831515021790555061404833614c55565b50505b50565b6060614059836150c3565b6040518060400160405280600181526020017f5f00000000000000000000000000000000000000000000000000000000000000815250836040516020018084805190602001908083835b602083106140c657805182526020820191506020810190506020830392506140a3565b6001836020036101000a03801982511681845116808217855250505050505090500183805190602001908083835b6020831061411757805182526020820191506020810190506020830392506140f4565b6001836020036101000a03801982511681845116808217855250505050505090500182805190602001908083835b602083106141685780518252602082019150602081019050602083039250614145565b6001836020036101000a0380198251168184511680821785525050505050509050019350505050604051602081830303815290604052905092915050565b600082821115614201576040517f08c379a00000000000000000000000000000000000000000000000000000000081526004018080602001828103825260288152602001806159656028913960400191505060405180910390fd5b600082840390508091505092915050565b606061421d826150c3565b9050600660008373ffffffffffffffffffffffffffffffffffffffff1673ffffffffffffffffffffffffffffffffffffffff16815260200190815260200160002060009054906101000a900460ff166142765750614781565b6005816040518082805190602001908083835b602083106142ac5780518252602082019150602081019050602083039250614289565b6001836020036101000a038019825116818451168082178552505050505050905001915050908152602001604051809103902060006001151515158152602001908152602001600020600580836040518082805190602001908083835b6020831061432c5780518252602082019150602081019050602083039250614309565b6001836020036101000a038019825116818451168082178552505050505050905001915050908152602001604051809103902060008015151515815260200190815260200160002060405180828054600181600116156101000203166002900480156143cf5780601f106143ad5761010080835404028352918201916143cf565b820191906000526020600020905b8154815290600101906020018083116143bb575b50509150509081526020016040518091039020600060011515151581526020019081526020016000209080546001816001161561010002031660029004614417929190615344565b506005816040518082805190602001908083835b6020831061444e578051825260208201915060208101905060208303925061442b565b6001836020036101000a0380198251168184511680821785525050505050509050019150509081526020016040518091039020600080151515158152602001908152602001600020600580836040518082805190602001908083835b602083106144cd57805182526020820191506020810190506020830392506144aa565b6001836020036101000a03801982511681845116808217855250505050505090500191505090815260200160405180910390206000600115151515815260200190815260200160002060405180828054600181600116156101000203166002900480156145715780601f1061454f576101008083540402835291820191614571565b820191906000526020600020905b81548152906001019060200180831161455d575b5050915050908152602001604051809103902060008015151515815260200190815260200160002090805460018160011615610100020316600290046145b8929190615344565b506005816040518082805190602001908083835b602083106145ef57805182526020820191506020810190506020830392506145cc565b6001836020036101000a0380198251168184511680821785525050505050509050019150509081526020016040518091039020600080151515158152602001908152602001600020600061464391906153cb565b6005816040518082805190602001908083835b602083106146795780518252602082019150602081019050602083039250614656565b6001836020036101000a03801982511681845116808217855250505050505090500191505090815260200160405180910390206000600115151515815260200190815260200160002060006146ce91906153cb565b6146db60075460016141a6565b600781905550600660008373ffffffffffffffffffffffffffffffffffffffff1673ffffffffffffffffffffffffffffffffffffffff16815260200190815260200160002060006101000a81549060ff0219169055600960008373ffffffffffffffffffffffffffffffffffffffff1673ffffffffffffffffffffffffffffffffffffffff16815260200190815260200160002060006101000a81549060ff0219169055505b50565b6000816040516020018082805190602001908083835b602083106147bd578051825260208201915060208101905060208303925061479a565b6001836020036101000a03801982511681845116808217855250505050505090500191505060405160208183030381529060405280519060200120836040516020018082805190602001908083835b6020831061482f578051825260208201915060208101905060208303925061480c565b6001836020036101000a0380198251168184511680821785525050505050509050019150506040516020818303038152906040528051906020012014905092915050565b6000808314806148835750600082145b15614891576000905061495f565b60008284029050828482816148a257fe5b04146148f9576040517f08c379a000000000000000000000000000000000000000000000000000000000815260040180806020018281038252602b815260200180615bcf602b913960400191505060405180910390fd5b8383828161490357fe5b041461495a576040517f08c379a000000000000000000000000000000000000000000000000000000000815260040180806020018281038252602b815260200180615bcf602b913960400191505060405180910390fd5b809150505b92915050565b60008082905080915050919050565b6000606082905060008090506000806000600290505b602a811015614bc057610100840293508481815181106149a657fe5b602001015160f81c60f81b60f81c60ff1692508460018201815181106149c857fe5b602001015160f81c60f81b60f81c60ff16915060618373ffffffffffffffffffffffffffffffffffffffff1610158015614a19575060668373ffffffffffffffffffffffffffffffffffffffff1611155b15614a2957605783039250614ac3565b60418373ffffffffffffffffffffffffffffffffffffffff1610158015614a67575060468373ffffffffffffffffffffffffffffffffffffffff1611155b15614a7757603783039250614ac2565b60308373ffffffffffffffffffffffffffffffffffffffff1610158015614ab5575060398373ffffffffffffffffffffffffffffffffffffffff1611155b15614ac1576030830392505b5b5b60618273ffffffffffffffffffffffffffffffffffffffff1610158015614b01575060668273ffffffffffffffffffffffffffffffffffffffff1611155b15614b1157605782039150614bab565b60418273ffffffffffffffffffffffffffffffffffffffff1610158015614b4f575060468273ffffffffffffffffffffffffffffffffffffffff1611155b15614b5f57603782039150614baa565b60308273ffffffffffffffffffffffffffffffffffffffff1610158015614b9d575060398273ffffffffffffffffffffffffffffffffffffffff1611155b15614ba9576030820391505b5b5b8160108402018401935060028101905061498a565b5082945050505050919050565b600080828401905083811015614c4b576040517f08c379a00000000000000000000000000000000000000000000000000000000081526004018080602001828103825260208152602001807f5f736166654d617468416464203a204164646974696f6e204f766572666c6f7781525060200191505060405180910390fd5b8091505092915050565b6060614c60826150c3565b9050600660008373ffffffffffffffffffffffffffffffffffffffff1673ffffffffffffffffffffffffffffffffffffffff16815260200190815260200160002060009054906101000a900460ff1615614cba57506150c0565b604051806020016040528060008152506005826040518082805190602001908083835b60208310614d005780518252602082019150602081019050602083039250614cdd565b6001836020036101000a03801982511681845116808217855250505050505090500191505090815260200160405180910390206000801515151581526020019081526020016000209080519060200190614d5b929190615413565b506005604051806020016040528060008152506040518082805190602001908083835b60208310614da15780518252602082019150602081019050602083039250614d7e565b6001836020036101000a0380198251168184511680821785525050505050509050019150509081526020016040518091039020600060011515151581526020019081526020016000206005826040518082805190602001908083835b60208310614e205780518252602082019150602081019050602083039250614dfd565b6001836020036101000a0380198251168184511680821785525050505050509050019150509081526020016040518091039020600060011515151581526020019081526020016000209080546001816001161561010002031660029004614e88929190615344565b5080600580604051806020016040528060008152506040518082805190602001908083835b60208310614ed05780518252602082019150602081019050602083039250614ead565b6001836020036101000a0380198251168184511680821785525050505050509050019150509081526020016040518091039020600060011515151581526020019081526020016000206040518082805460018160011615610100020316600290048015614f745780601f10614f52576101008083540402835291820191614f74565b820191906000526020600020905b815481529060010190602001808311614f60575b505091505090815260200160405180910390206000801515151581526020019081526020016000209080519060200190614faf929190615413565b50806005604051806020016040528060008152506040518082805190602001908083835b60208310614ff65780518252602082019150602081019050602083039250614fd3565b6001836020036101000a0380198251168184511680821785525050505050509050019150509081526020016040518091039020600060011515151581526020019081526020016000209080519060200190615052929190615413565b506150606007546001614bcd565b6007819055506001600660008473ffffffffffffffffffffffffffffffffffffffff1673ffffffffffffffffffffffffffffffffffffffff16815260200190815260200160002060006101000a81548160ff021916908315150217905550505b50565b606060008273ffffffffffffffffffffffffffffffffffffffff1660001b905060606040518060400160405280601081526020017f303132333435363738396162636465660000000000000000000000000000000081525090506060602a6040519080825280601f01601f1916602001820160405280156151535781602001600182028038833980820191505090505b5090507f30000000000000000000000000000000000000000000000000000000000000008160008151811061518457fe5b60200101907effffffffffffffffffffffffffffffffffffffffffffffffffffffffffffff1916908160001a9053507f7800000000000000000000000000000000000000000000000000000000000000816001815181106151e157fe5b60200101907effffffffffffffffffffffffffffffffffffffffffffffffffffffffffffff1916908160001a90535060008090505b60148110156153385782600485600c84016020811061523157fe5b1a60f81b7effffffffffffffffffffffffffffffffffffffffffffffffffffffffffffff1916901c60f81c60ff168151811061526957fe5b602001015160f81c60f81b82600283026002018151811061528657fe5b60200101907effffffffffffffffffffffffffffffffffffffffffffffffffffffffffffff1916908160001a90535082600f60f81b85600c8401602081106152ca57fe5b1a60f81b1660f81c60ff16815181106152df57fe5b602001015160f81c60f81b8260028302600301815181106152fc57fe5b60200101907effffffffffffffffffffffffffffffffffffffffffffffffffffffffffffff1916908160001a9053508080600101915050615216565b50809350505050919050565b828054600181600116156101000203166002900490600052602060002090601f016020900481019282601f1061537d57805485556153ba565b828001600101855582156153ba57600052602060002091601f016020900482015b828111156153b957825482559160010191906001019061539e565b5b5090506153c79190615493565b5090565b50805460018160011615610100020316600290046000825580601f106153f15750615410565b601f01602090049060005260206000209081019061540f9190615493565b5b50565b828054600181600116156101000203166002900490600052602060002090601f016020900481019282601f1061545457805160ff1916838001178555615482565b82800160010185558215615482579182015b82811115615481578251825591602001919060010190615466565b5b50905061548f9190615493565b5090565b6154b591905b808211156154b1576000816000905550600101615499565b5090565b9056fe4d757374207075726368617365206174206c656173742031207175616e74697479206f6620746865204974656d20666f722053616c6520746f2068617070656e2143616e6e6f74206861766520616e20656d70747920537472696e6720666f722074686520495046532048617368204b6579206f6620616e204974656d20746f2053656c6c2143616e6e6f74206861766520616e20656d70747920537472696e6720666f722074686520495046532048617368204b6579206f6620746865204d656469617465642053616c6573205472616e73616374696f6e21496e6465782076616c756520676976656e2069732067726561746572207468616e206f7220657175616c20746f20746865204e756d626572206f662053656c6c657273212049742073686f756c64206265206c657373207468616e20746865204e756d626572206f662053656c6c65727321476976656e20495046532048617368206f66204974656d206973206e6f74206c697374656420617320616e204974656d20466f722053616c652066726f6d207468652053656c6c6572214672616e6b6c696e446563656e7472616c697a65644d61726b6574706c61636520436f6e7472616374207265666572656e636573206973204e4f54206f776e6564206f72206465706c6f7965642062792054484953204672616e6b6c696e446563656e7472616c697a65644d61726b6574706c61636520436f6e747261637421476976656e20495046532048617368206f66204974656d206973206e6f74206c697374656420617320616e204974656d20466f722053616c6520666f7220796f75202d207468652053656c6c657221536f6d657468696e6720686f727269626c792077726f6e6721204672616e6b6c696e446563656e7472616c697a65644d61726b6574706c6163654d6564696174696f6e20436f6e74726163742074686174207468697320596f75206d75737420666972737420616464206174206c65617374204f4e45204974656d20466f722053616c65206265666f726520616464696e672061206465736372697074696f6e206f6620796f757273656c66215175616e7469747920617661696c61626c6520466f722053616c65206f6620746865204974656d2066726f6d207468652053656c6c6572206973206c657373207468616e20746865207175616e746974792072657175657374656420746f20707572636861736521204e6f7420656e6f756768206f6620746865204974656e6d20617661696c61626c6520466f722053616c6543616e6e6f74206861766520616e20656d70747920537472696e6720666f722074686520495046532048617368204b6579206f6620616e204974656d214e6f7420656e6f756768204554482f574549207761732073656e7420746f20707572636861736520746865207175616e7469747920726571756573746564206f6620746865204974656d2153656c6c657220686173205a65726f207175616e7469747920617661696c61626c6520666f722053616c6520666f7220746865204974656d2072657175657374656420746f20707572636861736521476976656e2053656c6c6572204164647265737320646f6573206e6f7420657869737420617320612053656c6c6572215f736166654d6174685375627472616374203a205375627472616374696f6e204f766572666c6f775468652053656c6c657220686173206e6f742079657420736574206120507269636520666f722053616c6520666f722074686520726571756573746564204974656d212043616e6e6f7420707572636861736520746865204974656d2143616e6e6f74206861766520616e20656d70747920537472696e6720666f722074686520495046532048617368204b6579206f6620616e204974656d20796f75206172652070757263686173696e672154686520427579657220416464726573732063616e6e6f74206265207468652073616d65206173207468652053656c6c657220416464726573732154686520427579657220416464726573732063616e6e6f74206265207468652073616d6520617320746865204d65646961746f722041646472657373214e6f7420656e6f75676820455448207761732073656e7420746f20707572636861736520746865207175616e7469747920726571756573746564206f6620746865204974656d2143616e6e6f74206861766520616e20656d70747920537472696e6720666f722074686520495046532048617368204b6579204465736372697074696f6e206f6620612053656c6c6572215468652053656c6c657220416464726573732063616e6e6f74206265207468652073616d6520617320746865204d65646961746f72204164647265737321476976656e20495046532048617368206f66204974656d206973206e6f74206c697374656420617320616e204974656d20466f722053616c6520627920796f75202d207468652053656c6c6572215f736166654d6174684d756c7469706c79203a204d756c7469706c69636174696f6e204f766572666c6f77a165627a7a7230582067be6d96437ca16cb142ff1240fb7c50ed14b71ab3d2525e1d5bb134dccffbd20029",
  "source": "pragma solidity >=0.4.22 <0.6.0;\r\n\r\nimport \"./GeneralUtilities.sol\";\r\nimport \"./FranklinDecentralizedMarketplaceMediation.sol\";\r\n\r\ncontract FranklinDecentralizedMarketplace {\r\n    using GeneralUtilities for *;\r\n    \r\n    // This Smart Contract serves as a Decentralized Marketplace of Buyers, Sellers, and Mediators. \r\n\r\n    // The Contract code had to be split in two, because the Etherum Virtual Machine (EVM) would not allow deployment of a Contract\r\n    // that has more than 24576 bytes. So, the decision was made to SPLIT the code into the FranklinDecentralizedMarketplace \r\n    // and FranklinDecentralizedMarketplaceMediation Contracts where the FranklinDecentralizedMarketplace would deploy the\r\n    // FranklinDecentralizedMarketplaceMediation Contract via it's Constructor. \r\n    //\r\n    // So, this FranklinDecentralizedMarketplace Contract handles most of the functionality pertaining to the Franklin Decentralized Marketplace Smart Contract functionality, while MOST of the\r\n    // functionality dealing with Mediated Sales Transactions is done by the FranklinDecentralizedMarketplaceMediation Smart Contract. All the public methods - with the exception of \r\n    // the \"getOnlyAddressThatMayAccessThisContract\" method - of the FranklinDecentralizedMarketplaceMediation may ONLY be accessed by this FranklinDecentralizedMarketplace Contract.\r\n    // Accessing of a public method of the FranklinDecentralizedMarketplaceMediation Contract is done via an equivalent Proxy method in this FranklinDecentralizedMarketplace Contract, thus \r\n    // simplifying the interaction with the Franklin Decentralized Marketplace Smart Contract functionality with the public.\r\n    \r\n    // Each Item being sold in this Decentralized Marketplace is identified by it's IPFS (InterPlanetary File System) Hash. Information about each item being sold is in a JSON-formatted\r\n    // string stored in the IPFS (InterPlanetary File System) that may be accessed via the Infura IPFS Gateway URL. So, for example, let's say that an Item being sold by a Seller has an\r\n    // IPFS Hash of QmZ4DZ1spT2eQhUC5mfQGugM4AhLjq8ZvuZvHdQvnvKnHH. Then, the information about this Item may be seen in one of the following URLs:\r\n    // 1) https://ipfs.infura.io/ipfs/QmZ4DZ1spT2eQhUC5mfQGugM4AhLjq8ZvuZvHdQvnvKnHH\r\n    // 2) https://gateway.ipfs.io/ipfs/QmZ4DZ1spT2eQhUC5mfQGugM4AhLjq8ZvuZvHdQvnvKnH\r\n    \r\n    // Each Seller in this Decentralized Marketplace is identified by it's Ethereum Address, but should also have information about himself/herself that is in the \r\n    // IPFS (InterPlanetary File System) Hash. Information about each Seller is in a JSON-formatted\r\n    // string stored in the IPFS (InterPlanetary File System) that may be accessed via the Infura IPFS Gateway URL. So, for example, let's say that Seller has an\r\n    // IPFS Hash of QmZ4DZ1spT2eQhUC5mfQGugM4AhLjq8ZvuZvHdQvnvKnHH describing himself/herself. Then, the information about this Seller may be seen in one of the following URLs:\r\n    // 1) https://ipfs.infura.io/ipfs/QmZ4DZ1spT2eQhUC5mfQGugM4AhLjq8ZvuZvHdQvnvKnHH\r\n    // 2) https://gateway.ipfs.io/ipfs/QmZ4DZ1spT2eQhUC5mfQGugM4AhLjq8ZvuZvHdQvnvKnHH\r\n    \r\n    // Each Mediator in this Decentralized Marketplace is identified by it's Ethereum Address, but should also have information about himself/herself that is accessed  \r\n    // in the IPFS Stoarge Systemn via it's IPFS (InterPlanetary File System) Hash string key.\r\n    // Each Mediator in this Decentralized Marketplace is also identified by it's IPFS (InterPlanetary File System) Hash. Information about each Mediator is in a JSON-formatted\r\n    // string stored in the IPFS (InterPlanetary File System) that may be accessed via the Infura IPFS Gateway URL. So, for example, let's say that the Mediator has an\r\n    // IPFS Hash of QmZ4DZ1spT2eQhUC5mfQGugM4AhLjq8ZvuZvHdQvnvKnHH. Then, the information about this Mediator may be seen in one of the following URLs:\r\n    // 1) https://ipfs.infura.io/ipfs/QmZ4DZ1spT2eQhUC5mfQGugM4AhLjq8ZvuZvHdQvnvKnHH\r\n    // 2) https://gateway.ipfs.io/ipfs/QmZ4DZ1spT2eQhUC5mfQGugM4AhLjq8ZvuZvHdQvnvKnH\r\n    \r\n    // Each Mediated Sales Transaction in this Decentralized Marketplace is identified by it's IPFS (InterPlanetary File System) Hash. Information about each Mediated Sales Transaction \r\n    // is in a JSON-formatted string stored in the IPFS (InterPlanetary File System) that may be accessed via the Infura IPFS Gateway URL. So, for example, let's say that the \r\n    // Mediated Sales Transaction has an IPFS Hash of QmZ4DZ1spT2eQhUC5mfQGugM4AhLjq8ZvuZvHdQvnvKnHH. Then, the information about this Mediated Sales Transaction may be seen in one of \r\n    // the following URLs:\r\n    // 1) https://ipfs.infura.io/ipfs/QmZ4DZ1spT2eQhUC5mfQGugM4AhLjq8ZvuZvHdQvnvKnHH\r\n    // 2) https://gateway.ipfs.io/ipfs/QmZ4DZ1spT2eQhUC5mfQGugM4AhLjq8ZvuZvHdQvnvKnH\r\n    \r\n    // WARNING! Befor a Seller places infomation about himself/herself in this Smart Contract, the Seller must first have at least one Item placed For Sale.\r\n    \r\n    // WARNING!! It is the responsibility of the Users of this Smart Contract to enter valid IPFS Hash String values for each of the Items Sold and of the Seller's Description!\r\n    \r\n    // Constants used for the Double-Linked list and other uses.\r\n    bool constant private PREV = false;\r\n    bool constant private NEXT = true;\r\n    string constant private EMPTY_STRING = \"\";\r\n    string constant private UNDER_SCORE_STRING = \"_\";\r\n    \r\n    // This is the price of all specific Items being sold y Sellers identified by their Ethereum Address in Wei.\r\n    // The price is on a per-Item basis for one Item.\r\n    //\r\n    // Mapping is as follows:\r\n    // 1) Key: Concatenation of Ethereum Address of Seller followed by IPFS Hash of Item being sold with an UNDER_SCORE_STRING in between.\r\n    // 2) Value: Price of item being sold in Wei.\r\n    //\r\n    // Only the Seller may change or set the price of an Item.\r\n    // The Seller is identified by an Ethereum Address.\r\n    mapping(string => uint) private pricesOfItems;\r\n    \r\n    // This is the quantity of each Item that is being sold by a Seller. Thus, for each Item that is being sold their is a certain number of such items available for sale.\r\n    // \r\n    // Mapping is as follows:\r\n    // 1) Key: Concatenation of Ethereum Address of Seller followed by IPFS Hash of Item being sold with an UNDER_SCORE_STRING in between.\r\n    // 2) Value: Quanity available to be sold for the Item.\r\n    //\r\n    // Only the Seller may change or set the quantity of the item that is available for sale..\r\n    // The Seller is identified by an Ethereum Address.\r\n    mapping(string => uint) private quantityAvailableForSaleOfEachItem; \r\n    \r\n    // This is all the Items being sold on a per-seller basis where each seller is identified by it's Ethereum Address. The \"mapping(string => mapping(bool => string))\" is a\r\n    // double-linked list used to maintain such a list of Items for a seller. The reason for using a double-linked list over an array is that it's difficult to delete items of an array\r\n    // and still map back the Item to the Seller; use of arrays to maintain a dynamic list leads to having the array grow forever. Use of below technique solves this problem via use of \"delete\"\r\n    // on a \"mapping\" where such a resource does get deleted. Use of Double-Linked list technique explained and code borrowed from the \r\n    // https://ethereum.stackexchange.com/questions/15337/can-we-get-all-elements-stored-in-a-mapping-in-the-contract web page.\r\n    //\r\n    // For an explanation as to how the \"mapping(string => mapping(bool => string))\" double linked-list works and the code pertaining to it from which was borrowed, please go to the\r\n    // https://ethereum.stackexchange.com/questions/15337/can-we-get-all-elements-stored-in-a-mapping-in-the-contract web page.\r\n    //\r\n    // Mapping is as follows:\r\n    // 1) First Key: Ethereum Address of the Seller\r\n    // 2) First Value: The \"mapping(string => mapping(bool => string))\" double-linked list consisting of the IPFS Hashes of the various Items the Seller is selling. Each \"string\" in this mapping is\r\n    //    either an empty string or the IPFS Hash of an Item being sold by the Seller. The \"bool\" is either the PREV or NEXT boolean value above.\r\n    mapping(address => mapping(string => mapping(bool => string)) ) private itemsBeingSoldBySpecificSeller;\r\n    \r\n    // Used strictly to determine if an Item being sold by a Seller is in it's \"itemsBeingSoldBySpecificSeller\" double-linked list.\r\n    //\r\n    // Mapping is as follows:\r\n    // 1) Key: Concatenation of Ethereum Address of Seller followed by IPFS Hash of Item being sold with an UNDER_SCORE_STRING in between.\r\n    // 2) Value: Boolean value indicating if the Item is in the \"itemsBeingSoldBySpecificSeller\" double-linked list of the Seller.\r\n    mapping(string => bool) private itemsKeysMap;\r\n    \r\n    // Used to determine the number of Items being sold by a Seller. This is NOT the quantity being sold for each Item, but the number of different types of Items.\r\n    // It contains the number of Items in the seller's \"mapping(string => mapping(bool => string))\" double-linked list of the \"itemsBeingSoldBySpecificSeller\" mapping.\r\n    //\r\n    // Mapping is as follows:\r\n    // 1) Key: Ethereum Address of the Seller.\r\n    // 2) Value: Number of different types of Items being sold that is in the Seller's  \"mapping(string => mapping(bool => string))\" double-linked list of the \r\n    //    \"itemsBeingSoldBySpecificSeller\" mapping.\r\n    mapping(address => uint) private numberOfDifferentItemsBeingSoldBySellerMap;\r\n    \r\n    // A double-linked list that lists all the Sellers by their Ethereum Address in string format.\r\n    //\r\n    // For an explanation as to how the \"mapping(string => mapping(bool => string))\" double linked-list works and the code pertaining to it from which was borrowed, please go to the\r\n    // https://ethereum.stackexchange.com/questions/15337/can-we-get-all-elements-stored-in-a-mapping-in-the-contract web page.\r\n    //\r\n    // Each \"string\" below refers to the Ethereum Address of the Seller in string format.\r\n    mapping(string => mapping(bool => string)) private listOfSellers; \r\n    \r\n    // Map that keeps track of whether a Seller exists. The \"address\" key is the Ethereum Address of the Seller.\r\n    mapping(address => bool) private sellerExistsMap;\r\n    \r\n    // Keeps a count on the Number of Sellers selling on this platform.\r\n    uint private numberOfSellers; \r\n    \r\n    // This Mapping contains the Description Information about the Sellers. The Seller is responsible for adding this information.\r\n    // A Seller must first have in it's \"itemsBeingSoldBySpecificSeller\" double-linked list at least one Item to sell BEFORE being able to add Information about\r\n    // about himself/herself. The IPFS Hash string should refer to a JSON-formatted string describing the seller in the IPFS Storage System.\r\n    //\r\n    // Mapping is as follows:\r\n    // 1) Key: Ethereum Address of the Seller\r\n    // 2) Value: IPFS Hash string of the information pertaining to the Seller. This information is stored in the IPFS Storage Network.\r\n    mapping(address => string) private descriptionInfoAboutSellers;\r\n    \r\n    // This Mapping is used to determine if a Seller is willing to sell his/her Items via the use of a Mediator. The Mediator is used to determine that BOTH parties are BOTH satisfied with the \r\n    // Sale of the Item. One iten of contention is that the Buyer actualy got the Item he/she purchased. \r\n    // In these types of Sales involving a Mediator, two out of the three parties - Buyer, Seller, and/or Mediator - must approve the sale transaction BEFORE the ETH is sent to the Seller.\r\n    // In such cases involving a Mediator, the Buyer's ETH is not sent to the Seller, but sent to this Smart Contract. Once two out of the three parties gives the OK for the Sale, then 95% of the\r\n    // Sales Price of the Item goes to the Seller and 5% goes to the Mediator.\r\n    //\r\n    // The \"key\" is the Ethereum Seller Address and the value is a boolen. If the Seller is willing to sell via a Mediator, then this value if boolean true. \r\n    // If the Seller is NOT willing to sell via a Mediator, then this value if boolean false.\r\n    mapping(address => bool) private sellerWillingToSellItemsViaMediator;\r\n    \r\n    // Refers to the instance of the FranklinDecentralizedMarketplaceMediation Contract that was instantiated and deployed in the below \"constructor\".\r\n    //\r\n    // The Contract code had to be split in two, because the Etherum Virtual Machine (EVM) would not allow deployment of a Contract\r\n    // that has more than 24576 bytes. So, the decision was made to SPLIT the code into the FranklinDecentralizedMarketplace \r\n    // and FranklinDecentralizedMarketplaceMediation Contracts where the FranklinDecentralizedMarketplace would deploy the\r\n    // FranklinDecentralizedMarketplaceMediation Contract via it's Constructor. \r\n    //\r\n    // So, this FranklinDecentralizedMarketplace Contract handles most of the functionality pertaining to the Franklin Decentralized Marketplace Smart Contract functionality, while MOST of the\r\n    // functionality dealing with Mediated Sales Transactions is done by the FranklinDecentralizedMarketplaceMediation Smart Contract. Public method calls to the FranklinDecentralizedMarketplaceMediation\r\n    // Smart Contfact should be done by FIRST obating a \"handle\" to the \"mediationMarketplace\" via a call to the \"getFranklinDecentralizedMarketplaceMediationContract\" method and then making the appropriate \r\n    // function calss on the \"handle\".\r\n    FranklinDecentralizedMarketplaceMediation public mediationMarketplace;\r\n    \r\n    constructor() public {\r\n        // mediationMarketplace = new FranklinDecentralizedMarketplaceMediation();\r\n    }\r\n    \r\n    // Gets the Contract Owner of the FranklinDecentralizedMarketplaceMediation Contract that was instantiated and deployed by this FranklinDecentralizedMarketplace Smart Contract.\r\n    // Thus, the returned Ethereum Address should be \"address(this)\".\r\n    function getContractOwnerOfFranklinDecentralizedMarketplaceMediation() external view returns (address) {\r\n        address contractOwnerOfMediationMarketplace = mediationMarketplace.getFranklinDecentralizedMarketplaceContractAddress();\r\n        require(contractOwnerOfMediationMarketplace == address(this), \r\n            string(abi.encodePacked(\"Something horribly wrong! FranklinDecentralizedMarketplaceMediation Contract that this \", \r\n            \"FranklinDecentralizedMarketplace Contract references is NOT owned or deployed by THIS FranklinDecentralizedMarketplace Contract!\")));\r\n        return contractOwnerOfMediationMarketplace;\r\n    }\r\n    \r\n    // Gets the Contract Address of the FranklinDecentralizedMarketplaceMediation Contract that THIS FranklinDecentralizedMarketplace instantiated and deployed.\r\n    function getFranklinDecentralizedMarketplaceMediationContractAddress() external view returns (address) {\r\n        return address(mediationMarketplace);\r\n    }\r\n    \r\n    // Gets the Contract Instance/Interface of the FranklinDecentralizedMarketplaceMediation Contract that THIS FranklinDecentralizedMarketplace instantiated and deployed.\r\n    // This will be needed to be able to call the various public functions of the FranklinDecentralizedMarketplaceMediation dealinh with Mediation Sales Transactions.\r\n    function getFranklinDecentralizedMarketplaceMediationContract() external view returns (FranklinDecentralizedMarketplaceMediation) {\r\n        return mediationMarketplace;\r\n    }\r\n    \r\n    // Determines if a Seller with the given \"_sellerAddres\" is willing to make sales of it's Items via a Mediator. \r\n    // A return of boolean false indicates that the Seller is NOT willing to sell his/her items via a Mediator. \r\n    // A return of boolean true indicates that the Seller IS willing to sell his/her items via a Mediator.\r\n    function sellerIsWillingToSellItemsViaMediator(address _sellerAddress) public view returns (bool) {\r\n        return sellerWillingToSellItemsViaMediator[_sellerAddress];\r\n    }\r\n    \r\n    // This function allows a Seller to set into this Smart Contract whether he/she is willing to sell his/her Items via the use of a Mediator.\r\n    // The Seller in this function is the \"msg.sender\".\r\n    //\r\n    // A \"_flag\" value of boolean true, indicates that the Seller IS willing to make sales via a Mediator.\r\n    // A \"_flag\" value of boolean false, indicates that the Seller is NOT willing to make sales via a Mediator.\r\n    function setSellerWillingToSellItemsViaMediator(bool _flag) public {\r\n        if (!sellerExistsMap[msg.sender]) {\r\n            return;\r\n        }\r\n        \r\n        sellerWillingToSellItemsViaMediator[msg.sender] = _flag;\r\n    }\r\n    \r\n    // This method allows a Seller to add/update a Description about himself/herself feeding in the \"_ipfsHashKeyDescription\" that should point to a JSON-formatted string in the IPFS Storage System.\r\n    // The \"msg.sender\" is the Seller.\r\n    function addOrUpdateSellerDescription(string memory _ipfsHashKeyDescription) public {\r\n        require(numberOfDifferentItemsBeingSoldBySellerMap[msg.sender] > 0, \"You must first add at least ONE Item For Sale before adding a description of yourself!\");\r\n        require(!GeneralUtilities._compareStringsEqual(_ipfsHashKeyDescription, EMPTY_STRING), \"Cannot have an empty String for the IPFS Hash Key Description of a Seller!\");\r\n        \r\n        descriptionInfoAboutSellers[msg.sender] = _ipfsHashKeyDescription;\r\n    }\r\n    \r\n    // Gets the Description of a Seller identified by the given \"_sellerAddress\". The Description will be the IPFS Hash where the JSON-formatted Description of the Seller exists.\r\n    // If no such IPFS Hash Key Description exists, then an EMPTY_STRING will be returned.\r\n    function getSellerIpfsHashDescription(address _sellerAddress) public view returns (string memory) {\r\n        return descriptionInfoAboutSellers[_sellerAddress];\r\n    }\r\n    \r\n    // Adds a Seller - identified by it's Ethereum Address - to the \"listOfSellers\" double-linked list.\r\n    //\r\n    // Source --> https://ethereum.stackexchange.com/questions/15337/can-we-get-all-elements-stored-in-a-mapping-in-the-contract\r\n    function _addSeller(address _sellerAddress) private {\r\n        string memory sellerAddressStringKey = GeneralUtilities._addressToString(_sellerAddress);\r\n        \r\n        // Will not bother to check for valid \"address\", because Ethereum Virtual Machine does that for us automatically and will just throw an Error that caller of this \r\n        // method will have to catch.\r\n        \r\n        if (sellerExistsMap[_sellerAddress]) {\r\n            return;\r\n        }\r\n        \r\n        // Link the new node \r\n        listOfSellers[sellerAddressStringKey][PREV] = EMPTY_STRING;\r\n        listOfSellers[sellerAddressStringKey][NEXT] = listOfSellers[EMPTY_STRING][NEXT];\r\n    \r\n        // Insert the new node\r\n        listOfSellers[listOfSellers[EMPTY_STRING][NEXT]][PREV] = sellerAddressStringKey;\r\n        listOfSellers[EMPTY_STRING][NEXT] = sellerAddressStringKey;\r\n    \r\n        numberOfSellers = GeneralUtilities._safeMathAdd(numberOfSellers, 1);\r\n        sellerExistsMap[_sellerAddress] = true;\r\n    }\r\n    \r\n    // Removes a Seller - identified by it's Ethereum Address - from the \"listOfSellers\" double-linked list.\r\n    //\r\n    // No need to check for empty string on returned Ethereum Address string, because if the \"_sellerAddress\" is an invalid Ethereum Address, then Ethereum Virtual Machine will\r\n    // throw an Error. Caller of this method will have to check if an Error was thrown.\r\n    // \r\n    // Source --> https://ethereum.stackexchange.com/questions/15337/can-we-get-all-elements-stored-in-a-mapping-in-the-contract\r\n    function _removeSeller(address _sellerAddress) private {\r\n        string memory sellerAddressStringKey = GeneralUtilities._addressToString(_sellerAddress);\r\n        \r\n        if (!sellerExistsMap[_sellerAddress]) {\r\n            return;\r\n        }\r\n        \r\n        // Stitch the neighbours together\r\n        listOfSellers[ listOfSellers[sellerAddressStringKey][PREV] ][NEXT] = listOfSellers[sellerAddressStringKey][NEXT];\r\n        listOfSellers[ listOfSellers[sellerAddressStringKey][NEXT] ][PREV] = listOfSellers[sellerAddressStringKey][PREV];\r\n    \r\n        // Delete state storage\r\n        delete listOfSellers[sellerAddressStringKey][PREV];\r\n        delete listOfSellers[sellerAddressStringKey][NEXT];\r\n        \r\n        numberOfSellers = GeneralUtilities._safeMathSubtract(numberOfSellers, 1);\r\n        delete sellerExistsMap[_sellerAddress];\r\n        delete sellerWillingToSellItemsViaMediator[_sellerAddress];\r\n        \r\n        // Decided to NOT delete this information, because a Seller may be involved in a Mediator type of Sale, and we still wish to keep information \r\n        // about the Seller.\r\n        // delete descriptionInfoAboutSellers[_sellerAddress];\r\n    }\r\n    \r\n    // Allows a Seller to remove himself/herself from the \"listOfSellers\". The Seller to be removed is the \"msg.sender\" Ethereum Address that calls this method. \r\n    // Not only will the Seller be removed but also ALL of the Items assovciated with this \"msg.sender\" Seller.\r\n    function removeSeller() public {\r\n        uint numberOfDifferentItemsBeingSoldBySeller = numberOfDifferentItemsBeingSoldBySellerMap[msg.sender];\r\n        \r\n        // We have to first get ALL of the IPFS Key Hashes of the Items for Sale, because the Indexes will change as we delete the Items.\r\n        string[] memory itemsForSale = new string[](numberOfDifferentItemsBeingSoldBySeller);\r\n        for (uint itemIndex = 0; itemIndex < numberOfDifferentItemsBeingSoldBySeller; itemIndex++) {\r\n            string memory itemForSale = getItemForSale(msg.sender, itemIndex);\r\n            itemsForSale[itemIndex] = itemForSale;\r\n        }\r\n        \r\n        // Then we delete step-by-step.\r\n        for (uint i = 0; i < numberOfDifferentItemsBeingSoldBySeller; i++) {\r\n            removeItemForSale(itemsForSale[i]);\r\n        }\r\n        \r\n        // The Seller \"msg.sender\" will be automatically removed from the \"listOfSellers\" when the last Item it has For Sale is removed.\r\n    }\r\n    \r\n    // Gets the Seller Ethereum Address at the given \"_index\" from the \"listOfSellers\" double-linked list.\r\n    //\r\n    // Input Parameter:\r\n    // _itemIndex : Index number into the \"listOfSellers\" double-linked list of Items Seller is selling.\r\n    //              Index starts at 0.\r\n    //\r\n    // Returns:\r\n    // 1) If the \"_index\" is less than the \"numberOfSellers\", then the Etheruem Address of the Seller at the given \"_index\" into the \"listOfSellers\" double-linked list\r\n    //    is returned.\r\n    // 2) If the \"_index\" is greater than or equal to the \"numberOfSellers\", then an Exception is thrown via the \"require\" below.\r\n    function getSellerAddress(uint _index) public view returns (address) {\r\n        require(_index < numberOfSellers, \"Index value given is greater than or equal to the Number of Sellers! It should be less than the Number of Sellers!\");\r\n        \r\n        // The \"key\" below is the Ethereum Address in string format that is in the \"listOfSellers\" double-linked list.\r\n        \r\n        uint keyCount = 0;\r\n        string memory key = EMPTY_STRING;\r\n        while (true) {\r\n            key = listOfSellers[key][NEXT];\r\n            if (keyCount == _index) {\r\n                break;\r\n            }\r\n        \r\n            keyCount++;\r\n        }\r\n        \r\n        return GeneralUtilities._parseEthereumAddressStringToAddress(key);    \r\n    }\r\n    \r\n    // Returns back a boolean value to determine if the given \"_sellerAddres\" is in the \"listOfSellers\".\r\n    function sellerExists(address _sellerAddress) external view returns (bool) {\r\n        return sellerExistsMap[_sellerAddress];\r\n    }\r\n    \r\n    // Returns back the Number of Sellers in this Decentralized Marketplace.\r\n    function getNumberOfSellers() external view returns (uint) {\r\n        return numberOfSellers;\r\n    }\r\n    \r\n    // Allows a Seller to set the Price of an Item the Seller is selling in Wei. The Seller would be the \"msg.sender\" Ethereum Address that calls this method.\r\n    //\r\n    // Input Parameters:\r\n    // 1) _keyItemIpfsHash : This is the IPFS Hash of the item being sold that points to a JSON-formatted string in the IPFS Storage System.\r\n    // 2) _priceInWei : Price of the Item to be set in Wei \r\n    // 3) msg.sender : Ethereum Address of the Seller\r\n    //\r\n    // If the Seller sets the Price of the Item to Zero (i.e., 0) Wei, then that means that the Item is set to a State where it cannot be purchased.\r\n    //\r\n    // If the Item in questions does not exist as an Item for Sale under the \"msg.sender\" Seller of if the \"msg.sender\" is not a Seller, then no setting of a price \r\n    // gets done.\r\n    function setPriceOfItem(string memory _keyItemIpfsHash, uint _priceInWei) public {\r\n        require(!GeneralUtilities._compareStringsEqual(_keyItemIpfsHash, EMPTY_STRING), \"Cannot have an empty String for the IPFS Hash Key of an Item to Sell!\");\r\n        \r\n        // I was thinking of not allowing the Seller to set the Price of an Itemn to Zero wei, but then I changed my mind. The Seller may have a situation where its has \r\n        // the Item in stock, but does not wish to sell the Ite, yet.\r\n        // require(_priceInWei > 0, \"Cannot set the Price of an Item to Zero Wei!\");\r\n        \r\n        string memory combinedKeyAddressPlusItemIpfsHash = GeneralUtilities._getConcatenationOfEthereumAddressAndIpfsHash(msg.sender, _keyItemIpfsHash);\r\n        require(itemsKeysMap[combinedKeyAddressPlusItemIpfsHash], \"Given IPFS Hash of Item is not listed as an Item For Sale for you - the Seller!\");\r\n        \r\n        pricesOfItems[combinedKeyAddressPlusItemIpfsHash] = _priceInWei;\r\n    }\r\n    \r\n    // Gets the Price (in Wei) of an Item - identified by the given \"_keyItemIpfsHash\" input parameter - being sold by a \r\n    // Seller - identified by the given \"_sellerAddress\" Etherum Address.\r\n    //\r\n    // A return value of Zero (i.e., 0) Wei indicates that the Seller has not yet set a Price for this Item, and thus the Item cannot be purchased\r\n    function getPriceOfItem(address _sellerAddress, string memory _keyItemIpfsHash) public view returns (uint) {\r\n        require(!GeneralUtilities._compareStringsEqual(_keyItemIpfsHash, EMPTY_STRING), \"Cannot have an empty String for the IPFS Hash Key of an Item!\");\r\n        \r\n        string memory combinedKeyAddressPlusItemIpfsHash = GeneralUtilities._getConcatenationOfEthereumAddressAndIpfsHash(_sellerAddress, _keyItemIpfsHash);\r\n        require(itemsKeysMap[combinedKeyAddressPlusItemIpfsHash], \"Given IPFS Hash of Item is not listed as an Item For Sale from the Seller!\");\r\n        \r\n        return pricesOfItems[combinedKeyAddressPlusItemIpfsHash];\r\n    }\r\n    \r\n    // Allows a Seller to set the Quantity available for Sale of an Item that a Seller is selling. The Seller would be the \"msg.sender\" Ethereum Address that calls this method.\r\n    //\r\n    // Input Parameters:\r\n    // 1) _keyItemIpfsHash : This is the IPFS Hash of the item being sold that points to a JSON-formatted string in the IPFS Storage System.\r\n    // 2) _quantity : The quantity available For Sale of the Item that the Seller is selling.   \r\n    // 3) msg.sender : Ethereum Addrees of the Seller\r\n    function setQuantityAvailableForSaleOfAnItem(string memory _keyItemIpfsHash, uint _quantity) public {\r\n        require(!GeneralUtilities._compareStringsEqual(_keyItemIpfsHash, EMPTY_STRING), \"Cannot have an empty String for the IPFS Hash Key of an Item to Sell!\");\r\n        \r\n        string memory combinedKeyAddressPlusItemIpfsHash = GeneralUtilities._getConcatenationOfEthereumAddressAndIpfsHash(msg.sender, _keyItemIpfsHash);\r\n        require(itemsKeysMap[combinedKeyAddressPlusItemIpfsHash], \"Given IPFS Hash of Item is not listed as an Item For Sale by you - the Seller!\");\r\n        \r\n        quantityAvailableForSaleOfEachItem[combinedKeyAddressPlusItemIpfsHash] = _quantity;\r\n    }\r\n    \r\n    // Gets the Quantity of the given \"_keyItemIpfsHash\" Item available For sale by the given \"_sellerAddress\" Seller.\r\n    //\r\n    // Input Parameters:\r\n    // 1) _sellerAddress : Ethreum Address of the Seller\r\n    // 2) _keyItemIpfsHash : This is the IPFS Hash of the item being sold that points to a JSON-formatted string in the IPFS Storage System.\r\n    function getQuantityAvailableForSaleOfAnItemBySeller(address _sellerAddress, string memory _keyItemIpfsHash) public view returns (uint) {\r\n        string memory combinedKeyAddressPlusItemIpfsHash = GeneralUtilities._getConcatenationOfEthereumAddressAndIpfsHash(_sellerAddress, _keyItemIpfsHash);\r\n        return quantityAvailableForSaleOfEachItem[combinedKeyAddressPlusItemIpfsHash];\r\n    }\r\n    \r\n    // Allows a Buyer - identified by the \"msg.sender\" Ethereum Address that calls this method - to purchase a \"_quantity\" of a specific Item - identified \r\n    // by it's \"_keyItemIpfsHash\" - from a given Seller - identified by it's \"_sellerAddress\" Ethereum Address.\r\n    //\r\n    // The Buyer is assuming the risk here in that the Buyer is expecting the Seller to be honest enough to send to the Buyer the quantity of Items \r\n    // in the purchase to the Buyer after the Seller receives the payment.\r\n    //\r\n    // Input Parameters:\r\n    // 1) _sellerAddress : Ethereum Address of the Seller\r\n    // 2) _keyItemIpfsHash : This is the IPFS Hash of the item being sold that points to a JSON-formatted string in the IPFS Storage System\r\n    // 3) _quantity : Quantity of the Item that the \"msg.sender\" Buyer wishes to purchase.\r\n    // 4) msg.sender :  Address of the Buyer\r\n    function purchaseItemWithoutMediator(address payable _sellerAddress, string memory _keyItemIpfsHash, uint _quantity) payable public {\r\n        require(_quantity > 0, \"Must purchase at least 1 quantity of the Item for Sale to happen!\");\r\n        require(!GeneralUtilities._compareStringsEqual(_keyItemIpfsHash, EMPTY_STRING), \"Cannot have an empty String for the IPFS Hash Key of an Item you are purchasing!\");\r\n        require(msg.sender != _sellerAddress, \"The Buyer Address cannot be the same as the Seller Address!\");\r\n        \r\n        require(sellerExistsMap[_sellerAddress], \"Given Seller Address does not exist as a Seller!\");\r\n        \r\n        string memory combinedKeyAddressPlusItemIpfsHash = GeneralUtilities._getConcatenationOfEthereumAddressAndIpfsHash(msg.sender, _keyItemIpfsHash);\r\n        require(itemsKeysMap[combinedKeyAddressPlusItemIpfsHash], \"Given IPFS Hash of Item is not listed as an Item For Sale from the Seller!\");\r\n        \r\n        require(quantityAvailableForSaleOfEachItem[combinedKeyAddressPlusItemIpfsHash] > 0, \"Seller has Zero quantity available for Sale for the Item requested to purchase!\");\r\n        require(quantityAvailableForSaleOfEachItem[combinedKeyAddressPlusItemIpfsHash] >= _quantity, \r\n            \"Quantity available For Sale of the Item from the Seller is less than the quantity requested to purchase! Not enough of the Itenm available For Sale\");\r\n        \r\n        require(pricesOfItems[combinedKeyAddressPlusItemIpfsHash] > 0, \"The Seller has not yet set a Price for Sale for the requested Item! Cannot purchase the Item!\"); \r\n        \r\n        uint totalAmountOfWeiNeededToPurchase = GeneralUtilities._safeMathMultiply(pricesOfItems[combinedKeyAddressPlusItemIpfsHash], _quantity);\r\n        require(msg.value >= totalAmountOfWeiNeededToPurchase, \"Not enough ETH was sent to purchase the quantity requested of the Item!\");\r\n        \r\n        // Subtract the appropriate \"_quantity\" of that Item for Sale to keep track of the new available quauntity of that Item that may be sold.\r\n        quantityAvailableForSaleOfEachItem[combinedKeyAddressPlusItemIpfsHash] = \r\n            GeneralUtilities._safeMathSubtract(quantityAvailableForSaleOfEachItem[combinedKeyAddressPlusItemIpfsHash], _quantity);\r\n        \r\n        // We want to make sure to return back any excess ETH that exceeds the amount necessary to purchase the given \"_quantity\" of the Item.\r\n        msg.sender.transfer(msg.value - totalAmountOfWeiNeededToPurchase);\r\n        \r\n        // Transfer the \"totalAmountOfWeiNeededToPurchase\" to the Seller.\r\n        _sellerAddress.transfer(totalAmountOfWeiNeededToPurchase);\r\n    }\r\n    \r\n    // Allows a Buyer - identified by the \"msg.sender\" Ethereum Address that calls this method - to purchase a \"_quantity\" of a specific Item - identified \r\n    // by it's \"_keyItemIpfsHash\" - from a given Seller - identified by it's \"_sellerAddress\" Ethereum Address AND use a Mediator - identified by the given \r\n    // \"_mediatorAddress\" - to mediate the Mediatiations Sales Transaction - identified by the the given \"_mediatedSalesTransactionIpfsHash\" ID. \r\n    //\r\n    // The FranklinDecentralizedMarketplaceMediation Contract mainly handles Sales Transactions that involve a Mediator. Thus, these would be referred to as \r\n    // Mediated Sales Transactions that involve a Buyer, Seller, and Mediator. Each Buyer, Seller, and Mediator will have a different Ethereum Address.\r\n    //\r\n    // The FranklinDecentralizedMarketplaceMediation Contract is used to store the Escrow ETH/WEI (i.e., \"totalAmountOfWeiNeededToPurchase\") used to pay for Items involved in ALL Mediated Sales Transactions. \r\n    // The Mediated Sales Transaction works as follows:\r\n    // 1) If 2-out-of-3 of the Buyer, Seller, and/or Mediator Approves this Mediated Sales Transaction, then 95% of the \"totalAmountOfWeiNeededToPurchase\" will be sent to the Seller Address\r\n    //    and 5% of the \"totalAmountOfWeiNeededToPurchase\" will be sent to the Mediator Address. \r\n    // 2) 2-out-of-3 of the Buyer, Seller, and/or Mediator Disapproves this Mediated Sales Transaction, then the \"totalAmountOfWeiNeededToPurchase\" will be sent back to the Buyer Address.\r\n    // 3) If neither (1) or (2) above happens, then the Mediated Sales Transaction will be held in a State of Limbo and the \"totalAmountOfWeiNeededToPurchase\" will be kept inside \r\n    //    of this Contract.\r\n    //\r\n    // Input Parameters:\r\n    // 1) _sellerAddress : Ethereum Address of the Seller\r\n    // 2) _keyItemIpfsHash : This is the IPFS Hash of the Item being sold that points to a JSON-formatted string in the IPFS Storage System.\r\n    // 3) _mediatorAddress : Ethereum Address of the Mediator\r\n    // 4) _quantity : Quantity of the Item that the \"msg.sender\" Buyer wishes to purchase. \r\n    // 5) _mediatedSalesTransactionIpfsHash : This is the IPFS Hash of the Mediated Sales Transaction that points to a JSON-formatted string in the IPFS Storage System.\r\n    // 6) msg.sender : Ethereum Address of the Buyer\r\n    function purchaseItemWithMediator(address _sellerAddress, address _mediatorAddress, string memory _keyItemIpfsHash, \r\n                string memory _mediatedSalesTransactionIpfsHash, uint _quantity) payable public {\r\n        require(_quantity > 0, \"Must purchase at least 1 quantity of the Item for Sale to happen!\");\r\n        require(!GeneralUtilities._compareStringsEqual(_keyItemIpfsHash, EMPTY_STRING), \"Cannot have an empty String for the IPFS Hash Key of an Item you are purchasing!\");\r\n        require(!GeneralUtilities._compareStringsEqual(_mediatedSalesTransactionIpfsHash, EMPTY_STRING), \"Cannot have an empty String for the IPFS Hash Key of the Mediated Sales Transaction!\");\r\n        \r\n        require(sellerExistsMap[_sellerAddress], \"Given Seller Address does not exist as a Seller!\");\r\n        \r\n        string memory combinedKeyAddressPlusItemIpfsHash = GeneralUtilities._getConcatenationOfEthereumAddressAndIpfsHash(msg.sender, _keyItemIpfsHash);\r\n        require(itemsKeysMap[combinedKeyAddressPlusItemIpfsHash], \"Given IPFS Hash of Item is not listed as an Item For Sale from the Seller!\");\r\n        \r\n        require(quantityAvailableForSaleOfEachItem[combinedKeyAddressPlusItemIpfsHash] > 0, \"Seller has Zero quantity available for Sale for the Item requested to purchase!\");\r\n        require(quantityAvailableForSaleOfEachItem[combinedKeyAddressPlusItemIpfsHash] >= _quantity, \r\n            \"Quantity available For Sale of the Item from the Seller is less than the quantity requested to purchase! Not enough of the Itenm available For Sale\");\r\n        \r\n        require(pricesOfItems[combinedKeyAddressPlusItemIpfsHash] > 0, \"The Seller has not yet set a Price for Sale for the requested Item! Cannot purchase the Item!\"); \r\n        \r\n        uint totalAmountOfWeiNeededToPurchase = GeneralUtilities._safeMathMultiply(pricesOfItems[combinedKeyAddressPlusItemIpfsHash], _quantity);\r\n        require(msg.value >= totalAmountOfWeiNeededToPurchase, \"Not enough ETH/WEI was sent to purchase the quantity requested of the Item!\");\r\n        \r\n        // Need to check that the Ethereum Addresses of the Buyer, Seller, and Mediator are ALL different!\r\n        require(msg.sender != _sellerAddress, \"The Buyer Address cannot be the same as the Seller Address!\");\r\n        require(msg.sender != _mediatorAddress, \"The Buyer Address cannot be the same as the Mediator Address!\");\r\n        require(_sellerAddress != _mediatorAddress, \"The Seller Address cannot be the same as the Mediator Address!\");\r\n        \r\n        // The \"msg.value\" amount (minus any excess ETH/WEI that was sent) will automatically be sent to the FranklinDecentralizedMarketplaceMediation Contract in Escrow in a \r\n        // Mediated Sales Transaction. We need to store the \"totalAmountOfWeiNeededToPurchase\" as follows so that when:\r\n        // 1) 2-out-of-3 of the Buyer, Seller, and/or Mediator Approves this Mediated Sales Transaction, then 95% of the \"totalAmountOfWeiNeededToPurchase\" can be sent to the Seller Address\r\n        //    and 5% of the  \"msg.value\" can be sent to the Mediator Address. \r\n        // 2) 2-out-of-3 of the Buyer, Seller, and/or Mediator Disapproves this Mediated Sales Transaction, the \"totalAmountOfWeiNeededToPurchase\" can be sent back to the Buyer Address.\r\n        // 3) If neither (1) or (2) above happens, then the Mediated Sales Transaction will be held in a State of Limbo and the \"totalAmountOfWeiNeededToPurchase\" will be kept inside \r\n        //    of the FranklinDecentralizedMarketplaceMediation Contract.\r\n        \r\n        // Below code logic was transferred over to the \"purchaseItemWithMediator\" method of the FranklinDecentralizedMarketplaceMediation Contract.\r\n        /*\r\n        require(!mediatedSalesTransactionExists[_mediatedSalesTransactionIpfsHash], \"Mediated Sales Transaction already exists!\");\r\n        \r\n        string memory mediatorAddressStringKey = GeneralUtilities._addressToString(_mediatorAddress);\r\n        require(mediatorExistsMap[mediatorAddressStringKey], \"Given Mediator Address does not exist as a Mediator!\");\r\n        \r\n        // Keep track of the existence of the Mediated Sales Transaction so that it can be Approved or Disapproved by the Buyer, Seller, and/or Mediator in the future.\r\n        mediatedSalesTransactionExists[_mediatedSalesTransactionIpfsHash] = true;\r\n        mediatedSalesTransactionAddresses[_mediatedSalesTransactionIpfsHash][BUYER_INDEX] = msg.sender;\r\n        mediatedSalesTransactionAddresses[_mediatedSalesTransactionIpfsHash][SELLER_INDEX] = _sellerAddress;\r\n        mediatedSalesTransactionAddresses[_mediatedSalesTransactionIpfsHash][MEDIATOR_INDEX] = _mediatorAddress;\r\n        \r\n        // The \"msg.value\" amount (minus any excess ETH/WEI that was sent) will automatically be sent to the FranklinDecentralizedMarketplaceMediation Contract as Escrow in a \r\n        // Mediated Sales Transaction. We need to store the \"totalAmountOfWeiNeededToPurchase\" as follows so that when:\r\n        // 1) 2-out-of-3 of the Buyer, Seller, and/or Mediator Approves this Mediated Sales Transaction, then 95% of the \"totalAmountOfWeiNeededToPurchase\" can be sent to the Seller Address\r\n        //    and 5% of the  \"msg.value\" can be sent to the Mediator Address. \r\n        // 2) 2-out-of-3 of the Buyer, Seller, and/or Mediator Disapproves this Mediated Sales Transaction, the \"totalAmountOfWeiNeededToPurchase\" can be sent back to the Buyer Address.\r\n        mediatedSalesTransactionAmount[_mediatedSalesTransactionIpfsHash] = totalAmountOfWeiNeededToPurchase;\r\n        \r\n        numberOfMediationsMediatorInvolved[_mediatorAddress] = GeneralUtilities._safeMathAdd(numberOfMediationsMediatorInvolved[_mediatorAddress], 1);\r\n        */\r\n        \r\n        // Call below method to continue the processing of the Mediated Sales Transaction.\r\n        mediationMarketplace.purchaseItemWithMediator(msg.sender, _sellerAddress, _mediatorAddress, _mediatedSalesTransactionIpfsHash, totalAmountOfWeiNeededToPurchase);\r\n        \r\n        // Subtract the appropriate \"_quantity\" of that Item for Sale to keep track of the new available quantity of that Item that may be sold. I know that the sale is NOT final \r\n        // at this point, BUT let's be optimistic. If the \"_mediatedSalesTransactionIpfsHash\" Mediated Sales Transaction gets Disapproved, then the quantity will have to be updated \r\n        // accordingly by the Seller Address via the \"setQuantityAvailableForSaleOfAnItem\" method.\r\n        // \r\n        // If the Mediated Sales Transaction NEVER reaches a State of Approval nor Disapproval, then the Mediated Sales Transaction will be held in a State of Limbo and the \r\n        // \"totalAmountOfWeiNeededToPurchase\" will be kept inside of the FranklinDecentralizedMarketplaceMediation Contract. Thus, the quantity For Sale of the Item will never \r\n        // be automatically updated and it would have to be updated by the Seller Address via the \"setQuantityAvailableForSaleOfAnItem\" method.\r\n        quantityAvailableForSaleOfEachItem[combinedKeyAddressPlusItemIpfsHash] = \r\n            GeneralUtilities._safeMathSubtract(quantityAvailableForSaleOfEachItem[combinedKeyAddressPlusItemIpfsHash], _quantity);\r\n        \r\n        // We want to make sure to return back to the Buyer Address any excess ETH/WEI that exceeds the amount necessary to purchase the given \"_quantity\" of the Item.\r\n        msg.sender.transfer(GeneralUtilities._safeMathSubtract(msg.value, totalAmountOfWeiNeededToPurchase));  \r\n        \r\n        // Since the FranklinDecentralizedMarketplaceMediation Contract will be handling any further Mediation actions, the Escrow should be kept there. \r\n        // So, send the Escrow Amount to the FranklinDecentralizedMarketplaceMediation Contract\r\n        address payable mediationMarketplaceAddress = GeneralUtilities._convertAddressToAddressPayable(address(mediationMarketplace));\r\n        mediationMarketplaceAddress.transfer(totalAmountOfWeiNeededToPurchase);\r\n    }\r\n    \r\n    // Adds an Item - identified by the given \"_keyItemIpfsHash\" input - to be Sold by a Seller to it's \"itemsBeingSoldBySpecificSeller\" double-linked list. \r\n    // The Seller in this function call is the \"msg.sender\" Ethereum Address that calls this function. Also, this causes the \"msg.sender\" Seller to be added in the \"listOfSellers\". \r\n    //\r\n    // Source --> https://ethereum.stackexchange.com/questions/15337/can-we-get-all-elements-stored-in-a-mapping-in-the-contract\r\n    function addItemForSale(string memory _keyItemIpfsHash) public {\r\n        require(!GeneralUtilities._compareStringsEqual(_keyItemIpfsHash, EMPTY_STRING), \"Cannot have an empty String for the IPFS Hash Key of an Item to Sell!\");\r\n        \r\n        string memory combinedKeyAddressPlusItemIpfsHash = GeneralUtilities._getConcatenationOfEthereumAddressAndIpfsHash(msg.sender, _keyItemIpfsHash);\r\n        \r\n        // If the specific type of Item is already in the list of Items that the Seller is selling, then no need to add the Item, because it's already there.\r\n        if (itemsKeysMap[combinedKeyAddressPlusItemIpfsHash]) {\r\n            return;\r\n        }\r\n        \r\n        // This below is the double-linked list of different types of Items being sold by a Seller.\r\n        mapping(string => mapping(bool => string)) storage itemsBeingSoldBySenderAddress = itemsBeingSoldBySpecificSeller[msg.sender];\r\n        \r\n        // Link the new node \r\n        itemsBeingSoldBySenderAddress[_keyItemIpfsHash][PREV] = EMPTY_STRING;\r\n        itemsBeingSoldBySenderAddress[_keyItemIpfsHash][NEXT] = itemsBeingSoldBySenderAddress[EMPTY_STRING][NEXT];\r\n    \r\n        // Insert the new node\r\n        itemsBeingSoldBySenderAddress[itemsBeingSoldBySenderAddress[EMPTY_STRING][NEXT]][PREV] = _keyItemIpfsHash;\r\n        itemsBeingSoldBySenderAddress[EMPTY_STRING][NEXT] = _keyItemIpfsHash;\r\n        \r\n        numberOfDifferentItemsBeingSoldBySellerMap[msg.sender] = GeneralUtilities._safeMathAdd(numberOfDifferentItemsBeingSoldBySellerMap[msg.sender], 1);\r\n        itemsKeysMap[combinedKeyAddressPlusItemIpfsHash] = true;\r\n        \r\n        _addSeller(msg.sender); // No seller added if Seller already exists.\r\n    }\r\n    \r\n    // Removes an Item - identified by the given \"_keyItemIpfsHash\" input - being Sold by a Seller in it's \"itemsBeingSoldBySpecificSeller\" double-linked list. \r\n    // The Seller in this function call is the \"msg.sender\" \r\n    // Ethereum Address that calls this function.\r\n    //\r\n    // WARNING! If this method causes removing the last Item for Sale, the Seller (i.e., the \"msg.sender\") will be removed from the \"listOfSellers\". \r\n    //\r\n    // Source --> https://ethereum.stackexchange.com/questions/15337/can-we-get-all-elements-stored-in-a-mapping-in-the-contract\r\n    function removeItemForSale(string memory _keyItemIpfsHash) public {\r\n        string memory combinedKeyAddressPlusItemIpfsHash = GeneralUtilities._getConcatenationOfEthereumAddressAndIpfsHash(msg.sender, _keyItemIpfsHash);\r\n        \r\n        if (!itemsKeysMap[combinedKeyAddressPlusItemIpfsHash]) {\r\n            return;\r\n        }\r\n        \r\n        // This below is the double-linked list of different types of Items being sold by a Seller.\r\n        mapping(string => mapping(bool => string)) storage itemsBeingSoldBySenderAddress = itemsBeingSoldBySpecificSeller[msg.sender];\r\n        \r\n        // Stitch the neighbours together\r\n        itemsBeingSoldBySenderAddress[ itemsBeingSoldBySenderAddress[_keyItemIpfsHash][PREV] ][NEXT] = itemsBeingSoldBySenderAddress[_keyItemIpfsHash][NEXT];\r\n        itemsBeingSoldBySenderAddress[ itemsBeingSoldBySenderAddress[_keyItemIpfsHash][NEXT] ][PREV] = itemsBeingSoldBySenderAddress[_keyItemIpfsHash][PREV];\r\n    \r\n        // Delete state storage\r\n        delete itemsBeingSoldBySenderAddress[_keyItemIpfsHash][PREV];\r\n        delete itemsBeingSoldBySenderAddress[_keyItemIpfsHash][NEXT];\r\n    \r\n        numberOfDifferentItemsBeingSoldBySellerMap[msg.sender] = GeneralUtilities._safeMathSubtract(numberOfDifferentItemsBeingSoldBySellerMap[msg.sender], 1);\r\n        delete itemsKeysMap[combinedKeyAddressPlusItemIpfsHash];\r\n        delete pricesOfItems[combinedKeyAddressPlusItemIpfsHash];\r\n        delete quantityAvailableForSaleOfEachItem[combinedKeyAddressPlusItemIpfsHash];\r\n        \r\n        if (numberOfDifferentItemsBeingSoldBySellerMap[msg.sender] == 0) {\r\n            _removeSeller(msg.sender);\r\n        }\r\n    }\r\n    \r\n    // Gets the number of different types of Items being sold by a Seller. Each Seller shall have a unique Ethereum Address that will be used to identify\r\n    // the Seller.\r\n    function getNumberOfDifferentItemsBeingSoldBySeller(address _sellerAddress) public view returns (uint) {\r\n        return numberOfDifferentItemsBeingSoldBySellerMap[_sellerAddress];\r\n    }\r\n    \r\n    // Gets the IPFS Hash string of an Item being sold by a Seller. Index values start at 0.\r\n    //\r\n    // This IPFS Hash string refers to a JSON-formatted string that is stored in the IPFS Storage System.\r\n    //\r\n    // Input Parameters:\r\n    // 1) _sellerAddress : The Ethereum Address of the Seller\r\n    // 2) _itemIndex : Index number into the \"itemsBeingSoldBySpecificSeller\" double-linked list of Items Seller is selling.\r\n    //    Index starts at 0.\r\n    //\r\n    // Returns:\r\n    // 1) If the \"_itemIndex\" refers to an Item that the \"_sellerAddress\" is selling, then the IPFS Hash string of the Item being sold is returned.\r\n    // 2) If the \"_itemIndex\" does NOT refer to an Item that the \"_sellerAddress\" is selling, then an EMPTY_STRING is returned.\r\n    function getItemForSale(address _sellerAddress, uint _itemIndex) public view returns (string memory) {\r\n        if (_itemIndex >= numberOfDifferentItemsBeingSoldBySellerMap[_sellerAddress]) {\r\n            return EMPTY_STRING;\r\n        }\r\n        \r\n        // This below is the double-linked list of different types of Items being sold by the \"_sellerAddress\".\r\n        mapping(string => mapping(bool => string)) storage itemsBeingSoldBySenderAddress = itemsBeingSoldBySpecificSeller[_sellerAddress];        \r\n        \r\n        uint keyCount = 0;\r\n        string memory ipfsHashKeyOfItem = EMPTY_STRING;\r\n        while (true) {\r\n            ipfsHashKeyOfItem = itemsBeingSoldBySenderAddress[ipfsHashKeyOfItem][NEXT];\r\n            if (keyCount == _itemIndex) {\r\n                break;\r\n            }\r\n            \r\n            keyCount++;\r\n        }\r\n        \r\n        return ipfsHashKeyOfItem;       \r\n    }\r\n    \r\n    // Returns back a boolean value indicating if a certain Item is available for sale from a given Seller.\r\n    //\r\n    // Input Parameters:\r\n    // 1) _sellerAddress : The Ethereum Address of the Seller\r\n    // 2) _keyItemIpfsHash : The IPFS Hash ID string identifying an Item For Sale\r\n    //\r\n    // Returns:\r\n    // 1) Boolean true : If the given \"_sellerAddress\" is selling the given Item identified by it's \"_keyItemIpfsHash\"\r\n    // 2) Boolean false : If the given \"_sellerAddress\" is NOT selling the given Item identified by it's \"_keyItemIpfsHash\"\r\n    function itemForSaleFromSellerExists(address _sellerAddress, string memory _keyItemIpfsHash) public view returns (bool) {\r\n        string memory combinedKeyAddressPlusItemIpfsHash = GeneralUtilities._getConcatenationOfEthereumAddressAndIpfsHash(_sellerAddress, _keyItemIpfsHash);\r\n        return itemsKeysMap[combinedKeyAddressPlusItemIpfsHash];\r\n    }\r\n}",
  "sourcePath": "/mnt/d/Kingsland-University-Decentralized-Marketplace-Decentralized-Application-Project-2019/contracts/FranklinDecentralizedMarketplace.sol",
  "compiler": {
    "name": "solc",
    "version": "0.5.8+commit.23d335f2.Emscripten.clang"
  },
  "schemaVersion": "3.0.16",
  "updatedAt": "2019-11-19T14:18:08.661Z",
  "devdoc": {
    "methods": {}
  },
  "userdoc": {
    "methods": {}
  }
}