{
  "contractName": "GeneralUtilitiesProxy",
  "abi": [
    {
      "constant": true,
      "inputs": [
        {
          "name": "_ethereumAddress",
          "type": "address"
        },
        {
          "name": "_ipfsHash",
          "type": "string"
        }
      ],
      "name": "_getConcatenationOfEthereumAddressAndIpfsHash",
      "outputs": [
        {
          "name": "",
          "type": "string"
        }
      ],
      "payable": false,
      "stateMutability": "pure",
      "type": "function"
    },
    {
      "constant": true,
      "inputs": [
        {
          "name": "_incomingAddress",
          "type": "address"
        }
      ],
      "name": "_convertAddressToAddressPayable",
      "outputs": [
        {
          "name": "",
          "type": "address"
        }
      ],
      "payable": false,
      "stateMutability": "pure",
      "type": "function"
    },
    {
      "constant": true,
      "inputs": [
        {
          "name": "a",
          "type": "uint256"
        },
        {
          "name": "b",
          "type": "uint256"
        }
      ],
      "name": "_safeMathAdd",
      "outputs": [
        {
          "name": "",
          "type": "uint256"
        }
      ],
      "payable": false,
      "stateMutability": "pure",
      "type": "function"
    },
    {
      "constant": true,
      "inputs": [
        {
          "name": "a",
          "type": "uint256"
        },
        {
          "name": "b",
          "type": "uint256"
        }
      ],
      "name": "_safeMathSubtract",
      "outputs": [
        {
          "name": "",
          "type": "uint256"
        }
      ],
      "payable": false,
      "stateMutability": "pure",
      "type": "function"
    },
    {
      "constant": true,
      "inputs": [
        {
          "name": "a",
          "type": "string"
        },
        {
          "name": "b",
          "type": "string"
        }
      ],
      "name": "_compareStringsEqual",
      "outputs": [
        {
          "name": "",
          "type": "bool"
        }
      ],
      "payable": false,
      "stateMutability": "pure",
      "type": "function"
    },
    {
      "constant": true,
      "inputs": [
        {
          "name": "_addr",
          "type": "address"
        }
      ],
      "name": "_addressToString",
      "outputs": [
        {
          "name": "",
          "type": "string"
        }
      ],
      "payable": false,
      "stateMutability": "pure",
      "type": "function"
    },
    {
      "constant": true,
      "inputs": [
        {
          "name": "_a",
          "type": "string"
        }
      ],
      "name": "_parseEthereumAddressStringToAddress",
      "outputs": [
        {
          "name": "",
          "type": "address"
        }
      ],
      "payable": false,
      "stateMutability": "pure",
      "type": "function"
    },
    {
      "constant": true,
      "inputs": [
        {
          "name": "a",
          "type": "uint256"
        },
        {
          "name": "b",
          "type": "uint256"
        }
      ],
      "name": "_safeMathDivide",
      "outputs": [
        {
          "name": "",
          "type": "uint256"
        }
      ],
      "payable": false,
      "stateMutability": "pure",
      "type": "function"
    },
    {
      "constant": true,
      "inputs": [
        {
          "name": "_a",
          "type": "uint256"
        },
        {
          "name": "_b",
          "type": "uint256"
        }
      ],
      "name": "_safeMathMultiply",
      "outputs": [
        {
          "name": "",
          "type": "uint256"
        }
      ],
      "payable": false,
      "stateMutability": "pure",
      "type": "function"
    },
    {
      "constant": true,
      "inputs": [
        {
          "name": "_numerator",
          "type": "uint256"
        },
        {
          "name": "_denominator",
          "type": "uint256"
        },
        {
          "name": "_totalAmount",
          "type": "uint256"
        }
      ],
      "name": "_getPercentageOfTotalAmount",
      "outputs": [
        {
          "name": "",
          "type": "uint256"
        }
      ],
      "payable": false,
      "stateMutability": "pure",
      "type": "function"
    }
  ],
  "bytecode": "0x608060405234801561001057600080fd5b5061123f806100206000396000f3fe608060405234801561001057600080fd5b506004361061009e5760003560e01c8063c578b1ef11610066578063c578b1ef14610381578063da06b2dc146103cd578063f00c041214610537578063f6b2655b1461068b578063f6cfcbc4146106d75761009e565b8063053478ec146100a35780632ee5a6a9146100f9578063584cc71b1461014557806388e9a48a146102405780639f25c9c9146102fd575b600080fd5b6100e3600480360360608110156100b957600080fd5b81019080803590602001909291908035906020019092919080359060200190929190505050610723565b6040518082815260200191505060405180910390f35b61012f6004803603604081101561010f57600080fd5b810190808035906020019092919080359060200190929190505050610739565b6040518082815260200191505060405180910390f35b6101fe6004803603602081101561015b57600080fd5b810190808035906020019064010000000081111561017857600080fd5b82018360208201111561018a57600080fd5b803590602001918460018302840111640100000000831117156101ac57600080fd5b91908080601f016020809104026020016040519081016040528093929190818152602001838380828437600081840152601f19601f82011690508083019250505050505050919291929050505061074d565b604051808273ffffffffffffffffffffffffffffffffffffffff1673ffffffffffffffffffffffffffffffffffffffff16815260200191505060405180910390f35b6102826004803603602081101561025657600080fd5b81019080803573ffffffffffffffffffffffffffffffffffffffff16906020019092919050505061075f565b6040518080602001828103825283818151815260200191508051906020019080838360005b838110156102c25780820151818401526020810190506102a7565b50505050905090810190601f1680156102ef5780820380516001836020036101000a031916815260200191505b509250505060405180910390f35b61033f6004803603602081101561031357600080fd5b81019080803573ffffffffffffffffffffffffffffffffffffffff169060200190929190505050610771565b604051808273ffffffffffffffffffffffffffffffffffffffff1673ffffffffffffffffffffffffffffffffffffffff16815260200191505060405180910390f35b6103b76004803603604081101561039757600080fd5b810190808035906020019092919080359060200190929190505050610783565b6040518082815260200191505060405180910390f35b61051d600480360360408110156103e357600080fd5b810190808035906020019064010000000081111561040057600080fd5b82018360208201111561041257600080fd5b8035906020019184600183028401116401000000008311171561043457600080fd5b91908080601f016020809104026020016040519081016040528093929190818152602001838380828437600081840152601f19601f8201169050808301925050505050505091929192908035906020019064010000000081111561049757600080fd5b8201836020820111156104a957600080fd5b803590602001918460018302840111640100000000831117156104cb57600080fd5b91908080601f016020809104026020016040519081016040528093929190818152602001838380828437600081840152601f19601f820116905080830192505050505050509192919290505050610797565b604051808215151515815260200191505060405180910390f35b6106106004803603604081101561054d57600080fd5b81019080803573ffffffffffffffffffffffffffffffffffffffff1690602001909291908035906020019064010000000081111561058a57600080fd5b82018360208201111561059c57600080fd5b803590602001918460018302840111640100000000831117156105be57600080fd5b91908080601f016020809104026020016040519081016040528093929190818152602001838380828437600081840152601f19601f8201169050808301925050505050505091929192905050506107ab565b6040518080602001828103825283818151815260200191508051906020019080838360005b83811015610650578082015181840152602081019050610635565b50505050905090810190601f16801561067d5780820380516001836020036101000a031916815260200191505b509250505060405180910390f35b6106c1600480360360408110156106a157600080fd5b8101908080359060200190929190803590602001909291905050506107bf565b6040518082815260200191505060405180910390f35b61070d600480360360408110156106ed57600080fd5b8101908080359060200190929190803590602001909291905050506107d3565b6040518082815260200191505060405180910390f35b60006107308484846107e7565b90509392505050565b6000610745838361080a565b905092915050565b6000610758826108fc565b9050919050565b606061076a82610b55565b9050919050565b600061077c82610dd6565b9050919050565b600061078f8383610de5565b905092915050565b60006107a38383610e51565b905092915050565b60606107b78383610f40565b905092915050565b60006107cb8383611098565b905092915050565b60006107df838361112c565b905092915050565b6000806107f4858461080a565b9050610800818561112c565b9150509392505050565b60008083148061081a5750600082145b1561082857600090506108f6565b600082840290508284828161083957fe5b0414610890576040517f08c379a000000000000000000000000000000000000000000000000000000000815260040180806020018281038252602b8152602001806111e9602b913960400191505060405180910390fd5b8383828161089a57fe5b04146108f1576040517f08c379a000000000000000000000000000000000000000000000000000000000815260040180806020018281038252602b8152602001806111e9602b913960400191505060405180910390fd5b809150505b92915050565b6000606082905060008090506000806000600290505b602a811015610b48576101008402935084818151811061092e57fe5b602001015160f81c60f81b60f81c60ff16925084600182018151811061095057fe5b602001015160f81c60f81b60f81c60ff16915060618373ffffffffffffffffffffffffffffffffffffffff16101580156109a1575060668373ffffffffffffffffffffffffffffffffffffffff1611155b156109b157605783039250610a4b565b60418373ffffffffffffffffffffffffffffffffffffffff16101580156109ef575060468373ffffffffffffffffffffffffffffffffffffffff1611155b156109ff57603783039250610a4a565b60308373ffffffffffffffffffffffffffffffffffffffff1610158015610a3d575060398373ffffffffffffffffffffffffffffffffffffffff1611155b15610a49576030830392505b5b5b60618273ffffffffffffffffffffffffffffffffffffffff1610158015610a89575060668273ffffffffffffffffffffffffffffffffffffffff1611155b15610a9957605782039150610b33565b60418273ffffffffffffffffffffffffffffffffffffffff1610158015610ad7575060468273ffffffffffffffffffffffffffffffffffffffff1611155b15610ae757603782039150610b32565b60308273ffffffffffffffffffffffffffffffffffffffff1610158015610b25575060398273ffffffffffffffffffffffffffffffffffffffff1611155b15610b31576030820391505b5b5b81601084020184019350600281019050610912565b5082945050505050919050565b606060008273ffffffffffffffffffffffffffffffffffffffff1660001b905060606040518060400160405280601081526020017f303132333435363738396162636465660000000000000000000000000000000081525090506060602a6040519080825280601f01601f191660200182016040528015610be55781602001600182028038833980820191505090505b5090507f300000000000000000000000000000000000000000000000000000000000000081600081518110610c1657fe5b60200101907effffffffffffffffffffffffffffffffffffffffffffffffffffffffffffff1916908160001a9053507f780000000000000000000000000000000000000000000000000000000000000081600181518110610c7357fe5b60200101907effffffffffffffffffffffffffffffffffffffffffffffffffffffffffffff1916908160001a90535060008090505b6014811015610dca5782600485600c840160208110610cc357fe5b1a60f81b7effffffffffffffffffffffffffffffffffffffffffffffffffffffffffffff1916901c60f81c60ff1681518110610cfb57fe5b602001015160f81c60f81b826002830260020181518110610d1857fe5b60200101907effffffffffffffffffffffffffffffffffffffffffffffffffffffffffffff1916908160001a90535082600f60f81b85600c840160208110610d5c57fe5b1a60f81b1660f81c60ff1681518110610d7157fe5b602001015160f81c60f81b826002830260030181518110610d8e57fe5b60200101907effffffffffffffffffffffffffffffffffffffffffffffffffffffffffffff1916908160001a9053508080600101915050610ca8565b50809350505050919050565b60008082905080915050919050565b600082821115610e40576040517f08c379a00000000000000000000000000000000000000000000000000000000081526004018080602001828103825260288152602001806111c16028913960400191505060405180910390fd5b600082840390508091505092915050565b6000816040516020018082805190602001908083835b60208310610e8a5780518252602082019150602081019050602083039250610e67565b6001836020036101000a03801982511681845116808217855250505050505090500191505060405160208183030381529060405280519060200120836040516020018082805190602001908083835b60208310610efc5780518252602082019150602081019050602083039250610ed9565b6001836020036101000a0380198251168184511680821785525050505050509050019150506040516020818303038152906040528051906020012014905092915050565b6060610f4b83610b55565b6040518060400160405280600181526020017f5f00000000000000000000000000000000000000000000000000000000000000815250836040516020018084805190602001908083835b60208310610fb85780518252602082019150602081019050602083039250610f95565b6001836020036101000a03801982511681845116808217855250505050505090500183805190602001908083835b602083106110095780518252602082019150602081019050602083039250610fe6565b6001836020036101000a03801982511681845116808217855250505050505090500182805190602001908083835b6020831061105a5780518252602082019150602081019050602083039250611037565b6001836020036101000a0380198251168184511680821785525050505050509050019350505050604051602081830303815290604052905092915050565b60008082840190508381101580156110b05750828110155b611122576040517f08c379a00000000000000000000000000000000000000000000000000000000081526004018080602001828103825260208152602001807f5f736166654d617468416464203a204164646974696f6e204f766572666c6f7781525060200191505060405180910390fd5b8091505092915050565b6000808211611186576040517f08c379a000000000000000000000000000000000000000000000000000000000815260040180806020018281038252602281526020018061119f6022913960400191505060405180910390fd5b600082848161119157fe5b049050809150509291505056fe5f736166654d617468446976696465203a2044656e6f6d696e61746f7220697320305f736166654d6174685375627472616374203a205375627472616374696f6e204f766572666c6f775f736166654d6174684d756c7469706c79203a204d756c7469706c69636174696f6e204f766572666c6f77a165627a7a72305820e7da98ae3d4c50be6f9f619e465a85fc4aca170b5bb71ac03a0f89a59b9682da0029",
  "source": "pragma solidity >=0.4.22 <0.6.0;\r\n\r\nimport \"./GeneralUtilities.sol\";\r\n\r\n// Purpose of this contract is to simply allow for the testing of ALL the frunctions in the GeneralUtilities.sol file. It simply serves as a \r\n// proxy so that the actual unit tests may be written in JavaScript inside of the GeneralUtilities.js file.\r\n//\r\n// Initally, this file was placed inside of the \"test\" directory. The Unit Tests in the GeneralUtilitiesTest.js file ran successfully when \"truffle test\"\r\n// was executed, but many failed when the \"npm run test:coverage\" ran. So, decision was made to move it to the \"contracts\" directory, and all the unit tests\r\n// in the GeneralUtilitiesTest.js file passed.\r\ncontract GeneralUtilitiesProxy {\r\n    using GeneralUtilities for *;\r\n    \r\n    function _getConcatenationOfEthereumAddressAndIpfsHash(address _ethereumAddress, string memory _ipfsHash) public pure returns (string memory) {\r\n    \treturn GeneralUtilities._getConcatenationOfEthereumAddressAndIpfsHash(_ethereumAddress, _ipfsHash);\r\n    }\r\n    \r\n    function _convertAddressToAddressPayable(address _incomingAddress) public pure returns (address payable) {\r\n        return GeneralUtilities._convertAddressToAddressPayable(_incomingAddress);\r\n    }\r\n    \r\n    function _safeMathAdd(uint256 a, uint256 b) public pure returns (uint256) {\r\n    \treturn GeneralUtilities._safeMathAdd(a, b);\r\n    }\r\n    \r\n    function _safeMathSubtract(uint256 a, uint256 b) public pure returns (uint256) {\r\n    \treturn GeneralUtilities._safeMathSubtract(a, b);\r\n    }\r\n    \r\n    function _compareStringsEqual(string memory a, string memory b) public pure returns (bool) {\r\n    \treturn GeneralUtilities._compareStringsEqual(a, b);\r\n    }\r\n    \r\n    function _addressToString(address _addr) public pure returns (string memory) {\r\n    \treturn GeneralUtilities._addressToString(_addr);\r\n    }\r\n    \r\n    function _parseEthereumAddressStringToAddress(string memory _a) public pure returns (address) {\r\n    \treturn GeneralUtilities._parseEthereumAddressStringToAddress(_a);\r\n    }\r\n    \r\n    function _safeMathDivide(uint256 a, uint256 b) public pure returns (uint256) {\r\n    \treturn GeneralUtilities._safeMathDivide(a, b);\r\n    }\r\n    \r\n    function _safeMathMultiply(uint256 _a, uint256 _b) public pure returns (uint256) {\r\n    \treturn GeneralUtilities._safeMathMultiply(_a, _b);\r\n    }\r\n    \r\n    function _getPercentageOfTotalAmount(uint256 _numerator, uint256 _denominator, uint256 _totalAmount) public pure returns (uint256) {\r\n    \treturn GeneralUtilities._getPercentageOfTotalAmount(_numerator, _denominator, _totalAmount);\r\n    }\r\n}",
  "sourcePath": "/mnt/d/Kingsland-University-Decentralized-Marketplace-Decentralized-Application-Project-2019/contracts/GeneralUtilitiesProxy.sol",
  "compiler": {
    "name": "solc",
    "version": "0.5.8+commit.23d335f2.Emscripten.clang"
  },
  "schemaVersion": "3.0.16",
  "updatedAt": "2019-11-29T20:59:19.874Z",
  "devdoc": {
    "methods": {}
  },
  "userdoc": {
    "methods": {}
  }
}