{
  "contractName": "GeneralUtilities",
  "abi": [
    {
      "constant": true,
      "inputs": [],
      "name": "UNDER_SCORE_STRING",
      "outputs": [
        {
          "name": "",
          "type": "string"
        }
      ],
      "payable": false,
      "stateMutability": "view",
      "type": "function"
    }
  ],
  "bytecode": "0x61011b610026600b82828239805160001a60731461001957fe5b30600052607381538281f3fe730000000000000000000000000000000000000000301460806040526004361060335760003560e01c8063c0e52864146038575b600080fd5b603e60b6565b6040518080602001828103825283818151815260200191508051906020019080838360005b83811015607c5780820151818401526020810190506063565b50505050905090810190601f16801560a85780820380516001836020036101000a031916815260200191505b509250505060405180910390f35b6040518060400160405280600181526020017f5f000000000000000000000000000000000000000000000000000000000000008152508156fea165627a7a72305820d327e92d724920ca156a583d5255f6e6793af014556832424b15405bfa956e290029",
  "source": "pragma solidity >=0.4.22 <0.6.0;\r\n\r\nlibrary GeneralUtilities {\r\n\r\n    string constant public UNDER_SCORE_STRING = \"_\";\r\n    \r\n    // Gets the Concatentaion of an Ethereum Address and an IPFS Hash string with an underscore placed in between.\r\n    //\r\n    // Reference for coding technique --> https://ethereum.stackexchange.com/questions/729/how-to-concatenate-strings-in-solidity\r\n    function _getConcatenationOfEthereumAddressAndIpfsHash(address _ethereumAddress, string memory _ipfsHash) internal pure returns (string memory) {\r\n        return string(abi.encodePacked(_addressToString(_ethereumAddress), UNDER_SCORE_STRING, _ipfsHash));\r\n    }\r\n    \r\n    // Source --> https://ethereum.stackexchange.com/questions/62222/address-payable-type-store-address-and-send-later-using-solidity-0-5-0\r\n    function _convertAddressToAddressPayable(address _incomingAddress) internal pure returns (address payable) {\r\n        address payable anAddressPayable = address(uint160(_incomingAddress));\r\n        return anAddressPayable;\r\n    }\r\n    \r\n    // Allow for safely adding two numbers.\r\n    // Source --> https://github.com/OpenZeppelin/openzeppelin-contracts/blob/master/contracts/math/SafeMath.sol\r\n    function _safeMathAdd(uint256 a, uint256 b) internal pure returns (uint256) {\r\n        uint256 c = a + b;\r\n        require(c >= a, \"_safeMathAdd : Addition Overflow\");\r\n\r\n        return c;\r\n    }\r\n    \r\n    // Allows for safely subtracting two numbers.\r\n    // Source --> https://github.com/OpenZeppelin/openzeppelin-contracts/blob/master/contracts/math/SafeMath.sol\r\n    function _safeMathSubtract(uint256 a, uint256 b) internal pure returns (uint256) {\r\n        require(b <= a, \"_safeMathSubtract : Subtraction Overflow\");\r\n        uint256 c = a - b;\r\n\r\n        return c;\r\n    }\r\n    \r\n    // Compares two strings for equality.\r\n    //\r\n    // Reference --> https://ethereum.stackexchange.com/questions/30912/how-to-compare-strings-in-solidity\r\n    function _compareStringsEqual(string memory a, string memory b) internal pure returns (bool) {\r\n        return ( keccak256(abi.encodePacked((a))) == keccak256(abi.encodePacked((b))) );\r\n    }\r\n    \r\n    // Converts an Ethereum Address to a string.\r\n    // \r\n    // Reference --> https://ethereum.stackexchange.com/questions/8346/convert-address-to-string\r\n    function _addressToString(address _addr) internal pure returns (string memory) {\r\n        bytes32 value = bytes32(uint256(_addr));\r\n        bytes memory alphabet = \"0123456789abcdef\";\r\n    \r\n        bytes memory str = new bytes(42);\r\n        str[0] = '0';\r\n        str[1] = 'x';\r\n        for (uint i = 0; i < 20; i++) {\r\n            str[2+i*2] = alphabet[uint(uint8(value[i + 12] >> 4))];\r\n            str[3+i*2] = alphabet[uint(uint8(value[i + 12] & 0x0f))];\r\n        }\r\n        return string(str);\r\n    }\r\n    \r\n    // Converts an Ethereum Address string that was obtained from the \"_addressToString\" method above and converts it into\r\n    // an Ehereum \"address\" type.\r\n    //\r\n    // Reference --> https://ethereum.stackexchange.com/questions/67436/a-solidity-0-5-x-function-to-convert-adress-string-to-ethereum-address\r\n    function _parseEthereumAddressStringToAddress(string memory _a) internal pure returns (address) {\r\n        bytes memory tmp = bytes(_a);\r\n        uint160 iaddr = 0;\r\n        uint160 b1;\r\n        uint160 b2;\r\n        \r\n        for (uint i = 2; i < 2 + 2 * 20; i += 2) {\r\n            iaddr *= 256;\r\n            b1 = uint160(uint8(tmp[i]));\r\n            b2 = uint160(uint8(tmp[i + 1]));\r\n            \r\n            if ((b1 >= 97) && (b1 <= 102)) {\r\n                b1 -= 87;\r\n            } else if ((b1 >= 65) && (b1 <= 70)) {\r\n                b1 -= 55;\r\n            } else if ((b1 >= 48) && (b1 <= 57)) {\r\n                b1 -= 48;\r\n            }\r\n            \r\n            if ((b2 >= 97) && (b2 <= 102)) {\r\n                b2 -= 87;\r\n            } else if ((b2 >= 65) && (b2 <= 70)) {\r\n                b2 -= 55;\r\n            } else if ((b2 >= 48) && (b2 <= 57)) {\r\n                b2 -= 48;\r\n            }\r\n            \r\n            iaddr += (b1 * 16 + b2);\r\n        }\r\n        \r\n        return address(iaddr);\r\n    }\r\n    \r\n    // Allows for safely dividing two numbers.\r\n    // Source --> https://github.com/OpenZeppelin/openzeppelin-contracts/blob/master/contracts/math/SafeMath.sol\r\n    function _safeMathDivide(uint256 a, uint256 b) internal pure returns (uint256) {\r\n        require(b > 0, \"_safeMathDivide : Denominator is 0\"); // Solidity automatically throws when dividing by 0\r\n        uint256 c = a / b;\r\n        require(a == b * c + a % b, \"_safeMathDivide : Division Overflow\"); // There is no case in which this doesn't hold\r\n        return c;\r\n    }\r\n    \r\n    // Allows for safely multiplying two numbers.\r\n    // Source --> Simple Timed Auction Homeowrk Assignment and https://github.com/OpenZeppelin/openzeppelin-contracts/blob/master/contracts/math/SafeMath.sol\r\n    function _safeMathMultiply(uint _a, uint _b) internal pure returns (uint) {\r\n        if (_a == 0 || _b == 0) {\r\n            return 0;\r\n        }\r\n        \r\n        uint c = _a * _b;\r\n        \r\n        require(c / _a == _b, \"_safeMathMultiply : Multiplication Overflow\");\r\n        require(c / _b == _a, \"_safeMathMultiply : Multiplication Overflow\");\r\n        \r\n        return c;\r\n    }\r\n    \r\n    // Allows for safely obtaining the Percentage of a Total Amount.\r\n    // Source --> https://ethereum.stackexchange.com/questions/36272/get-percentage-of-gas-price-solidity-ethereum\r\n    function _getPercentageOfTotalAmount(uint256 _numerator, uint256 _denominator, uint256 _totalAmount) internal pure returns (uint256) {\r\n        uint256 totalNumerator = _safeMathMultiply(_numerator, _totalAmount);\r\n        return _safeMathDivide(totalNumerator, _denominator);\r\n    }\r\n}",
  "sourcePath": "/mnt/d/Kingsland-University-Decentralized-Marketplace-Decentralized-Application-Project-2019/contracts/GeneralUtilities.sol",
  "compiler": {
    "name": "solc",
    "version": "0.5.8+commit.23d335f2.Emscripten.clang"
  },
  "schemaVersion": "3.0.16",
  "updatedAt": "2019-11-24T01:16:12.939Z",
  "devdoc": {
    "methods": {}
  },
  "userdoc": {
    "methods": {}
  }
}